:020000040800F2
:100000000000032095050008991F00089B1F0008A9
:100010009D1F00089F1F0008A11F0008000000008E
:10002000000000000000000000000000A18900089E
:10003000A31F000800000000318A0008958A00080C
:10004000E5050008E5050008E5050008E5050008E8
:10005000E5050008E5050008E5050008E5050008D8
:10006000E5050008E5050008E5050008E5050008C8
:10007000E5050008E5050008E5050008E5050008B8
:10008000E5050008E5050008E5050008E5050008A8
:10009000E5050008E5050008E5050008E505000898
:1000A000E5050008E5050008E5050008E505000888
:1000B000E5050008E5050008E5050008E505000878
:1000C000E5050008E5050008E5050008E505000868
:1000D000E5050008E5050008E5050008E505000858
:1000E000E5050008E5050008E5050008E505000848
:1000F000A51F0008E5050008E5050008E50500085E
:10010000E5050008E5050008E5050008E505000827
:10011000E5050008E5050008E5050008B11F000831
:10012000E5050008E5050008E5050008E505000807
:10013000E5050008E5050008E5050008E5050008F7
:10014000E5050008E5050008E5050008E5050008E7
:10015000E5050008E5050008E5050008E5050008D7
:10016000E5050008E5050008E5050008E5050008C7
:10017000E5050008E5050008E505000800000000A9
:10018000E5050008E5050008E5050008E5050008A7
:10019000E5050008E5050008E5050008E505000897
:0C01A000BD1F0008E5050008C91F00088D
:1001B00010B5054C237833B9044B13B10448AFF3A1
:1001C00000800123237010BD6C010020000000009E
:1001D0008814020808B5034B1BB103490348AFF369
:1001E000008008BD00000000700100208814020893
:1001F00001F0FF01102A2BDB10F0070F08D010F8D8
:10020000013B013A8B422DD010F0070F42B3F6D1DB
:10021000F0B441EA012141EA014122F007047FF0F4
:1002200000070023F0E80256083C85EA010586EA4B
:10023000010685FA47F5A3FA87F586FA47F6A5FA87
:1002400087F68EB9EED1F0BC01F0FF0102F0070293
:1002500032B110F8013B013A83EA010313B1F8D13E
:100260000020704701387047002D06BF354603381F
:10027000073815F0010F07D1013015F4807F02BF58
:10028000013015F4C03F0130F0BC0138704700BFA9
:1002900053B94AB9002908BF00281CBF4FF0FF31ED
:1002A0004FF0FF3000F074B9ADF1080C6DE904CEE9
:1002B00000F006F8DDF804E0DDE9022304B0704741
:1002C0002DE9F047089D04468E46002B4DD18A4209
:1002D000944669D9B2FA82F252B101FA02F3C2F13C
:1002E000200120FA01F10CFA02FC41EA030E9440CD
:1002F0004FEA1C48210CBEFBF8F61FFA8CF708FBEE
:1003000016E341EA034306FB07F199420AD91CEBC5
:10031000030306F1FF3080F01F81994240F21C81F7
:10032000023E63445B1AA4B2B3FBF8F008FB10333F
:1003300044EA034400FB07F7A7420AD91CEB040474
:1003400000F1FF3380F00A81A74240F20781644444
:10035000023840EA0640E41B00261DB1D4400023C9
:10036000C5E900433146BDE8F0878B4209D9002D2D
:1003700000F0EF800026C5E9000130463146BDE8B7
:10038000F087B3FA83F6002E4AD18B4202D3824221
:1003900000F2F980841A61EB030301209E46002DD0
:1003A000E0D0C5E9004EDDE702B9FFDEB2FA82F225
:1003B000002A40F09280A1EB0C014FEA1C471FFA83
:1003C0008CFE0126200CB1FBF7F307FB131140EA6A
:1003D00001410EFB03F0884208D91CEB010103F137
:1003E000FF3802D2884200F2CB804346091AA4B2F9
:1003F000B1FBF7F007FB101144EA01440EFB00FECD
:10040000A64508D91CEB040400F1FF3102D2A64531
:1004100000F2BB800846A4EB0E0440EA03409CE7D0
:10042000C6F12007B34022FA07FC4CEA030C20FA7D
:1004300007F401FA06F31C43F9404FEA1C4900FA9D
:1004400006F3B1FBF9F8200C1FFA8CFE09FB18111A
:1004500040EA014108FB0EF0884202FA06F20BD98D
:100460001CEB010108F1FF3A80F08880884240F2DD
:100470008580A8F102086144091AA4B2B1FBF9F021
:1004800009FB101144EA014100FB0EFE8E4508D91C
:100490001CEB010100F1FF346CD28E456AD90238A1
:1004A000614440EA0840A0FB0294A1EB0E01A14286
:1004B000C846A64656D353D05DB1B3EB080261EBF4
:1004C0000E0101FA07F722FA06F3F1401F43C5E9CE
:1004D000007100263146BDE8F087C2F12003D84004
:1004E0000CFA02FC21FA03F3914001434FEA1C4746
:1004F0001FFA8CFEB3FBF7F007FB10360B0C43EA38
:10050000064300FB0EF69E4204FA02F408D91CEBE7
:10051000030300F1FF382FD29E422DD902386344E5
:100520009B1B89B2B3FBF7F607FB163341EA034185
:1005300006FB0EF38B4208D91CEB010106F1FF38D4
:1005400016D28B4214D9023E6144C91A46EA0046CB
:1005500038E72E46284605E70646E3E61846F8E65D
:100560004B45A9D2B9EB020864EB0C0E0138A3E7A6
:100570004646EAE7204694E74046D1E7D0467BE787
:10058000023B614432E7304609E76444023842E7FF
:10059000704700BFDFF834D0002103E00C4B5B58FC
:1005A000435004310B480C4B42189A42F6D30B4A85
:1005B00002E0002342F8043B094B9A42F9D305F0CC
:1005C000BFF91FF085FF00F0FDFE7047000003201B
:1005D000348C0A08000000206C0100206C0100200F
:1005E00090560120FEE700F039BC00F0ABBC70472C
:1005F00010B5042104461FF0FDFD204610BD00008B
:1006000038B50C4B0C4C18800C4B82201980636859
:10061000984740F6110398420AD1094D23682C608F
:10062000822098472B688220DB689847002038BDDD
:100630000120FCE788010020540000208A010020EE
:100640008C0100204FF4A071F020FFF7D9BF00000B
:10065000F7B52D4D2B6804461B698220984780B260
:100660002080002843D02B680DF106025B6901A9A8
:1006700082209847BDF80620A2F5B47292B20A2AE9
:1006800037D90B23B2FBF3F2204B1B889A4201D9D6
:10069000013B9AB2BDF8043040F6B8318B422AD8FB
:1006A000C3F571630E339BB20F21B3FBF1F318490D
:1006B00009888B4201D94B1E9BB2164E164D3068ED
:1006C0002F68834281B28CBF591AC91AB8B2BA4294
:1006D0008CBF101A801A89B280B201440529C8BFA4
:1006E00033603368C8BF2A6063802B68A38003B07F
:1006F000F0BD0022CEE7C3F56D6308339BB20E2B2D
:10070000D2D80023D9E700BF8C0100208A01002045
:1007100088010020900100209401002037B5684630
:100720000D461446FFF794FFBDF8000030B1BDF848
:1007300002302B60BDF804302360012003B030BDCF
:10074000704770477047012380F8741080F8753047
:100750007047002070470000034B4164003918BF08
:1007600001211970704700BFE3530120002070473A
:10077000836B0BB10846184770474FF6FF70704700
:10078000406803689B69184770477047704700F0DE
:1007900079BC08B503680446D3F8803098472368CD
:1007A00020469B6F984700F0EBF8236820461B6FAC
:1007B0009847292001F0A6F800F0E2F823682046C7
:1007C0001B6F9847F8E710B504460AF0F3FE23685C
:1007D0002046D3F8AC30BDE81040184700F044BCC8
:1007E00000F048BC00F074BC00F01ABC00F074BC0F
:1007F00000F07CBC00F01EBC0AF050B910B57C21A2
:1008000004461FF0F7FC204610BD90F877301BB16E
:10081000406803681B6818471846704710B590F881
:10082000341090F874400C4B8C421A7809D03AB9C5
:100830000A4A0B491488088810800C8001221A701B
:1008400010BD002AFCD0054A05491488088810808C
:100850000C800022F3E700BFDC530120D8530120B5
:10086000DA53012070B50D46194635B9094B0A4ACD
:100870000A4840F2D2211FF0EBFCC0E90F52084BAE
:10088000003A18BF01221A700368BDE87040D3F81F
:100890008C301847F8140208301502087E1502083B
:1008A000E253012008B5094B1B888B4203D8084B43
:1008B0001B88934205D9074B074A08489E211FF021
:1008C000C7FC074B1980074B1A8008BDD85301207D
:1008D000DA530120C3150208261602087E15020805
:1008E000DE530120E0530120012108B50022084613
:1008F00007F026FD0A4B186028B90A4B0A4A29213D
:100900000A481FF0A5FC00220421012007F0DEFDAB
:10091000074B186018B9074B034A2D21F0E708BDB3
:100920009C010020441702088D170208BC1702081A
:10093000980100200A180208024B4FF0FF31186896
:1009400007F054BD9C010020014B186807F088BDDA
:100950009C010020024B0021186807F047BD00BF32
:100960009C010020FFF7F0BF034804490068002302
:100970001A4607F0F1BD00BF9801002004000020D6
:1009800013B5084C00231A4601A9206807F026FE7B
:1009900020684FF0FF33002201A907F01FFE02B0CC
:1009A00010BD00BF9801002003685B6C1847012050
:1009B000704703689B6A184782B0002301930D4B70
:1009C0001A6B42F400021A631A6B02F400020192DD
:1009D000019A1A6942F400021A611A6922F40002AB
:1009E0001A61054B054A1A61054B4FF080629A6007
:1009F00002B07047003802404C380020450A000819
:100A000000E100E040F2EF3070470000054B03606A
:100A1000054B4FF08062C3F88820BFF34F8FBFF3C0
:100A20006F8F7047A819020800E100E010B5044676
:100A30004FF45A61FFF7EAFF20461FF0DBFB204628
:100A400010BD0000024B1B68586803685B691847BB
:100A5000E453012070B5044625460A4B0C300026AD
:100A600060602672667245F8203B602229460AF0D3
:100A7000F7FE04F55A63EE602435AB42FBD1204605
:100A800070BD00BFA819020808B50B290BD8DFE814
:100A900001F01206100A0A0A0A08080808080120CC
:100AA00008BD0520FCE7054B054A064867211FF0F5
:100AB000CFFB0020F4E70220F2E700BF4C18020849
:100AC00067180208B118020808B50A2909D8DFE832
:100AD00001F010060E0808080806060606000120A8
:100AE00008BD054B054A064888211FF0B1FB0020D0
:100AF000F6E70220F4E700BF4C180208FD180208D0
:100B0000B11802082DE9F8434F7F0C46394681465B
:100B1000FFF7BAFF94F81E80054641464846FFF7A6
:100B2000B3FF414606464846FFF7CEFFA18A628BD7
:100B3000424B521A1A649A61228B521A1A61E28A43
:100B4000586342EA01425A6420696268D863DA60F5
:100B5000216894F81CC080294FEA0C6226D010D876
:100B6000202945EA020461D040295FD004295DD0E4
:100B7000324B2A4342F400324745DA615AD0304AB8
:100B800040E0B1F5807F07D0B1F5007FF0D142F4AD
:100B9000003242F0090203E042F4003242F00A025D
:100BA000DA61E2681A625E6258612AE0A4682A4348
:100BB00042F40032211DD962DA6122785E62586106
:100BC00042B1012A21D01F4B1F4A20484FF489719E
:100BD0001FF03EFBDA69618822F47F42013922F07E
:100BE000100242EA0122DA610120144BDA6942F074
:100BF0002002DA61DA699206FCD410229A60002899
:100C0000BDD0134A1A60BDE8F8836288D969541EC2
:100C100021F47F4222F0100242EA0422BCF1FF00DC
:100C200042F0100218BF0120DA61DEE744F400341C
:100C3000DC61B8E740F20122E4E700BF00B0024007
:100C4000010201004819020862190208B1180208DD
:100C50000102020070B50C46897FFFF735FFA68AB6
:100C6000E18A628B154B2569586341EA0641921B64
:100C70005964DD631A642668E168082E0DD19A6113
:100C80001A615862207F0E4A42EA0062DA610D4A18
:100C900019625D61DD601A6070BD0022D8611A6161
:100CA00048090A0A02F4784200F4FC600243C1F3E6
:100CB000C4010A439A63044AEDE700BF00B0024052
:100CC000090001000102020001020300034B1A683F
:100CD000D207FCD423229A60704700BF00B00240C4
:100CE00030B50F4C2568ED07FCD423250904A56019
:100CF00041F001010225FF2B65636164E0630AD0C6
:100D00000849656241EA0363E361074B226260615F
:100D1000E060236030BDE561039BA363034BF8E70C
:100D200000B00240090001000100020001000300C0
:100D30000120704738207047382303FB010008303A
:100D40007047382303FB01000830704701207047CB
:100D500042F2C450704742F2C45303FB0100083012
:100D6000704742F2C45303FB010008307047012072
:100D700070471020704700EB01100830704700EBFF
:100D8000011008307047084601F0D8BB10B5034B7E
:100D90000360044609F0CFFB204610BD601A02082C
:100DA00010B50446FFF7F2FF204640211FF022FA5B
:100DB000204610BD10B5034B0360044609F0BBFB91
:100DC000204610BD2C1A020810B50446FFF7F2FFAA
:100DD000204642F2CC511FF00DFA204610BD000013
:100DE00010B5034B0360044609F0A5FB204610BD77
:100DF000F819020810B50446FFF7F2FF2046182143
:100E00001FF0F8F9204610BD10B5094B03600446E9
:100E100000F517503830FFF7B9FF04F12C00FFF749
:100E2000C9FF04F11400FFF7DBFF204610BD00BF2F
:100E3000941A020808B50248FFF7E6FF08BD00BF94
:100E4000A401002010B50446FFF7DEFF204642F261
:100E500094711FF0CFF9204610BD00002DE9F34139
:100E600001F026F9054601F027F900240146234642
:100E700028462246009413F0BDF8264B264A274DFB
:100E80001A60204603F0C0FE254813F01BF82B78AB
:100E9000BFF35B8FDB0736D428461FF0ADF990B364
:100EA000204C214F214B236007F1440604F114002C
:100EB00004F12C086060C4F80880E760266109F03E
:100EC0003BFB1B4B6361404609F036FB194BE36269
:100ED000384609F031FB04F50053174AC3F8F825EA
:100EE00003F5C76003F00CFF224607F140013046CE
:100EF00003F0FCFE304601F021FB10481FF0C6F95C
:100F000028461FF085F90E4802B0BDE8F041FFF712
:100F10003EBC00BF4854012058370020A0010020EB
:100F200008000020A40100209C270020941A020839
:100F3000F81902082C1A0208601A0208350E000877
:100F4000DC3600200148FFF724BC00BFDC3600205F
:100F500070B5234C234E244B244D23603046FFF7BD
:100F600079FD284616F050F9214B2248DC60224CCE
:100F700003600022F0204FF480712080C3E9121238
:100F80001E4C1F492080C3E919121E4C1A864FF0CF
:100F900080714FF4A07059670121C3E90422C3E9AD
:100FA0000622C3E90822C3E90A22C3E90E22C3E9E3
:100FB0001022C3E91422C3E916221A6683F86C20B2
:100FC0001A67C3E9016583F8781020800E4C83F816
:100FD000341020800D4802700D4A1A6070BD00BFA9
:100FE000382900203C290020E81402085C37002042
:100FF000DC360020E4530120D8530120DE530120C9
:1010000001000001DA530120E0530120DC530120EC
:10101000741602080148FFF7F9BC00BF3C29002004
:10102000034B902283F85A2383F85823704700BF5C
:1010300000E100E0094A0A49D3680A48C3F30A03F9
:10104000013B9BB20B801169C1F30A010139018098
:101050001364536B43F0010353637047006801400E
:10106000D8370020D6370020014BD3F8AC007047AA
:1010700000680140024B0122C3F8AC105A6270476D
:101080000068014070B5044609F05DFD23685D6E9F
:101090000FF094FD01462046A8472368054AD3F87F
:1010A00088502046AC460023BDE87040A2F51631BA
:1010B000604700BF005802D009F02CBD90F84B30BB
:1010C00013B1024B01221A7009F030BDD437002051
:1010D00009F0EABC09F043BE034B4FF080629A600E
:1010E0004FF080729A60704700E100E0084B4FF0CB
:1010F0008062C3F88820BFF34F8FBFF36F8F4FF02C
:101100008072C3F88820BFF34F8FBFF36F8F704793
:1011100000E100E010B5144C236823B3134B144ACC
:101120001B6C11888B4213D1124B198805F0F6FE07
:10113000226892F86630013382F86630FFF714FCBB
:1011400020680AF037FABDE810400020FFF7F8BA2F
:1011500005F0E4FE206803681B6A9847BDE810406C
:101160000020FFF7EEBA10BDE453012000680140F3
:10117000D8370020D637002007B5064BADF806005B
:101180001B68054801220DF1060106F0D8FB03B0EB
:101190005DF804FB10000020BC3900200C4982B02F
:1011A000002303F25E2201EB820292ED007ADDED74
:1011B000017A013377EE877A3C2BCDED017AF0D1BD
:1011C0009DED010ADFED037A80EE270A02B0704739
:1011D000543A0020000070422DE9F843434C444D3E
:1011E000D4F86C3A002B71D000232846C4F86C3A2E
:1011F000404F414E04F098FC4FF0FF31284604F078
:1012000007FD284604F053FD3A68336801320A218D
:1012100018443A6092FBF1F301FB13223060002A7C
:1012200054D13368B3FBF1F307EE903A9FED337A74
:10123000F8EEE77A67EE877A9FED317A67EE877A84
:10124000C4ED007A2369002B3DD0D4F8783ADFF85A
:10125000B880002BDFBF2368A3610123C4F8743A70
:1012600094ED007AD4ED017AB4EEE77AF1EE10FA5B
:10127000C4BF23686360D4F8783A0133C4F8783A7D
:10128000D8F800304FF0010903EB090203F25E23A6
:10129000C4F8709A04EB83032168C8F800203B2A45
:1012A000196010DD3C23D4F8780A90FBF3F0FFF7C7
:1012B00075FF063004EB8000002380ED000AC8F8BB
:1012C0000030C4F8749A00233B6033602669012E15
:1012D00008D1626932B90B4840F25553102104F02D
:1012E00048FE6661012007F011F879E7543A0020C2
:1012F000E8370020D0440020D84400203333534046
:101300000000803938380020D4440020F0B5A1B066
:10131000102200210AA81FF021F91422002103A89D
:101320001FF01CF90021302214A81FF017F9002427
:10133000224B01941A6C42F080521A641B6C03F029
:1013400080530193019B1E4B02941A6842F4404261
:101350001A601B6803F4404302930122029B4FF47E
:101360008033CDE9082302254FF48003CDE90E53E5
:1013700008274FF4A873042608A8CDE91073129526
:10138000139605F0E9FD0F23CDE903354FF4A05185
:101390004FF48053CDE9061303A80521059405F009
:1013A000B3FFC023189314A84FF4003314971A9670
:1013B0001D9306F083F821B0F0BD00BF0038024055
:1013C000007000402DE980489BB004F0C7FAFFF799
:1013D0009DFF142200210DA800241FF0BFF8C44B6C
:1013E00000941A6BC348C44D42F020021A631A6B72
:1013F00002F020020092009A01941A6B42F08002DF
:101400001A631A6B02F080020192019A02941A6B1D
:1014100042F004021A631A6B02F004020292029A6A
:1014200003941A6B42F001021A631A6B02F0010274
:101430000392039A04941A6B42F002021A631A6B25
:1014400002F002020492049A05941A6B42F04002E0
:101450001A631A6B02F040020592059A06941A6B01
:1014600042F010021A631A6B02F010020692069AFA
:1014700007941A6B42F008021A631B6B03F008030F
:10148000079322460421079B04F06AFF9B482246EB
:101490004FF4805104F064FF224699484FF44051C4
:1014A000012604F05DFF02274FF0040B91480F94D2
:1014B0000DA9CDE90DB6109704F06AFE4FF48052E5
:1014C0008E480DA9CDE90D26CDE90F4404F060FE4C
:1014D0000DA94FF440528A48CDE90D26CDE90F47BA
:1014E00004F056FE8748884A026004F0D1FC874B1E
:1014F000874A2C62C5E9003228464FF48042C5E98C
:101500000424C5E90244C5E9064405F00BF910219D
:10151000284605F047FB2146284605F062FB7D483A
:101520007D4984624FF48272C0E900124FF4007565
:101530001822C0E906520A22784DC262C0E902446C
:10154000C0E90444C0E9084406F0BCF9744A0D97A8
:101550004FF01008C5E900264022C5E904824FF487
:10156000C072C5E906244FF4006203234FF0070957
:10157000C5E908240DA94FF400522846CDE91137DA
:101580004FF0080AC5E9024BAA62CDE90E9BCDF8DF
:101590004090139706F0BCF84FF6FF7209A9284651
:1015A000CDE90AA6099608940C9406F0D1F83046C5
:1015B00004F000FA4FF6FF7209A92846CDE9097A2E
:1015C000CDE90B6406F0C4F803234FF6FF7209A9B6
:1015D0002846CDE9093ACDE90BB406F0B9F84FF445
:1015E0000C720892089B0C934FF6FF7209A92846CB
:1015F000CDE909BA0B9606F0ABF840F26A512846DD
:1016000006F0BDF8342221460DEB02001EF0A6FFC5
:10161000444D454BAC86C5E9003409234FF01D0C01
:10162000C5E905360323C5E907C340F20D1E40F2A4
:101630004313C5E909E3284640F2471340F2171A5D
:10164000C5E90BA3C5E902442C6185F8364005F0D5
:101650006DFBFF21F022CDE912144FF4806B0521C0
:101660004FF4A073CDE90E24CDE914B1CDE91642B3
:101670000DA922462846CDE910372C4D18930D941C
:10168000ADF864408DF8664005F01BFC284B2B60DC
:101690001B6898472B68274DDB689847264BC5E9A0
:1016A0000A47C5E90C442846C5E90034C5E9027477
:1016B00004F071FC3146284604F026FD21464246DE
:1016C0000DA81EF04BFF1D4D1D4AEE614FF48033F7
:1016D000C5E9002328461B4BAB626E61AC602C61F0
:1016E0002C7685F82040EC62EC6085F830402BE0E9
:1016F00000380240000802408C38002000040240FC
:10170000000C02403038002000300240005C0040F5
:10171000A0860100BC39002000500140883900201B
:10172000400100A0E038002000680140E0370020C0
:101730001C0000204C38002000B00240E837002098
:10174000002001400100000F04F048F90DA92846CF
:10175000CDE90D96254DCDF83C9004F0ABFA244927
:10176000244EAC6042F2CF03C5E900132846632340
:10177000EB60CDE90D44AC6106F03EFC0DA92846B6
:10178000CDE90D4406F052FC1B4B33603046CDE9E9
:101790000D4404F08DFB42460DA93046CDE90D44C1
:1017A00004F0C6FBFEF71FFF284606F008FB414683
:1017B000304604F090FB40F25553224641463046F5
:1017C00004F0D7FB06F012FD0C4A0D48214606F046
:1017D00047FD0C4B0C4A186021460C4806F040FDB2
:1017E0000B4B186006F01CFDFEE700BF143A00200A
:1017F000001400403838002000740040B41A020879
:10180000EB050008DC370020D81A0208D9110008BF
:10181000E4370020704770477FB5094B8DF81720DB
:101820001B6802930DF117020123009201930A46EF
:101830000146044805F01EF807B05DF804FB00BF40
:101840000C0000208C3800207FB500238DF8173065
:10185000084B1B6802930A4601230DF11701009102
:1018600001930146044805F095F89DF8170007B06C
:101870005DF804FB0C0000208C3800201FB5084CDC
:1018800024680092CDE901340A4601230146054847
:1018900005F080F8003818BF012004B010BD00BF6B
:1018A0000C0000208C38002004F084B808B50648ED
:1018B0000022042104F054FDBDE808400248012242
:1018C000042104F04DBD00BF0008024038B50B4DA7
:1018D000044601220A484FF4005104F041FD002261
:1018E0000421284604F03CFD2046FFF745FC28462D
:1018F0000122BDE83840042104F032BD0008024056
:10190000000C024038B50B4D044600220A484FF443
:10191000005104F025FD00220421284604F020FD9A
:101920002046FFF729FC28460122BDE83840042163
:1019300004F016BD00080240000C0240F7B5144E3A
:10194000144F05460C4630460022042104F008FDE1
:1019500000224FF40051384604F002FD2846FFF7FC
:101960000BFC0D4B0D481B68224601A906F085F9BA
:10197000384601224FF40051019C04F0F1FC30463E
:101980000122042104F0ECFC204603B0F0BD00BFAE
:1019900000080240000C024010000020BC3900206A
:1019A00004F008B80268084B9A4210B5044601D109
:1019B00003F0EEFF2268054B9A4202BF044B01225E
:1019C000C3F86C2A10BD00BF0004014000140040A1
:1019D000543A002082B00E4B00220092596C41F420
:1019E00080415964596C01F4804100910099019241
:1019F000196C41F0805119641B6C03F08053019302
:101A0000019B0F216FF0010002B004F001BA00BF8A
:101A10000038024010B5044688B01422002103A803
:101A20001EF09CFD2268124B9A421ED103F58C33A6
:101A3000002101915A6C0F4842F480725A645A6C2A
:101A400002F480720192019A02911A6B42F0010233
:101A50001A631B6B03F001030293029B8022032392
:101A600003A9CDE9032304F093FB08B010BD00BF28
:101A700000200140000002400268094B9A4282B0F7
:101A80000BD100230193074B1A6B42F480521A6367
:101A90001B6B03F480530193019B02B0704700BF9E
:101AA000003002400038024010B5044688B01422CD
:101AB000002103A81EF052FD2268124B9A421ED14B
:101AC00003F5E233002101911A6C0F4842F00052F5
:101AD0001A641A6C02F000520192019A02911A6B78
:101AE00042F001021A631B6B03F001030293029B95
:101AF0002022032303A9CDE9032304F049FB08B006
:101B000010BD00BF007400400000024007B50F4B3D
:101B100002689A4216D10022A3F5F0430192196B94
:101B200041F4000119631B6B03F4000301930521C9
:101B30005A20019B04F06CF95A2003B05DF804EBC5
:101B400004F098B903B05DF804FB00BF00B0024098
:101B50002DE9F043044689B01422002103A81EF0A9
:101B6000FDFC2268244B9A4243D1244C2448002592
:101B70000095236B43F004032363236B03F00403FA
:101B80000093009B0195236B43F001032363236BB8
:101B900003F001030193019B4FF012094FF400730E
:101BA0004FF001080327042603A9CDE90339CDE945
:101BB0000587079604F0ECFA4FF4807311480796F6
:101BC00003A9CDE90339CDE9058704F0E1FA0295CF
:101BD000236C43F400032364236C03F40003029397
:101BE000029B236A43F400032362236A23F4000365
:101BF000236209B0BDE8F083005C00400038024079
:101C00000008024000000240F0B504468DB01422E6
:101C1000002107A81EF0A2FC2268574B9A4240F010
:101C2000A88003F55043002500955A6C534842F0B4
:101C300080625A645A6C02F080620092009A0195A8
:101C40001A6B42F020021A631A6B02F02002019212
:101C5000019A02951A6B42F001021A631A6B02F0A4
:101C600001020292029A03951A6B42F002021A6371
:101C70001A6B02F002020392039A04951A6B42F067
:101C800040021A631A6B02F040020492049A05950E
:101C90001A6B42F004021A631A6B02F004020592F6
:101CA000059A06951A6B42F008021A631B6B03F043
:101CB0000803069302240E26069B0A944FF48063C1
:101CC00007A9CDE907340B9604F062FA41F65803F0
:101CD0002B480B9607A9CDE907340927CDE909540C
:101CE00004F056FA032327480B9707A9CDE90734D8
:101CF000CDE9095404F04CFA4FF4706321480B9677
:101D000007A9CDE90734CDE9095404F041FA4FF4AD
:101D10000C631D480B9607A9CDE90734CDE909549A
:101D200004F036FAC02319480B9607A9CDE9073409
:101D3000CDE9095404F02CFA082315480B9607A99D
:101D4000CDE90734CDE9095404F022FA4FF4A05349
:101D50000D480B9707A9CDE90734CDE9095404F0E4
:101D600017FA58202A46052104F052F8582004F0AA
:101D700081F80DB0F0BD00BF0068014000140240C2
:101D80000000024000040240001802400008024027
:101D9000000C024010B5044688B01422002103A8AC
:101DA0001EF0DCFB2268144B9A4223D103F56843F2
:101DB000002101915A6C114842F480125A645A6C05
:101DC00002F480120192019A02911A6B42F02002F1
:101DD0001A631B6B03F020030293029B4FF46072A3
:101DE00002230321CDE903230523CDE9061303A92B
:101DF00004F0CEF908B010BD0050014000140240BC
:101E000007B50F4B02689A4216D1002203F5093339
:101E10000192196C41F0200119641B6C03F020033E
:101E2000019305213720019B03F0F2FF372003B017
:101E30005DF804EB04F01EB803B05DF804FB00BFCE
:101E4000001400402DE9F04186B0002303932B4B92
:101E50001C68002C4FD14FF00108C3F80080284BBC
:101E600000949A6B274842EA08029A639B6B03EA44
:101E700008030093022703260C25009B01A94FF6B7
:101E80003F03CDE90137CDE9046504F081F91E482F
:101E9000059501A9CDE90187CDE9034604F078F95C
:101EA00048F233131948059501A9CDE90137CDE969
:101EB000034604F06DF94FF683731548059501A9A3
:101EC000CDE90137CDE9034604F062F94CF2037322
:101ED0001048059501A9CDE90137CDE9034604F085
:101EE00057F960230C48059501A9CDE90137CDE9E3
:101EF000034604F04DF906B0BDE8F081DC44002053
:101F0000003802400014024000080240001802405D
:101F100000100240000C02400004024030B50146AF
:101F200089B000222C2003F073FF2C2003F0A2FFC5
:101F30000025154B02955A6C144C42F002025A646B
:101F40005B6C03F00203029301A903A8029B05F056
:101F500097FA05F085FA0E4B236040F2E733E36011
:101F600040000C4BB0FBF3F0013860602046256167
:101F7000A56006F041F820B9204605F020FF09B021
:101F800030BD0120FBE700BF00380240E0440020E4
:101F90000004014040420F007047FEE7FEE7FEE705
:101FA000FEE77047014805F01EBF00BFE044002077
:101FB000014805F018BF00BF143A0020014804F0A2
:101FC00023BF00BFE0380020014804F012B800BF72
:101FD0004C3800200120704708B51EF06BF916231D
:101FE00003604FF0FF3008BD08B51EF063F91623FB
:101FF0000360FEE770B50D4614460E46731B9C4207
:1020000001DC204670BDAFF3008006F8010BF5E758
:1020100070B50D4614460E46731B9C4201DC2046EB
:1020200070BD16F8010BAFF30080F5E74FF0FF30FD
:1020300070474FF400534B600020704701207047F9
:10204000002070470A4A116808B5034609B90949D2
:1020500011601068694603448B4206D91EF02AF9C4
:102060000C2303604FF0FF3008BD1360FCE700BF96
:102070002045002090560120704710B504210446E9
:102080001EF0B8F8204610BD012908B506D0022977
:1020900008D059B902F004FE006808BD02F000FE45
:1020A0004068FAE702F0FCFD8068F6E70020F4E7FC
:1020B00000487047101B02080920704713B5002420
:1020C00051B1036801948DF8034001AA9C680DF199
:1020D0000303A04702B010BD0846FBE740897047E4
:1020E000808970478088704783798088184480B2DF
:1020F0007047C07900F07F007047C079C009704711
:10210000704710B5082104461EF074F8204610BD33
:102110007047704700F596730868496803C37047B5
:102120000020704781807047C180704701817047EF
:10213000418170477047704770477047704710B4CF
:10214000C4880368121B84885B6D091B12B25DF89A
:10215000044B09B218474FF6FF7383814FF0FF33EA
:1021600003621368C3611060704770477047416035
:1021700070477047064BC0F848310023C0F84C3117
:1021800000F5A073C0F84401C0F83C31704700BFAF
:10219000A522000801230372704790F825201AB188
:1021A00090F8242002B1186070477047704770475C
:1021B000704701464068036810315B6E184701465E
:1021C0004068036810311B6E18477047704710B5A0
:1021D0000022B1F90840B1F90A10028042808480DF
:1021E000C18010BD10B4C26841685410034601EBB1
:1021F0006200D20748BF0A599B685DF8044B48BF8C
:10220000D358184743682BB183682BB9C06800F0D6
:1022100001007047184670470120704710B50C2127
:1022200004461DF0E7FF204610BD10B510210446FE
:102230001DF0E0FF204610BD10B54FF4AC71044610
:102240001DF0D8FF204610BD10B5382104461DF002
:10225000D1FF204610BD10B5282104461DF0CAFF4D
:10226000204610BD08B50EF0A9FCBDE808400FF0EF
:1022700049B890F8252012B103685B691847704788
:1022800010B50446D0F83C0158B10368DB689847A4
:1022900038B1D4F83C0103689B6898470023C4F820
:1022A0003C3110BD2DE9F14FD0E9545A0746A868DA
:1022B00003681B6A9847B0F5C26F05D2454B464A82
:1022C000A32146481DF0C4FF686803681B6A98474D
:1022D0000F2803D8424B404AA421F2E7E86803687C
:1022E0001B6A98470B2803D83E4B3B4AA521E8E7D9
:1022F000DFF8F8900EF062FC0EF066FCD9F80000F2
:1023000010B10368DB689847D9F8000010B1036882
:102310001B689847DFF8D880D8F8000010B1036830
:102320005B699847D7F8380110B103685B68984734
:10233000D8F8000010B103681B689847D7F8380137
:1023400010B103689B689847E868036800215B6ADE
:1023500098474FF0000B244B03600446C0F804B0CC
:1023600080F808B0A868036859465B6A9847064633
:1023700002F0C0FD6868036859465B6A98473146B9
:10238000054602F00BFDC9F80040C7F83851C8F8FF
:102390000060E5B12B1DCAF800303368C5F808A00D
:1023A0003046DB68F56398472B6828461B689847DA
:1023B0002146304610F0B0F8236820461B69984744
:1023C00023685B69204601B0BDE8F04F18472B46F3
:1023D000E1E700BFD41B0208621C0208661D020868
:1023E000AD1D0208501E0208942102082C54012041
:1023F00028540120044B1B6893F876200AB1D86C4E
:1024000000B99868704700BFE4530120F0B5044656
:10241000807A637A0130C0B2984289B0A07250D8F5
:10242000B4F90C20002110F07DF810F0010283B205
:102430004DD04FF6FF710028D8BF0A461344E38100
:10244000244E254F3188B4F818C0E389B7F900004D
:10245000ADF81E00CA1A606863445B1AADF81C3000
:10246000036812B200251B692283ADF81820ADF86D
:102470001A5006A99847A37A012B26D1174B1B782F
:102480001BB3A169606904AB03C3154B18680368EB
:102490001B6B98473388ADF81C303B88ADF81E3075
:1024A0000390ADF81850ADF81A50FFF7A3FFFF22C4
:1024B000036800920195DC68039904AB06AAA04763
:1024C00003E0012323720023A37209B0F0BDE08171
:1024D000B6E700BFD8530120DA530120E2530120B0
:1024E000E4530120F8B5044617460E460EF086FB6D
:1024F0000E4B1C600E4B23600E4B0025C4E950357B
:102500000D4BC4E952551868036829469B68C4E915
:102510004E55C4E954769847284602F075FBFFF7FC
:1025200069FF16F058FC2046F8BD00BF3854012062
:102530004821020830210208E4530120064BC0F86C
:1025400048310023C0F84C3100F5A073C0F84401B5
:10255000C0F83C31704700BFA5220008064BC0F808
:1025600048310023C0F84C3100F5A073C0F8440195
:10257000C0F83C31704700BF41270008064BC0F847
:1025800048310023C0F84C3100F5A073C0F8440175
:10259000C0F83C31704700BF0126000837B504463B
:1025A0000023134A02604360037241728372C4E9DC
:1025B0000533C4E90733C4E90933C4E90B33E381C4
:1025C0004FF4807363630B4B23610B4BB3F9001023
:1025D0000A4BA181B3F9005010300190FFF7A6FD1E
:1025E00001982946FFF7A4FD204603B030BD00BF87
:1025F00020220208B8210208D8530120DA53012012
:102600002DE9F047D0E9544A0746A06803681B6AE1
:10261000984742F2C353984205D8424B424AA321FD
:1026200042481DF015FE606803681B6A98470F2832
:1026300003D83F4B3C4AA421F2E7E06803681B6AD9
:102640009847372803D83B4B374AA521E8E7DFF8FE
:10265000E8900EF0B3FA0EF0B7FAD9F8000010B116
:102660000368DB689847D9F8000010B103681B685D
:102670009847DFF8C880D8F8000010B103685B699C
:102680009847D7F8380110B103685B689847D8F8C5
:10269000000010B103681B689847D7F8380110B1E3
:1026A00003689B689847E068036800215B6A984765
:1026B00014210546FFF772FFA068036800215B6ADA
:1026C0009847064602F092FE6068036800215B6A44
:1026D00098473146044602F057FCC9F80050C7F845
:1026E0003841C8F80060DCB1231DCAF800303368F7
:1026F000C4F808A03046DB68F46398472368204696
:102700001B689847294630460FF006FF2B6828467D
:102710001B6998472B6828465B69BDE8F047184756
:102720002346E2E7D41B0208F31E0208661D0208D6
:10273000AD1D0208501E02082C540120285401200F
:102740002DE9F047D0E9544A0746A06803681B6AA0
:102750009847B0F5C26F05D2424B434AA321434884
:102760001DF076FD606803681B6A98470F2803D840
:102770003F4B3D4AA421F2E7E06803681B6A984793
:10278000372803D83B4B384AA521E8E7DFF8E89023
:102790000EF014FA0EF018FAD9F8000010B1036820
:1027A000DB689847D9F8000010B103681B689847A8
:1027B000DFF8C880D8F8000010B103685B6998475B
:1027C000D7F8380110B103685B689847D8F8000063
:1027D00010B103681B689847D7F8380110B1036837
:1027E0009B689847E068036800215B6A984714215A
:1027F0000546FFF7D3FEA068036800215B6A98478F
:10280000064602F077FB6068036800215B6A984720
:102810003146044602F0C2FAC9F80050C7F8384100
:10282000C8F80060DCB1231DCAF800303368C4F872
:1028300008A03046DB68F4639847236820461B688D
:102840009847294630460FF067FE2B6828461B69DB
:1028500098472B6828465B69BDE8F0471847234630
:10286000E2E700BFD41B020811200208661D02081F
:10287000AD1D0208501E02082C54012028540120CE
:10288000006A7047406A704770478B8880690A68A1
:10289000DB0A50F823001044704710B5C2B1137B17
:1028A000B3B1547BD27A240204F4E0641443C269C5
:1028B00098B202EB840213888B4202D192F9020093
:1028C00010BD05D8013880B204320028F3D1F7E7F3
:1028D0000020F5E710B5282104461DF08BFC2046AA
:1028E00010BD000030B589B00446BDF850500695C3
:1028F000BDF84C5005959DF8405004959DF83C500E
:1029000003959DF8385002959DF8345001959DF837
:10291000305000950FF096F9064B2360119BA36190
:10292000129BE361159B2362169B6362204609B0EC
:1029300030BD00BF44220208806A7047704770476C
:1029400070477047704730B50368018185B06D46A8
:102950000146D3F8843004462846984795E8070096
:102960003C3484E8070005B030BD30B503684181D0
:1029700085B06D460146D3F8843004462846984712
:1029800095E807003C3484E8070005B030BD00221C
:10299000028042808280C280704780F83610704783
:1029A00070B5036804461B6B154698472368294693
:1029B00020465B6EBDE87040184700207047806C71
:1029C000704770477047704770477047704770474F
:1029D000704790F82C304BB100F16C021268C26560
:1029E0003BB100F174031B680366704700F1680295
:1029F000F4E700F17003F6E77047704770477047DF
:102A000030B4C26844685510034604EB6200D20734
:102A100048BF62599B6830BC48BFD35818474368C9
:102A20002BB183682BB9C06800F0010070471846CD
:102A300070470120704730B4C2684468551003469F
:102A400004EB6200D20748BF62599B6830BC48BFA4
:102A5000D358184743682BB183682BB9C06800F07E
:102A600001007047184670470120704790F82D30DC
:102A700080F8A43080F85A30704790F82D3080F8F4
:102A80005A30704710B504467C3094F82C303BB176
:102A900004F17A010BF0E4FB2046FFF79AFF10BD2A
:102AA00004F17801F6E710B54C2104461DF0A2FBB5
:102AB000204610BD10B5782104461DF09BFB204632
:102AC00010BD10B5A82104461DF094FB204610BD92
:102AD00010B5102104461DF08DFB204610BD10B529
:102AE000102104461DF086FB204610BD10B54FF4A2
:102AF000C26104461DF07EFB204610BD10B50446A1
:102B0000006B50B10368DB68984730B1206B0368F5
:102B100021469B68BDE81040184710BD00F1C40273
:102B2000914202D10368DB6A184700F5B672914200
:102B300002D103681B6BF7E700F22442914202D1F5
:102B40000368DB6BF0E700F2CC42914202D10368EC
:102B50009B6BE9E770470B7970B590F82C600446E1
:102B60000D469BB98EB9B3FA83F35B0984F82C3018
:102B700023682046D3F88C309847236820465B6949
:102B8000984716B12B79012B03D070BD002EFCD0D5
:102B9000E9E723682046D3F88830BDE8704018473D
:102BA000036870B55E6B124B1B6804468DB22BB97F
:102BB000104B114A6C2111481DF04AFB1049828DBF
:102BC0000988914203D80F4B0B4A6D21F3E713F8A4
:102BD00012200D4B1B6853F822000368DB6A9847EC
:102BE000281A01B233462046BDE87040184700BF9E
:102BF0003C54012094220208D62202081123020824
:102C000040540120582302084454012000F52A733F
:102C10008B4210B5044609D10DF0D0FFFFF7AEFC92
:102C2000236820465B6BBDE81040184710BD0022AA
:102C30004FF0FF31C0E900218260704770B5036832
:102C400004461B6B154698472368294620465B6B54
:102C5000BDE8704018470B882DE9F041A0F87830A6
:102C60001388B0F90850A0F87A3004461046904610
:102C700011F0D4F9B4F90A30074603EBD373404698
:102C8000C3F34F0611F0FEF905EBD575C5F34F05FB
:102C900000EBD07007EBD777A6EB6002A5EB6707D8
:102CA00004F17C0039B212B2FFF7C8FF2368204656
:102CB000D3F88C30BDE8F041184770B504461D4686
:102CC000BDF91060FFF7BAFF2368294620469B6BC9
:102CD0009847236831462046DB6BBDE870401847B3
:102CE0000022C0E90122C0E90322C0E90522C0E9AF
:102CF00007224FF480728284014A0260704700BF4D
:102D0000DC23020810B52622044600211DF026FC13
:102D10002046FFF7E5FF044B2360FF2384F82630AD
:102D20000023A362204610BD4C3A020838B5262283
:102D300004460D4600211DF011FC2046FFF7D0FF90
:102D4000064B23602B88E384FF23204684F8283039
:102D500029460BF085FA204638BD00BF903B02089B
:102D600010B52622044600211DF0F8FB2046FFF78F
:102D7000B7FF0A4B23600A4BA3624FF6FF73A3858C
:102D80004FF47F020023C4E90C324FF0FF32C4E954
:102D900010232387E363204610BD00BFBC3902081F
:102DA000CC1B02081B4B73B51B88018F8B42064658
:102DB0002BD9194B1B682BB9184B194A19486C2190
:102DC0001DF046FA13F81120174B1B6853F82250D8
:102DD000164B186801F054FF2B68019001469B6A5E
:102DE000284698472B6801991B6C0446284698474B
:102DF0002B6801995B6A14FB00F428469847E4B2FB
:102E0000044486F8454002B070BD002380F8453088
:102E1000F9E700BF405401203C54012094220208ED
:102E2000D6220208112302084454012048540120EC
:102E30004FF47F4373B50646838540F201130025A6
:102E400083841D4B8562C0E90155C0E90355C0E983
:102E50000555C0E90755056346F8343B044630463E
:102E6000FFF750FF154B63632A46C4E91A55C4E9BE
:102E70001C552566A4F8645029463046FFF7DEFE4F
:102E80003146204607F06AFB0D4B236004F17C05B8
:102E90004FF6FF73A4F87830A4F87A3001A92846D9
:102EA000ADF80430FFF742FF2046294607F056FBF5
:102EB000204602B070BD00BFD4240208283B02089F
:102EC0007025020810B40367019B436703685DF82F
:102ED000044BD3F88C30C0E91A1218472DE9F04F93
:102EE0002DED0C8B04468DB00FF06AF922460025BB
:102EF000E74BE56342F8403B104608EE102AFFF727
:102F000001FF04F16C034FF6FF760AA918460CEE98
:102F1000103AADF82860FFF709FF04F198030AA9F9
:102F200018460CEE903AADF82860FFF7FFFE04F16A
:102F3000C403184608EE903AFFF77AFF04F5B6731B
:102F4000184609EE103AFFF773FF04F505731846AB
:102F500009EE903AFFF704FF04F5177318460AEEDE
:102F6000103ACC4FFFF7FCFE04F52A73C4F85C72EC
:102F70001846C4F8A4520AEE903A0BF0A3FA04F5EE
:102F80003C730AA918460DEE103AADF82860FFF719
:102F9000CDFE04F54773184604F5597B0BEE103A45
:102FA00004F56C7AFFF7DCFE5846FFF7D9FEC4F84B
:102FB0006473C4F8AC535046FFF7D2FE04F57E7339
:102FC0000AA918460DEE903AADF82860FFF7AEFE5C
:102FD00004F22443184604F2CC480BEE903A04F273
:102FE0007459FFF725FF4046FFF722FF4846FFF7D9
:102FF000B7FEA94BC4F8F035A84BC4F8F835A84B78
:10300000C4F80036A74BC4F80836F02318EE100AAF
:10301000C4F8747500932A464FF4A0732946C4F887
:10302000BC55C4F8F445C4F8FC55C4F80446C4F8CB
:103030000C56FFF742FE4FF07F43A3662A461CEE74
:10304000100A2946FFF7FAFD1CEE100A0AA9ADF88E
:1030500028500BF005F91CEE900A19227621FFF793
:10306000EDFD0AAA4FF0030311461CEE900AADF8DD
:1030700028300BF0F5F8172305278B4E00932A46CE
:103080002B23294604F1F800FFF717FE874B884AE7
:103090008849009618EE900AA4F82871FFF712FFED
:1030A00018EE900A0AAA09A9ADF82470ADF82870A4
:1030B000FFF7D1FD172318EE900A009331222B233E
:1030C00040F21111C4F84471FFF7F7FD04F5C06335
:1030D0000393C4F8F430172300932A462B23294680
:1030E00004F5D070FFF7E9FD704B714A7149009605
:1030F00019EE100AA4F8D071FFF7E4FE4FF00602B3
:103100000AA8ADF82420ADF8282009A9024619EE36
:10311000100AFFF7A0FD0620C4F8EC0117202B23AE
:103120000090192219EE100A40F21111FFF7C5FDA7
:10313000039AC4F89C2119EE900A1C22292104AE9E
:10314000FFF77CFD4FF0FF3019EE901AC4F84402EF
:10315000A4F8485230460AF075FB96E8070004F5DB
:10316000147383E80700544B0A9319EE900A112355
:103170000AA9ADF82C300AF0F5FD182024220090A1
:103180007C231AEE100A8F21FFF797FDD4F85C32EA
:10319000A4F890524FF0FF30D3F88430C4F88C027A
:1031A0001AEE101A3046984796E8070004F5267381
:1031B00083E8070004F5B863C4F8A4323E4B0A93D1
:1031C0001AEE100A10230AA9A4F8C055ADF82C3045
:1031D0000AF0C8FD1AEE900AB4224E21FFF72EFD28
:1031E0004FF001000DF1280CADF824004FF0020063
:1031F000624609A9ADF828001AEE900A0AF00DFE01
:103200000F231AEE900AA4F8E032FFF7CBFD04F585
:10321000BE634FF0FF3CC4F8D0328A22C4E9B9CC77
:103220001DEE100A7621FFF709FD0DF1280C4FF075
:1032300003011DEE100AADF8281061460BF010F8DE
:103240008D221BEE100A2921FFF7F8FC4FF0FF3CFE
:1032500030461BEE101AC4F84CC3A4F850530AF0C1
:10326000F1FA96E8070004F5567383E807000DF1BC
:10327000280C114B0A9361460E231BEE100AADF881
:103280002C300AF06FFD4FF0180C932216E000BFAF
:103290004026020844240208102602080D2C0008CB
:1032A000282602081D2B0008996633FF663300FFAD
:1032B000CC9900FF996600FFCC1B0208CDF800C036
:1032C0007C238F215846FFF7F8FCD4F86433A4F828
:1032D00098534FF0FF3C3046D3F88430C4F894C381
:1032E0005946984796E8070004F5687383E8070095
:1032F00004F2D4530DF1280CC4F8AC33984B0A9364
:1033000061460D235846A4F8D455ADF82C300AF088
:1033100029FD532229215046FFF790FC4FF0FF3C36
:10332000C4F8E0C330465146A4F8E4530AF08AFAE0
:1033300096E8070004F57B7383E807004FF002006E
:10334000ADF82C000AA8864B0A93014650460AF0B5
:1033500009FD53221DEE900A7621FFF76FFC4FF016
:1033600003011DEE900AADF828100AA90AF078FFB3
:10337000172100912B232A46294604F58B60FFF77D
:103380009CFC784B0093A3F13313A3F54C53764A7E
:103390007649A4F888741BEE900AFFF793FD0AA9FA
:1033A0000A461BEE900A09A9ADF82470ADF8287002
:1033B000FFF751FC17211BEE900A00912B23692285
:1033C00040F21111C4F8A474FFF777FC039AC4F813
:1033D0005424172100912B232A46294604F5A06086
:1033E000FFF76BFC5F4B0093A3F13313A3F54C5332
:1033F0005D4A5E49A4F830754046FFF763FD4FF023
:103400000602ADF82420ADF8282009A90AAA4046F2
:10341000FFF721FC0623C4F84C35172300935122F3
:103420002B2340F211114046FFF747FC039BC4F8E1
:10343000FC3418235D2200938F217C234846FFF73C
:103440003CFC4FF0FF33C4F8A435D4F87435A4F82D
:10345000A8553046D3F884304946984796E8070087
:1034600004F5B66383E80700414B1B6804F5BD66AD
:103470002BB9404B404A602140481CF0E9FE404BCC
:103480001B881BB93F4B3C4A6121F5E73E4B29465F
:10349000186801F0F5FB3D4A03460321304610F061
:1034A0004BFB2F4B0A93251D4FF001030AA94846F9
:1034B000C4F8BC65ADF82C300AF054FC18EE101AB4
:1034C000284607F04BF81CEE101A284607F046F87D
:1034D0001CEE901A284607F041F818EE901A28467C
:1034E00007F03CF819EE101A284607F037F819EEE5
:1034F000901A284607F032F81AEE101A284607F0FC
:103500002DF81AEE901A284607F028F81DEE101A2A
:10351000284607F023F81BEE101A284607F01EF87D
:103520005946284607F01AF85146284607F016F87B
:103530001DEE901A284607F011F81BEE901A284647
:1035400007F00CF84146284607F008F82846494697
:1035500007F004F820460DB0BDEC0C8BBDE8F08FF1
:10356000CC1B0208996633FFCC9900FF996600FFD7
:103570003C540120942202089623020811230208D9
:10358000405401205823020848540120CE23020849
:10359000002070478B88838001207047704780F837
:1035A0002C10704710B40368046BD3F8A430624346
:1035B00061435DF8044B1847D0ED0C7A0368F8EED0
:1035C000E77AD3F8A43020EE270AB5EEC00AF1EE70
:1035D00010FA17DBB6EE007A30EE070ABDEEC07ABD
:1035E00017EE101A60EEA70AF5EEC00AF1EE10FA17
:1035F0001CDBF6EE007A70EEA70AFDEEE07A17EE1D
:10360000902A1847BDEEC07AF8EEC76A17EE102A66
:1036100030EE660AF7EE086A30EE260A511EBDEE5D
:10362000C00A10EE102A0A441146DBE7FDEEE07AEC
:10363000B8EEE77A17EE902A70EEC70AB7EE087A6E
:1036400070EE870A013AFDEEE00A10EE90CA94444B
:103650006246D6E710B40368046BD3F8B030624317
:103660005DF8044B1847D0ED0C7A0368F8EEE77A62
:10367000D3F8B03027EE800AB5EEC00AF1EE10FAAA
:1036800008DBF6EE007A30EE270AFDEEC07A17EE80
:10369000902A1847FDEEC07AB8EEE77A17EE902A26
:1036A00030EE470AB7EE087A30EE070A013ABDEE6F
:1036B000C00A10EE10CA94446246EAE710B40368E8
:1036C000446BD3F8BC30624361435DF8044B184748
:1036D000D0ED0D7A0368F8EEE77AD3F8BC3020EE2F
:1036E000270AB5EEC00AF1EE10FA17DBB6EE007A43
:1036F00030EE070ABDEEC07A17EE101A60EEA70A88
:10370000F5EEC00AF1EE10FA1CDBF6EE007A70EE70
:10371000A70AFDEEE07A17EE902A1847BDEEC07AB0
:10372000F8EEC76A17EE102A30EE660AF7EE086A5E
:1037300030EE260A511EBDEEC00A10EE102A0A44D1
:103740001146DBE7FDEEE07AB8EEE77A17EE902A55
:1037500070EEC70AB7EE087A70EE870A013AFDEEFE
:10376000E00A10EE90CA94446246D6E710B40368AB
:10377000446BD3F8C03062435DF8044B1847D0ED7A
:103780000D7A0368F8EEE77AD3F8C03027EE800AA6
:10379000B5EEC00AF1EE10FA08DBF6EE007A30EE74
:1037A000270AFDEEC07A17EE902A1847FDEEC07A80
:1037B000B8EEE77A17EE902A30EE470AB7EE087AAD
:1037C00030EE070A013ABDEEC00A10EE10CA94446A
:1037D0006246EAE7D0F82C31026B002B07DB02EBE4
:1037E000430393FBF2F000EBD070401070476FF092
:1037F000010000FB0320013890FBF2F000EBD070D9
:10380000401040427047D0ED4B7AB8EEE70AD0ED59
:103810000C7AF8EEE77A80EE270A7047D0F82C0190
:103820007047D0F83031026B002B07DB02EB43030B
:1038300093FBF2F000EBD070401070476FF0010086
:1038400000FB0320013890FBF2F000EBD070401039
:1038500040427047D0ED4C7AB8EEE70AD0ED0C7AD2
:10386000F8EEE77A80EE270A7047D0F8300170470B
:10387000D0F83431426B002B07DB02EB430393FBA0
:10388000F2F000EBD070401070476FF0010000FBC9
:103890000320013890FBF2F000EBD0704010404262
:1038A0007047D0ED4D7AB8EEE70AD0ED0D7AF8EE1C
:1038B000E77A80EE270A7047D0F834017047D0F8D5
:1038C0003831426B002B07DB02EB430393FBF2F032
:1038D00000EBD070401070476FF0010000FB032038
:1038E000013890FBF2F000EBD0704010404270477E
:1038F000D0ED4E7AB8EEE70AD0ED0D7AF8EEE77A21
:1039000080EE270A7047D0F83801704770B5036819
:103910000446D3F888300D46164698472368324649
:1039200029462046D3F89030BDE870401847036818
:10393000D3F8943018470368D3F8D4301847036895
:10394000D3F8E03018470368002A10B4D3F8A43045
:10395000046B0EDB04EB420292FBF4F101EBD1713C
:103960004910B0F91E215DF8044B013A0A4449425E
:1039700018476FF0010101FB0241013991FBF4F19D
:1039800001EBD17149104942EBE70368D3F83C31B0
:103990001847026B03685143D3F84831184703684E
:1039A000D3F844311847D0ED0C7A0368F8EEE77A83
:1039B000D3F8483127EE800AB5EEC00AF1EE10FACE
:1039C00008DBF6EE007A30EE270AFDEEC07A17EE3D
:1039D000901A1847FDEEC07AB8EEE77A17EE902AF3
:1039E00030EE470AB7EE087A30EE070A511EBDEEF8
:1039F000C00A10EE102A0A441146EAE7C0F83C114A
:103A000070470368D3F850311847036810B5D3F8EE
:103A10005C31044698470028236B07DB03EB40002A
:103A200090FBF3F000EBD070401010BD6FF001027E
:103A300002FB0030013890FBF3F000EBD070401037
:103A40004042F2E70368D3F858311847036810B5CD
:103A5000D3F85C310446984707EE900AB8EEE70ABF
:103A6000D4ED0C7AF8EEE77A80EE270A10BDD0F894
:103A70003C017047026B03685143D3F86831184723
:103A8000D0ED0C7A0368F8EEE77AD3F8683127EEC8
:103A9000800AB5EEC00AF1EE10FA08DBF6EE007A05
:103AA00030EE270AFDEEC07A17EE901A1847FDEEA9
:103AB000C07AB8EEE77A17EE902A30EE470AB7EEF2
:103AC000087A30EE070A511EBDEEC00A10EE102A29
:103AD0000A441146EAE7C0F840117047036810B580
:103AE000D3F87431044698470028236B07DB03EBB7
:103AF000400090FBF3F000EBD070401010BD6FF071
:103B0000010202FB0030013890FBF3F000EBD070B3
:103B100040104042F2E7036810B5D3F87431044610
:103B2000984707EE900AB8EEE70AD4ED0C7AF8EE63
:103B3000E77A80EE270A10BDD0F84001704703688D
:103B4000026BD3F88431002910B504460EDB02EB7A
:103B5000410191FBF2F101EBD171491009B220460C
:103B60009847D4E94F2302FB003010BD6FF00100ED
:103B700000FB0121013991FBF2F101EBD1714910F8
:103B80004942EBE7006B7047406B70470368D3F81E
:103B9000483118470368D3F85C311847026B036853
:103BA0005143D3F814311847036870B5D3F818514E
:103BB000D3F88031D0F84461044698472B4656F834
:103BC00020102046BDE870401847B0F91C21B0F91C
:103BD0001E31934207DBB0F94C31194491FBF2F0EE
:103BE00002FB101109B2084670474801704780F87F
:103BF0002610704790F82600704710B50022B1F9E2
:103C00000840B1F90A10028042808480C18010BD52
:103C10000022028042808280C2807047C162704769
:103C2000C06A70470120704770477047C06B18B179
:103C30000368D3F880301847704730B5B2F81A11CE
:103C4000B2F91441B2F94050B2F842204480214404
:103C5000521A002101808580C28030BD10B542809B
:103C6000BDF90840BDF90C2004808280C38010BDDE
:103C70000B680846D3F8D43018470B680846D3F8C9
:103C8000E0301847B1F914017047B1F81401B1F8E8
:103C90001A310344B1F84200C01A00B27047B1F9BA
:103CA00016017047B1F81601B1F818310344B1F8A4
:103CB0004000C01A00B270470B680846D3F81431B0
:103CC00011461847B2F8181130B5B2F916510580EF
:103CD0006C18B2F84010B2F94220C280091B0024CF
:103CE0004480818030BD02808380BDF90020BDF911
:103CF00004304280C38070470B680846D3F8EC302C
:103D000018470B680846D3F8F8301847B1F9160180
:103D10007047B1F81601B1F818310344B1F840000A
:103D2000C01A00B27047B1F914017047B1F814011C
:103D3000B1F81A310344B1F84200C01A00B270471A
:103D40000B680846D3F8183111461847704770477A
:103D50007047704770477047704730B4C268446816
:103D60005510034604EB6200D20748BF62599B68B6
:103D700030BC48BFD358184743682BB183682BB970
:103D8000C06800F001007047184670470120704776
:103D900010B5402104461CF02DFA204610BD10B588
:103DA000402104461CF026FA204610BD10B54FF401
:103DB0002B6104461CF01EFA204610BD10B54FF4CE
:103DC000107104461CF016FA204610BD10B51021E3
:103DD00004461CF00FFA204610BD10B542F2C45143
:103DE00004461CF007FA204610BD90F82C300BB1A9
:103DF00006F0EDBB704713B503460846D3E90C1433
:103E000003680191D3F88C30984701990246204607
:103E100002B0BDE8104008F023BA13B503460846C7
:103E2000D3E90C1403680191D3F8943098470199B1
:103E30000246204602B0BDE8104008F011BA00006A
:103E40000A1E10B503DBB0F91E41944206DC084B94
:103E5000084A094840F233611CF0FAF90368D0F8C7
:103E60004441D3F88031984754F8200010BD00BF7A
:103E700080260208A3260208F22602080B1E10B5AF
:103E8000044603DBB0F91E219A4206DC074B084AC0
:103E9000084840F22D611CF0DBF90368D3F8843147
:103EA0009847D4E94F2302FB003010BD802602085A
:103EB0004F270208F226020800F1CC03994210B500
:103EC000044605D10CF07AFEBDE81040FEF746BB73
:103ED00000F58A531C33994215D190F8B13D83F017
:103EE000010380F8B13D90F8253183F0010380F89B
:103EF000253100F68C500DF0F8FD04F58070BDE81A
:103F000010400DF0F2BD10BD10B526220446002170
:103F10001CF024FB2046FEF7E3FE054B2360002344
:103F2000A36284F82C30012384F82430204610BD8D
:103F3000D838020837B501AB15460DF078FF0028D8
:103F40004FEA401401992A464FF0200004DB0DF09F
:103F50008DFF204403B030BD0DF088FF201AF9E733
:103F600070B5B0F91441B0F81A516319B0F8425065
:103F7000ED1AD0E94D320E462DB2D21A691EF01A52
:103F8000FFF7D8FF2C44013CC0EB441070BD38B59E
:103F900004460846B4F81831B4F816110B44B4F8C6
:103FA0004010D4E94B52C91A09B2521B0139401BC7
:103FB000FFF7C0FFB4F9163100EB431038BD000025
:103FC00010B5044607F034FD064A226000230122A2
:103FD0000A21C4E90C21E36284F83820E363204617
:103FE00010BD00BF4036020870B50023124E83801A
:103FF000124B0360336893F8762005460AB1D86CFB
:1040000000B998680368DB6A98473368B0FA80F4AF
:10401000D86C640930B10368DB6A9847002808BF90
:1040200044F001042CB9064B064A07482C211CF029
:104030000FF9284670BD00BFE4530120102A020882
:104040009E270208FC2702083528020810B50446FE
:1040500007F0EEFC0A4A226000230122C4E90C2387
:10406000084AA2634FF6FF72A2872E22E36284F809
:104070004030A4F84230A4F84420A364204610BD88
:1040800038380208CC1B02082DE9F04F2DED108BBB
:10409000044693B00EF094F822460026EB4BE663FC
:1040A00042F8403B10460AEE902AFEF72BFE04F140
:1040B0006C0309EE903A4FF6FF78262231461846F7
:1040C000ADF840801CF04AFA19EE900AFEF708FE9F
:1040D000DF4BE366BDF84030A4F8923010A919EE2A
:1040E000900A84F894800AF0BBF804F1980318460B
:1040F0000BEE903AFEF706FED64BC4F8983004F16A
:10410000CC031846C4F8C460A4F8C86004F58077EE
:104110000BEE103AFFF7F8FECF4BC4F8CC30A4F802
:10412000FA80A4F8FC8084F8FE804FF416713846BB
:1041300008F032F80123C94DC4F80051C4E98F36A4
:1041400004F51473314640F25722C4E991363846DB
:10415000FFF728FAC24BC4F8003104F53B63184658
:10416000A4F84C620DEE103A07F062FC4FF0020228
:10417000BC4B84F8DC2B04F53E62C4F8B03B10461F
:104180000892FFF731FFB84BC4F8E03B03F124027B
:1041900004F6F431C4F8E82B0846C4F8EC6BDFF8F9
:1041A000E4A2DFF8E4920DEE901AFFF709FF04F69F
:1041B0003441C4F8F4AB08460EEE101AFFF700FFC6
:1041C00004F67441C4F8349C08460CEE101AFFF74C
:1041D000F7FE04F6B441C4F874AC08460CEE901A2D
:1041E000FFF7EEFE04F6F441C4F8B49C08460EEE68
:1041F000901AFFF72BFF9D4AC4F8F42C04F5546184
:10420000084604F68C5B0FEE101AFFF71FFF984963
:10421000C4F8401D58463C2107F0BEFF012004F6BB
:10422000DC623146C4F88C5DC4F8C80EC4F8D02EE8
:1042300058463B22C4F8CC6EC4F8D46EFFF7B2F9EE
:104240008C4AC4F88C2D04F6CC70A4F8D86E0FEE0E
:10425000900A07F0EDFB834BC4F8CC3F4FF002030C
:1042600084F8F83F04F6FC73184604F5805509936A
:10427000FFF7BAFE7C4BAE6003F12402C4F8FC3FAA
:104280002B4610336A6018460493FFF799FE04F535
:1042900082531033C5F810A018460593FFF790FE1F
:1042A00004F584531033C5F8509018460293FFF775
:1042B00087FE04F586531033C5F890A01846039383
:1042C000FFF77EFE04F588531033C5F8D0901846EA
:1042D0000693FFF7BBFE04F58A536549C5F8101134
:1042E0001C3318460AEE103AFFF70EFE624BC5F873
:1042F0005C3104F58C53143304F58E5A0AF11C0A10
:104300001846A5F88A81A5F88C8185F88E81A5F8D4
:10431000908108EE103AFEF723FD5046FEF720FD8F
:1043200004F59153DFF86481C5F8DC810833184641
:10433000C5F8246208EE903AFEF712FD04F5935397
:104340001433C5F828821846C5F8706209EE103A91
:10435000FEF706FD494BC5F87482C5E9BD34484BEC
:10436000C5F8BC6204F59850C5E9BF364FF49651C4
:1043700004300AF063FFF0231AEE900A00933246ED
:104380004FF4A0733146FEF798FC4FF07F436FF077
:10439000160219EE900AA3666FF06C01FEF74EFC50
:1043A0004FF0040319EE900A10A9ADF8403009F05F
:1043B00057FFA6231BEE900A009332464FF4A073DA
:1043C0003146FEF77AFC4FF07F434FF001014FF08A
:1043D000FF32C4E9302388461BEE100AA4F8C81047
:1043E000BD22BB21FEF72AFC4FF002011BEE100A92
:1043F000ADF8401010AA0FA9ADF83C8009F00DFDF2
:1044000004F597531433C4F8F43032464FF47A71FC
:1044100038460793FFF77AFA0A2231463846FFF703
:10442000C1F8A623009332464FF4A07331463846B4
:10443000FEF743FC0F230093142205230621384680
:1044400007F05CFE3346324622E000BF802D0208B2
:10445000903B0208283B0208B43A0208EC320208FA
:10446000302A0208C43502083C320208F836020835
:1044700098370208CC2B020848390208682D020838
:10448000B93E0008A028020858290208442402085E
:1044900031463846009607F034FDF7EE080AB7EECD
:1044A000000A3846FFF714F94FF47A72D4F8241C46
:1044B000D4F8280CDFF8FC9407F0D2FE1CEE103A7A
:1044C0004FF47A784FF00101C4F8303CC4F8248CE2
:1044D000C4F8209CC4F8288C84F82C1C38461DEEA7
:1044E000901A07F019FD4246D4F8641CD4F8680C01
:1044F00007F0B6FE4B23C4F8683C1CEE903A4FF030
:104500000101C4F8703CC4F8648CC4F8609C84F861
:104510006C1C38461EEE101A07F0FEFC4246D4F81A
:10452000A41CD4F8A80C07F09BFE4FF0020384F8FB
:10453000AC3C1CEE101AC4F8A48CC4F8A09CC4F8BF
:10454000A88C384607F0E8FC4246D4F8E41CD4F8BE
:10455000E80C07F085FE4FF00203962184F8EC3C4E
:10456000C4F8E48CC4F8E09CC4F8E81C38461CEE9F
:10457000901A07F0D1FC4246D4F8241DD4F8280D37
:1045800007F06EFE4FF004021EEE901AC4F8248D60
:10459000C4F8288DA4F8302DC4F8209D384607F0C3
:1045A000DFFC4246D4F8701DD4F8740D07F058FEB5
:1045B00096220323C4F8742D4FF001021FEE101A47
:1045C000C4F8708DA4F87C3DA4F8822DC4F86C9DCD
:1045D000384607F0B3FC089BC4F8D83B4FF07F4245
:1045E0004FF0020384F8DC3B1DEE101AC4F8EC2BEC
:1045F0003846A4F8F06B07F08FFC41463246584627
:10460000FFF784F9A62200924FF4A0733246314698
:104610005846FEF752FB0F22009233461422062121
:10462000584607F06BFD33463246314658460096F1
:1046300007F067FCF7EE080AB7EE000A5846FFF7E6
:1046400047F84246D5E9101084F8B16D07F008FE2E
:1046500041F288334FF001026B64029BEB64C5E9C1
:104660000F98049985F84820584607F055FC4246B3
:10467000D5E9201007F0F4FD4FF4FA734FF0010272
:10468000C5F88430039BC5F88C30C5E91F9805999F
:1046900085F88820584607F03FFC4246D5E930109F
:1046A00007F0DEFD42F21073C5F8C4304FF002038C
:1046B000C5E92F9885F8C8300299584607F02CFCB8
:1046C0004246D5E9401007F0CBFD4FF00203C5E9A3
:1046D0003F9885F808310399C5F80481584607F0DA
:1046E0001BFC4246D5E9501007F0BAFD96220C2378
:1046F000C5F844214FF001020699C5F84081A5F89C
:104700004C31A5F85221C5F83C91584607F016FCEB
:10471000099BAE814FF07F42AA60C4F8F43F4FF08E
:10472000020384F8F83F1FEE901A584607F0F4FB96
:104730004FF008081AEE100AD3225521FEF77EFA30
:104740004FF007031AEE100A10AA0FA9A5F89081DE
:10475000ADF83C30ADF8408009F05FFB079BC5F831
:104760008431DA2218EE100A0221FEF767FA0DF101
:1047700028094FF07F43484618EE101AC5F8C43197
:10478000A5F8C86109F05EF899E8070018EE103A3C
:104790003C3383E807007E4B109318EE100A0B237E
:1047A00010A9ADF8443009F0DDFAA82202215046E4
:1047B000FEF744FA4FF07F43C5F80C32D5F8DC31F0
:1047C000A5F810624846D3F884305146984799E8D6
:1047D00007000AF13C0383E807006E4B1B6804F5F1
:1047E00096592BB96C4B6D4A60216D481BF030FD1A
:1047F0006C4B1B88082B03D86B4B684A6121F4E78C
:104800006A4B4146186800F03BFA694A0346414644
:1048100048460FF091F9C5F82492504609F082FA03
:104820004FF00A015A4AADF84410504610A91092B0
:1048300009F098FA022118EE900AB722FEF7FEF965
:104840004FF07F41C5F858124FF0FF31C5E99A1675
:104850005049A5F85C620B68C5F8646204F5965986
:1048600009F11009002BBDD04E480388072BC3D98E
:104870004E4B0721186800F003FA4D4A03464146A3
:1048800048460FF059F918EE900AC5F8709209F0F1
:1048900049FA0DF1400C092361463D4AADF8443018
:1048A00018EE900A109209F05DFA022119EE100A32
:1048B000C622FEF7C3F93749A5F8A8624FF07F4C2E
:1048C0000B68C5F8A4C24FF0FF3CC5E9ADC6C5F8FA
:1048D000B06204F59756002B84D032480388052B2C
:1048E0008AD9324B0521186800F0CAF9304A0346CC
:1048F0000A2130460FF020F919EE100AC5F8BC6203
:1049000009F010FA251D224A1092062319EE100A0A
:1049100010A9ADF8443009F025FA1AEE901A28468D
:1049200005F01CFE19EE901A284605F017FE1BEE46
:10493000901A284605F012FE1BEE101A284605F0C4
:104940000DFE3946284605F009FE5946284605F071
:1049500005FE1AEE101A284605F000FE18EE101A91
:10496000284605F0FBFD5146284605F0F7FD18EEF8
:10497000901A284605F0F2FD284619EE101A05F0A7
:10498000EDFD204613B0BDEC108BBDE8F08F00BFED
:10499000CC1B02083C5401209422020896230208F2
:1049A00011230208405401205823020848540120D2
:1049B000CE230208C59714FF7047000030B5164D8E
:1049C0002C78BFF35B8F14F001048DB020D1284602
:1049D0001BF012FCE0B13F230793104B0693104BE2
:1049E00005930123CDE90333029304220223CDE989
:1049F00000320C490C4808940A232822CDE90944C6
:104A0000FDF770FF09481BF041FC28461BF000FC35
:104A100005480DB030BD00BF24450020B855020840
:104A2000385602084851020828450020B9490008B4
:104A30007047000030B5164D2C78BFF35B8F14F033
:104A400001048DB020D128461BF0D6FBE0B13F23F6
:104A50000793104B0693104B05930123CDE90343B5
:104A6000029304220323CDE900320C490C48089438
:104A70000F232422CDE90944FDF734FF09481BF038
:104A800005FC28461BF0C4FB05480DB030BD00BF37
:104A900050450020D05502083C56020878530208C1
:104AA00054450020314A00087047000030B5154DCC
:104AB0002C78BFF35B8F14F001048DB01FD1284612
:104AC0001BF09AFBD8B13F2307930F4B06930F4B74
:104AD0000F4910480894CDE9044304220123CDE98D
:104AE0000123009305222823CDE909440394FDF70F
:104AF000F9FE09481BF0CAFB28461BF089FB054854
:104B00000DB030BD7C4500202456020840560208F6
:104B10007055020880450020A94A0008002070470F
:104B2000002070470EB403B503AB002153F8042BEB
:104B300001930CF0B9FE02B05DF804EB03B07047CE
:104B40000CB407B504AB53F8042B01930CF0ACFE86
:104B500003B05DF804EB02B070470000436C10B581
:104B6000044673B3038F2BB9184B194AC021194857
:104B70001BF06EFBC38E00EB43035B8C0BB30EF09C
:104B80002CFA238F012B03D8134B144AC521EEE7CF
:104B9000E28E531C9BB2092B194688BFA3F10A0170
:104BA00004EB410140F63F10498C814209D10A2BA8
:104BB00004EB420228BF002304EB4303508C5884CB
:104BC00051842046BDE810400EF00AB9B02D02080D
:104BD000B92D0208642E0208AE2E0208BC2E02086F
:104BE0000EF0C5B810B586B002AC84E806001A46CF
:104BF0000AAB05930193099B00932146089B0BF098
:104C000058FB06B010BD000038B518BB124B134856
:104C10001B681349B3B11A689C681A4402605A6849
:104C20001A440A601C440F4B00221A8000F038F826
:104C3000054600F033F80C4B1C600C4B1D600C4B10
:104C4000188007E00B4B03600B4B0B600B4B1C6891
:104C5000002CE8D138BD00BFA8450020AC4500209D
:104C6000B0450020B44500203C54012044540120AC
:104C7000405401208C560208445602081458020879
:104C8000044B1B6853F82100034B1B6803EB4000E7
:104C9000704700BFB0450020AC450020122070478F
:104CA00000487047B845002010B5FFF7C3FE044C1C
:104CB0002060FFF7FBFE6060FFF780FEA06010BD84
:104CC000B8450020704710B54FF4AC7104461BF096
:104CD00091FA204610BD10B50446D0F8540100F0FA
:104CE00013F82046BDE810400BF05CBE10B504463A
:104CF000FDF7F8FB014B2360204610BD982F0208FA
:104D0000002202607047000070B504460068154D2F
:104D100003689B689847D5F8703A73B1D5F8783A2C
:104D2000012B03D120680368DB689847206803687B
:104D3000DB6898470023C5F8703AD5F8743A33B168
:104D4000206803681B6998470023C5F8743A2068F7
:104D500003685B69984720680368BDE870409B69F9
:104D6000184700BF543A002070477047704770479B
:104D70007047043870477047C06803681B6C184759
:104D8000A0F10400FFF7F8BF10B5102104461BF096
:104D900031FA204610BDA0F10400F5E710B500225D
:104DA0008260044AC16002F1080424320460426057
:104DB00010BD00BFDC2F020870477047044B1A6813
:104DC000044B9A6001221A61034A1268DA60704744
:104DD00018000020543A0020140000200B4B1A68E1
:104DE00010B50A32B2F5C87FC8BF4FF4C8721A6056
:104DF00004461B68064A0A2100F5B8600EF09CFEC6
:104E000004F51770BDE810400CF06FBE18000020CC
:104E10001C3002080A4B1A6810B50A3A092AD8BF92
:104E20000A221A6004461B68064A0A2100F5B86087
:104E30000EF082FE04F51770BDE810400CF055BE70
:104E4000180000201C3002080A4B1A6810B5013205
:104E50000A2AC8BF0A221A6004461B68064A0321B0
:104E600000F5BD600EF068FE04F27450BDE810401D
:104E70000CF03BBE140000201C3002080A4B1A68DC
:104E800010B5013A002AD8BF01221A6004461B68F7
:104E9000064A032100F5BD600EF04EFE04F2745088
:104EA000BDE810400CF021BE140000201C300208A8
:104EB000FDF78DBD13B5094B094A1B6801930446E4
:104EC00001AB0A2100F2D4500EF0F2FF04F5597044
:104ED00002B0BDE810400CF008BE00BF543A0020FC
:104EE0001F30020810B54FF4C26104461BF082F96E
:104EF000204610BD10B50446FDF7F0FF074B2360B8
:104F0000074B084A1B680A2104F5B8600EF014FE2E
:104F100004F517700CF0E9FD204610BD2C30020896
:104F2000180000201C300208704770470438704792
:104F30007047C06803681B6B1847A0F10400FFF7B7
:104F4000F8BFC06803685B6B1847A0F10400FFF767
:104F5000F8BFC06803689B6B1847A0F10400FFF717
:104F6000F8BFC0680368DB6B1847A0F10400FFF7C7
:104F7000F8BF10B5102104461BF03CF9204610BDC7
:104F8000A0F10400F5E7000010B500228260044A99
:104F9000C16002F1080430320460426010BD00BFFD
:104FA0007030020870477047034603F55C63174A88
:104FB000D3ED007A92ED007AF8EEE77A00F68C50A5
:104FC00067EE877AF5EEC07AF1EE10FA09DBB6EEFD
:104FD000007A77EE877AFDEEE77A17EE901A07F0FF
:104FE00099B9BDEEE77AF8EEC76A17EE103A77EE98
:104FF000E67AF7EE086A77EEA67A591EFDEEE77AB2
:1050000017EE903A0B441946E9E700BF543A0020E6
:10501000114B13B5D3F8782A104904464FF4616355
:105020006FF03B0092FBF3F301FB03223C2192FB68
:10503000F1F100FB0122CDE9001204F59750084A76
:105040000A210EF079FD04F59350143002B0BDE84A
:1050500010400CF04ABD00BF543A0020F0F1FFFFB1
:10506000BC30020810B542F2C45104461BF0C2F82D
:10507000204610BD10B50446FEF769FE04F58052C7
:10508000D2ED507A9FED8F6AF8EEE77A67EE867A76
:10509000F5EEC07AF1EE10FAC0F29B80B6EE007A1F
:1050A00077EE877AFDEEE77A17EE903AD2ED407A06
:1050B000F8EEE77A002B67EE867AB8BF5B42F5EE32
:1050C000C07AF1EE10FAC2F84431C0F29680B6EE22
:1050D000007A77EE877AFDEEE77A17EE903AD2ED16
:1050E000207ADFED795AF8EEE76A002B66EEA56AC2
:1050F000B8BF5B42F5EEC06AF1EE10FAC2F80431B7
:10510000C0F28F80F6EE007A76EEA76AFDEEE67AC0
:1051100017EE903A002BB8BF5B42C2F88430D4F847
:10512000703D07EE903AF8EEE76A66EE866AF5EEB5
:10513000C06AF1EE10FAC0F28880F6EE007A76EEE0
:10514000A76AFDEEE67A17EE903A002BB8BF5B42F5
:10515000C4F8743DD4F8E43C07EE903AB8EEE77A30
:1051600027EE067AB5EEC07AF1EE10FAC0F2818031
:10517000F6EE007A37EE277AFDEEC77A17EE903A10
:10518000002BB8BF5B42C4F8E83CD4F8643C07EE9F
:10519000903AF8EEE77A67EEA57AF5EEC07AF1EE8E
:1051A00010FA7ADBB6EE007A77EE877AFDEEE77AD0
:1051B00017EE903A002BB8BF5B4204F68C50C4F84F
:1051C000683C0CF092FC04F58070BDE810400CF0D7
:1051D0008CBCBDEEE77AF8EEC76A17EE103A77EEB0
:1051E000E67AF7EE086A77EEA67A013BFDEEE77AFB
:1051F00017EE901A19440B4658E7BDEEE77AF8EE21
:10520000C76A17EE103A77EEE67AF7EE086A77EE9D
:10521000A67A013BFDEEE77A17EE901A19440B4689
:105220005DE7BDEEE67AF8EEC77A17EE103A76EE55
:10523000E76AF7EE087A76EEA76A013BFDEEE66ACA
:1052400016EE901A19440B4664E7BDEEE67AF8EEC6
:10525000C77A17EE103A76EEE76AF7EE087A76EE3E
:10526000A76A013BFDEEE66A16EE902A1A44134641
:105270006BE7FDEEC76AF8EEE67A16EE903A37EE87
:10528000677AF7EE087A37EE277A013BBDEEC77AE8
:1052900017EE102A1A44134672E7BDEEE77AF8EECD
:1052A000C76A17EE103A77EEE67AF7EE086A77EEFD
:1052B000A67A013BFDEEE77A17EE902A1A441346D0
:1052C00078E700BFCDCCCC3DCDCC4C3D37B5114DB2
:1052D000114A2B680193044601AB082100F5965052
:1052E0000EF0E6FD6B680C4A019304F5965001AB95
:1052F000082110300EF0DCFD04F5915008300CF060
:10530000F4FB04F58E501C3003B0BDE830400CF0C7
:10531000ECBB00BF543A00201F30020870B5324D7C
:10532000D0ED4D7AD5F8783A3C2293FBF2F3063370
:1053300005EB830393ED007AF8EEE77A044667EE17
:10534000877A00F58076F5EEC07AF1EE10FA37DB59
:10535000B6EE007A77EE877AFDEEE77A17EE901ACE
:10536000304606F0D7FFD5F8783AB3F5077F26DD4B
:10537000D5F8782A40F6D3539A4220DCD4F830315D
:105380003C225A430021304606F0A1FBD4F8A42C5D
:10539000D4F8243D0A214A43002AB8BF5242C4F837
:1053A000A82CD4F8242C52004B43002AB8BF5242F8
:1053B000002BB8BF5B42C4F8282CC4F8283D70BD50
:1053C000BDEEE77AF8EEC76A17EE103A77EEE67AA6
:1053D000F7EE086A77EEA67A591EFDEEE77A17EE29
:1053E000903A0B441946BBE7543A002010B50446E6
:1053F000FEF74AFE014B2360204610BDD430020860
:10540000F02070474FF4A07070472920FCF77ABA5B
:105410002820FCF777BA08B5FCF748FACA20FCF751
:1054200071FAC320FCF752FA0820FCF74FFA50201B
:10543000FCF74CFACF20FCF765FA0020FCF746FA9F
:10544000C120FCF743FA3020FCF740FAED20FCF7CE
:1054500059FA6420FCF73AFA0320FCF737FA1220D5
:10546000FCF734FA8120FCF731FAE820FCF74AFA1D
:105470008520FCF72BFA0020FCF728FA7820FCF7AF
:1054800025FACB20FCF73EFA3920FCF71FFA2C2036
:10549000FCF71CFA0020FCF719FA3420FCF716FA86
:1054A0000220FCF713FAF720FCF72CFA2020FCF777
:1054B0000DFAEA20FCF726FA0020FCF707FA002094
:1054C000FCF704FAB120FCF71DFA0020FCF7FEF906
:1054D0001B20FCF7FBF9B620FCF714FA0A20FCF7B6
:1054E000F5F9A220FCF7F2F9C020FCF70BFA102026
:1054F000FCF7ECF9C120FCF705FA1020FCF7E6F9FF
:10550000C520FCF7FFF94520FCF7E0F91520FCF772
:10551000DDF9C720FCF7F6F99020FCF7D7F9362023
:10552000FCF7F0F9C820FCF7D1F9F220FCF7EAF912
:105530000020FCF7CBF9B020FCF7E4F9C220FCF71F
:10554000C5F9B620FCF7DEF90A20FCF7BFF9A72061
:10555000FCF7BCF92720FCF7B9F90420FCF7B6F9F1
:105560002A20FCF7CFF90020FCF7B0F90020FCF767
:10557000ADF90020FCF7AAF9EF20FCF7A7F92B20E2
:10558000FCF7C0F90020FCF7A1F90020FCF79EF918
:105590000120FCF79BF93F20FCF798F9F620FCF777
:1055A000B1F90120FCF792F90020FCF78FF90620F1
:1055B000FCF78CF92C20FCF7A5F9C820FCF7F0F9D2
:1055C0002620FCF79FF90120FCF780F9E020FCF78A
:1055D00099F90F20FCF77AF92920FCF777F92420B4
:1055E000FCF774F90C20FCF771F90E20FCF76EF94A
:1055F0000920FCF76BF94E20FCF768F97820FCF7DE
:1056000065F93C20FCF762F90920FCF75FF91320EB
:10561000FCF75CF90520FCF759F91720FCF756F95F
:105620001120FCF753F90020FCF750F9E120FCF7BA
:1056300069F90020FCF74AF91620FCF747F91B200E
:10564000FCF744F90420FCF741F91120FCF73EF97E
:105650000720FCF73BF93120FCF738F93320FCF741
:1056600035F94220FCF732F90520FCF72FF90C2020
:10567000FCF72CF90A20FCF729F92820FCF726F979
:105680002F20FCF723F90F20FCF720F91120FCF75D
:1056900039F9C820FCF784F92920FCF733F9BDE873
:1056A00008402C20FCF72EB908B5FCF7FFF80321C1
:1056B000D320FCF743F980B208BD10B5C4B2022272
:1056C00003212046FCF7A8F80A20FCF7EDF8204655
:1056D00000220321FCF7A0F8BDE810400220FCF7EF
:1056E000E3B838B50446E4B2FCF794F8002120464C
:1056F000FCF7AAF8012105462046FCF7A5F840EA88
:10570000052080B238BD10B5C4B240212046FCF758
:105710009BF8030607D54C212046FCF795F8003886
:1057200018BF012010BD01224B212046FCF774F860
:10573000204600224B21FCF76FF80020F2E773B5FA
:105740000423C4B20E461546D7210DEB03022046B2
:10575000FCF794F8019B1BBA1A0DC3F30B2332809C
:1057600020462B8001224B21FCF756F800224B21CA
:105770002046FCF751F802B070BD000010B50A4B8E
:105780001A78904204460DD0597888420AD00AB15E
:1057900041B901229C54FCF73DF82046BDE8104079
:1057A000FFF78BBF10BD00BFC445002010B5C4B2C9
:1057B00009212046FCF748F840F00100C2B2092157
:1057C0002046BDE81040FCF727B810B5C4B2092147
:1057D0002046FCF739F8092100F0FE022046BDE81A
:1057E0001040FCF719B838B5C4B20D4620460A215E
:1057F000FCF72AF82843C2B20A212046BDE8384007
:10580000FCF70AB807B50190FCF705F801981F21CD
:10581000FFF7E9FF019803B05DF804EBFFF7C6BF9F
:1058200038B5C4B20D4620460A21FCF70DF820EA2F
:105830000500C2B20A212046BDE83840FBF7ECBFA4
:1058400010B50446FFF7C1FF20461F21BDE81040F8
:10585000FFF7E6BF10B5C0B20C460B21FBF7F4FF13
:10586000204010BD1F21FFF7F5BF0A46C0B20B2133
:10587000FBF7D2BF1F21FFF7F8BF38B5C4B20D4602
:1058800020461721FBF7E0FF20EA0500C2B21721EE
:105890002046BDE83840FBF7BFBF70B5C4B206462E
:1058A00004212046FBF7D0FF042100F0FB0205464F
:1058B0002046FBF7B1FF3046F021FFF7DEFF05F091
:1058C000F80220460421FBF7A7FF492220212046A9
:1058D000FBF7A2FF0220FBF7E7FF20460122212170
:1058E000FBF79AFF20469A224121FBF795FF2046BD
:1058F00001224A21FBF790FF204601224B21FBF7B2
:105900008BFF204600224B21FBF786FF2046012219
:105910005621FBF781FF204601225821FBF77CFF2F
:10592000204601224021FBF777FF2046FF220B2172
:10593000FBF772FFBDE870400220FBF7B5BF000027
:10594000054BD3F8882042F47002C3F888204FF04A
:1059500000629A60704700BF00ED00E008B50B4B95
:105960001A6842F400721A601A6842F480621A607F
:105970001A6842F480721A60032000F037FA00209F
:10598000FCF7CCFAFCF726F8002008BD003C0240EA
:10599000034A044B11681B780B441360704700BF27
:1059A000C845002080000020014B1868704700BFE8
:1059B000C845002038B50446FFF7F6FF631C1CBF3E
:1059C000054B1B78054618BFE418FFF7EDFF431B96
:1059D000A342FAD338BD00BF8000002038B504468A
:1059E000002800F09B80056C25B9FCF713F865646E
:1059F00084F83C50236CDB0600F18E80236C23F48A
:105A0000885323F0020343F002032364444B5A6893
:105A100022F440325A605A6861680A435A60236827
:105A200021695A6822F480725A605A6842EA012257
:105A30005A605A68A16822F040725A605A680A4354
:105A40005A609A68E16822F400629A609A680A4390
:105A50009A603449A26A8A4252D0996821F07061F2
:105A6000996099680A439A609A68E16A22F0405204
:105A70009A609A680A439A609A6822F002029A60D1
:105A80009A68217E42EA41029A6094F82020002A16
:105A90003ED05A68616A42F400625A605A6822F441
:105AA00060425A605A68013942EA41325A60DA6A01
:105AB000E16922F47002DA62DA6A013942EA0152DB
:105AC000DA629A6822F400729A609A6894F8301048
:105AD00042EA41229A609A68616922F480629A607F
