:020000040800F2
:100000000000032095050008991F00089B1F0008A9
:100010009D1F00089F1F0008A11F0008000000008E
:10002000000000000000000000000000E18900085E
:10003000A31F000800000000718A0008D58A00088C
:10004000E5050008E5050008E5050008E5050008E8
:10005000E5050008E5050008E5050008E5050008D8
:10006000E5050008E5050008E5050008E5050008C8
:10007000E5050008E5050008E5050008E5050008B8
:10008000E5050008E5050008E5050008E5050008A8
:10009000E5050008E5050008E5050008E505000898
:1000A000E5050008E5050008E5050008E505000888
:1000B000E5050008E5050008E5050008E505000878
:1000C000E5050008E5050008E5050008E505000868
:1000D000E5050008E5050008E5050008E505000858
:1000E000E5050008E5050008E5050008E505000848
:1000F000A51F0008E5050008E5050008E50500085E
:10010000E5050008E5050008E5050008E505000827
:10011000E5050008E5050008E5050008B11F000831
:10012000E5050008E5050008E5050008E505000807
:10013000E5050008E5050008E5050008E5050008F7
:10014000E5050008E5050008E5050008E5050008E7
:10015000E5050008E5050008E5050008E5050008D7
:10016000E5050008E5050008E5050008E5050008C7
:10017000E5050008E5050008E505000800000000A9
:10018000E5050008E5050008E5050008E5050008A7
:10019000E5050008E5050008E5050008E505000897
:0C01A000BD1F0008E5050008C91F00088D
:1001B00010B5054C237833B9044B13B10448AFF3A1
:1001C00000800123237010BD6C010020000000009E
:1001D000C814020808B5034B1BB103490348AFF329
:1001E000008008BD0000000070010020C814020853
:1001F00001F0FF01102A2BDB10F0070F08D010F8D8
:10020000013B013A8B422DD010F0070F42B3F6D1DB
:10021000F0B441EA012141EA014122F007047FF0F4
:1002200000070023F0E80256083C85EA010586EA4B
:10023000010685FA47F5A3FA87F586FA47F6A5FA87
:1002400087F68EB9EED1F0BC01F0FF0102F0070293
:1002500032B110F8013B013A83EA010313B1F8D13E
:100260000020704701387047002D06BF354603381F
:10027000073815F0010F07D1013015F4807F02BF58
:10028000013015F4C03F0130F0BC0138704700BFA9
:1002900053B94AB9002908BF00281CBF4FF0FF31ED
:1002A0004FF0FF3000F074B9ADF1080C6DE904CEE9
:1002B00000F006F8DDF804E0DDE9022304B0704741
:1002C0002DE9F047089D04468E46002B4DD18A4209
:1002D000944669D9B2FA82F252B101FA02F3C2F13C
:1002E000200120FA01F10CFA02FC41EA030E9440CD
:1002F0004FEA1C48210CBEFBF8F61FFA8CF708FBEE
:1003000016E341EA034306FB07F199420AD91CEBC5
:10031000030306F1FF3080F01F81994240F21C81F7
:10032000023E63445B1AA4B2B3FBF8F008FB10333F
:1003300044EA034400FB07F7A7420AD91CEB040474
:1003400000F1FF3380F00A81A74240F20781644444
:10035000023840EA0640E41B00261DB1D4400023C9
:10036000C5E900433146BDE8F0878B4209D9002D2D
:1003700000F0EF800026C5E9000130463146BDE8B7
:10038000F087B3FA83F6002E4AD18B4202D3824221
:1003900000F2F980841A61EB030301209E46002DD0
:1003A000E0D0C5E9004EDDE702B9FFDEB2FA82F225
:1003B000002A40F09280A1EB0C014FEA1C471FFA83
:1003C0008CFE0126200CB1FBF7F307FB131140EA6A
:1003D00001410EFB03F0884208D91CEB010103F137
:1003E000FF3802D2884200F2CB804346091AA4B2F9
:1003F000B1FBF7F007FB101144EA01440EFB00FECD
:10040000A64508D91CEB040400F1FF3102D2A64531
:1004100000F2BB800846A4EB0E0440EA03409CE7D0
:10042000C6F12007B34022FA07FC4CEA030C20FA7D
:1004300007F401FA06F31C43F9404FEA1C4900FA9D
:1004400006F3B1FBF9F8200C1FFA8CFE09FB18111A
:1004500040EA014108FB0EF0884202FA06F20BD98D
:100460001CEB010108F1FF3A80F08880884240F2DD
:100470008580A8F102086144091AA4B2B1FBF9F021
:1004800009FB101144EA014100FB0EFE8E4508D91C
:100490001CEB010100F1FF346CD28E456AD90238A1
:1004A000614440EA0840A0FB0294A1EB0E01A14286
:1004B000C846A64656D353D05DB1B3EB080261EBF4
:1004C0000E0101FA07F722FA06F3F1401F43C5E9CE
:1004D000007100263146BDE8F087C2F12003D84004
:1004E0000CFA02FC21FA03F3914001434FEA1C4746
:1004F0001FFA8CFEB3FBF7F007FB10360B0C43EA38
:10050000064300FB0EF69E4204FA02F408D91CEBE7
:10051000030300F1FF382FD29E422DD902386344E5
:100520009B1B89B2B3FBF7F607FB163341EA034185
:1005300006FB0EF38B4208D91CEB010106F1FF38D4
:1005400016D28B4214D9023E6144C91A46EA0046CB
:1005500038E72E46284605E70646E3E61846F8E65D
:100560004B45A9D2B9EB020864EB0C0E0138A3E7A6
:100570004646EAE7204694E74046D1E7D0467BE787
:10058000023B614432E7304609E76444023842E7FF
:10059000704700BFDFF834D0002103E00C4B5B58FC
:1005A000435004310B480C4B42189A42F6D30B4A85
:1005B00002E0002342F8043B094B9A42F9D305F0CC
:1005C000E3F91FF0A5FF00F0FDFE704700000320D7
:1005D000D08C0A08000000206C0100206C01002073
:1005E00090560120FEE700F039BC00F0ABBC70472C
:1005F00010B5042104461FF01DFE204610BD00006A
:1006000038B50C4B0C4C18800C4B82201980636859
:10061000984740F6110398420AD1094D23682C608F
:10062000822098472B688220DB689847002038BDDD
:100630000120FCE788010020540000208A010020EE
:100640008C0100204FF4A071F020FFF7D9BF00000B
:10065000F7B52D4D2B6804461B698220984780B260
:100660002080002843D02B680DF106025B6901A9A8
:1006700082209847BDF80620A2F5B47292B20A2AE9
:1006800037D90B23B2FBF3F2204B1B889A4201D9D6
:10069000013B9AB2BDF8043040F6B8318B422AD8FB
:1006A000C3F571630E339BB20F21B3FBF1F318490D
:1006B00009888B4201D94B1E9BB2164E164D3068ED
:1006C0002F68834281B28CBF591AC91AB8B2BA4294
:1006D0008CBF101A801A89B280B201440529C8BFA4
:1006E00033603368C8BF2A6063802B68A38003B07F
:1006F000F0BD0022CEE7C3F56D6308339BB20E2B2D
:10070000D2D80023D9E700BF8C0100208A01002045
:1007100088010020900100209401002037B5684630
:100720000D461446FFF794FFBDF8000030B1BDF848
:1007300002302B60BDF804302360012003B030BDCF
:10074000704770477047012380F8741080F8753047
:100750007047002070470000034B4164003918BF08
:1007600001211970704700BFE3530120002070473A
:10077000836B0BB10846184770474FF6FF70704700
:10078000406803689B69184770477047704700F0DE
:1007900079BC08B503680446D3F8803098472368CD
:1007A00020469B6F984700F0EBF8236820461B6FAC
:1007B0009847292001F0A6F800F0E2F823682046C7
:1007C0001B6F9847F8E710B504460AF013FF23683B
:1007D0002046D3F8AC30BDE81040184700F044BCC8
:1007E00000F048BC00F074BC00F01ABC00F074BC0F
:1007F00000F07CBC00F01EBC0AF070B910B57C2182
:1008000004461FF017FD204610BD90F877301BB14D
:10081000406803681B6818471846704710B590F881
:10082000341090F874400C4B8C421A7809D03AB9C5
:100830000A4A0B491488088810800C8001221A701B
:1008400010BD002AFCD0054A05491488088810808C
:100850000C800022F3E700BFDC530120D8530120B5
:10086000DA53012070B50D46194635B9094B0A4ACD
:100870000A4840F2D2211FF00BFDC0E90F52084B8D
:10088000003A18BF01221A700368BDE87040D3F81F
:100890008C3018473815020870150208BE1502087A
:1008A000E253012008B5094B1B888B4203D8084B43
:1008B0001B88934205D9074B074A08489E211FF021
:1008C000E7FC074B1980074B1A8008BDD85301205D
:1008D000DA5301200316020866160208BE15020844
:1008E000DE530120E0530120012108B50022084613
:1008F00007F04AFD0A4B186028B90A4B0A4A292119
:100900000A481FF0C5FC00220421012007F002FE66
:10091000074B186018B9074B034A2D21F0E708BDB3
:100920009C01002084170208CD170208FC1702085A
:10093000980100204A180208024B4FF0FF31186856
:1009400007F078BD9C010020014B186807F0ACBD92
:100950009C010020024B0021186807F06BBD00BF0E
:100960009C010020FFF7F0BF034804490068002302
:100970001A4607F015BE00BF9801002004000020B1
:1009800013B5084C00231A4601A9206807F04AFE57
:1009900020684FF0FF33002201A907F043FE02B0A8
:1009A00010BD00BF9801002003685B6C1847012050
:1009B000704703689B6A184782B0002301930D4B70
:1009C0001A6B42F400021A631A6B02F400020192DD
:1009D000019A1A6942F400021A611A6922F40002AB
:1009E0001A61054B054A1A61054B4FF080629A6007
:1009F00002B07047003802404C380020450A000819
:100A000000E100E040F2EF3070470000054B03606A
:100A1000054B4FF08062C3F88820BFF34F8FBFF3C0
:100A20006F8F7047E819020800E100E010B5044636
:100A30004FF45A61FFF7EAFF20461FF0FBFB204608
:100A400010BD0000024B1B68586803685B691847BB
:100A5000E453012070B5044625460A4B0C300026AD
:100A600060602672667245F8203B602229460AF0D3
:100A700017FF04F55A63EE602435AB42FBD12046E4
:100A800070BD00BFE819020808B50B290BD8DFE8D4
:100A900001F01206100A0A0A0A08080808080120CC
:100AA00008BD0520FCE7054B054A064867211FF0F5
:100AB000EFFB0020F4E70220F2E700BF8C180208E9
:100AC000A7180208F118020808B50A2909D8DFE8B2
:100AD00001F010060E0808080806060606000120A8
:100AE00008BD054B054A064888211FF0D1FB0020B0
:100AF000F6E70220F4E700BF8C1802083D1902084F
:100B0000F11802082DE9F8434F7F0C46394681461B
:100B1000FFF7BAFF94F81E80054641464846FFF7A6
:100B2000B3FF414606464846FFF7CEFFA18A628BD7
:100B3000424B521A1A649A61228B521A1A61E28A43
:100B4000586342EA01425A6420696268D863DA60F5
:100B5000216894F81CC080294FEA0C6226D010D876
:100B6000202945EA020461D040295FD004295DD0E4
:100B7000324B2A4342F400324745DA615AD0304AB8
:100B800040E0B1F5807F07D0B1F5007FF0D142F4AD
:100B9000003242F0090203E042F4003242F00A025D
:100BA000DA61E2681A625E6258612AE0A4682A4348
:100BB00042F40032211DD962DA6122785E62586106
:100BC00042B1012A21D01F4B1F4A20484FF489719E
:100BD0001FF05EFBDA69618822F47F42013922F05E
:100BE000100242EA0122DA610120144BDA6942F074
:100BF0002002DA61DA699206FCD410229A60002899
:100C0000BDD0134A1A60BDE8F8836288D969541EC2
:100C100021F47F4222F0100242EA0422BCF1FF00DC
:100C200042F0100218BF0120DA61DEE744F400341C
:100C3000DC61B8E740F20122E4E700BF00B0024007
:100C40000102010088190208A2190208F11802081D
:100C50000102020070B50C46897FFFF735FFA68AB6
:100C6000E18A628B154B2569586341EA0641921B64
:100C70005964DD631A642668E168082E0DD19A6113
:100C80001A615862207F0E4A42EA0062DA610D4A18
:100C900019625D61DD601A6070BD0022D8611A6161
:100CA00048090A0A02F4784200F4FC600243C1F3E6
:100CB000C4010A439A63044AEDE700BF00B0024052
:100CC000090001000102020001020300034B1A683F
:100CD000D207FCD423229A60704700BF00B00240C4
:100CE00030B50F4C2568ED07FCD423250904A56019
:100CF00041F001010225FF2B65636164E0630AD0C6
:100D00000849656241EA0363E361074B226260615F
:100D1000E060236030BDE561039BA363034BF8E70C
:100D200000B00240090001000100020001000300C0
:100D30000120704738207047382303FB010008303A
:100D40007047382303FB01000830704701207047CB
:100D500042F2C450704742F2C45303FB0100083012
:100D6000704742F2C45303FB010008307047012072
:100D700070471020704700EB01100830704700EBFF
:100D8000011008307047084601F0D8BB10B5034B7E
:100D90000360044609F0EFFB204610BDA01A0208CC
:100DA00010B50446FFF7F2FF204640211FF042FA3B
:100DB000204610BD10B5034B0360044609F0DBFB71
:100DC000204610BD6C1A020810B50446FFF7F2FF6A
:100DD000204642F2CC511FF02DFA204610BD0000F3
:100DE00010B5034B0360044609F0C5FB204610BD57
:100DF000381A020810B50446FFF7F2FF2046182102
:100E00001FF018FA204610BD10B5094B03600446C8
:100E100000F517503830FFF7B9FF04F12C00FFF749
:100E2000C9FF04F11400FFF7DBFF204610BD00BF2F
:100E3000D41A020808B50248FFF7E6FF08BD00BF54
:100E4000A401002010B50446FFF7DEFF204642F261
:100E500094711FF0EFF9204610BD00002DE9F34119
:100E600001F026F9054601F027F900240146234642
:100E700028462246009413F0DDF8264B264A274DDB
:100E80001A60204603F0C0FE254813F03BF82B788B
:100E9000BFF35B8FDB0736D428461FF0CDF990B344
:100EA000204C214F214B236007F1440604F114002C
:100EB00004F12C086060C4F80880E760266109F03E
:100EC0005BFB1B4B6361404609F056FB194BE36229
:100ED000384609F051FB04F50053174AC3F8F825CA
:100EE00003F5C76003F00CFF224607F140013046CE
:100EF00003F0FCFE304601F021FB10481FF0E6F93C
:100F000028461FF0A5F90E4802B0BDE8F041FFF7F2
:100F10003EBC00BF4854012058370020A0010020EB
:100F200008000020A40100209C270020D41A0208F9
:100F3000381A02086C1A0208A01A0208350E0008B6
:100F4000DC3600200148FFF724BC00BFDC3600205F
:100F500070B5234C234E244B244D23603046FFF7BD
:100F600079FD284616F070F9214B2248DC60224CAE
:100F700003600022F0204FF480712080C3E9121238
:100F80001E4C1F492080C3E919121E4C1A864FF0CF
:100F900080714FF4A07059670121C3E90422C3E9AD
:100FA0000622C3E90822C3E90A22C3E90E22C3E9E3
:100FB0001022C3E91422C3E916221A6683F86C20B2
:100FC0001A67C3E9016583F8781020800E4C83F816
:100FD000341020800D4802700D4A1A6070BD00BFA9
:100FE000382900203C290020281502085C37002001
:100FF000DC360020E4530120D8530120DE530120C9
:1010000001000001DA530120E0530120DC530120EC
:10101000B41602080148FFF7F9BC00BF3C290020C4
:10102000034B902283F85A2383F85823704700BF5C
:1010300000E100E0094A0A49D3680A48C3F30A03F9
:10104000013B9BB20B801169C1F30A010139018098
:101050001364536B43F0010353637047006801400E
:10106000D8370020D6370020014BD3F8AC007047AA
:1010700000680140024B0122C3F8AC105A6270476D
:101080000068014070B5044609F07DFD23685D6E7F
:101090000FF0B4FD01462046A8472368054AD3F85F
:1010A00088502046AC460023BDE87040A2F51631BA
:1010B000604700BF005802D009F04CBD90F84B309B
:1010C00013B1024B01221A7009F050BDD437002031
:1010D00009F00ABD09F063BE034B4FF080629A60CD
:1010E0004FF080729A60704700E100E0084B4FF0CB
:1010F0008062C3F88820BFF34F8FBFF36F8F4FF02C
:101100008072C3F88820BFF34F8FBFF36F8F704793
:1011100000E100E010B5144C236823B3134B144ACC
:101120001B6C11888B4213D1124B198805F01AFFE2
:10113000226892F86630013382F86630FFF714FCBB
:1011400020680AF057FABDE810400020FFF7F8BA0F
:1011500005F008FF206803681B6A9847BDE8104047
:101160000020FFF7EEBA10BDE453012000680140F3
:10117000D8370020D637002007B5064BADF806005B
:101180001B68054801220DF1060106F0FCFB03B0C7
:101190005DF804FB10000020BC3900200C4982B02F
:1011A000002303F25E2201EB820292ED007ADDED74
:1011B000017A013377EE877A3C2BCDED017AF0D1BD
:1011C0009DED010ADFED037A80EE270A02B0704739
:1011D000543A0020000070422DE9F843434C444D3E
:1011E000D4F86C3A002B71D000232846C4F86C3A2E
:1011F000404F414E04F0BCFC4FF0FF31284604F054
:101200002BFD284604F077FD3A68336801320A2145
:1012100018443A6092FBF1F301FB13223060002A7C
:1012200054D13368B3FBF1F307EE903A9FED337A74
:10123000F8EEE77A67EE877A9FED317A67EE877A84
:10124000C4ED007A2369002B3DD0D4F8783ADFF85A
:10125000B880002BDFBF2368A3610123C4F8743A70
:1012600094ED007AD4ED017AB4EEE77AF1EE10FA5B
:10127000C4BF23686360D4F8783A0133C4F8783A7D
:10128000D8F800304FF0010903EB090203F25E23A6
:10129000C4F8709A04EB83032168C8F800203B2A45
:1012A000196010DD3C23D4F8780A90FBF3F0FFF7C7
:1012B00075FF063004EB8000002380ED000AC8F8BB
:1012C0000030C4F8749A00233B6033602669012E15
:1012D00008D1626932B90B4840F25553102104F02D
:1012E0006CFE6661012007F035F879E7543A00207A
:1012F000E8370020D0440020D84400203333534046
:101300000000803938380020D4440020F0B5A1B066
:10131000102200210AA81FF041F91422002103A87D
:101320001FF03CF90021302214A81FF037F90024E7
:10133000224B01941A6C42F080521A641B6C03F029
:1013400080530193019B1E4B02941A6842F4404261
:101350001A601B6803F4404302930122029B4FF47E
:101360008033CDE9082302254FF48003CDE90E53E5
:1013700008274FF4A873042608A8CDE91073129526
:10138000139605F00DFE0F23CDE903354FF4A05160
:101390004FF48053CDE9061303A80521059405F009
:1013A000D7FFC023189314A84FF4003314971A964C
:1013B0001D9306F0A7F821B0F0BD00BF0038024031
:1013C000007000402DE980489BB004F0EBFAFFF775
:1013D0009DFF142200210DA800241FF0DFF8C44B4C
:1013E00000941A6BC348C44D42F020021A631A6B72
:1013F00002F020020092009A01941A6B42F08002DF
:101400001A631A6B02F080020192019A02941A6B1D
:1014100042F004021A631A6B02F004020292029A6A
:1014200003941A6B42F001021A631A6B02F0010274
:101430000392039A04941A6B42F002021A631A6B25
:1014400002F002020492049A05941A6B42F04002E0
:101450001A631A6B02F040020592059A06941A6B01
:1014600042F010021A631A6B02F010020692069AFA
:1014700007941A6B42F008021A631B6B03F008030F
:10148000079322460421079B04F08EFF9B482246C7
:101490004FF4805104F088FF224699484FF44051A0
:1014A000012604F081FF02274FF0040B91480F94AE
:1014B0000DA9CDE90DB6109704F08EFE4FF48052C1
:1014C0008E480DA9CDE90D26CDE90F4404F084FE28
:1014D0000DA94FF440528A48CDE90D26CDE90F47BA
:1014E00004F07AFE8748884A026004F0F5FC874BD6
:1014F000874A2C62C5E9003228464FF48042C5E98C
:101500000424C5E90244C5E9064405F02FF9102179
:10151000284605F06BFB2146284605F086FB7D48F2
:101520007D4984624FF48272C0E900124FF4007565
:101530001822C0E906520A22784DC262C0E902446C
:10154000C0E90444C0E9084406F0E0F9744A0D9784
:101550004FF01008C5E900264022C5E904824FF487
:10156000C072C5E906244FF4006203234FF0070957
:10157000C5E908240DA94FF400522846CDE91137DA
:101580004FF0080AC5E9024BAA62CDE90E9BCDF8DF
:101590004090139706F0E0F84FF6FF7209A928462D
:1015A000CDE90AA6099608940C9406F0F5F83046A1
:1015B00004F024FA4FF6FF7209A92846CDE9097A0A
:1015C000CDE90B6406F0E8F803234FF6FF7209A992
:1015D0002846CDE9093ACDE90BB406F0DDF84FF421
:1015E0000C720892089B0C934FF6FF7209A92846CB
:1015F000CDE909BA0B9606F0CFF840F26A512846B9
:1016000006F0E1F8342221460DEB02001EF0C6FF81
:10161000444D454BAC86C5E9003409234FF01D0C01
:10162000C5E905360323C5E907C340F20D1E40F2A4
:101630004313C5E909E3284640F2471340F2171A5D
:10164000C5E90BA3C5E902442C6185F8364005F0D5
:1016500091FBFF21F022CDE912144FF4806B05219C
:101660004FF4A073CDE90E24CDE914B1CDE91642B3
:101670000DA922462846CDE910372C4D18930D941C
:10168000ADF864408DF8664005F03FFC284B2B60B8
:101690001B6898472B68274DDB689847264BC5E9A0
:1016A0000A47C5E90C442846C5E90034C5E9027477
:1016B00004F095FC3146284604F04AFD2146424696
:1016C0000DA81EF06BFF1D4D1D4AEE614FF48033D7
:1016D000C5E9002328461B4BAB626E61AC602C61F0
:1016E0002C7685F82040EC62EC6085F830402BE0E9
:1016F00000380240000802408C38002000040240FC
:10170000000C02403038002000300240005C0040F5
:10171000A0860100BC39002000500140883900201B
:10172000400100A0E038002000680140E0370020C0
:101730001C0000204C38002000B00240E837002098
:10174000002001400100000F04F06CF90DA92846AB
:10175000CDE90D96254DCDF83C9004F0CFFA244903
:10176000244EAC6042F2CF03C5E90013284640F294
:10177000E733EB60CDE90D44AC6106F061FC0DA9E7
:101780002846CDE90D4406F075FC1B4B336030460E
:10179000CDE90D4404F0B0FB42460DA93046CDE939
:1017A0000D4404F0E9FBFEF71EFF284606F02BFB74
:1017B0004146304604F0B3FB40F2555322464146C1
:1017C000304604F0FAFB06F035FD0C4A0C48214681
:1017D00006F06AFD0B4B0C4A186021460B4806F0D8
:1017E00063FD0B4B186006F03FFDFEE7143A002046
:1017F000001400403838002000740040F41A020839
:10180000EB050008DC370020181B0208D91100087E
:10181000E4370020704770477FB5094B8DF81720DB
:101820001B6802930DF117020123009201930A46EF
:101830000146044805F042F807B05DF804FB00BF1C
:101840000C0000208C3800207FB500238DF8173065
:10185000084B1B6802930A4601230DF11701009102
:1018600001930146044805F0B9F89DF8170007B048
:101870005DF804FB0C0000208C3800201FB5084CDC
:1018800024680092CDE901340A4601230146054847
:1018900005F0A4F8003818BF012004B010BD00BF47
:1018A0000C0000208C38002004F0A8B808B50648C9
:1018B0000022042104F078FDBDE80840024801221E
:1018C000042104F071BD00BF0008024038B50B4D83
:1018D000044601220A484FF4005104F065FD00223D
:1018E0000421284604F060FD2046FFF745FC284609
:1018F0000122BDE83840042104F056BD0008024032
:10190000000C024038B50B4D044600220A484FF443
:10191000005104F049FD00220421284604F044FD52
:101920002046FFF729FC28460122BDE83840042163
:1019300004F03ABD00080240000C0240F7B5144E16
:10194000144F05460C4630460022042104F02CFDBD
:1019500000224FF40051384604F026FD2846FFF7D8
:101960000BFC0D4B0D481B68224601A906F0A9F996
:10197000384601224FF40051019C04F015FD304619
:101980000122042104F010FD204603B0F0BD00BF89
:1019900000080240000C024010000020BC3900206A
:1019A00004F02CB80268084B9A4210B5044601D1E5
:1019B00004F012F82268054B9A4202BF044B012240
:1019C000C3F86C2A10BD00BF0004014000140040A1
:1019D000543A002082B00E4B00220092596C41F420
:1019E00080415964596C01F4804100910099019241
:1019F000196C41F0805119641B6C03F08053019302
:101A0000019B0F216FF0010002B004F025BA00BF66
:101A10000038024010B5044688B01422002103A803
:101A20001EF0BCFD2268124B9A421ED103F58C3386
:101A3000002101915A6C0F4842F480725A645A6C2A
:101A400002F480720192019A02911A6B42F0010233
:101A50001A631B6B03F001030293029B8022032392
:101A600003A9CDE9032304F0B7FB08B010BD00BF04
:101A700000200140000002400268094B9A4282B0F7
:101A80000BD100230193074B1A6B42F480521A6367
:101A90001B6B03F480530193019B02B0704700BF9E
:101AA000003002400038024010B5044688B01422CD
:101AB000002103A81EF072FD2268124B9A421ED12B
:101AC00003F5E233002101911A6C0F4842F00052F5
:101AD0001A641A6C02F000520192019A02911A6B78
:101AE00042F001021A631B6B03F001030293029B95
:101AF0002022032303A9CDE9032304F06DFB08B0E2
:101B000010BD00BF007400400000024007B50F4B3D
:101B100002689A4216D10022A3F5F0430192196B94
:101B200041F4000119631B6B03F4000301930521C9
:101B30005A20019B04F090F95A2003B05DF804EBA1
:101B400004F0BCB903B05DF804FB00BF00B0024074
:101B50002DE9F043044689B01422002103A81EF0A9
:101B60001DFD2268244B9A4243D1244C2448002571
:101B70000095236B43F004032363236B03F00403FA
:101B80000093009B0195236B43F001032363236BB8
:101B900003F001030193019B4FF012094FF400730E
:101BA0004FF001080327042603A9CDE90339CDE945
:101BB0000587079604F010FB4FF4807311480796D1
:101BC00003A9CDE90339CDE9058704F005FB0295AA
:101BD000236C43F400032364236C03F40003029397
:101BE000029B236A43F400032362236A23F4000365
:101BF000236209B0BDE8F083005C00400038024079
:101C00000008024000000240F0B504468DB01422E6
:101C1000002107A81EF0C2FC2268574B9A4240F0F0
:101C2000A88003F55043002500955A6C534842F0B4
:101C300080625A645A6C02F080620092009A0195A8
:101C40001A6B42F020021A631A6B02F02002019212
:101C5000019A02951A6B42F001021A631A6B02F0A4
:101C600001020292029A03951A6B42F002021A6371
:101C70001A6B02F002020392039A04951A6B42F067
:101C800040021A631A6B02F040020492049A05950E
:101C90001A6B42F004021A631A6B02F004020592F6
:101CA000059A06951A6B42F008021A631B6B03F043
:101CB0000803069302240E26069B0A944FF48063C1
:101CC00007A9CDE907340B9604F086FA41F65803CC
:101CD0002B480B9607A9CDE907340927CDE909540C
:101CE00004F07AFA032327480B9707A9CDE90734B4
:101CF000CDE9095404F070FA4FF4706321480B9653
:101D000007A9CDE90734CDE9095404F065FA4FF489
:101D10000C631D480B9607A9CDE90734CDE909549A
:101D200004F05AFAC02319480B9607A9CDE90734E5
:101D3000CDE9095404F050FA082315480B9607A979
:101D4000CDE90734CDE9095404F046FA4FF4A05325
:101D50000D480B9707A9CDE90734CDE9095404F0E4
:101D60003BFA58202A46052104F076F8582004F062
:101D7000A5F80DB0F0BD00BF00680140001402409E
:101D80000000024000040240001802400008024027
:101D9000000C024010B5044688B01422002103A8AC
:101DA0001EF0FCFB2268144B9A4223D103F56843D2
:101DB000002101915A6C114842F480125A645A6C05
:101DC00002F480120192019A02911A6B42F02002F1
:101DD0001A631B6B03F020030293029B4FF46072A3
:101DE00002230321CDE903230523CDE9061303A92B
:101DF00004F0F2F908B010BD005001400014024098
:101E000007B50F4B02689A4216D1002203F5093339
:101E10000192196C41F0200119641B6C03F020033E
:101E2000019305213720019B04F016F8372003B0F9
:101E30005DF804EB04F042B803B05DF804FB00BFAA
:101E4000001400402DE9F04186B0002303932B4B92
:101E50001C68002C4FD14FF00108C3F80080284BBC
:101E600000949A6B274842EA08029A639B6B03EA44
:101E700008030093022703260C25009B01A94FF6B7
:101E80003F03CDE90137CDE9046504F0A5F91E480B
:101E9000059501A9CDE90187CDE9034604F09CF938
:101EA00048F233131948059501A9CDE90137CDE969
:101EB000034604F091F94FF683731548059501A97F
:101EC000CDE90137CDE9034604F086F94CF20373FE
:101ED0001048059501A9CDE90137CDE9034604F085
:101EE0007BF960230C48059501A9CDE90137CDE9BF
:101EF000034604F071F906B0BDE8F081DC4400202F
:101F0000003802400014024000080240001802405D
:101F100000100240000C02400004024030B50146AF
:101F200089B000222C2003F097FF2C2003F0C6FF7D
:101F30000025154B02955A6C144C42F002025A646B
:101F40005B6C03F00203029301A903A8029B05F056
:101F5000BBFA05F0A9FA0E4B236040F2E733E360C9
:101F600040000C4BB0FBF3F0013860602046256167
:101F7000A56006F065F820B9204605F044FF09B0D9
:101F800030BD0120FBE700BF00380240E0440020E4
:101F90000004014040420F007047FEE7FEE7FEE705
:101FA000FEE77047014805F042BF00BFE044002053
:101FB000014805F03CBF00BF143A0020014804F07E
:101FC00047BF00BFE0380020014804F036B800BF2A
:101FD0004C3800200120704708B51EF08BF91623FD
:101FE00003604FF0FF3008BD08B51EF083F91623DB
:101FF0000360FEE770B50D4614460E46731B9C4207
:1020000001DC204670BDAFF3008006F8010BF5E758
:1020100070B50D4614460E46731B9C4201DC2046EB
:1020200070BD16F8010BAFF30080F5E74FF0FF30FD
:1020300070474FF400534B600020704701207047F9
:10204000002070470A4A116808B5034609B90949D2
:1020500011601068694603448B4206D91EF04AF9A4
:102060000C2303604FF0FF3008BD1360FCE700BF96
:102070002045002090560120704710B504210446E9
:102080001EF0D8F8204610BD012908B506D0022957
:1020900008D059B902F004FE006808BD02F000FE45
:1020A0004068FAE702F0FCFD8068F6E70020F4E7FC
:1020B00000487047501B02080920704713B50024E0
:1020C00051B1036801948DF8034001AA9C680DF199
:1020D0000303A04702B010BD0846FBE740897047E4
:1020E000808970478088704783798088184480B2DF
:1020F0007047C07900F07F007047C079C009704711
:10210000704710B5082104461EF094F8204610BD13
:102110007047704700F596730868496803C37047B5
:102120000020704781807047C180704701817047EF
:10213000418170477047704770477047704710B4CF
:10214000C4880368121B84885B6D091B12B25DF89A
:10215000044B09B218474FF6FF7383814FF0FF33EA
:1021600003621368C3611060704770477047416035
:1021700070477047064BC0F848310023C0F84C3117
:1021800000F5A073C0F84401C0F83C31704700BFAF
:10219000A522000801230372704790F825201AB188
:1021A00090F8242002B1186070477047704770475C
:1021B000704701464068036810315B6E184701465E
:1021C0004068036810311B6E18477047704710B5A0
:1021D0000022B1F90840B1F90A10028042808480DF
:1021E000C18010BD10B4C26841685410034601EBB1
:1021F0006200D20748BF0A599B685DF8044B48BF8C
:10220000D358184743682BB183682BB9C06800F0D6
:1022100001007047184670470120704710B50C2127
:1022200004461EF007F8204610BD10B510210446E4
:102230001EF000F8204610BD10B54FF4AC710446F6
:102240001DF0F8FF204610BD10B5382104461DF0E2
:10225000F1FF204610BD10B5282104461DF0EAFF0D
:10226000204610BD08B50EF0C9FCBDE808400FF0CF
:1022700069B890F8252012B103685B691847704768
:1022800010B50446D0F83C0158B10368DB689847A4
:1022900038B1D4F83C0103689B6898470023C4F820
:1022A0003C3110BD2DE9F14FD0E9545A0746A868DA
:1022B00003681B6A9847B0F5C26F05D2454B464A82
:1022C000A32146481DF0E4FF686803681B6A98472D
:1022D0000F2803D8424B404AA421F2E7E86803687C
:1022E0001B6A98470B2803D83E4B3B4AA521E8E7D9
:1022F000DFF8F8900EF082FC0EF086FCD9F80000B2
:1023000010B10368DB689847D9F8000010B1036882
:102310001B689847DFF8D880D8F8000010B1036830
:102320005B699847D7F8380110B103685B68984734
:10233000D8F8000010B103681B689847D7F8380137
:1023400010B103689B689847E868036800215B6ADE
:1023500098474FF0000B244B03600446C0F804B0CC
:1023600080F808B0A868036859465B6A9847064633
:1023700002F0C0FD6868036859465B6A98473146B9
:10238000054602F00BFDC9F80040C7F83851C8F8FF
:102390000060E5B12B1DCAF800303368C5F808A00D
:1023A0003046DB68F56398472B6828461B689847DA
:1023B0002146304610F0D0F8236820461B69984724
:1023C00023685B69204601B0BDE8F04F18472B46F3
:1023D000E1E700BF141C0208A21C0208A61D0208A7
:1023E000ED1D0208901E0208D42102082C54012081
:1023F00028540120044B1B6893F876200AB1D86C4E
:1024000000B99868704700BFE4530120F0B5044656
:10241000807A637A0130C0B2984289B0A07250D8F5
:10242000B4F90C20002110F09DF810F0010283B2E5
:102430004DD04FF6FF710028D8BF0A461344E38100
:10244000244E254F3188B4F818C0E389B7F900004D
:10245000ADF81E00CA1A606863445B1AADF81C3000
:10246000036812B200251B692283ADF81820ADF86D
:102470001A5006A99847A37A012B26D1174B1B782F
:102480001BB3A169606904AB03C3154B18680368EB
:102490001B6B98473388ADF81C303B88ADF81E3075
:1024A0000390ADF81850ADF81A50FFF7A3FFFF22C4
:1024B000036800920195DC68039904AB06AAA04763
:1024C00003E0012323720023A37209B0F0BDE08171
:1024D000B6E700BFD8530120DA530120E2530120B0
:1024E000E4530120F8B5044617460E460EF0A6FB4D
:1024F0000E4B1C600E4B23600E4B0025C4E950357B
:102500000D4BC4E952551868036829469B68C4E915
:102510004E55C4E954769847284602F075FBFFF7FC
:1025200069FF16F078FC2046F8BD00BF3854012042
:102530008821020870210208E4530120064BC0F8EC
:1025400048310023C0F84C3100F5A073C0F84401B5
:10255000C0F83C31704700BFA5220008064BC0F808
:1025600048310023C0F84C3100F5A073C0F8440195
:10257000C0F83C31704700BF41270008064BC0F847
:1025800048310023C0F84C3100F5A073C0F8440175
:10259000C0F83C31704700BF0126000837B504463B
:1025A0000023134A02604360037241728372C4E9DC
:1025B0000533C4E90733C4E90933C4E90B33E381C4
:1025C0004FF4807363630B4B23610B4BB3F9001023
:1025D0000A4BA181B3F9005010300190FFF7A6FD1E
:1025E00001982946FFF7A4FD204603B030BD00BF87
:1025F00060220208F8210208D8530120DA53012092
:102600002DE9F047D0E9544A0746A06803681B6AE1
:10261000984742F2C353984205D8424B424AA321FD
:1026200042481DF035FE606803681B6A98470F2812
:1026300003D83F4B3C4AA421F2E7E06803681B6AD9
:102640009847372803D83B4B374AA521E8E7DFF8FE
:10265000E8900EF0D3FA0EF0D7FAD9F8000010B1D6
:102660000368DB689847D9F8000010B103681B685D
:102670009847DFF8C880D8F8000010B103685B699C
:102680009847D7F8380110B103685B689847D8F8C5
:10269000000010B103681B689847D7F8380110B1E3
:1026A00003689B689847E068036800215B6A984765
:1026B00014210546FFF772FFA068036800215B6ADA
:1026C0009847064602F0B6FE6068036800215B6A20
:1026D00098473146044602F057FCC9F80050C7F845
:1026E0003841C8F80060DCB1231DCAF800303368F7
:1026F000C4F808A03046DB68F46398472368204696
:102700001B689847294630460FF026FF2B6828465D
:102710001B6998472B6828465B69BDE8F047184756
:102720002346E2E7141C0208331F0208A61D020814
:10273000ED1D0208901E02082C540120285401208F
:102740002DE9F047D0E9544A0746A06803681B6AA0
:102750009847B0F5C26F05D2424B434AA321434884
:102760001DF096FD606803681B6A98470F2803D820
:102770003F4B3D4AA421F2E7E06803681B6A984793
:10278000372803D83B4B384AA521E8E7DFF8E89023
:102790000EF034FA0EF038FAD9F8000010B10368E0
:1027A000DB689847D9F8000010B103681B689847A8
:1027B000DFF8C880D8F8000010B103685B6998475B
:1027C000D7F8380110B103685B689847D8F8000063
:1027D00010B103681B689847D7F8380110B1036837
:1027E0009B689847E068036800215B6A984714215A
:1027F0000546FFF7D3FEA068036800215B6A98478F
:10280000064602F077FB6068036800215B6A984720
:102810003146044602F0C2FAC9F80050C7F8384100
:10282000C8F80060DCB1231DCAF800303368C4F872
:1028300008A03046DB68F4639847236820461B688D
:102840009847294630460FF087FE2B6828461B69BB
:1028500098472B6828465B69BDE8F0471847234630
:10286000E2E700BF141C020851200208A61D02085E
:10287000ED1D0208901E02082C540120285401204E
:10288000006A7047406A704770478B8880690A68A1
:10289000DB0A50F823001044704710B5C2B1137B17
:1028A000B3B1547BD27A240204F4E0641443C269C5
:1028B00098B202EB840213888B4202D192F9020093
:1028C00010BD05D8013880B204320028F3D1F7E7F3
:1028D0000020F5E710B5282104461DF0ABFC20468A
:1028E00010BD000030B589B00446BDF850500695C3
:1028F000BDF84C5005959DF8405004959DF83C500E
:1029000003959DF8385002959DF8345001959DF837
:10291000305000950FF0B6F9064B2360119BA36170
:10292000129BE361159B2362169B6362204609B0EC
:1029300030BD00BF84220208806A7047704770472C
:1029400070477047704730B50368018185B06D46A8
:102950000146D3F8843004462846984795E8070096
:102960003C3484E8070005B030BD30B503684181D0
:1029700085B06D460146D3F8843004462846984712
:1029800095E807003C3484E8070005B030BD00221C
:10299000028042808280C280704780F83610704783
:1029A00070B5036804461B6B154698472368294693
:1029B00020465B6EBDE87040184700207047806C71
:1029C000704770477047704770477047704770474F
:1029D000704790F82C304BB100F16C021268C26560
:1029E0003BB100F174031B680366704700F1680295
:1029F000F4E700F17003F6E77047704770477047DF
:102A000030B4C26844685510034604EB6200D20734
:102A100048BF62599B6830BC48BFD35818474368C9
:102A20002BB183682BB9C06800F0010070471846CD
:102A300070470120704730B4C2684468551003469F
:102A400004EB6200D20748BF62599B6830BC48BFA4
:102A5000D358184743682BB183682BB9C06800F07E
:102A600001007047184670470120704790F82D30DC
:102A700080F8A43080F85A30704790F82D3080F8F4
:102A80005A30704710B504467C3094F82C303BB176
:102A900004F17A010BF004FC2046FFF79AFF10BD09
:102AA00004F17801F6E710B54C2104461DF0C2FB95
:102AB000204610BD10B5782104461DF0BBFB204612
:102AC00010BD10B5A82104461DF0B4FB204610BD72
:102AD00010B5102104461DF0ADFB204610BD10B509
:102AE000102104461DF0A6FB204610BD10B54FF482
:102AF000C26104461DF09EFB204610BD10B5044681
:102B0000006B50B10368DB68984730B1206B0368F5
:102B100021469B68BDE81040184710BD00F1C40273
:102B2000914202D10368DB6A184700F5B672914200
:102B300002D103681B6BF7E700F22442914202D1F5
:102B40000368DB6BF0E700F2CC42914202D10368EC
:102B50009B6BE9E770470B7970B590F82C600446E1
:102B60000D469BB98EB9B3FA83F35B0984F82C3018
:102B700023682046D3F88C309847236820465B6949
:102B8000984716B12B79012B03D070BD002EFCD0D5
:102B9000E9E723682046D3F88830BDE8704018473D
:102BA000036870B55E6B124B1B6804468DB22BB97F
:102BB000104B114A6C2111481DF06AFB1049828D9F
:102BC0000988914203D80F4B0B4A6D21F3E713F8A4
:102BD00012200D4B1B6853F822000368DB6A9847EC
:102BE000281A01B233462046BDE87040184700BF9E
:102BF0003C540120D4220208162302085123020863
:102C000040540120982302084454012000F52A73FF
:102C10008B4210B5044609D10DF0F0FFFFF7AEFC72
:102C2000236820465B6BBDE81040184710BD0022AA
:102C30004FF0FF31C0E900218260704770B5036832
:102C400004461B6B154698472368294620465B6B54
:102C5000BDE8704018470B882DE9F041A0F87830A6
:102C60001388B0F90850A0F87A3004461046904610
:102C700011F0F4F9B4F90A30074603EBD373404678
:102C8000C3F34F0611F01EFA05EBD575C5F34F05DA
:102C900000EBD07007EBD777A6EB6002A5EB6707D8
:102CA00004F17C0039B212B2FFF7C8FF2368204656
:102CB000D3F88C30BDE8F041184770B504461D4686
:102CC000BDF91060FFF7BAFF2368294620469B6BC9
:102CD0009847236831462046DB6BBDE870401847B3
:102CE0000022C0E90122C0E90322C0E90522C0E9AF
:102CF00007224FF480728284014A0260704700BF4D
:102D00001C24020810B52622044600211DF046FCB2
:102D10002046FFF7E5FF044B2360FF2384F82630AD
:102D20000023A362204610BD8C3A020838B5262243
:102D300004460D4600211DF031FC2046FFF7D0FF70
:102D4000064B23602B88E384FF23204684F8283039
:102D500029460BF0A5FA204638BD00BFD03B02083B
:102D600010B52622044600211DF018FC2046FFF76E
:102D7000B7FF0A4B23600A4BA3624FF6FF73A3858C
:102D80004FF47F020023C4E90C324FF0FF32C4E954
:102D900010232387E363204610BD00BFFC390208DF
:102DA0000C1C02081B4B73B51B88018F8B42064617
:102DB0002BD9194B1B682BB9184B194A19486C2190
:102DC0001DF066FA13F81120174B1B6853F82250B8
:102DD000164B186801F054FF2B68019001469B6A5E
:102DE000284698472B6801991B6C0446284698474B
:102DF0002B6801995B6A14FB00F428469847E4B2FB
:102E0000044486F8454002B070BD002380F8453088
:102E1000F9E700BF405401203C540120D4220208AD
:102E2000162302085123020844540120485401206B
:102E30004FF47F4373B50646838540F201130025A6
:102E400083841D4B8562C0E90155C0E90355C0E983
:102E50000555C0E90755056346F8343B044630463E
:102E6000FFF750FF154B63632A46C4E91A55C4E9BE
:102E70001C552566A4F8645029463046FFF7DEFE4F
:102E80003146204607F08AFB0D4B236004F17C0598
:102E90004FF6FF73A4F87830A4F87A3001A92846D9
:102EA000ADF80430FFF742FF2046294607F076FBD5
:102EB000204602B070BD00BF14250208683B02081E
:102EC000B025020810B40367019B436703685DF8EF
:102ED000044BD3F88C30C0E91A1218472DE9F04F93
:102EE0002DED0C8B04468DB00FF08AF9224600259B
:102EF000E74BE56342F8403B104608EE102AFFF727
:102F000001FF04F16C034FF6FF760AA918460CEE98
:102F1000103AADF82860FFF709FF04F198030AA9F9
:102F200018460CEE903AADF82860FFF7FFFE04F16A
:102F3000C403184608EE903AFFF77AFF04F5B6731B
:102F4000184609EE103AFFF773FF04F505731846AB
:102F500009EE903AFFF704FF04F5177318460AEEDE
:102F6000103ACC4FFFF7FCFE04F52A73C4F85C72EC
:102F70001846C4F8A4520AEE903A0BF0C3FA04F5CE
:102F80003C730AA918460DEE103AADF82860FFF719
:102F9000CDFE04F5477318460BEE103AFFF7E0FE3E
:102FA00004F5597304F56C7B18460BEE903AFFF765
:102FB000D7FEC4F86473C4F8AC535846FFF7D0FE8C
:102FC00004F57E730AA9184604F224490DEE903ADE
:102FD00004F2CC48ADF82860FFF7A8FE4846FFF79A
:102FE00027FF04F2745A4046FFF722FF5046FFF7CE
:102FF000B7FEA94BC4F8F035A84BC4F8F835A84B78
:10300000C4F80036A74BC4F80836F02318EE100AAF
:10301000C4F8747500932A464FF4A0732946C4F887
:10302000BC55C4F8F445C4F8FC55C4F80446C4F8CB
:103030000C56FFF742FE4FF07F43A3662A461CEE74
:10304000100A2946FFF7FAFD1CEE100A0AA9ADF88E
:1030500028500BF025F91CEE900A19227621FFF773
:10306000EDFD0AAA4FF0030311461CEE900AADF8DD
:1030700028300BF015F9172305278B4E00932A46AD
:103080002B23294604F1F800FFF717FE874B884AE7
:103090008849009618EE900AA4F82871FFF712FFED
:1030A00018EE900A0AAA09A9ADF82470ADF82870A4
:1030B000FFF7D1FD172318EE900A009331222B233E
:1030C00040F21111C4F84471FFF7F7FD04F5C06335
:1030D0000393C4F8F430172300932A462B23294680
:1030E00004F5D070FFF7E9FD704B714A7149009605
:1030F00019EE100AA4F8D071FFF7E4FE4FF00602B3
:103100000AA8ADF82420ADF8282009A9024619EE36
:10311000100AFFF7A0FD0620C4F8EC0117202B23AE
:103120000090192219EE100A40F21111FFF7C5FDA7
:10313000039AC4F89C2119EE900A1C22292104AE9E
:10314000FFF77CFD4FF0FF3019EE901AC4F84402EF
:10315000A4F8485230460AF095FB96E8070004F5BB
:10316000147383E80700544B0A9319EE900A112355
:103170000AA9ADF82C300AF015FE18202422009080
:103180007C231AEE100A8F21FFF797FDD4F85C32EA
:10319000A4F890524FF0FF30D3F88430C4F88C027A
:1031A0001AEE101A3046984796E8070004F5267381
:1031B00083E8070004F5B863C4F8A4323E4B0A93D1
:1031C0001AEE100A10230AA9A4F8C055ADF82C3045
:1031D0000AF0E8FD1AEE900AB4224E21FFF72EFD08
:1031E0004FF001000DF1280CADF824004FF0020063
:1031F000624609A9ADF828001AEE900A0AF02DFEE1
:103200000F231AEE900AA4F8E032FFF7CBFD04F585
:10321000BE634FF0FF3CC4F8D0328A22C4E9B9CC77
:103220001DEE100A7621FFF709FD0DF1280C4FF075
:1032300003011DEE100AADF8281061460BF030F8BE
:103240008D221BEE100A2921FFF7F8FC4FF0FF3CFE
:1032500030461BEE101AC4F84CC3A4F850530AF0C1
:1032600011FB96E8070004F5567383E807000DF19B
:10327000280C114B0A9361460E231BEE100AADF881
:103280002C300AF08FFD4FF0180C932216E000BF8F
:103290008026020884240208502602080D2C00080B
:1032A000682602081D2B0008996633FF663300FF6D
:1032B000CC9900FF996600FF0C1C02081BEE900AD7
:1032C000CDF800C07C238F21FFF7F7FCD4F86433DE
:1032D000A4F898534FF0FF3C3046D3F88430C4F83C
:1032E00094C31BEE901A984796E8070004F568739C
:1032F00083E8070004F2D4530DF1280CC4F8AC3372
:10330000974B0A9361460D231BEE900AA4F8D455FF
:10331000ADF82C300AF046FD562206215846FFF73C
:103320008DFC4FF0FF3CC4F8E0C330465946A4F88A
:10333000E4530AF0A7FA96E8070004F57B7383E8E4
:1033400007004FF00200ADF82C000AA8844B0A9346
:10335000014658460AF026FD53221DEE900A7621BA
:10336000FFF76CFC4FF003011DEE900AADF828103A
:103370000AA90AF095FF172100912B232A46294616
:1033800004F58B60FFF799FC764B0093A3F13313A0
:10339000A3F54C53744A7549A4F888744846FFF75E
:1033A00091FD0AA90A46484609A9ADF82470ADF86E
:1033B0002870FFF750FC172100912B23692240F25F
:1033C00011114846C4F8A474FFF777FC039AC4F8B7
:1033D0005424172100912B232A46294604F5A06086
:1033E000FFF76BFC5F4B0093A3F13313A3F54C5332
:1033F0005D4A5E49A4F830754046FFF763FD4FF023
:103400000602ADF82420ADF8282009A90AAA4046F2
:10341000FFF721FC0623C4F84C35172300935122F3
:103420002B2340F211114046FFF747FC039BC4F8E1
:10343000FC3418235D2200938F217C235046FFF734
:103440003CFC4FF0FF33C4F8A435D4F87435A4F82D
:10345000A8553046D3F884305146984796E807007F
:1034600004F5B66383E80700414B1B6804F5BD66AD
:103470002BB9404B404A602140481CF009FF404BAB
:103480001B881BB93F4B3C4A6121F5E73E4B29465F
:10349000186801F0F5FB3D4A03460321304610F061
:1034A0006BFB2F4B0A93251D4FF001030AA95046D1
:1034B000C4F8BC65ADF82C300AF074FC18EE101A94
:1034C000284607F06BF81CEE101A284607F066F83D
:1034D0001CEE901A284607F061F818EE901A28465C
:1034E00007F05CF819EE101A284607F057F819EEA5
:1034F000901A284607F052F81AEE101A284607F0DC
:103500004DF81AEE901A284607F048F81DEE101AEA
:10351000284607F043F81BEE101A284607F03EF83D
:103520001BEE901A284607F039F85946284607F04E
:1035300035F81DEE901A284607F030F8494628461F
:1035400007F02CF84146284607F028F8284651464F
:1035500007F024F820460DB0BDEC0C8BBDE8F08FD1
:103560000C1C0208996633FFCC9900FF996600FF96
:103570003C540120D4220208D62302085123020819
:103580004054012098230208485401200E240208C8
:10359000002070478B88838001207047704780F837
:1035A0002C10704710B40368046BD3F8A430624346
:1035B00061435DF8044B1847D0ED0C7A0368F8EED0
:1035C000E77AD3F8A43020EE270AB5EEC00AF1EE70
:1035D00010FA17DBB6EE007A30EE070ABDEEC07ABD
:1035E00017EE101A60EEA70AF5EEC00AF1EE10FA17
:1035F0001CDBF6EE007A70EEA70AFDEEE07A17EE1D
:10360000902A1847BDEEC07AF8EEC76A17EE102A66
:1036100030EE660AF7EE086A30EE260A511EBDEE5D
:10362000C00A10EE102A0A441146DBE7FDEEE07AEC
:10363000B8EEE77A17EE902A70EEC70AB7EE087A6E
:1036400070EE870A013AFDEEE00A10EE90CA94444B
:103650006246D6E710B40368046BD3F8B030624317
:103660005DF8044B1847D0ED0C7A0368F8EEE77A62
:10367000D3F8B03027EE800AB5EEC00AF1EE10FAAA
:1036800008DBF6EE007A30EE270AFDEEC07A17EE80
:10369000902A1847FDEEC07AB8EEE77A17EE902A26
:1036A00030EE470AB7EE087A30EE070A013ABDEE6F
:1036B000C00A10EE10CA94446246EAE710B40368E8
:1036C000446BD3F8BC30624361435DF8044B184748
:1036D000D0ED0D7A0368F8EEE77AD3F8BC3020EE2F
:1036E000270AB5EEC00AF1EE10FA17DBB6EE007A43
:1036F00030EE070ABDEEC07A17EE101A60EEA70A88
:10370000F5EEC00AF1EE10FA1CDBF6EE007A70EE70
:10371000A70AFDEEE07A17EE902A1847BDEEC07AB0
:10372000F8EEC76A17EE102A30EE660AF7EE086A5E
:1037300030EE260A511EBDEEC00A10EE102A0A44D1
:103740001146DBE7FDEEE07AB8EEE77A17EE902A55
:1037500070EEC70AB7EE087A70EE870A013AFDEEFE
:10376000E00A10EE90CA94446246D6E710B40368AB
:10377000446BD3F8C03062435DF8044B1847D0ED7A
:103780000D7A0368F8EEE77AD3F8C03027EE800AA6
:10379000B5EEC00AF1EE10FA08DBF6EE007A30EE74
:1037A000270AFDEEC07A17EE902A1847FDEEC07A80
:1037B000B8EEE77A17EE902A30EE470AB7EE087AAD
:1037C00030EE070A013ABDEEC00A10EE10CA94446A
:1037D0006246EAE7D0F82C31026B002B07DB02EBE4
:1037E000430393FBF2F000EBD070401070476FF092
:1037F000010000FB0320013890FBF2F000EBD070D9
:10380000401040427047D0ED4B7AB8EEE70AD0ED59
:103810000C7AF8EEE77A80EE270A7047D0F82C0190
:103820007047D0F83031026B002B07DB02EB43030B
:1038300093FBF2F000EBD070401070476FF0010086
:1038400000FB0320013890FBF2F000EBD070401039
:1038500040427047D0ED4C7AB8EEE70AD0ED0C7AD2
:10386000F8EEE77A80EE270A7047D0F8300170470B
:10387000D0F83431426B002B07DB02EB430393FBA0
:10388000F2F000EBD070401070476FF0010000FBC9
:103890000320013890FBF2F000EBD0704010404262
:1038A0007047D0ED4D7AB8EEE70AD0ED0D7AF8EE1C
:1038B000E77A80EE270A7047D0F834017047D0F8D5
:1038C0003831426B002B07DB02EB430393FBF2F032
:1038D00000EBD070401070476FF0010000FB032038
:1038E000013890FBF2F000EBD0704010404270477E
:1038F000D0ED4E7AB8EEE70AD0ED0D7AF8EEE77A21
:1039000080EE270A7047D0F83801704770B5036819
:103910000446D3F888300D46164698472368324649
:1039200029462046D3F89030BDE870401847036818
:10393000D3F8943018470368D3F8D4301847036895
:10394000D3F8E03018470368002A10B4D3F8A43045
:10395000046B0EDB04EB420292FBF4F101EBD1713C
:103960004910B0F91E215DF8044B013A0A4449425E
:1039700018476FF0010101FB0241013991FBF4F19D
:1039800001EBD17149104942EBE70368D3F83C31B0
:103990001847026B03685143D3F84831184703684E
:1039A000D3F844311847D0ED0C7A0368F8EEE77A83
:1039B000D3F8483127EE800AB5EEC00AF1EE10FACE
:1039C00008DBF6EE007A30EE270AFDEEC07A17EE3D
:1039D000901A1847FDEEC07AB8EEE77A17EE902AF3
:1039E00030EE470AB7EE087A30EE070A511EBDEEF8
:1039F000C00A10EE102A0A441146EAE7C0F83C114A
:103A000070470368D3F850311847036810B5D3F8EE
:103A10005C31044698470028236B07DB03EB40002A
:103A200090FBF3F000EBD070401010BD6FF001027E
:103A300002FB0030013890FBF3F000EBD070401037
:103A40004042F2E70368D3F858311847036810B5CD
:103A5000D3F85C310446984707EE900AB8EEE70ABF
:103A6000D4ED0C7AF8EEE77A80EE270A10BDD0F894
:103A70003C017047026B03685143D3F86831184723
:103A8000D0ED0C7A0368F8EEE77AD3F8683127EEC8
:103A9000800AB5EEC00AF1EE10FA08DBF6EE007A05
:103AA00030EE270AFDEEC07A17EE901A1847FDEEA9
:103AB000C07AB8EEE77A17EE902A30EE470AB7EEF2
:103AC000087A30EE070A511EBDEEC00A10EE102A29
:103AD0000A441146EAE7C0F840117047036810B580
:103AE000D3F87431044698470028236B07DB03EBB7
:103AF000400090FBF3F000EBD070401010BD6FF071
:103B0000010202FB0030013890FBF3F000EBD070B3
:103B100040104042F2E7036810B5D3F87431044610
:103B2000984707EE900AB8EEE70AD4ED0C7AF8EE63
:103B3000E77A80EE270A10BDD0F84001704703688D
:103B4000026BD3F88431002910B504460EDB02EB7A
:103B5000410191FBF2F101EBD171491009B220460C
:103B60009847D4E94F2302FB003010BD6FF00100ED
:103B700000FB0121013991FBF2F101EBD1714910F8
:103B80004942EBE7006B7047406B70470368D3F81E
:103B9000483118470368D3F85C311847026B036853
:103BA0005143D3F814311847036870B5D3F818514E
:103BB000D3F88031D0F84461044698472B4656F834
:103BC00020102046BDE870401847B0F91C21B0F91C
:103BD0001E31934207DBB0F94C31194491FBF2F0EE
:103BE00002FB101109B2084670474801704780F87F
:103BF0002610704790F82600704710B50022B1F9E2
:103C00000840B1F90A10028042808480C18010BD52
:103C10000022028042808280C2807047C162704769
:103C2000C06A70470120704770477047C06B18B179
:103C30000368D3F880301847704730B5B2F81A11CE
:103C4000B2F91441B2F94050B2F842204480214404
:103C5000521A002101808580C28030BD10B542809B
:103C6000BDF90840BDF90C2004808280C38010BDDE
:103C70000B680846D3F8D43018470B680846D3F8C9
:103C8000E0301847B1F914017047B1F81401B1F8E8
:103C90001A310344B1F84200C01A00B27047B1F9BA
:103CA00016017047B1F81601B1F818310344B1F8A4
:103CB0004000C01A00B270470B680846D3F81431B0
:103CC00011461847B2F8181130B5B2F916510580EF
:103CD0006C18B2F84010B2F94220C280091B0024CF
:103CE0004480818030BD02808380BDF90020BDF911
:103CF00004304280C38070470B680846D3F8EC302C
:103D000018470B680846D3F8F8301847B1F9160180
:103D10007047B1F81601B1F818310344B1F840000A
:103D2000C01A00B27047B1F914017047B1F814011C
:103D3000B1F81A310344B1F84200C01A00B270471A
:103D40000B680846D3F8183111461847704770477A
:103D50007047704770477047704730B4C268446816
:103D60005510034604EB6200D20748BF62599B68B6
:103D700030BC48BFD358184743682BB183682BB970
:103D8000C06800F001007047184670470120704776
:103D900010B5402104461CF04DFA204610BD10B568
:103DA000402104461CF046FA204610BD10B54FF4E1
:103DB0002B6104461CF03EFA204610BD10B54FF4AE
:103DC000107104461CF036FA204610BD10B51021C3
:103DD00004461CF02FFA204610BD10B542F2C45123
:103DE00004461CF027FA204610BD90F82C300BB189
:103DF00006F00DBC704713B503460846D3E90C1412
:103E000003680191D3F88C30984701990246204607
:103E100002B0BDE8104008F043BA13B503460846A7
:103E2000D3E90C1403680191D3F8943098470199B1
:103E30000246204602B0BDE8104008F031BA00004A
:103E40000A1E10B503DBB0F91E41944206DC084B94
:103E5000084A094840F233611CF01AFA0368D0F8A6
:103E60004441D3F88031984754F8200010BD00BF7A
:103E7000C0260208E3260208322702080B1E10B5EE
:103E8000044603DBB0F91E219A4206DC074B084AC0
:103E9000084840F22D611CF0FBF90368D3F8843127
:103EA0009847D4E94F2302FB003010BDC02602081A
:103EB0008F2702083227020800F1CC03994210B57F
:103EC000044605D10CF09AFEBDE81040FEF746BB53
:103ED00000F58A531C33994215D190F8B13D83F017
:103EE000010380F8B13D90F8253183F0010380F89B
:103EF000253100F68C500DF018FE04F58070BDE8F9
:103F000010400DF012BE10BD10B52622044600214F
:103F10001CF044FB2046FEF7E3FE054B2360002324
:103F2000A36284F82C30012384F82430204610BD8D
:103F30001839020837B501AB15460DF098FF002877
:103F40004FEA401401992A464FF0200004DB0DF09F
:103F5000ADFF204403B030BD0DF0A8FF201AF9E7F3
:103F600070B5B0F91441B0F81A516319B0F8425065
:103F7000ED1AD0E94D320E462DB2D21A691EF01A52
:103F8000FFF7D8FF2C44013CC0EB441070BD38B59E
:103F900004460846B4F81831B4F816110B44B4F8C6
:103FA0004010D4E94B52C91A09B2521B0139401BC7
:103FB000FFF7C0FFB4F9163100EB431038BD000025
:103FC00010B5044607F054FD064A22600023012282
:103FD0000A21C4E90C21E36284F83820E363204617
:103FE00010BD00BF8036020870B50023124E8380DA
:103FF000124B0360336893F8762005460AB1D86CFB
:1040000000B998680368DB6A98473368B0FA80F4AF
:10401000D86C640930B10368DB6A9847002808BF90
:1040200044F001042CB9064B064A07482C211CF029
:104030002FF9284670BD00BFE4530120502A020822
:10404000DE2702083C2802087528020810B504463D
:1040500007F00EFD0A4A226000230122C4E90C2366
:10406000084AA2634FF6FF72A2872E22E36284F809
:104070004030A4F84230A4F84420A364204610BD88
:10408000783802080C1C02082DE9F04F2DED108B3A
:10409000044693B00EF0B4F822460026EB4BE663DC
:1040A00042F8403B10460AEE902AFEF72BFE04F140
:1040B0006C0308EE903A4FF6FF78262231461846F8
:1040C000ADF840801CF06AFA18EE900AFEF708FE80
:1040D000DF4BE366BDF84030A4F8923010A918EE2B
:1040E000900A84F894800AF0DBF804F198031846EB
:1040F0000BEE903AFEF706FED64BC4F8983004F16A
:10410000CC031846C4F8C460A4F8C86004F58077EE
:104110000BEE103AFFF7F8FECF4BC4F8CC30A4F802
:10412000FA80A4F8FC8084F8FE804FF416713846BB
:1041300008F052F80123C94DC4F80051C4E98F3684
:1041400004F51473314640F25722C4E991363846DB
:10415000FFF728FAC24BC4F8003104F53B63184658
:10416000A4F84C620DEE103A07F082FC4FF0020208
:10417000BC4B84F8DC2B04F53E62C4F8B03B10461F
:104180000892FFF731FFB84BC4F8E03B03F124027B
:1041900004F6F431C4F8E82B0846C4F8EC6BDFF8F9
:1041A000E4A2DFF8E4920DEE901AFFF709FF04F69F
:1041B0003441C4F8F4AB08460EEE101AFFF700FFC6
:1041C00004F67441C4F8349C08460CEE101AFFF74C
:1041D000F7FE04F6B441C4F874AC08460CEE901A2D
:1041E000FFF7EEFE04F6F441C4F8B49C08460EEE68
:1041F000901AFFF72BFF9D4AC4F8F42C04F5546184
:10420000084604F68C5B0FEE101AFFF71FFF984963
:10421000C4F8401D58463C2107F0DEFF012004F69B
:10422000DC623146C4F88C5DC4F8C80EC4F8D02EE8
:1042300058463B22C4F8CC6EC4F8D46EFFF7B2F9EE
:104240008C4AC4F88C2D04F6CC70A4F8D86E0FEE0E
:10425000900A07F00DFC834BC4F8CC3F4FF00203EB
:1042600084F8F83F04F6FC73184604F5805509936A
:10427000FFF7BAFE7C4BAE6003F12402C4F8FC3FAA
:104280002B4610336A6018460493FFF799FE04F535
:1042900082531033C5F810A018460593FFF790FE1F
:1042A00004F584531033C5F8509018460293FFF775
:1042B00087FE04F586531033C5F890A01846039383
:1042C000FFF77EFE04F588531033C5F8D0901846EA
:1042D0000693FFF7BBFE04F58A536549C5F8101134
:1042E0001C33184609EE103AFFF70EFE624BC5F874
:1042F0005C3104F58C53143304F58E5A0AF11C0A10
:104300001846A5F88A81A5F88C8185F88E81A5F8D4
:10431000908108EE103AFEF723FD5046FEF720FD8F
:1043200004F59153DFF86481C5F8DC810833184641
:10433000C5F8246209EE903AFEF712FD04F5935396
:104340001433C5F828821846C5F870620AEE103A90
:10435000FEF706FD494BC5F87482C5E9BD34484BEC
:10436000C5F8BC6204F59850C5E9BF364FF49651C4
:1043700004300AF083FFF0231AEE900A00933246CD
:104380004FF4A0733146FEF798FC4FF07F436FF077
:10439000160218EE900AA3666FF06C01FEF74EFC51
:1043A0004FF0040318EE900A10A9ADF8403009F060
:1043B00077FFA6231BEE900A009332464FF4A073BA
:1043C0003146FEF77AFC4FF07F434FF001014FF08A
:1043D000FF32C4E9302388461BEE100AA4F8C81047
:1043E000BD22BB21FEF72AFC4FF002011BEE100A92
:1043F000ADF8401010AA0FA9ADF83C8009F02DFDD2
:1044000004F597531433C4F8F43032464FF47A71FC
:1044100038460793FFF77AFA0A2231463846FFF703
:10442000C1F8A623009332464FF4A07331463846B4
:10443000FEF743FC0F230093142205230621384680
:1044400007F07CFE3346324622E000BFC02D020852
:10445000D03B0208683B0208F43A02082C330208F9
:10446000702A0208043602087C3202083837020833
:10447000D83702080C2C020888390208A82D020837
:10448000B93E0008E028020898290208842402089E
:1044900031463846009607F054FDF7EE080AB7EEAD
:1044A000000A3846FFF714F94FF47A72D4F8241C46
:1044B000D4F8280C84F8256107F0F2FE1CEE103ABF
:1044C0004FF47A78DFF8EC94C4F8303C4FF00101F7
:1044D000C4F8248CC4F8209CC4F8288C84F82C1CC4
:1044E00038461DEE901A07F037FD4246D4F8641C9A
:1044F000D4F8680C07F0D4FE4B23C4F8683C1CEEDB
:10450000903A4FF00101C4F8703CC4F8648CC4F8D0
:10451000609C84F86C1C38461EEE101A07F01CFDD7
:104520004246D4F8A41CD4F8A80C07F0B9FE4FF00A
:10453000020384F8AC3C1CEE101AC4F8A48CC4F836
:10454000A09CC4F8A88C384607F006FD4246D4F873
:10455000E41CD4F8E80C07F0A3FE4FF00203962108
:1045600084F8EC3CC4F8E48CC4F8E09CC4F8E81C83
:1045700038461CEE901A07F0EFFC4246D4F8241D92
:10458000D4F8280D07F08CFE4FF004021EEE901AAE
:10459000C4F8248DC4F8288DA4F8302DC4F8209DCB
:1045A000384607F0FDFC4246D4F8701DD4F8740D6F
:1045B00007F076FE96220323C4F8742D4FF0010213
:1045C0001FEE101AC4F8708DA4F87C3DA4F8822D5B
:1045D000C4F86C9D384607F0D1FC089BC4F8D83B62
:1045E0004FF07F424FF0020384F8DC3B1DEE101ABF
:1045F000C4F8EC2B3846A4F8F06B07F0ADFC41464C
:1046000032465846FFF782F9A62200924FF4A07373
:10461000324631465846FEF750FB0F220092334691
:1046200014220621584607F089FD334632463146AA
:104630005846009607F085FCF7EE080AB7EE000A28
:104640005846FFF745F84246D5E9101007F028FE16
:1046500041F288334FF001026B64029BEB64C5E9C1
:104660000F98049985F84820584607F075FC424693
:10467000D5E9201007F014FE4FF4FA734FF0010251
:10468000C5F88430039BC5F88C30C5E91F9805999F
:1046900085F88820584607F05FFC4246D5E930107F
:1046A00007F0FEFD42F21073C5F8C4304FF002036C
:1046B000C5E92F9885F8C8300299584607F04CFC98
:1046C0004246D5E9401007F0EBFD4FF00203C5E983
:1046D0003F9885F808310399C5F80481584607F0DA
:1046E0003BFC4246D5E9501007F0DAFD96220C2338
:1046F000C5F844214FF001020699C5F84081A5F89C
:104700004C31A5F85221C5F83C91584607F036FCCB
:10471000099BAE814FF07F42AA60C4F8F43F4FF08E
:10472000020384F8F83F1FEE901A584607F014FC75
:104730004FF0080819EE100AD3224121FEF77EFA45
:104740004FF0070319EE100A10AA0FA9A5F89081DF
:10475000ADF83C30ADF8408009F07FFB079BC5F811
:104760008431DB2218EE100A0121FEF767FA0DF101
:1047700028094FF07F43484618EE101AC5F8C43197
:10478000A5F8C86109F07EF899E8070018EE103A1C
:104790003C3383E807007E4B109318EE100A0B237E
:1047A00010A9ADF8443009F0FDFA0F23A8220093B8
:1047B000022184235046FEF780FA4FF07F43C5F86C
:1047C0000C32D5F8DC31A5F810624846D3F88430B5
:1047D0005146984799E807000AF13C0383E807002F
:1047E0006C4B1B6804F596592BB96B4B6B4A6021D7
:1047F0006B481BF04DFD6B4B1B88082B03D86A4B95
:10480000664A6121F4E7694B4146186800F038FABE
:10481000674A0346414648460FF0AEF94FF00A0199
:104820005B4AC5F82492ADF84410504610A9109286
:1048300009F0B8FA0F2100918423022119EE900AA1
:10484000B722FEF73AFA4FF07F41C5F858124FF001
:10485000FF31C5E99A164F49A5F85C620B68C5F8A7
:10486000646204F5965909F11009002BBDD04D483A
:104870000388072BC3D94D4B0721186800F000FAB5
:104880004B4A0346414648460FF076F90DF1400C7D
:104890003F4AC5F870920923614619EE900A1092BA
:1048A000ADF8443009F07EFA4FF00F0CCDF800C09F
:1048B000842302211AEE100AC622FEF7FEF93549BA
:1048C000A5F8A8624FF07F4C0B68C5F8A4C24FF062
:1048D000FF3CC5E9ADC6C5F8B06204F59756002B9C
:1048E00083D030480388052B89D9304B05211868BF
:1048F00000F0C6F92E4A03460A2130460FF03CF973
:10490000234AC5F8BC620623251D1AEE100A10A919
:104910001092ADF8443009F045FA1AEE901A284684
:1049200005F03CFE18EE901A284605F037FE1BEE07
:10493000901A284605F032FE1BEE101A284605F0A4
:104940002DFE3946284605F029FE5946284605F031
:1049500025FE19EE101A284605F020FE18EE101A52
:10496000284605F01BFE5146284605F017FE19EEB5
:10497000901A284605F012FE28461AEE101A05F085
:104980000DFE204613B0BDEC108BBDE8F08F00BFCC
:104990000C1C02083C540120D4220208D623020831
:1049A0005123020840540120982302084854012052
:1049B0000E240208C59714FF7047000030B5164D4D
:1049C0002C78BFF35B8F14F001048DB020D1284602
:1049D0001BF032FCE0B13F230793104B0693104BC2
:1049E00005930123CDE90343029304220223CDE979
:1049F00000320C490C4808940A232722CDE90944C7
:104A0000FDF770FF09481BF061FC28461BF020FCF5
:104A100005480DB030BD00BF24450020685602088F
:104A2000EC560208E851020828450020B949000860
:104A30007047000030B5164D2C78BFF35B8F14F033
:104A400001048DB020D128461BF0F6FBE0B13F23D6
:104A50000793104B0693104B05930123CDE90343B5
:104A6000029304220323CDE900320C490C48089438
:104A70000F232622CDE90944FDF734FF09481BF036
:104A800025FC28461BF0E4FB05480DB030BD00BFF7
:104A90005045002084560208F05602080C540208C3
:104AA00054450020314A00087047000030B5154DCC
:104AB0002C78BFF35B8F14F001048DB01FD1284612
:104AC0001BF0BAFBD8B13F2307930F4B06930F4B54
:104AD0000F4910480894CDE9044304220123CDE98D
:104AE0000123009305222823CDE909440394FDF70F
:104AF000F9FE09481BF0EAFB28461BF0A9FB054814
:104B00000DB030BD7C450020D8560208F45602088E
:104B10002056020880450020A94A0008002070475E
:104B2000002070470EB403B503AB002153F8042BEB
:104B300001930CF0D9FE02B05DF804EB03B07047AE
:104B40000CB407B504AB53F8042B01930CF0CCFE66
:104B500003B05DF804EB02B070470000436C10B581
:104B6000044673B3038F2BB9184B194AC021194857
:104B70001BF08EFBC38E00EB43035B8C0BB30EF07C
:104B80004CFA238F012B03D8134B144AC521EEE7AF
:104B9000E28E531C9BB2092B194688BFA3F10A0170
:104BA00004EB410140F63F10498C814209D10A2BA8
:104BB00004EB420228BF002304EB4303508C5884CB
:104BC00051842046BDE810400EF02AB9F02D0208AD
:104BD000F92D0208A42E0208EE2E0208FC2E02086F
:104BE0000EF0E5B810B586B002AC84E806001A46AF
:104BF0000AAB05930193099B00932146089B0BF098
:104C000078FB06B010BD000038B518BB124B134836
:104C10001B681349B3B11A689C681A4402605A6849
:104C20001A440A601C440F4B00221A8000F038F826
:104C3000054600F033F80C4B1C600C4B1D600C4B10
:104C4000188007E00B4B03600B4B0B600B4B1C6891
:104C5000002CE8D138BD00BFA8450020AC4500209D
:104C6000B0450020B44500203C54012044540120AC
:104C70004054012040570208F8560208B058020874
:104C8000044B1B6853F82100034B1B6803EB4000E7
:104C9000704700BFB0450020AC450020122070478F
:104CA00000487047B845002010B5FFF7C3FE044C1C
:104CB0002060FFF7FBFE6060FFF780FEA06010BD84
:104CC000B8450020704710B54FF4AC7104461BF096
:104CD000B1FA204610BD10B50446D0F8540100F0DA
:104CE00013F82046BDE810400BF07CBE10B504461A
:104CF000FDF7F8FB014B2360204610BDD82F0208BA
:104D0000002202607047000070B504460068154D2F
:104D100003689B689847D5F8703A73B1D5F8783A2C
:104D2000012B03D120680368DB689847206803687B
:104D3000DB6898470023C5F8703AD5F8743A33B168
:104D4000206803681B6998470023C5F8743A2068F7
:104D500003685B69984720680368BDE870409B69F9
:104D6000184700BF543A002070477047704770479B
:104D70007047043870477047C06803681B6C184759
:104D8000A0F10400FFF7F8BF10B5102104461BF096
:104D900051FA204610BDA0F10400F5E710B500223D
:104DA0008260044AC16002F1080424320460426057
:104DB00010BD00BF1C30020870477047044B1A68D2
:104DC000044B9A6001221A61034A1268DA60704744
:104DD00018000020543A0020140000200B4B1A68E1
:104DE00010B50A32B2F5C87FC8BF4FF4C8721A6056
:104DF00004461B68064A0A2100F5B8600EF0BCFEA6
:104E000004F51770BDE810400CF08FBE18000020AC
:104E10005C3002080A4B1A6810B50A3A092AD8BF52
:104E20000A221A6004461B68064A0A2100F5B86087
:104E30000EF0A2FE04F51770BDE810400CF075BE30
:104E4000180000205C3002080A4B1A6810B50132C5
:104E50000A2AC8BF0A221A6004461B68064A0321B0
:104E600000F5BD600EF088FE04F27450BDE81040FD
:104E70000CF05BBE140000205C3002080A4B1A687C
:104E800010B5013A002AD8BF01221A6004461B68F7
:104E9000064A032100F5BD600EF06EFE04F2745068
:104EA000BDE810400CF041BE140000205C30020848
:104EB000FDF78DBD13B5094B094A1B6801930446E4
:104EC00001AB0A2100F2D4500FF012F804F559702A
:104ED00002B0BDE810400CF028BE00BF543A0020DC
:104EE0005F30020810B54FF4C26104461BF0A2F90E
:104EF000204610BD10B50446FDF7F0FF074B2360B8
:104F0000074B084A1B680A2104F5B8600EF034FE0E
:104F100004F517700CF009FE204610BD6C30020835
:104F2000180000205C300208704770470438704752
:104F30007047C06803681B6B1847A0F10400FFF7B7
:104F4000F8BFC06803685B6B1847A0F10400FFF767
:104F5000F8BFC06803689B6B1847A0F10400FFF717
:104F6000F8BFC0680368DB6B1847A0F10400FFF7C7
:104F7000F8BF10B5102104461BF05CF9204610BDA7
:104F8000A0F10400F5E7000010B500228260044A99
:104F9000C16002F1080430320460426010BD00BFFD
:104FA000B030020870477047034603F55C63174A48
:104FB000D3ED007A92ED007AF8EEE77A00F68C50A5
:104FC00067EE877AF5EEC07AF1EE10FA09DBB6EEFD
:104FD000007A77EE877AFDEEE77A17EE901A07F0FF
:104FE000B9B9BDEEE77AF8EEC76A17EE103A77EE78
:104FF000E67AF7EE086A77EEA67A591EFDEEE77AB2
:1050000017EE903A0B441946E9E700BF543A0020E6
:10501000114B13B5D3F8782A104904464FF4616355
:105020006FF03B0092FBF3F301FB03223C2192FB68
:10503000F1F100FB0122CDE9001204F59750084A76
:105040000A210EF099FD04F59350143002B0BDE82A
:1050500010400CF06ABD00BF543A0020F0F1FFFF91
:10506000FC30020810B542F2C45104461BF0E2F8CD
:10507000204610BD10B50446FEF769FE04F58052C7
:10508000D2ED507A9FED8F6AF8EEE77A67EE867A76
:10509000F5EEC07AF1EE10FAC0F29B80B6EE007A1F
:1050A00077EE877AFDEEE77A17EE903AD2ED407A06
:1050B000F8EEE77A002B67EE867AB8BF5B42F5EE32
:1050C000C07AF1EE10FAC2F84431C0F29680B6EE22
:1050D000007A77EE877AFDEEE77A17EE903AD2ED16
:1050E000207ADFED795AF8EEE76A002B66EEA56AC2
:1050F000B8BF5B42F5EEC06AF1EE10FAC2F80431B7
:10510000C0F28F80F6EE007A76EEA76AFDEEE67AC0
:1051100017EE903A002BB8BF5B42C2F88430D4F847
:10512000703D07EE903AF8EEE76A66EE866AF5EEB5
:10513000C06AF1EE10FAC0F28880F6EE007A76EEE0
:10514000A76AFDEEE67A17EE903A002BB8BF5B42F5
:10515000C4F8743DD4F8E43C07EE903AB8EEE77A30
:1051600027EE067AB5EEC07AF1EE10FAC0F2818031
:10517000F6EE007A37EE277AFDEEC77A17EE903A10
:10518000002BB8BF5B42C4F8E83CD4F8643C07EE9F
:10519000903AF8EEE77A67EEA57AF5EEC07AF1EE8E
:1051A00010FA7ADBB6EE007A77EE877AFDEEE77AD0
:1051B00017EE903A002BB8BF5B4204F68C50C4F84F
:1051C000683C0CF0B2FC04F58070BDE810400CF0B7
:1051D000ACBCBDEEE77AF8EEC76A17EE103A77EE90
:1051E000E67AF7EE086A77EEA67A013BFDEEE77AFB
:1051F00017EE901A19440B4658E7BDEEE77AF8EE21
:10520000C76A17EE103A77EEE67AF7EE086A77EE9D
:10521000A67A013BFDEEE77A17EE901A19440B4689
:105220005DE7BDEEE67AF8EEC77A17EE103A76EE55
:10523000E76AF7EE087A76EEA76A013BFDEEE66ACA
:1052400016EE901A19440B4664E7BDEEE67AF8EEC6
:10525000C77A17EE103A76EEE76AF7EE087A76EE3E
:10526000A76A013BFDEEE66A16EE902A1A44134641
:105270006BE7FDEEC76AF8EEE67A16EE903A37EE87
:10528000677AF7EE087A37EE277A013BBDEEC77AE8
:1052900017EE102A1A44134672E7BDEEE77AF8EECD
:1052A000C76A17EE103A77EEE67AF7EE086A77EEFD
:1052B000A67A013BFDEEE77A17EE902A1A441346D0
:1052C00078E700BFCDCCCC3DCDCC4C3D37B5114DB2
:1052D000114A2B680193044601AB082100F5965052
:1052E0000EF006FE6B680C4A019304F5965001AB74
:1052F000082110300EF0FCFD04F5915008300CF040
:1053000014FC04F58E501C3003B0BDE830400CF0A6
:105310000CBC00BF543A00205F30020870B5444D09
:10532000D0ED4D7AD5F8783A3C2293FBF2F3063370
:1053300005EB830393ED007AF8EEE77A044667EE17
:10534000877A00F58076F5EEC07AF1EE10FA5BDB35
:10535000B6EE007A77EE877AFDEEE77A17EE901ACE
:10536000304606F0F7FFD5F8783AB3F5077F23DD2E
:10537000D5F8782A40F6D3539A421DDC3C2200210E
:105380003046FEF70FF9D4F8A42CD4F8243D0A21B6
:105390004A43002AB8BF5242C4F8A82CD4F8242C9F
:1053A00052004B43002AB8BF5242002BB8BF5B42A9
:1053B000C4F8282CC4F8283DD5F8782A40F6D453F0
:1053C0009A4220DDEA683C256A4300213046FEF718
:1053D000E9F8D4F8A42C6A43002AB8BF5242C4F8B2
:1053E000A82CD4F8242C0A235A43D4F8243D002AAC
:1053F00005FB03F3B8BF5242002BB8BF5B42C4F8B1
:10540000282CC4F8283D70BDBDEEE77AF8EEC76AD7
:1054100017EE103A77EEE67AF7EE086A77EEA67A9C
:10542000591EFDEEE77A17EE903A0B44194697E7BE
:10543000543A002010B50446FEF726FE014B2360C7
:10544000204610BD14310208F02070474FF4A070C0
:1054500070472920FCF756BA2820FCF753BA08B544
:10546000FCF724FACA20FCF74DFAC320FCF72EFA09
:105470000820FCF72BFA5020FCF728FACF20FCF785
:1054800041FA0020FCF722FAC120FCF71FFA302075
:10549000FCF71CFAED20FCF735FA6420FCF716FA4D
:1054A0000320FCF713FA1220FCF710FA8120FCF716
:1054B0000DFAE820FCF726FA8520FCF707FA002011
:1054C000FCF704FA7820FCF701FACB20FCF71AFA73
:1054D0003920FCF7FBF92C20FCF7F8F90020FCF749
:1054E000F5F93420FCF7F2F90220FCF7EFF9F72088
:1054F000FCF708FA2020FCF7E9F9EA20FCF702FAA9
:105500000020FCF7E3F90020FCF7E0F9B120FCF7FC
:10551000F9F90020FCF7DAF91B20FCF7D7F9B620DF
:10552000FCF7F0F90A20FCF7D1F9A220FCF7CEF93C
:10553000C020FCF7E7F91020FCF7C8F9C120FCF700
:10554000E1F91020FCF7C2F9C520FCF7DBF9452092
:10555000FCF7BCF91520FCF7B9F9C720FCF7D2F924
:105560009020FCF7B3F93620FCF7CCF9C820FCF703
:10557000ADF9F220FCF7C6F90020FCF7A7F9B0203E
:10558000FCF7C0F9C220FCF7A1F9B620FCF7BAF984
:105590000A20FCF79BF9A720FCF798F92720FCF7D5
:1055A00095F90420FCF792F92A20FCF7ABF90020CA
:1055B000FCF78CF90020FCF789F90020FCF786F94C
:1055C000EF20FCF783F92B20FCF79CF90020FCF777
:1055D0007DF90020FCF77AF90120FCF777F93F20EC
:1055E000FCF774F9F620FCF78DF90120FCF76EF951
:1055F0000020FCF76BF90620FCF768F92C20FCF77B
:1056000081F9C820FCF7CCF92620FCF77BF90120B2
:10561000FCF75CF9E020FCF775F90F20FCF756F970
:105620002920FCF753F92420FCF750F90C20FCF753
:105630004DF90E20FCF74AF90920FCF747F94E20F6
:10564000FCF744F97820FCF741F93C20FCF73EF9DF
:105650000920FCF73BF91320FCF738F90520FCF78B
:1056600035F91720FCF732F91120FCF72FF900204B
:10567000FCF72CF9E120FCF745F90020FCF726F9AE
:105680001620FCF723F91B20FCF720F90420FCF777
:105690001DF91120FCF71AF90720FCF717F9312042
:1056A000FCF714F93320FCF711F94220FCF70EF94E
:1056B0000520FCF70BF90C20FCF708F90A20FCF791
:1056C00005F92820FCF702F92F20FCF7FFF80F203E
:1056D000FCF7FCF81120FCF715F9C820FCF760F97D
:1056E0002920FCF70FF9BDE808402C20FCF70AB987
:1056F00008B5FCF7DBF80321D320FCF71FF980B2D3
:1057000008BD10B5C4B2022203212046FCF784F87C
:105710000A20FCF7C9F8204600220321FCF77CF898
:10572000BDE810400220FCF7BFB838B50446E4B22B
:10573000FCF770F800212046FCF786F801210546A9
:105740002046FCF781F840EA052080B238BD10B54C
:10575000C4B240212046FCF777F8030607D54C2158
:105760002046FCF771F8003818BF012010BD012257
:105770004B212046FCF750F8204600224B21FCF735
:105780004BF80020F2E773B50423C4B20E46154669
:10579000D7210DEB03022046FCF770F8019B1BBAE2
:1057A0001A0DC3F30B23328020462B8001224B219C
:1057B000FCF732F800224B212046FCF72DF802B00E
:1057C00070BD000010B50A4B1A78904204460DD007
:1057D000597888420AD00AB141B901229C54FCF799
:1057E00019F82046BDE81040FFF78BBF10BD00BF81
:1057F000C445002010B5C4B209212046FCF724F8A6
:1058000040F00100C2B209212046BDE81040FCF77B
:1058100003B810B5C4B209212046FCF715F80921D8
:1058200000F0FE022046BDE81040FBF7F5BF38B59A
:10583000C4B20D4620460A21FCF706F82843C2B23E
:105840000A212046BDE83840FBF7E6BF07B50190C6
:10585000FBF7E1FF01981F21FFF7E9FF019803B073
:105860005DF804EBFFF7C6BF38B5C4B20D4620465D
:105870000A21FBF7E9FF20EA0500C2B20A2120460F
:10588000BDE83840FBF7C8BF10B50446FFF7C1FFBD
:1058900020461F21BDE81040FFF7E6BF10B5C0B29B
:1058A0000C460B21FBF7D0FF204010BD1F21FFF756
:1058B000F5BF0A46C0B20B21FBF7AEBF1F21FFF7B1
:1058C000F8BF38B5C4B20D4620461721FBF7BCFF20
:1058D00020EA0500C2B217212046BDE83840FBF798
:1058E0009BBF70B5C4B2064604212046FBF7ACFF4F
:1058F000042100F0FB0205462046FBF78DFF3046F1
:10590000F021FFF7DEFF05F0F80220460421FBF747
:1059100083FF492220212046FBF77EFF0220FBF770
:10592000C3FF204601222121FBF776FF20469A2261
:105930004121FBF771FF204601224A21FBF76CFF52
:10594000204601224B21FBF767FF204600224B2116
:10595000FBF762FF204601225621FBF75DFF204640
:1059600001225821FBF758FF204601224021FBF776
:1059700053FF2046FF220B21FBF74EFFBDE870408E
:105980000220FBF791BF0000054BD3F8882042F4BA
:105990007002C3F888204FF000629A60704700BF21
:1059A00000ED00E008B50B4B1A6842F400721A6073
:1059B0001A6842F480621A601A6842F480721A60AF
:1059C000032000F037FA0020FCF7A8FAFCF702F8F1
:1059D000002008BD003C0240034A044B11681B78BC
:1059E0000B441360704700BFC845002080000020B2
:1059F000014B1868704700BFC845002038B5044601
:105A0000FFF7F6FF631C1CBF054B1B78054618BF4C
:105A1000E418FFF7EDFF431BA342FAD338BD00BFE4
:105A20008000002038B50446002800F09B80056CFB
:105A300025B9FBF7EFFF656484F83C50236CDB0667
:105A400000F18E80236C23F4885323F0020343F08B
:105A500002032364444B5A6822F440325A605A6865
:105A600061680A435A60236821695A6822F4807287
:105A70005A605A6842EA01225A605A68A16822F0C4
:105A800040725A605A680A435A609A68E16822F480
:105A900000629A609A680A439A603449A26A8A420C
:105AA00052D0996821F07061996099680A439A60B0
:105AB0009A68E16A22F040529A609A680A439A60B2
:105AC0009A6822F002029A609A68217E42EA4102B4
:105AD0009A6094F82020002A3ED05A68616A42F405
