:020000040800F2
:100000000000032095050008851F0008871F0008D1
:10001000891F00088B1F00088D1F000800000000CA
:10002000000000000000000000000000D180000877
:100030008F1F00080000000061810008C5810008D2
:10004000E5050008E5050008E5050008E5050008E8
:10005000E5050008E5050008E5050008E5050008D8
:10006000E5050008E5050008E5050008E5050008C8
:10007000E5050008E5050008E5050008E5050008B8
:10008000E5050008E5050008E5050008E5050008A8
:10009000E5050008E5050008E5050008E505000898
:1000A000E5050008E5050008E5050008E505000888
:1000B000E5050008E5050008E5050008E505000878
:1000C000E5050008E5050008E5050008E505000868
:1000D000E5050008E5050008E5050008E505000858
:1000E000E5050008E5050008E5050008E505000848
:1000F000911F0008E5050008E5050008E505000872
:10010000E5050008E5050008E5050008E505000827
:10011000E5050008E5050008E50500089D1F000845
:10012000E5050008E5050008E5050008E505000807
:10013000E5050008E5050008E5050008E5050008F7
:10014000E5050008E5050008E5050008E5050008E7
:10015000E5050008E5050008E5050008E5050008D7
:10016000E5050008E5050008E5050008E5050008C7
:10017000E5050008E5050008E505000800000000A9
:10018000E5050008E5050008E5050008E5050008A7
:10019000E5050008E5050008E5050008E505000897
:0C01A000A91F0008E5050008B51F0008B5
:1001B00010B5054C237833B9044B13B10448AFF3A1
:1001C00000800123237010BD6801002000000000A2
:1001D0003007020808B5034B1BB103490348AFF3CE
:1001E000008008BD000000006C01002030070208FC
:1001F00001F0FF01102A2BDB10F0070F08D010F8D8
:10020000013B013A8B422DD010F0070F42B3F6D1DB
:10021000F0B441EA012141EA014122F007047FF0F4
:1002200000070023F0E80256083C85EA010586EA4B
:10023000010685FA47F5A3FA87F586FA47F6A5FA87
:1002400087F68EB9EED1F0BC01F0FF0102F0070293
:1002500032B110F8013B013A83EA010313B1F8D13E
:100260000020704701387047002D06BF354603381F
:10027000073815F0010F07D1013015F4807F02BF58
:10028000013015F4C03F0130F0BC0138704700BFA9
:1002900053B94AB9002908BF00281CBF4FF0FF31ED
:1002A0004FF0FF3000F074B9ADF1080C6DE904CEE9
:1002B00000F006F8DDF804E0DDE9022304B0704741
:1002C0002DE9F047089D04468E46002B4DD18A4209
:1002D000944669D9B2FA82F252B101FA02F3C2F13C
:1002E000200120FA01F10CFA02FC41EA030E9440CD
:1002F0004FEA1C48210CBEFBF8F61FFA8CF708FBEE
:1003000016E341EA034306FB07F199420AD91CEBC5
:10031000030306F1FF3080F01F81994240F21C81F7
:10032000023E63445B1AA4B2B3FBF8F008FB10333F
:1003300044EA034400FB07F7A7420AD91CEB040474
:1003400000F1FF3380F00A81A74240F20781644444
:10035000023840EA0640E41B00261DB1D4400023C9
:10036000C5E900433146BDE8F0878B4209D9002D2D
:1003700000F0EF800026C5E9000130463146BDE8B7
:10038000F087B3FA83F6002E4AD18B4202D3824221
:1003900000F2F980841A61EB030301209E46002DD0
:1003A000E0D0C5E9004EDDE702B9FFDEB2FA82F225
:1003B000002A40F09280A1EB0C014FEA1C471FFA83
:1003C0008CFE0126200CB1FBF7F307FB131140EA6A
:1003D00001410EFB03F0884208D91CEB010103F137
:1003E000FF3802D2884200F2CB804346091AA4B2F9
:1003F000B1FBF7F007FB101144EA01440EFB00FECD
:10040000A64508D91CEB040400F1FF3102D2A64531
:1004100000F2BB800846A4EB0E0440EA03409CE7D0
:10042000C6F12007B34022FA07FC4CEA030C20FA7D
:1004300007F401FA06F31C43F9404FEA1C4900FA9D
:1004400006F3B1FBF9F8200C1FFA8CFE09FB18111A
:1004500040EA014108FB0EF0884202FA06F20BD98D
:100460001CEB010108F1FF3A80F08880884240F2DD
:100470008580A8F102086144091AA4B2B1FBF9F021
:1004800009FB101144EA014100FB0EFE8E4508D91C
:100490001CEB010100F1FF346CD28E456AD90238A1
:1004A000614440EA0840A0FB0294A1EB0E01A14286
:1004B000C846A64656D353D05DB1B3EB080261EBF4
:1004C0000E0101FA07F722FA06F3F1401F43C5E9CE
:1004D000007100263146BDE8F087C2F12003D84004
:1004E0000CFA02FC21FA03F3914001434FEA1C4746
:1004F0001FFA8CFEB3FBF7F007FB10360B0C43EA38
:10050000064300FB0EF69E4204FA02F408D91CEBE7
:10051000030300F1FF382FD29E422DD902386344E5
:100520009B1B89B2B3FBF7F607FB163341EA034185
:1005300006FB0EF38B4208D91CEB010106F1FF38D4
:1005400016D28B4214D9023E6144C91A46EA0046CB
:1005500038E72E46284605E70646E3E61846F8E65D
:100560004B45A9D2B9EB020864EB0C0E0138A3E7A6
:100570004646EAE7204694E74046D1E7D0467BE787
:10058000023B614432E7304609E76444023842E7FF
:10059000704700BFDFF834D0002103E00C4B5B58FC
:1005A000435004310B480C4B42189A42F6D30B4A85
:1005B00002E0002342F8043B094B9A42F9D304F0CD
:1005C0005BFD1FF0D9F800F0F3FE70470000032038
:1005D000C47B0A0800000020680100206801002098
:1005E00010780120FEE700F039BC00F0A9BC70478C
:1005F00010B5042104461EF051FF204610BD000036
:1006000038B50C4B0C4C18800C4B82201980636859
:10061000984740F6110398420AD1094D23682C608F
:10062000822098472B688220DB689847002038BDDD
:100630000120FCE7840100205000002086010020FA
:10064000880100204FF4A071F020FFF7D9BF00000F
:10065000F7B52D4D2B6804461B698220984780B260
:100660002080002843D02B680DF106025B6901A9A8
:1006700082209847BDF80620A2F5B47292B20A2AE9
:1006800037D90B23B2FBF3F2204B1B889A4201D9D6
:10069000013B9AB2BDF8043040F6B8318B422AD8FB
:1006A000C3F571630E339BB20F21B3FBF1F318490D
:1006B00009888B4201D94B1E9BB2164E164D3068ED
:1006C0002F68834281B28CBF591AC91AB8B2BA4294
:1006D0008CBF101A801A89B280B201440529C8BFA4
:1006E00033603368C8BF2A6063802B68A38003B07F
:1006F000F0BD0022CEE7C3F56D6308339BB20E2B2D
:10070000D2D80023D9E700BF88010020860100204D
:10071000840100208C0100209001002037B568463C
:100720000D461446FFF794FFBDF8000030B1BDF848
:1007300002302B60BDF804302360012003B030BDCF
:10074000704770477047012380F8741080F8753047
:100750007047002070470000034B4164003918BF08
:1007600001211970704700BF637501200020704798
:10077000836B0BB10846184770474FF6FF70704700
:10078000406803689B69184770477047704700F0DE
:1007900077BC08B503680446D3F8803098472368CF
:1007A00020469B6F984700F0EBF8236820461B6FAC
:1007B0009847292001F09CF800F0E2F823682046D1
:1007C0001B6F9847F8E710B504460AF08BFA2368C8
:1007D0002046D3F8AC30BDE81040184700F042BCCA
:1007E00000F046BC00F072BC00F018BC00F072BC17
:1007F00000F07ABC00F01CBC09F0E8BC10B57C210C
:1008000004461EF04BFE204610BD90F877301BB119
:10081000406803681B6818471846704710B590F881
:10082000341090F874400C4B8C421A7809D03AB9C5
:100830000A4A0B491488088810800C8001221A701B
:1008400010BD002AFCD0054A05491488088810808C
:100850000C800022F3E700BF5C7501205875012071
:100860005A75012070B50D46194635B9094B0A4A2B
:100870000A4840F2D2211EF03FFEC0E90F52084B59
:10088000003A18BF01221A700368BDE87040D3F81F
:100890008C301847A0070208D8070208260802086B
:1008A0006275012008B5094B1B888B4203D8084BA1
:1008B0001B88934205D9074B074A08489E211EF022
:1008C0001BFE074B1980074B1A8008BD5875012085
:1008D0005A7501206B080208CE0802082608020893
:1008E0005E75012060750120012108B500220846CF
:1008F00007F0C2F80A4B186028B90A4B0A4A2921A6
:100900000A481EF0F9FD00220421012007F07AF9BF
:10091000074B186018B9074B034A2D21F0E708BDB3
:1009200098010020EC090208350A0208640A02084E
:1009300094010020B20A0208024B4FF0FF31186800
:1009400007F0F0B898010020014B186807F024B9AF
:1009500098010020024B0021186807F0E3B800BF9F
:1009600098010020FFF7F0BF034804490068002306
:100970001A4607F08DB900BF940100200400002042
:1009800013B5084C00231A4601A9206807F0C2F9E4
:1009900020684FF0FF33002201A907F0BBF902B035
:1009A00010BD00BF9401002003685B6C1847012054
:1009B000704703689B6A184782B0002301930D4B70
:1009C0001A6B42F400021A631A6B02F400020192DD
:1009D000019A1A6942F400021A611A6922F40002AB
:1009E0001A61054B054A1A61054B4FF080629A6007
:1009F00002B0704700380240BC2B0020450A0008B6
:100A000000E100E040F2EF3070470000054B03606A
:100A1000054B4FF08062C3F88820BFF34F8FBFF3C0
:100A20006F8F7047500C020800E100E010B50446DB
:100A30004FF45A61FFF7EAFF20461EF02FFD2046D3
:100A400010BD0000024B1B68586803685B691847BB
:100A50006475012070B5044625460A4B0C3000260B
:100A600060602672667245F8203B602229460AF0D3
:100A70008FFA04F55A63EE602435AB42FBD1204671
:100A800070BD00BF500C020808B50B290BD8DFE879
:100A900001F01206100A0A0A0A08080808080120CC
:100AA00008BD0520FCE7054B054A064867211EF0F6
:100AB00023FD0020F4E70220F2E700BFF40A020859
:100AC0000F0B0208590B020808B50A2909D8DFE8FC
:100AD00001F010060E0808080806060606000120A8
:100AE00008BD054B054A064888211EF005FD00207B
:100AF000F6E70220F4E700BFF40A0208A50B02089B
:100B0000590B02082DE9F8434F7F0C4639468146C0
:100B1000FFF7BAFF94F81E80054641464846FFF7A6
:100B2000B3FF414606464846FFF7CEFFA18A628BD7
:100B3000424B521A1A649A61228B521A1A61E28A43
:100B4000586342EA01425A6420696268D863DA60F5
:100B5000216894F81CC080294FEA0C6226D010D876
:100B6000202945EA020461D040295FD004295DD0E4
:100B7000324B2A4342F400324745DA615AD0304AB8
:100B800040E0B1F5807F07D0B1F5007FF0D142F4AD
:100B9000003242F0090203E042F4003242F00A025D
:100BA000DA61E2681A625E6258612AE0A4682A4348
:100BB00042F40032211DD962DA6122785E62586106
:100BC00042B1012A21D01F4B1F4A20484FF489719E
:100BD0001EF092FCDA69618822F47F42013922F02A
:100BE000100242EA0122DA610120144BDA6942F074
:100BF0002002DA61DA699206FCD410229A60002899
:100C0000BDD0134A1A60BDE8F8836288D969541EC2
:100C100021F47F4222F0100242EA0422BCF1FF00DC
:100C200042F0100218BF0120DA61DEE744F400341C
:100C3000DC61B8E740F20122E4E700BF00B0024007
:100C400001020100F00B02080A0C0208590B02080D
:100C50000102020070B50C46897FFFF735FFA68AB6
:100C6000E18A628B154B2569586341EA0641921B64
:100C70005964DD631A642668E168082E0DD19A6113
:100C80001A615862207F0E4A42EA0062DA610D4A18
:100C900019625D61DD601A6070BD0022D8611A6161
:100CA00048090A0A02F4784200F4FC600243C1F3E6
:100CB000C4010A439A63044AEDE700BF00B0024052
:100CC000090001000102020001020300034B1A683F
:100CD000D207FCD423229A60704700BF00B00240C4
:100CE00030B50F4C2568ED07FCD423250904A56019
:100CF00041F001010225FF2B65636164E0630AD0C6
:100D00000849656241EA0363E361074B226260615F
:100D1000E060236030BDE561039BA363034BF8E70C
:100D200000B00240090001000100020001000300C0
:100D30000120704738207047382303FB010008303A
:100D40007047382303FB01000830704701207047CB
:100D500041F63810704741F6381303FB01000830A4
:100D6000704741F6381303FB01000830704701203B
:100D700070471020704700EB01100830704700EBFF
:100D8000011008307047084601F0CEBB10B5034B88
:100D90000360044608F067FF204610BD080D0208F6
:100DA00010B50446FFF7F2FF204640211EF076FB07
:100DB000204610BD10B5034B0360044608F053FFF6
:100DC000204610BDD40C020810B50446FFF7F2FF10
:100DD00020464FF4CA511EF061FB204610BD0000B2
:100DE00010B5034B0360044608F03DFF204610BDDC
:100DF000A00C020810B50446FFF7F2FF20461821A8
:100E00001EF04CFB204610BD10B5094B0360044694
:100E100000F5CB500C30FFF7B9FF04F12C00FFF7C1
:100E2000C9FF04F11400FFF7DBFF204610BD00BF2F
:100E30003C0D020808B50248FFF7E6FF08BD00BFF9
:100E4000A001002010B50446FFF7DEFF204641F662
:100E500008311EF023FB204610BD00002DE9F341B0
:100E600001F01CF9054601F01DF900240146234656
:100E700028462246009412F011FA264B264A274DA6
:100E80001A60204603F0E6FB254812F06FF92B7834
:100E9000BFF35B8FDB0737D428461EF001FB98B306
:100EA000204C214B236004F12C0808F5CA5707F1A8
:100EB000440604F114006060C4F80880E76026610D
:100EC00008F0D2FE194B6361404608F0CDFE184B86
:100ED000E362384608F0C8FE04F58053154AC3F8AB
:100EE0006C2903F6AC1003F031FC224608F5CC5116
:100EF000304603F021FC304601F016FB0E481EF090
:100F000019FB28461EF0D8FA0C4802B0BDE8F041A3
:100F1000FFF73DBCC8750120C82A00209C010020B5
:100F200008000020A00100203C0D0208A00C0208CF
:100F3000D40C0208080D0208350E00084C2A0020C7
:100F40000148FFF726BC00BF4C2A002070B5234C97
:100F5000234E244B244D23603046FFF77BFD28466B
:100F600015F0A6FA214B2248DC60224C03600022D7
:100F7000F0204FF480712080C3E912121E4C1F49EB
:100F80002080C3E919121E4C1A864FF080714FF46D
:100F9000A07059670121C3E90422C3E90622C3E90D
:100FA0000822C3E90A22C3E90E22C3E91022C3E9D9
:100FB0001422C3E916221A6683F86C201A67C3E963
:100FC000016583F8781020800E4C83F8341020805F
:100FD0000D4802700D4A1A6070BD00BFA81C0020A9
:100FE000AC1C002090070208CC2A00204C2A0020CC
:100FF00064750120587501205E7501200100000113
:101000005A750120607501205C7501201C090208D9
:101010000148FFF7FBBC00BFAC1C0020034B902233
:1010200083F85A2383F85823704700BF00E100E09B
:10103000094A0A49D3680A48C3F30A03013B9BB231
:101040000B801169C1F30A01013901801364536BEC
:1010500043F001035363704700680140482B0020B0
:10106000462B0020014BD3F8AC00704700680140CC
:10107000024B0122C3F8AC105A627047006801406D
:1010800070B5044609F0F7F823685D6E0EF0EAFECD
:1010900001462046A8472368054AD3F888502046D1
:1010A000AC460023BDE87040A2F51631604700BF92
:1010B000005802D009F0C6B890F84B3013B1024B7B
:1010C00001221A7009F0CAB8442B002009F084B834
:1010D00009F0DDB9034B4FF080629A604FF08072E7
:1010E0009A60704700E100E0084B4FF08062C3F85F
:1010F0008820BFF34F8FBFF36F8F4FF08072C3F81C
:101100008820BFF34F8FBFF36F8F704700E100E07F
:1011100010B5144C236823B3134B144A1B6C11886D
:101120008B4213D1124B198805F094FA226892F879
:101130006630013382F86630FFF716FC206809F04C
:10114000D1FDBDE810400020FFF7FABA05F082FAA1
:10115000206803681B6A9847BDE810400020FFF72D
:10116000F0BA10BD6475012000680140482B0020D2
:10117000462B002007B5064BADF806001B68054856
:1011800001220DF1060105F076FF03B05DF804FBC6
:10119000100000202C2D00200C4982B0002303F603
:1011A000146201EB820292ED017ADDED017A0133E6
:1011B00077EE877A0A2BCDED017AF0D19DED010A09
:1011C000F2EE047A80EE270A02B07047C42D0020A8
:1011D0002DE9F041404C04F54055D5F88038002BFE
:1011E00069D000233D48C5F880383D4F3D4E04F09E
:1011F00037F84FF0FF31394804F0A6F8374804F0CB
:10120000F2F83A68336801320A2118443A6092FBD6
:10121000F1F301FB13223060002A4CD13368B3FB99
:10122000F1F307EE903A9FED307AF8EEE77A67EE49
:10123000877A9FED2E7A67EE877AC4ED007AE368AD
:10124000B3B3D5F88838DFF8AC80002BDCBF236857
:10125000636194ED007AD4ED017AB4EEE77AF1EEB1
:1012600010FAC4BF23686360D5F888380133C5F825
:1012700088380123C5F88438D8F8003021685A1C12
:1012800003F6146304EB8303092AC8F800205960AD
:101290000EDD0A23D5F8880890FBF3F0FFF77CFFFA
:1012A000043004EB8000002380ED010AC8F8003010
:1012B00000233B603360E668012E08D1226932B911
:1012C0000B4840F25553102104F0EFF9266101203C
:1012D00006F0B8FB81E700BFC42D0020582B00208A
:1012E0005066002058660020333353400000803998
:1012F000A82B002054660020F0B5A1B010220021D8
:101300000AA81EF07FFA1422002103A81EF07AFA20
:101310000021302214A81EF075FA0024224B0194FB
:101320001A6C42F080521A641B6C03F080530193D4
:10133000019B1E4B02941A6842F440421A601B68DB
:1013400003F4404302930122029B4FF48033CDE922
:10135000082302254FF48003CDE90E5308274FF4EC
:10136000A873042608A8CDE910731295139605F00A
:101370008FF90F23CDE903354FF4A0514FF480537B
:10138000CDE9061303A80521059405F059FBC023F8
:10139000189314A84FF4003314971A961D9305F070
:1013A00029FC21B0F0BD00BF0038024000700040B1
:1013B0002DE980489BB003F06DFEFFF79DFF1422DE
:1013C00000210DA800241EF01DFAC44B00941A6BD6
:1013D000C348C44D42F020021A631A6B02F0200287
:1013E0000092009A01941A6B42F080021A631A6B01
:1013F00002F080020192019A02941A6B42F00402F8
:101400001A631A6B02F004020292029A03941A6B96
:1014100042F001021A631A6B02F001020392039A6E
:1014200004941A6B42F002021A631A6B02F0020271
:101430000492049A05941A6B42F040021A631A6BE4
:1014400002F040020592059A06941A6B42F01002CF
:101450001A631A6B02F010020692069A07941A6B2E
:1014600042F008021A631B6B03F00803079322463D
:101470000421079B04F010FB9B4822464FF4805147
:1014800004F00AFB224699484FF44051012604F02B
:1014900003FB02274FF0040B91480F940DA9CDE9EF
:1014A0000DB6109704F010FA4FF480528E480DA933
:1014B000CDE90D26CDE90F4404F006FA0DA94FF44D
:1014C00040528A48CDE90D26CDE90F4704F0FCF9DA
:1014D0008748884A026004F077F8874B874A2C6275
:1014E000C5E9003228464FF48042C5E90424C5E925
:1014F0000244C5E9064404F0B1FC1021284604F07A
:10150000EDFE2146284604F008FF7D487D498462AF
:101510004FF48272C0E900124FF400751822C0E93E
:1015200006520A22784DC262C0E90244C0E904446E
:10153000C0E9084405F062FD744A0D974FF01008A9
:10154000C5E900264022C5E904824FF4C072C5E90E
:1015500006244FF4006203234FF00709C5E908246D
:101560000DA94FF400522846CDE911374FF0080A73
:10157000C5E9024BAA62CDE90E9BCDF840901397C6
:1015800005F062FC4FF6FF7209A92846CDE90AA6CC
:10159000099608940C9405F077FC304603F0A6FDFC
:1015A0004FF6FF7209A92846CDE9097ACDE90B6407
:1015B00005F06AFC03234FF6FF7209A92846CDE91E
:1015C000093ACDE90BB405F05FFC4FF40C720892B8
:1015D000089B0C934FF6FF7209A92846CDE909BA7A
:1015E0000B9605F051FC40F26A51284605F063FC69
:1015F000342221460DEB02001EF004F9444D454B08
:10160000AC86C5E9003409234FF01D0CC5E9053649
:101610000323C5E907C340F20D1E40F24313C5E999
:1016200009E3284640F2471340F2171AC5E90BA315
:10163000C5E902442C6185F8364004F013FFFF2110
:10164000F022CDE912144FF4806B05214FF4A07302
:10165000CDE90E24CDE914B1CDE916420DA92246FB
:101660002846CDE910372C4D18930D94ADF8644001
:101670008DF8664004F0C1FF284B2B601B6898472B
:101680002B68274DDB689847264BC5E90A47C5E913
:101690000C442846C5E90034C5E9027404F017F883
:1016A0003146284604F0CCF8214642460DA81EF0EB
:1016B000A9F81D4D1D4AEE614FF48033C5E90023A2
:1016C00028461B4BAB626E61AC602C612C7685F8B2
:1016D0002040EC62EC6085F830402BE0003802409E
:1016E00000080240FC2B002000040240000C0240D5
:1016F000A02B002000300240005C0040A0860100CA
:101700002C2D002000500140F82C0020400100A0AA
:10171000502C002000680140502B002018000020B1
:10172000BC2B002000B00240582B002000200140BC
:101730000100000F03F0EEFC0DA92846CDE90D963F
:10174000254DCDF83C9003F051FE2449244EAC6069
:1017500042F2CF03C5E90013284640F2E733EB60BD
:10176000CDE90D44AC6105F0E3FF0DA92846CDE9B4
:101770000D4405F0F7FF1B4B33603046CDE90D44B7
:1017800003F032FF42460DA93046CDE90D4403F087
:101790006BFFFEF728FF284605F0ADFE41463046B8
:1017A00003F035FF40F2555322464146304603F0E0
:1017B0007CFF06F0B7F80C4A0C48214606F0ECF81E
:1017C0000B4B0C4A186021460B4806F0E5F80B4B12
:1017D000186006F0C1F8FEE7842D002000140040D8
:1017E000A82B0020007400405C0D0208EB050008E7
:1017F0004C2B0020800D0208D1110008542B002032
:10180000704770477FB5094B8DF817201B6802930E
:101810000DF117020123009201930A460146044884
:1018200004F0C4FB07B05DF804FB00BF0C0000200F
:10183000FC2B00207FB500238DF81730084B1B6868
:1018400002930A4601230DF117010091019301460D
:10185000044804F03BFC9DF8170007B05DF804FB5A
:101860000C000020FC2B00201FB5084C24680092BF
:10187000CDE901340A4601230146054804F026FC5F
:10188000003818BF012004B010BD00BF0C000020BC
:10189000FC2B002003F02ABC08B5064800220421D6
:1018A00004F0FAF8BDE8084002480122042104F0DF
:1018B000F3B800BF0008024038B50B4D04460122C2
:1018C0000A484FF4005104F0E7F8002204212846AA
:1018D00004F0E2F82046FFF74DFC28460122BDE85F
:1018E0003840042104F0D8B800080240000C02403F
:1018F00038B50B4D044600220A484FF4005104F05D
:10190000CBF800220421284604F0C6F82046FFF751
:1019100031FC28460122BDE83840042104F0BCB85F
:1019200000080240000C0240F7B5144E144F054663
:101930000C4630460022042104F0AEF800224FF499
:101940000051384604F0A8F82846FFF713FC0D4B69
:101950000D481B68224601A905F02BFD38460122DF
:101960004FF40051019C04F097F830460122042105
:1019700004F092F8204603B0F0BD00BF000802401A
:10198000000C0240100000202C2D002003F0AEBB04
:101990000268084B9A4210B5044601D103F094FB4B
:1019A0002268054B9A4202BF044B0122C3F88028EB
:1019B00010BD00BF0004014000140040C45D0020C1
:1019C00082B00E4B00220092596C41F48041596460
:1019D000596C01F48041009100990192196C41F019
:1019E000805119641B6C03F080530193019B0F21FC
:1019F0006FF0010002B003F0A7BD00BF0038024045
:101A000010B5044688B01422002103A81DF0FAFE88
:101A10002268124B9A421ED103F58C3300210191AA
:101A20005A6C0F4842F480725A645A6C02F4807205
:101A30000192019A02911A6B42F001021A631B6B28
:101A400003F001030293029B8022032303A9CDE943
:101A5000032303F039FF08B010BD00BF0020014090
:101A6000000002400268094B9A4282B00BD1002369
:101A70000193074B1A6B42F480521A631B6B03F4F9
:101A800080530193019B02B0704700BF00300240B9
:101A90000038024010B5044688B01422002103A883
:101AA0001DF0B0FE2268124B9A421ED103F5E233BC
:101AB000002101911A6C0F4842F000521A641A6C0E
:101AC00002F000520192019A02911A6B42F0010257
:101AD0001A631B6B03F001030293029B2022032372
:101AE00003A9CDE9032303F0EFFE08B010BD00BF4A
:101AF000007400400000024007B50F4B02689A4294
:101B000016D10022A3F5F0430192196B41F40001B4
:101B100019631B6B03F40003019305215A20019BF9
:101B200003F012FD5A2003B05DF804EB03F03EBD54
:101B300003B05DF804FB00BF00B002402DE9F043A4
:101B4000044689B01422002103A81DF05BFE226820
:101B5000244B9A4243D1244C244800250095236B02
:101B600043F004032363236B03F004030093009BFF
:101B70000195236B43F001032363236B03F00103FF
:101B80000193019B4FF012094FF400734FF00108CD
:101B90000327042603A9CDE90339CDE90587079674
:101BA00003F092FE4FF480731148079603A9CDE924
:101BB0000339CDE9058703F087FE0295236C43F4D2
:101BC00000032364236C03F400030293029B236A43
:101BD00043F400032362236A23F40003236209B061
:101BE000BDE8F083005C004000380240000802407D
:101BF00000000240F0B504468DB01422002107A871
:101C00001DF000FE2268574B9A4240F0A88003F571
:101C10005043002500955A6C534842F080625A6444
:101C20005A6C02F080620092009A01951A6B42F0A1
:101C300020021A631A6B02F020020192019A0295A7
:101C40001A6B42F001021A631A6B02F0010202924F
:101C5000029A03951A6B42F002021A631A6B02F0A1
:101C600002020392039A04951A6B42F040021A632F
:101C70001A6B02F040020492049A05951A6B42F026
:101C800004021A631A6B02F004020592059A069583
:101C90001A6B42F008021A631B6B03F008030693E9
:101CA00002240E26069B0A944FF4806307A9CDE90F
:101CB00007340B9603F008FE41F658032B480B96A9
:101CC00007A9CDE907340927CDE9095403F0FCFD44
:101CD000032327480B9707A9CDE90734CDE9095419
:101CE00003F0F2FD4FF4706321480B9607A9CDE98C
:101CF0000734CDE9095403F0E7FD4FF40C631D48A8
:101D00000B9607A9CDE90734CDE9095403F0DCFDB2
:101D1000C02319480B9607A9CDE90734CDE909542A
:101D200003F0D2FD082315480B9607A9CDE9073427
:101D3000CDE9095403F0C8FD4FF4A0530D480B97AB
:101D400007A9CDE90734CDE9095403F0BDFD5820BA
:101D50002A46052103F0F8FB582003F027FC0DB0BC
:101D6000F0BD00BF006801400014024000000240C6
:101D7000000402400018024000080240000C02402B
:101D800010B5044688B01422002103A81DF03AFDC6
:101D90002268144B9A4223D103F568430021019134
:101DA0005A6C114842F480125A645A6C02F4801240
:101DB0000192019A02911A6B42F020021A631B6B86
:101DC00003F020030293029B4FF46072022303216D
:101DD000CDE903230523CDE9061303A903F074FD20
:101DE00008B010BD005001400014024007B50F4B71
:101DF00002689A4216D1002203F509330192196C48
:101E000041F0200119641B6C03F0200301930521AC
:101E10003720019B03F098FB372003B05DF804EBFB
:101E200003F0C4BB03B05DF804FB00BF0014004026
:101E30002DE9F04186B0002303932B4B1C68002C46
:101E40004FD14FF00108C3F80080284B00949A6BE3
:101E5000274842EA08029A639B6B03EA080300934F
:101E6000022703260C25009B01A94FF63F03CDE96D
:101E70000137CDE9046503F027FD1E48059501A94A
:101E8000CDE90187CDE9034603F01EFD48F2331387
:101E90001948059501A9CDE90137CDE9034603F0BD
:101EA00013FD4FF683731548059501A9CDE9013758
:101EB000CDE9034603F008FD4CF203731048059585
:101EC00001A9CDE90137CDE9034603F0FDFC60230C
:101ED0000C48059501A9CDE90137CDE9034603F08A
:101EE000F3FC06B0BDE8F0815C66002000380240DB
:101EF0000014024000080240001802400010024096
:101F0000000C02400004024030B5014689B00022B6
:101F10002C2003F019FB2C2003F048FB0025154B67
:101F200002955A6C144C42F002025A645B6C03F046
:101F30000203029301A903A8029B04F03DFE04F0F2
:101F40002BFE0E4B236040F2E733E36040000C4B66
:101F5000B0FBF3F00138606020462561A56005F014
:101F6000E7FB20B9204605F0C6FA09B030BD0120D4
:101F7000FBE700BF0038024060660020000401401B
:101F800040420F007047FEE7FEE7FEE7FEE77047BE
:101F9000014805F0C4BA00BF60660020014805F0A2
:101FA000BEBA00BF842D0020014804F0C9BA00BFAA
:101FB000502C0020014803F0B8BB00BFBC2B002010
:101FC0000120704708B51DF0C9FA162303604FF0D1
:101FD000FF3008BD08B51DF0C1FA16230360FEE707
:101FE00070B50D4614460E46731B9C4201DC20461C
:101FF00070BDAFF3008006F8010BF5E770B50D4634
:1020000014460E46731B9C4201DC204670BD16F838
:10201000010BAFF30080F5E74FF0FF3070474FF44E
:1020200000534B600020704701207047002070472C
:102030000A4A116808B5034609B9094911601068D0
:10204000694603448B4206D91DF088FA0C230360CD
:102050004FF0FF3008BD1360FCE700BFA066002012
:1020600010780120704710B5042104461DF016FABF
:10207000204610BD012908B506D0022908D059B95B
:1020800002F034FB006808BD02F030FB4068FAE75C
:1020900002F02CFB8068F6E70020F4E70048704768
:1020A000B80D02080920704713B5002451B1036828
:1020B00001948DF8034001AA9C680DF10303A04729
:1020C00002B010BD0846FBE7408970478089704721
:1020D0008088704783798088184480B27047C079BF
:1020E00000F07F007047C079C0097047704710B595
:1020F000082104461DF0D2F9204610BD70477047F4
:1021000000F596730868496803C37047002070475C
:1021100081807047C180704701817047418170475D
:102120007047704770477047704710B4C4880368A1
:10213000121B84885B6D091B12B25DF8044B09B257
:1021400018474FF6FF7383814FF0FF330362136824
:10215000C3611060704770477047416070477047B7
:10216000064BC0F848310023C0F84C3100F5A0738D
:10217000C0F84401C0F83C31704700BF912200080C
:1021800001230372704790F825201AB190F824209B
:1021900002B118607047704770477047704701463A
:1021A0004068036810315B6E184701464068036859
:1021B00010311B6E18477047704710B50022B1F9F7
:1021C0000840B1F90A10028042808480C18010BDAD
:1021D00010B4C26841685410034601EB6200D20794
:1021E00048BF0A599B685DF8044B48BFD35818474D
:1021F00043682BB183682BB9C06800F001007047B9
:10220000184670470120704710B50C2104461DF098
:1022100045F9204610BD10B5102104461DF03EF9C9
:10222000204610BD10B54FF4AC7104461DF036F9D0
:10223000204610BD10B5382104461DF02FF9204668
:1022400010BD10B5282104461DF028F9204610BD08
:1022500008B50DF007FEBDE808400EF0A7B990F8EC
:10226000252012B103685B691847704710B5044612
:10227000D0F83C0158B10368DB68984738B1D4F80E
:102280003C0103689B6898470023C4F83C3110BDAB
:102290002DE9F14FD0E9545A0746A86803681B6A34
:1022A0009847B0F57E7F05D2454B464AA321464864
:1022B0001DF022F9686803681B6A98470F2803D845
:1022C000424B404AA421F2E7E86803681B6A98473A
:1022D0000B2803D83E4B3B4AA521E8E7DFF8F890EE
:1022E0000DF0C0FD0DF0C4FDD9F8000010B1036879
:1022F000DB689847D9F8000010B103681B6898475D
:10230000DFF8D880D8F8000010B103685B699847FF
:10231000D7F8380110B103685B689847D8F8000017
:1023200010B103681B689847D7F8380110B10368EB
:102330009B689847E868036800215B6A98474FF0FC
:10234000000B244B03600446C0F804B080F808B0CA
:10235000A868036859465B6A9847064602F0A0FAE7
:102360006868036859465B6A98473146054602F03B
:1023700023FAC9F80040C7F83851C8F80060E5B141
:102380002B1DCAF800303368C5F808A03046DB685A
:10239000F56398472B6828461B68984721463046C6
:1023A0000FF00EFA236820461B69984723685B6983
:1023B000204601B0BDE8F04F18472B46E1E700BFCB
:1023C0007C0E02080A0F02080E10020855100208BF
:1023D000F81002083C140208AC750120A875012011
:1023E000044B1B6893F876200AB1D86C00B9986842
:1023F000704700BF64750120F0B50446807A637AA7
:102400000130C0B2984289B0A07250D8B4F90C2003
:1024100000210FF0DBF910F0010283B24DD04FF62E
:10242000FF710028D8BF0A461344E381244E254F8C
:102430003188B4F818C0E389B7F90000ADF81E0080
:10244000CA1A606863445B1AADF81C30036812B2A4
:1024500000251B692283ADF81820ADF81A5006A993
:102460009847A37A012B26D1174B1B781BB3A16980
:10247000606904AB03C3154B186803681B6B98476E
:102480003388ADF81C303B88ADF81E300390ADF8B2
:102490001850ADF81A50FFF7A3FFFF22036800920F
:1024A0000195DC68039904AB06AAA04703E0012369
:1024B00023720023A37209B0F0BDE081B6E700BF2C
:1024C000587501205A75012062750120647501203C
:1024D000F8B5044617460E460DF0E4FC0E4B1C60A2
:1024E0000E4B23600E4B0025C4E950350D4BC4E95B
:1024F00052551868036829469B68C4E94E55C4E9DB
:1025000054769847284602F0A5F8FFF769FF15F0C2
:10251000B6FD2046F8BD00BFB8750120F0130208D3
:10252000D813020864750120064BC0F84831002317
:10253000C0F84C3100F5A073C0F84401C0F83C313C
:10254000704700BF91220008064BC0F848310023B5
:10255000C0F84C3100F5A073C0F84401C0F83C311C
:10256000704700BF2D270008064BC0F848310023F4
:10257000C0F84C3100F5A073C0F84401C0F83C31FC
:10258000704700BFED25000837B504460023134A05
:1025900002604360037241728372C4E90533C4E987
:1025A0000733C4E90933C4E90B33E3814FF4807383
:1025B00063630B4B23610B4BB3F900100A4BA181F2
:1025C000B3F9005010300190FFF7A6FD019829469D
:1025D000FFF7A4FD204603B030BD00BFC8140208B9
:1025E00060140208587501205A7501202DE9F04742
:1025F000D0E9544A0746A06803681B6A984741F629
:102600003713984205D8424B424AA32142481CF056
:1026100073FF606803681B6A98470F2803D83F4B15
:102620003C4AA421F2E7E06803681B6A9847372810
:1026300003D83B4B374AA521E8E7DFF8E8900DF0D7
:1026400011FC0DF015FCD9F8000010B10368DB682F
:102650009847D9F8000010B103681B689847DFF865
:10266000C880D8F8000010B103685B699847D7F8B4
:10267000380110B103685B689847D8F8000010B1C2
:1026800003681B689847D7F8380110B103689B6846
:102690009847E068036800215B6A98471421054663
:1026A000FFF772FFA068036800215B6A984706463F
:1026B00002F038FA6068036800215B6A9847314687
:1026C000044602F027F9C9F80050C7F83841C8F8A5
:1026D0000060DCB1231DCAF800303368C4F808A0DC
:1026E0003046DB68F4639847236820461B689847A8
:1026F000294630460FF064F82B6828461B69984736
:102700002B6828465B69BDE8F04718472346E2E797
:102710007C0E02089B1102080E10020855100208D8
:10272000F8100208AC750120A87501202DE9F047CA
:10273000D0E9544A0746A06803681B6A9847B0F579
:102740007E7F05D2424B434AA32143481CF0D4FE6E
:10275000606803681B6A98470F2803D83F4B3D4ABF
:10276000A421F2E7E06803681B6A9847372803D87A
:102770003B4B384AA521E8E7DFF8E8900DF072FB03
:102780000DF076FBD9F8000010B10368DB689847BC
:10279000D9F8000010B103681B689847DFF8C880BB
:1027A000D8F8000010B103685B699847D7F8380182
:1027B00010B103685B689847D8F8000010B103684F
:1027C0001B689847D7F8380110B103689B68984791
:1027D000E068036800215B6A984714210546FFF70B
:1027E000D3FEA068036800215B6A9847064602F0A2
:1027F00057F86068036800215B6A984731460446D1
:1028000001F0DAFFC9F80050C7F83841C8F8006095
:10281000DCB1231DCAF800303368C4F808A0304684
:10282000DB68F4639847236820461B68984729466D
:1028300030460EF0C5FF2B6828461B6998472B6869
:1028400028465B69BDE8F04718472346E2E700BF2A
:102850007C0E0208B91202080E1002085510020878
:10286000F8100208AC750120A8750120006A7047B5
:10287000406A704770478B8880690A68DB0A50F8A5
:1028800023001044704710B5C2B1137BB3B1547B21
:10289000D27A240204F4E0641443C26998B202EBD1
:1028A000840213888B4202D192F9020010BD05D830
:1028B000013880B204320028F3D1F7E70020F5E7B1
:1028C00010B5282104461CF0E9FD204610BD00008B
:1028D00030B589B00446BDF850500695BDF84C504F
:1028E00005959DF8405004959DF83C5003959DF842
:1028F000385002959DF8345001959DF83050009560
:102900000EF0F4FA064B2360119BA361129BE36166
:10291000159B2362169B6362204609B030BD00BF41
:10292000EC140208806A7047704770477047704720
:10293000704730B50368018185B06D460146D3F814
:10294000843004462846984795E807003C3484E8DC
:10295000070005B030BD30B50368418185B06D46D4
:102960000146D3F8843004462846984795E8070086
:102970003C3484E8070005B030BD0022028042806C
:102980008280C280704780F83610704770B5036847
:1029900004461B6B154698472368294620465B6E04
:1029A000BDE87040184700207047806C7047704742
:1029B0007047704770477047704790F82C304BB1A4
:1029C00000F16C021268C2653BB100F174031B6830
:1029D0000366704700F16802F4E700F17003F6E760
:1029E000704770477047704730B4C26844685510EC
:1029F000034604EB6200D20748BF62599B6830BCB3
:102A000048BFD358184743682BB183682BB9C068B7
:102A100000F001007047184670470120704730B43D
:102A2000C26844685510034604EB6200D20748BFF1
:102A300062599B6830BC48BFD358184743682BB1D4
:102A400083682BB9C06800F00100704718467047D2
:102A50000120704790F82D3080F8A43080F85A306B
:102A6000704790F82D3080F85A30704710B5044602
:102A70007C3094F82C303BB104F17A010AF044FD2B
:102A80002046FFF79AFF10BD04F17801F6E710B574
:102A90004C2104461CF002FD204610BD10B57821E3
:102AA00004461CF0FBFC204610BD10B5A8210446CE
:102AB0001CF0F4FC204610BD10B5102104461CF09B
:102AC000EDFC204610BD10B5102104461CF0E6FCBC
:102AD000204610BD10B54FF47E7104461CF0DEFC9C
:102AE000204610BD10B50446006B50B10368DB688A
:102AF000984730B1206B036821469B68BDE81040C1
:102B0000184710BD00F1C402914202D10368DB6A8C
:102B1000184700F5B672914202D103681B6BF7E7C4
:102B200070470B7970B590F82C6004460D469BB940
:102B30008EB9B3FA83F35B0984F82C3023682046FE
:102B4000D3F88C309847236820465B69984716B1C4
:102B50002B79012B03D070BD002EFCD0E9E7236850
:102B60002046D3F88830BDE870401847036870B538
:102B70005E6B124B1B6804468DB22BB9104B114A89
:102B80006C2111481CF0B8FC1049828D09889142D3
:102B900003D80F4B0B4A6D21F3E713F812200D4BAE
:102BA0001B6853F822000368DB6A9847281A01B2B1
:102BB00033462046BDE87040184700BFBC75012071
:102BC0003C1502087E150208B9150208C0750120DF
:102BD00000160208C475012000F52A738B4210B557
:102BE000044609D10DF03EF9FFF7BEFC23682046EC
:102BF0005B6BBDE81040184710BD00224FF0FF315D
:102C0000C0E900218260704770B5036804461B6B01
:102C1000154698472368294620465B6BBDE87040FF
:102C200018470B882DE9F041A0F878301388B0F9E7
:102C30000850A0F87A3004461046904610F042FB47
:102C4000B4F90A30074603EBD3734046C3F34F068B
:102C500010F06CFB05EBD575C5F34F0500EBD0709C
:102C600007EBD777A6EB6002A5EB670704F17C00C2
:102C700039B212B2FFF7C8FF23682046D3F88C3070
:102C8000BDE8F041184770B504461D46BDF9106017
:102C9000FFF7BAFF2368294620469B6B98472368B5
:102CA00031462046DB6BBDE8704018470022C0E982
:102CB0000122C0E90322C0E90522C0E907224FF43E
:102CC00080728284014A0260704700BF4816020881
:102CD00010B52622044600211CF094FD2046FFF783
:102CE000E5FF044B2360FF2384F826300023A36212
:102CF000204610BDD829020838B5262204460D46C4
:102D000000211CF07FFD2046FFF7D0FF064B23601B
:102D10002B88E384FF23204684F8283029460AF0D4
:102D2000F3FB204638BD00BF1C2B020810B526223D
:102D3000044600211CF066FD2046FFF7B7FF0A4B52
:102D400023600A4BA3624FF6FF73A3854FF47F0203
:102D50000023C4E90C324FF0FF32C4E9102323876B
:102D6000E363204610BD00BF48290208740E020824
:102D70001B4B73B51B88018F8B4206462BD9194B11
:102D80001B682BB9184B194A19486C211CF0B4FB6D
:102D900013F81120174B1B6853F82250164B186874
:102DA00001F094FC2B68019001469B6A28469847E5
:102DB0002B6801991B6C0446284698472B6801999B
:102DC0005B6A14FB00F428469847E4B2044486F892
:102DD000454002B070BD002380F84530F9E700BFE0
:102DE000C0750120BC7501203C1502087E15020843
:102DF000B9150208C4750120C87501204FF47F433E
:102E000073B50646838540F20113002583841D4B6C
:102E10008562C0E90155C0E90355C0E90555C0E91F
:102E20000755056346F8343B04463046FFF750FF2C
:102E3000154B63632A46C4E91A55C4E91C55256637
:102E4000A4F8645029463046FFF7DEFE314620469E
:102E500006F01CFF0D4B236004F17C054FF6FF7359
:102E6000A4F87830A4F87A3001A92846ADF80430E7
:102E7000FFF742FF2046294606F008FF204602B031
:102E800070BD00BF40170208B42A0208DC17020810
:102E90002DE9F04F2DED088B04468DB00EF0E4FACD
:102EA00022460025E44BE56342F8403B104608EE1D
:102EB000102AFFF70DFF04F16C034FF6FF760AA905
:102EC00018460AEE103AADF82860FFF715FF04F136
:102ED00098030AA918460AEE903AADF82860FFF761
:102EE0000BFF04F1C403184608EE903AFFF786FF83
:102EF00004F5B673184609EE103AFFF77FFF04F5A4
:102F0000057304F51779184609EE903A04F52A7806
:102F1000FFF70CFFC94F4846FFF708FFC4F85C7283
:102F2000C4F8A45240460AF021FC04F53C7304F5B1
:102F3000477B0AA918460BEE103A04F5597AADF80A
:102F40002860FFF7D9FE5846FFF7F0FE5046FFF71E
:102F5000EDFEBB4BC4F86473C4E9F634B94BC4F856
:102F6000AC53C4E9F835B84BC4E9FA34B74BC4E9FB
:102F7000FC35F02318EE100A00932A4629464FF438
:102F8000A073FFF780FE4FF07F43A3662A461AEE38
:102F9000100A2946FFF738FE1AEE100A0AA9ADF802
:102FA00028500AF0B1FA1AEE900A19227621FFF79A
:102FB0002BFE17271AEE900A4FF003030AA9ADF86B
:102FC00028300AF0A1FA00972A46294604F1F800B1
:102FD0002B23FFF758FE9E4A9E4B9F499F48C4E90A
:102FE0004B32D4F8C4300526C4E94D10D3F88C30E8
:102FF000A4F8286118EE900A98470DF1280C624653
:103000000DF1240C614618EE900AADF82460ADF87D
:103010002860FFF706FE18EE900AC4F84461009796
:103020002B23312240F21111FFF72DFE04F57A7C9B
:10303000C4F8F4C000972A46294604F5D0702B2323
:10304000CDF80CC0FFF71FFE814A824B82498348AE
:10305000A4F8D061C4E97532D4F86C31C4E97710B2
:10306000D3F88C3019EE100A9847062619EE100A8C
:103070000AAA09A9ADF82460ADF82860FFF7D1FDD0
:1030800019EE100AC4F8EC6100972B23192240F2C4
:103090001111FFF7F8FD039BC4F89C3104AE4FF00B
:1030A000FF3719EE900A1C221921FFF7ADFD19EE2A
:1030B000901AA4F848523046C4F8447209F016FD3C
:1030C00096E8070004F5147383E80700644B0A933D
:1030D00019EE900A0C230AA9ADF82C3009F096FFDE
:1030E00018220092484624227C238F21FFF7CBFD33
:1030F000D4F85C32A4F8905249463046D3F8843074
:10310000C4F88C72984796E8070004F5267383E8A4
:10311000070004F56C73C4F8A432514BA4F8B05303
:103120000A930AA90B234846ADF82C3009F06EFF2C
:103130004046B4224E21FFF767FD01230AAA09A9E0
:10314000ADF8243040460223ADF8283009F0B9FF2D
:103150000A23A4F8E0324046FFF70AFE04F576732E
:10316000C4F8D0321BEE100AC4E9B9774F22762199
:10317000FFF74AFD1BEE100A4FF003020AA9ADF853
:1031800028200AF0C1F9522258462921FFF73CFDB8
:10319000A4F8505359463046C4F84C7309F0A6FCC5
:1031A00096E8070004F5567383E807002C4B0A9352
:1031B0000AA909235846ADF82C3009F027FF182238
:1031C0000092504658227C238F21FFF75CFDD4F8F3
:1031D0006433A4F8985351463046D3F88430C4F889
:1031E0009473984796E8070004F5687383E807002E
:1031F00004F57173C4F8AC33194BA4F8C4530A93A3
:10320000251D08230AA95046ADF82C3009F0FEFE12
:1032100018EE101A284606F039FD1AEE101A284644
:1032200006F034FD1AEE901A284606F02FFD18EE2F
:10323000901A284616E000BFAC180208B016020823
:103240007C180208D92B000894180208052B0008E6
:10325000CC9900FF996600FF663300FF996633FF43
:10326000740E020806F012FD19EE101A284606F038
:103270000DFD19EE901A284606F008FD494628462D
:1032800006F004FD4146284606F000FD1BEE101A2C
:10329000284606F0FBFC5946284606F0F7FC28466F
:1032A000514606F0F3FC20460DB0BDEC088BBDE89E
:1032B000F08F00BF002070478B888380012070470B
:1032C000704780F82C10704710B40368046BD3F873
:1032D000A430624361435DF8044B1847D0ED0C7A8B
:1032E0000368F8EEE77AD3F8A43020EE270AB5EEAB
:1032F000C00AF1EE10FA17DBB6EE007A30EE070ADC
:10330000BDEEC07A17EE101A60EEA70AF5EEC00AFD
:10331000F1EE10FA1CDBF6EE007A70EEA70AFDEE75
:10332000E07A17EE902A1847BDEEC07AF8EEC76A29
:1033300017EE102A30EE660AF7EE086A30EE260A1B
:10334000511EBDEEC00A10EE102A0A441146DBE7FA
:10335000FDEEE07AB8EEE77A17EE902A70EEC70A33
:10336000B7EE087A70EE870A013AFDEEE00A10EE39
:1033700090CA94446246D6E710B40368046BD3F84D
:10338000B03062435DF8044B1847D0ED0C7A036807
:10339000F8EEE77AD3F8B03027EE800AB5EEC00A2F
:1033A000F1EE10FA08DBF6EE007A30EE270AFDEEB9
:1033B000C07A17EE902A1847FDEEC07AB8EEE77A89
:1033C00017EE902A30EE470AB7EE087A30EE070A79
:1033D000013ABDEEC00A10EE10CA94446246EAE714
:1033E00010B40368446BD3F8BC30624361435DF8AA
:1033F000044B1847D0ED0D7A0368F8EEE77AD3F85E
:10340000BC3020EE270AB5EEC00AF1EE10FA17DB49
:10341000B6EE007A30EE070ABDEEC07A17EE101A4B
:1034200060EEA70AF5EEC00AF1EE10FA1CDBF6EE2C
:10343000007A70EEA70AFDEEE07A17EE902A1847A0
:10344000BDEEC07AF8EEC76A17EE102A30EE660AB3
:10345000F7EE086A30EE260A511EBDEEC00A10EEE5
:10346000102A0A441146DBE7FDEEE07AB8EEE77A6F
:1034700017EE902A70EEC70AB7EE087A70EE870A48
:10348000013AFDEEE00A10EE90CA94446246D6E797
:1034900010B40368446BD3F8C03062435DF8044B4A
:1034A0001847D0ED0D7A0368F8EEE77AD3F8C0300C
:1034B00027EE800AB5EEC00AF1EE10FA08DBF6EE50
:1034C000007A30EE270AFDEEC07A17EE902A1847F0
:1034D000FDEEC07AB8EEE77A17EE902A30EE470A92
:1034E000B7EE087A30EE070A013ABDEEC00A10EED8
:1034F00010CA94446246EAE7D0F82C31026B002BE4
:1035000007DB02EB430393FBF2F000EBD0704010BB
:1035100070476FF0010000FB0320013890FBF2F0D0
:1035200000EBD070401040427047D0ED4B7AB8EEBF
:10353000E70AD0ED0C7AF8EEE77A80EE270A7047BA
:10354000D0F82C017047D0F83031026B002B07DB2C
:1035500002EB430393FBF2F000EBD0704010704796
:103560006FF0010000FB0320013890FBF2F000EB4C
:10357000D070401040427047D0ED4C7AB8EEE70A68
:10358000D0ED0C7AF8EEE77A80EE270A7047D0F893
:1035900030017047D0F83431426B002B07DB02EB6F
:1035A000430393FBF2F000EBD070401070476FF0D4
:1035B000010000FB0320013890FBF2F000EBD0701B
:1035C000401040427047D0ED4D7AB8EEE70AD0ED9A
:1035D0000D7AF8EEE77A80EE270A7047D0F83401CA
:1035E0007047D0F83831426B002B07DB02EB430306
:1035F00093FBF2F000EBD070401070476FF00100C9
:1036000000FB0320013890FBF2F000EBD07040107B
:1036100040427047D0ED4E7AB8EEE70AD0ED0D7A11
:10362000F8EEE77A80EE270A7047D0F83801704745
:1036300070B503680446D3F888300D46164698479F
:103640002368324629462046D3F89030BDE87040C2
:1036500018470368D3F8943018470368D3F8D43078
:1036600018470368D3F8E03018470368002A10B4FD
:10367000D3F8A430046B0EDB04EB420292FBF4F1AE
:1036800001EBD1714910B0F91E215DF8044B013AEC
:103690000A44494218476FF0010101FB0241013918
:1036A00091FBF4F101EBD17149104942EBE703685A
:1036B000D3F83C311847026B03685143D3F84831C3
:1036C00018470368D3F844311847D0ED0C7A0368E3
:1036D000F8EEE77AD3F8483127EE800AB5EEC00A53
:1036E000F1EE10FA08DBF6EE007A30EE270AFDEE76
:1036F000C07A17EE901A1847FDEEC07AB8EEE77A56
:1037000017EE902A30EE470AB7EE087A30EE070A35
:10371000511EBDEEC00A10EE102A0A441146EAE717
:10372000C0F83C1170470368D3F85031184703685C
:1037300010B5D3F85C31044698470028236B07DBAB
:1037400003EB400090FBF3F000EBD070401010BD95
:103750006FF0010202FB0030013890FBF3F000EB48
:10376000D07040104042F2E70368D3F85831184750
:10377000036810B5D3F85C310446984707EE900A09
:10378000B8EEE70AD4ED0C7AF8EEE77A80EE270A75
:1037900010BDD0F83C017047026B03685143D3F869
:1037A00068311847D0ED0C7A0368F8EEE77AD3F861
:1037B000683127EE800AB5EEC00AF1EE10FA08DB98
:1037C000F6EE007A30EE270AFDEEC07A17EE901A78
:1037D0001847FDEEC07AB8EEE77A17EE902A30EE81
:1037E000470AB7EE087A30EE070A511EBDEEC00A4E
:1037F00010EE102A0A441146EAE7C0F8401170475B
:10380000036810B5D3F87431044698470028236B39
:1038100007DB03EB400090FBF3F000EBD0704010AF
:1038200010BD6FF0010202FB0030013890FBF3F095
:1038300000EBD07040104042F2E7036810B5D3F8B7
:1038400074310446984707EE900AB8EEE70AD4EDC3
:103850000C7AF8EEE77A80EE270A10BDD0F8400126
:1038600070470368026BD3F88431002910B5044611
:103870000EDB02EB410191FBF2F101EBD17149103A
:1038800009B220469847D4E94F2302FB003010BD0F
:103890006FF0010000FB0121013991FBF2F101EB16
:1038A000D17149104942EBE7006B7047406B70479C
:1038B0000368D3F8483118470368D3F85C311847D8
:1038C000026B03685143D3F814311847036870B58D
:1038D000D3F81851D3F88031D0F8446104469847A2
:1038E0002B4656F820102046BDE870401847B0F926
:1038F0001C21B0F91E31934207DBB0F94C31194459
:1039000091FBF2F002FB101109B208467047480122
:10391000704780F82610704790F82600704710B561
:103920000022B1F90840B1F90A1002804280848077
:10393000C18010BD0022028042808280C280704718
:10394000C1627047C06A7047012070477047704776
:10395000C06B18B10368D3F880301847704730B592
:10396000B2F81A11B2F91441B2F94050B2F842203B
:1039700044802144521A002101808580C28030BDDC
:1039800010B54280BDF90840BDF90C20048082804A
:10399000C38010BD0B680846D3F8D43018470B68B5
:1039A0000846D3F8E0301847B1F914017047B1F870
:1039B0001401B1F81A310344B1F84200C01A00B240
:1039C0007047B1F916017047B1F81601B1F8183116
:1039D0000344B1F84000C01A00B270470B680846B3
:1039E000D3F8143111461847B2F8181130B5B2F9AE
:1039F000165105806C18B2F84010B2F94220C2800E
:103A0000091B00244480818030BD02808380BDF981
:103A10000020BDF904304280C38070470B6808461F
:103A2000D3F8EC3018470B680846D3F8F83018473D
:103A3000B1F916017047B1F81601B1F81831034415
:103A4000B1F84000C01A00B27047B1F914017047D4
:103A5000B1F81401B1F81A310344B1F84200C01AA8
:103A600000B270470B680846D3F818311146184762
:103A700070477047704770477047704730B4C268EE
:103A800044685510034604EB6200D20748BF6259F0
:103A90009B6830BC48BFD358184743682BB1836834
:103AA0002BB9C06800F0010070471846704701202C
:103AB000704710B5402104461BF0F0FC204610BDB5
:103AC00010B5402104461BF0E9FC204610BD10B59E
:103AD0004FF4107104461BF0E1FC204610BD10B5F8
:103AE000102104461BF0DAFC204610BD10B541F64B
:103AF000381104461BF0D2FC204610BD90F82C3043
:103B00000BB106F0FCB8704713B503460846D3E97D
:103B10000C1403680191D3F88C3098470199024640
:103B2000204602B0BDE8104007F020BF13B50346A1
:103B30000846D3E90C1403680191D3F894309847F0
:103B400001990246204602B0BDE8104007F00EBFC2
:103B50000A1E10B503DBB0F91E41944206DC084B87
:103B6000084A094840F233611BF0C6FC0368D0F8EC
:103B70004441D3F88031984754F8200010BD00BF6D
:103B8000E418020807190208561902080B1E10B59E
:103B9000044603DBB0F91E219A4206DC074B084AB3
:103BA000084840F22D611BF0A7FC0368D3F884316C
:103BB0009847D4E94F2302FB003010BDE4180208F7
:103BC000B319020856190208CC30884208B505D14D
:103BD0000CF048F9BDE80840FEF7B6BC08BD00008F
:103BE00010B52622044600211BF00CFE2046FFF7EC
:103BF0005DF8054B23600023A36284F82C30012379
:103C000084F82430204610BD6428020837B501AB83
:103C100015460DF060FA00284FEA401401992A4633
:103C20004FF0200004DB0DF075FA204403B030BDE6
:103C30000DF070FA201AF9E770B5B0F91441B0F838
:103C40001A516319B0F84250ED1AD0E94D320E46C0
:103C50002DB2D21A691EF01AFFF7D8FF2C44013C8E
:103C6000C0EB441070BD38B504460846B4F81831AE
:103C7000B4F816110B44B4F84010D4E94B52C91AE9
:103C800009B2521B0139401BFFF7C0FFB4F91631CE
:103C900000EB431038BD000010B5044607F060FA91
:103CA000064A2260002301220A21C4E90C21E362B2
:103CB00084F83820E363204610BD00BF0C270208BB
:103CC00070B50023124E8380124B0360336893F863
:103CD000762005460AB1D86C00B998680368DB6A9B
:103CE00098473368B0FA80F4D86C640930B103683F
:103CF000DB6A9847002808BF44F001042CB9064B42
:103D0000064A07482C211BF0F7FB284670BD00BF70
:103D100064750120B01C0208021A0208601A020829
:103D2000991A02082DE9F04F2DED0C8B04468DB049
:103D30000DF09AFB22460025EE4BE56342F8403B2E
:103D400004F16C0B10464FF6FF7608EE902AFEF752
:103D5000BFFF262229465846ADF828601BF052FDC9
:103D60005846FEF7A3FFE44BE366BDF82830A4F8FD
:103D700092300AA984F89460584609F0C5FB04F112
:103D8000980318460AEE903AFEF7A2FFDB4BC4F800
:103D9000983004F1CC031846C4F8C450A4F8C850B5
:103DA00004F5807709EE903AFFF71AFFD44BC4F878
:103DB000CC30A4F8FA60A4F8FC6084F8FE603C21E2
:103DC000384607F06FFDCF4BC4F800310123C4E93A
:103DD0008F3504F5147329463B22C4E991353846E2
:103DE000FFF772FAC84BC4F8003104F55073184657
:103DF000A4F84C520CEE103A07F0B2F9C34BC4F8D9
:103E000040334FF0020A04F55C73184684F86CA343
:103E10000393FFF755FFBE4BC4F870332433C4F847
:103E2000783304F561731846C4F87C530CEE903A6D
:103E3000DFF8FC92DFF8FC82FFF72EFF04F57173C8
:103E4000C4F8849318460DEE103AFFF725FF04F2EC
:103E50000443C4F8C48318460BEE103AFFF71CFF66
:103E600004F24443C4F8049418460BEE903AFFF76A
:103E700013FF04F28443C4F8448418460DEE903ACC
:103E800007F06EF90123C4F8B434A24BC4F8BC3473
:103E90002E2304F59A62A4F8C8349F4BA4F8C0649A
:103EA000C4F884341046C4F8B054C4F8B85484F844
:103EB000C454A4F8C654C4F8CC540AEE102AFFF730
:103EC0008FFE964BC4F8D03404F5A162104604F579
:103ED000AA69A4F8FE64A4F8006584F80265A4F851
:103EE000046509EE102AFEF721FF4846FEF71EFF83
:103EF0008B4EC4F8506504F29C521046C4F8985595
:103F000004F5BD6808EE102AFEF710FFC4F89C65A2
:103F1000C4F8E4554046FEF709FF824BC4F8683602
:103F2000814BC4F8E865C4F870364FF4965104F537
:103F3000CF60C4F83056C4F86C46C4F874560AF022
:103F4000D1FAF02318EE900A00932A464FF4A0739A
:103F50002946FEF798FE4FF07F42A2666FF06C0193
:103F60006FF016025846FEF74FFEA6264FF00402E9
:103F70000AA95846ADF8282009F0C6FA1AEE900AA8
:103F800000964FF4A0732A462946FEF77CFE4FF0B8
:103F9000FF334FF07F42C4E930324FF0010219EE97
:103FA000900AA4F8C820BB21BD22FEF72DFE4FF0D9
:103FB000010219EE900AADF8242009A90AAAADF869
:103FC00028A009F07EF804F5CD63C4F8F4302A4641
:103FD0004FF47A713846FFF72BFB00964FF4A0732D
:103FE0002A4629463846FEF74EFE0F230093142238
:103FF0002B460621384607F007FC2B462A46294661
:104000003846009507F015FBF7EE080AB7EE000AF0
:104010003846FFF7EFF9D4E9ED104FF47A7207F064
:10402000A5FC424B84EDF0BA4FF47A76C4E9EC3645
:104030004FF0010241F28833C4F8B8331CEE901AF5
:1040400084F8BC23384607F0FFFA3246D4E9FD1065
:1040500007F08CFC4FF00102344B84F8FC231BEE7C
:10406000902AC4F8F0334FF4FA73C4F8F8331DEE15
:10407000101AC4F8F463C4F80024384607F0E4FAD0
:104080003246D4F83414D4F8380407F06FFC274BC8
:10409000C4F8303442F21073C4F838341BEE101AEE
:1040A000C4F83464384684F83CA407F0CDFA3246AC
:1040B000D4F87414D4F8780407F058FC1B4BC4F8F7
:1040C00070341BEE901AC4F87464C4F878643846EF
:1040D00084F87CA407F0B8FA3246D4F8B414D4F8C3
:1040E000B80407F043FC96234FF00102C4F8B4640F
:1040F00022E000BF841E02081C2B0208B42A02081A
:10410000402A0208B8230208D01C020890260208A0
:1041100008230208740E0208C4270208D4280208E3
:10412000B01602086C1E0208C93B0008C59714FFB0
:10413000401B0208F81B0208C4F8B8340726A74B36
:10414000C4F8B0341DEE901AA4F8C064A4F8C624D4
:10415000384607F08BFA4FF07F42C4F87C23039A6D
:10416000C4F868231CEE101A3846A4F8805384F86B
:104170006CA307F069FA1AEE100AD3225521FEF754
:1041800043FD4FF008021AEE100AADF82820A4F8FB
:10419000042509A90AAAADF8246008F092FF19EED7
:1041A000100ADA225146FEF72FFD04AE4FF07F428F
:1041B00019EE101AC4F838253046A4F83C5508F01A
:1041C00095FC96E8070004F2445383E80700844B0B
:1041D0000A9319EE100A06230AA9ADF82C3008F04C
:1041E00015FFA82251464846FEF70EFD4FF07F43CB
:1041F000C4F88035D4F85035A4F88455D3F8843009
:1042000049463046984796E8070004F28C5383E805
:10421000070004F234630393724B1B682BB9724B93
:10422000724A602172481BF067F9724B1B88032B9E
:1042300003D8714B6D4A6121F4E7704B0321186874
:1042400000F044FA082103466D4A03980EF0C8FDB9
:10425000039AC4F89825484608F0B8FE0523604A3A
:10426000ADF82C300AA948460A9208F0CFFEB722D2
:1042700018EE100A5146FEF7C7FCD4F89C35A4F896
:10428000D0554FF07F41D3F88430C4F8CC15304678
:1042900018EE101A984796E8070004F5BB6383E808
:1042A000070004F2446103914E490B68002BB6D01D
:1042B00050480388022BBCD9504B5146186800F077
:1042C00005FA082103464E4A03980EF089FD039A29
:1042D000C4F8E42518EE100A08F078FE4FF0040C3C
:1042E000ADF82CC00DF1280C61463D4A0A9218EE3B
:1042F000100A08F08BFEC62251464046FEF784FCA9
:10430000D4F8E835A4F81C564FF07F4C3046D3F86B
:104310008430C4F818C64146984796E8070004F26E
:10432000246383E807002F490B6804F25466002BCE
:104330003FF475AF2F480388002B3FF47AAF2F4B23
:104340002946186800F0C2F92D4A03460A21304672
:104350000EF046FD4046C4F83066251D08F036FED6
:104360001F4A0A924FF001030AA94046ADF82C30CB
:1043700008F04CFE18EE901A284605F087FC5946C6
:10438000284605F083FC1AEE901A284605F07EFCBC
:1043900019EE901A284605F079FC3946284605F0B2
:1043A00075FC1AEE101A284605F070FC19EE101A6A
:1043B000284605F06BFC4946284605F067FC18EED8
:1043C000101A284605F062FC2846414605F05EFCBE
:1043D00020460DB0BDEC0C8BBDE8F08FC59714FFE7
:1043E000740E0208BC7501203C150208FB1A020875
:1043F000B9150208C075012000160208C875012011
:10440000331B02087047000030B5164D2C78BFF3FF
:104410005B8F14F001048DB020D128461BF040F8CA
:10442000E0B13F230793104B0693104B05930123F4
:10443000CDE90333029304220223CDE900320C4973
:104440000C4808940A232822CDE90944FEF740FAD3
:1044500009481BF06FF828461BF02EF805480DB0F0
:1044600030BD00BFA4660020CC4502080C460208FF
:104470004C410208A866002005440008704700006F
:1044800030B5164D2C78BFF35B8F14F001048DB05E
:1044900020D128461BF004F8E0B13F230793104BCE
:1044A0000693104B05930123CDE9034302930422A5
:1044B0000323CDE900320C490C4808940F23252230
:1044C000CDE90944FEF704FA09481BF033F8284601
:1044D0001AF0F2FF05480DB030BD00BFD0660020D5
:1044E000E4450208104602087C430208D466002016
:1044F0007D4400087047000030B5154D2C78BFF39F
:104500005B8F14F001048DB01FD128461AF0C8FF4C
:10451000D8B13F2307930F4B06930F4B0F49104819
:104520000894CDE9044304220123CDE9012300933B
:1045300005222823CDE909440394FEF7C9F9094867
:104540001AF0F8FF28461AF0B7FF05480DB030BD45
:10455000FC660020F845020814460208844502085B
:1045600000670020F54400080020704700207047D5
:104570000EB403B503AB002153F8042B01930CF0E8
:10458000E7FA02B05DF804EB03B070470CB407B56E
:1045900004AB53F8042B01930CF0DAFA03B05DF886
:1045A00004EB02B070470000436C10B5044673B3CF
:1045B000038F2BB9184B194AC02119481AF09CFFD8
:1045C000C38E00EB43035B8C0BB30DF05AFE238FBD
:1045D000012B03D8134B144AC521EEE7E28E531C7E
:1045E0009BB2092B194688BFA3F10A0104EB4101D4
:1045F00040F63F10498C814209D10A2B04EB42025C
:1046000028BF002304EB4303508C58845184204678
:10461000BDE810400DF038BDB41E0208BD1E0208F2
:10462000681F0208B21F0208C01F02080DF0F3BC89
:1046300010B586B002AC84E806001A460AAB0593B2
:104640000193099B00932146089B0AF086FF06B060
:1046500010BD000038B518BB124B13481B68134936
:10466000B3B11A689C681A4402605A681A440A6016
:104670001C440F4B00221A8000F038F8054600F069
:1046800033F80C4B1C600C4B1D600C4B188007E082
:104690000B4B03600B4B0B600B4B1C68002CE8D1E1
:1046A00038BD00BF286700202C670020306700203D
:1046B00034670020BC750120C4750120C07501203D
:1046C0004C46020818460208A4470208044B1B681F
:1046D00053F82100034B1B6803EB4000704700BFF9
:1046E000306700202C6700200D207047004870477D
:1046F0003867002010B5FFF7C3FE044C2060FFF7B9
:10470000FBFE6060FFF780FEA06010BD38670020F0
:10471000704710B54FF4AC7104461AF0BFFE204646
:1047200010BD10B50446D0F8540100F013F820462F
:10473000BDE810400BF08ABA10B50446FDF7C8FE7C
:10474000014B2360204610BD9C200208002202601D
:104750007047000070B5044600680A4D03689B6806
:104760009847D5F8843833B120680368DB689847E8
:104770000023C5F8843820680368BDE870401B69D1
:10478000184700BFC45D0020704770477047043869
:1047900070477047C06803689B6B1847A0F104001E
:1047A000FFF7F8BF10B5102104461AF077FE204637
:1047B00010BDA0F10400F5E710B500228260044AA4
:1047C000C16002F1080424320460426010BD00BFE1
:1047D000E020020870477047034B1A68034B9A6049
:1047E0000122DA60704700BF14000020C42D0020B1
:1047F0000B4B1A6810B50A32B2F5C87FC8BF4FF428
:10480000C8721A6004461B68064A0A2100F56C70DB
:104810000EF0E6FA04F51770BDE810400CF0B9BAD6
:1048200014000020182102080A4B1A6810B50A3A31
:10483000092AD8BF0A221A6004461B68064A0A21C0
:1048400000F56C700EF0CCFA04F51770BDE810405E
:104850000CF09FBA1400002018210208FEF7ABB834
:1048600013B5094B094A1B680193044601AB0A21A1
:1048700000F571700EF070FC04F5597002B0BDE8DF
:1048800010400CF086BA00BFC42D00201B21020886
:1048900010B54FF47E7104461AF000FE204610BD9C
:1048A00010B50446FEF7F4FA074B2360074B084A9D
:1048B0001B680A2104F56C700EF092FA04F517706B
:1048C0000CF067FA204610BD2821020814000020D1
:1048D0001821020870477047043870477047C06855
:1048E00003681B6B1847A0F10400FFF7F8BFC0680E
:1048F00003685B6B1847A0F10400FFF7F8BF10B521
:10490000102104461AF0CAFD204610BDA0F1040093
:10491000F5E7000010B500228260044AC16002F190
:10492000080428320460426010BD00BF6421020800
:10493000704770470346174AD3ED4D7A92ED007ADF
:10494000F8EEE77A00F5807067EE877AF5EEC07AC8
:10495000F1EE10FA09DBB6EE007A77EE877AFDEE1B
:10496000E77A17EE901A07F05BB8BDEEE77AF8EE3B
:10497000C76A17EE103A77EEE67AF7EE086A77EE36
:10498000A67A591EFDEEE77A17EE903A0B441946C7
:10499000E9E700BFC42D002010B541F638110446E8
:1049A0001AF07CFD204610BD10B50446FFF761F8F3
:1049B000D4F8B4349FED476A07EE903AB8EEE77A40
:1049C00027EE067AB5EEC07AF1EE10FA46DBF6EE87
:1049D000007A37EE277AFDEEC77A17EE903A002B71
:1049E000B8BF5B42C4F8B834D4F8743407EE903AD8
:1049F000F8EEE77A67EE867AF5EEC07AF1EE10FA15
:104A000040DBB6EE007A77EE877AFDEEE77A17EEB6
:104A1000903AD4EDFD7A9FED307AF8EEE77A002BEC
:104A200067EE877AB8BF5B42F5EEC07AF1EE10FA16
:104A3000C4F878343ADBB6EE007A77EE877AFDEE8A
:104A4000E77A17EE903A002BB8BF5B42C4F8F83310
:104A500004F58070BDE810400CF09BB9FDEEC76A0C
:104A6000F8EEE67A16EE903A37EE677AF7EE087AC5
:104A700037EE277A013BBDEEC77A17EE102A1A44AB
:104A80001346ACE7BDEEE77AF8EEC76A17EE103AC8
:104A900077EEE67AF7EE086A77EEA67A013BFDEE4E
:104AA000E77A17EE902A1A441346B2E7BDEEE77A8A
:104AB000F8EEC76A17EE103A77EEE67AF7EE086A74
:104AC00077EEA67A013BFDEEE77A17EE902A1A44BC
:104AD0001346B8E7CDCCCC3DCDCC4C3D37B50F4DD2
:104AE0000F4A2B680193044601AB082100F23460A1
:104AF0000EF032FB6B680A4A0193082101AB04F205
:104B000044600EF029FB04F29C500CF042F904F5CD
:104B1000AA6003B0BDE830400CF03BB9C42D0020C2
:104B20001B21020810B50446FFF7FCF8014B236077
:104B3000204610BDA8210208F02070474FF4A07055
:104B400070472920FCF7D4BE2820FCF7D1BE08B559
:104B5000FCF7A2FECA20FCF7CBFEC320FCF7ACFE9C
:104B60000820FCF7A9FE5020FCF7A6FECF20FCF79A
:104B7000BFFE0020FCF7A0FEC120FCF79DFE302008
:104B8000FCF79AFEED20FCF7B3FE6420FCF794FEE0
:104B90000320FCF791FE1220FCF78EFE8120FCF72B
:104BA0008BFEE820FCF7A4FE8520FCF785FE0020A4
:104BB000FCF782FE7820FCF77FFECB20FCF798FE06
:104BC0003920FCF779FE2C20FCF776FE0020FCF75C
:104BD00073FE3420FCF770FE0220FCF76DFEF72018
:104BE000FCF786FE2020FCF767FEEA20FCF780FE3B
:104BF0000020FCF761FE0020FCF75EFEB120FCF710
:104C000077FE0020FCF758FE1B20FCF755FEB6206F
:104C1000FCF76EFE0A20FCF74FFEA220FCF74CFECC
:104C2000C020FCF765FE1020FCF746FEC120FCF713
:104C30005FFE1020FCF740FEC520FCF759FE452022
:104C4000FCF73AFE1520FCF737FEC720FCF750FEB4
:104C50009020FCF731FE3620FCF74AFEC820FCF716
:104C60002BFEF220FCF744FE0020FCF725FEB020CE
:104C7000FCF73EFEC220FCF71FFEB620FCF738FE14
:104C80000A20FCF719FEA720FCF716FE2720FCF7E8
:104C900013FE0420FCF710FE2A20FCF729FE00205A
:104CA000FCF70AFE0020FCF707FE0020FCF704FEDC
:104CB000EF20FCF701FE2B20FCF71AFE0020FCF78A
:104CC000FBFD0020FCF7F8FD0120FCF7F5FD3F207F
:104CD000FCF7F2FDF620FCF70BFE0120FCF7ECFDE3
:104CE0000020FCF7E9FD0620FCF7E6FD2C20FCF790
:104CF000FFFDC820FCF74AFE2620FCF7F9FD012045
:104D0000FCF7DAFDE020FCF7F3FD0F20FCF7D4FD03
:104D10002920FCF7D1FD2420FCF7CEFD0C20FCF768
:104D2000CBFD0E20FCF7C8FD0920FCF7C5FD4E2089
:104D3000FCF7C2FD7820FCF7BFFD3C20FCF7BCFD72
:104D40000920FCF7B9FD1320FCF7B6FD0520FCF7A0
:104D5000B3FD1720FCF7B0FD1120FCF7ADFD0020DE
:104D6000FCF7AAFDE120FCF7C3FD0020FCF7A4FD41
:104D70001620FCF7A1FD1B20FCF79EFD0420FCF78C
:104D80009BFD1120FCF798FD0720FCF795FD3120D5
:104D9000FCF792FD3320FCF78FFD4220FCF78CFDE1
:104DA0000520FCF789FD0C20FCF786FD0A20FCF7A6
:104DB00083FD2820FCF780FD2F20FCF77DFD0F20D0
:104DC000FCF77AFD1120FCF793FDC820FCF7DEFD0F
:104DD0002920FCF78DFDBDE808402C20FCF788BD9C
:104DE00008B5FCF759FD0321D320FCF79DFD80B2E7
:104DF00008BD10B5C4B2022203212046FCF702FD13
:104E00000A20FCF747FD204600220321FCF7FAFCAC
:104E1000BDE810400220FCF73DBD38B50446E4B2C1
:104E2000FCF7EEFC00212046FCF704FD01210546BD
:104E30002046FCF7FFFC40EA052080B238BD10B5E3
:104E4000C4B240212046FCF7F5FC030607D54C21EF
:104E50002046FCF7EFFC003818BF012010BD0122EE
:104E60004B212046FCF7CEFC204600224B21FCF7CC
:104E7000C9FC0020F2E773B50423C4B20E46154600
:104E8000D7210DEB03022046FCF7EEFC019B1BBA79
:104E90001A0DC3F30B23328020462B8001224B21B5
:104EA000FCF7B0FC00224B212046FCF7ABFC02B023
:104EB00070BD000010B50A4B1A78904204460DD020
:104EC000597888420AD00AB141B901229C54FCF7B2
:104ED00097FC2046BDE81040FFF78BBF10BD00BF18
:104EE0004467002010B5C4B209212046FCF7A2FC9B
:104EF00040F00100C2B209212046BDE81040FCF795
:104F000081BC10B5C4B209212046FCF793FC0921ED
:104F100000F0FE022046BDE81040FCF773BC38B537
:104F2000C4B20D4620460A21FCF784FC2843C2B2D5
:104F30000A212046BDE83840FCF764BC07B5019063
:104F4000FCF75FFC01981F21FFF7E9FF019803B010
:104F50005DF804EBFFF7C6BF38B5C4B20D46204676
:104F60000A21FCF767FC20EA0500C2B20A212046AC
:104F7000BDE83840FCF746BC10B50446FFF7C1FF5A
:104F800020461F21BDE81040FFF7E6BF10B5C0B2B4
:104F90000C460B21FCF74EFC204010BD1F21FFF7F3
:104FA000F5BF0A46C0B20B21FCF72CBC1F21FFF74E
:104FB000F8BF38B5C4B20D4620461721FCF73AFCBD
:104FC00020EA0500C2B217212046BDE83840FCF7B0
:104FD00019BC70B5C4B2064604212046FCF72AFC71
:104FE000042100F0FB0205462046FCF70BFC30468E
:104FF000F021FFF7DEFF05F0F80220460421FCF760
:1050000001FC492220212046FCF7FCFB0220FCF792
:1050100041FC204601222121FCF7F4FB20469A2284
:105020004121FCF7EFFB204601224A21FCF7EAFB75
:10503000204601224B21FCF7E5FB204600224B21B4
:10504000FCF7E0FB204601225621FCF7DBFB204663
:1050500001225821FCF7D6FB204601224021FCF713
:10506000D1FB2046FF220B21FCF7CCFBBDE87040B2
:105070000220FCF70FBC0000054BD3F8882042F457
:105080007002C3F888204FF000629A60704700BF3A
:1050900000ED00E008B50B4B1A6842F400721A608C
:1050A0001A6842F480621A601A6842F480721A60C8
:1050B000032000F037FA0020FCF726FFFCF780FC05
:1050C000002008BD003C0240034A044B11681B78D5
:1050D0000B441360704700BF486700207C0000202D
:1050E000014B1868704700BF4867002038B5044678
:1050F000FFF7F6FF631C1CBF054B1B78054618BF66
:10510000E418FFF7EDFF431BA342FAD338BD00BFFD
:105110007C00002038B50446002800F09B80056C18
:1051200025B9FCF76DFC656484F83C50236CDB0604
:1051300000F18E80236C23F4885323F0020343F0A4
:1051400002032364444B5A6822F440325A605A687E
:1051500061680A435A60236821695A6822F48072A0
:105160005A605A6842EA01225A605A68A16822F0DD
:1051700040725A605A680A435A609A68E16822F499
:1051800000629A609A680A439A603449A26A8A4225
:1051900052D0996821F07061996099680A439A60C9
:1051A0009A68E16A22F040529A609A680A439A60CB
:1051B0009A6822F002029A609A68217E42EA4102CD
:1051C0009A6094F82020002A3ED05A68616A42F41E
:1051D00000625A605A6822F460425A605A68013983
:1051E00042EA41325A60DA6AE16922F47002DA6214
:1051F000DA6A013942EA0152DA629A6822F40072EC
:105200009A609A6894F8301042EA41229A609A684B
:10521000616922F480629A609A68002042EA8122E1
:105220009A606064236C23F0030343F0010323645A
:10523000002384F83C3038BD9A6822F070629A608E
:105240009A6822F04052B2E75A6822F40062C9E735
:105250000120EDE70120EEE7002301400100000FEF
:1052600082B00023019390F83C30012B60D00123E1
:1052700080F83C3003689A68D20705D59A68D10750
:1052800014D4002002B070479A682A4942F0010203
:105290009A60294A1268B2FBF1F202EB42020192D3
:1052A000019A002AEAD0019A013AF8E7026C22F446
:1052B000E06222F0010242F4807202645A685205F0
:1052C00041BF026C22F4405242F480520264026CEC
:1052D00012F480521CBF426C22F00602426400228B
:1052E00080F83C206FF022021A60144A516811F0D5
:1052F0001F0F134919D18B4207D001F580718B42E2
:105300000CD1526812F01F0FBBD1986810F04050BA
:10531000B7D19A6842F080429A60B3E709498B425C
:10532000AFD1526812F0100FEEE78B42A9D1ECE733
:105330000220A7E740420F00780000200023014030
:10534000002001400022014003689A68520570B5B0
:1053500004460D460BD59B68DE0508D5036C43F06B
:1053600020030364002380F83C30012070BDFFF768
:10537000B7FE064623681A6891070CD56FF0120233
:105380001A60226C42F4007222649A6812F0405F44
:1053900013D00020EAE7681CEDD045B9236C43F038
:1053A00004032364002384F83C300320DEE7FFF786
:1053B00097FE801BA842DDD9F0E7207E0028E8D1C7
:1053C000DA6A12F4700F02D09B685A05E1D4236C9C
:1053D00023F480732364236CDB04DAD4236C43F05E
:1053E00001032364C2E70368D86C7047F7B5002354
:1053F000019390F83C30012B69D0012380F83C30B8
:105400000D6803688E68092DACB234D904EB4402F0
:10541000DF681E3A4FF0070C0CFA02FC27EA0C0773
:10542000DF60DF6806FA02F23A43DA60496806296B
:1054300001EB81022FD8596B053A1F26964021EACD
:1054400006015963596B04FA02F20A435A63304A5F
:1054500093420AD1122D3CD12E4B5A6822F40002FD
:105460005A605A6842F480025A60002380F83C3047
:10547000184603B0F0BD1F6905EB45024FF0070C5D
:105480000CFA02FC27EA0C071F611F6906FA02F2F8
:105490003A431A61CAE70C294FF01F010BD81E6B63
:1054A000233A914026EA01011963196B04FA02F2CA
:1054B0000A431A63CBE7DE6A413A914026EA0101CA
:1054C000D962D96A04FA02F20A43DA62BFE702201B
:1054D000CFE7114B9D4201D0112DC6D10D4B5A681B
:1054E00022F480025A605A6842F400025A600A4B61
:1054F0009D42BAD1094B0A4A1B68B3FBF2F30A2258
:1055000053430193019B002BAFD0019B013BF8E774
:10551000002001400023014012000010780000200C
:1055200040420F000749CA6822F4E06203021204F5
:1055300003F4E063120C134343F0BF6343F40033FE
:10554000CB60704700ED00E0164B30B5DC68C4F36B
:105550000224C4F10705231D042D28BF0425062BB2
:105560004FF0FF338CBF033C002403FA05F521EA1A
:105570000501A34022EA0302A140002841EA0203F8
:10558000ACBF00F16040084A4FEA0313B8BF00F017
:105590000F00DBB2AABF00F56140135480F800335E
:1055A00030BD00BF00ED00E014ED00E0002808DB96
:1055B0004209012300F01F0003FA00F0014B43F8F9
:1055C0002200704700E100E010B5044650B1437975
:1055D00003F0FF0213B90271FCF744FA012363716F
:1055E000002010BD0120FCE710B5044668B1037926
:1055F00003F0FF0213B94271FCF74CFA0223237146
:10560000002001232061237110BD0120FCE710B5AB
:105610004379012B4FF0020317D003710368012275
:105620001C688A4022431A6089B919681A684C07B5
:1056300007D502F03802382A03D15A6842F0010235
:105640005A600123037100234371184610BD196885
:105650001A684903F5D502F46012B2F5601FF0D163
:105660005A6842F00202EBE730B54379012B4FF064
:10567000020318D004680371236840F6FE75954054
:1056800023EA0505D1E900310B4393402B43236006
:105690002368C02101FA02F223EA020201232260F8
:1056A000037100234371184630BD13B50068002410
:1056B0000194019041B9019908310A440192019A7B
:1056C0000020136002B010BD01991431F5E710B548
:1056D000044630B390F8393003F0FF021BB980F86C
:1056E0003820FCF709FA22686168022384F839300F
:1056F000136823F440330B431360536BA16823F00A
:1057000007030B435363136CE16823F47F5323F0C7
:105710003F030B43136400200123E06384F8393016
:1057200010BD0120FCE770477047036870B55E68E4
:105730001D68F207044614D5E90512D51A6822F44B
:1057400080721A60C26B42F00102C26301229A6049
:10575000042380F83930002380F83830436903B1DE
:105760009847B20616D5AB0414D523681A6822F4FC
:1057700000521A6020229A60E36B43F00203E36355
:10578000042384F83930002384F8383063690BB17E
:1057900020469847300716D5290514D523681A687E
:1057A00022F400621A6008229A60E36B43F004035B
:1057B000E363042384F83930002384F838306369C4
:1057C0000BB12046984772070BD56B0509D52368A6
:1057D0001A6822F480621A6004229A602046FFF759
:1057E000A2FFB00714D5A90512D523681A6822F4C0
:1057F00000721A6002229A60E36BE363012384F86B
:105800003930002384F8383023690BB1204698479B
:10581000F20613D5EB0411D523681A6822F48052DE
:105820001A6010229A60E36BE363012384F8393035
:10583000002384F838302046FFF776FF70BD000063
:10584000F0B590F83830012B4FF002032BD0012235
:1058500080F8393080F8382000EB0113D3E9074293
:105860005D6A184F44EA0242093C012C9CBF05F0D6
:105870007F431A434FEA0116036888BF42EA056274
:1058800099B9596A39400A435A62012C82699A616E
:1058900003D8426A22F07F429A62012380F83930AD
:1058A000002380F838301846F0BDD96939400A43E2
:1058B000DA618219012C92691A619CBF25F07F453B
:1058C0001D62EAE7F0FFFC002DE9F74FDFF8C08129
:1058D0006D4ADFF8C09100230D6801249C4004EA62
:1058E0000506AC4340F0B7804C6824F0100C4FEA3A
:1058F000430E03250CF1FF3705FA0EF5012F6FEA71
:10590000050511D8876807EA050ACF6807FA0EF778
:1059100047EA0A078760476827EA060AC4F30017C0
:105920009F4047EA0A074760C76807EA050A8F6889
:1059300007FA0EF747EA0A07BCF1020FC76016D153
:105940004FEAD30A00EB8A0A03F0070BDAF820705B
:105950004FEA8B0B4FF00F0C0CFA0BFC27EA0C0CE8
:105960000F6907FA0BF747EA0C07CAF820700768B7
:105970003D4004F0030707FA0EF73D430560E500DC
:1059800069D54FF0000BCDF804B0D8F844703F4D06
:1059900047F48047C8F84470D8F8447007F480474B
:1059A0000197019F23F0030707F1804707F59C3714
:1059B00003F0030ED7F808A04FEA8E0E4FF00F0C3D
:1059C0000CFA0EFCA8422AEA0C0C4BD005F58065B7
:1059D000A84249D005F58065A84247D005F5806505
:1059E000A84245D005F58065A84243D0484543D03C
:1059F00005F50065A84241D005F58065A8423FD075
:105A000005F58065A8423DD005F58065A8420CBF2C
:105A100009250A2505FA0EF545EA0C05BD6015684D
:105A2000F74314F4803F0CBF3D4035431560556883
:105A300014F4003F0CBF3D4035435560956814F4A5
:105A4000801F0CBF3D4035439560D568A40254BF0C
:105A50003D403543D5600133102B7FF43DAF03B09B
:105A6000BDE8F08F5D46D5E70125D3E70225D1E7F4
:105A70000325CFE70425CDE70525CBE70625C9E7B4
:105A80000725C7E70825C5E7003C014000000240A4
:105A900000380240001402400AB1816170470904D5
:105AA000FBE701684B6913F480634FF0000210D0EC
:105AB0006FF480634B612023026380F83D3080F8EF
:105AC0003E20036C80F83C2043F004030364012073
:105AD0007047184670472DE9F84606460F4691462E
