:020000040800F2
:100000000000032095050008692500086B250008FD
:100010006D2500086F25000871250008000000000C
:100020000000000000000000000000002192000815
:100030007325000800000000B19200081593000825
:10004000E5050008E5050008E5050008E5050008E8
:10005000E5050008E5050008E5050008E5050008D8
:10006000E5050008E5050008E5050008E5050008C8
:10007000E5050008E5050008E5050008E5050008B8
:10008000E5050008E5050008E5050008E5050008A8
:10009000E5050008E5050008E5050008E505000898
:1000A000E5050008E5050008E5050008E505000888
:1000B000E5050008E5050008E5050008E505000878
:1000C000E5050008E5050008E5050008E505000868
:1000D000E5050008E5050008E5050008E505000858
:1000E000E5050008E5050008E5050008E505000848
:1000F00075250008E5050008E5050008E505000888
:10010000E5050008E5050008E5050008E505000827
:10011000E5050008E5050008E5050008812500085B
:10012000E5050008E5050008E5050008E505000807
:10013000E5050008E5050008E5050008E5050008F7
:10014000E5050008E5050008E5050008E5050008E7
:10015000E5050008E5050008E5050008E5050008D7
:10016000E5050008E5050008E5050008E5050008C7
:10017000E5050008E5050008E505000800000000A9
:10018000E5050008E5050008E5050008E5050008A7
:10019000E5050008E5050008E5050008E505000897
:0C01A0008D250008E505000899250008E1
:1001B00010B5054C237833B9044B13B10448AFF3A1
:1001C00000800123237010BD6C010020000000009E
:1001D0002820020808B5034B1BB103490348AFF3BD
:1001E000008008BD000000007001002028200208E7
:1001F00001F0FF01102A2BDB10F0070F08D010F8D8
:10020000013B013A8B422DD010F0070F42B3F6D1DB
:10021000F0B441EA012141EA014122F007047FF0F4
:1002200000070023F0E80256083C85EA010586EA4B
:10023000010685FA47F5A3FA87F586FA47F6A5FA87
:1002400087F68EB9EED1F0BC01F0FF0102F0070293
:1002500032B110F8013B013A83EA010313B1F8D13E
:100260000020704701387047002D06BF354603381F
:10027000073815F0010F07D1013015F4807F02BF58
:10028000013015F4C03F0130F0BC0138704700BFA9
:1002900053B94AB9002908BF00281CBF4FF0FF31ED
:1002A0004FF0FF3000F074B9ADF1080C6DE904CEE9
:1002B00000F006F8DDF804E0DDE9022304B0704741
:1002C0002DE9F047089D04468E46002B4DD18A4209
:1002D000944669D9B2FA82F252B101FA02F3C2F13C
:1002E000200120FA01F10CFA02FC41EA030E9440CD
:1002F0004FEA1C48210CBEFBF8F61FFA8CF708FBEE
:1003000016E341EA034306FB07F199420AD91CEBC5
:10031000030306F1FF3080F01F81994240F21C81F7
:10032000023E63445B1AA4B2B3FBF8F008FB10333F
:1003300044EA034400FB07F7A7420AD91CEB040474
:1003400000F1FF3380F00A81A74240F20781644444
:10035000023840EA0640E41B00261DB1D4400023C9
:10036000C5E900433146BDE8F0878B4209D9002D2D
:1003700000F0EF800026C5E9000130463146BDE8B7
:10038000F087B3FA83F6002E4AD18B4202D3824221
:1003900000F2F980841A61EB030301209E46002DD0
:1003A000E0D0C5E9004EDDE702B9FFDEB2FA82F225
:1003B000002A40F09280A1EB0C014FEA1C471FFA83
:1003C0008CFE0126200CB1FBF7F307FB131140EA6A
:1003D00001410EFB03F0884208D91CEB010103F137
:1003E000FF3802D2884200F2CB804346091AA4B2F9
:1003F000B1FBF7F007FB101144EA01440EFB00FECD
:10040000A64508D91CEB040400F1FF3102D2A64531
:1004100000F2BB800846A4EB0E0440EA03409CE7D0
:10042000C6F12007B34022FA07FC4CEA030C20FA7D
:1004300007F401FA06F31C43F9404FEA1C4900FA9D
:1004400006F3B1FBF9F8200C1FFA8CFE09FB18111A
:1004500040EA014108FB0EF0884202FA06F20BD98D
:100460001CEB010108F1FF3A80F08880884240F2DD
:100470008580A8F102086144091AA4B2B1FBF9F021
:1004800009FB101144EA014100FB0EFE8E4508D91C
:100490001CEB010100F1FF346CD28E456AD90238A1
:1004A000614440EA0840A0FB0294A1EB0E01A14286
:1004B000C846A64656D353D05DB1B3EB080261EBF4
:1004C0000E0101FA07F722FA06F3F1401F43C5E9CE
:1004D000007100263146BDE8F087C2F12003D84004
:1004E0000CFA02FC21FA03F3914001434FEA1C4746
:1004F0001FFA8CFEB3FBF7F007FB10360B0C43EA38
:10050000064300FB0EF69E4204FA02F408D91CEBE7
:10051000030300F1FF382FD29E422DD902386344E5
:100520009B1B89B2B3FBF7F607FB163341EA034185
:1005300006FB0EF38B4208D91CEB010106F1FF38D4
:1005400016D28B4214D9023E6144C91A46EA0046CB
:1005500038E72E46284605E70646E3E61846F8E65D
:100560004B45A9D2B9EB020864EB0C0E0138A3E7A6
:100570004646EAE7204694E74046D1E7D0467BE787
:10058000023B614432E7304609E76444023842E7FF
:10059000704700BFDFF834D0002103E00C4B5B58FC
:1005A000435004310B480C4B42189A42F6D30B4A85
:1005B00002E0002342F8043B094B9A42F9D305F0CC
:1005C00001FE20F055FD01F043F9704700000320C3
:1005D00060390C08000000206C0100206C01002034
:1005E000105B0120FEE700F039BC00F0A9BC7047A9
:1005F00010B50421044620F047FB204610BD000042
:1006000038B50C4B0C4C18800C4B82201980636859
:10061000984740F6110398420AD1094D23682C608F
:10062000822098472B688220DB689847002038BDDD
:100630000120FCE788010020540000208A010020EE
:100640008C0100204FF4A071F020FFF7D9BF00000B
:10065000F7B52D4D2B6804461B698220984780B260
:100660002080002843D02B680DF106025B6901A9A8
:1006700082209847BDF80620A2F5B47292B20A2AE9
:1006800037D90B23B2FBF3F2204B1B889A4201D9D6
:10069000013B9AB2BDF8043040F6B8318B422AD8FB
:1006A000C3F571630E339BB20F21B3FBF1F318490D
:1006B00009888B4201D94B1E9BB2164E164D3068ED
:1006C0002F68834281B28CBF591AC91AB8B2BA4294
:1006D0008CBF101A801A89B280B201440529C8BFA4
:1006E00033603368C8BF2A6063802B68A38003B07F
:1006F000F0BD0022CEE7C3F56D6308339BB20E2B2D
:10070000D2D80023D9E700BF8C0100208A01002045
:1007100088010020900100209401002037B5684630
:100720000D461446FFF794FFBDF8000030B1BDF848
:1007300002302B60BDF804302360012003B030BDCF
:10074000704770477047012380F8741080F8753047
:100750007047002070470000034B4164003918BF08
:1007600001211970704700BF6358012000207047B5
:10077000836B0BB10846184770474FF6FF70704700
:10078000406803689B69184770477047704700F0DE
:1007900077BC08B503680446D3F8803098472368CF
:1007A00020469B6F984700F0EBF8236820461B6FAC
:1007B0009847292001F05EFB00F0E2F8236820460C
:1007C0001B6F9847F8E710B504460BF04BFC236805
:1007D0002046D3F8AC30BDE81040184700F042BCCA
:1007E00000F046BC00F072BC00F018BC00F072BC17
:1007F00000F07ABC00F01CBC0AF0A8BE10B57C2149
:10080000044620F041FA204610BD90F877301BB125
:10081000406803681B6818471846704710B590F881
:10082000341090F874400C4B8C421A7809D03AB9C5
:100830000A4A0B491488088810800C8001221A701B
:1008400010BD002AFCD0054A05491488088810808C
:100850000C800022F3E700BF5C58012058580120AB
:100860005A58012070B50D46194635B9094B0A4A48
:100870000A4840F2D22120F0BBFAC0E90F52084BDF
:10088000003A18BF01221A700368BDE87040D3F81F
:100890008C30184798200208D02002081E21020838
:1008A0006258012008B5094B1B888B4203D8084BBE
:1008B0001B88934205D9074B074A08489E2120F020
:1008C00097FA074B1980074B1A8008BD585801202A
:1008D0005A58012063210208C62102081E2102087D
:1008E0005E58012060580120012108B50022084609
:1008F00008F068F90A4B186028B90A4B0A4A2921FE
:100900000A4820F075FA00220421012008F020FA9C
:10091000074B186018B9074B034A2D21F0E708BDB3
:100920009C010020E42202082D2302085C23020817
:1009300098010020D6230208024B4FF0FF311868BF
:1009400008F096B99C010020014B186808F0CAB95C
:100950009C010020024B0021186808F089B900BFF3
:100960009C010020FFF7F0BF034804490068002302
:100970001A4608F033BA00BF980100200400002096
:1009800013B5084C00231A4601A9206808F068FA3C
:1009900020684FF0FF33002201A908F061FA02B08D
:1009A00010BD00BF9801002003685B6C1847012050
:1009B000704703689B6A184782B0002301930D4B70
:1009C0001A6B42F400021A631A6B02F400020192DD
:1009D000019A1A6942F400021A611A6922F40002AB
:1009E0001A61054B054A1A61054B4FF080629A6007
:1009F00002B0704700380240B43A0020450A0008AF
:100A000000E100E040F2EF3070470000054B03606A
:100A1000054B4FF08062C3F88820BFF34F8FBFF3C0
:100A20006F8F7047A025020800E100E010B5044672
:100A30004FF45A61FFF7EAFF204620F025F92046DF
:100A400010BD0000024B1B68586803685B691847BB
:100A50006458012070B5044625460A4B0C30002628
:100A600060602672667245F8203B602229460BF0D2
:100A70004FFC04F55A63EE602435AB42FBD12046AF
:100A800070BD00BFA025020808B50B290BD8DFE810
:100A900001F01206100A0A0A0A08080808080120CC
:100AA00008BD0520FCE7054B054A0648672120F0F4
:100AB0009FF90020F4E70220F2E700BF18240208A3
:100AC000332402087D24020808B50A2909D8DFE882
:100AD00001F010060E0808080806060606000120A8
:100AE00008BD054B054A0648882120F081F9002001
:100AF000F6E70220F4E700BF18240208F5240208F4
:100B00007D2402082DE9F8434F7F0C463946814683
:100B1000FFF7BAFF94F81E80054641464846FFF7A6
:100B2000B3FF414606464846FFF7CEFFA18A628BD7
:100B3000424B521A1A649A61228B521A1A61E28A43
:100B4000586342EA01425A6420696268D863DA60F5
:100B5000216894F81CC080294FEA0C6226D010D876
:100B6000202945EA020461D040295FD004295DD0E4
:100B7000324B2A4342F400324745DA615AD0304AB8
:100B800040E0B1F5807F07D0B1F5007FF0D142F4AD
:100B9000003242F0090203E042F4003242F00A025D
:100BA000DA61E2681A625E6258612AE0A4682A4348
:100BB00042F40032211DD962DA6122785E62586106
:100BC00042B1012A21D01F4B1F4A20484FF489719E
:100BD00020F00EF9DA69618822F47F42013922F0AF
:100BE000100242EA0122DA610120144BDA6942F074
:100BF0002002DA61DA699206FCD410229A60002899
:100C0000BDD0134A1A60BDE8F8836288D969541EC2
:100C100021F47F4222F0100242EA0422BCF1FF00DC
:100C200042F0100218BF0120DA61DEE744F400341C
:100C3000DC61B8E740F20122E4E700BF00B0024007
:100C400001020100402502085A2502087D240208FD
:100C50000102020070B50C46897FFFF735FFA68AB6
:100C6000E18A628B154B2569586341EA0641921B64
:100C70005964DD631A642668E168082E0DD19A6113
:100C80001A615862207F0E4A42EA0062DA610D4A18
:100C900019625D61DD601A6070BD0022D8611A6161
:100CA00048090A0A02F4784200F4FC600243C1F3E6
:100CB000C4010A439A63044AEDE700BF00B0024052
:100CC000090001000102020001020300034B1A683F
:100CD000D207FCD423229A60704700BF00B00240C4
:100CE00030B50F4C2568ED07FCD423250904A56019
:100CF00041F001010225FF2B65636164E0630AD0C6
:100D00000849656241EA0363E361074B226260615F
:100D1000E060236030BDE561039BA363034BF8E70C
:100D200000B00240090001000100020001000300C0
:100D30000120704738207047382303FB010008303A
:100D40007047382303FB01000830704701207047CB
:100D500042F29C70704742F29C7303FB0100083022
:100D6000704742F29C7303FB01000830704701207A
:100D700070471020704700EB01100830704700EBFF
:100D8000011008307047084601F092BF10B5034BC0
:100D9000036004460AF00FF8204610BD58260208EA
:100DA00010B50446FFF7F2FF204640211FF06CFF0C
:100DB000204610BD10B5034B0360044609F0FBFF4D
:100DC000204610BD2426020810B50446FFF7F2FFA6
:100DD000204642F2A4711FF057FF204610BD0000CC
:100DE00010B5034B0360044609F0E5FF204610BD33
:100DF000F025020810B50446FFF7F2FF204618213F
:100E00001FF042FF204610BD10B5094B0360044699
:100E100000F51F501030FFF7B9FF04F12C00FFF769
:100E2000C9FF04F11400FFF7DBFF204610BD00BF2F
:100E30008C26020808B50248FFF7E6FF08BD00BF90
:100E4000A401002010B50446FFF7DEFF204642F65D
:100E50006C111FF019FF204610BD00002DE9F34171
:100E600001F00EFC054601F00FFC0024014623466C
:100E700028462246009413F007FE254B254A264DAE
:100E80001A60204604F0EEF9244813F065FD2B7833
:100E9000BFF35B8FDB0735D428461FF0F7FE88B31E
:100EA0001F4C204B204F236004F1140000F5205606
:100EB00004F12C086060C4F80880E760266109F03E
:100EC0007BFF1A4B6361404609F076FF184BE362E3
:100ED000384609F071FF04F50053164AC3F8D027CD
:100EE00003F5016004F03AFA2246311F304604F05F
:100EF0002BFA304601F0DCFE0F481FF097FF284622
:100F00001FF0D0FE0D4802B0BDE8F041FFF73FBC36
:100F1000C858012030390020A0010020080000201E
:100F2000A40100208C26020874290020F025020864
:100F30002426020858260208350E0008B43800207E
:100F40000148FFF726BC00BFB438002070B5234C21
:100F5000234E244B244D23603046FFF77BFD28466B
:100F600016F09CFE214B2248DC60224C03600022DC
:100F7000F0204FF480712080C3E912121E4C1F49EB
:100F80002080C3E919121E4C1A864FF080714FF46D
:100F9000A07059670121C3E90422C3E90622C3E90D
:100FA0000822C3E90A22C3E90E22C3E91022C3E9D9
:100FB0001422C3E916221A6683F86C201A67C3E963
:100FC000016583F8781020800E4C83F8341020805F
:100FD0000D4802700D4A1A6070BD00BF102B002032
:100FE000142B00208820020834390020B438002057
:100FF00064580120585801205E580120010000016A
:101000005A580120605801205C580120142202081F
:101010000148FFF7FBBC00BF142B0020034B9022BC
:1010200083F85A2383F85823704700BF00E100E09B
:10103000094A0A49D3680A48C3F30A03013B9BB231
:101040000B801169C1F30A01013901801364536BEC
:1010500043F001035363704700680140B03900203A
:10106000AE390020014BD3F8AC0070470068014056
:10107000024B0122C3F8AC105A627047006801406D
:1010800070B504460AF0B7FA23685D6E10F0E0FA16
:1010900001462046A8472368054AD3F888502046D1
:1010A000AC460023BDE87040A2F51631604700BF92
:1010B000005802D00AF086BA90F84B3013B1024BB8
:1010C00001221A700AF08ABAAC3900200AF044BA38
:1010D0000AF09DBB034B4FF080629A604FF0807224
:1010E0009A60704700E100E0084B4FF08062C3F85F
:1010F0008820BFF34F8FBFF36F8F4FF08072C3F81C
:101100008820BFF34F8FBFF36F8F704700E100E07F
:1011100010B5144C236823B3134B144A1B6C11886D
:101120008B4213D1124B198806F03AFB226892F8D1
:101130006630013382F86630FFF716FC20680AF04B
:1011400091FFBDE810400020FFF7FABA06F028FB37
:10115000206803681B6A9847BDE810400020FFF72D
:10116000F0BA10BD6458012000680140B039002079
:10117000AE39002007B5064BADF806001B680548E0
:1011800001220DF1060107F01CF803B05DF804FB25
:1011900010000020243C0020104982B0002303F5F9
:1011A000367201EB820292ED017ADDED017A0133B4
:1011B00077EE877A3C2BCDED017AF0D1DDED016A37
:1011C000DFED077A074B86EEA77A83ED007A9DED77
:1011D000010A80EE270A02B0704700BFBC3C002025
:1011E00000007042284900206FF00103584300F6C8
:1011F0003C7040F6FF739842A8BF184640F61C4367
:101200009842B8BF184670472DE9F04F2DED028B7C
:10121000774C08EE900A83B0002604F6644595EDFD
:10122000007AD4ED047A9FED738AF8EEE77A67EEE0
:10123000887AB4EEE77AF1EE10FA14DC95ED007AD4
:10124000D4ED047ADFED6C6AF8EEE77A67EEA67A01
:10125000B4EEE77AF1EE10FA05D4304603B0BDECF7
:10126000028BBDE8F08F654FDFF8ACB1DFF8ACA1C1
:1012700001360A233846019305F098F84FF0FF3104
:10128000384605F007F9DFF89891DFF8988138467D
:1012900005F04FF9D9F800100844C9F80000584685
:1012A00005F084F84FF0FF31584605F0F3F8584642
:1012B00005F03FF9D8F800100844C8F8000050467F
:1012C00005F074F84FF0FF31504605F0E3F8504652
:1012D00005F02FF94A4B196808441860019B013B3F
:1012E000C8D1474B47491A68DFED476A0A20B2FB6D
:1012F000F0F207EE902AB8EEE77A81ED007A91EDF0
:10130000007AC6EE877AC1ED007AD9F80020B2FBE8
:10131000F0F307EE903A91ED007AF8EEE77A67EE97
:10132000877A9FED3A7AC7EE876AC4ED006AD8F8EB
:101330000030B3FBF0F307EE903AD1ED006AF8EE1F
:10134000E77A67EEA67AC7EE876AC5ED006A95ED83
:10135000007AD4ED007ADFED286A37EE677ADFEDA8
:101360002C7A27EE277A85ED007AD5ED007A94ED78
:10137000047AB8EEC77A27EE267AF4EEC77AF1EE51
:1013800010FA21D5D4F8783C013BC4F8783C18EE2B
:10139000900AFFF729FFD4F8783C00EB030A534684
:1013A0001C480022102105F026FAAAF1020A40F694
:1013B000FB739A454FF0000317D8114AC9F8003063
:1013C000C8F8003013602AE795ED007AD4ED047A6E
:1013D000F8EEE77A67EE887AB4EEE77AF1EE10FA83
:1013E000D5DDD4F8783C0133CFE71E4635E700BFA2
:1013F000BC3C00200AD7833FEC51783F503A002094
:10140000544900202C4900209AD79A4500F07F4586
:1014100000007A44A03A0020083A0020C039002099
:10142000444900204C4900202DE9F347C64DA5F161
:101430000C06C64CD4F8543C002B00F0F08000237E
:10144000C348C4F8543CDFF84493DFF84483C14FE9
:1014500004F0ACFFBE4805F06CF8D9F80030184431
:10146000C9F80000BC4804F0A1FFBB4805F061F8D2
:10147000D8F800301844C8F80000B84804F096FFC7
:10148000B64805F056F83B6818443860B44802681E
:101490000A210132026092FBF1F301FB1322002AC0
:1014A00040F0BD803B68B3FBF1F307EE903AF8EEF5
:1014B000E77ADFEDAC6AC5ED007A95ED007AC6EE0D
:1014C000877AC5ED007AD9F80020B2FBF1F307EE78
:1014D000903A95ED007AF8EEE77A67EE877A9FED1D
:1014E000A27AC7EE876AC4ED006AD8F80030B3FB71
:1014F000F1F307EE903AD5ED006AF8EEE77A67EE81
:10150000A67AC7EE876AC6ED006AD6ED007A94ED3A
:10151000007ADFED966A77EEC77A9FED957A67EEEF
:10152000877AC6ED007AD6ED007AF5EEC07AF1EE54
:1015300010FA9CBF0023336096ED006A94ED027AA6
:10154000C6EE267A77EE877AC4ED027A94ED007AB9
:10155000DFED887AB4EEE77AF1EE10FA4CBF0123A2
:101560000023C4F8743CA369002B51D0D4F8603C2C
:10157000002B07DC236823627F4B22681A6001235B
:10158000C4F85C3C94ED007AD4ED017AB4EEE77ACD
:10159000F1EE10FAC4BF2368636094ED007AD4EDD5
:1015A000037AB4EEE77AF1EE10FA44BF2368E36001
:1015B000D4F8683C23B9D4F8603C0133C4F8603CEB
:1015C000DFF8D0A10123C4F8583CDAF800302168D4
:1015D0005A1C03F5367304EB83033B2ACAF8002038
:1015E000596015DDFFF7D8FDD4F8683C53B9D4F83D
:1015F000603C3C2293FBF2F35F4A083304EB830325
:1016000012681A600023CAF800300123C4F85C3C59
:101610000023C9F800300360C8F800303B60A369BC
:10162000012B40F08580E369002B40F0818094ED30
:10163000007ADFED527AB4EEE77AF1EE10FA77D560
:10164000206900EBD0704010FFF7DEFD94ED007ACA
:10165000DFED4B7AB4EEE77AF1EE10FAC4BF012366
:10166000C4F8683CD4F8603CB3F5966F3DDDD4F81F
:10167000603C3C2793FBF7F3083304EB830393EDC3
:10168000007AD4F8603C93FBF7F30B3B04EB830345
:10169000D3ED007AB4EEE77AF1EE10FA25D5012207
:1016A00038484FF4005105F09DFAD4F8602C92FBB5
:1016B000F7F2073204EB820292ED007AD4F8603C34
:1016C00093FBF7F30C3B04EB8303D3ED007AB4EE0A
:1016D000E77AF1EE10FA08D52A4801224FF480414A
:1016E00005F080FA0123C4F8683CA269012A09D1F7
:1016F000D4F8601C63694FF4616043439942A8BF0A
:10170000C4F8682CD4F8683C012B02D10A20FFF7FA
:101710007BFDD4F8743C012B06D11B4840F6FF73C7
:101720000022102105F067F8012007F031FA80E669
:10173000A769012F8AD1E369002B87D12069FFF7C0
:1017400063FD0190E76181E72C490020BC3C00204B
:10175000503A002050490020083A0020C0390020AB
:10176000384900209AD79A4500F07F45000061452E
:1017700000007A443333333F284900206666663FD1
:10178000CDCCCC3F00180240A03A002040490020B8
:10179000484900203C490020F0B5A1B010220021AA
:1017A0000AA81FF0ABFC1422002103A81FF0A6FC1E
:1017B0000021302214A81FF0A1FC0024224B019428
:1017C0001A6C42F080521A641B6C03F08053019330
:1017D000019B1E4B02941A6842F440421A601B6837
:1017E00003F4404302930122029B4FF48033CDE97E
:1017F000082302254FF48003CDE90E5308274FF448
:10180000A873042608A8CDE910731295139605F065
:10181000E5FF0F23CDE903354FF4A0514FF480537A
:10182000CDE9061303A80521059406F0AFF9C023FE
:10183000189314A84FF4003314971A961D9306F0CA
:101840007FFA21B0F0BD00BF0038024000700040B8
:101850002DE980489BB004F0C3FCFFF79DFF1422E4
:1018600000210DA800241FF049FCC64B00941A6B00
:10187000C548C64E42F020021A631A6B02F02002DD
:101880000092009A01941A6B42F080021A631A6B5C
:1018900002F080020192019A02941A6B42F0040253
:1018A0001A631A6B02F004020292029A03941A6BF2
:1018B00042F001021A631A6B02F001020392039ACA
:1018C00004941A6B42F002021A631A6B02F00202CD
:1018D0000492049A05941A6B42F040021A631A6B40
:1018E00002F040020592059A06941A6B42F010022B
:1018F0001A631A6B02F010020692069A07941A6B8A
:1019000042F008021A631B6B03F008030793224698
:101910000421079B05F066F99D4822464FF480514B
:1019200005F060F99B4822464FF4405105F05AF902
:10193000224699484FF4C041012505F053F902278A
:101940004FF0040B904810970DA9CDE90DB50F94F9
:1019500005F060F84FF480528D480DA9CDE90D25B2
:10196000CDE90F4405F056F84FF4405289480DA9CF
:10197000CDE90D25CDE90F4705F04CF80DA94FF441
:10198000C0428548CDE90D25CDE90F4405F042F868
:101990008248834A026004F0BDFE824B824A346270
:1019A000C6E9003230464FF48042C6E90424C6E955
:1019B0000244C6E9064405F0F7FA1021304605F066
:1019C00033FD2146304605F04EFD78487849846263
:1019D0004FF48272C0E900124FF400761822C0E979
:1019E00006620A22734EC262C0E90244C0E904449E
:1019F000C0E9084406F0A8FB6F4A0D974FF01008A5
:101A0000C6E900254022C6E904824FF4C072C6E947
:101A100006244FF4006203234FF0070AC6E90824A6
:101A20000DA94FF400523046CDE911374FF00809A7
:101A3000C6E9024BB262CDE90EAB1397CDF840A0D8
:101A400006F0A8FA4FF6FF7209A93046CDE90A95CB
:101A5000089409950C9406F0BDFA284604F0ECFBB6
:101A60004FF6FF7209A93046CDE90979CDE90B544B
:101A700006F0B0FA03234FF6FF7209A93046CDE90C
:101A80000939CDE90BB406F0A5FA4FF40C720892AF
:101A9000089B0C934FF6FF7209A93046CDE909B9AE
:101AA0000B9506F097FA40F26A51304606F0A9FA13
:101AB000342221460DEB02001FF020FB3F4E404B2D
:101AC000B486C6E9003409234FF01D0CC6E905357C
:101AD0000323C6E907C340F20D1E40F24313C6E9D3
:101AE00009E340F2171940F247133046C6E90B9359
:101AF000C6E90244346186F8364005F059FDFF21FD
:101B0000F022CDE912144FF4806B05214FF4A0733D
:101B1000CDE914B1CDE90E240DA9CDE91642304628
:101B20002246CDE91037274E18930D94ADF8644046
:101B30008DF8664005F007FE234B33601B68DFF825
:101B40009C9098473368214EDB689847204BC6E944
:101B50000A47C6E90C443046C6E90034C6E90274B7
:101B600004F05BFE2946304604F010FF194E1A4A75
:101B7000B46042F2CF03C6E90023304640F2E733B7
:101B8000F3602DE00038024000080240F43A0020E3
:101B900000040240000C024000180240983A002065
:101BA00000300240005C0040A0860100243C002080
:101BB00000500140F03B0020400100A0483B0020C5
:101BC00000680140B83900201C000020B43A002011
:101BD00000B002407C3C002000140040A03A0020ED
:101BE000CDE90D44B46106F049FE0DA93046CDE9BA
:101BF0000D4406F05DFE524BC9F800304846CDE971
:101C00000D4404F097FD42460DA94846CDE90D4428
:101C100004F0D0FD214642460DA81FF06FFA494A54
:101C2000494B94604FF4803BC2E9003B1046474B60
:101C300093621461157682F82040D462D460D56135
:101C400082F83040556104F00BFB3E4ACDF83CA0D1
:101C50000DA91046CDE90D753D4F04F06DFC2146F0
:101C600042460DA81FF04AFA3A4A384BBB62384642
:101C7000C7E9002BBC603C613D7687F82040FC62E0
:101C8000FC60FD6187F830407D6104F0E9FA0DA940
:101C90003846CDE90D55304FCDF83CA004F04CFC52
:101CA000214642460DA81FF029FA2C4A274BBB6259
:101CB0003846C7E9002BBC603C613D7687F8204080
:101CC000FC62FC60FD6187F830407D6104F0C8FA79
:101CD00011230DA93846CDE90D35CDF83CA004F00F
:101CE0002BFCFEF780FC1E4B1E4903F5476248465D
:101CF00011601D4ADA6041460022C3F8784C9A60B0
:101D000004F02BFD40F6FF7322464146484604F09E
:101D100072FD304606F095FC06F0AAFE134A144800
:101D2000214606F0DFFE134B134A18602146134884
:101D300006F0D8FE124B186006F0B4FEFEE700BFB6
:101D400000740040083A0020002101400100000F0B
:101D5000503A002000220140C039002000200140FC
:101D6000BC3C0020333353403333B33FAC2602082E
:101D7000EB050008B4390020D02602082914000819
:101D8000BC390020704770477FB5094B8DF817208C
:101D90001B6802930DF117020123009201930A467A
:101DA0000146044805F0A8F907B05DF804FB00BF40
:101DB0000C000020F43A00207FB500238DF8173086
:101DC000084B1B6802930A4601230DF1170100918D
:101DD00001930146044805F01FFA9DF8170007B06B
:101DE0005DF804FB0C000020F43A00201FB5084CFD
:101DF00024680092CDE901340A46012301460548D2
:101E000005F00AFA003818BF012004B010BD00BF69
:101E10000C000020F43A002004F00EBA08B5064881
:101E20000022042104F0DEFEBDE808400248012241
:101E3000042104F0D7BE00BF0008024038B50B4DA6
:101E4000044601220A484FF4005104F0CBFE002260
:101E50000421284604F0C6FE2046FFF78BF92846E9
:101E60000122BDE83840042104F0BCBE0008024055
:101E7000000C024038B50B4D044600220A484FF4CE
:101E8000005104F0AFFE00220421284604F0AAFE0F
:101E90002046FFF76FF928460122BDE838400421AB
:101EA00004F0A0BE00080240000C0240F7B5144E3A
:101EB000144F05460C4630460022042104F092FEE1
:101EC00000224FF40051384604F08CFE2846FFF7FC
:101ED00051F90D4B0D481B68224601A906F00FFB76
:101EE000384601224FF40051019C04F07BFE30463D
:101EF0000122042104F076FE204603B0F0BD00BFAD
:101F000000080240000C024010000020243C002089
:101F100004F092B90268084B9A4210B5044601D108
:101F200004F078F92268054B9A4202BF044B012263
:101F3000C3F8542C10BD00BF000401400014004041
:101F4000BC3C002082B00E4B00220092596C41F440
:101F500080415964596C01F48041009100990192CB
:101F6000196C41F0805119641B6C03F0805301938C
:101F7000019B0F216FF0010002B004F08BBB00BF8A
:101F80000038024010B514228AB0044600210DEB3F
:101F900002001FF0B3F82368264A93420DD10023B4
:101FA0000093254B5A6C42F480725A645B6C03F4C4
:101FB00080730093009B0AB010BD204A93421ED14B
:101FC0001D4B002101915A6C42F400725A645A6C04
:101FD00002F400720192019A02911A6B42F001021E
:101FE0001A631B6B03F001030293029B0423059306
:101FF0001348032305A9069304F00CFDDBE7114AFF
:102000009342D8D10C4B002103915A6C42F4806268
:102010005A645A6C02F480620392039A04911A6B18
:1020200042F001021A631B6B03F001030493049B4B
:102030000223DCE70020014000380240002101407B
:1020400000000240002201400268094B9A4282B01F
:102050000BD100230193074B1A6B42F480521A6391
:102060001B6B03F480530193019B02B0704700BFC8
:10207000003002400038024010B5044688B01422F7
:10208000002103A81FF03AF82268124B9A421ED191
:1020900003F5E233002101911A6C0F4842F000521F
:1020A0001A641A6C02F000520192019A02911A6BA2
:1020B00042F001021A631B6B03F001030293029BBF
:1020C0002022032303A9CDE9032304F0A3FC08B0D5
:1020D00010BD00BF007400400000024007B50F4B68
:1020E00002689A4216D10022A3F5F0430192196BBF
:1020F00041F4000119631B6B03F4000301930521F4
:102100005A20019B04F0C6FA5A2003B05DF804EB94
:1021100004F0F2BA03B05DF804FB00BF00B0024067
:102120002DE9F043044689B01422002103A81EF0D3
:10213000E5FF2268244B9A4243D1244C24480025D1
:102140000095236B43F004032363236B03F0040324
:102150000093009B0195236B43F001032363236BE2
:1021600003F001030193019B4FF012094FF4007338
:102170004FF001080327042603A9CDE90339CDE96F
:102180000587079604F046FC4FF4807311480796C4
:1021900003A9CDE90339CDE9058704F03BFC02959D
:1021A000236C43F400032364236C03F400030293C1
:1021B000029B236A43F400032362236A23F400038F
:1021C000236209B0BDE8F083005C004000380240A3
:1021D0000008024000000240F0B504468DB0142211
:1021E000002107A81EF08AFF2268574B9A4240F050
:1021F000A88003F55043002500955A6C534842F0DF
:1022000080625A645A6C02F080620092009A0195D2
:102210001A6B42F020021A631A6B02F0200201923C
:10222000019A02951A6B42F001021A631A6B02F0CE
:1022300001020292029A03951A6B42F002021A639B
:102240001A6B02F002020392039A04951A6B42F091
:1022500040021A631A6B02F040020492049A059538
:102260001A6B42F004021A631A6B02F00402059220
:10227000059A06951A6B42F008021A631B6B03F06D
:102280000803069302240E26069B0A944FF48063EB
:1022900007A9CDE907340B9604F0BCFB41F65803BF
:1022A0002B480B9607A9CDE907340927CDE9095436
:1022B00004F0B0FB032327480B9707A9CDE90734A7
:1022C000CDE9095404F0A6FB4FF4706321480B9646
:1022D00007A9CDE90734CDE9095404F09BFB4FF47D
:1022E0000C631D480B9607A9CDE90734CDE90954C5
:1022F00004F090FBC02319480B9607A9CDE90734D9
:10230000CDE9095404F086FB082315480B9607A96C
:10231000CDE90734CDE9095404F07CFB4FF4A05318
:102320000D480B9707A9CDE90734CDE9095404F00E
:1023300071FB58202A46052104F0ACF9582004F01E
:10234000DBF90DB0F0BD00BF006801400014024091
:102350000000024000040240001802400008024051
:10236000000C024010B5044688B01422002103A8D6
:102370001EF0C4FE2268144B9A4223D103F5684331
:10238000002101915A6C114842F480125A645A6C2F
:1023900002F480120192019A02911A6B42F020021B
:1023A0001A631B6B03F020030293029B4FF46072CD
:1023B00002230321CDE903230523CDE9061303A955
:1023C00004F028FB08B010BD00500140001402408A
:1023D00007B50F4B02689A4216D1002203F5093364
:1023E0000192196C41F0200119641B6C03F0200369
:1023F000019305213720019B04F04CF9372003B0ED
:102400005DF804EB04F078B903B05DF804FB00BF9D
:10241000001400402DE9F04186B0002303932B4BBC
:102420001C68002C4FD14FF00108C3F80080284BE6
:1024300000949A6B274842EA08029A639B6B03EA6E
:1024400008030093022703260C25009B01A94FF6E1
:102450003F03CDE90137CDE9046504F0DBFA1E48FE
:10246000059501A9CDE90187CDE9034604F0D2FA2B
:1024700048F233131948059501A9CDE90137CDE993
:10248000034604F0C7FA4FF683731548059501A972
:10249000CDE90137CDE9034604F0BCFA4CF20373F1
:1024A0001048059501A9CDE90137CDE9034604F0AF
:1024B000B1FA60230C48059501A9CDE90137CDE9B2
:1024C000034604F0A7FA06B0BDE8F08158490020A1
:1024D0000038024000140240000802400018024088
:1024E00000100240000C02400004024030B50146DA
:1024F00089B000222C2004F0CDF82C2004F0FCF848
:102500000025154B02955A6C144C42F002025A6495
:102510005B6C03F00203029301A903A8029B05F080
:10252000F1FB05F0DFFB0E4B236040F2E733E36085
:1025300040000C4BB0FBF3F0013860602046256191
:10254000A56006F09BF920B9204606F07AF809B09C
:1025500030BD0120FBE700BF003802405C4900208D
:102560000004014040420F007047FEE7FEE7FEE72F
:10257000FEE77047014806F078B800BF5C490020CC
:10258000014806F072B800BF7C3C0020014805F00D
:102590007DB800BF483B0020014804F06CB900BF83
:1025A000B43A00200120704708B51EF053FC1623F2
:1025B00003604FF0FF3008BD08B51EF04BFC16233A
:1025C0000360FEE770B50D4614460E46731B9C4231
:1025D00001DC204670BDAFF3008006F8010BF5E783
:1025E00070B50D4614460E46731B9C4201DC204616
:1025F00070BD16F8010BAFF30080F5E74FF0FF3028
:1026000070474FF400534B60002070470120704723
:10261000002070470A4A116808B5034609B90949FC
:1026200011601068694603448B4206D91EF012FC03
:102630000C2303604FF0FF3008BD1360FCE700BFC0
:102640009C490020105B0120704710B5042104460E
:102650001EF01AFB204610BD012908B506D002293C
:1026600008D059B902F04AFE006808BD02F046FEE3
:102670004068FAE702F042FE8068F6E70020F4E7DF
:1026800000487047082702080D20704713B5002442
:1026900051B1036801948DF8034001AA9C680DF1C3
:1026A0000303A04702B010BD0846FBE7408970470E
:1026B000808970478088704783798088184480B209
:1026C0007047C07900F07F007047C079C00970473B
:1026D000704710B5082104461EF0D6FA204610BDFA
:1026E0007047704700F596730868496803C37047E0
:1026F0000020704781807047C1807047018170471A
:10270000418170477047704770477047704710B4F9
:10271000C4880368121B84885B6D091B12B25DF8C4
:10272000044B09B218474FF6FF7383814FF0FF3314
:1027300003621368C361106070477047704741605F
:1027400070477047064BC0F848310023C0F84C3141
:1027500000F5A073C0F84401C0F83C31704700BFD9
:102760007528000801230372704790F825201AB1DC
:1027700090F8242002B11860704770477047704786
:10278000704701464068036810315B6E1847014688
:102790004068036810311B6E18477047704710B5CA
:1027A0000022B1F90840B1F90A1002804280848009
:1027B000C18010BD10B4C26841685410034601EBDB
:1027C0006200D20748BF0A599B685DF8044B48BFB6
:1027D000D358184743682BB183682BB9C06800F001
:1027E00001007047184670470120704710B50C2152
:1027F00004461EF049FA204610BD10B510210446CB
:102800001EF042FA204610BD10B54FF4AC710446DC
:102810001EF03AFA204610BD10B5382104461EF0CD
:1028200033FA204610BD10B5282104461EF02CFABC
:10283000204610BD08B50EF00BFFBDE808400FF0B4
:10284000ABBA90F8252012B103685B69184770474E
:1028500010B50446D0F83C0158B10368DB689847CE
:1028600038B1D4F83C0103689B6898470023C4F84A
:102870003C3110BD2DE9F14FD0E9545A0746A86804
:1028800003681B6A9847B0F5C26F05D2454B464AAC
:10289000A32146481EF0ACFA686803681B6A984793
:1028A0000F2803D8424B404AA421F2E7E8680368A6
:1028B0001B6A98470B2803D83E4B3B4AA521E8E703
:1028C000DFF8F8900EF0C4FE0EF0C8FED9F8000054
:1028D00010B10368DB689847D9F8000010B10368AD
:1028E0001B689847DFF8D880D8F8000010B103685B
:1028F0005B699847D7F8380110B103685B6898475F
:10290000D8F8000010B103681B689847D7F8380161
:1029100010B103689B689847E868036800215B6A08
:1029200098474FF0000B244B03600446C0F804B0F6
:1029300080F808B0A868036859465B6A984706465D
:1029400002F01AFE6868036859465B6A9847314688
:10295000054602F065FDC9F80040C7F83851C8F8CF
:102960000060E5B12B1DCAF800303368C5F808A037
:102970003046DB68F56398472B6828461B68984704
:102980002146304610F012FB236820461B69984709
:1029900023685B69204601B0BDE8F04F18472B461D
:1029A000E1E700BF1C280208AA280208AE29020895
:1029B000F5290208982A0208C82C0208AC58012000
:1029C000A85801202DE9F74FD0E954BA0746DBF8A3
:1029D000080003681B6A984742F29B73984205D827
:1029E000564B574AA32157481EF002FADBF8040061
:1029F00003681B6A98470F2803D8534B504AA421F9
:102A0000F1E7DBF80C0003681B6A9847372803D806
:102A10004E4B4B4AA521E6E7DFF844910EF018FE35
:102A20000EF01CFED9F8000010B10368DB6898476F
:102A3000D9F8000010B103681B689847DFF82481BB
:102A4000D8F8000010B103685B699847D7F83801DF
:102A500010B103685B689847D8F8000010B10368AC
:102A60001B689847D7F8380110B103689B689847EE
:102A7000DBF80C00036800215B6A9847344B036065
:102A800004464FF4A053038100254FF48073456042
:102A9000857263632F4B23612F4BE581B3F90010DF
:102AA0002E4BA1811030C4E90555C4E90755C4E98E
:102AB0000955C4E90B55B3F900600190FFF71EFEFC
:102AC00023690198DB6B31469847DBF808000368FF
:102AD00029465B6A9847064603F0CAF8DBF804000B
:102AE000036829465B6A98473146054602F09EFD19
:102AF000C9F80040C7F83851C8F80060E5B12B1D8F
:102B0000CAF800303368C5F808A03046DB68F563C2
:102B100098472B6828461B6898472146304610F096
:102B200045FA236820461B69984723685B6920465D
:102B300003B0BDE8F04F18472B46E1E71C28020818
:102B40003B2B0208AE290208F5290208982A020840
:102B5000542D0208EC2C0208585801205A58012024
:102B6000AC580120A8580120044B1B6893F876202C
:102B70000AB1D86C00B99868704700BF645801204A
:102B8000F0B50446807A637A0130C0B2984289B0C9
:102B9000A07250D8B4F90C20002110F00DFA10F0FA
:102BA000010283B24DD04FF6FF710028D8BF0A460C
:102BB0001344E381244E254F3188B4F818C0E389CB
:102BC000B7F90000ADF81E00CA1A606863445B1ACA
:102BD000ADF81C30036812B200251B692283ADF8E2
:102BE0001820ADF81A5006A99847A37A012B26D1D0
:102BF000174B1B781BB3A169606904AB03C3154B6A
:102C0000186803681B6B98473388ADF81C303B8805
:102C1000ADF81E300390ADF81850ADF81A50FFF71C
:102C2000A3FFFF22036800920195DC68039904ABBF
:102C300006AAA04703E0012323720023A37209B070
:102C4000F0BDE081B6E700BF585801205A58012076
:102C50006258012064580120F8B5044617460E4614
:102C60000EF016FD0E4B1C600E4B23600E4B002524
:102C7000C4E950350D4BC4E952551868036829461C
:102C80009B68C4E94E55C4E954769847284602F03B
:102C9000E9FAFFF769FF16F0E8FD2046F8BD00BF2E
:102CA000B85801207C2C0208642C020864580120CA
:102CB000064BC0F848310023C0F84C3100F5A07332
:102CC000C0F84401C0F83C31704700BF75280008C7
:102CD000064BC0F848310023C0F84C3100F5A07312
:102CE000C0F84401C0F83C31704700BFC529000856
:102CF000006A7047406A704770478B8880690A682D
:102D0000DB0A50F823001044704710B5C2B1137BA2
:102D1000B3B1547BD27A240204F4E0641443C26950
:102D200098B202EB840213888B4202D192F902001E
:102D300010BD05D8013880B204320028F3D1F7E77E
:102D40000020F5E710B5282104461DF09DFF204620
:102D500010BD000030B589B00446BDF8505006954E
:102D6000BDF84C5005959DF8405004959DF83C5099
:102D700003959DF8385002959DF8345001959DF8C3
:102D8000305000950FF0A8FC064B2360119BA36107
:102D9000129BE361159B2362169B6362204609B078
:102DA00030BD00BF782D0208806A704770477047B9
:102DB00070477047704730B50368018185B06D4634
:102DC0000146D3F8843004462846984795E8070022
:102DD0003C3484E8070005B030BD30B5036841815C
:102DE00085B06D460146D3F884300446284698479E
:102DF00095E807003C3484E8070005B030BD0022A8
:102E0000028042808280C280704780F8361070470E
:102E100070B5036804461B6B15469847236829461E
:102E200020465B6EBDE87040184700207047806CFC
:102E300070477047704770477047704770477047DA
:102E4000704790F82C304BB100F16C021268C265EB
:102E50003BB100F174031B680366704700F1680220
:102E6000F4E700F17003F6E770477047704770476A
:102E700030B4C26844685510034604EB6200D207C0
:102E800048BF62599B6830BC48BFD3581847436855
:102E90002BB183682BB9C06800F001007047184659
:102EA00070470120704730B4C2684468551003462B
:102EB00004EB6200D20748BF62599B6830BC48BF30
:102EC000D358184743682BB183682BB9C06800F00A
:102ED00001007047184670470120704790F82D3068
:102EE00080F8A43080F85A30704790F82D3080F880
:102EF0005A30704710B504467C3094F82C303BB102
:102F000004F17A010BF0F6FE2046FFF79AFF10BDA0
:102F100004F17801F6E710B54C2104461DF0B4FE2B
:102F2000204610BD10B5782104461DF0ADFE2046A8
:102F300010BD10B5A82104461DF0A6FE204610BD08
:102F400010B5102104461DF09FFE204610BD10B59F
:102F5000102104461DF098FE204610BD10B54FF418
:102F6000C26104461DF090FE204610BD10B5044617
:102F7000006B50B10368DB68984730B1206B036881
:102F800021469B68BDE81040184710BD00F1C402FF
:102F9000914202D10368DB6A184700F5B67291428C
:102FA00002D103681B6BF7E700F22442914202D181
:102FB0000368DB6BF0E700F2CC42914202D1036878
:102FC0009B6BE9E770470B7970B590F82C6004466D
:102FD0000D469BB98EB9B3FA83F35B0984F82C30A4
:102FE00023682046D3F88C309847236820465B69D5
:102FF000984716B12B79012B03D070BD002EFCD061
:10300000E9E723682046D3F88830BDE870401847C8
:10301000036870B55E6B124B1B6804468DB22BB90A
:10302000104B114A6C2111481DF0E2FE1049828DAF
:103030000988914203D80F4B0B4A6D21F3E713F82F
:1030400012200D4B1B6853F822000368DB6A984777
:10305000281A01B233462046BDE87040184700BF29
:10306000BC580120C82D02080A2E0208452E02086D
:10307000C05801208C2E0208C458012000F52A7384
:103080008B4210B5044609D10EF0E2FAFFF720FE9C
:10309000236820465B6BBDE81040184710BD002236
:1030A0004FF0FF31C0E900218260704770B50368BE
:1030B00004461B6B154698472368294620465B6BE0
:1030C000BDE8704018470B882DE9F041A0F8783032
:1030D0001388B0F90850A0F87A300446104690469C
:1030E00011F0E6FCB4F90A30074603EBD37340460F
:1030F000C3F34F0611F010FD05EBD575C5F34F0571
:1031000000EBD07007EBD777A6EB6002A5EB670763
:1031100004F17C0039B212B2FFF7C8FF23682046E1
:10312000D3F88C30BDE8F041184770B504461D4611
:10313000BDF91060FFF7BAFF2368294620469B6B54
:103140009847236831462046DB6BBDE8704018473E
:103150000022C0E90122C0E90322C0E90522C0E93A
:1031600007224FF480728284014A0260704700BFD8
:10317000102F020810B52622044600211DF0BEFFC4
:103180002046FFF7E5FF044B2360FF2384F8263039
:103190000023A362204610BD6C46020838B52622E3
:1031A00004460D4600211DF0A9FF2046FFF7D0FF81
:1031B000064B23602B88E384FF23204684F82830C5
:1031C00029460BF097FD204638BD00BFB0470208E6
:1031D00010B52622044600211DF090FF2046FFF77F
:1031E000B7FF0A4B23600A4BA3624FF6FF73A38518
:1031F0004FF47F020023C4E90C324FF0FF32C4E9E0
:1032000010232387E363204610BD00BFDC4502087E
:10321000142802081B4B73B51B88018F8B4206468E
:103220002BD9194B1B682BB9184B194A19486C211B
:103230001DF0DEFD13F81120174B1B6853F82250C8
:10324000164B186802F04AF82B68019001469B6AF9
:10325000284698472B6801991B6C044628469847D6
:103260002B6801995B6A14FB00F428469847E4B286
:10327000044486F8454002B070BD002380F8453014
:10328000F9E700BFC0580120BC580120C82D020832
:103290000A2E0208452E0208C4580120C8580120F1
:1032A0004FF47F4373B50646838540F20113002532
:1032B00083841D4B8562C0E90155C0E90355C0E90F
:1032C0000555C0E90755056346F8343B04463046CA
:1032D000FFF750FF154B63632A46C4E91A55C4E94A
:1032E0001C552566A4F8645029463046FFF7DEFEDB
:1032F0003146204607F08AFE0D4B236004F17C0521
:103300004FF6FF73A4F87830A4F87A3001A9284664
:10331000ADF80430FFF742FF2046294607F076FE5D
:10332000204602B070BD00BF0830020848470208BE
:10333000A430020810B40367019B436703685DF87B
:10334000044BD3F88C30C0E91A1218472DE9F04F1E
:103350002DED0C8B04468DB00FF07CFC2246002531
:10336000E54BE56342F8403B104608EE102AFFF7B4
:1033700001FF04F16C034FF6FF760AA918460CEE24
:10338000103AADF82860FFF709FF04F198030AA985
:1033900018460CEE903AADF82860FFF7FFFE04F1F6
:1033A000C403184608EE903AFFF77AFF04F5B673A7
:1033B000184609EE103AFFF773FF04F50573184637
:1033C00009EE903AFFF704FF04F5177318460AEE6A
:1033D000103ACA4FFFF7FCFE04F52A73C4F85C727A
:1033E000C4F8A45218460AEE903A0BF0B5FD04F565
:1033F0003C730AA918460DEE103AADF82860FFF7A5
:10340000CDFE04F5477318460BEE103AFFF7E0FEC9
:1034100004F5597304F56C7B18460BEE903AFFF7F0
:10342000D7FEC4F86473C4F8AC535846FFF7D0FE17
:1034300004F57E730AA9184604F224480DEE903A6A
:1034400004F2CC49ADF82860FFF7A8FE4046FFF72C
:1034500027FF04F2745A4846FFF722FF5046FFF751
:10346000B7FEA74BC4F8F035A64BC4F8F835A64B09
:10347000C4F80036A54BC4F80836F0232A4629467E
:1034800018EE100AC4F87475C4F8BC55C4F8FC559D
:10349000C4F80C560093C4F8F4454FF4A073C4F874
:1034A0000446FFF742FE4FF07F43A3662A462946B3
:1034B0001CEE100AFFF7FAFD1CEE100A0AA9ADF87F
:1034C00028500BF017FC1CEE900A19227621FFF70A
:1034D000EDFD0AAA4FF0030311461CEE900AADF869
:1034E00028300BF007FC17230527894E00932A4646
:1034F00029462B2304F1F800FFF717FE854B864A77
:103500008649009618EE900AA4F82871FFF712FF7A
:1035100018EE900A0AAA09A9ADF82470ADF828702F
:10352000FFF7D1FD172318EE900A009331222B23C9
:1035300040F21111C4F84471FFF7F7FD04F5C063C0
:103540000393C4F8F43017232A462946009304F560
:10355000D0702B23FFF7E9FD6E4B6F4A6F49009641
:1035600019EE100AA4F8D071FFF7E4FE4FF006023E
:103570000AA8ADF82420ADF8282009A9024619EEC2
:10358000100AFFF7A0FD0620C4F8EC0117202B233A
:103590000090192219EE100A40F21111FFF7C5FD33
:1035A000039AC4F89C2119EE900A1C22292104AE2A
:1035B000FFF77CFD4FF0FF3019EE901AC4F844027B
:1035C000A4F8485230460AF095FE96E8070004F544
:1035D000147383E80700524B0A9319EE900A1623DE
:1035E0000AA9ADF82C300BF007F91820242200901E
:1035F0007C231AEE100A8F21FFF797FDD4F85C3276
:10360000A4F890524FF0FF30D3F88430C4F88C0205
:103610001AEE101A3046984796E8070004F526730C
:1036200083E8070004F5B863C4F8A4323C4BA4F85F
:10363000C0551AEE100A0A930AA91523ADF82C30CA
:103640000BF0DAF81AEE900AB4224E21FFF72EFDA5
:1036500001230AA8024609A91AEE900AADF82430FF
:103660000223ADF828300BF022F914231AEE900A49
:10367000A4F8E032FFF7CEFD04F5BE634FF0FF3053
:10368000C4F8D0328A22C4E9B90076211DEE100AAE
:10369000FFF70CFD4FF003010AA8ADF82810014612
:1036A0001DEE100A0BF026FB8D221BEE100A2921BD
:1036B000FFF7FCFC4FF0FF301BEE101AC4F84C0370
:1036C000A4F8505330460AF015FE96E8070004F5BA
:1036D000567383E80700124B0A930AA81323014686
:1036E0001BEE100AADF82C300BF086F81820932250
:1036F00000907C2316E000BF74310208782F020886
:10370000443102087D3000085C3102088D2F00082A
:10371000996633FF663300FFCC9900FF996600FF7E
:10372000142802081BEE900A8F21FFF7FEFCD4F844
:103730006433A4F898534FF0FF30D3F88430C4F8C2
:1037400094031BEE901A3046984796E8070004F55C
:10375000687383E8070004F2D453C4F8AC330AA8B2
:10376000974BA4F8D45501460A931BEE900A1223F6
:10377000ADF82C300BF040F8562206215846FFF7E2
:1037800095FC4FF0FF30C4F8E003A4F8E453594629
:1037900030460AF0AFFD96E8070004F57B7383E836
:1037A0000700874B0A930AA8072301465846ADF83D
:1037B0002C300BF021F853221DEE900A7621FFF7F2
:1037C00075FC4FF003011DEE900AADF828100AA910
:1037D0000BF090FA17212A4600912B23294604F575
:1037E0008B60FFF7A2FC774B0093A3F13313A3F593
:1037F0004C53754A7549A4F888744046FFF79AFD02
:103800000AA90A46404609A9ADF82470ADF8287007
:10381000FFF759FC172100912B23692240F2111167
:103820004046C4F8A474FFF780FC039AC4F85424FB
:1038300017212A4600912B23294604F5A060FFF7A3
:1038400074FC604B0093A3F13313A3F54C535E4A11
:103850005E49A4F830754846FFF76CFD4FF006024C
:10386000ADF82420ADF8282009A90AAA4846FFF798
:103870002AFC0623C4F84C351723009351222B232E
:1038800040F211114846FFF750FC039BC4F8FC348A
:1038900018235D2200938F217C235046FFF745FCBF
:1038A0004FF0FF33C4F8A435D4F87435A4F8A85504
:1038B000D3F8843051463046984796E8070004F51F
:1038C000B66383E80700424B1B6804F5BD652BB95E
:1038D000404B414A602141481DF08AFA404B1B8809
:1038E000052B03D83F4B3C4A6121F4E73E4B394658
:1038F000186801F0F3FC3D4A03460321284610F006
:1039000065FE2F4BC4F8BC550A93251D4FF00603E6
:103910000AA95046ADF82C300AF06EFF18EE101AC6
:10392000284607F073FB1CEE101A284607F06EFBC2
:103930001CEE901A284607F069FB18EE901A2846EC
:1039400007F064FB19EE101A284607F05FFB19EE2A
:10395000901A284607F05AFB1AEE101A284607F06C
:1039600055FB1AEE901A284607F050FB1DEE101A70
:10397000284607F04BFB1BEE101A284607F046FBC3
:103980001BEE901A284607F041FB5946284607F0DF
:103990003DFB1DEE901A284607F038FB41462846AD
:1039A00007F034FB4946284607F030FB28465146CD
:1039B00007F02CFB20460DB0BDEC0C8BBDE8F08F62
:1039C00014280208996633FFCC9900FF996600FF1E
:1039D000BC580120C82D0208CA2E0208452E020834
:1039E000C05801208C2E0208C8580120022F02085E
:1039F000002070478B88838001207047704780F8D3
:103A00002C10704710B40368046BD3F8A4306243E1
:103A100061435DF8044B1847D0ED0C7A0368F8EE6B
:103A2000E77AD3F8A43020EE270AB5EEC00AF1EE0B
:103A300010FA17DBB6EE007A30EE070ABDEEC07A58
:103A400017EE101A60EEA70AF5EEC00AF1EE10FAB2
:103A50001CDBF6EE007A70EEA70AFDEEE07A17EEB8
:103A6000902A1847BDEEC07AF8EEC76A17EE102A02
:103A700030EE660AF7EE086A30EE260A511EBDEEF9
:103A8000C00A10EE102A0A441146DBE7FDEEE07A88
:103A9000B8EEE77A17EE902A70EEC70AB7EE087A0A
:103AA00070EE870A013AFDEEE00A10EE90CA9444E7
:103AB0006246D6E710B40368046BD3F8B0306243B3
:103AC0005DF8044B1847D0ED0C7A0368F8EEE77AFE
:103AD000D3F8B03027EE800AB5EEC00AF1EE10FA46
:103AE00008DBF6EE007A30EE270AFDEEC07A17EE1C
:103AF000902A1847FDEEC07AB8EEE77A17EE902AC2
:103B000030EE470AB7EE087A30EE070A013ABDEE0A
:103B1000C00A10EE10CA94446246EAE710B4036883
:103B2000446BD3F8BC30624361435DF8044B1847E3
:103B3000D0ED0D7A0368F8EEE77AD3F8BC3020EECA
:103B4000270AB5EEC00AF1EE10FA17DBB6EE007ADE
:103B500030EE070ABDEEC07A17EE101A60EEA70A23
:103B6000F5EEC00AF1EE10FA1CDBF6EE007A70EE0C
:103B7000A70AFDEEE07A17EE902A1847BDEEC07A4C
:103B8000F8EEC76A17EE102A30EE660AF7EE086AFA
:103B900030EE260A511EBDEEC00A10EE102A0A446D
:103BA0001146DBE7FDEEE07AB8EEE77A17EE902AF1
:103BB00070EEC70AB7EE087A70EE870A013AFDEE9A
:103BC000E00A10EE90CA94446246D6E710B4036847
:103BD000446BD3F8C03062435DF8044B1847D0ED16
:103BE0000D7A0368F8EEE77AD3F8C03027EE800A42
:103BF000B5EEC00AF1EE10FA08DBF6EE007A30EE10
:103C0000270AFDEEC07A17EE902A1847FDEEC07A1B
:103C1000B8EEE77A17EE902A30EE470AB7EE087A48
:103C200030EE070A013ABDEEC00A10EE10CA944405
:103C30006246EAE7D0F82C31026B002B07DB02EB7F
:103C4000430393FBF2F000EBD070401070476FF02D
:103C5000010000FB0320013890FBF2F000EBD07074
:103C6000401040427047D0ED4B7AB8EEE70AD0EDF5
:103C70000C7AF8EEE77A80EE270A7047D0F82C012C
:103C80007047D0F83031026B002B07DB02EB4303A7
:103C900093FBF2F000EBD070401070476FF0010022
:103CA00000FB0320013890FBF2F000EBD0704010D5
:103CB00040427047D0ED4C7AB8EEE70AD0ED0C7A6E
:103CC000F8EEE77A80EE270A7047D0F830017047A7
:103CD000D0F83431426B002B07DB02EB430393FB3C
:103CE000F2F000EBD070401070476FF0010000FB65
:103CF0000320013890FBF2F000EBD07040104042FE
:103D00007047D0ED4D7AB8EEE70AD0ED0D7AF8EEB7
:103D1000E77A80EE270A7047D0F834017047D0F870
:103D20003831426B002B07DB02EB430393FBF2F0CD
:103D300000EBD070401070476FF0010000FB0320D3
:103D4000013890FBF2F000EBD07040104042704719
:103D5000D0ED4E7AB8EEE70AD0ED0D7AF8EEE77ABC
:103D600080EE270A7047D0F83801704770B50368B5
:103D70000446D3F888300D461646984723683246E5
:103D800029462046D3F89030BDE8704018470368B4
:103D9000D3F8943018470368D3F8D4301847036831
:103DA000D3F8E03018470368002A10B4D3F8A430E1
:103DB000046B0EDB04EB420292FBF4F101EBD171D8
:103DC0004910B0F91E215DF8044B013A0A444942FA
:103DD00018476FF0010101FB0241013991FBF4F139
:103DE00001EBD17149104942EBE70368D3F83C314C
:103DF0001847026B03685143D3F8483118470368EA
:103E0000D3F844311847D0ED0C7A0368F8EEE77A1E
:103E1000D3F8483127EE800AB5EEC00AF1EE10FA69
:103E200008DBF6EE007A30EE270AFDEEC07A17EED8
:103E3000901A1847FDEEC07AB8EEE77A17EE902A8E
:103E400030EE470AB7EE087A30EE070A511EBDEE93
:103E5000C00A10EE102A0A441146EAE7C0F83C11E5
:103E600070470368D3F850311847036810B5D3F88A
:103E70005C31044698470028236B07DB03EB4000C6
:103E800090FBF3F000EBD070401010BD6FF001021A
:103E900002FB0030013890FBF3F000EBD0704010D3
:103EA0004042F2E70368D3F858311847036810B569
:103EB000D3F85C310446984707EE900AB8EEE70A5B
:103EC000D4ED0C7AF8EEE77A80EE270A10BDD0F830
:103ED0003C017047026B03685143D3F868311847BF
:103EE000D0ED0C7A0368F8EEE77AD3F8683127EE64
:103EF000800AB5EEC00AF1EE10FA08DBF6EE007AA1
:103F000030EE270AFDEEC07A17EE901A1847FDEE44
:103F1000C07AB8EEE77A17EE902A30EE470AB7EE8D
:103F2000087A30EE070A511EBDEEC00A10EE102AC4
:103F30000A441146EAE7C0F840117047036810B51B
:103F4000D3F87431044698470028236B07DB03EB52
:103F5000400090FBF3F000EBD070401010BD6FF00C
:103F6000010202FB0030013890FBF3F000EBD0704F
:103F700040104042F2E7036810B5D3F874310446AC
:103F8000984707EE900AB8EEE70AD4ED0C7AF8EEFF
:103F9000E77A80EE270A10BDD0F840017047036829
:103FA000026BD3F88431002910B504460EDB02EB16
:103FB000410191FBF2F101EBD171491009B22046A8
:103FC0009847D4E94F2302FB003010BD6FF0010089
:103FD00000FB0121013991FBF2F101EBD171491094
:103FE0004942EBE7006B7047406B70470368D3F8BA
:103FF000483118470368D3F85C311847026B0368EF
:104000005143D3F814311847036870B5D3F81851E9
:10401000D3F88031D0F84461044698472B4656F8CF
:1040200020102046BDE870401847B0F91C21B0F9B7
:104030001E31934207DBB0F94C31194491FBF2F089
:1040400002FB101109B2084670474801704780F81A
:104050002610704790F82600704710B50022B1F97D
:104060000840B1F90A10028042808480C18010BDEE
:104070000022028042808280C2807047C162704705
:10408000C06A70470120704770477047C06B18B115
:104090000368D3F880301847704730B5B2F81A116A
:1040A000B2F91441B2F94050B2F8422044802144A0
:1040B000521A002101808580C28030BD10B5428037
:1040C000BDF90840BDF90C2004808280C38010BD7A
:1040D0000B680846D3F8D43018470B680846D3F865
:1040E000E0301847B1F914017047B1F81401B1F884
:1040F0001A310344B1F84200C01A00B27047B1F956
:1041000016017047B1F81601B1F818310344B1F83F
:104110004000C01A00B270470B680846D3F814314B
:1041200011461847B2F8181130B5B2F9165105808A
:104130006C18B2F84010B2F94220C280091B00246A
:104140004480818030BD02808380BDF90020BDF9AC
:1041500004304280C38070470B680846D3F8EC30C7
:1041600018470B680846D3F8F8301847B1F916011C
:104170007047B1F81601B1F818310344B1F84000A6
:10418000C01A00B27047B1F914017047B1F81401B8
:10419000B1F81A310344B1F84200C01A00B27047B6
:1041A0000B680846D3F81831114618477047704716
:1041B0007047704770477047704730B4C2684468B2
:1041C0005510034604EB6200D20748BF62599B6852
:1041D00030BC48BFD358184743682BB183682BB90C
:1041E000C06800F001007047184670470120704712
:1041F00010B5402104461CF047FD204610BD10B507
:10420000402104461CF040FD204610BD10B54FF47F
:104210002B6104461CF038FD204610BD10B54FF44C
:10422000107104461CF030FD204610BD10B5102161
:1042300004461CF029FD204610BD10B542F29C71C9
:1042400004461CF021FD204610BD90F82C300BB127
:1042500006F015BF704713B503460846D3E90C14A2
:1042600003680191D3F88C309847019902462046A3
:1042700002B0BDE8104008F04BBD13B50346084638
:10428000D3E90C1403680191D3F89430984701994D
:104290000246204602B0BDE8104008F039BD0000DB
:1042A0000A1E10B503DBB0F91E41944206DC084B30
:1042B000084A094840F233611CF09AFD0368D0F8BF
:1042C0004441D3F88031984754F8200010BD00BF16
:1042D000B4310208D7310208263202080B1E10B58D
:1042E000044603DBB0F91E219A4206DC074B084A5C
:1042F000084840F22D611CF07BFD0368D3F884313F
:104300009847D4E94F2302FB003010BDB4310208B6
:10431000833202082632020800F589530833994295
:1043200010B5044615D190F87D3D83F0010380F867
:104330007D3D90F8F13083F0010380F8F13000F614
:1043400058500EF01CF904F1CC00BDE810400EF0FE
:1043500016B900F59C530833994208D100F58053F3
:10436000002200F5965083F8FD221830EDE710BDCD
:1043700037B501AB15460EF0A4FA00284FEA4014F9
:1043800001992A464FF0200004DB0EF0B9FA2044D0
:1043900003B030BD0EF0B4FA201AF9E770B5B0F9E9
:1043A0001441B0F81A516319B0F84250ED1AD0E92F
:1043B0004D320E462DB2D21A691EF01AFFF7D8FF01
:1043C0002C44013CC0EB441070BD38B5044608468F
:1043D000B4F81831B4F816110B44B4F84010D4E90D
:1043E0004B52C91A09B2521B0139401BFFF7C0FFDB
:1043F000B4F9163100EB431038BD000010B5044687
:1044000008F06EF8064A2260002301220A21C4E95E
:104410000C21E36284F83820E363204610BD00BF1E
:104420006042020870B50023124E8380124B036075
:10443000336893F8762005460AB1D86C00B99868BD
:104440000368DB6A98473368B0FA80F4D86C640973
:1044500030B10368DB6A9847002808BF44F00104C4
:104460002CB9064B064A07482C211CF0C1FC2846F3
:1044700070BD00BF6458012044350208D2320208E2
:10448000303302086933020810B5044608F028F8F2
:104490000A4A226000230122C4E90C23084AA263CD
:1044A0004FF6FF72A2872E22E36284F84030A4F810
:1044B0004230A4F84420A364204610BD58440208AA
:1044C0001428020810B52622044600211CF016FE0E
:1044D0002046FEF73DFE054B23600023A36284F8CF
:1044E0002C30012384F82430204610BDF844020803
:1044F00010B50446FEF76CFE024B23600023A36454
:10450000204610BD782F02082DE9F04F2DED108BBD
:10451000044699B00EF09EFB22460025EB4BE56366
:1045200042F8403B10460CEE902AFEF723FE04F1C1
:104530006C034FF6FF7616A918460DEE103AADF84B
:104540005860FEF72BFE04F19803184604F1CC0ADC
:104550000EEE903AFEF70EFEDD4BC4F898304FF4A5
:104560001671C4F8C450A4F8C850504608F06CFB4B
:104570004FF00108D74BC4F8CC3004F50772294638
:10458000C4E98285C4E98425504640F25722FFF7EA
:1045900039FAD14AC4F8CC2004F67C331846A4F882
:1045A0001852079307F09CFF4FF00201DFF8549375
:1045B000CA4B84F8A81B04F6AC31C4F87C3B08460F
:1045C0000891FFF72FFF09F12401C4F8B41BC4F8C8
:1045D000AC9B04F53C60C4F8B85B0990FFF70EFF94
:1045E000BF4BC04FC4F8C03B04F540600A90FFF7D2
:1045F00005FFC4F8007C04F544600FEE100AFFF7D5
:10460000FDFEB74BC4F8403C04F548600FEE900A3D
:10461000FFF7F4FEC4F8807C04F54C600B90FFF7C4
:1046200033FFB14AC4F8C02C04F60C5004F6585BB2
:104630000C90FFF729FFAD48C4F80C0D3C215846FB
:1046400008F002FBA34BC4F8583D04F6A8632946C2
:104650003B22C4F8948EC4F89C3E5846C4F8985E39
:10466000C4F8A05EFFF7CEF9A14BC4F8583D04F69C
:10467000987C6046A4F8A45ECDF834C007F030FF03
:10468000964AC4F8982F04F6C87C4FF0020284F8CA
:10469000C42F6046CDF838C0FFF7C4FE09F12401ED
:1046A00004F6DC7CC4F8D01FC4F8C89F6046C4F888
:1046B000D45FCDF83CC0FFF7A1FE04F5805C884BC9
:1046C000C4F8DC3F0CF11C0C604604F58059CDF8B1
:1046D00014C0FFF793FE04F5825C0CF11C0C6046DD
:1046E000C9F81C70CDF80CC0FFF788FE7C4BC9F8E8
:1046F0005C3004F584531C3318460493FFF77EFEA8
:1047000004F586531C33C9F89C7018460693FFF7CE
:10471000BBFE04F5895308337448C9F8DC00184619
:1047200009EE903AFFF7CEFE724BC9F8283104F536
:104730008B53A9F85661A9F8586189F85A61A9F80C
:104740005C6118460AEE103AFEF742FD04F58D53FF
:104750000833184608EE903AFFF7CAFE04F58F5367
:10476000143318460AEE903AFFF7C2FE04F592534E
:1047700018460DEE903AFFF7BBFE04F594530C3348
:1047800018460BEE103AFFF7B3FE04F596531833B4
:10479000184608EE103A06F0AFFB04F59C530833B8
:1047A00018460EEE103AFFF78DFE534BC9F88833CA
:1047B00004F59D531C3316A9A9F8B663A9F8B8638C
:1047C00089F8BA6318460BEE903AADF85860FEF7D8
:1047D000E5FC04F59F530833184609EE103AFEF73E
:1047E000F7FC04F5A153103318460CEE103AFFF70E
:1047F0007FFE424BC9F8CC3404F5A650404BC9F8B3
:10480000D4344FF496511C30C9F8D044C9F8D85468
:104810000BF05EFAF0231CEE900A00932A464FF448
:10482000A0732946FEF781FC4FF07F436FF016021C
:104830001DEE100AA3666FF06C01FEF737FC4FF017
:1048400004031DEE100A16A9ADF858300AF052FA0A
:10485000A6231EEE900A00932A464FF4A073294621
:10486000FEF763FC4FF07F434FF0FF32C4E9302383
:10487000A4F8C8802A464FF47A715046FFF776FABA
:104880000A2229465046FFF7BDF8A62300932A4680
:104890004FF4A07329465046FEF747FC0F230093C0
:1048A000142205230621504608F080F92B462A469B
:1048B00029465046009508F07CF8F7EE080AB7EE56
:1048C000000A5046FFF734F91EE000BFB438020872
:1048D000484702080C3F020864350208E441020818
:1048E000D43302088C34020818430208B843020883
:1048F0000037020868450208D44602089C380208BE
:10490000194300085C3E02084FF47A72D4F8F01B99
:10491000D4F8F40B84F8F15008F0FAF91FEE103ACD
:104920004FF47A76CD4FC4F8FC3B0999C4F8F06B8C
:10493000C4F8EC7BC4F8F46B84F8F88B504608F0AC
:1049400043F83246D4F8301CD4F8340C08F0E0F9BF
:104950004B23C4F8343C1FEE903A0A99C4F83C3C0F
:10496000C4F8306CC4F82C7C84F8388C504608F0BD
:104970002BF83246D4F8701CD4F8740C08F0C8F93F
:104980004FF002021FEE101AC4F8706CC4F86C7C71
:10499000C4F8746C84F8782C504608F015F8324648
:1049A000D4F8B01CD4F8B40C08F0B2F996234FF048
:1049B0000202C4F8B43C1FEE901AC4F8B06CC4F8FC
:1049C000AC7C84F8B82C504607F0FEFF3246D4F891
:1049D000F01CD4F8F40C08F09BF94FF00903A4F88C
:1049E000FC3C0B99C4F8F06CC4F8F46CC4F8EC7C93
:1049F000504608F00DF83246D4F83C1DD4F8400D6E
:104A000008F086F99623C4F8403D4FF008030C994E
:104A1000C4F83C6DA4F8483DA4F84E8DC4F8387D28
:104A2000504607F0E3FF4FF07F434FF00202C4F817
:104A3000B83B089BC4F8A43B079984F8A82B5046C0
:104A4000A4F8BC5B07F0C0FF31462A465846FFF782
:104A50008DF9A62300932A464FF4A07329465846A1
:104A6000FEF763FB0F23009318222B4606215846BE
:104A700008F09CF82B462A4629465846009507F030
:104A800098FFF7EE080AB7EE000A5846FFF750F80D
:104A90003246D9E9031008F03BF941F28833C9F8EE
:104AA0001030039BC9F81830C9E902760F9989F8CC
:104AB0001480584607F088FF3246D9E9131008F0F1
:104AC00027F94FF4FA73C9F85030049BC9F85830ED
:104AD000C9E91276059989F85480584607F074FFA1
:104AE0003246D9E9231008F013F942F210734FF05F
:104AF0000202C9F89030C9E92276039989F8942016
:104B0000584607F061FF3246D9E9331008F000F942
:104B10004FF00202C9E932760499C9F8D06089F8E9
:104B2000D420584607F050FF3246D9E9431008F028
:104B3000EFF89623C9F810311123A9F818314FF076
:104B400002030699C9F80C61A9F81E31C9F8087169
:104B5000584607F04BFF4FF07F43C4F8D43F0E9BFD
:104B6000C4F8C03F4FF0020384F8C43F0D99A4F885
:104B7000D85F584607F028FF19EE900AD32241214A
:104B8000FEF794FA4FF00B03ADF854304FF00C03DE
:104B900019EE900AA9F85C3116AA15A9ADF858309B
:104BA00009F085FE04F5A6530C33DB2241461AEECC
:104BB000100AC9F8503110AF0393FEF777FA4FF09F
:104BC0007F431AEE101AC9F890313846A9F894516B
:104BD00009F090FB97E807001AEE103A3C3383E89F
:104BE00007001F4B16931AEE100A102316A9ADF8F2
:104BF0005C3009F001FE0F23A82218EE900A009302
:104C000002218423FEF791FA4FF07F43C9F8D8318F
:104C1000D9F8A831A9F8DC51D3F88430114E18EE38
:104C2000901A3846984797E8070018EE903A3C33B8
:104C300083E80700336804F5A35808F11C082BB972
:104C4000094B0A4A60210A481CF0D2F8094B1B881C
:104C50000D2B13D8084B054A6121F4E7C59714FFC3
:104C600014280208BC580120C82D0208CA2E0208C8
:104C7000452E0208C05801208C2E0208DE4B0D2163
:104C8000186800F02BFBDD4A0346082140460FF070
:104C90009DFC4FF00F01DA4BC9F8F08118EE900A35
:104CA000ADF85C1016A9169309F0A6FD0F2100912E
:104CB000842302211AEE900AB722FEF736FA4FF04B
:104CC0007F413368C9F8241204F5A4584FF0FF312E
:104CD000C9E98D15A9F82852C9F8305208F10C0815
:104CE000002BADD0C7490B880C2BB3D9C24A0C217D
:104CF000106800F0F3FAC14A0346082140460FF05D
:104D000065FCBF4BC9F83C8216A8014616931AEE03
:104D1000900A0E23ADF85C3009F06EFD0F20009074
:104D200084231DEE900AC6220221FEF7FEF94FF001
:104D30007F403368C9F8700204F5A4584FF0FF3083
:104D4000C9E9A005A9F87452C9F87C5208F11C08F9
:104D5000002B3FF475AFAB490B880A2B7FF67AAF77
:104D6000A54A0A21106800F0B9FAA44A03460A21AC
:104D700040460FF02BFC4FF00B00ADF85C0016A87E
:104D80009F4BC9F8888201461DEE900A169309F0E0
:104D900033FD0F20009099231BEE100AA822A021BA
:104DA000FEF7C3F94FF07F403368C9F8BC0204F541
:104DB000A5584FF0FF30C9E9B305A9F8C052C9F8AA
:104DC000C85208F11008002B3FF43AAF8D490B8808
:104DD000032B7FF63FAF884A0321106800F07EFA6C
:104DE000864A0346042140460FF0F0FB4FF00402D0
:104DF000ADF85C2016AA824BC9F8D48211461BEE8E
:104E0000100A169309F0F8FC0A2316A84B22014653
:104E1000ADF8583018EE100A3C2306F01FF818EED3
:104E2000100A4FF07F4105F0EDFF962118EE100AB1
:104E300005F0ECFF18EE100A05F0D7FF1EEE100A81
:104E400057223521FEF732F94FF0080215A8014626
:104E50004FF007081EEE100AADF8582016AAADF85C
:104E6000548009F024FD039AC9F8B0231EEE101AED
:104E700018EE100A05F0C3FF1BEE900A03223B2137
:104E8000FEF714F94FF00902ADF8582016AA1146A2
:104E90001BEE900A09F02EFF1BEE901A18EE100A76
:104EA00005F0ADFF19EE100A3C224146FEF7FEF870
:104EB0004FF07F4219EE101AC9F81824A9F81C54B3
:104EC000384609F017FA19EE102A02F13C0397E868
:104ED000070083E807004A4B16934FF00203ADF832
:104EE0005C3016AB194619EE100A09F085FC19EE74
:104EF000101A18EE100A05F082FF0F2300931CEE23
:104F0000100A9923B722A021FEF70FF94FF07F4333
:104F1000C9F860344FF0FF33C9F870343368A9F82A
:104F20006454C9F86C54C9F8745404F5A55518357F
:104F3000002B3FF485AE33490B88002B3FF48AAE3B
:104F40002D4B0021186800F0C9F92C4A03460921AD
:104F500028460FF03BFB04F580531CEE100AC3F803
:104F60007854274B1693251D012316A9ADF85C3004
:104F700009F042FC1CEE901A284606F047F81DEE98
:104F8000101A284606F042F81EEE901A284606F03F
:104F90003DF85146284606F039F85946284606F0AD
:104FA00035F819EE901A284606F030F81AEE101A65
:104FB000284606F02BF818EE901A284606F026F838
:104FC0001AEE901A284606F021F81DEE901A28468F
:104FD00006F01CF81BEE101A284606F017F818EE1B
:104FE000101A284606F012F828461CEE101A06F091
:104FF0000DF8204608E000BFC8580120022F020823
:1050000014280208C058012019B0BDEC108BBDE86F
:10501000F08F00BF7047000030B5164D2C78BFF3FD
:105020005B8F14F001048DB020D128461BF02EFEBA
:10503000E0B13F230793104B0693104B05930123D8
:10504000CDE90343029304220223CDE900320C4947
:105050000C4808940A232822CDE90944FDF77AFE7A
:1050600009481BF0E3FE28461BF01CFE05480DB066
:1050700030BD00BFA0490020A46302082C640208D0
:10508000E05E0208A44900201550000870470000A7
:1050900030B5164D2C78BFF35B8F14F001048DB042
:1050A00020D128461BF0F2FDE0B13F230793104BBF
:1050B0000693104B05930123CDE903430293042289
:1050C0000323CDE900320C490C4808940F232A220F
:1050D000CDE90944FDF73EFE09481BF0A7FE28462E
:1050E0001BF0E0FD05480DB030BD00BFCC490020ED
:1050F000C06302083064020810610208D049002031
:105100008D5000087047000030B5154D2C78BFF366
:105110005B8F14F001048DB01FD128461BF0B6FD43
:10512000D8B13F2307930F4B06930F4B0F491048FD
:105130000894CDE9044304220123CDE9012300931F
:1051400005222823CDE909440394FDF703FE09480D
:105150001BF06CFE28461BF0A5FD05480DB030BDC8
:10516000F849002018640208346402085C630208ED
:10517000FC490020055100080020704700207047BE
:105180000EB403B503AB002153F8042B01930DF0CB
:10519000D5F802B05DF804EB03B070470CB407B566
:1051A00004AB53F8042B01930DF0C8F803B05DF87D
:1051B00004EB02B070470000436C10B5044673B3B3
:1051C000038F2BB9184B194AC02119481BF010FE48
:1051D000C38E00EB43035B8C0BB30EF048FC238FB4
:1051E000012B03D8134B144AC521EEE7E28E531C62
:1051F0009BB2092B194688BFA3F10A0104EB4101B8
:1052000040F63F10498C814209D10A2B04EB42023F
:1052100028BF002304EB4303508C5884518420465C
:10522000BDE810400EF026BBE4380208ED38020855
:1052300098390208E2390208F03902080EF0E1BAA2
:1052400010B586B002AC84E806001A460AAB059396
:105250000193099B00932146089B0BF074FD06B057
:1052600010BD000038B518BB124B13481B6813491A
:10527000B3B11A689C681A4402605A681A440A60FA
:105280001C440F4B00221A8000F038F8054600F04D
:1052900033F80C4B1C600C4B1D600C4B188007E066
:1052A0000B4B03600B4B0B600B4B1C68002CE8D1C5
:1052B00038BD00BF244A0020284A00202C4A002084
:1052C000304A0020BC580120C4580120C058012099
:1052D000946402083864020890660208044B1B6854
:1052E00053F82100034B1B6803EB4000704700BFDD
:1052F0002C4A0020284A0020172070470048704799
:10530000344A002010B5FFF7C3FE044C2060FFF7BD
:10531000FBFE6060FFF780FEA06010BD344A0020F5
:10532000704710B54FF4AC7104461BF0ADFC20463D
:1053300010BD10B50446D0F8540100F013F8204613
:10534000BDE810400CF078B810B50446FDF784FCB9
:10535000014B2360204610BDCC3A020800220260B7
:105360007047000070B5044600681D4D03689B68D7
:105370009847D5F8583C73B1D5F8603C012B03D160
:1053800020680368DB68984720680368DB689847F3
:105390000023C5F8583CD5F85C3C33B1206803685D
:1053A0001B6998470023C5F85C3CD5F8686C012E52
:1053B00007D10C4D2B6823B9206803681B6A9847F6
:1053C0002E60206803685B699847206803689B69C2
:1053D000984720680368BDE87040DB69184700BF44
:1053E000BC3C0020404A002070477047704770471F
:1053F000704770477047043870477047C06803684B
:105400001B6C1847A0F10400FFF7F8BF10B510217E
:1054100004461BF039FC204610BDA0F10400F5E75E
:1054200010B500228260044AC16002F108042432EF
:105430000460426010BD00BF103B02087047704717
:10544000044B1A68044B1A6101229A61034A1268DC
:105450005A61704718000020BC3C00201400002056
:105460000B4B1A6810B56432B2F5FA7FC8BF4FF41F
:10547000FA721A6004461B68064A0A2100F5B860F1
:105480000FF0A4F804F51770BDE810400DF077B8E0
:1054900018000020583B02080A4B1A6810B5643AFD
:1054A000632AD8BF64221A6004461B68064A0A2190
:1054B00000F5B8600FF08AF804F51770BDE81040E9
:1054C0000DF05DB818000020583B02080A4B1A681E
:1054D00010B501320C2AC8BF0C221A6004461B68A2
:1054E000064A032100F5BD600FF070F804F2745015
:1054F000BDE810400DF043B814000020583B0208EE
:105500000A4B1A6810B5013A002AD8BF01221A6066
:1055100004461B68064A032100F5BD600FF056F8EB
:1055200004F27450BDE810400DF029B814000020BA
:10553000583B0208FDF783BC13B5094B094A1B68A9
:105540000193044601AB0A2100F2D4500FF0FAF99E
:1055500004F5597002B0BDE810400DF010B800BF5E
:10556000BC3C00205B3B020810B54FF4C26104460E
:105570001BF08AFB204610BD10B50446FDF7E6FE81
:10558000074B2360074B084A1B680A2104F5B860E3
:105590000FF01CF804F517700CF0F1FF204610BD59
:1055A000683B020818000020583B0208704770470B
:1055B000043870477047C06803681B6B1847A0F138
:1055C0000400FFF7F8BFC06803685B6B1847A0F1E1
:1055D0000400FFF7F8BFC06803689B6B1847A0F191
:1055E0000400FFF7F8BFC0680368DB6B1847A0F141
:1055F0000400FFF7F8BFC06803681B6C1847A0F1F0
:105600000400FFF7F8BFC06803685B6C1847A0F19F
:105610000400FFF7F8BF10B5102104461BF034FB5F
:10562000204610BDA0F10400F5E7000010B50022EF
:105630008260044AC16002F10804383204604260AA
:1056400010BD00BFAC3B02087047704700F58053A7
:10565000012200F5965083F8FD2218300CF08FBF20
:1056600008B515492DED028B91ED000A0022A1F637
:10567000643102F5367301EB8303D3ED017AF4EE66
:10568000C07AF1EE10FA08D5D3ED017AF5EE407A42
:10569000F1EE10FA18BF93ED010A01323B2AE8D16E
:1056A0009FED068A20EE080A1BF058FB80EE080AE0
:1056B000BDEC028B08BD00BF204800200000C8429E
:1056C00008B52DED028B9FED100A1049002303F55C
:1056D000367201EB8202D2ED017AF4EEC07AF1EE7D
:1056E00010FA03F10103C8BF92ED010A3B2BEED182
:1056F0009FED078A20EE080A1BF0EEFA80EE080AFA
:10570000BDEC028B08BD00BF00000000BC3C0020C7
:105710000000C842114B13B5D3F8602C1049044661
:105720004FF461636FF03B0092FBF3F301FB032244
:105730003C2192FBF1F100FB012204F5A450CDE9DC
:1057400000121C30074A0A210EF040FF04F5925067
:1057500002B0BDE810400CF012BF00BFBC3C0020FE
:10576000F0F1FFFF083C020810B542F29C710446BC
:105770001BF08AFA204610BD10B50446FEF717FD4F
:1057800004F58052D2ED437A9FED906AB8EEE77A45
:1057900027EE067AB5EEC07AF1EE10FAC0F29E80DE
:1057A000F6EE007A37EE277AFDEEC77A17EE903ADA
:1057B000D2ED337AF8EEE77A002B67EE867AB8BF3F
:1057C0005B42F5EEC07AF1EE10FAC2F81031C0F289
:1057D0009980B6EE007A77EE877AFDEEE77A17EEDB
:1057E000903AD2ED137A9FED7A7AF8EEE77A002BB1
:1057F00067EE877AB8BF5B42F5EEC07AF1EE10FA39
:10580000C2F8D030C0F29280B6EE007A77EE877A96
:10581000FDEEE77A17EE903A002BB8BF5B421365B6
:10582000D4F83C3D9FED6B6A07EE903AB8EEE77A0C
:1058300027EE067AB5EEC07AF1EE10FAC0F28A8051
:10584000F6EE007A37EE277AFDEEC77A17EE903A39
:10585000002BB8BF5B42C4F8403DD4F8B03C07EE23
:10586000903AF8EEE77A67EE867AF5EEC07AF1EED6
:1058700010FAC0F28380B6EE007A77EE877AFDEEFA
:10588000E77A17EE903A002BB8BF5B42C4F8B43CFD
:10589000D4F8303C9FED507A07EE903AF8EEE77A74
:1058A00067EE877AF5EEC07AF1EE10FA7ADBB6EEA3
:1058B000007A77EE877AFDEEE77A17EE903A002BC2
:1058C000B8BF5B4204F65850C4F8343C0CF057FEA5
:1058D00004F1CC00BDE810400CF051BEFDEEC76AEB
:1058E000F8EEE67A16EE903A37EE677AF7EE087A37
:1058F00037EE277A013BBDEEC77A17EE101A19442E
:105900000B4655E7BDEEE77AF8EEC76A17EE103A98
:1059100077EEE67AF7EE086A77EEA67A013BFDEEBF
:10592000E77A17EE901A19440B465AE7BDEEE77A6C
:10593000F8EEC76A17EE103A77EEE67AF7EE086AE5
:1059400077EEA67A013BFDEEE77A17EE901A19443E
:105950000B4661E7FDEEC76AF8EEE67A16EE903A7E
:1059600037EE677AF7EE087A37EE277A013BBDEE1D
:10597000C77A17EE102A1A44134669E7BDEEE77A94
:10598000F8EEC76A17EE103A77EEE67AF7EE086A95
:1059900077EEA67A013BFDEEE77A17EE902A1A44DD
:1059A000134670E7BDEEE77AF8EEC76A17EE103AD5
:1059B00077EEE67AF7EE086A77EEA67A013BFDEE1F
:1059C000E77A17EE902A1A44134678E70AD7233C61
:1059D0000AD7A33BCDCCCC3DCDCC4C3D37B5124DF9
:1059E000124A05F6644304461B68019300F5A5506E
:1059F00001AB042110300EF0A5FF04F594500C30DB
:105A00000CF0BDFDAB68019304F5A550084A01AB4D
:105A1000092118300EF096FF04F5A150103003B0A4
:105A2000BDE830400CF0ABBDBC3C0020183C020887
:105A30001C3C020837B5114D114A2B6801930446EE
:105A400000F5A35001AB08211C300EF07BFF6B6802
:105A50000B4A019304F5A45001AB08210C300EF061
:105A600071FF04F58F5014300CF089FD04F58D5052
:105A7000083003B0BDE830400CF081BDBC3C0020D4
:105A80005B3B020838B5244B93ED007AD0F88C3D8F
:105A900007EE903AF8EEE77A2DED028B67EE877A03
:105AA0000446F5EEC07AF1EE10FA00F658551EDB0A
:105AB000B6EE007A77EE877AFDEEE77A17EE901A67
:105AC000284607F07FF9236820469B6C9847236897
:105AD0002046DB6CB0EE408A98472846F0EE400A3C
