:020000040800F2
:100000000000032095050008BD200008BF2000085F
:10001000C1200008C3200008C5200008000000001F
:10002000000000000000000000000000618C0008DB
:10003000C720000800000000F18C0008558D000862
:10004000E5050008E5050008E5050008E5050008E8
:10005000E5050008E5050008E5050008E5050008D8
:10006000E5050008E5050008E5050008E5050008C8
:10007000E5050008E5050008E5050008E5050008B8
:10008000E5050008E5050008E5050008E5050008A8
:10009000E5050008E5050008E5050008E505000898
:1000A000E5050008E5050008E5050008E505000888
:1000B000E5050008E5050008E5050008E505000878
:1000C000E5050008E5050008E5050008E505000868
:1000D000E5050008E5050008E5050008E505000858
:1000E000E5050008E5050008E5050008E505000848
:1000F000C9200008E5050008E5050008E505000839
:10010000E5050008E5050008E5050008E505000827
:10011000E5050008E5050008E5050008D52000080C
:10012000E5050008E5050008E5050008E505000807
:10013000E5050008E5050008E5050008E5050008F7
:10014000E5050008E5050008E5050008E5050008E7
:10015000E5050008E5050008E5050008E5050008D7
:10016000E5050008E5050008E5050008E5050008C7
:10017000E5050008E5050008E505000800000000A9
:10018000E5050008E5050008E5050008E5050008A7
:10019000E5050008E5050008E5050008E505000897
:0C01A000E1200008E5050008ED20000843
:1001B00010B5054C237833B9044B13B10448AFF3A1
:1001C00000800123237010BD6C010020000000009E
:1001D0005418020808B5034B1BB103490348AFF399
:1001E000008008BD000000007001002054180208C3
:1001F00001F0FF01102A2BDB10F0070F08D010F8D8
:10020000013B013A8B422DD010F0070F42B3F6D1DB
:10021000F0B441EA012141EA014122F007047FF0F4
:1002200000070023F0E80256083C85EA010586EA4B
:10023000010685FA47F5A3FA87F586FA47F6A5FA87
:1002400087F68EB9EED1F0BC01F0FF0102F0070293
:1002500032B110F8013B013A83EA010313B1F8D13E
:100260000020704701387047002D06BF354603381F
:10027000073815F0010F07D1013015F4807F02BF58
:10028000013015F4C03F0130F0BC0138704700BFA9
:1002900053B94AB9002908BF00281CBF4FF0FF31ED
:1002A0004FF0FF3000F074B9ADF1080C6DE904CEE9
:1002B00000F006F8DDF804E0DDE9022304B0704741
:1002C0002DE9F047089D04468E46002B4DD18A4209
:1002D000944669D9B2FA82F252B101FA02F3C2F13C
:1002E000200120FA01F10CFA02FC41EA030E9440CD
:1002F0004FEA1C48210CBEFBF8F61FFA8CF708FBEE
:1003000016E341EA034306FB07F199420AD91CEBC5
:10031000030306F1FF3080F01F81994240F21C81F7
:10032000023E63445B1AA4B2B3FBF8F008FB10333F
:1003300044EA034400FB07F7A7420AD91CEB040474
:1003400000F1FF3380F00A81A74240F20781644444
:10035000023840EA0640E41B00261DB1D4400023C9
:10036000C5E900433146BDE8F0878B4209D9002D2D
:1003700000F0EF800026C5E9000130463146BDE8B7
:10038000F087B3FA83F6002E4AD18B4202D3824221
:1003900000F2F980841A61EB030301209E46002DD0
:1003A000E0D0C5E9004EDDE702B9FFDEB2FA82F225
:1003B000002A40F09280A1EB0C014FEA1C471FFA83
:1003C0008CFE0126200CB1FBF7F307FB131140EA6A
:1003D00001410EFB03F0884208D91CEB010103F137
:1003E000FF3802D2884200F2CB804346091AA4B2F9
:1003F000B1FBF7F007FB101144EA01440EFB00FECD
:10040000A64508D91CEB040400F1FF3102D2A64531
:1004100000F2BB800846A4EB0E0440EA03409CE7D0
:10042000C6F12007B34022FA07FC4CEA030C20FA7D
:1004300007F401FA06F31C43F9404FEA1C4900FA9D
:1004400006F3B1FBF9F8200C1FFA8CFE09FB18111A
:1004500040EA014108FB0EF0884202FA06F20BD98D
:100460001CEB010108F1FF3A80F08880884240F2DD
:100470008580A8F102086144091AA4B2B1FBF9F021
:1004800009FB101144EA014100FB0EFE8E4508D91C
:100490001CEB010100F1FF346CD28E456AD90238A1
:1004A000614440EA0840A0FB0294A1EB0E01A14286
:1004B000C846A64656D353D05DB1B3EB080261EBF4
:1004C0000E0101FA07F722FA06F3F1401F43C5E9CE
:1004D000007100263146BDE8F087C2F12003D84004
:1004E0000CFA02FC21FA03F3914001434FEA1C4746
:1004F0001FFA8CFEB3FBF7F007FB10360B0C43EA38
:10050000064300FB0EF69E4204FA02F408D91CEBE7
:10051000030300F1FF382FD29E422DD902386344E5
:100520009B1B89B2B3FBF7F607FB163341EA034185
:1005300006FB0EF38B4208D91CEB010106F1FF38D4
:1005400016D28B4214D9023E6144C91A46EA0046CB
:1005500038E72E46284605E70646E3E61846F8E65D
:100560004B45A9D2B9EB020864EB0C0E0138A3E7A6
:100570004646EAE7204694E74046D1E7D0467BE787
:10058000023B614432E7304609E76444023842E7FF
:10059000704700BFDFF834D0002103E00C4B5B58FC
:1005A000435004310B480C4B42189A42F6D30B4A85
:1005B00002E0002342F8043B094B9A42F9D305F0CC
:1005C0006DFB20F06BF900F045FF70470000032041
:1005D000DC900A08000000206C0100206C01002063
:1005E00034570120FEE700F039BC00F0ABBC704787
:1005F00010B5042104461FF05DFF204610BD000029
:1006000038B50C4B0C4C18800C4B82201980636859
:10061000984740F6110398420AD1094D23682C608F
:10062000822098472B688220DB689847002038BDDD
:100630000120FCE788010020540000208A010020EE
:100640008C0100204FF4A071F020FFF7D9BF00000B
:10065000F7B52D4D2B6804461B698220984780B260
:100660002080002843D02B680DF106025B6901A9A8
:1006700082209847BDF80620A2F5B47292B20A2AE9
:1006800037D90B23B2FBF3F2204B1B889A4201D9D6
:10069000013B9AB2BDF8043040F6B8318B422AD8FB
:1006A000C3F571630E339BB20F21B3FBF1F318490D
:1006B00009888B4201D94B1E9BB2164E164D3068ED
:1006C0002F68834281B28CBF591AC91AB8B2BA4294
:1006D0008CBF101A801A89B280B201440529C8BFA4
:1006E00033603368C8BF2A6063802B68A38003B07F
:1006F000F0BD0022CEE7C3F56D6308339BB20E2B2D
:10070000D2D80023D9E700BF8C0100208A01002045
:1007100088010020900100209401002037B5684630
:100720000D461446FFF794FFBDF8000030B1BDF848
:1007300002302B60BDF804302360012003B030BDCF
:10074000704770477047012380F8741080F8753047
:100750007047002070470000034B4164003918BF08
:1007600001211970704700BF875401200020704795
:10077000836B0BB10846184770474FF6FF70704700
:10078000406803689B69184770477047704700F0DE
:1007900079BC08B503680446D3F8803098472368CD
:1007A00020469B6F984700F0EBF8236820461B6FAC
:1007B0009847292001F01AF900F0E2F82368204652
:1007C0001B6F9847F8E710B504460BF053F8236801
:1007D0002046D3F8AC30BDE81040184700F044BCC8
:1007E00000F048BC00F074BC00F01ABC00F074BC0F
:1007F00000F07CBC00F01EBC0AF0B0BA10B57C2141
:1008000004461FF057FE204610BD90F877301BB10C
:10081000406803681B6818471846704710B590F881
:10082000341090F874400C4B8C421A7809D03AB9C5
:100830000A4A0B491488088810800C8001221A701B
:1008400010BD002AFCD0054A05491488088810808C
:100850000C800022F3E700BF805401207C5401206B
:100860007E54012070B50D46194635B9094B0A4A28
:100870000A4840F2D2211FF0D1FEC0E90F52084BC6
:10088000003A18BF01221A700368BDE87040D3F81F
:100890008C301847C4180208FC1802084A190208CC
:1008A0008654012008B5094B1B888B4203D8084B9E
:1008B0001B88934205D9074B074A08489E211FF021
:1008C000ADFE074B1980074B1A8008BD7C540120F0
:1008D0007E5401208F190208F21902084A190208F1
:1008E0008254012084540120012108B500220846C9
:1008F00007F086FE0A4B186028B90A4B0A4A2921DC
:100900000A481FF08BFE00220421012007F03EFF61
:10091000074B186018B9074B034A2D21F0E708BDB3
:100920009C010020101B0208591B0208881B0208AA
:1009300098010020D61B0208024B4FF0FF311868C7
:1009400007F0B4BE9C010020014B186807F0E8BE18
:100950009C010020024B0021186807F0A7BE00BFD1
:100960009C010020FFF7F0BF034804490068002302
:100970001A4607F051BF00BF980100200400002074
:1009800013B5084C00231A4601A9206807F086FF1A
:1009900020684FF0FF33002201A907F07FFF02B06B
:1009A00010BD00BF9801002003685B6C1847012050
:1009B000704703689B6A184782B0002301930D4B70
:1009C0001A6B42F400021A631A6B02F400020192DD
:1009D000019A1A6942F400021A611A6922F40002AB
:1009E0001A61054B054A1A61054B4FF080629A6007
:1009F00002B0704700380240E8380020450A00087D
:100A000000E100E040F2EF3070470000054B03606A
:100A1000054B4FF08062C3F88820BFF34F8FBFF3C0
:100A20006F8F7047741D020800E100E010B50446A6
:100A30004FF45A61FFF7EAFF20461FF03BFD2046C6
:100A400010BD0000024B1B68586803685B691847BB
:100A50008854012070B5044625460A4B0C30002608
:100A600060602672667245F8203B602229460BF0D2
:100A700057F804F55A63EE602435AB42FBD12046AB
:100A800070BD00BF741D020808B50B290BD8DFE844
:100A900001F01206100A0A0A0A08080808080120CC
:100AA00008BD0520FCE7054B054A064867211FF0F5
:100AB000B5FD0020F4E70220F2E700BF181C020891
:100AC000331C02087D1C020808B50A2909D8DFE892
:100AD00001F010060E0808080806060606000120A8
:100AE00008BD054B054A064888211FF097FD0020E8
:100AF000F6E70220F4E700BF181C0208C91C020830
:100B00007D1C02082DE9F8434F7F0C46394681468B
:100B1000FFF7BAFF94F81E80054641464846FFF7A6
:100B2000B3FF414606464846FFF7CEFFA18A628BD7
:100B3000424B521A1A649A61228B521A1A61E28A43
:100B4000586342EA01425A6420696268D863DA60F5
:100B5000216894F81CC080294FEA0C6226D010D876
:100B6000202945EA020461D040295FD004295DD0E4
:100B7000324B2A4342F400324745DA615AD0304AB8
:100B800040E0B1F5807F07D0B1F5007FF0D142F4AD
:100B9000003242F0090203E042F4003242F00A025D
:100BA000DA61E2681A625E6258612AE0A4682A4348
:100BB00042F40032211DD962DA6122785E62586106
:100BC00042B1012A21D01F4B1F4A20484FF489719E
:100BD0001FF024FDDA69618822F47F42013922F096
:100BE000100242EA0122DA610120144BDA6942F074
:100BF0002002DA61DA699206FCD410229A60002899
:100C0000BDD0134A1A60BDE8F8836288D969541EC2
:100C100021F47F4222F0100242EA0422BCF1FF00DC
:100C200042F0100218BF0120DA61DEE744F400341C
:100C3000DC61B8E740F20122E4E700BF00B0024007
:100C400001020100141D02082E1D02087D1C02086D
:100C50000102020070B50C46897FFFF735FFA68AB6
:100C6000E18A628B154B2569586341EA0641921B64
:100C70005964DD631A642668E168082E0DD19A6113
:100C80001A615862207F0E4A42EA0062DA610D4A18
:100C900019625D61DD601A6070BD0022D8611A6161
:100CA00048090A0A02F4784200F4FC600243C1F3E6
:100CB000C4010A439A63044AEDE700BF00B0024052
:100CC000090001000102020001020300034B1A683F
:100CD000D207FCD423229A60704700BF00B00240C4
:100CE00030B50F4C2568ED07FCD423250904A56019
:100CF00041F001010225FF2B65636164E0630AD0C6
:100D00000849656241EA0363E361074B226260615F
:100D1000E060236030BDE561039BA363034BF8E70C
:100D200000B00240090001000100020001000300C0
:100D30000120704738207047382303FB010008303A
:100D40007047382303FB01000830704701207047CB
:100D500042F21860704742F2186303FB010008304A
:100D6000704742F2186303FB01000830704701200E
:100D700070471020704700EB01100830704700EBFF
:100D8000011008307047084601F06ABC10B5034BEB
:100D90000360044609F02FFD204610BD2C1E0208FA
:100DA00010B50446FFF7F2FF204640211FF082FBFA
:100DB000204610BD10B5034B0360044609F01BFD2F
:100DC000204610BDF81D020810B50446FFF7F2FFDB
:100DD000204642F220611FF06DFB204610BD00004E
:100DE00010B5034B0360044609F005FD204610BD15
:100DF000C41D020810B50446FFF7F2FF2046182173
:100E00001FF058FB204610BD10B5094B0360044687
:100E100000F519500C30FFF7B9FF04F12C00FFF773
:100E2000C9FF04F11400FFF7DBFF204610BD00BF2F
:100E3000601E020808B50248FFF7E6FF08BD00BFC4
:100E4000A401002010B50446FFF7DEFF204642F261
:100E5000E8711FF02FFB204610BD00002DE9F34183
:100E600001F0B8F9054601F0B9F90024014623461E
:100E700028462246009413F01DFA264B264A274D99
:100E80001A60204603F08EFF254813F07BF92B787B
:100E9000BFF35B8FDB0736D428461FF00DFB90B302
:100EA000204C214F214B236007F1440604F114002C
:100EB00004F12C086060C4F80880E760266109F03E
:100EC0009BFC1B4B6361404609F096FC194BE362A7
:100ED000384609F091FC04F50053174AC3F84C2634
:100EE00003F28C6003F0DAFF224607F1400130463E
:100EF00003F0CAFF304601F0B3FB10481FF0ACFB13
:100F000028461FF0E5FA0E4802B0BDE8F041FFF7B1
:100F10003EBC00BFEC540120AC370020A0010020F3
:100F200008000020A4010020F0270020601E020815
:100F3000C41D0208F81D02082C1E0208350E000808
:100F4000303700200148FFF724BC00BF30370020B5
:100F500070B5234C234E244B244D23603046FFF7BD
:100F600079FD284616F0B0FA214B2248DC60224C6D
:100F700003600022F0204FF480712080C3E9121238
:100F80001E4C1F492080C3E919121E4C1A864FF0CF
:100F900080714FF4A07059670121C3E90422C3E9AD
:100FA0000622C3E90822C3E90A22C3E90E22C3E9E3
:100FB0001022C3E91422C3E916221A6683F86C20B2
:100FC0001A67C3E9016583F8781020800E4C83F816
:100FD000341020800D4802700D4A1A6070BD00BFA9
:100FE0008C29002090290020B4180208B037002076
:100FF00030370020885401207C5401208254012085
:10100000010000017E5401208454012080540120FD
:10101000401A02080148FFF7F9BC00BF90290020E0
:10102000034B902283F85A2383F85823704700BF5C
:1010300000E100E0094A0A49D3680A48C3F30A03F9
:10104000013B9BB20B801169C1F30A010139018098
:101050001364536B43F0010353637047006801400E
:101060002C3800202A380020014BD3F8AC00704700
:1010700000680140024B0122C3F8AC105A6270476D
:101080000068014070B5044609F0BDFE23685D6E3E
:101090000FF0F4FE01462046A8472368054AD3F81E
:1010A00088502046AC460023BDE87040A2F51631BA
:1010B000604700BF005802D009F08CBE90F84B305A
:1010C00013B1024B01221A7009F090BE283800209B
:1010D00009F04ABE09F0A3BF034B4FF080629A604B
:1010E0004FF080729A60704700E100E0084B4FF0CB
:1010F0008062C3F88820BFF34F8FBFF36F8F4FF02C
:101100008072C3F88820BFF34F8FBFF36F8F704793
:1011100000E100E010B5144C236823B3134B144ACC
:101120001B6C11888B4213D1124B198806F056F8AC
:10113000226892F86630013382F86630FFF714FCBB
:1011400020680AF097FBBDE810400020FFF7F8BACE
:1011500006F044F8206803681B6A9847BDE8104011
:101160000020FFF7EEBA10BD88540120006801404E
:101170002C3800202A38002007B5064BADF80600B1
:101180001B68054801220DF1060106F038FD03B089
:101190005DF804FB10000020583A00200C4982B092
:1011A000002303F25E2201EB820292ED007ADDED74
:1011B000017A013377EE877A3C2BCDED017AF0D1BD
:1011C0009DED010ADFED037A80EE270A02B0704739
:1011D000F03A0020000070422DE9F047634C644D66
:1011E000D4F86C3A002B00F0968000232846C4F80F
:1011F0006C3A604FDFF89C815F4E04F043FE284656
:1012000004F0B4FE3B68184438605C4804F03AFED1
:101210005A4804F0ABFED8F80020336801320A21A6
:101220001844C8F8002092FBF1F301FB1322306050
:10123000002A70D13A68B2FBF1F307EE103A9FED45
:10124000506ADFED506AB8EEC77A27EE067A27EECD
:10125000267A84ED007A3368B3FBF1F307EE903A17
:10126000F8EEE77A484B67EE867A67EEA67AC3ED2A
:10127000007AD3ED007A94ED007A77EEC77A9FED8D
:10128000437A67EE877AC3ED007A2369002B3DD05D
:10129000D4F8783ADFF80091002BDFBF2368A36110
:1012A0000123C4F8743A94ED007AD4ED017AB4EED7
:1012B000E77AF1EE10FAC4BF23686360D4F8783A95
:1012C0000133C4F8783AD9F800304FF0010A03EB43
:1012D0000A0203F25E23C4F870AA04EB83032168B8
:1012E000C9F800203B2A196010DD3C23D4F8780AA5
:1012F00090FBF3F0FFF752FF063004EB8000002371
:1013000080ED000AC9F80030C4F874AA00233B60DD
:10131000C8F8003033602369012B19D16369BBB968
:10132000A368B3F5C87F17D0A368B3F5967F16D02E
:10133000A368C82B16D0A16840F6FF7340F674620C
:10134000642908BF134612480022102104F071FFDF
:10135000012007F03BF943E740F61C43F3E740F672
:10136000B243F0E740F6CA53EDE700BFF03A002081
:101370003C380020784500207C450020843800203F
:10138000EC514840000080396C45002000007A4450
:10139000D43800207045002074450020F0B5A1B07D
:1013A000102200210AA81FF0BFFA1422002103A86E
:1013B0001FF0BAFA0021302214A81FF0B5FA002459
:1013C000224B01941A6C42F080521A641B6C03F099
:1013D00080530193019B1E4B02941A6842F44042D1
:1013E0001A601B6803F4404302930122029B4FF4EE
:1013F0008033CDE9082302254FF48003CDE90E5355
:1014000008274FF4A873042608A8CDE91073129595
:10141000139605F001FF0F23CDE903354FF4A051DA
:101420004FF48053CDE9061303A80521059406F077
:10143000CBF8C023189314A84FF4003314971A96CE
:101440001D9306F09BF921B0F0BD00BF00380240AB
:10145000007000402DE980489BB004F02DFCFFF7A0
:101460009DFF142200210DA800241FF05DFAC64B39
:1014700000941A6BC548C64E42F020021A631A6BDC
:1014800002F020020092009A01941A6B42F080024E
:101490001A631A6B02F080020192019A02941A6B8D
:1014A00042F004021A631A6B02F004020292029ADA
:1014B00003941A6B42F001021A631A6B02F00102E4
:1014C0000392039A04941A6B42F002021A631A6B95
:1014D00002F002020492049A05941A6B42F0400250
:1014E0001A631A6B02F040020592059A06941A6B71
:1014F00042F010021A631A6B02F010020692069A6A
:1015000007941A6B42F008021A631B6B03F008037E
:10151000079322460421079B05F082F89D48224646
:101520004FF4805105F07CF822469B484FF440511F
:10153000012505F075F802274FF0040B93480F942E
:101540000DA9CDE90DB5109704F082FF4FF480523C
:1015500090480DA9CDE90D25CDE90F4404F078FFA1
:101560000DA94FF440528C48CDE90D25CDE90F4728
:1015700004F06EFF89488A4A026004F0E9FD894B55
:10158000894A3462C6E9003230464FF48042C6E9E7
:101590000424C6E90244C6E9064405F023FA1021F2
:1015A000304605F05FFC2146304605F07AFC7F4866
:1015B0007F4984624FF48272C0E900124FF40076D2
:1015C0001822C0E906620A227A4EC262C0E90244C9
:1015D000C0E90444C0E9084406F0D4FA764A0D97FD
:1015E0004FF01008C6E900254022C6E904824FF4F6
:1015F000C072C6E906244FF4006203234FF0070AC5
:10160000C6E908240DA94FF400523046CDE9113740
:101610004FF00809C6E9024BB262CDE90EABCDF836
:1016200040A0139706F0D4F94FF6FF7209A930468F
:10163000CDE90A95089409950C9406F0E9F9284635
:1016400004F066FB4FF6FF7209A93046CDE909792F
:10165000CDE90B5406F0DCF903234FF6FF7209A91C
:101660003046CDE90939CDE90BB406F0D1F94FF494
:101670000C720892089B0C934FF6FF7209A9304632
:10168000CDE909B90B9506F0C3F940F26A5130462D
:1016900006F0D5F9342221460DEB02001FF044F983
:1016A000464E474BB486C6E9003409234FF01D0C63
:1016B000C6E905350323C6E907C340F20D1E40F213
:1016C0004313C6E909E340F2171940F247133046C5
:1016D000C6E90B93C6E90244346186F8364005F04A
:1016E00085FCFF21F022CDE912144FF4806B052117
:1016F0004FF4A073CDE914B1CDE90E240DA9CDE9C5
:101700001642304622462F4E1893CDE910370D94DD
:10171000ADF864408DF8664005F033FD2A4B336028
:101720001B68DFF8B8B0DFF8B89098473368274EE9
:10173000DB689847264BC6E90A47C6E90C443046A1
:10174000C6E90034C6E9027404F085FD2946304636
:1017500004F03AFE1F4E214642460DA81FF0E4F861
:101760001D4AB4604FF480333046C6E9002334612B
:10177000357686F82040F462C6F828B0F460F5614A
:1017800086F830402EE000BF0038024000080240DA
:101790002839002000040240000C0240CC38002010
:1017A00000300240005C0040A0860100583A002052
:1017B00000500140243A0020400100A07C39002064
:1017C00000680140343800201C000020E838002068
:1017D00000B002403C380020002001400100000F12
:1017E000D4380020756104F0A7FA0DA93046CDE980
:1017F0000DA5374ECDF83CA004F0BCFB3549B460D4
:1018000042F2CF02C6E90012304640F2E732F260FF
:10181000CDE90D44B46106F04FFD0DA93046CDE988
:101820000D4406F063FD2C4AC9F800204846CDE976
:101830000D4404F09DFC42460DA94846CDE90D44F7
:1018400004F0D6FC424621460DA81FF06DF8234A4D
:10185000234994604FF480331046C2E90013C2E973
:101860000AB41461157682F82040D460D56182F8FC
:101870003040556104F060FA184ACDF83CA010469B
:101880000DA9CDE90D7504F075FBFEF7ACFE3046F1
:1018900006F0F5FB4146484604F07DFC40F6FF7338
:1018A00022464146484604F0C4FC06F0FFFD0D4ABE
:1018B0000D48214606F034FE0C4B0D4A18602146B7
:1018C0000C4806F02DFE0C4B186006F009FEFEE7F2
:1018D000B03A00200014004000740040843800201A
:1018E00000210140801E0208EB050008303800206E
:1018F000A41E0208D911000838380020704770472C
:101900007FB5094B8DF817201B6802930DF1170264
:101910000123009201930A460146044805F00AF9A2
:1019200007B05DF804FB00BF0C0000202839002040
:101930007FB500238DF81730084B1B6802930A46C9
:1019400001230DF11701009101930146044805F0B0
:1019500081F99DF8170007B05DF804FB0C0000202A
:10196000283900201FB5084C24680092CDE90134C5
:101970000A4601230146054805F06CF9003818BFF6
:10198000012004B010BD00BF0C0000202839002049
:1019900004F0BEB908B506480022042104F040FE58
:1019A000BDE8084002480122042104F039BE00BF0E
:1019B0000008024038B50B4D044601220A484FF496
:1019C000005104F02DFE00220421284604F028FED8
:1019D0002046FFF7D1FB28460122BDE8384004210C
:1019E00004F01EBE00080240000C024038B50B4D4A
:1019F000044600220A484FF4005104F011FE002270
:101A00000421284604F00CFE2046FFF7B5FB2846CB
:101A10000122BDE83840042104F002BE0008024063
:101A2000000C0240F7B5144E144F05460C463046E4
:101A30000022042104F0F4FD00224FF40051384646
:101A400004F0EEFD2846FFF797FB0D4B0D481B6891
:101A5000224601A906F071FA384601224FF40051DE
:101A6000019C04F0DDFD30460122042104F0D8FD84
:101A7000204603B0F0BD00BF00080240000C024049
:101A800010000020583A002004F042B90268084BC8
:101A90009A4210B5044601D104F028F92268054B9A
:101AA0009A4202BF044B0122C3F86C2A10BD00BF4A
:101AB0000004014000140040F03A002082B00E4BB8
:101AC00000220092596C41F480415964596C01F430
:101AD0008041009100990192196C41F08051196484
:101AE0001B6C03F080530193019B0F216FF00100E9
:101AF00002B004F0EDBA00BF0038024010B5142265
:101B00008AB0044600210DEB02001EF00DFF236891
:101B10001E4A93421FD11E4B002101915A6C42F480
:101B200080725A645A6C02F480720192019A029196
:101B30001A6B42F001021A631B6B03F0010302935C
:101B4000029B802305931348032305A9069304F001
:101B50007FFC0AB010BD104A9342FAD10C4B002111
:101B600003915A6C42F400725A645A6C02F4007287
:101B70000392039A04911A6B42F001021A631B6BE1
:101B800003F001030493049B0423DBE700200140DE
:101B90000038024000000240002101400268094B69
:101BA0009A4282B00BD100230193074B1A6B42F487
:101BB00080521A631B6B03F480530193019B02B0A4
:101BC000704700BF003002400038024010B50446A4
:101BD00088B01422002103A81EF0A6FE2268124B32
:101BE0009A421ED103F5E233002101911A6C0F488D
:101BF00042F000521A641A6C02F000520192019AEB
:101C000002911A6B42F001021A631B6B03F001038D
:101C10000293029B2022032303A9CDE9032304F0AE
:101C200017FC08B010BD00BF007400400000024067
:101C300007B50F4B02689A4216D10022A3F5F04374
:101C40000192196B41F4000119631B6B03F400034B
:101C5000019305215A20019B04F03AFA5A2003B05F
:101C60005DF804EB04F066BA03B05DF804FB00BF56
:101C700000B002402DE9F043044689B0142200214F
:101C800003A81EF051FE2268244B9A4243D1244CF3
:101C9000244800250095236B43F004032363236B42
:101CA00003F004030093009B0195236B43F00103B1
:101CB0002363236B03F001030193019B4FF012098F
:101CC0004FF400734FF001080327042603A9CDE960
:101CD0000339CDE90587079604F0BAFB4FF480730A
:101CE0001148079603A9CDE90339CDE9058704F02A
:101CF000AFFB0295236C43F400032364236C03F4CD
:101D000000030293029B236A43F400032362236AC5
:101D100023F40003236209B0BDE8F083005C0040B7
:101D2000003802400008024000000240F0B50446BE
:101D30008DB01422002107A81EF0F6FD2268574B33
:101D40009A4240F0A88003F55043002500955A6C54
:101D5000534842F080625A645A6C02F080620092EA
:101D6000009A01951A6B42F020021A631A6B02F076
:101D700020020192019A02951A6B42F001021A6345
:101D80001A6B02F001020292029A03951A6B42F05A
:101D900002021A631A6B02F002020392039A04957C
:101DA0001A6B42F040021A631A6B02F0400204926E
:101DB000049A05951A6B42F004021A631A6B02F03A
:101DC00004020592059A06951A6B42F008021A63FE
:101DD0001B6B03F00803069302240E26069B0A944D
:101DE0004FF4806307A9CDE907340B9604F030FB6C
:101DF00041F658032B480B9607A9CDE9073409276C
:101E0000CDE9095404F024FB032327480B9707A9C5
:101E1000CDE90734CDE9095404F01AFB4FF470639F
:101E200021480B9607A9CDE90734CDE9095404F000
:101E30000FFB4FF40C631D480B9607A9CDE907343F
:101E4000CDE9095404F004FBC02319480B9607A9F7
:101E5000CDE90734CDE9095404F0FAFA082315480E
:101E60000B9607A9CDE90734CDE9095404F0F0FA3F
:101E70004FF4A0530D480B9707A9CDE90734CDE9DE
:101E8000095404F0E5FA58202A46052104F020F907
:101E9000582004F04FF90DB0F0BD00BF00680140BC
:101EA00000140240000002400004024000180240FA
:101EB00000080240000C024010B5044688B014220D
:101EC000002103A81EF030FD2268144B9A4223D152
:101ED00003F56843002101915A6C114842F48012C5
:101EE0005A645A6C02F480120192019A02911A6BA0
:101EF00042F020021A631B6B03F020030293029B43
:101F00004FF4607202230321CDE903230523CDE9B9
:101F1000061303A904F09CFA08B010BD005001405C
:101F20000014024007B50F4B02689A4216D10022F6
:101F300003F509330192196C41F0200119641B6CFF
:101F400003F02003019305213720019B04F0C0F822
:101F5000372003B05DF804EB04F0ECB803B05DF893
:101F600004FB00BF001400402DE9F04186B00023BF
:101F700003932B4B1C68002C4FD14FF00108C3F882
:101F80000080284B00949A6B274842EA08029A6323
:101F90009B6B03EA08030093022703260C25009B92
:101FA00001A94FF63F03CDE90137CDE9046504F0FF
:101FB0004FFA1E48059501A9CDE90187CDE90346F1
:101FC00004F046FA48F233131948059501A9CDE902
:101FD0000137CDE9034604F03BFA4FF68373154809
:101FE000059501A9CDE90137CDE9034604F030FAA2
:101FF0004CF203731048059501A9CDE90137CDE9ED
:10200000034604F025FA60230C48059501A9CDE9A3
:102010000137CDE9034604F01BFA06B0BDE8F081B4
:1020200080450020003802400014024000080240B1
:102030000018024000100240000C02400004024060
:1020400030B5014689B000222C2004F041F82C2044
:1020500004F070F80025154B02955A6C144C42F0B0
:1020600002025A645B6C03F00203029301A903A805
:10207000029B05F065FB05F053FB0E4B236040F21D
:10208000E733E36040000C4BB0FBF3F001386060D5
:1020900020462561A56006F00FF920B9204605F01D
:1020A000EEFF09B030BD0120FBE700BF0038024061
:1020B000844500200004014040420F007047FEE7C5
:1020C000FEE7FEE7FEE77047014805F0ECBF00BF02
:1020D00084450020014805F0E6BF00BFB03A00206B
:1020E000014804F0F1BF00BF7C390020014804F032
:1020F000E0B800BFE83800200120704708B51EF0A6
:10210000BFFA162303604FF0FF3008BD08B51EF07C
:10211000B7FA16230360FEE770B50D4614460E4667
:10212000731B9C4201DC204670BDAFF3008006F8B3
:10213000010BF5E770B50D4614460E46731B9C4225
:1021400001DC204670BD16F8010BAFF30080F5E707
:102150004FF0FF3070474FF400534B600020704742
:1021600001207047002070470A4A116808B50346ED
:1021700009B9094911601068694603448B4206D9C0
:102180001EF07EFA0C2303604FF0FF3008BD136091
:10219000FCE700BFC445002038570120704710B548
:1021A000042104461EF086F9204610BD012908B519
:1021B00006D0022908D059B902F040FE006808BDD7
:1021C00002F03CFE4068FAE702F038FE8068F6E76D
:1021D0000020F4E700487047DC1E02080920704721
:1021E00013B5002451B1036801948DF8034001AA8E
:1021F0009C680DF10303A04702B010BD0846FBE741
:1022000040897047808970478088704783798088CB
:10221000184480B27047C07900F07F007047C079E1
:10222000C0097047704710B5082104461EF042F9F6
:10223000204610BD7047704700F5967308684968DE
:1022400003C370470020704781807047C18070478A
:1022500001817047418170477047704770477047F0
:10226000704710B4C4880368121B84885B6D091B17
:1022700012B25DF8044B09B218474FF6FF73838121
:102280004FF0FF3303621368C361106070477047FB
:102290007047416070477047064BC0F848310023D3
:1022A000C0F84C3100F5A073C0F84401C0F83C31CF
:1022B000704700BFC923000801230372704790F8DC
:1022C00025201AB190F8242002B118607047704799
:1022D00070477047704701464068036810315B6E75
:1022E000184701464068036810311B6E1847704755
:1022F000704710B50022B1F90840B1F90A10028008
:1023000042808480C18010BD10B4C26841685410FE
:10231000034601EB6200D20748BF0A599B685DF88B
:10232000044B48BFD358184743682BB183682BB977
:10233000C06800F0010070471846704701207047E0
:1023400010B50C2104461EF0B5F8204610BD10B59E
:10235000102104461EF0AEF8204610BD10B54FF413
:10236000AC7104461EF0A6F8204610BD10B5382109
:1023700004461EF09FF8204610BD10B528210446E3
:102380001EF098F8204610BD08B50EF077FDBDE8A8
:1023900008400FF017B990F8252012B103685B6967
:1023A0001847704710B50446D0F83C0158B103688F
:1023B000DB68984738B1D4F83C0103689B689847BC
:1023C0000023C4F83C3110BD2DE9F14FD0E9545A37
:1023D0000746A86803681B6A9847B0F5C26F05D224
:1023E000454B464AA32146481EF018F96868036821
:1023F0001B6A98470F2803D8424B404AA421F2E7B2
:10240000E86803681B6A98470B2803D83E4B3B4A91
:10241000A521E8E7DFF8F8900EF030FD0EF034FD6E
:10242000D9F8000010B10368DB689847D9F80000BC
:1024300010B103681B689847DFF8D880D8F800000F
:1024400010B103685B699847D7F8380110B1036889
:102450005B689847D8F8000010B103681B6898477C
:10246000D7F8380110B103689B689847E86803689B
:1024700000215B6A98474FF0000B244B0360044631
:10248000C0F804B080F808B0A868036859465B6AD1
:102490009847064602F002FE6868036859465B6A80
:1024A00098473146054602F04DFDC9F80040C7F88F
:1024B0003851C8F80060E5B12B1DCAF80030336808
:1024C000C5F808A03046DB68F56398472B682846B6
:1024D0001B6898472146304610F07EF92368204655
:1024E0001B69984723685B69204601B0BDE8F04F3F
:1024F00018472B46E1E700BFA01F02082E20020864
:1025000032210208792102081C22020860250208F3
:10251000D0540120CC540120044B1B6893F8762042
:102520000AB1D86C00B99868704700BF8854012080
:10253000F0B50446807A637A0130C0B2984289B01F
:10254000A07250D8B4F90C20002110F04BF910F013
:10255000010283B24DD04FF6FF710028D8BF0A4662
:102560001344E381244E254F3188B4F818C0E38921
:10257000B7F90000ADF81E00CA1A606863445B1A20
:10258000ADF81C30036812B200251B692283ADF838
:102590001820ADF81A5006A99847A37A012B26D126
:1025A000174B1B781BB3A169606904AB03C3154BC0
:1025B000186803681B6B98473388ADF81C303B885C
:1025C000ADF81E300390ADF81850ADF81A50FFF773
:1025D000A3FFFF22036800920195DC68039904AB16
:1025E00006AAA04703E0012323720023A37209B0C7
:1025F000F0BDE081B6E700BF7C5401207E5401208D
:102600008654012088540120F8B5044617460E462A
:102610000EF054FC0E4B1C600E4B23600E4B00253D
:10262000C4E950350D4BC4E9525518680368294672
:102630009B68C4E94E55C4E954769847284602F091
:10264000B1FBFFF769FF16F026FD2046F8BD00BF7D
:10265000DC54012014250208FC24020888540120BF
:10266000064BC0F848310023C0F84C3100F5A07388
:10267000C0F84401C0F83C31704700BFC9230008CE
:10268000064BC0F848310023C0F84C3100F5A07368
:10269000C0F84401C0F83C31704700BF652800080D
:1026A000064BC0F848310023C0F84C3100F5A07348
:1026B000C0F84401C0F83C31704700BF252700082E
:1026C00037B504460023134A026043600372417227
:1026D0008372C4E90533C4E90733C4E90933C4E9A3
:1026E0000B33E3814FF4807363630B4B23610B4B1C
:1026F000B3F900100A4BA181B3F9005010300190DA
:10270000FFF7A6FD01982946FFF7A4FD204603B078
:1027100030BD00BFEC250208842502087C5401204E
:102720007E5401202DE9F047D0E9544A0746A068BD
:1027300003681B6A984742F21763984205D8424BD8
:10274000424AA32142481DF069FF606803681B6A82
:1027500098470F2803D83F4B3C4AA421F2E7E06892
:1027600003681B6A9847372803D83B4B374AA52193
:10277000E8E7DFF8E8900EF081FB0EF085FBD9F872
:10278000000010B10368DB689847D9F8000010B169
:1027900003681B689847DFF8C880D8F8000010B1BC
:1027A00003685B699847D7F8380110B103685B6824
:1027B0009847D8F8000010B103681B689847D7F80D
:1027C000380110B103689B689847E06803680021EE
:1027D0005B6A984714210546FFF772FFA0680368FB
:1027E00000215B6A9847064602F0AEFF6068036806
:1027F00000215B6A98473146044602F0A1FCC9F803
:102800000050C7F83841C8F80060DCB1231DCAF891
:1028100000303368C4F808A03046DB68F46398479A
:10282000236820461B689847294630460FF0D4FF9E
:102830002B6828461B6998472B6828465B69BDE8CA
:10284000F04718472346E2E7A01F0208BF2202080C
:1028500032210208792102081C220208D0540120EA
:10286000CC5401202DE9F047D0E9544A0746A0682E
:1028700003681B6A9847B0F5C26F05D2424B434AC2
:10288000A32143481DF0CAFE606803681B6A98478D
:102890000F2803D83F4B3D4AA421F2E7E0680368C4
:1028A0001B6A9847372803D83B4B384AA521E8E7ED
:1028B000DFF8E8900EF0E2FA0EF0E6FAD9F8000040
:1028C00010B10368DB689847D9F8000010B10368BD
:1028D0001B689847DFF8C880D8F8000010B103687B
:1028E0005B699847D7F8380110B103685B6898476F
:1028F000D8F8000010B103681B689847D7F8380172
:1029000010B103689B689847E068036800215B6A20
:10291000984714210546FFF7D3FEA06803680021FD
:102920005B6A9847064602F0B9FB606803680021BD
:102930005B6A98473146044602F004FBC9F8005030
:10294000C7F83841C8F80060DCB1231DCAF8003070
:102950003368C4F808A03046DB68F46398472368FE
:1029600020461B689847294630460FF035FF2B68F4
:1029700028461B6998472B6828465B69BDE8F047E5
:1029800018472346E2E700BFA01F0208DD23020824
:1029900032210208792102081C220208D0540120A9
:1029A000CC540120006A7047406A704770478B889A
:1029B00080690A68DB0A50F823001044704710B59C
:1029C000C2B1137BB3B1547BD27A240204F4E06425
:1029D0001443C26998B202EB840213888B4202D17D
:1029E00092F9020010BD05D8013880B204320028E7
:1029F000F3D1F7E70020F5E710B5282104461DF0D4
:102A000059FD204610BD000030B589B00446BDF820
:102A100050500695BDF84C5005959DF840500495D2
:102A20009DF83C5003959DF8385002959DF8345020
:102A300001959DF8305000950FF064FA064B236025
:102A4000119BA361129BE361159B2362169B63623A
:102A5000204609B030BD00BF10260208806A7047CA
:102A60007047704770477047704730B50368018101
:102A700085B06D460146D3F8843004462846984711
:102A800095E807003C3484E8070005B030BD30B558
:102A90000368418185B06D460146D3F88430044611
:102AA0002846984795E807003C3484E8070005B0BD
:102AB00030BD0022028042808280C280704780F850
:102AC0003610704770B5036804461B6B154698476F
:102AD0002368294620465B6EBDE8704018470020F9
:102AE0007047806C704770477047704770477047F9
:102AF00070477047704790F82C304BB100F16C0272
:102B00001268C2653BB100F174031B68036670472D
:102B100000F16802F4E700F17003F6E770477047D0
:102B20007047704730B4C26844685510034604EBE0
:102B30006200D20748BF62599B6830BC48BFD35877
:102B4000184743682BB183682BB9C06800F00100B7
:102B50007047184670470120704730B4C268446817
:102B60005510034604EB6200D20748BF62599B68C8
:102B700030BC48BFD358184743682BB183682BB982
:102B8000C06800F001007047184670470120704788
:102B900090F82D3080F8A43080F85A30704790F8C3
:102BA0002D3080F85A30704710B504467C3094F8C8
:102BB0002C303BB104F17A010BF0B2FC2046FFF758
:102BC0009AFF10BD04F17801F6E710B54C210446D8
:102BD0001DF070FC204610BD10B5782104461DF094
:102BE00069FC204610BD10B5A82104461DF062FC0A
:102BF000204610BD10B5102104461DF05BFC204698
:102C000010BD10B5102104461DF054FC204610BD27
:102C100010B54FF4C26104461DF04CFC204610BDB7
:102C200010B50446006B50B10368DB68984730B1BB
:102C3000206B036821469B68BDE81040184710BD13
:102C400000F1C402914202D10368DB6A184700F523
:102C5000B672914202D103681B6BF7E700F224427F
:102C6000914202D10368DB6BF0E700F2CC42914263
:102C700002D103689B6BE9E770470B7970B590F858
:102C80002C6004460D469BB98EB9B3FA83F35B09F9
:102C900084F82C3023682046D3F88C30984723687A
:102CA00020465B69984716B12B79012B03D070BD84
:102CB000002EFCD0E9E723682046D3F88830BDE831
:102CC00070401847036870B55E6B124B1B68044672
:102CD0008DB22BB9104B114A6C2111481DF09EFC8E
:102CE0001049828D0988914203D80F4B0B4A6D2100
:102CF000F3E713F812200D4B1B6853F8220003680A
:102D0000DB6A9847281A01B233462046BDE8704076
:102D1000184700BFE054012060260208A2260208DE
:102D2000DD260208E454012024270208E85401208B
:102D300000F52A738B4210B5044609D10EF09EF8B7
:102D4000FFF7AEFC236820465B6BBDE810401847D8
:102D500010BD00224FF0FF31C0E9002182607047B2
:102D600070B5036804461B6B1546984723682946CF
:102D700020465B6BBDE8704018470B882DE9F04199
:102D8000A0F878301388B0F90850A0F87A300446DB
:102D90001046904611F0A2FAB4F90A30074603EB48
:102DA000D3734046C3F34F0611F0CCFA05EBD5754B
:102DB000C5F34F0500EBD07007EBD777A6EB6002A9
:102DC000A5EB670704F17C0039B212B2FFF7C8FF28
:102DD00023682046D3F88C30BDE8F041184770B521
:102DE00004461D46BDF91060FFF7BAFF2368294667
:102DF00020469B6B9847236831462046DB6BBDE835
:102E0000704018470022C0E90122C0E90322C0E94E
:102E10000522C0E907224FF480728284014A0260D1
:102E2000704700BFA827020810B5262204460021DB
:102E30001DF07AFD2046FFF7E5FF044B2360FF23DA
:102E400084F826300023A362204610BD343E0208D9
:102E500038B5262204460D4600211DF065FD2046AA
:102E6000FFF7D0FF064B23602B88E384FF23204627
:102E700084F8283029460BF053FB204638BD00BFAC
:102E8000783F020810B52622044600211DF04CFDB3
:102E90002046FFF7B7FF0A4B23600A4BA3624FF6A9
:102EA000FF73A3854FF47F020023C4E90C324FF077
:102EB000FF32C4E910232387E363204610BD00BF1F
:102EC000A43D0208981F02081B4B73B51B88018F95
:102ED0008B4206462BD9194B1B682BB9184B194A44
:102EE00019486C211DF09AFB13F81120174B1B6831
:102EF00053F82250164B186801F090FF2B68019090
:102F000001469B6A284698472B6801991B6C04462A
:102F1000284698472B6801995B6A14FB00F4284601
:102F20009847E4B2044486F8454002B070BD0023DF
:102F300080F84530F9E700BFE4540120E054012057
:102F400060260208A2260208DD260208E8540120B5
:102F5000EC5401204FF47F4373B50646838540F25D
:102F60000113002583841D4B8562C0E90155C0E92A
:102F70000355C0E90555C0E90755056346F8343BDC
:102F800004463046FFF750FF154B63632A46C4E9F9
:102F90001A55C4E91C552566A4F8645029463046E4
:102FA000FFF7DEFE3146204607F038FC0D4B23606C
:102FB00004F17C054FF6FF73A4F87830A4F87A305A
:102FC00001A92846ADF80430FFF742FF2046294604
:102FD00007F024FC204602B070BD00BFA028020804
:102FE000103F02083C29020810B40367019B4367A5
:102FF00003685DF8044BD3F88C30C0E91A12184707
:103000002DE9F04F2DED0C8B04468DB00FF038FA02
:1030100022460025E54BE56342F8403B104608EEAA
:10302000102AFFF701FF04F16C034FF6FF760AA99F
:1030300018460CEE103AADF82860FFF709FF04F1CE
:1030400098030AA918460CEE903AADF82860FFF7ED
:10305000FFFE04F1C403184608EE903AFFF77AFF2A
:1030600004F5B673184609EE103AFFF773FF04F53E
:103070000573184609EE903AFFF704FF04F517733D
:1030800018460AEE103ACA4FFFF7FCFE04F52A7301
:10309000C4F85C72C4F8A45218460AEE903A0BF0D9
:1030A00071FB04F53C730AA918460DEE103AADF811
:1030B0002860FFF7CDFE04F5477318460BEE103A73
:1030C000FFF7E0FE04F5597304F56C7B18460BEE30
:1030D000903AFFF7D7FEC4F86473C4F8AC5358466F
:1030E000FFF7D0FE04F57E730AA9184604F22449BE
:1030F0000DEE903A04F2CC48ADF82860FFF7A8FE38
:103100004846FFF727FF04F2745A4046FFF722FFB4
:103110005046FFF7B7FEA74BC4F8F035A64BC4F8EE
:10312000F835A64BC4F80036A54BC4F80836F02392
:103130002A46294618EE100AC4F87475C4F8BC551E
:10314000C4F8FC55C4F80C560093C4F8F4454FF489
:10315000A073C4F80446FFF742FE4FF07F43A36616
:103160002A4629461CEE100AFFF7FAFD1CEE100A4B
:103170000AA9ADF828500BF0D3F91CEE900A1922D9
:103180007621FFF7EDFD0AAA4FF0030311461CEE6E
:10319000900AADF828300BF0C3F917230527894EA4
:1031A00000932A4629462B2304F1F800FFF717FE67
:1031B000854B864A8649009618EE900AA4F8287135
:1031C000FFF712FF18EE900A0AAA09A9ADF82470B9
:1031D000ADF82870FFF7D1FD172318EE900A009381
:1031E00031222B2340F21111C4F84471FFF7F7FD8F
:1031F00004F5C0630393C4F8F43017232A46294624
:10320000009304F5D0702B23FFF7E9FD6E4B6F4A56
:103210006F49009619EE100AA4F8D071FFF7E4FE8A
:103220004FF006020AA8ADF82420ADF8282009A91D
:10323000024619EE100AFFF7A0FD0620C4F8EC01C3
:1032400017202B230090192219EE100A40F21111B9
:10325000FFF7C5FD039AC4F89C2119EE900A1C22C1
:10326000292104AEFFF77CFD4FF0FF3019EE901AD4
:10327000C4F84402A4F8485230460AF043FC96E8E9
:10328000070004F5147383E80700524B0A9319EE04
:10329000900A13230AA9ADF82C300AF0C3FE1820B7
:1032A000242200907C231AEE100A8F21FFF797FD4D
:1032B000D4F85C32A4F890524FF0FF30D3F8843049
:1032C000C4F88C021AEE101A3046984796E80700A8
:1032D00004F5267383E8070004F5B863C4F8A43244
:1032E0003C4BA4F8C0551AEE100A0A930AA91223FF
:1032F000ADF82C300AF096FE1AEE900AB4224E2158
:10330000FFF72EFD4FF00200ADF828000AA8024694
:10331000012309A91AEE900AADF824300AF0DDFE67
:1033200011231AEE900AA4F8E032FFF7CDFD04F560
:10333000BE634FF0FF30C4F8D0328A22C4E9B9002E
:1033400076211DEE100AFFF70BFD4FF003010AA8CE
:10335000ADF8281001461DEE100A0BF0E1F88D22A1
:103360001BEE100A2921FFF7FBFC4FF0FF301BEE8C
:10337000101AC4F84C03A4F8505330460AF0C2FBAC
:1033800096E8070004F5567383E80700114B0A938B
:103390000AA8102301461BEE100AADF82C300AF0E3
:1033A00041FE18209322009016E000BF0C2A02086C
:1033B00010280208DC290208312D0008F42902082F
:1033C000412C0008996633FF663300FFCC9900FF5B
:1033D000996600FF981F02087C231BEE900A8F213C
:1033E000FFF7FDFCD4F86433A4F898534FF0FF3096
:1033F000D3F88430C4F894031BEE901A30469847F3
:1034000096E8070004F5687383E8070004F2D453D4
:10341000C4F8AC330AA8984BA4F8D45501460A93D3
:103420001BEE900A0F23ADF82C300AF0FBFD56225C
:1034300006215846FFF794FC4FF0FF30C4F8E00334
:10344000A4F8E453594630460AF05CFB96E80700BE
:1034500004F57B7383E80700874B0A930AA80423CB
:1034600001465846ADF82C300AF0DCFD53221DEE23
:10347000900A7621FFF774FC4FF003011DEE900ACD
:10348000ADF828100AA90BF04BF817212A46009135
:103490002B23294604F58B60FFF7A1FC774B0093A3
:1034A000A3F13313A3F54C53754A7649A4F88874F5
:1034B0004846FFF799FD0AA90A46484609A9ADF80A
:1034C0002470ADF82870FFF758FC172100912B23CA
:1034D000692240F211114846C4F8A474FFF77FFC3A
:1034E000039AC4F8542417212A4600912B23294615
:1034F00004F5A060FFF773FC604B0093A3F1331356
:10350000A3F54C535E4A5F49A4F830754046FFF777
:103510006BFD4FF00602ADF82420ADF8282009A974
:103520000AAA4046FFF729FC0623C4F84C351723A6
:10353000009351222B2340F211114046FFF74FFC1C
:10354000039BC4F8FC3418235D2200938F217C2355
:103550005046FFF744FC4FF0FF33C4F8A435D4F8CD
:103560007435A4F8A855D3F88430514630469847AE
:1035700096E8070004F5B66383E80700424B1B6832
:1035800004F5BD652BB9414B414A602141481DF00E
:1035900045F8414B1B88022B03D8404B3C4A612124
:1035A000F4E73F4B0221186801F038FC3D4A03461E
:1035B0000321284610F020FC2F4BC4F8BC550A9379
:1035C000251D4FF003030AA95046ADF82C300AF030
:1035D00029FD18EE101A284607F020F91CEE101AE3
:1035E000284607F01BF91CEE901A284607F016F93A
:1035F00018EE901A284607F011F919EE101A28460D
:1036000007F00CF919EE901A284607F007F91AEEA0
:10361000101A284607F002F91AEE901A284607F009
:10362000FDF81DEE101A284607F0F8F81BEE101AE8
:10363000284607F0F3F81BEE901A284607F0EEF83C
:103640005946284607F0EAF81DEE901A284607F07A
:10365000E5F84946284607F0E1F84146284607F0D4
:10366000DDF82846514607F0D9F820460DB0BDECEC
:103670000C8BBDE8F08F00BF981F0208996633FFDE
:10368000CC9900FF996600FFE054012060260208F3
:1036900062270208DD260208E454012024270208DC
:1036A000EC5401209A270208002070478B88838001
:1036B00001207047704780F82C10704710B40368E1
:1036C000046BD3F8A430624361435DF8044B1847A0
:1036D000D0ED0C7A0368F8EEE77AD3F8A43020EE48
:1036E000270AB5EEC00AF1EE10FA17DBB6EE007A43
:1036F00030EE070ABDEEC07A17EE101A60EEA70A88
:10370000F5EEC00AF1EE10FA1CDBF6EE007A70EE70
:10371000A70AFDEEE07A17EE902A1847BDEEC07AB0
:10372000F8EEC76A17EE102A30EE660AF7EE086A5E
:1037300030EE260A511EBDEEC00A10EE102A0A44D1
:103740001146DBE7FDEEE07AB8EEE77A17EE902A55
:1037500070EEC70AB7EE087A70EE870A013AFDEEFE
:10376000E00A10EE90CA94446246D6E710B40368AB
:10377000046BD3F8B03062435DF8044B1847D0EDCA
:103780000C7A0368F8EEE77AD3F8B03027EE800AB7
:10379000B5EEC00AF1EE10FA08DBF6EE007A30EE74
:1037A000270AFDEEC07A17EE902A1847FDEEC07A80
:1037B000B8EEE77A17EE902A30EE470AB7EE087AAD
:1037C00030EE070A013ABDEEC00A10EE10CA94446A
:1037D0006246EAE710B40368446BD3F8BC30624336
:1037E00061435DF8044B1847D0ED0D7A0368F8EE9D
:1037F000E77AD3F8BC3020EE270AB5EEC00AF1EE26
:1038000010FA17DBB6EE007A30EE070ABDEEC07A8A
:1038100017EE101A60EEA70AF5EEC00AF1EE10FAE4
:103820001CDBF6EE007A70EEA70AFDEEE07A17EEEA
:10383000902A1847BDEEC07AF8EEC76A17EE102A34
:1038400030EE660AF7EE086A30EE260A511EBDEE2B
:10385000C00A10EE102A0A441146DBE7FDEEE07ABA
:10386000B8EEE77A17EE902A70EEC70AB7EE087A3C
:1038700070EE870A013AFDEEE00A10EE90CA944419
:103880006246D6E710B40368446BD3F8C030624395
:103890005DF8044B1847D0ED0D7A0368F8EEE77A2F
:1038A000D3F8C03027EE800AB5EEC00AF1EE10FA68
:1038B00008DBF6EE007A30EE270AFDEEC07A17EE4E
:1038C000902A1847FDEEC07AB8EEE77A17EE902AF4
:1038D00030EE470AB7EE087A30EE070A013ABDEE3D
:1038E000C00A10EE10CA94446246EAE7D0F82C31C0
:1038F000026B002B07DB02EB430393FBF2F000EBC0
:10390000D070401070476FF0010000FB03200138B9
:1039100090FBF2F000EBD070401040427047D0EDC9
:103920004B7AB8EEE70AD0ED0C7AF8EEE77A80EE43
:10393000270A7047D0F82C017047D0F83031026B5D
:10394000002B07DB02EB430393FBF2F000EBD0709C
:10395000401070476FF0010000FB0320013890FB1E
:10396000F2F000EBD070401040427047D0ED4C7A3E
:10397000B8EEE70AD0ED0C7AF8EEE77A80EE270A87
:103980007047D0F830017047D0F83431426B002BCB
:1039900007DB02EB430393FBF2F000EBD070401027
:1039A00070476FF0010000FB0320013890FBF2F03C
:1039B00000EBD070401040427047D0ED4D7AB8EE29
:1039C000E70AD0ED0D7AF8EEE77A80EE270A704725
:1039D000D0F834017047D0F83831426B002B07DB48
:1039E00002EB430393FBF2F000EBD0704010704702
:1039F0006FF0010000FB0320013890FBF2F000EBB8
:103A0000D070401040427047D0ED4E7AB8EEE70AD1
:103A1000D0ED0D7AF8EEE77A80EE270A7047D0F8FD
:103A20003801704770B503680446D3F888300D46F6
:103A3000164698472368324629462046D3F89030E8
:103A4000BDE8704018470368D3F8943018470368FE
:103A5000D3F8D43018470368D3F8E0301847036828
:103A6000002A10B4D3F8A430046B0EDB04EB42023E
:103A700092FBF4F101EBD1714910B0F91E215DF810
:103A8000044B013A0A44494218476FF0010101FB17
:103A90000241013991FBF4F101EBD1714910494226
:103AA000EBE70368D3F83C311847026B03685143D6
:103AB000D3F8483118470368D3F844311847D0ED9C
:103AC0000C7A0368F8EEE77AD3F8483127EE800ADB
:103AD000B5EEC00AF1EE10FA08DBF6EE007A30EE31
:103AE000270AFDEEC07A17EE901A1847FDEEC07A4D
:103AF000B8EEE77A17EE902A30EE470AB7EE087A6A
:103B000030EE070A511EBDEEC00A10EE102A0A441C
:103B10001146EAE7C0F83C1170470368D3F850310A
:103B20001847036810B5D3F85C310446984700285D
:103B3000236B07DB03EB400090FBF3F000EBD0704E
:103B4000401010BD6FF0010202FB0030013890FB05
:103B5000F3F000EBD07040104042F2E70368D3F876
:103B600058311847036810B5D3F85C3104469847BC
:103B700007EE900AB8EEE70AD4ED0C7AF8EEE77A91
:103B800080EE270A10BDD0F83C017047026B036835
:103B90005143D3F868311847D0ED0C7A0368F8EE3A
:103BA000E77AD3F8683127EE800AB5EEC00AF1EE65
:103BB00010FA08DBF6EE007A30EE270AFDEEC07A46
:103BC00017EE901A1847FDEEC07AB8EEE77A17EEB6
:103BD000902A30EE470AB7EE087A30EE070A511EF7
:103BE000BDEEC00A10EE102A0A441146EAE7C0F8FA
:103BF00040117047036810B5D3F8743104469847F4
:103C00000028236B07DB03EB400090FBF3F000EB95
:103C1000D070401010BD6FF0010202FB003001387F
:103C200090FBF3F000EBD07040104042F2E70368E5
:103C300010B5D3F874310446984707EE900AB8EEF1
:103C4000E70AD4ED0C7AF8EEE77A80EE270A10BD89
:103C5000D0F8400170470368026BD3F88431002923
:103C600010B504460EDB02EB410191FBF2F101EBD2
:103C7000D171491009B220469847D4E94F2302FB7D
:103C8000003010BD6FF0010000FB0121013991FBF4
:103C9000F2F101EBD17149104942EBE7006B70473B
:103CA000406B70470368D3F8483118470368D3F86E
:103CB0005C311847026B03685143D3F8143118473D
:103CC000036870B5D3F81851D3F88031D0F8446147
:103CD000044698472B4656F820102046BDE8704011
:103CE0001847B0F91C21B0F91E31934207DBB0F937
:103CF0004C31194491FBF2F002FB101109B2084655
:103D000070474801704780F82610704790F82600E9
:103D1000704710B50022B1F90840B1F90A100280CD
:103D200042808480C18010BD002202804280828057
:103D3000C2807047C1627047C06A704701207047F7
:103D400070477047C06B18B10368D3F880301847CC
:103D5000704730B5B2F81A11B2F91441B2F94050B7
:103D6000B2F8422044802144521A0021018085800B
:103D7000C28030BD10B54280BDF90840BDF90C20AD
:103D800004808280C38010BD0B680846D3F8D4300D
:103D900018470B680846D3F8E0301847B1F914010A
:103DA0007047B1F81401B1F81A310344B1F8420078
:103DB000C01A00B27047B1F916017047B1F8160188
:103DC000B1F818310344B1F84000C01A00B270478E
:103DD0000B680846D3F8143111461847B2F8181189
:103DE00030B5B2F9165105806C18B2F84010B2F92E
:103DF0004220C280091B00244480818030BD0280A3
:103E00008380BDF90020BDF904304280C380704733
:103E10000B680846D3F8EC3018470B680846D3F80F
:103E2000F8301847B1F916017047B1F81601B1F82A
:103E300018310344B1F84000C01A00B27047B1F91C
:103E400014017047B1F81401B1F81A310344B1F804
:103E50004200C01A00B270470B680846D3F8183108
:103E60001146184770477047704770477047704752
:103E7000704730B4C26844685510034604EB6200D2
:103E8000D20748BF62599B6830BC48BFD358184717
:103E900043682BB183682BB9C06800F001007047FC
:103EA000184670470120704710B5402104461CF0A9
:103EB00001FB204610BD10B5402104461CF0FAFA63
:103EC000204610BD10B54FF42B6104461CF0F2FAE9
:103ED000204610BD10B54FF4107104461CF0EAFAEC
:103EE000204610BD10B5102104461CF0E3FA204610
:103EF00010BD10B542F2186104461CF0DBFA2046F2
:103F000010BD90F82C300BB106F0C1BC704713B552
:103F100003460846D3E90C1403680191D3F88C30AA
:103F2000984701990246204602B0BDE8104008F0CB
:103F3000F7BA13B503460846D3E90C140368019198
:103F4000D3F89430984701990246204602B0BDE864
:103F5000104008F0E5BA00000A1E10B503DBB0F906
:103F60001E41944206DC084B084A094840F233617E
:103F70001CF054FB0368D0F84441D3F880319847D3
:103F800054F8200010BD00BF4C2A02086F2A020816
:103F9000BE2A02080B1E10B5044603DBB0F91E2131
:103FA0009A4206DC074B084A084840F22D611CF093
:103FB00035FB0368D3F884319847D4E94F2302FBDB
:103FC000003010BD4C2A02081B2B0208BE2A020832
:103FD00000F1CC03994210B5044605D10CF04EFF18
:103FE000BDE81040FEF74CBB00F58A531C339942E4
:103FF00015D190F8B13D83F0010380F8B13D90F800
:10400000253183F0010380F8253100F68C500DF046
:10401000CCFE04F58070BDE810400DF0C6BE10BDAA
:1040200010B52622044600211CF07EFC2046FEF737
:10403000E9FE054B23600023A36284F82C300123A2
:1040400084F82430204610BDC03C020837B501ABCF
:1040500015460EF04CF800284FEA401401992A4604
:104060004FF0200004DB0EF061F8204403B030BDB7
:104070000EF05CF8201AF9E770B5B0F91441B0F809
:104080001A516319B0F84250ED1AD0E94D320E467C
:104090002DB2D21A691EF01AFFF7D8FF2C44013C4A
:1040A000C0EB441070BD38B504460846B4F818316A
:1040B000B4F816110B44B4F84010D4E94B52C91AA5
:1040C00009B2521B0139401BFFF7C0FFB4F916318A
:1040D00000EB431038BD000010B5044607F008FEA1
:1040E000064A2260002301220A21C4E90C21E3626E
:1040F00084F83820E363204610BD00BF283A020848
:1041000070B50023124E8380124B0360336893F81E
:10411000762005460AB1D86C00B998680368DB6A56
:1041200098473368B0FA80F4D86C640930B10368FA
:10413000DB6A9847002808BF44F001042CB9064BFD
:10414000064A07482C211CF069FA284670BD00BFBA
:1041500088540120DC2D02086A2B0208C82B0208B3
:10416000012C020810B5044607F0C2FD0A4A22607D
:1041700000230122C4E90C23084AA2634FF6FF7210
:10418000A2872E22E36284F84030A4F84230A4F8DB
:104190004420A364204610BD203C0208981F02085A
:1041A00010B50446FEF76EFE024B23600023A364A5
:1041B000204610BD102802082DE9F04F2DED108B80
:1041C000044695B00EF05CF922460026E94BE66302
:1041D00042F8403B10460BEE102AFEF725FE04F194
:1041E0006C0309EE103A4FF6FF7926223146184645
:1041F000ADF848901CF098FB19EE100AFEF702FE8D
:10420000DD4BE366BDF84830A4F8923012A919EEF0
:10421000100A84F894900AF083F904F19803184680
:104220000CEE903AFEF700FED44BC4F8983004F13F
:10423000CC031846C4F8C460A4F8C86004F58077BD
:104240000BEE903AFFF7ECFECD4BC4F8CC30A4F85F
:10425000FA90A4F8FC9084F8FE904FF4167138465A
:1042600008F0FAF80123C74DC4F80051C4E98F36AD
:1042700004F51473314640F25722C4E991363846AA
:10428000FFF71CFAC04BC4F8003104F53B63184635
:10429000A4F84C620EEE103A07F02AFD4FF002022D
:1042A000BA4B84F8DC2B04F53E62C4F8B03B1046F0
:1042B0000892FFF725FFB64BC4F8E03B03F1240258
:1042C00004F6F431C4F8E82B0846C4F8EC6BDFF8C8
:1042D000DCB2DFF8DCA20EEE901AFFF7FDFE04F66A
:1042E0003441C4F8F4BB08460FEE101AFFF7F4FE91
:1042F00004F67441C4F834AC08460DEE101AFFF70A
:10430000EBFE04F6B441C4F874BC08460DEE901AF6
:10431000FFF7E2FE04F6F441C4F8B4AC08460FEE31
:10432000901AFFF71FFF9B4AC4F8F42C04F5546160
:10433000084604F68C580991FFF714FF9649C4F813
:10434000401D40463C2108F087F8012004F6DC625D
:104350003146C4F88C5DC4F8C80EC4F8D02E40466F
:104360003B22C4F8CC6EC4F8D46EFFF7A7F98B4A91
:10437000C4F88C2D04F6CC70A4F8D86E0A9007F01F
:10438000B7FC824BC4F8CC3F4FF0020384F8F83FEF
:1043900004F6FC73184604F580550B93FFF7B0FE46
:1043A0007B4BAE6003F12402C4F8FC3F2B46103374
:1043B0006A6018460493FFF78FFE04F582531033AA
:1043C000C5F810B018460593FFF786FE04F5845330
:1043D00010331846C5F850A00393FFF77DFEC5F8CB
:1043E00090B004F5865B0BF1100B5846FFF774FE96
:1043F00004F588531033C5F8D0A018460693FFF78C
:10440000B1FE04F58A536449C5F810111C331846EF
:1044100009EE903AFFF704FE614BC5F85C3104F5F4
:104420008C531433A5F88A91A5F88C9185F88E9158
:10443000A5F89091184608EE103AFEF723FD04F512
:104440008E531C33184608EE903AFFF7A9FE04F588
:104450009153083318460AEE103AFFF7A1FE04F50F
:104460009353143318460AEE903AFFF799FE04F579
:10447000965318460CEE103AFFF792FE494BDFF8C0
:1044800034A1C5E9D234484B04F59A50C5E9D43675
:104490004FF4965118300BF031F8F0231BEE100A50
:1044A000009332464FF4A0733146FEF798FC4FF06C
:1044B0007F436FF0160219EE100AA3666FF06C01CD
:1044C000FEF74EFC4FF0040319EE100A12A9ADF8E6
:1044D00048300AF025F8A6231CEE900A00933246D5
:1044E0004FF4A0733146FEF77AFC4FF0FF324FF0E5
:1044F0007F43C4E930234FF001031BEE900AA4F878
:10450000C830BD22BB219946FEF72AFC4FF00203BA
:104510001BEE900A12AA11A9ADF84490ADF84830EC
:1045200009F0DBFD04F59A530833C4F8F430324641
:104530004FF47A7138460793FFF774FA0A2231462E
:104540003846FFF7BBF8A623009332464FF4A0731A
:1045500031463846FEF743FC0F230093142205230F
:104560000621384607F02AFF3346324631463846A0
:10457000009621E04C310208783F0208103F020803
:104580009C3E0208D4360208FC2D0208AC39020811
:1045900024360208E03A0208803B0208982F0208FD
:1045A000303D020834310208D13F00086C2C02086B
:1045B000242D0208C59714FF07F003FEF7EE080A42
:1045C000B7EE000A3846FFF70FF94FF47A72D4F8C5
:1045D000241CD4F8280C84F8256107F0A1FF4FF0C3
:1045E000010384F82C3C1DEE103A4FF47A79C4F89C
:1045F000303C1EEE901AC4F8249CC4F820ACC4F8D9
:10460000289C384607F0E8FD4A46D4F8641CD4F8E4
:10461000680C07F085FF4B23C4F8683C4FF001039A
:1046200084F86C3C1DEE903A1FEE101AC4F8703CF2
:10463000C4F8649CC4F860AC384607F0CDFD4A4627
:10464000D4F8A41CD4F8A80C07F06AFF4FF00203BA
:1046500084F8AC3C1DEE101AC4F8A49CC4F8A0ACBD
:10466000C4F8A89C384607F0B7FD4A46D4F8E41CC5
:10467000D4F8E80C07F054FF4FF00203962284F8B8
:10468000EC3C1DEE901AC4F8E49CC4F8E0ACC4F80D
:10469000E82C384607F0A0FD4A46D4F8241DD4F88B
:1046A000280D07F03DFF4FF006021FEE901AC4F8E8
:1046B000249DC4F8289DA4F8302DC4F820AD3846B8
:1046C00007F0AEFD4A46D4F8701DD4F8740D07F01B
:1046D00027FF96220523C4F8742D4FF00102099993
:1046E000C4F8709DA4F87C3DA4F8822DC4F86CAD8C
:1046F000384607F083FD089BC4F8D83B4FF07F4253
:104700004FF0020384F8DC3B1EEE101AC4F8EC2BC9
:104710003846A4F8F06B07F05FFD49463246404644
:10472000FFF780F9A62200924FF4A073324631467B
:104730004046FEF754FB0F22009233461822062112
:10474000404607F03BFE334632463146404600962F
:1047500007F037FDF7EE080AB7EE000A4046FFF70C
:1047600043F84A46D5E9101007F0DAFE41F28833E3
:104770004FF001026B64039BEB64C5E90FA9049938
:1047800085F84820404607F027FD4A46D5E9201025
:1047900007F0C6FE4FF4FA734FF00102C5E91FA9F6
:1047A000C5F88430059985F88820C5F88CB0404656
:1047B00007F012FD4A46D5E9301007F0B1FE42F28B
:1047C0001073C5F8C4304FF00203C5E92FA985F86E
:1047D000C8300399404607F0FFFC4A46D5E940102F
:1047E00007F09EFE4FF00203C5E93FA985F80831A6
:1047F0005946C5F80491404607F0EEFC4A46D5E913
:10480000501007F08DFE9623C5F844310E23A5F80D
:104810004C314FF002030699C5F84091A5F852318A
:10482000C5F83CA1404607F0E9FC4FF07F43AB6080
:104830000B9BAE81C4F8F43F4FF0020384F8F83FBD
:104840000A99404607F0C8FC4FF0080919EE900A93
:10485000D3224121FEF784FA4FF0070319EE900AA4
:1048600012AA11A9A5F89091ADF84430ADF848907E
:1048700009F033FC079BC5F88431DB2218EE100ADF
:104880000121FEF76DFA0DF1300A4FF07F435046DB
:1048900018EE101AC5F8C431A5F8C86109F032F94C
:1048A0009AE8070018EE103A3C3383E80700A04B63
:1048B000129318EE100A0D2312A9ADF84C3009F02E
:1048C000B1FB0F23A82218EE900A00930221842343
:1048D000FEF785FA4FF07F43C5F80C32D5F8DC318E
:1048E000A5F810625046D3F8843018EE901A984715
:1048F0009AE8070018EE903ADFF854A23C3383E8B8
:104900000700DAF8003004F5985B0BF10C0B2BB9BB
:10491000884B894A602189481BF080FE884B1B88A0
:104920000A2B03D8874B844A6121F4E7864B0A217E
:10493000186800F073FA854A0346494658460FF056
:104940005BFA7B4AC5F824B20C2318EE900A12A930
:104950001292ADF84C3009F065FB0F2100918423D1
:1049600002211AEE100AB722FEF739FA4FF07F4102
:10497000DAF80030C5F8581204F5985B4FF0FF31B3
:10498000C5E99A16A5F85C62C5F864620BF11C0BC8
:10499000002BBDD06A490B88092BC3D96A4B09216A
:1049A000186800F03BFA694A0346494658460FF03A
:1049B00023FA12A85E4AC5F870B20B2301461AEE1C
:1049C000100A1292ADF84C3009F02CFB0F20009029
:1049D00084231AEE900AC6220221FEF700FA4FF055
:1049E0007F40DAF80030C5F8A40204F5995B4FF077
:1049F000FF30C5E9AD06A5F8A862C5F8B0620BF1B5
:104A00000C0B002B84D04E490B88072B8AD94E4BB8
:104A10000721186800F002FA4C4A03460A2158465A
:104A20000FF0EAF912A8424AC5F8BCB201461AEEE4
:104A3000900A1292ADF84C9009F0F4FA0F20009011
:104A400099231CEE100AA822A021FEF7C8F94FF006
:104A50007F40DAF80030C5F8F0024FF0FF30C5E9CA
:104A6000C006A5F8F462C5F8FC6204F59A59002B5B
:104A70003FF44EAF32490B88002B3FF453AF324B1B
:104A80003146186800F0CAF9304A03460421484606
:104A90000FF0B2F9264AC5F808934FF00103251D1F
:104AA0001CEE100A12A91292ADF84C3009F0BAFAB5
:104AB0001BEE101A284605F0B1FE19EE101A284612
:104AC00005F0ACFE1CEE901A284605F0A7FE1BEE82
:104AD000901A284605F0A2FE3946284605F09EFEAB
:104AE0004146284605F09AFE19EE901A284605F030
:104AF00095FE18EE101A284605F090FE18EE901A52
:104B0000284605F08BFE1AEE101A284605F086FEA0
:104B10001AEE901A284605F081FE28461CEE101A5F
:104B200005F07CFE204615B0BDEC108BBDE8F08F83
:104B3000981F02086026020862270208DD26020884
:104B4000E454012024270208EC5401209A2702088B
:104B5000E05401207047000030B5164D2C78BFF3AB
:104B60005B8F14F001048DB020D128461BF0A4FC0B
:104B7000E0B13F230793104B0693104B059301239D
:104B8000CDE90343029304220223CDE900320C490C
:104B90000C4808940A232822CDE90944FDF734FF84
:104BA00009481BF059FD28461BF092FC05480DB042
:104BB00030BD00BFC84500203C5A0208C05A020858
:104BC000B0550208CC450020554B00087047000046
:104BD00030B5164D2C78BFF35B8F14F001048DB007
:104BE00020D128461BF068FCE0B13F230793104B0F
:104BF0000693104B05930123CDE90343029304224E
:104C00000323CDE900320C490C4808940F232622D7
:104C1000CDE90944FDF7F8FE09481BF01DFD2846C3
:104C20001BF056FC05480DB030BD00BFF445002018
:104C3000585A0208C45A0208E0570208F8450020F2
:104C4000CD4B00087047000030B5154D2C78BFF3F0
:104C50005B8F14F001048DB01FD128461BF02CFC93
:104C6000D8B13F2307930F4B06930F4B0F491048C2
:104C70000894CDE9044304220123CDE901230093E4
:104C800005222823CDE909440394FDF7BDFE094818
:104C90001BF0E2FC28461BF01BFC05480DB030BDA4
:104CA00020460020AC5A0208C85A0208F4590208EB
:104CB00024460020454C0008002070470020704723
:104CC0000EB403B503AB002153F8042B01930CF091
:104CD0004BFF02B05DF804EB03B070470CB407B5AE
:104CE00004AB53F8042B01930CF03EFF03B05DF8C6
:104CF00004EB02B070470000436C10B5044673B378
:104D0000038F2BB9184B194AC02119481BF086FC98
:104D1000C38E00EB43035B8C0BB30EF0BEFA238F04
:104D2000012B03D8134B144AC521EEE7E28E531C26
:104D30009BB2092B194688BFA3F10A0104EB41017C
:104D400040F63F10498C814209D10A2B04EB420204
:104D500028BF002304EB4303508C58845184204621
:104D6000BDE810400EF09CB97C3102088531020884
:104D7000303202087A320208883202080EF057B93F
:104D800010B586B002AC84E806001A460AAB05935B
:104D90000193099B00932146089B0BF0EAFB06B0A8
:104DA00010BD000038B518BB124B13481B681349DF
:104DB000B3B11A689C681A4402605A681A440A60BF
:104DC0001C440F4B00221A8000F038F8054600F012
:104DD00033F80C4B1C600C4B1D600C4B188007E02B
:104DE0000B4B03600B4B0B600B4B1C68002CE8D18A
:104DF00038BD00BF4C4600205046002054460020DD
:104E000058460020E0540120E8540120E4540120D9
:104E10001C5B0208CC5A0208BC5C0208044B1B68ED
:104E200053F82100034B1B6803EB4000704700BFA1
:104E30005446002050460020142070470048704718
:104E40005C46002010B5FFF7C3FE044C2060FFF75E
:104E5000FBFE6060FFF780FEA06010BD5C46002096
:104E6000704710B54FF4AC7104461BF023FB20468D
:104E700010BD10B50446D0F8540100F013F82046D8
:104E8000BDE810400BF0EEBE10B50446FDF7BCFBCC
:104E9000014B2360204610BD6433020800220260EB
:104EA0007047000070B504460068174D03689B68A2
:104EB0009847D5F8703A73B1D5F8783A012B03D1F9
:104EC00020680368DB68984720680368DB689847B8
:104ED0000023C5F8703AD5F8743A33B120680368F6
:104EE0001B6998470023C5F8743A206803685B691A
:104EF0009847206803689B69984720680368BDE865
:104F00007040DB69184700BFF03A002070477047D7
:104F10007047704770477047043870477047C068E3
:104F200003681B6C1847A0F10400FFF7F8BF10B529
:104F3000102104461BF0BEFA204610BDA0F104006B
:104F4000F5E7000010B500228260044AC16002F15A
:104F5000080424320460426010BD00BFA833020878
:104F600070477047044B1A68044B9A6001221A611B
:104F7000034A1268DA60704718000020F03A0020F7
:104F8000140000200B4B1A6810B56432B2F5C87FCC
:104F9000C8BF4FF4C8721A6004461B68064A0A214B
:104FA00000F5B8600EF028FF04F51770BDE810405A
:104FB0000CF0FBBE18000020EC3302080A4B1A6804
:104FC00010B5643A632AD8BF64221A6004461B688D
:104FD000064A0A2100F5B8600EF00EFF04F51770BE
:104FE000BDE810400CF0E1BE18000020EC330208D0
:104FF0000A4B1A6810B501320A2AC8BF0A221A6081
:1050000004461B68064A032100F5BD600EF0F4FE5D
:1050100004F27450BDE810400CF0C7BE140000202C
:10502000EC3302080A4B1A6810B5013A002AD8BFBF
:1050300001221A6004461B68064A032100F5BD6080
:105040000EF0DAFE04F27450BDE810400CF0ADBE74
:1050500014000020EC330208FDF74BBD13B5094BDB
:10506000094A1B680193044601AB0A2100F2D4509F
:105070000FF07EF804F5597002B0BDE810400CF056
:1050800094BE00BFF03A0020EF33020810B54FF491
:10509000C26104461BF00EFA204610BD10B504464E
:1050A000FDF7AEFF074B2360074B084A1B680A2138
:1050B00004F5B8600EF0A0FE04F517700CF075FE54
:1050C000204610BDFC33020818000020EC33020813
:1050D00070477047043870477047C06803681B6B9F
:1050E0001847A0F10400FFF7F8BFC06803685B6BC6
:1050F0001847A0F10400FFF7F8BFC06803689B6B76
:105100001847A0F10400FFF7F8BFC0680368DB6B25
:105110001847A0F10400FFF7F8BFC06803681B6CD4
:105120001847A0F10400FFF7F8BF10B5102104469E
:105130001BF0C0F9204610BDA0F10400F5E7000007
:1051400010B500228260044AC16002F108043432C2
:105150000460426010BD00BF4034020870477047D1
:1051600008B515492DED028B91ED000A0022A1F63C
:10517000781102F25E2301EB8303D3ED007AF4EEA3
:10518000C07AF1EE10FA08D5D3ED007AF5EE407A48
:10519000F1EE10FA18BF93ED000A01323B2AE8D174
:1051A0009FED068A20EE080A1BF0EEF980EE080A51
:1051B000BDEC028B08BD00BF684400200000C8425F
:1051C00008B52DED028B9FED100A1049002303F264
:1051D0005E2201EB8202D2ED007AF4EEC07AF1EEAB
:1051E00010FA03F10103C8BF92ED000A3B2BEED188
:1051F0009FED078A20EE080A1BF084F980EE080A6A
:10520000BDEC028B08BD00BF00000000F03A00209A
:105210000000C842114B13B5D3F8782A1049044650
:105220004FF461636FF03B0092FBF3F301FB032249
:105230003C2192FBF1F100FB012204F59950CDE9EC
:1052400000120C30074A0A210EF0D6FD04F59350E7
:10525000143002B0BDE810400CF0A7BDF03A0020B9
:10526000F0F1FFFF9434020810B542F218610446D1
:105270001BF020F9204610BD10B50446FEF7F3FDE3
:1052800004F58052D2ED507A9FED916AB8EEE77A3C
:1052900027EE067AB5EEC07AF1EE10FAC0F29F80E2
:1052A000F6EE007A37EE277AFDEEC77A17EE903ADF
:1052B000D2ED407AF8EEE77A002B67EE867AB8BF37
:1052C0005B42F5EEC07AF1EE10FAC2F84431C0F25A
:1052D0009A80B6EE007A77EE877AFDEEE77A17EEDF
:1052E000903AD2ED207A9FED7B7AF8EEE77A002BA8
:1052F00067EE877AB8BF5B42F5EEC07AF1EE10FA3E
:10530000C2F80431C0F29380B6EE007A77EE877A65
:10531000FDEEE77A17EE903A002BB8BF5B42C2F879
:105320008430D4F8703D9FED6C6A07EE903AB8EE89
:10533000E77A27EE067AB5EEC07AF1EE10FAC0F2FF
:105340008A80F6EE007A37EE277AFDEEC77A17EEFE
:10535000903A002BB8BF5B42C4F8743DD4F8E43CEB
:1053600007EE903AF8EEE77A67EE867AF5EEC07AC5
:10537000F1EE10FAC0F28380B6EE007A77EE877A0B
:10538000FDEEE77A17EE903A002BB8BF5B42C4F807
:10539000E83CD4F8643C9FED517A07EE903AF8EE81
:1053A000E77A67EE877AF5EEC07AF1EE10FA7ADBEB
:1053B000B6EE007A77EE877AFDEEE77A17EE903A4E
:1053C000002BB8BF5B4204F68C50C4F8683C0CF06C
:1053D000ECFC04F58070BDE810400CF0E6BCFDEE7E
:1053E000C76AF8EEE67A16EE903A37EE677AF7EE8D
:1053F000087A37EE277A013BBDEEC77A17EE101A0E
:1054000019440B4654E7BDEEE77AF8EEC76A17EE8B
:10541000103A77EEE67AF7EE086A77EEA67A013B65
:10542000FDEEE77A17EE901A19440B4659E7BDEEE8
:10543000E77AF8EEC76A17EE103A77EEE67AF7EEFB
:10544000086A77EEA67A013BFDEEE77A17EE901A2E
:1054500019440B4660E7FDEEC76AF8EEE67A16EEF1
:10546000903A37EE677AF7EE087A37EE277A013B03
:10547000BDEEC77A17EE102A1A44134669E7BDEE4F
:10548000E77AF8EEC76A17EE103A77EEE67AF7EEAB
:10549000086A77EEA67A013BFDEEE77A17EE902ACE
:1054A0001A44134670E7BDEEE77AF8EEC76A17EEC6
:1054B000103A77EEE67AF7EE086A77EEA67A013BC5
:1054C000FDEEE77A17EE902A1A44134678E700BFFC
:1054D0000AD7233C0AD7A33BCDCCCC3DCDCC4C3D09
:1054E00013B5094B094A1B680193044601AB04211B
:1054F00000F59A500EF03CFE04F5965002B0BDE85F
:1055000010400CF052BC00BF6C450020A4340208CF
:1055100037B5114D114A2B680193044600F5985098
:1055200001AB08210C300EF023FE6B680B4A01938F
:1055300004F5985001AB08211C300EF019FE04F55B
:10554000915008300CF031FC04F58E501C3003B043
:10555000BDE830400CF029BCF03A0020EF330208DF
:1055600038B5244B93ED007AD0F8C03D07EE903A61
:10557000F8EEE77A2DED028B67EE877A0446F5EEBA
:10558000C07AF1EE10FA00F68C551EDBB6EE007A0A
:1055900077EE877AFDEEE77A17EE901A284607F045
:1055A00019F8236820465B6C9847236820469B6C5B
:1055B000B0EE408A98472846F0EE400AB0EE480A1E
:1055C000FEF712F9BDEC028B38BDBDEEE77AF8EEBE
:1055D000C76A17EE103A77EEE67AF7EE086A77EECA
:1055E000A67A591EFDEEE77A17EE903A0B4419465B
:1055F000D4E700BFF03A002070B5524DD0ED4D7A9F
:10560000D5F8783A3C2293FBF2F3063305EB83039B
:1056100093ED007AF8EEE77A2DED028B67EE877A4C
:105620000446F5EEC07AF1EE10FA00F5807674DBF0
:10563000B6EE007A77EE877AFDEEE77A17EE901AEB
:10564000304606F0C7FF95ED060AB2EE048A20EE5A
:10565000080A1AF099FFF0EE408A95ED010A20EE53
:10566000080A1AF04FFF3046C0EE080A88EE880A92
:10567000FEF7BAF8D5F8783AB3F5077F23DDD5F809
:10568000782A40F6D3539A421DDC3C220021304652
:10569000FEF714F8D4F8A42CD4F8243D0A214A4388
:1056A000002AB8BF5242C4F8A82CD4F8242C5200C7
:1056B0004B43002AB8BF5242002BB8BF5B42C4F82C
:1056C000282CC4F8283DD5F8782A40F6D4539A42BD
:1056D00020DDEA683C256A4300213046FDF7EEFFF5
:1056E000D4F8A42C6A43002AB8BF5242C4F8A82CAC
:1056F000D4F8242C0A235A43D4F8243D002A05FB6D
:1057000003F3B8BF5242002BB8BF5B42C4F8282C49
:10571000C4F8283DBDEC028B70BDBDEEE77AF8EE13
:10572000C76A17EE103A77EEE67AF7EE086A77EE78
:10573000A67A591EFDEEE77A17EE903A0B44194609
:105740007EE700BFF03A002010B50446FEF734FDB6
:10575000014B2360204610BDB0340208F020704792
:105760004FF4A07070472920FCF740B92820FCF7BF
:105770003DB908B5FCF70EF9CA20FCF737F9C3208C
:10578000FCF718F90820FCF715F95020FCF712F97E
:10579000CF20FCF72BF90020FCF70CF9C120FCF717
:1057A00009F93020FCF706F9ED20FCF71FF9642019
:1057B000FCF700F90320FCF7FDF81220FCF7FAF8DB
:1057C0008120FCF7F7F8E820FCF710F98520FCF7BA
:1057D000F1F80020FCF7EEF87820FCF7EBF8CB208E
:1057E000FCF704F93920FCF7E5F82C20FCF7E2F887
:1057F0000020FCF7DFF83420FCF7DCF80220FCF78F
:10580000D9F8F720FCF7F2F82020FCF7D3F8EA20CB
:10581000FCF7ECF80020FCF7CDF80020FCF7CAF804
:10582000B120FCF7E3F80020FCF7C4F81B20FCF7DC
:10583000C1F8B620FCF7DAF80A20FCF7BBF8A22082
:10584000FCF7B8F8C020FCF7D1F81020FCF7B2F84C
:10585000C120FCF7CBF81020FCF7ACF8C520FCF712
:10586000C5F84520FCF7A6F81520FCF7A3F8C720DB
:10587000FCF7BCF89020FCF79DF83620FCF7B6F852
:10588000C820FCF797F8F220FCF7B0F80020FCF7EE
:1058900091F8B020FCF7AAF8C220FCF78BF8B620EC
:1058A000FCF7A4F80A20FCF785F8A720FCF782F89B
:1058B0002720FCF77FF80420FCF77CF82A20FCF76F
:1058C00095F80020FCF776F80020FCF773F800202C
:1058D000FCF770F8EF20FCF76DF82B20FCF786F84A
:1058E0000020FCF767F80020FCF764F80120FCF7C3
:1058F00061F83F20FCF75EF8F620FCF777F801200E
:10590000FCF758F80020FCF755F80620FCF752F891
:105910002C20FCF76BF8C820FCF7B6F82620FCF723
:1059200065F80120FCF746F8E020FCF75FF80F204F
:10593000FCF740F82920FCF73DF82420FCF73AF862
:105940000C20FCF737F80E20FCF734F80920FCF7A0
:1059500031F84E20FCF72EF87820FCF72BF83C208D
:10596000FCF728F80920FCF725F81320FCF722F8AB
:105970000520FCF71FF81720FCF71CF81120FCF796
:1059800019F80020FCF716F8E120FCF72FF80020AA
:10599000FCF710F81620FCF70DF81B20FCF70AF8AE
:1059A0000420FCF707F81120FCF704F80720FCF7A7
:1059B00001F83120FBF7FEFF3320FBF7FBFF42200D
:1059C000FBF7F8FF0520FBF7F5FF0C20FBF7F2FFD4
:1059D0000A20FBF7EFFF2820FBF7ECFF2F20FBF757
:1059E000E9FF0F20FBF7E6FF1120FBF7FFFFC820C0
:1059F000FCF74AF82920FBF7F9FFBDE808402C2006
:105A0000FBF7F4BF08B5FBF7C5FF0321D320FCF774
:105A100009F880B208BD10B5C4B2022203212046A5
:105A2000FBF76EFF0A20FBF7B3FF2046002203219D
:105A3000FBF766FFBDE810400220FBF7A9BF38B5B1
:105A40000446E4B2FBF75AFF00212046FBF770FF43
:105A5000012105462046FBF76BFF40EA052080B296
:105A600038BD10B5C4B240212046FBF761FF0306E4
:105A700007D54C212046FBF75BFF003818BF0120FB
:105A800010BD01224B212046FBF73AFF20460022A1
:105A90004B21FBF735FF0020F2E773B50423C4B2B6
:105AA0000E461546D7210DEB03022046FBF75AFFA1
:105AB000019B1BBA1A0DC3F30B23328020462B80A7
:105AC00001224B21FBF71CFF00224B212046FBF754
:105AD00017FF02B070BD000010B50A4B1A78904253
