:020000040800F2
:100000000000032095050008D9200008DB20000827
:10001000DD200008DF200008E120000800000000CB
:10002000000000000000000000000000318C00080B
:10003000E320000800000000C18C0008258D0008A6
:10004000E5050008E5050008E5050008E5050008E8
:10005000E5050008E5050008E5050008E5050008D8
:10006000E5050008E5050008E5050008E5050008C8
:10007000E5050008E5050008E5050008E5050008B8
:10008000E5050008E5050008E5050008E5050008A8
:10009000E5050008E5050008E5050008E505000898
:1000A000E5050008E5050008E5050008E505000888
:1000B000E5050008E5050008E5050008E505000878
:1000C000E5050008E5050008E5050008E505000868
:1000D000E5050008E5050008E5050008E505000858
:1000E000E5050008E5050008E5050008E505000848
:1000F000E5200008E5050008E5050008E50500081D
:10010000E5050008E5050008E5050008E505000827
:10011000E5050008E5050008E5050008F1200008F0
:10012000E5050008E5050008E5050008E505000807
:10013000E5050008E5050008E5050008E5050008F7
:10014000E5050008E5050008E5050008E5050008E7
:10015000E5050008E5050008E5050008E5050008D7
:10016000E5050008E5050008E5050008E5050008C7
:10017000E5050008E5050008E505000800000000A9
:10018000E5050008E5050008E5050008E5050008A7
:10019000E5050008E5050008E5050008E505000897
:0C01A000FD200008E5050008092100080A
:1001B00010B5054C237833B9044B13B10448AFF3A1
:1001C00000800123237010BD6C010020000000009E
:1001D000381A020808B5034B1BB103490348AFF3B3
:1001E000008008BD0000000070010020381A0208DD
:1001F00001F0FF01102A2BDB10F0070F08D010F8D8
:10020000013B013A8B422DD010F0070F42B3F6D1DB
:10021000F0B441EA012141EA014122F007047FF0F4
:1002200000070023F0E80256083C85EA010586EA4B
:10023000010685FA47F5A3FA87F586FA47F6A5FA87
:1002400087F68EB9EED1F0BC01F0FF0102F0070293
:1002500032B110F8013B013A83EA010313B1F8D13E
:100260000020704701387047002D06BF354603381F
:10027000073815F0010F07D1013015F4807F02BF58
:10028000013015F4C03F0130F0BC0138704700BFA9
:1002900053B94AB9002908BF00281CBF4FF0FF31ED
:1002A0004FF0FF3000F074B9ADF1080C6DE904CEE9
:1002B00000F006F8DDF804E0DDE9022304B0704741
:1002C0002DE9F047089D04468E46002B4DD18A4209
:1002D000944669D9B2FA82F252B101FA02F3C2F13C
:1002E000200120FA01F10CFA02FC41EA030E9440CD
:1002F0004FEA1C48210CBEFBF8F61FFA8CF708FBEE
:1003000016E341EA034306FB07F199420AD91CEBC5
:10031000030306F1FF3080F01F81994240F21C81F7
:10032000023E63445B1AA4B2B3FBF8F008FB10333F
:1003300044EA034400FB07F7A7420AD91CEB040474
:1003400000F1FF3380F00A81A74240F20781644444
:10035000023840EA0640E41B00261DB1D4400023C9
:10036000C5E900433146BDE8F0878B4209D9002D2D
:1003700000F0EF800026C5E9000130463146BDE8B7
:10038000F087B3FA83F6002E4AD18B4202D3824221
:1003900000F2F980841A61EB030301209E46002DD0
:1003A000E0D0C5E9004EDDE702B9FFDEB2FA82F225
:1003B000002A40F09280A1EB0C014FEA1C471FFA83
:1003C0008CFE0126200CB1FBF7F307FB131140EA6A
:1003D00001410EFB03F0884208D91CEB010103F137
:1003E000FF3802D2884200F2CB804346091AA4B2F9
:1003F000B1FBF7F007FB101144EA01440EFB00FECD
:10040000A64508D91CEB040400F1FF3102D2A64531
:1004100000F2BB800846A4EB0E0440EA03409CE7D0
:10042000C6F12007B34022FA07FC4CEA030C20FA7D
:1004300007F401FA06F31C43F9404FEA1C4900FA9D
:1004400006F3B1FBF9F8200C1FFA8CFE09FB18111A
:1004500040EA014108FB0EF0884202FA06F20BD98D
:100460001CEB010108F1FF3A80F08880884240F2DD
:100470008580A8F102086144091AA4B2B1FBF9F021
:1004800009FB101144EA014100FB0EFE8E4508D91C
:100490001CEB010100F1FF346CD28E456AD90238A1
:1004A000614440EA0840A0FB0294A1EB0E01A14286
:1004B000C846A64656D353D05DB1B3EB080261EBF4
:1004C0000E0101FA07F722FA06F3F1401F43C5E9CE
:1004D000007100263146BDE8F087C2F12003D84004
:1004E0000CFA02FC21FA03F3914001434FEA1C4746
:1004F0001FFA8CFEB3FBF7F007FB10360B0C43EA38
:10050000064300FB0EF69E4204FA02F408D91CEBE7
:10051000030300F1FF382FD29E422DD902386344E5
:100520009B1B89B2B3FBF7F607FB163341EA034185
:1005300006FB0EF38B4208D91CEB010106F1FF38D4
:1005400016D28B4214D9023E6144C91A46EA0046CB
:1005500038E72E46284605E70646E3E61846F8E65D
:100560004B45A9D2B9EB020864EB0C0E0138A3E7A6
:100570004646EAE7204694E74046D1E7D0467BE787
:10058000023B614432E7304609E76444023842E7FF
:10059000704700BFDFF834D0002103E00C4B5B58FC
:1005A000435004310B480C4B42189A42F6D30B4A85
:1005B00002E0002342F8043B094B9A42F9D305F0CC
:1005C00057FB20F05DFA00F053FF70470000032056
:1005D000D8320C08000000206C0100206C010020C3
:1005E0005C580120FEE700F039BC00F0ABBC70475E
:1005F00010B50421044620F04FF8204610BD00003D
:1006000038B50C4B0C4C18800C4B82201980636859
:10061000984740F6110398420AD1094D23682C608F
:10062000822098472B688220DB689847002038BDDD
:100630000120FCE788010020540000208A010020EE
:100640008C0100204FF4A071F020FFF7D9BF00000B
:10065000F7B52D4D2B6804461B698220984780B260
:100660002080002843D02B680DF106025B6901A9A8
:1006700082209847BDF80620A2F5B47292B20A2AE9
:1006800037D90B23B2FBF3F2204B1B889A4201D9D6
:10069000013B9AB2BDF8043040F6B8318B422AD8FB
:1006A000C3F571630E339BB20F21B3FBF1F318490D
:1006B00009888B4201D94B1E9BB2164E164D3068ED
:1006C0002F68834281B28CBF591AC91AB8B2BA4294
:1006D0008CBF101A801A89B280B201440529C8BFA4
:1006E00033603368C8BF2A6063802B68A38003B07F
:1006F000F0BD0022CEE7C3F56D6308339BB20E2B2D
:10070000D2D80023D9E700BF8C0100208A01002045
:1007100088010020900100209401002037B5684630
:100720000D461446FFF794FFBDF8000030B1BDF848
:1007300002302B60BDF804302360012003B030BDCF
:10074000704770477047012380F8741080F8753047
:100750007047002070470000034B4164003918BF08
:1007600001211970704700BFAF550120002070476C
:10077000836B0BB10846184770474FF6FF70704700
:10078000406803689B69184770477047704700F0DE
:1007900079BC08B503680446D3F8803098472368CD
:1007A00020469B6F984700F0EBF8236820461B6FAC
:1007B0009847292001F028F900F0E2F82368204644
:1007C0001B6F9847F8E710B504460BF053F9236800
:1007D0002046D3F8AC30BDE81040184700F044BCC8
:1007E00000F048BC00F074BC00F01ABC00F074BC0F
:1007F00000F07CBC00F01EBC0AF0B0BB10B57C2140
:1008000004461FF049FF204610BD90F877301BB119
:10081000406803681B6818471846704710B590F881
:10082000341090F874400C4B8C421A7809D03AB9C5
:100830000A4A0B491488088810800C8001221A701B
:1008400010BD002AFCD0054A05491488088810808C
:100850000C800022F3E700BFA8550120A455012019
:10086000A655012070B50D46194635B9094B0A4AFF
:100870000A4840F2D2211FF0C3FFC0E90F52084BD3
:10088000003A18BF01221A700368BDE87040D3F81F
:100890008C301847A81A0208E01A02082E1B02081A
:1008A000AE55012008B5094B1B888B4203D8084B75
:1008B0001B88934205D9074B074A08489E211FF021
:1008C0009FFF074B1980074B1A8008BDA4550120D4
:1008D000A6550120731B0208D61B02082E1B020816
:1008E000AA550120AC550120012108B50022084677
:1008F00007F070FE0A4B186028B90A4B0A4A2921F2
:100900000A481FF07DFF00220421012007F028FF84
:10091000074B186018B9074B034A2D21F0E708BDB3
:100920009C010020F41C02083D1D02086C1D0208F9
:1009300098010020BA1D0208024B4FF0FF311868E1
:1009400007F09EBE9C010020014B186807F0D2BE44
:100950009C010020024B0021186807F091BE00BFE7
:100960009C010020FFF7F0BF034804490068002302
:100970001A4607F03BBF00BF98010020040000208A
:1009800013B5084C00231A4601A9206807F070FF30
:1009900020684FF0FF33002201A907F069FF02B081
:1009A00010BD00BF9801002003685B6C1847012050
:1009B000704703689B6A184782B0002301930D4B70
:1009C0001A6B42F400021A631A6B02F400020192DD
:1009D000019A1A6942F400021A611A6922F40002AB
:1009E0001A61054B054A1A61054B4FF080629A6007
:1009F00002B07047003802400C3A0020450A000857
:100A000000E100E040F2EF3070470000054B03606A
:100A1000054B4FF08062C3F88820BFF34F8FBFF3C0
:100A20006F8F7047581F020800E100E010B50446C0
:100A30004FF45A61FFF7EAFF20461FF02DFE2046D3
:100A400010BD0000024B1B68586803685B691847BB
:100A5000B055012070B5044625460A4B0C300026DF
:100A600060602672667245F8203B602229460BF0D2
:100A700057F904F55A63EE602435AB42FBD12046AA
:100A800070BD00BF581F020808B50B290BD8DFE85E
:100A900001F01206100A0A0A0A08080808080120CC
:100AA00008BD0520FCE7054B054A064867211FF0F5
:100AB000A7FE0020F4E70220F2E700BFFC1D0208B9
:100AC000171E0208611E020808B50A2909D8DFE8C6
:100AD00001F010060E0808080806060606000120A8
:100AE00008BD054B054A064888211FF089FE0020F5
:100AF000F6E70220F4E700BFFC1D0208AD1E020865
:100B0000611E02082DE9F8434F7F0C4639468146A5
:100B1000FFF7BAFF94F81E80054641464846FFF7A6
:100B2000B3FF414606464846FFF7CEFFA18A628BD7
:100B3000424B521A1A649A61228B521A1A61E28A43
:100B4000586342EA01425A6420696268D863DA60F5
:100B5000216894F81CC080294FEA0C6226D010D876
:100B6000202945EA020461D040295FD004295DD0E4
:100B7000324B2A4342F400324745DA615AD0304AB8
:100B800040E0B1F5807F07D0B1F5007FF0D142F4AD
:100B9000003242F0090203E042F4003242F00A025D
:100BA000DA61E2681A625E6258612AE0A4682A4348
:100BB00042F40032211DD962DA6122785E62586106
:100BC00042B1012A21D01F4B1F4A20484FF489719E
:100BD0001FF016FEDA69618822F47F42013922F0A3
:100BE000100242EA0122DA610120144BDA6942F074
:100BF0002002DA61DA699206FCD410229A60002899
:100C0000BDD0134A1A60BDE8F8836288D969541EC2
:100C100021F47F4222F0100242EA0422BCF1FF00DC
:100C200042F0100218BF0120DA61DEE744F400341C
:100C3000DC61B8E740F20122E4E700BF00B0024007
:100C400001020100F81E0208121F0208611E0208BC
:100C50000102020070B50C46897FFFF735FFA68AB6
:100C6000E18A628B154B2569586341EA0641921B64
:100C70005964DD631A642668E168082E0DD19A6113
:100C80001A615862207F0E4A42EA0062DA610D4A18
:100C900019625D61DD601A6070BD0022D8611A6161
:100CA00048090A0A02F4784200F4FC600243C1F3E6
:100CB000C4010A439A63044AEDE700BF00B0024052
:100CC000090001000102020001020300034B1A683F
:100CD000D207FCD423229A60704700BF00B00240C4
:100CE00030B50F4C2568ED07FCD423250904A56019
:100CF00041F001010225FF2B65636164E0630AD0C6
:100D00000849656241EA0363E361074B226260615F
:100D1000E060236030BDE561039BA363034BF8E70C
:100D200000B00240090001000100020001000300C0
:100D30000120704738207047382303FB010008303A
:100D40007047382303FB01000830704701207047CB
:100D500042F23C70704742F23C7303FB01000830E2
:100D6000704742F23C7303FB0100083070470120DA
:100D700070471020704700EB01100830704700EBFF
:100D8000011008307047084601F04ABD10B5034B0A
:100D90000360044609F017FD204610BD102002082C
:100DA00010B50446FFF7F2FF204640211FF074FC07
:100DB000204610BD10B5034B0360044609F003FD47
:100DC000204610BDDC1F020810B50446FFF7F2FFF5
:100DD000204642F244711FF05FFC204610BD000027
:100DE00010B5034B0360044609F0EDFC204610BD2E
:100DF000A81F020810B50446FFF7F2FF204618218D
:100E00001FF04AFC204610BD10B5094B0360044694
:100E100000F51D503030FFF7B9FF04F12C00FFF74B
:100E2000C9FF04F11400FFF7DBFF204610BD00BF2F
:100E30004420020808B50248FFF7E6FF08BD00BFDE
:100E4000A401002010B50446FFF7DEFF204642F65D
:100E50000C111FF021FC204610BD00002DE9F341CC
:100E600001F0C6F9054601F0C7F900240146234602
:100E700028462246009413F00FFB264B264A274DA6
:100E80001A60204603F054FF254813F06DFA2B78C2
:100E9000BFF35B8FDB0736D428461FF0FFFB90B310
:100EA000204C214F214B236007F1440604F114002C
:100EB00004F12C086060C4F80880E760266109F03E
:100EC00083FC1B4B6361404609F07EFC194BE362D7
:100ED000384609F079FC04F50053174AC3F8702727
:100EE00003F5F66003F0A0FF224607F1400130460B
:100EF00003F090FF304601F093FC10481FF09EFC79
:100F000028461FF0D7FB0E4802B0BDE8F041FFF7BE
:100F10003EBC00BF14560120D0380020A0010020A4
:100F200008000020A4010020142900204420020809
:100F3000A81F0208DC1F020810200208350E000856
:100F4000543800200148FFF724BC00BF543800206B
:100F500070B5234C234E244B244D23603046FFF7BD
:100F600079FD284616F0A2FB214B2248DC60224C7A
:100F700003600022F0204FF480712080C3E9121238
:100F80001E4C1F492080C3E919121E4C1A864FF0CF
:100F900080714FF4A07059670121C3E90422C3E9AD
:100FA0000622C3E90822C3E90A22C3E90E22C3E9E3
:100FB0001022C3E91422C3E916221A6683F86C20B2
:100FC0001A67C3E9016583F8781020800E4C83F816
:100FD000341020800D4802700D4A1A6070BD00BFA9
:100FE000B02A0020B42A0020981A0208D438002021
:100FF00054380020B0550120A4550120AA550120E5
:1010000001000001A6550120AC550120A855012082
:10101000241C02080148FFF7F9BC00BFB42A0020D5
:10102000034B902283F85A2383F85823704700BF5C
:1010300000E100E0094A0A49D3680A48C3F30A03F9
:10104000013B9BB20B801169C1F30A010139018098
:101050001364536B43F0010353637047006801400E
:10106000503900204E390020014BD3F8AC007047B6
:1010700000680140024B0122C3F8AC105A6270476D
:101080000068014070B5044609F0BDFF23685D6E3D
:101090000FF0E6FF01462046A8472368054AD3F82B
:1010A00088502046AC460023BDE87040A2F51631BA
:1010B000604700BF005802D009F08CBF90F84B3059
:1010C00013B1024B01221A7009F090BF4C39002075
:1010D00009F04ABF0AF0A3B8034B4FF080629A6050
:1010E0004FF080729A60704700E100E0084B4FF0CB
:1010F0008062C3F88820BFF34F8FBFF36F8F4FF02C
:101100008072C3F88820BFF34F8FBFF36F8F704793
:1011100000E100E010B5144C236823B3134B144ACC
:101120001B6C11888B4213D1124B198806F040F8C2
:10113000226892F86630013382F86630FFF714FCBB
:1011400020680AF097FCBDE810400020FFF7F8BACD
:1011500006F02EF8206803681B6A9847BDE8104027
:101160000020FFF7EEBA10BDB05501200068014025
:10117000503900204E39002007B5064BADF8060067
:101180001B68054801220DF1060106F022FD03B09F
:101190005DF804FB100000207C3B00200C4982B06D
:1011A000002303F25E2201EB820292ED007ADDED74
:1011B000017A013377EE877A3C2BCDED017AF0D1BD
:1011C0009DED010ADFED037A80EE270A02B0704739
:1011D000143C0020000070422DE9F0476A4C6B4D32
:1011E000D4F86C3A002B00F0968000232846C4F80F
:1011F0006C3A674FDFF8B881664E04F02DFE284642
:1012000004F09EFE3B6818443860634804F024FEF6
:10121000614804F095FED8F80020336801320A21B5
:101220001844C8F8002092FBF1F301FB1322306050
:10123000002A70D13A68B2FBF1F307EE103A9FED45
:10124000576ADFED576AB8EEC77A27EE067A27EEBF
:10125000267A84ED007A3368B3FBF1F307EE903A17
:10126000F8EEE77A4F4B67EE867A67EEA67AC3ED23
:10127000007AD3ED007A94ED007A77EEC77A9FED8D
:101280004A7A67EE877AC3ED007A2369002B3DD056
:10129000D4F8783ADFF81C91002BDFBF2368A361F4
:1012A0000123C4F8743A94ED007AD4ED017AB4EED7
:1012B000E77AF1EE10FAC4BF23686360D4F8783A95
:1012C0000133C4F8783AD9F800304FF0010A03EB43
:1012D0000A0203F25E23C4F870AA04EB83032168B8
:1012E000C9F800203B2A196010DD3C23D4F8780AA5
:1012F00090FBF3F0FFF752FF063004EB8000002371
:1013000080ED000AC9F80030C4F874AA00233B60DD
:10131000C8F8003033602369012B19D16369BBB968
:10132000A368B3F5C87F26D0A368B3F5967F25D010
:10133000A368C82B25D0A16840F6FF7340F67462FD
:10134000642908BF134619480022102104F05BFFEE
:10135000D4F8782AE3684FF461614B439A4206DB84
:10136000124840F6FF730022102104F04CFF0120C8
:1013700007F016F934E740F61C43E4E740F6B243C1
:10138000E1E740F6CA53DEE7143C00206039002054
:10139000A0460020A4460020A8390020EC51484077
:1013A000000080399046002000007A44F83900207F
:1013B000984600209C460020F0B5A1B010220021E4
:1013C0000AA81FF0A3FB1422002103A81FF09EFB14
:1013D0000021302214A81FF099FB0024224B019415
:1013E0001A6C42F080521A641B6C03F08053019314
:1013F000019B1E4B02941A6842F440421A601B681B
:1014000003F4404302930122029B4FF48033CDE961
:10141000082302254FF48003CDE90E5308274FF42B
:10142000A873042608A8CDE910731295139605F049
:10143000DDFE0F23CDE903354FF4A0514FF4805367
:10144000CDE9061303A80521059406F0A7F8C023EB
:10145000189314A84FF4003314971A961D9306F0AE
:1014600077F921B0F0BD00BF0038024000700040A5
:101470002DE980489BB004F009FCFFF79DFF142282
:1014800000210DA800241FF041FBC64B00941A6BED
:10149000C548C64E42F020021A631A6B02F02002C1
:1014A0000092009A01941A6B42F080021A631A6B40
:1014B00002F080020192019A02941A6B42F0040237
:1014C0001A631A6B02F004020292029A03941A6BD6
:1014D00042F001021A631A6B02F001020392039AAE
:1014E00004941A6B42F002021A631A6B02F00202B1
:1014F0000492049A05941A6B42F040021A631A6B24
:1015000002F040020592059A06941A6B42F010020E
:101510001A631A6B02F010020692069A07941A6B6D
:1015200042F008021A631B6B03F00803079322467C
:101530000421079B05F05EF89D4822464FF4805138
:1015400005F058F822469B484FF44051012505F01C
:1015500051F802274FF0040B93480F940DA9CDE9E1
:101560000DB5109704F05EFF4FF4805290480DA91E
:10157000CDE90D25CDE90F4404F054FF0DA94FF43A
:1015800040528C48CDE90D25CDE90F4704F04AFFC4
:1015900089488A4A026004F0C5FD894B894A346251
:1015A000C6E9003230464FF48042C6E90424C6E959
:1015B0000244C6E9064405F0FFF91021304605F063
:1015C0003BFC2146304605F056FC7F487F4984624B
:1015D0004FF48272C0E900124FF400761822C0E97D
:1015E00006620A227A4EC262C0E90244C0E904449B
:1015F000C0E9084406F0B0FA764A0D974FF010089B
:10160000C6E900254022C6E904824FF4C072C6E94B
:1016100006244FF4006203234FF0070AC6E90824AA
:101620000DA94FF400523046CDE911374FF00809AB
:10163000C6E9024BB262CDE90EABCDF840A01397DC
:1016400006F0B0F94FF6FF7209A93046CDE90A95C8
:10165000089409950C9406F0C5F9284604F042FB5D
:101660004FF6FF7209A93046CDE90979CDE90B544F
:1016700006F0B8F903234FF6FF7209A93046CDE909
:101680000939CDE90BB406F0ADF94FF40C720892AC
:10169000089B0C934FF6FF7209A93046CDE909B9B2
:1016A0000B9506F09FF940F26A51304606F0B1F909
:1016B000342221460DEB02001FF028FA464E474B1C
:1016C000B486C6E9003409234FF01D0CC6E9053580
:1016D0000323C6E907C340F20D1E40F24313C6E9D7
:1016E00009E340F2171940F247133046C6E90B935D
:1016F000C6E90244346186F8364005F061FCFF21FA
:10170000F022CDE912144FF4806B05214FF4A07341
:10171000CDE914B1CDE90E240DA9CDE9164230462C
:1017200022462F4E1893CDE910370D94ADF8644042
:101730008DF8664005F00FFD2A4B33601B68DFF81B
:10174000B8B0DFF8B89098473368274EDB68984701
:10175000264BC6E90A47C6E90C443046C6E90034C0
:10176000C6E9027404F061FD2946304604F016FE15
:101770001F4E214642460DA81FF0C8F91D4AB4600D
:101780004FF480333046C6E900233461357686F85D
:101790002040F462C6F828B0F460F56186F8304065
:1017A0002EE000BF00380240000802404C3A002002
:1017B00000040240000C0240F039002000300240DA
:1017C000005C0040A08601007C3B002000500140EE
:1017D000483B0020400100A0A03A002000680140E2
:1017E000583900201C0000200C3A002000B00240B4
:1017F00060390020002001400100000FF83900206E
:10180000756104F083FA0DA93046CDE90DA5374E78
:10181000CDF83CA004F098FB3549B46042F2CF0209
:10182000C6E90012304640F2E732F260CDE90D44DD
:10183000B46106F02BFD0DA93046CDE90D4406F04C
:101840003FFD2C4AC9F800204846CDE90D4404F07C
:1018500079FC42460DA94846CDE90D4404F0B2FC9E
:10186000424621460DA81FF051F9234A23499460AE
:101870004FF480331046C2E90013C2E90AB4146180
:10188000157682F82040D460D56182F830405561E9
:1018900004F03CFA184ACDF83CA010460DA9CDE959
:1018A0000D7504F051FBFEF79EFE304606F0D1FBAD
:1018B0004146484604F059FC40F6FF732246414633
:1018C000484604F0A0FC06F0DBFD0D4A0D48214619
:1018D00006F010FE0C4B0D4A186021460C4806F02D
:1018E00009FE0C4B186006F0E5FDFEE7D43B002036
:1018F0000014004000740040A8390020002101407D
:1019000064200208EB0500085439002088200208F2
:10191000D91100085C390020704770477FB5094B2A
:101920008DF817201B6802930DF117020123009216
:1019300001930A460146044805F0E6F807B05DF851
:1019400004FB00BF0C0000204C3A00207FB50023B0
:101950008DF81730084B1B6802930A4601230DF1DE
:101960001701009101930146044805F05DF99DF8C7
:10197000170007B05DF804FB0C0000204C3A002073
:101980001FB5084C24680092CDE901340A460123B2
:101990000146054805F048F9003818BF012004B099
:1019A00010BD00BF0C0000204C3A002004F09AB992
:1019B00008B506480022042104F01CFEBDE80840DA
:1019C00002480122042104F015BE00BF00080240B5
:1019D00038B50B4D044601220A484FF4005104F07B
:1019E00009FE00220421284604F004FE2046FFF7E9
:1019F000C3FB28460122BDE83840042104F0FABDAB
:101A000000080240000C024038B50B4D044600228D
:101A10000A484FF4005104F0EDFD0022042128464D
:101A200004F0E8FD2046FFF7A7FB28460122BDE8A9
:101A30003840042104F0DEBD00080240000C0240E2
:101A4000F7B5144E144F05460C46304600220421CB
:101A500004F0D0FD00224FF40051384604F0CAFDD6
:101A60002846FFF789FB0D4B0D481B68224601A94C
:101A700006F04DFA384601224FF40051019C04F063
:101A8000B9FD30460122042104F0B4FD204603B024
:101A9000F0BD00BF00080240000C02401000002012
:101AA0007C3B002004F01EB90268084B9A4210B536
:101AB000044601D104F004F92268054B9A4202BFA2
:101AC000044B0122C3F86C2A10BD00BF0004014082
:101AD00000140040143C002082B00E4B0022009203
:101AE000596C41F480415964596C01F48041009172
:101AF00000990192196C41F0805119641B6C03F03C
:101B000080530193019B0F216FF0010002B004F09C
:101B1000C9BA00BF0038024010B514228AB004468A
:101B200000210DEB02001EF0F1FF23681E4A9342D4
:101B30001FD11E4B002101915A6C42F480725A64ED
:101B40005A6C02F480720192019A02911A6B42F06F
:101B500001021A631B6B03F001030293029B8023B3
:101B600005931348032305A9069304F05BFC0AB010
:101B700010BD104A9342FAD10C4B002103915A6CCC
:101B800042F400725A645A6C02F400720392039A8F
:101B900004911A6B42F001021A631B6B03F00103FC
:101BA0000493049B0423DBE700200140003802403B
:101BB00000000240002101400268094B9A4282B0B5
:101BC0000BD100230193074B1A6B42F480521A6326
:101BD0001B6B03F480530193019B02B0704700BF5D
:101BE000003002400038024010B5044688B014228C
:101BF000002103A81EF08AFF2268124B9A421ED1D0
:101C000003F5E233002101911A6C0F4842F00052B3
:101C10001A641A6C02F000520192019A02911A6B36
:101C200042F001021A631B6B03F001030293029B53
:101C30002022032303A9CDE9032304F0F3FB08B01A
:101C400010BD00BF007400400000024007B50F4BFC
:101C500002689A4216D10022A3F5F0430192196B53
:101C600041F4000119631B6B03F400030193052188
:101C70005A20019B04F016FA5A2003B05DF804EBD9
:101C800004F042BA03B05DF804FB00BF00B00240AC
:101C90002DE9F043044689B01422002103A81EF068
:101CA00035FF2268244B9A4243D1244C2448002516
:101CB0000095236B43F004032363236B03F00403B9
:101CC0000093009B0195236B43F001032363236B77
:101CD00003F001030193019B4FF012094FF40073CD
:101CE0004FF001080327042603A9CDE90339CDE904
:101CF0000587079604F096FB4FF48073114807960A
:101D000003A9CDE90339CDE9058704F08BFB0295E2
:101D1000236C43F400032364236C03F40003029355
:101D2000029B236A43F400032362236A23F4000323
:101D3000236209B0BDE8F083005C00400038024037
:101D40000008024000000240F0B504468DB01422A5
:101D5000002107A81EF0DAFE2268574B9A4240F095
:101D6000A88003F55043002500955A6C534842F073
:101D700080625A645A6C02F080620092009A019567
:101D80001A6B42F020021A631A6B02F020020192D1
:101D9000019A02951A6B42F001021A631A6B02F063
:101DA00001020292029A03951A6B42F002021A6330
:101DB0001A6B02F002020392039A04951A6B42F026
:101DC00040021A631A6B02F040020492049A0595CD
:101DD0001A6B42F004021A631A6B02F004020592B5
:101DE000059A06951A6B42F008021A631B6B03F002
:101DF0000803069302240E26069B0A944FF4806380
:101E000007A9CDE907340B9604F00CFB41F6580303
:101E10002B480B9607A9CDE907340927CDE90954CA
:101E200004F000FB032327480B9707A9CDE90734EB
:101E3000CDE9095404F0F6FA4FF4706321480B968B
:101E400007A9CDE90734CDE9095404F0EBFA4FF4C2
:101E50000C631D480B9607A9CDE90734CDE9095459
:101E600004F0E0FAC02319480B9607A9CDE907341E
:101E7000CDE9095404F0D6FA082315480B9607A9B2
:101E8000CDE90734CDE9095404F0CCFA4FF4A0535E
:101E90000D480B9707A9CDE90734CDE9095404F0A3
:101EA000C1FA58202A46052104F0FCF8582004F015
:101EB0002BF90DB0F0BD00BF0068014000140240D6
:101EC00000000240000402400018024000080240E6
:101ED000000C024010B5044688B01422002103A86B
:101EE0001EF014FE2268144B9A4223D103F5684376
:101EF000002101915A6C114842F480125A645A6CC4
:101F000002F480120192019A02911A6B42F02002AF
:101F10001A631B6B03F020030293029B4FF4607261
:101F200002230321CDE903230523CDE9061303A9E9
:101F300004F078FA08B010BD0050014000140240CF
:101F400007B50F4B02689A4216D1002203F50933F8
:101F50000192196C41F0200119641B6C03F02003FD
:101F6000019305213720019B04F09CF8372003B032
:101F70005DF804EB04F0C8B803B05DF804FB00BFE3
:101F8000001400402DE9F04186B0002303932B4B51
:101F90001C68002C4FD14FF00108C3F80080284B7B
:101FA00000949A6B274842EA08029A639B6B03EA03
:101FB00008030093022703260C25009B01A94FF676
:101FC0003F03CDE90137CDE9046504F02BFA1E4843
:101FD000059501A9CDE90187CDE9034604F022FA70
:101FE00048F233131948059501A9CDE90137CDE928
:101FF000034604F017FA4FF683731548059501A9B7
:10200000CDE90137CDE9034604F00CFA4CF2037335
:102010001048059501A9CDE90137CDE9034604F043
:1020200001FA60230C48059501A9CDE90137CDE9F6
:10203000034604F0F7F906B0BDE8F081A846002099
:10204000003802400014024000080240001802401C
:1020500000100240000C02400004024030B501466E
:1020600089B000222C2004F01DF82C2004F04CF83C
:102070000025154B02955A6C144C42F002025A642A
:102080005B6C03F00203029301A903A8029B05F015
:1020900041FB05F02FFB0E4B236040F2E733E3607A
:1020A00040000C4BB0FBF3F0013860602046256126
:1020B000A56006F0EBF820B9204605F0CAFF09B08C
:1020C00030BD0120FBE700BF00380240AC460020D5
:1020D0000004014040420F007047FEE7FEE7FEE7C4
:1020E000FEE77047014805F0C8BF00BFAC460020BE
:1020F000014805F0C2BF00BFD43B0020014804F0F6
:10210000CDBF00BFA03A0020014804F0BCB800BF1A
:102110000C3A00200120704708B51EF0A3FB1623DF
:1021200003604FF0FF3008BD08B51EF09BFB16237F
:102130000360FEE770B50D4614460E46731B9C42C5
:1021400001DC204670BDAFF3008006F8010BF5E717
:1021500070B50D4614460E46731B9C4201DC2046AA
:1021600070BD16F8010BAFF30080F5E74FF0FF30BC
:1021700070474FF400534B600020704701207047B8
:10218000002070470A4A116808B5034609B9094991
:1021900011601068694603448B4206D91EF062FB49
:1021A0000C2303604FF0FF3008BD1360FCE700BF55
:1021B000EC46002060580120704710B50421044609
:1021C0001EF06AFA204610BD012908B506D0022982
:1021D00008D059B902F0F8FD006808BD02F0F4FD1E
:1021E0004068FAE702F0F0FD8068F6E70020F4E7C7
:1021F00000487047C02002080D20704713B5002426
:1022000051B1036801948DF8034001AA9C680DF157
:102210000303A04702B010BD0846FBE740897047A2
:10222000808970478088704783798088184480B29D
:102230007047C07900F07F007047C079C0097047CF
:10224000704710B5082104461EF026FA204610BD3E
:102250007047704700F596730868496803C3704774
:102260000020704781807047C180704701817047AE
:10227000418170477047704770477047704710B48E
:10228000C4880368121B84885B6D091B12B25DF859
:10229000044B09B218474FF6FF7383814FF0FF33A9
:1022A00003621368C36110607047704770474160F4
:1022B00070477047064BC0F848310023C0F84C31D6
:1022C00000F5A073C0F84401C0F83C31704700BF6E
:1022D000E523000801230372704790F825201AB106
:1022E00090F8242002B1186070477047704770471B
:1022F000704701464068036810315B6E184701461D
:102300004068036810311B6E18477047704710B55E
:102310000022B1F90840B1F90A100280428084809D
:10232000C18010BD10B4C26841685410034601EB6F
:102330006200D20748BF0A599B685DF8044B48BF4A
:10234000D358184743682BB183682BB9C06800F095
:1023500001007047184670470120704710B50C21E6
:1023600004461EF099F9204610BD10B51021044610
:102370001EF092F9204610BD10B54FF4AC71044622
:102380001EF08AF9204610BD10B5382104461EF013
:1023900083F9204610BD10B5282104461EF07CF9B3
:1023A000204610BD08B50EF05BFEBDE808400FF0FA
:1023B000FBB990F8252012B103685B691847704794
:1023C00010B50446D0F83C0158B10368DB68984763
:1023D00038B1D4F83C0103689B6898470023C4F8DF
:1023E0003C3110BD2DE9F14FD0E9545A0746A86899
:1023F00003681B6A9847B0F5C26F05D2454B464A41
:10240000A32146481EF0FCF9686803681B6A9847D8
:102410000F2803D8424B404AA421F2E7E86803683A
:102420001B6A98470B2803D83E4B3B4AA521E8E797
:10243000DFF8F8900EF014FE0EF018FED9F8000048
:1024400010B10368DB689847D9F8000010B1036841
:102450001B689847DFF8D880D8F8000010B10368EF
:102460005B699847D7F8380110B103685B689847F3
:10247000D8F8000010B103681B689847D7F83801F6
:1024800010B103689B689847E868036800215B6A9D
:1024900098474FF0000B244B03600446C0F804B08B
:1024A00080F808B0A868036859465B6A98470646F2
:1024B00002F0CCFD6868036859465B6A984731466C
:1024C000054602F017FDC9F80040C7F83851C8F8B2
:1024D0000060E5B12B1DCAF800303368C5F808A0CC
:1024E0003046DB68F56398472B6828461B68984799
:1024F0002146304610F062FA236820461B6998474F
:1025000023685B69204601B0BDE8F04F18472B46B1
:10251000E1E700BFD4210208622202086623020814
:10252000AD2302085024020880260208F855012035
:10253000F45501202DE9F74FD0E954BA0746DBF8EE
:10254000080003681B6A984742F23B73984205D81B
:10255000564B574AA32157481EF052F9DBF80400A6
:1025600003681B6A98470F2803D8534B504AA4218D
:10257000F1E7DBF80C0003681B6A9847372803D89B
:102580004E4B4B4AA521E6E7DFF844910EF068FD7B
:102590000EF06CFDD9F8000010B10368DB689847B5
:1025A000D9F8000010B103681B689847DFF8248150
:1025B000D8F8000010B103685B699847D7F8380174
:1025C00010B103685B689847D8F8000010B1036841
:1025D0001B689847D7F8380110B103689B68984783
:1025E000DBF80C00036800215B6A9847344B0360FA
:1025F00004464FF4A053038100254FF480734560D7
:10260000857263632F4B23612F4BE581B3F9001073
:102610002E4BA1811030C4E90555C4E90755C4E922
:102620000955C4E90B55B3F900600190FFF71EFE90
:1026300023690198DB6B31469847DBF80800036893
:1026400029465B6A9847064603F068F8DBF8040001
:10265000036829465B6A98473146054602F050FDFB
:10266000C9F80040C7F83851C8F80060E5B12B1D23
:10267000CAF800303368C5F808A03046DB68F56357
:1026800098472B6828461B6898472146304610F02B
:1026900095F9236820461B69984723685B692046A3
:1026A00003B0BDE8F04F18472B46E1E7D4210208FC
:1026B000F324020866230208AD230208502402080E
:1026C0000C270208A4260208A4550120A6550120C3
:1026D000F8550120F4550120044B1B6893F876202F
:1026E0000AB1D86C00B99868704700BFB055012096
:1026F000F0B50446807A637A0130C0B2984289B05E
:10270000A07250D8B4F90C20002110F05DF910F03F
:10271000010283B24DD04FF6FF710028D8BF0A46A0
:102720001344E381244E254F3188B4F818C0E3895F
:10273000B7F90000ADF81E00CA1A606863445B1A5E
:10274000ADF81C30036812B200251B692283ADF876
:102750001820ADF81A5006A99847A37A012B26D164
:10276000174B1B781BB3A169606904AB03C3154BFE
:10277000186803681B6B98473388ADF81C303B889A
:10278000ADF81E300390ADF81850ADF81A50FFF7B1
:10279000A3FFFF22036800920195DC68039904AB54
:1027A00006AAA04703E0012323720023A37209B005
:1027B000F0BDE081B6E700BFA4550120A655012079
:1027C000AE550120B0550120F8B5044617460E4617
:1027D0000EF066FC0E4B1C600E4B23600E4B00256A
:1027E000C4E950350D4BC4E95255186803682946B1
:1027F0009B68C4E94E55C4E954769847284602F0D0
:1028000097FAFFF769FF16F038FD2046F8BD00BFC4
:1028100004560120342602081C260208B055012067
:10282000064BC0F848310023C0F84C3100F5A073C6
:10283000C0F84401C0F83C31704700BFE5230008F0
:10284000064BC0F848310023C0F84C3100F5A073A6
:10285000C0F84401C0F83C31704700BF352500087E
:10286000006A7047406A704770478B8880690A68C1
:10287000DB0A50F823001044704710B5C2B1137B37
:10288000B3B1547BD27A240204F4E0641443C269E5
:1028900098B202EB840213888B4202D192F90200B3
:1028A00010BD05D8013880B204320028F3D1F7E713
:1028B0000020F5E710B5282104461DF0EDFE204666
:1028C00010BD000030B589B00446BDF850500695E3
:1028D000BDF84C5005959DF8405004959DF83C502E
:1028E00003959DF8385002959DF8345001959DF858
:1028F000305000950FF0F8FB064B2360119BA3614D
:10290000129BE361159B2362169B6362204609B00C
:1029100030BD00BF30270208806A7047704770479B
:1029200070477047704730B50368018185B06D46C8
:102930000146D3F8843004462846984795E80700B6
:102940003C3484E8070005B030BD30B503684181F0
:1029500085B06D460146D3F8843004462846984732
:1029600095E807003C3484E8070005B030BD00223C
:10297000028042808280C280704780F836107047A3
:1029800070B5036804461B6B1546984723682946B3
:1029900020465B6EBDE87040184700207047806C91
:1029A000704770477047704770477047704770476F
:1029B000704790F82C304BB100F16C021268C26580
:1029C0003BB100F174031B680366704700F16802B5
:1029D000F4E700F17003F6E77047704770477047FF
:1029E00030B4C26844685510034604EB6200D20755
:1029F00048BF62599B6830BC48BFD35818474368EA
:102A00002BB183682BB9C06800F0010070471846ED
:102A100070470120704730B4C268446855100346BF
:102A200004EB6200D20748BF62599B6830BC48BFC4
:102A3000D358184743682BB183682BB9C06800F09E
:102A400001007047184670470120704790F82D30FC
:102A500080F8A43080F85A30704790F82D3080F814
:102A60005A30704710B504467C3094F82C303BB196
:102A700004F17A010BF046FE2046FFF79AFF10BDE5
:102A800004F17801F6E710B54C2104461DF004FE70
:102A9000204610BD10B5782104461DF0FDFD2046EE
:102AA00010BD10B5A82104461DF0F6FD204610BD4E
:102AB00010B5102104461DF0EFFD204610BD10B5E5
:102AC000102104461DF0E8FD204610BD10B54FF45E
:102AD000C26104461DF0E0FD204610BD10B504465D
:102AE000006B50B10368DB68984730B1206B036816
:102AF00021469B68BDE81040184710BD00F1C40294
:102B0000914202D10368DB6A184700F5B672914220
:102B100002D103681B6BF7E700F22442914202D115
:102B20000368DB6BF0E700F2CC42914202D103680C
:102B30009B6BE9E770470B7970B590F82C60044601
:102B40000D469BB98EB9B3FA83F35B0984F82C3038
:102B500023682046D3F88C309847236820465B6969
:102B6000984716B12B79012B03D070BD002EFCD0F5
:102B7000E9E723682046D3F88830BDE8704018475D
:102B8000036870B55E6B124B1B6804468DB22BB99F
:102B9000104B114A6C2111481DF032FE1049828DF4
:102BA0000988914203D80F4B0B4A6D21F3E713F8C4
:102BB00012200D4B1B6853F822000368DB6A98470C
:102BC000281A01B233462046BDE87040184700BFBE
:102BD0000856012080270208C2270208FD270208A4
:102BE0000C560120442802081056012000F52A73D3
:102BF0008B4210B5044609D10EF032FAFFF720FEE1
:102C0000236820465B6BBDE81040184710BD0022CA
:102C10004FF0FF31C0E900218260704770B5036852
:102C200004461B6B154698472368294620465B6B74
:102C3000BDE8704018470B882DE9F041A0F87830C6
:102C40001388B0F90850A0F87A3004461046904630
:102C500011F036FCB4F90A30074603EBD373404653
:102C6000C3F34F0611F060FC05EBD575C5F34F05B6
:102C700000EBD07007EBD777A6EB6002A5EB6707F8
:102C800004F17C0039B212B2FFF7C8FF2368204676
:102C9000D3F88C30BDE8F041184770B504461D46A6
:102CA000BDF91060FFF7BAFF2368294620469B6BE9
:102CB0009847236831462046DB6BBDE870401847D3
:102CC0000022C0E90122C0E90322C0E90522C0E9CF
:102CD00007224FF480728284014A0260704700BF6D
:102CE000C828020810B52622044600211DF00EFF58
:102CF0002046FFF7E5FF044B2360FF2384F82630CE
:102D00000023A362204610BD1C40020838B52622CD
:102D100004460D4600211DF0F9FE2046FFF7D0FFC6
:102D2000064B23602B88E384FF23204684F8283059
:102D300029460BF0E7FC204638BD00BF6041020881
:102D400010B52622044600211DF0E0FE2046FFF7C4
:102D5000B7FF0A4B23600A4BA3624FF6FF73A385AC
:102D60004FF47F020023C4E90C324FF0FF32C4E974
:102D700010232387E363204610BD00BF8C3F020869
:102D8000CC2102081B4B73B51B88018F8B42064672
:102D90002BD9194B1B682BB9184B194A19486C21B0
:102DA0001DF02EFD13F81120174B1B6853F822500D
:102DB000164B186801F0F8FF2B68019001469B6ADA
:102DC000284698472B6801991B6C0446284698476B
:102DD0002B6801995B6A14FB00F428469847E4B21B
:102DE000044486F8454002B070BD002380F84530A9
:102DF000F9E700BF0C560120085601208027020881
:102E0000C2270208FD27020810560120145601208F
:102E10004FF47F4373B50646838540F201130025C6
:102E200083841D4B8562C0E90155C0E90355C0E9A3
:102E30000555C0E90755056346F8343B044630465E
:102E4000FFF750FF154B63632A46C4E91A55C4E9DE
:102E50001C552566A4F8645029463046FFF7DEFE6F
:102E60003146204607F0DAFD0D4B236004F17C0566
:102E70004FF6FF73A4F87830A4F87A3001A92846F9
:102E8000ADF80430FFF742FF2046294607F0C6FDA3
:102E9000204602B070BD00BFC0290208F8400208F9
:102EA0005C2A020810B40367019B436703685DF85E
:102EB000044BD3F88C30C0E91A1218472DE9F04FB3
:102EC0002DED0C8B04468DB00FF0CCFB2246002577
:102ED000E54BE56342F8403B104608EE102AFFF749
:102EE00001FF04F16C034FF6FF760AA918460CEEB9
:102EF000103AADF82860FFF709FF04F198030AA91A
:102F000018460CEE903AADF82860FFF7FFFE04F18A
:102F1000C403184608EE903AFFF77AFF04F5B6733B
:102F2000184609EE103AFFF773FF04F505731846CB
:102F300009EE903AFFF704FF04F5177318460AEEFE
:102F4000103ACA4FFFF7FCFE04F52A73C4F85C720E
:102F5000C4F8A45218460AEE903A0BF005FD04F5A9
:102F60003C730AA918460DEE103AADF82860FFF739
:102F7000CDFE04F5477318460BEE103AFFF7E0FE5E
:102F800004F5597304F56C7B18460BEE903AFFF785
:102F9000D7FEC4F86473C4F8AC535846FFF7D0FEAC
:102FA00004F57E730AA9184604F224490DEE903AFE
:102FB00004F2CC48ADF82860FFF7A8FE4846FFF7BA
:102FC00027FF04F2745A4046FFF722FF5046FFF7EE
:102FD000B7FEA74BC4F8F035A64BC4F8F835A64B9E
:102FE000C4F80036A54BC4F80836F0232A46294613
:102FF00018EE100AC4F87475C4F8BC55C4F8FC5532
:10300000C4F80C560093C4F8F4454FF4A073C4F808
:103010000446FFF742FE4FF07F43A3662A46294647
:103020001CEE100AFFF7FAFD1CEE100A0AA9ADF813
:1030300028500BF067FB1CEE900A19227621FFF74F
:10304000EDFD0AAA4FF0030311461CEE900AADF8FD
:1030500028300BF057FB17230527894E00932A468B
:1030600029462B2304F1F800FFF717FE854B864A0B
:103070008649009618EE900AA4F82871FFF712FF0F
:1030800018EE900A0AAA09A9ADF82470ADF82870C4
:10309000FFF7D1FD172318EE900A009331222B235E
:1030A00040F21111C4F84471FFF7F7FD04F5C06355
:1030B0000393C4F8F43017232A462946009304F5F5
:1030C000D0702B23FFF7E9FD6E4B6F4A6F490096D6
:1030D00019EE100AA4F8D071FFF7E4FE4FF00602D3
:1030E0000AA8ADF82420ADF8282009A9024619EE57
:1030F000100AFFF7A0FD0620C4F8EC0117202B23CF
:103100000090192219EE100A40F21111FFF7C5FDC7
:10311000039AC4F89C2119EE900A1C22292104AEBE
:10312000FFF77CFD4FF0FF3019EE901AC4F844020F
:10313000A4F8485230460AF0E5FD96E8070004F589
:10314000147383E80700524B0A9319EE900A142374
:103150000AA9ADF82C300BF057F818202422009063
:103160007C231AEE100A8F21FFF797FDD4F85C320A
:10317000A4F890524FF0FF30D3F88430C4F88C029A
:103180001AEE101A3046984796E8070004F52673A1
:1031900083E8070004F5B863C4F8A4323C4BA4F8F4
:1031A000C0551AEE100A0A930AA91323ADF82C3061
:1031B0000BF02AF81AEE900AB4224E21FFF72EFDEA
:1031C00001230AA8024609A91AEE900AADF8243094
:1031D0000223ADF828300BF072F812231AEE900A91
:1031E000A4F8E032FFF7CEFD04F5BE634FF0FF30E8
:1031F000C4F8D0328A22C4E9B90076211DEE100A43
:10320000FFF70CFD4FF003010AA8ADF828100146A6
:103210001DEE100A0BF076FA8D221BEE100A292102
:10322000FFF7FCFC4FF0FF301BEE101AC4F84C0304
:10323000A4F8505330460AF065FD96E8070004F5FF
:10324000567383E80700124B0A930AA8112301461C
:103250001BEE100AADF82C300AF0D6FF182093228E
:1032600000907C2316E000BF2C2B020830290208B6
:10327000FC2A0208ED2B0008142B0208FD2A000886
:10328000996633FF663300FFCC9900FF996600FF13
:10329000CC2102081BEE900A8F21FFF7FEFCD4F828
:1032A0006433A4F898534FF0FF30D3F88430C4F857
:1032B00094031BEE901A3046984796E8070004F5F1
:1032C000687383E8070004F2D453C4F8AC330AA847
:1032D000964BA4F8D45501460A931BEE900A10238E
:1032E000ADF82C300AF090FF562206215846FFF721
:1032F00095FC4FF0FF30C4F8E003A4F8E4535946BE
:1033000030460AF0FFFC96E8070004F57B7383E87B
:1033100007000AA8854B0A9301465846ADF82C7061
:103320000AF072FF53221DEE900A7621FFF776FC19
:103330004FF003011DEE900AADF828100AA90BF01A
:10334000E1F917212A4600912B23294604F58B60C9
:10335000FFF7A3FC764B0093A3F13313A3F54C5373
:10336000744A7549A4F888744846FFF79BFD0AA97A
:103370000A46484609A9ADF82470ADF82870FFF751
:103380005AFC172100912B23692240F21111484663
:10339000C4F8A474FFF781FC039AC4F854241721DD
:1033A0002A4600912B23294604F5A060FFF775FCFF
:1033B0005F4B0093A3F13313A3F54C535D4A5E4971
:1033C000A4F830754046FFF76DFD4FF00602ADF8EA
:1033D0002420ADF8282009A90AAA4046FFF72BFCB3
:1033E0000623C4F84C351723009351222B2340F2B7
:1033F00011114046FFF751FC039BC4F8FC3418231D
:103400005D2200938F217C235046FFF746FC4FF04E
:10341000FF33C4F8A435D4F87435A4F8A855D3F80C
:10342000843051463046984796E8070004F5B66365
:1034300083E80700414B1B6804F5BD652BB9404B81
:10344000404A602140481DF0DBF9404B1B88032BAC
:1034500003D83F4B3B4A6121F4E73E4B03211868F8
:1034600001F0A2FC3C4A03460321284610F0B6FDB9
:103470002E4BC4F8BC550A93251D04230AA95046B7
:10348000ADF82C300AF0C0FE18EE101A284607F0EE
:10349000C5FA1CEE101A284607F0C0FA1CEE901A66
:1034A000284607F0BBFA18EE901A284607F0B6FA3D
:1034B00019EE101A284607F0B1FA19EE901A2846AC
:1034C00007F0ACFA1AEE101A284607F0A7FA1AEE1F
:1034D000901A284607F0A2FA1DEE101A284607F0A7
:1034E0009DFA1BEE101A284607F098FA1BEE901A68
:1034F000284607F093FA5946284607F08FFA1DEE42
:10350000901A284607F08AFA4946284607F086FAB4
:103510004146284607F082FA2846514607F07EFACF
:1035200020460DB0BDEC0C8BBDE8F08FCC2102081D
:10353000996633FFCC9900FF996600FF0856012079
:103540008027020882280208FD2702080C56012065
:103550004428020814560120BA28020800207047A7
:103560008B88838001207047704780F82C1070474B
:1035700010B40368046BD3F8A430624361435DF870
:10358000044B1847D0ED0C7A0368F8EEE77AD3F8CD
:10359000A43020EE270AB5EEC00AF1EE10FA17DBD0
:1035A000B6EE007A30EE070ABDEEC07A17EE101ABA
:1035B00060EEA70AF5EEC00AF1EE10FA1CDBF6EE9B
:1035C000007A70EEA70AFDEEE07A17EE902A18470F
:1035D000BDEEC07AF8EEC76A17EE102A30EE660A22
:1035E000F7EE086A30EE260A511EBDEEC00A10EE54
:1035F000102A0A441146DBE7FDEEE07AB8EEE77ADE
:1036000017EE902A70EEC70AB7EE087A70EE870AB6
:10361000013AFDEEE00A10EE90CA94446246D6E705
:1036200010B40368046BD3F8B03062435DF8044B08
:103630001847D0ED0C7A0368F8EEE77AD3F8B0308B
:1036400027EE800AB5EEC00AF1EE10FA08DBF6EEBE
:10365000007A30EE270AFDEEC07A17EE902A18475E
:10366000FDEEC07AB8EEE77A17EE902A30EE470A00
:10367000B7EE087A30EE070A013ABDEEC00A10EE46
:1036800010CA94446246EAE710B40368446BD3F866
:10369000BC30624361435DF8044B1847D0ED0D7AAE
:1036A0000368F8EEE77AD3F8BC3020EE270AB5EECF
:1036B000C00AF1EE10FA17DBB6EE007A30EE070A18
:1036C000BDEEC07A17EE101A60EEA70AF5EEC00A3A
:1036D000F1EE10FA1CDBF6EE007A70EEA70AFDEEB2
:1036E000E07A17EE902A1847BDEEC07AF8EEC76A66
:1036F00017EE102A30EE660AF7EE086A30EE260A58
:10370000511EBDEEC00A10EE102A0A441146DBE736
:10371000FDEEE07AB8EEE77A17EE902A70EEC70A6F
:10372000B7EE087A70EE870A013AFDEEE00A10EE75
:1037300090CA94446246D6E710B40368446BD3F849
:10374000C03062435DF8044B1847D0ED0D7A036832
:10375000F8EEE77AD3F8C03027EE800AB5EEC00A5B
:10376000F1EE10FA08DBF6EE007A30EE270AFDEEF5
:10377000C07A17EE902A1847FDEEC07AB8EEE77AC5
:1037800017EE902A30EE470AB7EE087A30EE070AB5
:10379000013ABDEEC00A10EE10CA94446246EAE750
:1037A000D0F82C31026B002B07DB02EB430393FBB9
:1037B000F2F000EBD070401070476FF0010000FB9A
:1037C0000320013890FBF2F000EBD0704010404233
:1037D0007047D0ED4B7AB8EEE70AD0ED0C7AF8EEF0
:1037E000E77A80EE270A7047D0F82C017047D0F8AE
:1037F0003031026B002B07DB02EB430393FBF2F04B
:1038000000EBD070401070476FF0010000FB032008
:10381000013890FBF2F000EBD0704010404270474E
:10382000D0ED4C7AB8EEE70AD0ED0C7AF8EEE77AF4
:1038300080EE270A7047D0F830017047D0F8343155
:10384000426B002B07DB02EB430393FBF2F000EB30
:10385000D070401070476FF0010000FB032001386A
:1038600090FBF2F000EBD070401040427047D0ED7A
:103870004D7AB8EEE70AD0ED0D7AF8EEE77A80EEF1
:10388000270A7047D0F834017047D0F83831426BBE
:10389000002B07DB02EB430393FBF2F000EBD0704D
:1038A000401070476FF0010000FB0320013890FBCF
:1038B000F2F000EBD070401040427047D0ED4E7AED
:1038C000B8EEE70AD0ED0D7AF8EEE77A80EE270A37
:1038D0007047D0F83801704770B503680446D3F8D4
:1038E00088300D46164698472368324629462046BA
:1038F000D3F89030BDE8704018470368D3F894308F
:1039000018470368D3F8D43018470368D3F8E03079
:1039100018470368002A10B4D3F8A430046B0EDBF8
:1039200004EB420292FBF4F101EBD1714910B0F9C2
:103930001E215DF8044B013A0A44494218476FF0D2
:10394000010101FB0241013991FBF4F101EBD1715D
:1039500049104942EBE70368D3F83C311847026B42
:1039600003685143D3F8483118470368D3F844310A
:103970001847D0ED0C7A0368F8EEE77AD3F84831AF
:1039800027EE800AB5EEC00AF1EE10FA08DBF6EE7B
:10399000007A30EE270AFDEEC07A17EE901A18472B
:1039A000FDEEC07AB8EEE77A17EE902A30EE470ABD
:1039B000B7EE087A30EE070A511EBDEEC00A10EECF
:1039C000102A0A441146EAE7C0F83C117047036820
:1039D000D3F850311847036810B5D3F85C3104466A
:1039E00098470028236B07DB03EB400090FBF3F0C4
:1039F00000EBD070401010BD6FF0010202FB0030F0
:103A0000013890FBF3F000EBD07040104042F2E739
:103A10000368D3F858311847036810B5D3F85C3100
:103A20000446984707EE900AB8EEE70AD4ED0C7A00
:103A3000F8EEE77A80EE270A10BDD0F83C01704717
:103A4000026B03685143D3F868311847D0ED0C7A04
:103A50000368F8EEE77AD3F8683127EE800AB5EE0E
:103A6000C00AF1EE10FA08DBF6EE007A30EE270A13
:103A7000FDEEC07A17EE901A1847FDEEC07AB8EE48
:103A8000E77A17EE902A30EE470AB7EE087A30EE62
:103A9000070A511EBDEEC00A10EE102A0A44114654
:103AA000EAE7C0F840117047036810B5D3F87431E5
:103AB000044698470028236B07DB03EB400090FB8C
:103AC000F3F000EBD070401010BD6FF0010202FB6C
:103AD0000030013890FBF3F000EBD0704010404212
:103AE000F2E7036810B5D3F874310446984707EE3F
:103AF000900AB8EEE70AD4ED0C7AF8EEE77A80EE99
:103B0000270A10BDD0F8400170470368026BD3F854
:103B10008431002910B504460EDB02EB410191FB14
:103B2000F2F101EBD171491009B220469847D4E96E
:103B30004F2302FB003010BD6FF0010000FB01219C
:103B4000013991FBF2F101EBD17149104942EBE7E8
:103B5000006B7047406B70470368D3F848311847D3
:103B60000368D3F85C311847026B03685143D3F8FC
:103B700014311847036870B5D3F81851D3F8803161
:103B8000D0F84461044698472B4656F8201020464A
:103B9000BDE870401847B0F91C21B0F91E319342BE
:103BA00007DBB0F94C31194491FBF2F002FB101124
:103BB00009B2084670474801704780F826107047E0
:103BC00090F82600704710B50022B1F90840B1F90D
:103BD0000A10028042808480C18010BD00220280D1
:103BE00042808280C2807047C1627047C06A70475D
:103BF0000120704770477047C06B18B10368D3F855
:103C000080301847704730B5B2F81A11B2F9144134
:103C1000B2F94050B2F8422044802144521A0021A7
:103C200001808580C28030BD10B54280BDF908405A
:103C3000BDF90C2004808280C38010BD0B6808464B
:103C4000D3F8D43018470B680846D3F8E03018474B
:103C5000B1F914017047B1F81401B1F81A310344F5
:103C6000B1F84200C01A00B27047B1F916017047AE
:103C7000B1F81601B1F818310344B1F84000C01A88
:103C800000B270470B680846D3F814311146184744
:103C9000B2F8181130B5B2F9165105806C18B2F8A7
:103CA0004010B2F94220C280091B00244480818068
:103CB00030BD02808380BDF90020BDF90430428010
:103CC000C38070470B680846D3F8EC3018470B6880
:103CD0000846D3F8F8301847B1F916017047B1F823
:103CE0001601B1F818310344B1F84000C01A00B20F
:103CF0007047B1F914017047B1F81401B1F81A31E5
:103D00000344B1F84200C01A00B270470B6808467D
:103D1000D3F81831114618477047704770477047FD
:103D200070477047704730B4C26844685510034606
:103D300004EB6200D20748BF62599B6830BC48BFA1
:103D4000D358184743682BB183682BB9C06800F07B
:103D500001007047184670470120704710B5402198
:103D600004461CF099FC204610BD10B540210446C5
:103D70001CF092FC204610BD10B54FF42B61044698
:103D80001CF08AFC204610BD10B54FF4107104469B
:103D90001CF082FC204610BD10B5102104461CF01A
:103DA0007BFC204610BD10B542F23C7104461CF06D
:103DB00073FC204610BD90F82C300BB106F067BEA6
:103DC000704713B503460846D3E90C140368019104
:103DD000D3F88C30984701990246204602B0BDE8DE
:103DE000104008F09DBC13B503460846D3E90C14F7
:103DF00003680191D3F89430984701990246204610
:103E000002B0BDE8104008F08BBC00000A1E10B5DF
:103E100003DBB0F91E41944206DC084B084A09480E
:103E200040F233611CF0ECFC0368D0F84441D3F855
:103E30008031984754F8200010BD00BF6C2B020859
:103E40008F2B0208DE2B02080B1E10B5044603DB85
:103E5000B0F91E219A4206DC074B084A084840F296
:103E60002D611CF0CDFC0368D3F884319847D4E968
:103E70004F2302FB003010BD6C2B02083B2C0208C4
:103E8000DE2B020800F589530833994210B5044629
:103E900015D190F87D3D83F0010380F87D3D90F8C9
:103EA000F13083F0010380F8F13000F658500EF045
:103EB0006EF804F1CC00BDE810400EF068B800F5D3
:103EC0009C530833994208D100F58053002200F535
:103ED000965083F8FD221830EDE710BD37B501ABE1
:103EE00015460EF0F6F900284FEA401401992A46CB
:103EF0004FF0200004DB0EF00BFA204403B030BD7D
:103F00000EF006FA201AF9E770B5B0F91441B0F8CE
:103F10001A516319B0F84250ED1AD0E94D320E46ED
:103F20002DB2D21A691EF01AFFF7D8FF2C44013CBB
:103F3000C0EB441070BD38B504460846B4F81831DB
:103F4000B4F816110B44B4F84010D4E94B52C91A16
:103F500009B2521B0139401BFFF7C0FFB4F91631FB
:103F600000EB431038BD000010B5044607F0C0FF59
:103F7000064A2260002301220A21C4E90C21E362DF
:103F800084F83820E363204610BD00BF103C0208CF
:103F900070B50023124E8380124B0360336893F890
:103FA000762005460AB1D86C00B998680368DB6AC8
:103FB00098473368B0FA80F4D86C640930B103686C
:103FC000DB6A9847002808BF44F001042CB9064B6F
:103FD000064A07482C211CF013FC284670BD00BF80
:103FE000B0550120FC2E02088A2C0208E82C020899
:103FF000212D020810B5044607F07AFF0A4A226014
:1040000000230122C4E90C23084AA2634FF6FF7281
:10401000A2872E22E36284F84030A4F84230A4F84C
:104020004420A364204610BD083E0208CC210208AB
:1040300010B52622044600211CF068FD2046FEF73C
:104040003FFE054B23600023A36284F82C3001233C
:1040500084F82430204610BDA83E020810B504465E
:10406000FEF76EFE024B23600023A364204610BDC2
:10407000302902082DE9F04F2DED108B044697B042
:104080000EF0F0FA22460025EB4BE56342F8403B88
:1040900010460BEE902AFEF725FE04F16C034FF656
:1040A000FF7614A918460CEE103AADF85060FEF7F2
:1040B0002DFE04F19803184604F1CC0B0DEE903A56
:1040C000FEF710FEDD4BC4F898304FF41671C4F8BB
:1040D000C450A4F8C850584608F0BEFAD84BC4F8EB
:1040E000CC3004F5077201232946C4E98235C4E9BE
:1040F0008425584640F25722FFF73AFA04F67C33FB
:10410000D04AC4F8CC201846A4F818520FEE103A42
:1041100007F0EEFE4FF00202CB4BDFF8509384F82D
:10412000A82B04F6AC32C4F87C3B10460792FFF78C
:104130002FFF09F1240204F53C61C4F8B42BC4F844
:10414000AC9B0846C4F8B85BDFF824A3BF4F0FEE62
:10415000901AFFF709FF04F54061C4F8C0AB0846A8
:104160000891FFF701FF04F54461C4F8007C08469C
:104170000EEE101AFFF7F8FE04F54861C4F840ACE3
:1041800008460EEE901AFFF7EFFE04F54C61C4F8F6
:10419000807C08460991FFF72DFFAD4AC4F8C02C7A
:1041A00004F60C51084604F658580A91FFF722FF0E
:1041B000A849C4F80C1D40463C2108F04DFAA04B1C
:1041C000C4F8583D012004F6A86329463B22C4F8F0
:1041D000940EC4F89C3E4046C4F8985EC4F8A05EB5
:1041E000FFF7C6F99C4BC4F8583D04F69870A4F844
:1041F000A45E0B9007F07CFE934BC4F8983F4FF001
:10420000020384F8C43F04F6C8700C90FFF7C0FEA8
:1042100009F12402C4F8D02FC4F8C89F04F6DC705A
:10422000C4F8D45F0D90FFF79FFE04F5805004F5AD
:104230008059C4F8DCAF1C300590FFF795FE04F5FB
:104240008250C9F81C701C300390FFF78DFE04F5F6
:104250008450C9F85CA01C300490FFF785FE04F57B
:104260008650C9F89C701C300690FFF7C3FE794950
:10427000C9F8DC1004F589510831084609EE101A16
:10428000FFF7D6FE754BC9F8283104F58B51A9F814
:104290005661A9F8586189F85A61A9F85C61084625
:1042A00009EE901AFEF74CFD04F58D5108310846D1
:1042B00008EE101AFFF7D2FE04F58F5114310846AC
:1042C0000AEE101AFFF7CAFE04F5925108460CEEEA
:1042D000901AFFF7C3FE04F594510C3104F5965A79
:1042E00008460AF1180A0AEE901AFFF7B7FE504680
:1042F00006F00AFB04F59C51083108460DEE101A31
:10430000FFF796FE04F59D511C31554BC9F88833D3
:104310000B461846A9F8B663A9F8B86389F8BA63DA
:104320000BEE101A14A9ADF85060FEF7EFFC04F57F
:104330009F510831084608EE901AFEF701FD494BDF
:10434000C9F86C3404F5A350474BC9F874344FF4E2
:1043500096511C30C9F87044C9F878540BF0C0F974
:10436000F0231BEE900A00932A464FF4A0732946CF
:10437000FEF793FC4FF07F416FF016021CEE100A1F
:10438000A1666FF06C01FEF749FC4FF004011CEED2
:10439000100AADF8501014A90AF0B4F9A6214FF490
:1043A000A0731DEE900A00912A462946FEF775FC7F
:1043B0004FF0FF31C4F8C0104FF07F41C4F8C41073
:1043C0004FF00101A4F8C8102A464FF47A715846FC
:1043D000FFF782FA0A2229465846FFF7C9F8A621B4
:1043E00000914FF4A0732A4629465846FEF755FC23
:1043F0000F210091052314220621584608F0DEF80B
:104400002B462A4629465846009507F0DAFFF7EE74
:10441000080AB7EE000A5846FFF740F94FF47A72DF
:10442000D4F8F01BD4F8F40B84F8F15008F078F9C4
:104430001EEE103A1EE000BF6C320208F84002087F
:10444000BC3802081C2F0208943B0208442E0208C4
:10445000C83C0208683D0208B8300208183F02084C
:104460008440020854320208853E00080C380208D5
:104470008C2D02084FF47A76D34FC4F8FC3B4FF0F2
:104480000101C4F8F06BC4F8EC7BC4F8F46B84F859
:10449000F81B58461FEE901A07F09EFF3246D4F8DC
:1044A000301CD4F8340C08F03BF91EEE903A4B2047
:1044B0004FF00101C4F83C3CC4F8306CC4F82C7CCB
:1044C000C4F8340C84F8381C5846089907F084FF67
:1044D0003246D4F8701CD4F8740C08F021F94FF06F
:1044E000020384F8783C1EEE101AC4F8706CC4F80D
:1044F0006C7CC4F8746C584607F06EFF3246D4F8F2
:10450000B01CD4F8B40C08F00BF94FF0020396215C
:1045100084F8B83CC4F8B06CC4F8AC7CC4F8B41CE3
:1045200058461EEE901A07F057FF3246D4F8F01C9A
:10453000D4F8F40C08F0F4F84FF007020999C4F825
:10454000F06CC4F8F46CA4F8FC2CC4F8EC7C58466D
:1045500007F066FF3246D4F83C1DD4F8400D08F051
:10456000DFF89622C4F8402D4FF00602A4F8482D3B
:104570004FF001020A99C4F83C6DA4F84E2DC4F81E
:10458000387D584607F03AFF079BC4F8A43B4FF02C
:104590007F424FF0020384F8A83B1FEE101AC4F8C4
:1045A000B82B5846A4F8BC5B07F016FF31462A46E4
:1045B0004046FFF791F9A62200924FF4A0732A46D5
:1045C00029464046FEF769FB0F2200922B4618222F
:1045D0000621404607F0F2FF2B462A462946404670
:1045E000009507F0EEFEF7EE080AB7EE000A404627
:1045F000FFF754F83246D9E9031008F091F841F278
:104600008832039BC9F810204FF00102C9E90276F5
:10461000C9F818300D9989F81420404607F0DCFEDF
:104620003246D9E9131008F07BF84FF4FA734FF0D3
:104630000102C9F85030049BC9F85830C9E9127614
:10464000059989F85420404607F0C6FE3246D9E95C
:10465000231008F065F842F21073C9F890304FF05B
:104660000203C9E9227689F894300399404607F09D
:10467000B3FE3246D9E9331008F052F84FF0020386
:10468000C9E9327689F8D4300499C9F8D060404637
:1046900007F0A2FE3246D9E9431008F041F896230C
:1046A000C9F810314FF00F03A9F818314FF0020389
:1046B0000699C9F80C61A9F81E31C9F8087140467D
:1046C00007F09CFE4FF07F43C4F8D43F0C9BC4F826
:1046D000C03F4FF0020384F8C43F0B99A4F8D85FA1
:1046E000404607F079FE19EE100AD3224121FEF769
:1046F00095FA4FF00B03ADF84C304FF00C0319EE68
:10470000100AA9F85C3114AA13A9ADF8503009F0C9
:10471000D6FD04F5A3530C33DB2219EE900AC9F839
:10472000503101210EAE0393FEF778FA4FF07F432C
:1047300019EE901AC9F890313046A9F8945109F051
:10474000E1FA96E8070019EE903A3C3383E8070057
:104750001E4B149319EE900A0E2314A9ADF8543091
:1047600009F052FD0F23A82218EE100A009302212F
:104770008423FEF792FA4FF07F43C9F8D831D9F875
:10478000A831A9F8DC51D3F8843018EE101A30465D
:10479000984796E8070018EE103A3C3383E8070084
:1047A0000B4B1B6804F5A15710372BB9094B0A4A6C
:1047B00060210A481CF024F8094B1B880B2B13D8E6
:1047C000084B054A6121F4E7C59714FFCC21020884
:1047D000085601208027020882280208FD270208C7
:1047E0000C56012044280208B84B0B21186800F031
:1047F000DBFAB74A0346082138460FF0EFFBB54B0A
:10480000C9F8F07118EE100A149314A90D23ADF82D
:10481000543009F0F9FC0F210091842302211AEE93
:10482000100AB722FEF739FA4FF07F41C9F8241277
:104830004FF0FF31C9E98D15A749A9F828520B6837
:10484000C9F8305204F5A257002BAFD0A348038813
:104850000A2BB5D99D4A0A21106800F0A5FA9C4A96
:104860000346082138460FF0B9FB4FF00C0CADF8A9
:1048700054C00DF1500C974BC9F83C7261461AEECA
:10488000100A0F27149309F0BFFC0097842302211C
:104890001CEE900AC622FEF700FA8F49A9F874525E
:1048A0004FF07F47C9F870720B68C9F87C524FF01F
:1048B000FF37C9E9A07504F5A2571037002B3FF464
:1048C00075AF86480388082B7FF67AAF7F4A0821A8
:1048D000106800F069FA7E4A03460A2138460FF054
:1048E0007DFB0DF1500E7B4BC9F888724FF0090C1F
:1048F00071461CEE900A1493ADF854C009F084FC84
:104900004FF00F0ECDF800E09923A0211AEE900A87
:10491000A822FEF7C2F97049A9F8C0524FF07F4EA5
:104920000B68C9F8BCE204F5A3574FF0FF3EC9E994
:10493000B3E5C9F8C8520437002B3FF437AF6748D6
:104940000388012B7FF63CAF604A0121106800F01C
:104950002BFA5F4A0346042138460FF03FFB1AEE5C
:10496000900AC9F8D4724FF002035A4FADF8543090
:1049700014A9149709F048FC0A234B22ADF85030D3
:1049800014A93C23504605F071FF50464FF07F417B
:1049900005F040FF9621504605F040FF504605F0D7
:1049A0002CFF1DEE100A57223521FEF737F94FF084
:1049B000070314AA1DEE100AADF84C3013A9082302
:1049C000ADF8503009F07BFC039BC9F8B0331DEE05
:1049D000101A504605F01BFF03221BEE100A3B2164
:1049E000FEF71CF94FF0090C1BEE100A14A9ADF8E4
:1049F00050C009F087FE1BEE101A504605F007FF65
:104A000018EE900A3C220721FEF708F94FF07F4389
:104A100018EE901AC9F81834A9F81C54304609F059
:104A200071F996E8070018EE903A3C3383E80700E6
:104A300018EE900A14A9ADF854501497251D09F0EA
:104A4000E3FB18EE901A504605F0E1FE1BEE901ABB
:104A5000284605F0E3FF1CEE101A284605F0DEFF9D
:104A60001DEE901A284605F0D9FF5946284605F054
:104A7000D5FF4146284605F0D1FF19EE101A284609
:104A800005F0CCFF19EE901A284605F0C7FF18EE86
:104A9000101A284605F0C2FF1AEE101A284605F033
:104AA000BDFF1CEE901A284605F0B8FF1AEE901ACA
:104AB000284605F0B3FF2846514605F0AFFF2046D3
:104AC00017B0BDEC108BBDE8F08F00BF145601206D
:104AD000BA280208CC210208085601200C560120F1
:104AE0007047000030B5164D2C78BFF35B8F14F083
:104AF00001048DB020D128461BF0D0FDE0B13F234A
:104B00000793104B0693104B05930123CDE9034304
:104B1000029304220223CDE900320C490C48089488
:104B20000A232822CDE90944FDF7CCFE09481BF0F1
:104B300085FE28461BF0BEFD05480DB030BD00BF08
:104B4000F0460020545D0208DC5D0208905802081F
:104B5000F4460020E14A00087047000030B5164DC9
:104B60002C78BFF35B8F14F001048DB020D1284660
:104B70001BF094FDE0B13F230793104B0693104BBD
:104B800005930123CDE90343029304220323CDE9D6
:104B900000320C490C4808940F232A22CDE909441D
:104BA000FDF790FE09481BF049FE28461BF082FDE8
:104BB00005480DB030BD00BF1C470020705D0208E5
:104BC000E05D0208C05A020820470020594B000847
:104BD0007047000030B5154D2C78BFF35B8F14F093
:104BE00001048DB01FD128461BF058FDD8B13F23DA
:104BF00007930F4B06930F4B0F4910480894CDE9CC
:104C0000044304220123CDE9012300930522282334
:104C1000CDE909440394FDF755FE09481BF00EFE4B
:104C200028461BF047FD05480DB030BD4847002021
:104C3000C85D0208E45D02080C5D02084C470020D4
:104C4000D14B000800207047002070470EB403B518
:104C500003AB002153F8042B01930DF077F802B059
:104C60005DF804EB03B070470CB407B504AB53F820
:104C7000042B01930DF06AF803B05DF804EB02B069
:104C800070470000436C10B5044673B3038F2BB913
:104C9000184B194AC02119481BF0B2FDC38E00EB16
:104CA00043035B8C0BB30EF0EAFB238F012B03D87D
:104CB000134B144AC521EEE7E28E531C9BB2092B1D
:104CC000194688BFA3F10A0104EB410140F63F10E9
:104CD000498C814209D10A2B04EB420228BF0023F0
:104CE00004EB4303508C588451842046BDE81040A7
:104CF0000EF0C8BA9C320208A532020850330208EE
:104D00009A330208A83302080EF083BA10B586B0B1
:104D100002AC84E806001A460AAB05930193099B8E
:104D200000932146089B0BF016FD06B010BD000055
:104D300038B518BB124B13481B681349B3B11A6836
:104D40009C681A4402605A681A440A601C440F4B5B
:104D500000221A8000F038F8054600F033F80C4BBA
:104D60001C600C4B1D600C4B188007E00B4B036064
:104D70000B4B0B600B4B1C68002CE8D138BD00BFFF
:104D800074470020784700207C470020804700209F
:104D900008560120105601200C5601203C5E0208E6
:104DA000E85D020808600208044B1B6853F8210004
:104DB000034B1B6803EB4000704700BF7C4700209B
:104DC000784700201520704700487047844700202E
:104DD00010B5FFF7C3FE044C2060FFF7FBFE6060D8
:104DE000FFF780FEA06010BD84470020704710B51B
:104DF0004FF4AC7104461BF04FFC204610BD10B5BB
:104E00000446D0F8540100F013F82046BDE81040E5
:104E10000CF01AB810B50446FDF7D6FC014B236020
:104E2000204610BD84340208002202607047000052
:104E300070B504460068204D03689B689847D5F814
:104E4000703A73B1D5F8783A012B03D12068036822
:104E5000DB68984720680368DB6898470023C5F83B
:104E6000703AD5F8743A33B1206803681B699847E3
:104E70000023C5F8743AD5F8782AEB684FF46161DD
:104E80004B439A4209DBD5F8803A33B9206803686E
:104E90001B6A98470123C5F8803A206803685B695C
:104EA0009847206803689B69984720680368BDE8B5
:104EB0007040DB69184700BF143C00207047704702
:104EC00070477047704770477047043870477047A5
:104ED000C06803681B6C1847A0F10400FFF7F8BF17
:104EE00010B5102104461BF0D7FB204610BDA0F1E1
:104EF0000400F5E710B500228260044AC16002F1A7
:104F0000080424320460426010BD00BFC8340208A7
:104F100070477047044B1A68044B9A6001221A616B
:104F2000034A1268DA60704718000020143C002021
:104F3000140000200B4B1A6810B56432B2F5C87F1C
:104F4000C8BF4FF4C8721A6004461B68064A0A219B
:104F500000F5B8600FF042F804F51770BDE8104096
:104F60000DF015B818000020103502080A4B1A6819
:104F700010B5643A632AD8BF64221A6004461B68DD
:104F8000064A0A2100F5B8600FF028F804F51770FA
:104F9000BDE810400CF0FBBF1800002010350208DF
:104FA0000A4B1A6810B501320A2AC8BF0A221A60D1
:104FB00004461B68064A032100F5BD600FF00EF899
:104FC00004F27450BDE810400CF0E1BF1400002062
:104FD000103502080A4B1A6810B5013A002AD8BFEA
:104FE00001221A6004461B68064A032100F5BD60D1
:104FF0000EF0F4FF04F27450BDE810400CF0C7BF8F
:105000001400002010350208FDF7D1BC13B5094B80
:10501000094A1B680193044601AB0A2100F2D450EF
:105020000FF098F904F5597002B0BDE810400CF08B
:10503000AEBF00BF143C00201335020810B54FF47A
:10504000C26104461BF028FB204610BD10B5044683
:10505000FDF734FF074B2360074B084A1B680A2102
:1050600004F5B8600EF0BAFF04F517700CF08FFF6E
:10507000204610BD20350208180000201035020817
:1050800070477047043870477047C06803681B6BEF
:105090001847A0F10400FFF7F8BFC06803685B6B16
:1050A0001847A0F10400FFF7F8BFC06803689B6BC6
:1050B0001847A0F10400FFF7F8BFC0680368DB6B76
:1050C0001847A0F10400FFF7F8BFC06803681B6C25
:1050D0001847A0F10400FFF7F8BFC06803685B6CD5
:1050E0001847A0F10400FFF7F8BF10B510210446DF
:1050F0001BF0D2FA204610BDA0F10400F5E7000035
:1051000010B500228260044AC16002F108043832FE
:105110000460426010BD00BF6435020870477047EC
:1051200000F58053012200F5965083F8FD221830D7
:105130000CF02DBF08B515492DED028B91ED000A3D
:105140000022A1F6781102F25E2301EB8303D3ED76
:10515000007AF4EEC07AF1EE10FA08D5D3ED007AB9
:10516000F5EE407AF1EE10FA18BF93ED000A013225
:105170003B2AE8D19FED068A20EE080A1BF0F6FADA
:1051800080EE080ABDEC028B08BD00BF8C450020F4
:105190000000C84208B52DED028B9FED100A1049A2
:1051A000002303F25E2201EB8202D2ED007AF4EEDC
:1051B000C07AF1EE10FA03F10103C8BF92ED000AC4
:1051C0003B2BEED19FED078A20EE080A1BF08CFAEC
:1051D00080EE080ABDEC028B08BD00BF0000000095
:1051E000143C00200000C842114B13B5D3F8782AB4
:1051F000104904464FF461636FF03B0092FBF3F3F8
:1052000001FB03223C2192FBF1F100FB012204F59A
:10521000A250CDE900121030074A0A210EF0DEFE3E
:1052200004F5925002B0BDE810400CF0B0BE00BFD3
:10523000143C0020F0F1FFFFC035020810B542F227
:105240003C7104461BF028FA204610BD10B50446F8
:10525000FEF763FD04F58052D2ED437A9FED906A2C
:10526000B8EEE77A27EE067AB5EEC07AF1EE10FADC
:10527000C0F29E80F6EE007A37EE277AFDEEC77A0E
:1052800017EE903AD2ED337AF8EEE77A002B67EE1C
:10529000867AB8BF5B42F5EEC07AF1EE10FAC2F83A
:1052A0001031C0F29980B6EE007A77EE877AFDEE83
:1052B000E77A17EE903AD2ED137A9FED7A7AF8EE0C
:1052C000E77A002B67EE877AB8BF5B42F5EEC07ACB
:1052D000F1EE10FAC2F8D030C0F29280B6EE007A49
:1052E00077EE877AFDEEE77A17EE903A002BB8BF9B
:1052F0005B421365D4F83C3D9FED6B6A07EE903A34
:10530000B8EEE77A27EE067AB5EEC07AF1EE10FA3B
:10531000C0F28A80F6EE007A37EE277AFDEEC77A81
:1053200017EE903A002BB8BF5B42C4F8403DD4F86A
:10533000B03C07EE903AF8EEE77A67EE867AF5EE43
:10534000C07AF1EE10FAC0F28380B6EE007A77EE02
:10535000877AFDEEE77A17EE903A002BB8BF5B42F2
:10536000C4F8B43CD4F8303C9FED507A07EE903A44
:10537000F8EEE77A67EE877AF5EEC07AF1EE10FA8A
:105380007ADBB6EE007A77EE877AFDEEE77A17EEF3
:10539000903A002BB8BF5B4204F65850C4F8343C36
:1053A0000CF0F5FD04F1CC00BDE810400CF0EFBDB1
:1053B000FDEEC76AF8EEE67A16EE903A37EE677AB7
:1053C000F7EE087A37EE277A013BBDEEC77A17EE83
:1053D000101A19440B4655E7BDEEE77AF8EEC76A96
:1053E00017EE103A77EEE67AF7EE086A77EEA67ACD
:1053F000013BFDEEE77A17EE901A19440B465AE787
:10540000BDEEE77AF8EEC76A17EE103A77EEE67A65
:10541000F7EE086A77EEA67A013BFDEEE77A17EE23
:10542000901A19440B4661E7FDEEC76AF8EEE67A7A
:1054300016EE903A37EE677AF7EE087A37EE277A6B
:10544000013BBDEEC77A17EE102A1A44134669E7EE
:10545000BDEEE77AF8EEC76A17EE103A77EEE67A15
:10546000F7EE086A77EEA67A013BFDEEE77A17EED3
:10547000902A1A44134670E7BDEEE77AF8EEC76A41
:1054800017EE103A77EEE67AF7EE086A77EEA67A2C
:10549000013BFDEEE77A17EE902A1A44134678E7AF
:1054A0000AD7233C0AD7A33BCDCCCC3DCDCC4C3D39
:1054B00013B50A4B0A4A1B6801930446042100F500
:1054C000A35001AB08440EF045FF04F594500C3096
:1054D00002B0BDE810400CF05ABD00BF904600205D
:1054E000D035020837B5114D114A2B680193044697
:1054F00000F5A15001AB082110300EF02BFF6B68B6
:105500000B4A0193082101AB04F5A2500EF022FFD3
:1055100004F58F5014300CF03AFD04F58D5008302E
:1055200003B0BDE830400CF032BD00BF143C002099
:105530001335020838B5244B93ED007AD0F88C3D32
:1055400007EE903AF8EEE77A2DED028B67EE877A58
:105550000446F5EEC07AF1EE10FA00F658551EDB5F
:10556000B6EE007A77EE877AFDEEE77A17EE901ABC
:10557000284607F02FF9236820469B6C984723683C
:105580002046DB6CB0EE408A98472846F0EE400A91
:10559000B0EE480AFEF782F8BDEC028B38BDBDEED6
:1055A000E77AF8EEC76A17EE103A77EEE67AF7EE8A
:1055B000086A77EEA67A591EFDEEE77A17EE903A62
:1055C0000B441946D4E700BF143C002070B5524D7F
:1055D000D0ED407AD5F8783A3C2293FBF2F30633CB
:1055E00005EB830393ED007AF8EEE77A2DED028B5D
:1055F00067EE877A0446F5EEC07AF1EE10FA00F114
:10560000CC0674DBB6EE007A77EE877AFDEEE77AA9
:1056100017EE901A304607F0DDF895ED060AB2EE67
:10562000048A20EE080A1BF0A1F8F0EE408A95EDFE
:10563000010A20EE080A1BF057F83046C0EE080AAF
:1056400088EE880AFEF72AF8D5F8783AB3F5077F8E
:1056500023DDD5F8782A40F6D3539A421DDC3C224C
:1056600000213046FDF784FFD4F8702CD4F8F03CCC
:105670000A214A43002AB8BF5242C4F8742CD4F815
:10568000F02B52004B43002AB8BF5242002BB8BF48
:105690005B42C4F8F42BC4F8F43CD5F8782A40F601
:1056A000D4539A4220DDEA683C256A430021304603
:1056B000FDF75EFFD4F8702C6A43002AB8BF52424F
:1056C000C4F8742CD4F8F02B0A235A43D4F8F03CD5
:1056D000002A05FB03F3B8BF5242002BB8BF5B4260
:1056E000C4F8F42BC4F8F43CBDEC028B70BDBDEEE5
:1056F000E77AF8EEC76A17EE103A77EEE67AF7EE39
:10570000086A77EEA67A591EFDEEE77A17EE903A10
:105710000B4419467EE700BF143C002010B5044638
:10572000FEF7A8FC014B2360204610BDDC350208C3
:10573000F02070474FF4A07070472920FCF764B93F
:105740002820FCF761B908B5FCF732F9CA20FCF74C
:105750005BF9C320FCF73CF90820FCF739F950202D
:10576000FCF736F9CF20FCF74FF90020FCF730F9B1
:10577000C120FCF72DF93020FCF72AF9ED20FCF7C9
:1057800043F96420FCF724F90320FCF721F91220E7
:10579000FCF71EF98120FCF71BF9E820FCF734F92F
:1057A0008520FCF715F90020FCF712F97820FCF7AA
:1057B0000FF9CB20FCF728F93920FCF709F92C2048
:1057C000FCF706F90020FCF703F93420FCF700F998
:1057D0000220FCF7FDF8F720FCF716F92020FCF773
:1057E000F7F8EA20FCF710F90020FCF7F1F80020A8
:1057F000FCF7EEF8B120FCF707F90020FCF7E8F819
:105800001B20FCF7E5F8B620FCF7FEF80A20FCF7B1
:10581000DFF8A220FCF7DCF8C020FCF7F5F8102038
:10582000FCF7D6F8C120FCF7EFF81020FCF7D0F811
:10583000C520FCF7E9F84520FCF7CAF81520FCF76D
:10584000C7F8C720FCF7E0F89020FCF7C1F8362035
:10585000FCF7DAF8C820FCF7BBF8F220FCF7D4F824
:105860000020FCF7B5F8B020FCF7CEF8C220FCF71A
:10587000AFF8B620FCF7C8F80A20FCF7A9F8A72073
:10588000FCF7A6F82720FCF7A3F80420FCF7A0F803
:105890002A20FCF7B9F80020FCF79AF80020FCF762
:1058A00097F80020FCF794F8EF20FCF791F82B20F4
:1058B000FCF7AAF80020FCF78BF80020FCF788F82A
:1058C0000120FCF785F83F20FCF782F8F620FCF772
:1058D0009BF80120FCF77CF80020FCF779F8062003
:1058E000FCF776F82C20FCF78FF8C820FCF7DAF8E4
:1058F0002620FCF789F80120FCF76AF8E020FCF785
:1059000083F80F20FCF764F82920FCF761F82420C5
:10591000FCF75EF80C20FCF75BF80E20FCF758F85B
:105920000920FCF755F84E20FCF752F87820FCF7D8
:105930004FF83C20FCF74CF80920FCF749F81320FD
:10594000FCF746F80520FCF743F81720FCF740F871
:105950001120FCF73DF80020FCF73AF8E120FCF7B5
:1059600053F80020FCF734F81620FCF731F81B2020
:10597000FCF72EF80420FCF72BF81120FCF728F890
:105980000720FCF725F83120FCF722F83320FCF73C
:105990001FF84220FCF71CF80520FCF719F80C2032
:1059A000FCF716F80A20FCF713F82820FCF710F88B
:1059B0002F20FCF70DF80F20FCF70AF81120FCF758
:1059C00023F8C820FCF76EF82920FCF71DF8BDE885
:1059D00008402C20FCF718B808B5FBF7E9FF0321B5
:1059E000D320FCF72DF880B208BD10B5C4B2022256
:1059F00003212046FBF792FF0A20FBF7D7FF204642
:105A000000220321FBF78AFFBDE810400220FBF7CC
:105A1000CDBF38B50446E4B2FBF77EFF0021204637
:105A2000FBF794FF012105462046FBF78FFF40EA74
:105A3000052080B238BD10B5C4B240212046FBF726
:105A400085FF030607D54C212046FBF77FFF003872
:105A500018BF012010BD01224B212046FBF75EFF3D
:105A6000204600224B21FBF759FF0020F2E773B5D7
:105A70000423C4B20E461546D7210DEB030220467F
:105A8000FBF77EFF019B1BBA1A0DC3F30B23328079
:105A900020462B8001224B21FBF740FF00224B21A7
:105AA0002046FBF73BFF02B070BD000010B50A4B6B
:105AB0001A78904204460DD0597888420AD00AB12B
:105AC00041B901229C54FBF727FF2046BDE8104056
:105AD000FFF78BBF10BD00BF9047002010B5C4B2C8
