:020000040800F2
:1000000000000320950500081121000813210008B5
:100010001521000817210008192100080000000020
:10002000000000000000000000000000818C0008BB
:100030001B21000800000000118D0008758D0008CC
:10004000E5050008E5050008E5050008E5050008E8
:10005000E5050008E5050008E5050008E5050008D8
:10006000E5050008E5050008E5050008E5050008C8
:10007000E5050008E5050008E5050008E5050008B8
:10008000E5050008E5050008E5050008E5050008A8
:10009000E5050008E5050008E5050008E505000898
:1000A000E5050008E5050008E5050008E505000888
:1000B000E5050008E5050008E5050008E505000878
:1000C000E5050008E5050008E5050008E505000868
:1000D000E5050008E5050008E5050008E505000858
:1000E000E5050008E5050008E5050008E505000848
:1000F0001D210008E5050008E5050008E5050008E4
:10010000E5050008E5050008E5050008E505000827
:10011000E5050008E5050008E505000829210008B7
:10012000E5050008E5050008E5050008E505000807
:10013000E5050008E5050008E5050008E5050008F7
:10014000E5050008E5050008E5050008E5050008E7
:10015000E5050008E5050008E5050008E5050008D7
:10016000E5050008E5050008E5050008E5050008C7
:10017000E5050008E5050008E505000800000000A9
:10018000E5050008E5050008E5050008E5050008A7
:10019000E5050008E5050008E5050008E505000897
:0C01A00035210008E50500084121000899
:1001B00010B5054C237833B9044B13B10448AFF3A1
:1001C00000800123237010BD6C010020000000009E
:1001D000881A020808B5034B1BB103490348AFF363
:1001E000008008BD0000000070010020881A02088D
:1001F00001F0FF01102A2BDB10F0070F08D010F8D8
:10020000013B013A8B422DD010F0070F42B3F6D1DB
:10021000F0B441EA012141EA014122F007047FF0F4
:1002200000070023F0E80256083C85EA010586EA4B
:10023000010685FA47F5A3FA87F586FA47F6A5FA87
:1002400087F68EB9EED1F0BC01F0FF0102F0070293
:1002500032B110F8013B013A83EA010313B1F8D13E
:100260000020704701387047002D06BF354603381F
:10027000073815F0010F07D1013015F4807F02BF58
:10028000013015F4C03F0130F0BC0138704700BFA9
:1002900053B94AB9002908BF00281CBF4FF0FF31ED
:1002A0004FF0FF3000F074B9ADF1080C6DE904CEE9
:1002B00000F006F8DDF804E0DDE9022304B0704741
:1002C0002DE9F047089D04468E46002B4DD18A4209
:1002D000944669D9B2FA82F252B101FA02F3C2F13C
:1002E000200120FA01F10CFA02FC41EA030E9440CD
:1002F0004FEA1C48210CBEFBF8F61FFA8CF708FBEE
:1003000016E341EA034306FB07F199420AD91CEBC5
:10031000030306F1FF3080F01F81994240F21C81F7
:10032000023E63445B1AA4B2B3FBF8F008FB10333F
:1003300044EA034400FB07F7A7420AD91CEB040474
:1003400000F1FF3380F00A81A74240F20781644444
:10035000023840EA0640E41B00261DB1D4400023C9
:10036000C5E900433146BDE8F0878B4209D9002D2D
:1003700000F0EF800026C5E9000130463146BDE8B7
:10038000F087B3FA83F6002E4AD18B4202D3824221
:1003900000F2F980841A61EB030301209E46002DD0
:1003A000E0D0C5E9004EDDE702B9FFDEB2FA82F225
:1003B000002A40F09280A1EB0C014FEA1C471FFA83
:1003C0008CFE0126200CB1FBF7F307FB131140EA6A
:1003D00001410EFB03F0884208D91CEB010103F137
:1003E000FF3802D2884200F2CB804346091AA4B2F9
:1003F000B1FBF7F007FB101144EA01440EFB00FECD
:10040000A64508D91CEB040400F1FF3102D2A64531
:1004100000F2BB800846A4EB0E0440EA03409CE7D0
:10042000C6F12007B34022FA07FC4CEA030C20FA7D
:1004300007F401FA06F31C43F9404FEA1C4900FA9D
:1004400006F3B1FBF9F8200C1FFA8CFE09FB18111A
:1004500040EA014108FB0EF0884202FA06F20BD98D
:100460001CEB010108F1FF3A80F08880884240F2DD
:100470008580A8F102086144091AA4B2B1FBF9F021
:1004800009FB101144EA014100FB0EFE8E4508D91C
:100490001CEB010100F1FF346CD28E456AD90238A1
:1004A000614440EA0840A0FB0294A1EB0E01A14286
:1004B000C846A64656D353D05DB1B3EB080261EBF4
:1004C0000E0101FA07F722FA06F3F1401F43C5E9CE
:1004D000007100263146BDE8F087C2F12003D84004
:1004E0000CFA02FC21FA03F3914001434FEA1C4746
:1004F0001FFA8CFEB3FBF7F007FB10360B0C43EA38
:10050000064300FB0EF69E4204FA02F408D91CEBE7
:10051000030300F1FF382FD29E422DD902386344E5
:100520009B1B89B2B3FBF7F607FB163341EA034185
:1005300006FB0EF38B4208D91CEB010106F1FF38D4
:1005400016D28B4214D9023E6144C91A46EA0046CB
:1005500038E72E46284605E70646E3E61846F8E65D
:100560004B45A9D2B9EB020864EB0C0E0138A3E7A6
:100570004646EAE7204694E74046D1E7D0467BE787
:10058000023B614432E7304609E76444023842E7FF
:10059000704700BFDFF834D0002103E00C4B5B58FC
:1005A000435004310B480C4B42189A42F6D30B4A85
:1005B00002E0002342F8043B094B9A42F9D305F0CC
:1005C00081FB20F085FA00F069FF704700000320EE
:1005D00028330C08000000206C0100206C01002072
:1005E00064580120FEE700F039BC00F0ABBC704756
:1005F00010B50421044620F077F8204610BD000015
:1006000038B50C4B0C4C18800C4B82201980636859
:10061000984740F6110398420AD1094D23682C608F
:10062000822098472B688220DB689847002038BDDD
:100630000120FCE788010020540000208A010020EE
:100640008C0100204FF4A071F020FFF7D9BF00000B
:10065000F7B52D4D2B6804461B698220984780B260
:100660002080002843D02B680DF106025B6901A9A8
:1006700082209847BDF80620A2F5B47292B20A2AE9
:1006800037D90B23B2FBF3F2204B1B889A4201D9D6
:10069000013B9AB2BDF8043040F6B8318B422AD8FB
:1006A000C3F571630E339BB20F21B3FBF1F318490D
:1006B00009888B4201D94B1E9BB2164E164D3068ED
:1006C0002F68834281B28CBF591AC91AB8B2BA4294
:1006D0008CBF101A801A89B280B201440529C8BFA4
:1006E00033603368C8BF2A6063802B68A38003B07F
:1006F000F0BD0022CEE7C3F56D6308339BB20E2B2D
:10070000D2D80023D9E700BF8C0100208A01002045
:1007100088010020900100209401002037B5684630
:100720000D461446FFF794FFBDF8000030B1BDF848
:1007300002302B60BDF804302360012003B030BDCF
:10074000704770477047012380F8741080F8753047
:100750007047002070470000034B4164003918BF08
:1007600001211970704700BFB75501200020704764
:10077000836B0BB10846184770474FF6FF70704700
:10078000406803689B69184770477047704700F0DE
:1007900079BC08B503680446D3F8803098472368CD
:1007A00020469B6F984700F0EBF8236820461B6FAC
:1007B0009847292001F044F900F0E2F82368204628
:1007C0001B6F9847F8E710B504460BF07BF92368D8
:1007D0002046D3F8AC30BDE81040184700F044BCC8
:1007E00000F048BC00F074BC00F01ABC00F074BC0F
:1007F00000F07CBC00F01EBC0AF0D8BB10B57C2118
:1008000004461FF071FF204610BD90F877301BB1F1
:10081000406803681B6818471846704710B590F881
:10082000341090F874400C4B8C421A7809D03AB9C5
:100830000A4A0B491488088810800C8001221A701B
:1008400010BD002AFCD0054A05491488088810808C
:100850000C800022F3E700BFB0550120AC55012009
:10086000AE55012070B50D46194635B9094B0A4AF7
:100870000A4840F2D2211FF0EBFFC0E90F52084BAB
:10088000003A18BF01221A700368BDE87040D3F81F
:100890008C301847F81A0208301B02087E1B020829
:1008A000B655012008B5094B1B888B4203D8084B6D
:1008B0001B88934205D9074B074A08489E211FF021
:1008C000C7FF074B1980074B1A8008BDAC550120A4
:1008D000AE550120C31B0208261C02087E1B02081D
:1008E000B2550120B4550120012108B50022084667
:1008F00007F09AFE0A4B186028B90A4B0A4A2921C8
:100900000A481FF0A5FF00220421012007F052FF32
:10091000074B186018B9074B034A2D21F0E708BDB3
:100920009C010020441D02088D1D0208BC1D020808
:10093000980100200A1E0208024B4FF0FF31186890
:1009400007F0C8BE9C010020014B186807F0FCBEF0
:100950009C010020024B0021186807F0BBBE00BFBD
:100960009C010020FFF7F0BF034804490068002302
:100970001A4607F065BF00BF980100200400002060
:1009800013B5084C00231A4601A9206807F09AFF06
:1009900020684FF0FF33002201A907F093FF02B057
:1009A00010BD00BF9801002003685B6C1847012050
:1009B000704703689B6A184782B0002301930D4B70
:1009C0001A6B42F400021A631A6B02F400020192DD
:1009D000019A1A6942F400021A611A6922F40002AB
:1009E0001A61054B054A1A61054B4FF080629A6007
:1009F00002B07047003802400C3A0020450A000857
:100A000000E100E040F2EF3070470000054B03606A
:100A1000054B4FF08062C3F88820BFF34F8FBFF3C0
:100A20006F8F7047A81F020800E100E010B5044670
:100A30004FF45A61FFF7EAFF20461FF055FE2046AB
:100A400010BD0000024B1B68586803685B691847BB
:100A5000B855012070B5044625460A4B0C300026D7
:100A600060602672667245F8203B602229460BF0D2
:100A70007FF904F55A63EE602435AB42FBD1204682
:100A800070BD00BFA81F020808B50B290BD8DFE80E
:100A900001F01206100A0A0A0A08080808080120CC
:100AA00008BD0520FCE7054B054A064867211FF0F5
:100AB000CFFE0020F4E70220F2E700BF4C1E020840
:100AC000671E0208B11E020808B50A2909D8DFE826
:100AD00001F010060E0808080806060606000120A8
:100AE00008BD054B054A064888211FF0B1FE0020CD
:100AF000F6E70220F4E700BF4C1E0208FD1E0208C4
:100B0000B11E02082DE9F8434F7F0C463946814655
:100B1000FFF7BAFF94F81E80054641464846FFF7A6
:100B2000B3FF414606464846FFF7CEFFA18A628BD7
:100B3000424B521A1A649A61228B521A1A61E28A43
:100B4000586342EA01425A6420696268D863DA60F5
:100B5000216894F81CC080294FEA0C6226D010D876
:100B6000202945EA020461D040295FD004295DD0E4
:100B7000324B2A4342F400324745DA615AD0304AB8
:100B800040E0B1F5807F07D0B1F5007FF0D142F4AD
:100B9000003242F0090203E042F4003242F00A025D
:100BA000DA61E2681A625E6258612AE0A4682A4348
:100BB00042F40032211DD962DA6122785E62586106
:100BC00042B1012A21D01F4B1F4A20484FF489719E
:100BD0001FF03EFEDA69618822F47F42013922F07B
:100BE000100242EA0122DA610120144BDA6942F074
:100BF0002002DA61DA699206FCD410229A60002899
:100C0000BDD0134A1A60BDE8F8836288D969541EC2
:100C100021F47F4222F0100242EA0422BCF1FF00DC
:100C200042F0100218BF0120DA61DEE744F400341C
:100C3000DC61B8E740F20122E4E700BF00B0024007
:100C400001020100481F0208621F0208B11E0208CB
:100C50000102020070B50C46897FFFF735FFA68AB6
:100C6000E18A628B154B2569586341EA0641921B64
:100C70005964DD631A642668E168082E0DD19A6113
:100C80001A615862207F0E4A42EA0062DA610D4A18
:100C900019625D61DD601A6070BD0022D8611A6161
:100CA00048090A0A02F4784200F4FC600243C1F3E6
:100CB000C4010A439A63044AEDE700BF00B0024052
:100CC000090001000102020001020300034B1A683F
:100CD000D207FCD423229A60704700BF00B00240C4
:100CE00030B50F4C2568ED07FCD423250904A56019
:100CF00041F001010225FF2B65636164E0630AD0C6
:100D00000849656241EA0363E361074B226260615F
:100D1000E060236030BDE561039BA363034BF8E70C
:100D200000B00240090001000100020001000300C0
:100D30000120704738207047382303FB010008303A
:100D40007047382303FB01000830704701207047CB
:100D500042F23C70704742F23C7303FB01000830E2
:100D6000704742F23C7303FB0100083070470120DA
:100D700070471020704700EB01100830704700EBFF
:100D8000011008307047084601F066BD10B5034BEE
:100D90000360044609F03FFD204610BD60200208B4
:100DA00010B50446FFF7F2FF204640211FF09CFCDF
:100DB000204610BD10B5034B0360044609F02BFD1F
:100DC000204610BD2C20020810B50446FFF7F2FFA4
:100DD000204642F244711FF087FC204610BD0000FF
:100DE00010B5034B0360044609F015FD204610BD05
:100DF000F81F020810B50446FFF7F2FF204618213D
:100E00001FF072FC204610BD10B5094B036004466C
:100E100000F51D503030FFF7B9FF04F12C00FFF74B
:100E2000C9FF04F11400FFF7DBFF204610BD00BF2F
:100E30009420020808B50248FFF7E6FF08BD00BF8E
:100E4000A401002010B50446FFF7DEFF204642F65D
:100E50000C111FF049FC204610BD00002DE9F341A4
:100E600001F0E2F9054601F0E3F9002401462346CA
:100E700028462246009413F037FB264B264A274D7E
:100E80001A60204603F070FF254813F095FA2B787E
:100E9000BFF35B8FDB0736D428461FF027FC90B3E7
:100EA000204C214F214B236007F1440604F114002C
:100EB00004F12C086060C4F80880E760266109F03E
:100EC000ABFC1B4B6361404609F0A6FC194BE36287
:100ED000384609F0A1FC04F50053174AC3F87027FF
:100EE00003F5F66003F0BCFF224607F140013046EF
:100EF00003F0ACFF304601F0AFFC10481FF0C6FC19
:100F000028461FF0FFFB0E4802B0BDE8F041FFF796
:100F10003EBC00BF1C560120D0380020A00100209C
:100F200008000020A40100201429002094200208B9
:100F3000F81F02082C20020860200208350E000865
:100F4000543800200148FFF724BC00BF543800206B
:100F500070B5234C234E244B244D23603046FFF7BD
:100F600079FD284616F0CAFB214B2248DC60224C52
:100F700003600022F0204FF480712080C3E9121238
:100F80001E4C1F492080C3E919121E4C1A864FF0CF
:100F900080714FF4A07059670121C3E90422C3E9AD
:100FA0000622C3E90822C3E90A22C3E90E22C3E9E3
:100FB0001022C3E91422C3E916221A6683F86C20B2
:100FC0001A67C3E9016583F8781020800E4C83F816
:100FD000341020800D4802700D4A1A6070BD00BFA9
:100FE000B02A0020B42A0020E81A0208D4380020D1
:100FF00054380020B8550120AC550120B2550120CD
:1010000001000001AE550120B4550120B05501206A
:10101000741C02080148FFF7F9BC00BFB42A002085
:10102000034B902283F85A2383F85823704700BF5C
:1010300000E100E0094A0A49D3680A48C3F30A03F9
:10104000013B9BB20B801169C1F30A010139018098
:101050001364536B43F0010353637047006801400E
:10106000503900204E390020014BD3F8AC007047B6
:1010700000680140024B0122C3F8AC105A6270476D
:101080000068014070B5044609F0E5FF23685D6E15
:1010900010F00EF801462046A8472368054AD3F809
:1010A00088502046AC460023BDE87040A2F51631BA
:1010B000604700BF005802D009F0B4BF90F84B3031
:1010C00013B1024B01221A7009F0B8BF4C3900204D
:1010D00009F072BF0AF0CBB8034B4FF080629A6000
:1010E0004FF080729A60704700E100E0084B4FF0CB
:1010F0008062C3F88820BFF34F8FBFF36F8F4FF02C
:101100008072C3F88820BFF34F8FBFF36F8F704793
:1011100000E100E010B5144C236823B3134B144ACC
:101120001B6C11888B4213D1124B198806F06AF898
:10113000226892F86630013382F86630FFF714FCBB
:1011400020680AF0BFFCBDE810400020FFF7F8BAA5
:1011500006F058F8206803681B6A9847BDE81040FD
:101160000020FFF7EEBA10BDB8550120006801401D
:10117000503900204E39002007B5064BADF8060067
:101180001B68054801220DF1060106F04CFD03B075
:101190005DF804FB100000207C3B0020104982B069
:1011A000002303F25E2201EB820292ED007ADDED74
:1011B000017A013377EE877A3C2BCDED017AF0D1BD
:1011C000DDED016ADFED077A074B86EEA77A83ED46
:1011D000007A9DED010A80EE270A02B0704700BF39
:1011E000143C002000007042984600202DE9F04198
:1011F000704C714DD4F86C3A002B00F0A68000239F
:101200002846C4F86C3A6D4F6D4E04F04FFE2846E8
:1012100004F0C0FE3B68184438606A4804F046FE9B
:10122000684804F0B7FE33681844306066480268C6
:101230004FF00A0C0132026092FBFCF30CFB13220C
:10124000002A40F082803A686049B2FBFCF307EE66
:10125000103AD1ED007ADFED5E6AB8EEC77A27EE7C
:10126000277A27EE267A84ED007A3368B3FBFCF305
:1012700007EE903A91ED007AF8EEE77A67EE877A1A
:1012800067EEA67A41ED037A51ED037A94ED007A88
:1012900077EEC77A9FED4F7A67EE877A41ED037A52
:1012A00051ED037AF5EEC07AF1EE10FA9CBF0023FF
:1012B00041F80C3C2369002B43D0D4F8783A002B3A
:1012C00007DC2368A361444B22681A600123C4F839
:1012D000743A94ED007AD4ED017ADFF80481B4EE2B
:1012E000E77AF1EE10FAC4BF23686360D4F8783A65
:1012F0000133C4F8783A0123C4F8703AD8F80030C2
:1013000021685A1C03F25E2304EB83033B2AC8F8CE
:101310000020196015DDFFF741FFD4F8803A53B97A
:10132000D4F8783A3C2293FBF2F32B4A063304EBD1
:10133000830312681A600023C8F800300123C4F840
:10134000743A00233B60036033602369012B19D199
:101350006369BBB9A368B3F5C87F21D0A368B3F5AF
:10136000967F20D0A368C82B20D0A16840F6FF73D9
:1013700040F67462642908BF134618480022102101
:1013800004F06BFFD4F8803A33B1144840F63C7354
:101390000022102104F061FF012007F02BF929E75A
:1013A00040F61C43E9E740F6B243E6E740F6CA538D
:1013B000E3E700BF143C0020A8390020A846002025
:1013C000AC46002060390020A04600209C4600204A
:1013D0000000803900007A4498460020F839002047
:1013E000A4460020F0B5A1B0102200210AA81FF0E9
:1013F000B5FB1422002103A81FF0B0FB002130220E
:1014000014A81FF0ABFB0024224B01941A6C42F08D
:1014100080521A641B6C03F080530193019B1E4B96
:1014200002941A6842F440421A601B6803F4404375
:1014300002930122029B4FF48033CDE90823022559
:101440004FF48003CDE90E5308274FF4A873042608
:1014500008A8CDE910731295139605F0F1FE0F233D
:10146000CDE903354FF4A0514FF48053CDE9061375
:1014700003A80521059406F0BBF8C023189314A80F
:101480004FF4003314971A961D9306F08BF921B090
:10149000F0BD00BF00380240007000402DE98048D8
:1014A0009BB004F01DFCFFF79DFF142200210DA846
:1014B00000241FF053FBC64B00941A6BC548C64E60
:1014C00042F020021A631A6B02F020020092009A86
:1014D00001941A6B42F080021A631A6B02F08002C8
:1014E0000192019A02941A6B42F004021A631A6B79
:1014F00002F004020292029A03941A6B42F0010273
:101500001A631A6B02F001020392039A04941A6B95
:1015100042F002021A631A6B02F002020492049A69
:1015200005941A6B42F040021A631A6B02F04002F3
:101530000592059A06941A6B42F010021A631A6B10
:1015400002F010020692069A07941A6B42F0080203
:101550001A631B6B03F00803079322460421079BC1
:1015600005F072F89D4822464FF4805105F06CF862
:1015700022469B484FF44051012505F065F80227AB
:101580004FF0040B934810970DA9CDE90DB50F94BA
:1015900004F072FF4FF4805290480DA9CDE90D255B
:1015A000CDE90F4404F068FF0DA94FF440528C4878
:1015B000CDE90D25CDE90F4704F05EFF89488A4A41
:1015C000026004F0D9FD894B894A3462C6E90032D1
:1015D00030464FF48042C6E90424C6E90244C6E915
:1015E000064405F013FA1021304605F04FFC214661
:1015F000304605F06AFC7F487F4984624FF482726E
:10160000C0E900124FF400761822C0E906620A22EF
:101610007A4EC262C0E90244C0E90444C0E9084409
:1016200006F0C4FA764A0D974FF01008C6E9002577
:101630004022C6E904824FF4C072C6E906244FF482
:10164000006203234FF0070AC6E908240DA94FF4EE
:1016500000523046CDE911374FF00809C6E9024B78
:10166000B262CDE90EAB1397CDF840A006F0C4F9F5
:101670004FF6FF7209A93046CDE90A9508940995FD
:101680000C9406F0D9F9284604F056FB4FF6FF7289
:1016900009A93046CDE90979CDE90B5406F0CCF91A
:1016A00003234FF6FF7209A93046CDE90939CDE988
:1016B0000BB406F0C1F94FF40C720892089B0C931E
:1016C0004FF6FF7209A93046CDE909B90B9506F02E
:1016D000B3F940F26A51304606F0C5F9342221468A
:1016E0000DEB02001FF03AFA464E474BB486C6E9AE
:1016F000003409234FF01D0CC6E905350323C6E964
:1017000007C340F20D1E40F24313C6E909E340F25D
:10171000171940F247133046C6E90B93C6E9024455
:10172000346186F8364005F075FCFF21F022CDE9E2
:1017300012144FF4806B05214FF4A073CDE914B15E
:10174000CDE90E240DA9CDE9164230462246CDE959
:1017500010372E4E18930D94ADF864408DF8664006
:1017600005F023FD2A4B33601B68DFF8BC90DFF8DF
:10177000BCB098473368274EDB689847264BC6E9CC
:101780000A47C6E90C443046C6E90034C6E902748B
:1017900004F075FD2946304604F02AFE1F4E204A0B
:1017A000B46042F2CF03C6E90023304640F2E7338B
:1017B000F360CDE90D44B46106F092FD0DA9304609
:1017C000CDE90D4406F0A6FD164BC9F800302FE018
:1017D00000380240000802404C3A00200004024059
:1017E000000C0240F039002000300240005C004054
:1017F000A08601007C3B002000500140483B0020B7
:10180000400100A0A03A00200068014058390020A3
:101810001C0000200C3A002000B00240D43B002005
:101820000014004000740040F83900200100000F4F
:101830004846CDE90D4404F0AFFC42460DA94846A8
:10184000CDE90D4404F0E8FC424621460DA81FF006
:1018500085F9334A334994604FF480331046C2E926
:1018600000131461157682F82040D462C2F828B0C3
:10187000D460D56182F83040556104F071FA284A8D
:10188000CDF83CA00DA91046CDE90D75264F04F00A
:1018900085FB214642460DA81FF060F9234ABC6033
:1018A0004FF480333846C7E90023C7E90AB43C61E6
:1018B0003D7687F82040FC60FD6187F830407D610F
:1018C00004F04EFA0DA93846CDE90D55CDF83CA0EF
:1018D00004F064FBFEF787FE154B164A1A6030468B
:1018E00006F0E1FB4146484604F069FC40F6FF7310
:1018F00022464146484604F0B0FC06F0EBFD0E4A95
:101900000E48214606F020FE0D4B0E4A1860214677
:101910000D4806F019FE0D4B186006F0F5FDFEE7C8
:101920006039002000210140A83900200022014038
:101930009C46002033335340B4200208EB050008D6
:1019400054390020D8200208ED1100085C3900202D
:10195000704770477FB5094B8DF817201B680293BD
:101960000DF117020123009201930A460146044833
:1019700005F0F4F807B05DF804FB00BF0C00002090
:101980004C3A00207FB500238DF81730084B1B68B8
:1019900002930A4601230DF11701009101930146BC
:1019A000044805F06BF99DF8170007B05DF804FBDB
:1019B0000C0000204C3A00201FB5084C246800920F
:1019C000CDE901340A4601230146054805F056F9E0
:1019D000003818BF012004B010BD00BF0C0000206B
:1019E0004C3A002004F0A8B908B5064800220421AA
:1019F00004F02AFEBDE8084002480122042104F058
:101A000023BE00BF0008024038B50B4D044601223A
:101A10000A484FF4005104F017FE00220421284622
:101A200004F012FE2046FFF7A7FB28460122BDE87E
:101A30003840042104F008BE00080240000C0240B7
:101A400038B50B4D044600220A484FF4005104F00B
:101A5000FBFD00220421284604F0F6FD2046FFF796
:101A60008BFB28460122BDE83840042104F0ECBD80
:101A700000080240000C0240F7B5144E144F054612
:101A80000C4630460022042104F0DEFD00224FF413
:101A90000051384604F0D8FD2846FFF76DFB0D4B8A
:101AA0000D481B68224601A906F05BFA3846012260
:101AB0004FF40051019C04F0C7FD3046012204217F
:101AC00004F0C2FD204603B0F0BD00BF0008024094
:101AD000000C0240100000207C3B002004F02CB9D8
:101AE0000268084B9A4210B5044601D104F012F97D
:101AF0002268054B9A4202BF044B0122C3F86C2AAC
:101B000010BD00BF0004014000140040143C002040
:101B100082B00E4B00220092596C41F4804159640E
:101B2000596C01F48041009100990192196C41F0C7
:101B3000805119641B6C03F080530193019B0F21AA
:101B40006FF0010002B004F0D7BA00BF00380240C5
:101B500010B514228AB0044600210DEB02001EF0DD
:101B6000FDFF23681E4A93421FD11E4B00210191A5
:101B70005A6C42F400725A645A6C02F40072019278
:101B8000019A02911A6B42F001021A631B6B03F077
:101B900001030293029B042305931348032305A921
:101BA000069304F069FC0AB010BD104A9342FAD1C2
:101BB0000C4B002103915A6C42F480625A645A6CB7
:101BC00002F480620392039A04911A6B42F00102BC
:101BD0001A631B6B03F001030493049B0223DBE7EE
:101BE0000021014000380240000002400022014074
:101BF0000268094B9A4282B00BD100230193074B34
:101C00001A6B42F480521A631B6B03F480530193E6
:101C1000019B02B0704700BF003002400038024014
:101C200010B5044688B01422002103A81EF096FFC8
:101C30002268124B9A421ED103F5E2330021019132
:101C40001A6C0F4842F000521A641A6C02F00052EB
:101C50000192019A02911A6B42F001021A631B6B06
:101C600003F001030293029B2022032303A9CDE981
:101C7000032304F001FC08B010BD00BF0074004055
:101C80000000024007B50F4B02689A4216D10022AD
:101C9000A3F5F0430192196B41F4000119631B6B2A
:101CA00003F40003019305215A20019B04F024FA58
:101CB0005A2003B05DF804EB04F050BA03B05DF8AD
:101CC00004FB00BF00B002402DE9F043044689B098
:101CD0001422002103A81EF041FF2268244B9A42DF
:101CE00043D1244C244800250095236B43F0040382
:101CF0002363236B03F004030093009B0195236B84
:101D000043F001032363236B03F001030193019B61
:101D10004FF012094FF400734FF001080327042617
:101D200003A9CDE90339CDE90587079604F0A4FBA3
:101D30004FF480731148079603A9CDE90339CDE923
:101D4000058704F099FB0295236C43F40003236498
:101D5000236C03F400030293029B236A43F4000301
:101D60002362236A23F40003236209B0BDE8F083F1
:101D7000005C0040003802400008024000000240C1
:101D8000F0B504468DB01422002107A81EF0E6FE2F
:101D90002268574B9A4240F0A88003F55043002533
:101DA00000955A6C534842F080625A645A6C02F0B3
:101DB00080620092009A01951A6B42F020021A6329
:101DC0001A6B02F020020192019A02951A6B42F0FE
:101DD00001021A631A6B02F001020292029A039541
:101DE0001A6B42F002021A631A6B02F002020392AB
:101DF000039A04951A6B42F040021A631A6B02F0C0
:101E000040020492049A05951A6B42F004021A6388
:101E10001A6B02F004020592059A06951A6B42F0BD
:101E200008021A631B6B03F00803069302240E26B4
:101E3000069B0A944FF4806307A9CDE907340B96FB
:101E400004F01AFB41F658032B480B9607A9CDE97D
:101E500007340927CDE9095404F00EFB0323274872
:101E60000B9707A9CDE90734CDE9095404F004FB29
:101E70004FF4706321480B9607A9CDE90734CDE9EB
:101E8000095404F0F9FA4FF40C631D480B9607A9A6
:101E9000CDE90734CDE9095404F0EEFAC02319481E
:101EA0000B9607A9CDE90734CDE9095404F0E4FA0B
:101EB000082315480B9607A9CDE90734CDE9095445
:101EC00004F0DAFA4FF4A0530D480B9707A9CDE9B7
:101ED0000734CDE9095404F0CFFA58202A460521E9
:101EE00004F00AF9582004F039F90DB0F0BD00BF34
:101EF000006801400014024000000240000402405B
:101F00000018024000080240000C024010B50446D0
:101F100088B01422002103A81EF020FE2268144B72
:101F20009A4223D103F56843002101915A6C11486C
:101F300042F480125A645A6C02F480120192019A9F
:101F400002911A6B42F020021A631B6B03F020030C
:101F50000293029B4FF4607202230321CDE9032315
:101F60000523CDE9061303A904F086FA08B010BDD5
:101F7000005001400014024007B50F4B02689A421E
:101F800016D1002203F509330192196C41F02001AA
:101F900019641B6C03F02003019305213720019B7A
:101FA00004F0AAF8372003B05DF804EB04F0D6B8CB
:101FB00003B05DF804FB00BF001400402DE9F041C0
:101FC00086B0002303932B4B1C68002C4FD14FF09D
:101FD0000108C3F80080284B00949A6B274842EA16
:101FE00008029A639B6B03EA080300930227032607
:101FF0000C25009B01A94FF63F03CDE90137CDE940
:10200000046504F039FA1E48059501A9CDE9018758
:10201000CDE9034604F030FA48F233131948059528
:1020200001A9CDE90137CDE9034604F025FA4FF6C1
:1020300083731548059501A9CDE90137CDE903461C
:1020400004F01AFA4CF203731048059501A9CDE982
:102050000137CDE9034604F00FFA60230C480595DB
:1020600001A9CDE90137CDE9034604F005FA06B030
:10207000BDE8F081B0460020003802400014024064
:10208000000802400018024000100240000C02400C
:102090000004024030B5014689B000222C2004F033
:1020A0002BF82C2004F05AF80025154B02955A6C99
:1020B000144C42F002025A645B6C03F00203029378
:1020C00001A903A8029B05F04FFB05F03DFB0E4B59
:1020D000236040F2E733E36040000C4BB0FBF3F0C9
:1020E0000138606020462561A56006F0F9F820B946
:1020F000204605F0D8FF09B030BD0120FBE700BF46
:1021000000380240B44600200004014040420F0065
:102110007047FEE7FEE7FEE7FEE77047014805F07F
:10212000D6BF00BFB4460020014805F0D0BF00BFB5
:10213000D43B0020014804F0DBBF00BFA03A0020E0
:10214000014804F0CAB800BF0C3A002001207047D3
:1021500008B51EF0AFFB162303604FF0FF3008BD3B
:1021600008B51EF0A7FB16230360FEE770B50D4609
:1021700014460E46731B9C4201DC204670BDAFF333
:10218000008006F8010BF5E770B50D4614460E46C3
:10219000731B9C4201DC204670BD16F8010BAFF3A7
:1021A0000080F5E74FF0FF3070474FF400534B606D
:1021B0000020704701207047002070470A4A1168CC
:1021C00008B5034609B90949116010686946034416
:1021D0008B4206D91EF06EFB0C2303604FF0FF30DC
:1021E00008BD1360FCE700BFF446002068580120DA
:1021F000704710B5042104461EF076FA204610BD43
:10220000012908B506D0022908D059B902F0F8FD15
:10221000006808BD02F0F4FD4068FAE702F0F0FD46
:102220008068F6E70020F4E70048704710210208B4
:102230000D20704713B5002451B1036801948DF847
:10224000034001AA9C680DF10303A04702B010BD32
:102250000846FBE74089704780897047808870474F
:1022600083798088184480B27047C07900F07F007D
:102270007047C079C0097047704710B508210446FF
:102280001EF032FA204610BD7047704700F5967375
:102290000868496803C37047002070478180704711
:1022A000C180704701817047418170477047704716
:1022B00070477047704710B4C4880368121B848845
:1022C0005B6D091B12B25DF8044B09B218474FF65B
:1022D000FF7383814FF0FF3303621368C3611060A3
:1022E000704770477047416070477047064BC0F8B1
:1022F00048310023C0F84C3100F5A073C0F8440108
:10230000C0F83C31704700BF1D2400080123037250
:10231000704790F825201AB190F8242002B1186077
:1023200070477047704770477047014640680368C0
:1023300010315B6E184701464068036810311B6E10
:1023400018477047704710B50022B1F90840B1F93D
:102350000A10028042808480C18010BD10B4C2681F
:1023600041685410034601EB6200D20748BF0A5986
:102370009B685DF8044B48BFD358184743682BB19E
:1023800083682BB9C06800F0010070471846704799
:102390000120704710B50C2104461EF0A5F9204617
:1023A00010BD10B5102104461EF09EF9204610BD48
:1023B00010B54FF4AC7104461EF096F9204610BDDE
:1023C00010B5382104461EF08FF9204610BD10B517
:1023D000282104461EF088F9204610BD08B50EF0ED
:1023E00067FEBDE808400FF007BA90F8252012B14B
:1023F00003685B691847704710B50446D0F83C0184
:1024000058B10368DB68984738B1D4F83C010368D9
:102410009B6898470023C4F83C3110BD2DE9F14F6B
:10242000D0E9545A0746A86803681B6A9847B0F574
:10243000C26F05D2454B464AA32146481EF008FA12
:10244000686803681B6A98470F2803D8424B404AC4
:10245000A421F2E7E86803681B6A98470B2803D8B1
:102460003E4B3B4AA521E8E7DFF8F8900EF020FE4E
:102470000EF024FED9F8000010B10368DB6898471D
:10248000D9F8000010B103681B689847DFF8D880BE
:10249000D8F8000010B103685B699847D7F8380195
:1024A00010B103685B689847D8F8000010B1036862
:1024B0001B689847D7F8380110B103689B689847A4
:1024C000E868036800215B6A98474FF0000B244BD3
:1024D00003600446C0F804B080F808B0A868036838
:1024E00059465B6A9847064602F0CEFD6868036865
:1024F00059465B6A98473146054602F019FDC9F80E
:102500000040C7F83851C8F80060E5B12B1DCAF883
:1025100000303368C5F808A03046DB68F56398479B
:102520002B6828461B6898472146304610F06EFA03
:10253000236820461B69984723685B69204601B0E1
:10254000BDE8F04F18472B46E1E700BF2422020800
:10255000B2220208B6230208FD230208A0240208C2
:10256000D026020800560120FC5501202DE9F74F26
:10257000D0E954BA0746DBF8080003681B6A98479D
:1025800042F23B73984205D8564B574AA32157480D
:102590001EF05EF9DBF8040003681B6A98470F28F9
:1025A00003D8534B504AA421F1E7DBF80C00036831
:1025B0001B6A9847372803D84E4B4B4AA521E6E7BC
:1025C000DFF844910EF074FD0EF078FDD9F80000AC
:1025D00010B10368DB689847D9F8000010B10368B0
:1025E0001B689847DFF82481D8F8000010B1036811
:1025F0005B699847D7F8380110B103685B68984762
:10260000D8F8000010B103681B689847D7F8380164
:1026100010B103689B689847DBF80C000368002141
:102620005B6A9847344B036004464FF4A053038120
:1026300000254FF480734560857263632F4B2361DF
:102640002F4BE581B3F900102E4BA1811030C4E966
:102650000555C4E90755C4E90955C4E90B55B3F953
:1026600000600190FFF71EFE23690198DB6B314685
:102670009847DBF80800036829465B6A98470646D6
:1026800003F076F8DBF80400036829465B6A984794
:102690003146054602F052FDC9F80040C7F83851EE
:1026A000C8F80060E5B12B1DCAF800303368C5F8E2
:1026B00008A03046DB68F56398472B6828461B68FE
:1026C00098472146304610F0A1F9236820461B693F
:1026D000984723685B69204603B0BDE8F04F184770
:1026E0002B46E1E72422020843250208B62302080C
:1026F000FD230208A02402085C270208F426020831
:10270000AC550120AE55012000560120FC5501209A
:10271000044B1B6893F876200AB1D86C00B998680E
:10272000704700BFB8550120F0B50446807A637A3F
:102730000130C0B2984289B0A07250D8B4F90C20D0
:10274000002110F069F910F0010283B24DD04FF66C
:10275000FF710028D8BF0A461344E381244E254F59
:102760003188B4F818C0E389B7F90000ADF81E004D
:10277000CA1A606863445B1AADF81C30036812B271
:1027800000251B692283ADF81820ADF81A5006A960
:102790009847A37A012B26D1174B1B781BB3A1694D
:1027A000606904AB03C3154B186803681B6B98473B
:1027B0003388ADF81C303B88ADF81E300390ADF87F
:1027C0001850ADF81A50FFF7A3FFFF2203680092DC
:1027D0000195DC68039904AB06AAA04703E0012336
:1027E00023720023A37209B0F0BDE081B6E700BFF9
:1027F000AC550120AE550120B6550120B855012039
:10280000F8B5044617460E460EF072FC0E4B1C60DF
:102810000E4B23600E4B0025C4E950350D4BC4E927
:1028200052551868036829469B68C4E94E55C4E9A7
:1028300054769847284602F097FAFFF769FF16F09A
:1028400044FD2046F8BD00BF0C5601208426020836
:102850006C260208B8550120064BC0F84831002309
:10286000C0F84C3100F5A073C0F84401C0F83C3109
:10287000704700BF1D240008064BC0F848310023F4
:10288000C0F84C3100F5A073C0F84401C0F83C31E9
:10289000704700BF6D250008006A7047406A7047A6
:1028A00070478B8880690A68DB0A50F8230010445F
:1028B000704710B5C2B1137BB3B1547BD27A2402F6
:1028C00004F4E0641443C26998B202EB84021388F2
:1028D0008B4202D192F9020010BD05D8013880B2B6
:1028E00004320028F3D1F7E70020F5E710B52821DE
:1028F00004461DF0F9FE204610BD000030B589B039
:102900000446BDF850500695BDF84C5005959DF80D
:10291000405004959DF83C5003959DF83850029521
:102920009DF8345001959DF8305000950FF004FC4F
:10293000064B2360119BA361129BE361159B2362ED
:10294000169B6362204609B030BD00BF8027020895
:10295000806A70477047704770477047704730B55E
:102960000368018185B06D460146D3F88430044682
:102970002846984795E807003C3484E8070005B0EE
:1029800030BD30B50368418185B06D460146D3F84E
:10299000843004462846984795E807003C3484E88C
:1029A000070005B030BD0022028042808280C280D4
:1029B000704780F83610704770B5036804461B6B8B
:1029C000154698472368294620465B6EBDE870404F
:1029D000184700207047806C7047704770477047F9
:1029E0007047704770477047704790F82C304BB174
:1029F00000F16C021268C2653BB100F174031B6800
:102A00000366704700F16802F4E700F17003F6E72F
:102A1000704770477047704730B4C26844685510BB
:102A2000034604EB6200D20748BF62599B6830BC82
:102A300048BFD358184743682BB183682BB9C06887
:102A400000F001007047184670470120704730B40D
:102A5000C26844685510034604EB6200D20748BFC1
:102A600062599B6830BC48BFD358184743682BB1A4
:102A700083682BB9C06800F00100704718467047A2
:102A80000120704790F82D3080F8A43080F85A303B
:102A9000704790F82D3080F85A30704710B50446D2
:102AA0007C3094F82C303BB104F17A010BF052FEEB
:102AB0002046FFF79AFF10BD04F17801F6E710B544
:102AC0004C2104461DF010FE204610BD10B57821A3
:102AD00004461DF009FE204610BD10B5A82104468D
:102AE0001DF002FE204610BD10B5102104461DF059
:102AF000FBFD204610BD10B5102104461DF0F4FD6D
:102B0000204610BD10B54FF4C26104461DF0ECFD27
:102B1000204610BD10B50446006B50B10368DB6859
:102B2000984730B1206B036821469B68BDE8104090
:102B3000184710BD00F1C402914202D10368DB6A5C
:102B4000184700F5B672914202D103681B6BF7E794
:102B500000F22442914202D10368DB6BF0E700F2FD
:102B6000CC42914202D103689B6BE9E770470B7935
:102B700070B590F82C6004460D469BB98EB9B3FA37
:102B800083F35B0984F82C3023682046D3F88C301B
:102B90009847236820465B69984716B12B79012B2B
:102BA00003D070BD002EFCD0E9E723682046D3F89F
:102BB0008830BDE870401847036870B55E6B124BF3
:102BC0001B6804468DB22BB9104B114A6C21114879
:102BD0001DF03EFE1049828D0988914203D80F4BAB
:102BE0000B4A6D21F3E713F812200D4B1B6853F8C5
:102BF00022000368DB6A9847281A01B23346204650
:102C0000BDE87040184700BF10560120D0270208C9
:102C1000122802084D2802081456012094280208A0
:102C20001856012000F52A738B4210B5044609D1CD
:102C30000EF03EFAFFF720FE236820465B6BBDE8EE
:102C40001040184710BD00224FF0FF31C0E90021AD
:102C50008260704770B5036804461B6B1546984741
:102C60002368294620465B6BBDE8704018470B88F7
:102C70002DE9F041A0F878301388B0F90850A0F899
:102C80007A3004461046904611F042FCB4F90A30FE
:102C9000074603EBD3734046C3F34F0611F06CFCB9
:102CA00005EBD575C5F34F0500EBD07007EBD77773
:102CB000A6EB6002A5EB670704F17C0039B212B203
:102CC000FFF7C8FF23682046D3F88C30BDE8F041F9
:102CD000184770B504461D46BDF91060FFF7BAFFEE
:102CE0002368294620469B6B984723683146204637
:102CF000DB6BBDE8704018470022C0E90122C0E943
:102D00000322C0E90522C0E907224FF480728284C1
:102D1000014A0260704700BF1829020810B5262238
:102D2000044600211DF01AFF2046FFF7E5FF044B83
:102D30002360FF2384F826300023A362204610BDC1
:102D40006C40020838B5262204460D4600211DF0CD
:102D500005FF2046FFF7D0FF064B23602B88E38456
:102D6000FF23204684F8283029460BF0F3FC204648
:102D700038BD00BFB041020810B52622044600212C
:102D80001DF0ECFE2046FFF7B7FF0A4B23600A4B0D
:102D9000A3624FF6FF73A3854FF47F020023C4E9BB
:102DA0000C324FF0FF32C4E910232387E36320463F
:102DB00010BD00BFDC3F02081C2202081B4B73B58C
:102DC0001B88018F8B4206462BD9194B1B682BB9E8
:102DD000184B194A19486C211DF03AFD13F81120BF
:102DE000174B1B6853F82250164B186801F0F8FF78
:102DF0002B68019001469B6A284698472B680199E9
:102E00001B6C0446284698472B6801995B6A14FBA3
:102E100000F428469847E4B2044486F8454002B0DE
:102E200070BD002380F84530F9E700BF145601203B
:102E300010560120D0270208122802084D28020847
:102E4000185601201C5601204FF47F4373B50646E7
:102E5000838540F20113002583841D4B8562C0E900
:102E60000155C0E90355C0E90555C0E9075505639B
:102E700046F8343B04463046FFF750FF154B63637A
:102E80002A46C4E91A55C4E91C552566A4F86450BD
:102E900029463046FFF7DEFE3146204607F0E6FDC4
:102EA0000D4B236004F17C054FF6FF73A4F87830D6
:102EB000A4F87A3001A92846ADF80430FFF742FFA4
:102EC0002046294607F0D2FD204602B070BD00BF63
:102ED000102A020848410208AC2A020810B403670D
:102EE000019B436703685DF8044BD3F88C30C0E95D
:102EF0001A1218472DE9F04F2DED0C8B04468DB0BA
:102F00000FF0D8FB22460025E54BE56342F8403B35
:102F1000104608EE102AFFF701FF04F16C034FF68C
:102F2000FF760AA918460CEE103AADF82860FFF7B4
:102F300009FF04F198030AA918460CEE903AADF87F
:102F40002860FFF7FFFE04F1C403184608EE903A2C
:102F5000FFF77AFF04F5B673184609EE103AFFF74B
:102F600073FF04F50573184609EE903AFFF704FF66
:102F700004F5177318460AEE103ACA4FFFF7FCFE25
:102F800004F52A73C4F85C72C4F8A45218460AEE19
:102F9000903A0BF011FD04F53C730AA918460DEEAA
:102FA000103AADF82860FFF7CDFE04F547731846D8
:102FB0000BEE103AFFF7E0FE04F5597304F56C7B55
:102FC00018460BEE903AFFF7D7FEC4F86473C4F8C6
:102FD000AC535846FFF7D0FE04F57E730AA9184695
:102FE00004F224490DEE903A04F2CC48ADF8286082
:102FF000FFF7A8FE4846FFF727FF04F2745A404641
:10300000FFF722FF5046FFF7B7FEA74BC4F8F03595
:10301000A64BC4F8F835A64BC4F80036A54BC4F847
:103020000836F0232A46294618EE100AC4F87475AB
:10303000C4F8BC55C4F8FC55C4F80C560093C4F849
:10304000F4454FF4A073C4F80446FFF742FE4FF076
:103050007F43A3662A4629461CEE100AFFF7FAFDB5
:103060001CEE100A0AA9ADF828500BF073FB1CEEF9
:10307000900A19227621FFF7EDFD0AAA4FF003030B
:1030800011461CEE900AADF828300BF063FB1723B5
:103090000527894E00932A4629462B2304F1F80080
:1030A000FFF717FE854B864A8649009618EE900A70
:1030B000A4F82871FFF712FF18EE900A0AAA09A9CE
:1030C000ADF82470ADF82870FFF7D1FD172318EE86
:1030D000900A009331222B2340F21111C4F844715D
:1030E000FFF7F7FD04F5C0630393C4F8F43017232A
:1030F0002A462946009304F5D0702B23FFF7E9FDFB
:103100006E4B6F4A6F49009619EE100AA4F8D07101
:10311000FFF7E4FE4FF006020AA8ADF82420ADF850
:10312000282009A9024619EE100AFFF7A0FD062083
:10313000C4F8EC0117202B230090192219EE100A75
:1031400040F21111FFF7C5FD039AC4F89C2119EE56
:10315000900A1C22292104AEFFF77CFD4FF0FF30BE
:1031600019EE901AC4F84402A4F8485230460AF006
:10317000F1FD96E8070004F5147383E80700524B4D
:103180000A9319EE900A14230AA9ADF82C300BF01B
:1031900063F81820242200907C231AEE100A8F2155
:1031A000FFF797FDD4F85C32A4F890524FF0FF304F
:1031B000D3F88430C4F88C021AEE101A30469847BF
:1031C00096E8070004F5267383E8070004F5B86362
:1031D000C4F8A4323C4BA4F8C0551AEE100A0A9366
:1031E0000AA91323ADF82C300BF036F81AEE900A2A
:1031F000B4224E21FFF72EFD01230AA8024609A999
:103200001AEE900AADF824300223ADF828300BF006
:103210007EF812231AEE900AA4F8E032FFF7CEFDF2
:1032200004F5BE634FF0FF30C4F8D0328A22C4E9FF
:10323000B90076211DEE100AFFF70CFD4FF00301D7
:103240000AA8ADF8281001461DEE100A0BF082FA0C
:103250008D221BEE100A2921FFF7FCFC4FF0FF30F6
:103260001BEE101AC4F84C03A4F8505330460AF071
:1032700071FD96E8070004F5567383E80700124BCA
:103280000A930AA8112301461BEE100AADF82C3050
:103290000AF0E2FF1820932200907C2316E000BF82
:1032A0007C2B0208802902084C2B0208252C0008E0
:1032B000642B0208352B0008996633FF663300FF44
:1032C000CC9900FF996600FF1C2202081BEE900AB1
:1032D0008F21FFF7FEFCD4F86433A4F898534FF025
:1032E000FF30D3F88430C4F894031BEE901A3046B4
:1032F000984796E8070004F5687383E8070004F22E
:10330000D453C4F8AC330AA8964BA4F8D45501465C
:103310000A931BEE900A1023ADF82C300AF09CFFA4
:10332000562206215846FFF795FC4FF0FF30C4F8AF
:10333000E003A4F8E453594630460AF00BFD96E842
:10334000070004F57B7383E807000AA8854B0A93FE
:1033500001465846ADF82C700AF07EFF53221DEE50
:10336000900A7621FFF776FC4FF003011DEE900ADC
:10337000ADF828100AA90BF0EDF917212A460091A3
:103380002B23294604F58B60FFF7A3FC764B0093B3
:10339000A3F13313A3F54C53744A7549A4F8887408
:1033A0004846FFF79BFD0AA90A46484609A9ADF819
:1033B0002470ADF82870FFF75AFC172100912B23D9
:1033C000692240F211114846C4F8A474FFF781FC49
:1033D000039AC4F8542417212A4600912B23294626
:1033E00004F5A060FFF775FC5F4B0093A3F1331366
:1033F000A3F54C535D4A5E49A4F830754046FFF78B
:103400006DFD4FF00602ADF82420ADF8282009A983
:103410000AAA4046FFF72BFC0623C4F84C351723B5
:10342000009351222B2340F211114046FFF751FC2B
:10343000039BC4F8FC3418235D2200938F217C2366
:103440005046FFF746FC4FF0FF33C4F8A435D4F8DC
:103450007435A4F8A855D3F88430514630469847BF
:1034600096E8070004F5B66383E80700414B1B6844
:1034700004F5BD652BB9404B404A602140481DF022
:10348000E7F9404B1B88032B03D83F4B3B4A612194
:10349000F4E73E4B0321186801F0A2FC3C4A0346C6
:1034A0000321284610F0C2FD2E4BC4F8BC550A93E8
:1034B000251D04230AA95046ADF82C300AF0CCFE95
:1034C00018EE101A284607F0D1FA1CEE101A2846FA
:1034D00007F0CCFA1CEE901A284607F0C7FA18EE4F
:1034E000901A284607F0C2FA19EE101A284607F07B
:1034F000BDFA19EE901A284607F0B8FA1AEE101A1B
:10350000284607F0B3FA1AEE901A284607F0AEFAEA
:103510001DEE101A284607F0A9FA1BEE101A2846CD
:1035200007F0A4FA1BEE901A284607F09FFA5946B6
:10353000284607F09BFA1DEE901A284607F096FAE7
:103540004946284607F092FA4146284607F08EFA87
:103550002846514607F08AFA20460DB0BDEC0C8B88
:10356000BDE8F08F1C220208996633FFCC9900FF5A
:10357000996600FF10560120D0270208D2280208C1
:103580004D28020814560120942802081C560120D8
:103590000A290208002070478B8883800120704729
:1035A000704780F82C10704710B40368046BD3F890
:1035B000A430624361435DF8044B1847D0ED0C7AA8
:1035C0000368F8EEE77AD3F8A43020EE270AB5EEC8
:1035D000C00AF1EE10FA17DBB6EE007A30EE070AF9
:1035E000BDEEC07A17EE101A60EEA70AF5EEC00A1B
:1035F000F1EE10FA1CDBF6EE007A70EEA70AFDEE93
:10360000E07A17EE902A1847BDEEC07AF8EEC76A46
:1036100017EE102A30EE660AF7EE086A30EE260A38
:10362000511EBDEEC00A10EE102A0A441146DBE717
:10363000FDEEE07AB8EEE77A17EE902A70EEC70A50
:10364000B7EE087A70EE870A013AFDEEE00A10EE56
:1036500090CA94446246D6E710B40368046BD3F86A
:10366000B03062435DF8044B1847D0ED0C7A036824
:10367000F8EEE77AD3F8B03027EE800AB5EEC00A4C
:10368000F1EE10FA08DBF6EE007A30EE270AFDEED6
:10369000C07A17EE902A1847FDEEC07AB8EEE77AA6
:1036A00017EE902A30EE470AB7EE087A30EE070A96
:1036B000013ABDEEC00A10EE10CA94446246EAE731
:1036C00010B40368446BD3F8BC30624361435DF8C7
:1036D000044B1847D0ED0D7A0368F8EEE77AD3F87B
:1036E000BC3020EE270AB5EEC00AF1EE10FA17DB67
:1036F000B6EE007A30EE070ABDEEC07A17EE101A69
:1037000060EEA70AF5EEC00AF1EE10FA1CDBF6EE49
:10371000007A70EEA70AFDEEE07A17EE902A1847BD
:10372000BDEEC07AF8EEC76A17EE102A30EE660AD0
:10373000F7EE086A30EE260A511EBDEEC00A10EE02
:10374000102A0A441146DBE7FDEEE07AB8EEE77A8C
:1037500017EE902A70EEC70AB7EE087A70EE870A65
:10376000013AFDEEE00A10EE90CA94446246D6E7B4
:1037700010B40368446BD3F8C03062435DF8044B67
:103780001847D0ED0D7A0368F8EEE77AD3F8C03029
:1037900027EE800AB5EEC00AF1EE10FA08DBF6EE6D
:1037A000007A30EE270AFDEEC07A17EE902A18470D
:1037B000FDEEC07AB8EEE77A17EE902A30EE470AAF
:1037C000B7EE087A30EE070A013ABDEEC00A10EEF5
:1037D00010CA94446246EAE7D0F82C31026B002B01
:1037E00007DB02EB430393FBF2F000EBD0704010D9
:1037F00070476FF0010000FB0320013890FBF2F0EE
:1038000000EBD070401040427047D0ED4B7AB8EEDC
:10381000E70AD0ED0C7AF8EEE77A80EE270A7047D7
:10382000D0F82C017047D0F83031026B002B07DB49
:1038300002EB430393FBF2F000EBD07040107047B3
:103840006FF0010000FB0320013890FBF2F000EB69
:10385000D070401040427047D0ED4C7AB8EEE70A85
:10386000D0ED0C7AF8EEE77A80EE270A7047D0F8B0
:1038700030017047D0F83431426B002B07DB02EB8C
:10388000430393FBF2F000EBD070401070476FF0F1
:10389000010000FB0320013890FBF2F000EBD07038
:1038A000401040427047D0ED4D7AB8EEE70AD0EDB7
:1038B0000D7AF8EEE77A80EE270A7047D0F83401E7
:1038C0007047D0F83831426B002B07DB02EB430323
:1038D00093FBF2F000EBD070401070476FF00100E6
:1038E00000FB0320013890FBF2F000EBD070401099
:1038F00040427047D0ED4E7AB8EEE70AD0ED0D7A2F
:10390000F8EEE77A80EE270A7047D0F83801704762
:1039100070B503680446D3F888300D4616469847BC
:103920002368324629462046D3F89030BDE87040DF
:1039300018470368D3F8943018470368D3F8D43095
:1039400018470368D3F8E03018470368002A10B41A
:10395000D3F8A430046B0EDB04EB420292FBF4F1CB
:1039600001EBD1714910B0F91E215DF8044B013A09
:103970000A44494218476FF0010101FB0241013935
:1039800091FBF4F101EBD17149104942EBE7036877
:10399000D3F83C311847026B03685143D3F84831E0
:1039A00018470368D3F844311847D0ED0C7A036800
:1039B000F8EEE77AD3F8483127EE800AB5EEC00A70
:1039C000F1EE10FA08DBF6EE007A30EE270AFDEE93
:1039D000C07A17EE901A1847FDEEC07AB8EEE77A73
:1039E00017EE902A30EE470AB7EE087A30EE070A53
:1039F000511EBDEEC00A10EE102A0A441146EAE735
:103A0000C0F83C1170470368D3F850311847036879
:103A100010B5D3F85C31044698470028236B07DBC8
:103A200003EB400090FBF3F000EBD070401010BDB2
:103A30006FF0010202FB0030013890FBF3F000EB65
:103A4000D07040104042F2E70368D3F8583118476D
:103A5000036810B5D3F85C310446984707EE900A26
:103A6000B8EEE70AD4ED0C7AF8EEE77A80EE270A92
:103A700010BDD0F83C017047026B03685143D3F886
:103A800068311847D0ED0C7A0368F8EEE77AD3F87E
:103A9000683127EE800AB5EEC00AF1EE10FA08DBB5
:103AA000F6EE007A30EE270AFDEEC07A17EE901A95
:103AB0001847FDEEC07AB8EEE77A17EE902A30EE9E
:103AC000470AB7EE087A30EE070A511EBDEEC00A6B
:103AD00010EE102A0A441146EAE7C0F84011704778
:103AE000036810B5D3F87431044698470028236B57
:103AF00007DB03EB400090FBF3F000EBD0704010CD
:103B000010BD6FF0010202FB0030013890FBF3F0B2
:103B100000EBD07040104042F2E7036810B5D3F8D4
:103B200074310446984707EE900AB8EEE70AD4EDE0
:103B30000C7AF8EEE77A80EE270A10BDD0F8400143
:103B400070470368026BD3F88431002910B504462E
:103B50000EDB02EB410191FBF2F101EBD171491057
:103B600009B220469847D4E94F2302FB003010BD2C
:103B70006FF0010000FB0121013991FBF2F101EB33
:103B8000D17149104942EBE7006B7047406B7047B9
:103B90000368D3F8483118470368D3F85C311847F5
:103BA000026B03685143D3F814311847036870B5AA
:103BB000D3F81851D3F88031D0F8446104469847BF
:103BC0002B4656F820102046BDE870401847B0F943
:103BD0001C21B0F91E31934207DBB0F94C31194476
:103BE00091FBF2F002FB101109B208467047480140
:103BF000704780F82610704790F82600704710B57F
:103C00000022B1F90840B1F90A1002804280848094
:103C1000C18010BD0022028042808280C280704735
:103C2000C1627047C06A7047012070477047704793
:103C3000C06B18B10368D3F880301847704730B5AF
:103C4000B2F81A11B2F91441B2F94050B2F8422058
:103C500044802144521A002101808580C28030BDF9
:103C600010B54280BDF90840BDF90C200480828067
:103C7000C38010BD0B680846D3F8D43018470B68D2
:103C80000846D3F8E0301847B1F914017047B1F88D
:103C90001401B1F81A310344B1F84200C01A00B25D
:103CA0007047B1F916017047B1F81601B1F8183133
:103CB0000344B1F84000C01A00B270470B680846D0
:103CC000D3F8143111461847B2F8181130B5B2F9CB
:103CD000165105806C18B2F84010B2F94220C2802B
:103CE000091B00244480818030BD02808380BDF99F
:103CF0000020BDF904304280C38070470B6808463D
:103D0000D3F8EC3018470B680846D3F8F83018475A
:103D1000B1F916017047B1F81601B1F81831034432
:103D2000B1F84000C01A00B27047B1F914017047F1
:103D3000B1F81401B1F81A310344B1F84200C01AC5
:103D400000B270470B680846D3F81831114618477F
:103D5000704770477047704770477047704730B47E
:103D6000C26844685510034604EB6200D20748BF9E
:103D700062599B6830BC48BFD358184743682BB181
:103D800083682BB9C06800F001007047184670477F
:103D90000120704710B5402104461CF0A5FC2046C8
:103DA00010BD10B5402104461CF09EFC204610BDFD
:103DB00010B54FF42B6104461CF096FC204610BD54
:103DC00010B54FF4107104461CF08EFC204610BD57
:103DD00010B5102104461CF087FC204610BD10B51C
:103DE00042F23C7104461CF07FFC204610BD90F866
:103DF0002C300BB106F073BE704713B5034608466E
:103E0000D3E90C1403680191D3F88C3098470199D9
:103E10000246204602B0BDE8104008F0A9BC13B528
:103E200003460846D3E90C1403680191D3F8943093
:103E3000984701990246204602B0BDE8104008F0BC
:103E400097BC00000A1E10B503DBB0F91E41944276
:103E500006DC084B084A094840F233611CF0F8FCC4
:103E60000368D0F84441D3F88031984754F82000D3
:103E700010BD00BFBC2B0208DF2B02082E2C02084D
:103E80000B1E10B5044603DBB0F91E219A4206DC76
:103E9000074B084A084840F22D611CF0D9FC036822
:103EA000D3F884319847D4E94F2302FB003010BD8A
:103EB000BC2B02088B2C02082E2C020800F589531B
:103EC0000833994210B5044615D190F87D3D83F032
:103ED000010380F87D3D90F8F13083F0010380F814
:103EE000F13000F658500EF07AF804F1CC00BDE83D
:103EF00010400EF074B800F59C530833994208D175
:103F000000F58053002200F5965083F8FD2218300A
:103F1000EDE710BD37B501AB15460EF002FA0028EB
:103F20004FEA401401992A464FF0200004DB0EF0BE
:103F300017FA204403B030BD0EF012FA201AF9E748
:103F400070B5B0F91441B0F81A516319B0F8425085
:103F5000ED1AD0E94D320E462DB2D21A691EF01A72
:103F6000FFF7D8FF2C44013CC0EB441070BD38B5BE
:103F700004460846B4F81831B4F816110B44B4F8E6
:103F80004010D4E94B52C91A09B2521B0139401BE7
:103F9000FFF7C0FFB4F9163100EB431038BD000045
:103FA00010B5044607F0CCFF064A22600023012228
:103FB0000A21C4E90C21E36284F83820E363204637
:103FC00010BD00BF603C020870B50023124E838014
:103FD000124B0360336893F8762005460AB1D86C1B
:103FE00000B998680368DB6A98473368B0FA80F4D0
:103FF000D86C640930B10368DB6A9847002808BFB1
:1040000044F001042CB9064B064A07482C211CF049
:104010001FFC284670BD00BFB85501204C2F020878
:10402000DA2C0208382D0208712D020810B504465A
:1040300007F086FF0A4A226000230122C4E90C230C
:10404000084AA2634FF6FF72A2872E22E36284F829
:104050004030A4F84230A4F84420A364204610BDA8
:10406000583E02081C22020810B5262204460021F0
:104070001CF074FD2046FEF73FFE054B2360002335
:10408000A36284F82C30012384F82430204610BD2C
:10409000F83E020810B50446FEF76EFE024B2360A0
:1040A0000023A364204610BD802902082DE9F04FAB
:1040B0002DED108B044697B00EF0FCFA2246002539
:1040C000EB4BE56342F8403B10460BEE902AFEF7BF
:1040D00025FE04F16C034FF6FF7614A918460CEE8A
:1040E000103AADF85060FEF72DFE04F19803184623
:1040F00004F1CC0B0DEE903AFEF710FEDD4BC4F848
:1041000098304FF41671C4F8C450A4F8C8505846FB
:1041100008F0CAFAD84BC4F8CC3004F50772012372
:104120002946C4E98235C4E98425584640F257221D
:10413000FFF73AFA04F67C33D04AC4F8CC2018468C
:10414000A4F818520FEE103A07F0FAFE4FF00202F0
:10415000CB4BDFF8509384F8A82B04F6AC32C4F8AC
:104160007C3B10460792FFF72FFF09F1240204F56C
:104170003C61C4F8B42BC4F8AC9B0846C4F8B85BE7
:10418000DFF824A3BF4F0FEE901AFFF709FF04F5E5
:104190004061C4F8C0AB08460891FFF701FF04F581
:1041A0004461C4F8007C08460EEE101AFFF7F8FED2
:1041B00004F54861C4F840AC08460EEE901AFFF7CB
:1041C000EFFE04F54C61C4F8807C08460991FFF7C6
:1041D0002DFFAD4AC4F8C02C04F60C51084604F675
:1041E00058580A91FFF722FFA849C4F80C1D404611
:1041F0003C2108F059FAA04BC4F8583D012004F6C0
:10420000A86329463B22C4F8940EC4F89C3E40465D
:10421000C4F8985EC4F8A05EFFF7C6F99C4BC4F8DA
:10422000583D04F69870A4F8A45E0B9007F088FE41
:10423000934BC4F8983F4FF0020384F8C43F04F650
:10424000C8700C90FFF7C0FE09F12402C4F8D02F0B
:10425000C4F8C89F04F6DC70C4F8D45F0D90FFF773
:104260009FFE04F5805004F58059C4F8DCAF1C3083
:104270000590FFF795FE04F58250C9F81C701C30BC
:104280000390FFF78DFE04F58450C9F85CA01C3044
:104290000490FFF785FE04F58650C9F89C701C3029
:1042A0000690FFF7C3FE7949C9F8DC1004F589517F
:1042B0000831084609EE101AFFF7D6FE754BC9F80B
:1042C000283104F58B51A9F85661A9F8586189F88D
:1042D0005A61A9F85C61084609EE901AFEF74CFD98
:1042E00004F58D510831084608EE101AFFF7D2FE8A
:1042F00004F58F51143108460AEE101AFFF7CAFE72
:1043000004F5925108460CEE901AFFF7C3FE04F52F
:1043100094510C3104F5965A08460AF1180A0AEE2F
:10432000901AFFF7B7FE504606F016FB04F59C51B5
:10433000083108460DEE101AFFF796FE04F59D5160
:104340001C31554BC9F888330B461846A9F8B6639B
:10435000A9F8B86389F8BA630BEE101A14A9ADF87E
:104360005060FEF7EFFC04F59F510831084608EE57
:10437000901AFEF701FD494BC9F86C3404F5A350BF
:10438000474BC9F874344FF496511C30C9F8704447
:10439000C9F878540BF0CCF9F0231BEE900A009387
:1043A0002A464FF4A0732946FEF793FC4FF07F4155
:1043B0006FF016021CEE100AA1666FF06C01FEF79A
:1043C00049FC4FF004011CEE100AADF8501014A97E
:1043D0000AF0C0F9A6214FF4A0731DEE900A0091D7
:1043E0002A462946FEF775FC4FF0FF31C4F8C0108D
:1043F0004FF07F41C4F8C4104FF00101A4F8C81079
:104400002A464FF47A715846FFF782FA0A22294663
:104410005846FFF7C9F8A62100914FF4A0732A4629
:1044200029465846FEF755FC0F210091052314221A
:104430000621584608F0EAF82B462A4629465846EF
:10444000009507F0E6FFF7EE080AB7EE000A5846B7
:10445000FFF740F94FF47A72D4F8F01BD4F8F40B5C
:1044600084F8F15008F084F91EEE103A1EE000BF07
:10447000BC320208484102080C3902086C2F0208BD
:10448000E43B0208942E0208183D0208B83D0208D9
:1044900008310208683F0208D4400208A43202082A
:1044A000BD3E00085C380208DC2D02084FF47A7625
:1044B000D34FC4F8FC3B4FF00101C4F8F06BC4F8D3
:1044C000EC7BC4F8F46B84F8F81B58461FEE901A86
:1044D00007F0AAFF3246D4F8301CD4F8340C08F0A8
:1044E00047F91EEE903A4B204FF00101C4F83C3CD6
:1044F000C4F8306CC4F82C7CC4F8340C84F8381C34
:104500005846089907F090FF3246D4F8701CD4F84A
:10451000740C08F02DF94FF0020384F8783C1EEE7D
:10452000101AC4F8706CC4F86C7CC4F8746C5846EB
:1045300007F07AFF3246D4F8B01CD4F8B40C08F077
:1045400017F94FF00203962184F8B83CC4F8B06C18
:10455000C4F8AC7CC4F8B41C58461EEE901A07F0A0
:1045600063FF3246D4F8F01CD4F8F40C08F000F9DC
:104570004FF007020999C4F8F06CC4F8F46CA4F881
:10458000FC2CC4F8EC7C584607F072FF3246D4F895
:104590003C1DD4F8400D08F0EBF89622C4F8402DED
:1045A0004FF00602A4F8482D4FF001020A99C4F812
:1045B0003C6DA4F84E2DC4F8387D584607F046FFF0
:1045C000079BC4F8A43B4FF07F424FF0020384F8EE
:1045D000A83B1FEE101AC4F8B82B5846A4F8BC5BD1
:1045E00007F022FF31462A464046FFF791F9A622FE
:1045F00000924FF4A0732A4629464046FEF769FB15
:104600000F2200922B4618220621404607F0FEFF9B
:104610002B462A4629464046009507F0FAFEF7EE5B
:10462000080AB7EE000A4046FFF754F83246D9E9C7
:10463000031008F09DF841F28832039BC9F810205E
:104640004FF00102C9E90276C9F818300D9989F8CE
:104650001420404607F0E8FE3246D9E9131008F06E
:1046600087F84FF4FA734FF00102C9F85030049BF9
:10467000C9F85830C9E91276059989F8542040469E
:1046800007F0D2FE3246D9E9231008F071F842F261
:104690001073C9F890304FF00203C9E9227689F807
:1046A00094300399404607F0BFFE3246D9E93310F3
:1046B00008F05EF84FF00203C9E9327689F8D43089
:1046C0000499C9F8D060404607F0AEFE3246D9E9F9
:1046D000431008F04DF89623C9F810314FF00F033E
:1046E000A9F818314FF002030699C9F80C61A9F82E
:1046F0001E31C9F80871404607F0A8FE4FF07F430D
:10470000C4F8D43F0C9BC4F8C03F4FF0020384F8B8
:10471000C43F0B99A4F8D85F404607F085FE19EE18
:10472000100AD3224121FEF795FA4FF00B03ADF8A2
:104730004C304FF00C0319EE100AA9F85C3114AAA2
:1047400013A9ADF8503009F0E2FD04F5A3530C3382
:10475000DB2219EE900AC9F8503101210EAE039305
:10476000FEF778FA4FF07F4319EE901AC9F89031AE
:104770003046A9F8945109F0EDFA96E8070019EED1
:10478000903A3C3383E807001E4B149319EE900ACD
:104790000E2314A9ADF8543009F05EFD0F23A822B2
:1047A00018EE100A009302218423FEF792FA4FF0CC
:1047B0007F43C9F8D831D9F8A831A9F8DC51D3F82A
:1047C000843018EE101A3046984796E8070018EE25
:1047D000103A3C3383E807000B4B1B6804F5A157E4
:1047E00010372BB9094B0A4A60210A481CF030F8EF
:1047F000094B1B880B2B13D8084B054A6121F4E7A2
:10480000C59714FF1C22020810560120D027020869
:10481000D22802084D2802081456012094280208C4
:10482000B84B0B21186800F0DBFAB74A03460821A1
:1048300038460FF0FBFBB54BC9F8F07118EE100AC3
:10484000149314A90D23ADF8543009F005FD0F2180
:104850000091842302211AEE100AB722FEF739FADA
:104860004FF07F41C9F824124FF0FF31C9E98D158F
:10487000A749A9F828520B68C9F8305204F5A25785
:10488000002BAFD0A34803880A2BB5D99D4A0A2133
:10489000106800F0A5FA9C4A0346082138460FF03C
:1048A000C5FB4FF00C0CADF854C00DF1500C974BFC
:1048B000C9F83C7261461AEE100A0F27149309F0EA
:1048C000CBFC0097842302211CEE900AC622FEF73F
:1048D00000FA8F49A9F874524FF07F47C9F87072F7
:1048E0000B68C9F87C524FF0FF37C9E9A07504F591
:1048F000A2571037002B3FF475AF86480388082B6A
:104900007FF67AAF7F4A0821106800F069FA7E4A84
:1049100003460A2138460FF089FB0DF1500E7B4B00
:10492000C9F888724FF0090C71461CEE900A149376
:10493000ADF854C009F090FC4FF00F0ECDF800E038
:104940009923A0211AEE900AA822FEF7C2F9704915
:10495000A9F8C0524FF07F4E0B68C9F8BCE204F5CD
:10496000A3574FF0FF3EC9E9B3E5C9F8C852043771
:10497000002B3FF437AF67480388012B7FF63CAF2D
:10498000604A0121106800F02BFA5F4A03460421B7
:1049900038460FF04BFB1AEE900AC9F8D4724FF06C
:1049A00002035A4FADF8543014A9149709F054FC7F
:1049B0000A234B22ADF8503014A93C23504605F091
:1049C0007DFF50464FF07F4105F04CFF9621504649
:1049D00005F04CFF504605F038FF1DEE100A572237
:1049E0003521FEF737F94FF0070314AA1DEE100A20
:1049F000ADF84C3013A90823ADF8503009F087FC0E
:104A0000039BC9F8B0331DEE101A504605F027FF7E
:104A100003221BEE100A3B21FEF71CF94FF0090C94
:104A20001BEE100A14A9ADF850C009F093FE1BEE5E
:104A3000101A504605F013FF18EE900A3C22072189
:104A4000FEF708F94FF07F4318EE901AC9F81834B2
:104A5000A9F81C54304609F07DF996E8070018EED5
:104A6000903A3C3383E8070018EE900A14A9ADF899
:104A700054501497251D09F0EFFB18EE901A50467C
:104A800005F0EDFE1BEE901A284605F0EFFF1CEE38
:104A9000101A284605F0EAFF1DEE901A284605F088
:104AA000E5FF5946284605F0E1FF4146284605F056
:104AB000DDFF19EE101A284605F0D8FF19EE901AFE
:104AC000284605F0D3FF18EE101A284605F0CEFF51
:104AD0001AEE101A284605F0C9FF1CEE901A284657
:104AE00005F0C4FF1AEE901A284605F0BFFF2846CD
:104AF000514605F0BBFF204617B0BDEC108BBDE85A
:104B0000F08F00BF1C5601200A2902081C2202084F
:104B100010560120145601207047000030B5164D84
:104B20002C78BFF35B8F14F001048DB020D12846A0
:104B30001BF0DCFDE0B13F230793104B0693104BB5
:104B400005930123CDE90343029304220223CDE917
:104B500000320C490C4808940A232822CDE9094464
:104B6000FDF7CCFE09481BF091FE28461BF0CAFD5C
:104B700005480DB030BD00BFF8460020A45D020816
:104B80002C5E0208E0580208FC460020194B000881
:104B90007047000030B5164D2C78BFF35B8F14F0D2
:104BA00001048DB020D128461BF0A0FDE0B13F23C9
:104BB0000793104B0693104B05930123CDE9034354
:104BC000029304220323CDE900320C490C480894D7
:104BD0000F232A22CDE90944FDF790FE09481BF076
:104BE00055FE28461BF08EFD05480DB030BD00BFB8
:104BF00024470020C05D0208305E0208105B0208F6
:104C000028470020914B00087047000030B5154D33
:104C10002C78BFF35B8F14F001048DB01FD12846B0
:104C20001BF064FDD8B13F2307930F4B06930F4B46
:104C30000F4910480894CDE9044304220123CDE92B
:104C40000123009305222823CDE909440394FDF7AD
:104C500055FE09481BF01AFE28461BF053FD054877
:104C60000DB030BD50470020185E0208345E0208C7
:104C70005C5D020854470020094C00080020704782
:104C8000002070470EB403B503AB002153F8042B8A
:104C900001930DF083F802B05DF804EB03B07047A8
:104CA0000CB407B504AB53F8042B01930DF076F860
:104CB00003B05DF804EB02B070470000436C10B520
:104CC000044673B3038F2BB9184B194AC0211948F6
:104CD0001BF0BEFDC38E00EB43035B8C0BB30EF0E9
:104CE000F6FB238F012B03D8134B144AC521EEE7A3
:104CF000E28E531C9BB2092B194688BFA3F10A010F
:104D000004EB410140F63F10498C814209D10A2B46
:104D100004EB420228BF002304EB4303508C588469
:104D200051842046BDE810400EF0D4BAEC3202089F
:104D3000F5320208A0330208EA330208F833020809
:104D40000EF08FBA10B586B002AC84E806001A46A1
:104D50000AAB05930193099B00932146089B0BF036
:104D600022FD06B010BD000038B518BB124B134829
:104D70001B681349B3B11A689C681A4402605A68E8
:104D80001A440A601C440F4B00221A8000F038F8C5
:104D9000054600F033F80C4B1C600C4B1D600C4BAF
:104DA000188007E00B4B03600B4B0B600B4B1C6830
:104DB000002CE8D138BD00BF7C4700208047002090
:104DC00084470020884700201056012018560120F3
:104DD000145601208C5E0208385E020858600208F2
:104DE000044B1B6853F82100034B1B6803EB400086
:104DF000704700BF8447002080470020152070477F
:104E0000004870478C47002010B5FFF7C3FE044CE4
:104E10002060FFF7FBFE6060FFF780FEA06010BD22
:104E20008C470020704710B54FF4AC7104461BF05E
:104E30005BFC204610BD10B50446D0F8540100F0CC
:104E400013F82046BDE810400CF026B810B5044613
:104E5000FDF7D6FC014B2360204610BDD434020878
:104E6000002202607047000070B504460068214DC2
:104E700003689B689847D5F8703A73B1D5F8783ACB
:104E8000012B03D120680368DB689847206803681A
:104E9000DB6898470023C5F8703AD5F8743A33B107
:104EA000206803681B6998470023C5F8743AD5F851
:104EB000782AEB684FF461614B439A420BDBD5F8DB
:104EC000803A43B92E69012E05D1206803681B6A18
:104ED0009847C5F8806A206803685B69984720682E
:104EE00003689B69984720680368BDE87040DB69E8
:104EF000184700BF143C0020704770477047704748
:104F0000704770477047043870477047C06803683F
:104F10001B6C1847A0F10400FFF7F8BF10B5102173
:104F200004461BF0E1FB204610BDA0F10400F5E7AC
:104F300010B500228260044AC16002F108042432E4
:104F40000460426010BD00BF18350208704770470A
:104F5000044B1A68044B9A6001221A61034A1268D2
:104F6000DA60704718000020143C00201400002074
:104F70000B4B1A6810B56432B2F5C87FC8BF4FF446
:104F8000C8721A6004461B68064A0A2100F5B86018
:104F90000FF04CF804F51770BDE810400DF01FB885
:104FA00018000020603502080A4B1A6810B5643AF0
:104FB000632AD8BF64221A6004461B68064A0A2185
:104FC00000F5B8600FF032F804F51770BDE8104036
:104FD0000DF005B818000020603502080A4B1A6869
:104FE00010B501320A2AC8BF0A221A6004461B689B
:104FF000064A032100F5BD600FF018F804F2745062
:10500000BDE810400CF0EBBF140000206035020832
:105010000A4B1A6810B5013A002AD8BF01221A605B
:1050200004461B68064A032100F5BD600EF0FEFF32
:1050300004F27450BDE810400CF0D1BF1400002001
:1050400060350208FDF7CFBC13B5094B094A1B6850
:105050000193044601AB0A2100F2D4500FF0A2F9EB
:1050600004F5597002B0BDE810400CF0B8BF00BFA5
:10507000143C00206335020810B54FF4C2610446A9
:105080001BF032FB204610BD10B50446FDF732FF81
:10509000074B2360074B084A1B680A2104F5B860D8
:1050A0000EF0C4FF04F517700CF099FF204610BDF8
:1050B00070350208180000206035020870477047FC
:1050C000043870477047C06803681B6B1847A0F12D
:1050D0000400FFF7F8BFC06803685B6B1847A0F1D6
:1050E0000400FFF7F8BFC06803689B6B1847A0F186
:1050F0000400FFF7F8BFC0680368DB6B1847A0F136
:105100000400FFF7F8BFC06803681B6C1847A0F1E4
:105110000400FFF7F8BFC06803685B6C1847A0F194
:105120000400FFF7F8BF10B5102104461BF0DCFAAD
:10513000204610BDA0F10400F5E7000010B50022E4
:105140008260044AC16002F108043832046042609F
:1051500010BD00BFB43502087047704700F580539A
:10516000012200F5965083F8FD2218300CF037BF6D
:1051700008B515492DED028B91ED000A0022A1F62C
:10518000781102F25E2301EB8303D3ED007AF4EE93
:10519000C07AF1EE10FA08D5D3ED007AF5EE407A38
:1051A000F1EE10FA18BF93ED000A01323B2AE8D164
:1051B0009FED068A20EE080A1BF000FB80EE080A2D
:1051C000BDEC028B08BD00BF8C4500200000C8422A
:1051D00008B52DED028B9FED100A1049002303F254
:1051E0005E2201EB8202D2ED007AF4EEC07AF1EE9B
:1051F00010FA03F10103C8BF92ED000A3B2BEED178
:105200009FED078A20EE080A1BF096FA80EE080A46
:10521000BDEC028B08BD00BF00000000143C002064
:105220000000C842114B13B5D3F8782A1049044640
:105230004FF461636FF03B0092FBF3F301FB032239
:105240003C2192FBF1F100FB012204F5A250CDE9D3
:1052500000121030074A0A210EF0E8FE04F59250C1
:1052600002B0BDE810400CF0BABE00BF143C0020F4
:10527000F0F1FFFF1036020810B542F23C7104460F
:105280001BF032FA204610BD10B50446FEF761FD52
:1052900004F58052D2ED437A9FED906AB8EEE77A3A
:1052A00027EE067AB5EEC07AF1EE10FAC0F29E80D3
:1052B000F6EE007A37EE277AFDEEC77A17EE903ACF
:1052C000D2ED337AF8EEE77A002B67EE867AB8BF34
:1052D0005B42F5EEC07AF1EE10FAC2F81031C0F27E
:1052E0009980B6EE007A77EE877AFDEEE77A17EED0
:1052F000903AD2ED137A9FED7A7AF8EEE77A002BA6
:1053000067EE877AB8BF5B42F5EEC07AF1EE10FA2D
:10531000C2F8D030C0F29280B6EE007A77EE877A8B
:10532000FDEEE77A17EE903A002BB8BF5B421365AB
:10533000D4F83C3D9FED6B6A07EE903AB8EEE77A01
:1053400027EE067AB5EEC07AF1EE10FAC0F28A8046
:10535000F6EE007A37EE277AFDEEC77A17EE903A2E
:10536000002BB8BF5B42C4F8403DD4F8B03C07EE18
:10537000903AF8EEE77A67EE867AF5EEC07AF1EECB
:1053800010FAC0F28380B6EE007A77EE877AFDEEEF
:10539000E77A17EE903A002BB8BF5B42C4F8B43CF2
:1053A000D4F8303C9FED507A07EE903AF8EEE77A69
:1053B00067EE877AF5EEC07AF1EE10FA7ADBB6EE98
:1053C000007A77EE877AFDEEE77A17EE903A002BB7
:1053D000B8BF5B4204F65850C4F8343C0CF0FFFDF3
:1053E00004F1CC00BDE810400CF0F9BDFDEEC76A39
:1053F000F8EEE67A16EE903A37EE677AF7EE087A2C
:1054000037EE277A013BBDEEC77A17EE101A194422
:105410000B4655E7BDEEE77AF8EEC76A17EE103A8D
:1054200077EEE67AF7EE086A77EEA67A013BFDEEB4
:10543000E77A17EE901A19440B465AE7BDEEE77A61
:10544000F8EEC76A17EE103A77EEE67AF7EE086ADA
:1054500077EEA67A013BFDEEE77A17EE901A194433
:105460000B4661E7FDEEC76AF8EEE67A16EE903A73
:1054700037EE677AF7EE087A37EE277A013BBDEE12
:10548000C77A17EE102A1A44134669E7BDEEE77A89
:10549000F8EEC76A17EE103A77EEE67AF7EE086A8A
:1054A00077EEA67A013BFDEEE77A17EE902A1A44D2
:1054B000134670E7BDEEE77AF8EEC76A17EE103ACA
:1054C00077EEE67AF7EE086A77EEA67A013BFDEE14
:1054D000E77A17EE902A1A44134678E70AD7233C56
:1054E0000AD7A33BCDCCCC3DCDCC4C3D13B50A4B1C
:1054F0000A4A1B6801930446042100F5A35001AB3E
:1055000008440EF04FFF04F594500C3002B0BDE893
:1055100010400CF064BD00BF904600202036020809
:1055200037B5114D114A2B680193044600F5A1507F
:1055300001AB082110300EF035FF6B680B4A019368
:10554000082101AB04F5A2500EF02CFF04F58F509A
:1055500014300CF044FD04F58D50083003B0BDE864
:1055600030400CF03CBD00BF143C00206335020805
:1055700038B5244B93ED007AD0F88C3D07EE903A85
:10558000F8EEE77A2DED028B67EE877A0446F5EEAA
:10559000C07AF1EE10FA00F658551EDBB6EE007A2E
:1055A00077EE877AFDEEE77A17EE901A284607F035
:1055B00039F9236820469B6C984723682046DB6CAA
:1055C000B0EE408A98472846F0EE400AB0EE480A0E
:1055D000FEF780F8BDEC028B38BDBDEEE77AF8EE41
:1055E000C76A17EE103A77EEE67AF7EE086A77EEBA
:1055F000A67A591EFDEEE77A17EE903A0B4419464B
:10560000D4E700BF143C002070B5D0ED407A564D71
:10561000F8EEE77A95ED007A67EE877A2DED028B4A
:10562000F5EEC07AF1EE10FA044600F1CC0657DB35
:10563000B6EE007A77EE877AFDEEE77A17EE901AEB
:10564000304607F0EFF8D5ED007AB0EE000AF4EE40
:10565000C07AF1EE10FA48BF95ED000A434DB2EE64
:10566000048A20EE080A1BF0A9F8F0EE408A95EDB6
:10567000010A20EE080A1BF05FF83046C0EE080A67
:1056800088EE880AFEF726F8D5F8783AB3F5077F52
:105690003ADDD5F8782A40F6D3539A4234DC3C22DE
:1056A00000213046FDF780FFD4F8702CD4F8F03C90
:1056B0000A214A43002AB8BF5242C4F8742CD4F8D5
:1056C000F02B5200002AB8BF5242C4F8F42B4B43CF
:1056D000002BB8BF5B42C4F8F43CBDEC028B70BD3C
:1056E000BDEEE77AF8EEC76A17EE103A77EEE67A83
:1056F000F7EE086A77EEA67A591EFDEEE77A17EE06
:10570000903A0B4419469BE7D5F8782A40F6D453D3
:105710009A4202DDD5F8801A51B1D5F8803A002BB3
:10572000DBD04FF4167200213046FDF73DFFD4E781
:10573000EA683C256A433046FDF736FFD4F8702C02
:105740006A43002AB8BF5242C4F8742CD4F8F02B34
:105750000A235A43002AD4F8F03CB8BF5242C4F896
:10576000F42B6B43B4E700BF98460020143C0020A4
:1057700010B50446FEF79AFC014B2360204610BD8D
:105780002C360208F02070474FF4A0707047292093
:10579000FCF756B92820FCF753B908B5FCF724F9F3
:1057A000CA20FCF74DF9C320FCF72EF90820FCF7BE
:1057B0002BF95020FCF728F9CF20FCF741F9002005
:1057C000FCF722F9C120FCF71FF93020FCF71CF987
:1057D000ED20FCF735F96420FCF716F90320FCF7FF
:1057E00013F91220FCF710F98120FCF70DF9E820DD
:1057F000FCF726F98520FCF707F90020FCF704F9EF
:105800007820FCF701F9CB20FCF71AF93920FCF7D6
:10581000FBF82C20FCF7F8F80020FCF7F5F8342012
:10582000FCF7F2F80220FCF7EFF8F720FCF708F994
:105830002020FCF7E9F8EA20FCF702F90020FCF749
:10584000E3F80020FCF7E0F8B120FCF7F9F80020BD
:10585000FCF7DAF81B20FCF7D7F8B620FCF7F0F8D5
:105860000A20FCF7D1F8A220FCF7CEF8C020FCF704
:10587000E7F81020FCF7C8F8C120FCF7E1F8102089
:10588000FCF7C2F8C520FCF7DBF84520FCF7BCF8B4
:105890001520FCF7B9F8C720FCF7D2F89020FCF7E8
:1058A000B3F83620FCF7CCF8C820FCF7ADF8F220AE
:1058B000FCF7C6F80020FCF7A7F8B020FCF7C0F80A
:1058C000C220FCF7A1F8B620FCF7BAF80A20FCF7D2
:1058D0009BF8A720FCF798F82720FCF795F8042000
:1058E000FCF792F82A20FCF7ABF80020FCF78CF8C4
:1058F0000020FCF789F80020FCF786F8EF20FCF781
:1059000083F82B20FCF79CF80020FCF77DF80020A2
:10591000FCF77AF80120FCF777F83F20FCF774F8E1
:10592000F620FCF78DF80120FCF76EF80020FCF75C
:105930006BF80620FCF768F82C20FCF781F8C820EB
:10594000FCF7CCF82620FCF77BF80120FCF75CF88C
:10595000E020FCF775F80F20FCF756F82920FCF73B
:1059600053F82420FCF750F80C20FCF74DF80E20DB
:10597000FCF74AF80920FCF747F84E20FCF744F8FA
:105980007820FCF741F83C20FCF73EF80920FCF7B2
:105990003BF81320FCF738F80520FCF735F8172002
:1059A000FCF732F81120FCF72FF80020FCF72CF858
:1059B000E120FCF745F80020FCF726F81620FCF75C
:1059C00023F81B20FCF720F80420FCF71DF8112019
:1059D000FCF71AF80720FCF717F83120FCF714F849
:1059E0003320FCF711F84220FCF70EF80520FCF7F5
:1059F0000BF80C20FCF708F80A20FCF705F8282023
:105A0000FCF702F82F20FBF7FFFF0F20FBF7FCFF4E
:105A10001120FCF715F8C820FCF760F82920FCF7E6
:105A20000FF8BDE808402C20FCF70AB808B5FBF7D2
:105A3000DBFF0321D320FCF71FF880B208BD10B5AF
:105A4000C4B2022203212046FBF784FF0A20FBF7A1
:105A5000C9FF204600220321FBF77CFFBDE8104070
:105A60000220FBF7BFBF38B50446E4B2FBF770FF76
:105A700000212046FBF786FF012105462046FBF763
:105A800081FF40EA052080B238BD10B5C4B2402184
:105A90002046FBF777FF030607D54C212046FBF78E
:105AA00071FF003818BF012010BD01224B21204694
:105AB000FBF750FF204600224B21FBF74BFF002055
:105AC000F2E773B50423C4B20E461546D7210DEB99
:105AD00003022046FBF770FF019B1BBA1A0DC3F3AC
