:020000040800F2
:1000000000000320950500088D1F00088F1F0008C1
:10001000911F0008931F0008951F000800000000B2
:100020000000000000000000000000000165010861
:10003000971F00080000000091650108F5650108A0
:10004000E5050008E5050008E5050008E5050008E8
:10005000E5050008E5050008E5050008E5050008D8
:10006000E5050008E5050008E5050008E5050008C8
:10007000E5050008E5050008E5050008E5050008B8
:10008000E5050008E5050008E5050008E5050008A8
:10009000E5050008E5050008E5050008E505000898
:1000A000E5050008E5050008E5050008E505000888
:1000B000E5050008E5050008E5050008E505000878
:1000C000E5050008E5050008E5050008E505000868
:1000D000E5050008E5050008E5050008E505000858
:1000E000E5050008E5050008E5050008E505000848
:1000F000991F0008E5050008E5050008E50500086A
:10010000E5050008E5050008E5050008E505000827
:10011000E5050008E5050008E5050008A51F00083D
:10012000E5050008E5050008E5050008E505000807
:10013000E5050008E5050008E5050008E5050008F7
:10014000E5050008E5050008E5050008E5050008E7
:10015000E5050008E5050008E5050008E5050008D7
:10016000E5050008E5050008E5050008E5050008C7
:10017000E5050008E5050008E505000800000000A9
:10018000E5050008E5050008E5050008E5050008A7
:10019000E5050008E5050008E5050008E505000897
:0C01A000B11F0008E5050008BD1F0008A5
:1001B00010B5054C237833B9044B13B10448AFF3A1
:1001C00000800123237010BD6801002000000000A2
:1001D000C0EF020808B5034B1BB103490348AFF356
:1001E000008008BD000000006C010020C0EF020884
:1001F00001F0FF01102A2BDB10F0070F08D010F8D8
:10020000013B013A8B422DD010F0070F42B3F6D1DB
:10021000F0B441EA012141EA014122F007047FF0F4
:1002200000070023F0E80256083C85EA010586EA4B
:10023000010685FA47F5A3FA87F586FA47F6A5FA87
:1002400087F68EB9EED1F0BC01F0FF0102F0070293
:1002500032B110F8013B013A83EA010313B1F8D13E
:100260000020704701387047002D06BF354603381F
:10027000073815F0010F07D1013015F4807F02BF58
:10028000013015F4C03F0130F0BC0138704700BFA9
:1002900053B94AB9002908BF00281CBF4FF0FF31ED
:1002A0004FF0FF3000F074B9ADF1080C6DE904CEE9
:1002B00000F006F8DDF804E0DDE9022304B0704741
:1002C0002DE9F047089D04468E46002B4DD18A4209
:1002D000944669D9B2FA82F252B101FA02F3C2F13C
:1002E000200120FA01F10CFA02FC41EA030E9440CD
:1002F0004FEA1C48210CBEFBF8F61FFA8CF708FBEE
:1003000016E341EA034306FB07F199420AD91CEBC5
:10031000030306F1FF3080F01F81994240F21C81F7
:10032000023E63445B1AA4B2B3FBF8F008FB10333F
:1003300044EA034400FB07F7A7420AD91CEB040474
:1003400000F1FF3380F00A81A74240F20781644444
:10035000023840EA0640E41B00261DB1D4400023C9
:10036000C5E900433146BDE8F0878B4209D9002D2D
:1003700000F0EF800026C5E9000130463146BDE8B7
:10038000F087B3FA83F6002E4AD18B4202D3824221
:1003900000F2F980841A61EB030301209E46002DD0
:1003A000E0D0C5E9004EDDE702B9FFDEB2FA82F225
:1003B000002A40F09280A1EB0C014FEA1C471FFA83
:1003C0008CFE0126200CB1FBF7F307FB131140EA6A
:1003D00001410EFB03F0884208D91CEB010103F137
:1003E000FF3802D2884200F2CB804346091AA4B2F9
:1003F000B1FBF7F007FB101144EA01440EFB00FECD
:10040000A64508D91CEB040400F1FF3102D2A64531
:1004100000F2BB800846A4EB0E0440EA03409CE7D0
:10042000C6F12007B34022FA07FC4CEA030C20FA7D
:1004300007F401FA06F31C43F9404FEA1C4900FA9D
:1004400006F3B1FBF9F8200C1FFA8CFE09FB18111A
:1004500040EA014108FB0EF0884202FA06F20BD98D
:100460001CEB010108F1FF3A80F08880884240F2DD
:100470008580A8F102086144091AA4B2B1FBF9F021
:1004800009FB101144EA014100FB0EFE8E4508D91C
:100490001CEB010100F1FF346CD28E456AD90238A1
:1004A000614440EA0840A0FB0294A1EB0E01A14286
:1004B000C846A64656D353D05DB1B3EB080261EBF4
:1004C0000E0101FA07F722FA06F3F1401F43C5E9CE
:1004D000007100263146BDE8F087C2F12003D84004
:1004E0000CFA02FC21FA03F3914001434FEA1C4746
:1004F0001FFA8CFEB3FBF7F007FB10360B0C43EA38
:10050000064300FB0EF69E4204FA02F408D91CEBE7
:10051000030300F1FF382FD29E422DD902386344E5
:100520009B1B89B2B3FBF7F607FB163341EA034185
:1005300006FB0EF38B4208D91CEB010106F1FF38D4
:1005400016D28B4214D9023E6144C91A46EA0046CB
:1005500038E72E46284605E70646E3E61846F8E65D
:100560004B45A9D2B9EB020864EB0C0E0138A3E7A6
:100570004646EAE7204694E74046D1E7D0467BE787
:10058000023B614432E7304609E76444023842E7FF
:10059000704700BFDFF834D0002103E00C4B5B58FC
:1005A000435004310B480C4B42189A42F6D30B4A85
:1005B00002E0002342F8043B094B9A42F9D312F0BF
:1005C00073FF2DF021FD00F0F7FE704700000320BF
:1005D0005C670B0800000020680100206801002013
:1005E000E4840120FEE700F039BC00F0ABBC7047AA
:1005F00010B5042104462DF099FB204610BD0000E3
:1006000038B50C4B0C4C18800C4B82201980636859
:10061000984740F6110398420AD1094D23682C608F
:10062000822098472B688220DB689847002038BDDD
:100630000120FCE7840100205000002086010020FA
:10064000880100204FF4A071F020FFF7D9BF00000F
:10065000F7B52D4D2B6804461B698220984780B260
:100660002080002843D02B680DF106025B6901A9A8
:1006700082209847BDF80620A2F5B47292B20A2AE9
:1006800037D90B23B2FBF3F2204B1B889A4201D9D6
:10069000013B9AB2BDF8043040F6B8318B422AD8FB
:1006A000C3F571630E339BB20F21B3FBF1F318490D
:1006B00009888B4201D94B1E9BB2164E164D3068ED
:1006C0002F68834281B28CBF591AC91AB8B2BA4294
:1006D0008CBF101A801A89B280B201440529C8BFA4
:1006E00033603368C8BF2A6063802B68A38003B07F
:1006F000F0BD0022CEE7C3F56D6308339BB20E2B2D
:10070000D2D80023D9E700BF88010020860100204D
:10071000840100208C0100209001002037B568463C
:100720000D461446FFF794FFBDF8000030B1BDF848
:1007300002302B60BDF804302360012003B030BDCF
:10074000704770477047012380F8741080F8753047
:100750007047002070470000034B4164003918BF08
:1007600001211970704700BF3782012000207047B7
:10077000836B0BB10846184770474FF6FF70704700
:10078000406803689B69184770477047704700F0DE
:1007900079BC08B503680446D3F8803098472368CD
:1007A00020469B6F984700F0EBF8236820461B6FAC
:1007B0009847292001F0A0F800F0E2F823682046CD
:1007C0001B6F9847F8E710B5044618F0A3FC2368A0
:1007D0002046D3F8AC30BDE81040184700F044BCC8
:1007E00000F048BC00F074BC00F01ABC00F074BC0F
:1007F00000F07CBC00F01EBC17F000BF10B57C21DF
:1008000004462DF093FA204610BD90F877301BB1C6
:10081000406803681B6818471846704710B590F881
:10082000341090F874400C4B8C421A7809D03AB9C5
:100830000A4A0B491488088810800C8001221A701B
:1008400010BD002AFCD0054A05491488088810808C
:100850000C800022F3E700BF308201202C820120AF
:100860002E82012070B50D46194635B9094B0A4A4A
:100870000A4840F2D2212DF087FAC0E90F52084B06
:10088000003A18BF01221A700368BDE87040D3F81F
:100890008C30184730F0020868F00208B6F0020801
:1008A0003682012008B5094B1B888B4203D8084BC0
:1008B0001B88934205D9074B074A08489E212DF013
:1008C00063FA074B1980074B1A8008BD2C82012060
:1008D0002E820120FBF002085EF10208B6F0020849
:1008E0003282012034820120012108B5002208460D
:1008F00015F0DAFA0A4B186028B90A4B0A4A29217E
:100900000A482DF041FA00220421012015F092FB43
:10091000074B186018B9074B034A2D21F0E708BDB3
:10092000980100207CF20208C5F20208F4F20208E5
:100930009401002042F30208024B4FF0FF31186887
:1009400015F008BB98010020014B186815F03CBB5E
:1009500098010020024B0021186815F0FBBA00BF77
:1009600098010020FFF7F0BF034804490068002306
:100970001A4615F0A5BB00BF94010020040000201A
:1009800013B5084C00231A4601A9206815F0DAFBBC
:1009900020684FF0FF33002201A915F0D3FB02B00D
:1009A00010BD00BF9401002003685B6C1847012054
:1009B000704703689B6A184782B0002301930D4B70
:1009C0001A6B42F400021A631A6B02F400020192DD
:1009D000019A1A6942F400021A611A6922F40002AB
:1009E0001A61054B054A1A61054B4FF080629A6007
:1009F00002B0704700380240C8370020450A00089E
:100A000000E100E040F2EF3070470000054B03606A
:100A1000054B4FF08062C3F88820BFF34F8FBFF3C0
:100A20006F8F7047E0F4020800E100E010B5044663
:100A30004FF45A61FFF7EAFF20462DF077F9204680
:100A400010BD0000024B1B68586803685B691847BB
:100A50003882012070B5044625460A4B0C3000262A
:100A600060602672667245F8203B6022294618F0C5
:100A7000A7FC04F55A63EE602435AB42FBD1204657
:100A800070BD00BFE0F4020808B50B290BD8DFE801
:100A900001F01206100A0A0A0A08080808080120CC
:100AA00008BD0520FCE7054B054A064867212DF0E7
:100AB0006BF90020F4E70220F2E700BF84F302089C
:100AC0009FF30208E9F3020808B50A2909D8DFE80C
:100AD00001F010060E0808080806060606000120A8
:100AE00008BD054B054A064888212DF04DF9002028
:100AF000F6E70220F4E700BF84F3020835F40208A9
:100B0000E9F302082DE9F8434F7F0C463946814648
:100B1000FFF7BAFF94F81E80054641464846FFF7A6
:100B2000B3FF414606464846FFF7CEFFA18A628BD7
:100B3000424B521A1A649A61228B521A1A61E28A43
:100B4000586342EA01425A6420696268D863DA60F5
:100B5000216894F81CC080294FEA0C6226D010D876
:100B6000202945EA020461D040295FD004295DD0E4
:100B7000324B2A4342F400324745DA615AD0304AB8
:100B800040E0B1F5807F07D0B1F5007FF0D142F4AD
:100B9000003242F0090203E042F4003242F00A025D
:100BA000DA61E2681A625E6258612AE0A4682A4348
:100BB00042F40032211DD962DA6122785E62586106
:100BC00042B1012A21D01F4B1F4A20484FF489719E
:100BD0002DF0DAF8DA69618822F47F42013922F0D7
:100BE000100242EA0122DA610120144BDA6942F074
:100BF0002002DA61DA699206FCD410229A60002899
:100C0000BDD0134A1A60BDE8F8836288D969541EC2
:100C100021F47F4222F0100242EA0422BCF1FF00DC
:100C200042F0100218BF0120DA61DEE744F400341C
:100C3000DC61B8E740F20122E4E700BF00B0024007
:100C40000102010080F402089AF40208E9F30208A4
:100C50000102020070B50C46897FFFF735FFA68AB6
:100C6000E18A628B154B2569586341EA0641921B64
:100C70005964DD631A642668E168082E0DD19A6113
:100C80001A615862207F0E4A42EA0062DA610D4A18
:100C900019625D61DD601A6070BD0022D8611A6161
:100CA00048090A0A02F4784200F4FC600243C1F3E6
:100CB000C4010A439A63044AEDE700BF00B0024052
:100CC000090001000102020001020300034B1A683F
:100CD000D207FCD423229A60704700BF00B00240C4
:100CE00030B50F4C2568ED07FCD423250904A56019
:100CF00041F001010225FF2B65636164E0630AD0C6
:100D00000849656241EA0363E361074B226260615F
:100D1000E060236030BDE561039BA363034BF8E70C
:100D200000B00240090001000100020001000300C0
:100D30000120704738207047382303FB010008303A
:100D40007047382303FB01000830704701207047CB
:100D500042F24450704742F2445303FB0100083012
:100D6000704742F2445303FB0100083070470120F2
:100D700070471020704700EB01100830704700EBFF
:100D8000011008307047084601F0D2BB10B5034B84
:100D90000360044617F07FF9204610BD98F502085D
:100DA00010B50446FFF7F2FF204640212CF0BEFFAD
:100DB000204610BD10B5034B0360044617F06BF9D5
:100DC000204610BD64F5020810B50446FFF7F2FF97
:100DD000204642F24C512CF0A9FF204610BD0000E5
:100DE00010B5034B0360044617F055F9204610BDBB
:100DF00030F5020810B50446FFF7F2FF204618212F
:100E00002CF094FF204610BD10B5094B036004463A
:100E100000F515503830FFF7B9FF04F12C00FFF74B
:100E2000C9FF04F11400FFF7DBFF204610BD00BF2F
:100E3000CCF5020808B50248FFF7E6FF08BD00BF81
:100E4000A001002010B50446FFF7DEFF204642F265
:100E500014712CF06BFF204610BD00002DE9F3410A
:100E600001F020F9054601F021F90024014623464E
:100E700028462246009420F059FE264B264A274D4C
:100E80001A60204611F0C2FD254820F0B7FD2B78EE
:100E9000BFF35B8FDB0736D428462CF049FF90B3B5
:100EA000204C214F214B236007F1440604F114002C
:100EB00004F12C086060C4F80880E760266117F030
:100EC000EBF81B4B6361404617F0E6F8194BE36201
:100ED000384617F0E1F804F50053174AC3F87825AF
:100EE00003F5B76011F00EFE224607F140013046CF
:100EF00011F0FEFD304601F01BFB10482CF062FFA4
:100F000028462CF021FF0E4802B0BDE8F041FFF763
:100F10003EBC00BF9C820120D43600209C010020F2
:100F200008000020A001002018270020CCF50208AE
:100F300030F5020864F5020898F50208350E00083D
:100F4000583600200148FFF724BC00BF5836002067
:100F500070B5234C234E244B244D23603046FFF7BD
:100F600079FD284623F0ECFE214B2248DC60224C20
:100F700003600022F0204FF480712080C3E9121238
:100F80001E4C1F492080C3E919121E4C1A864FF0CF
:100F900080714FF4A07059670121C3E90422C3E9AD
:100FA0000622C3E90822C3E90A22C3E90E22C3E9E3
:100FB0001022C3E91422C3E916221A6683F86C20B2
:100FC0001A67C3E9016583F8781020800E4C83F816
:100FD000341020800D4802700D4A1A6070BD00BFA9
:100FE000B4280020B828002020F00208D8360020BD
:100FF00058360020388201202C82012032820120C4
:10100000010000012E820120348201203082012063
:10101000ACF102080148FFF7F9BC00BFB828002076
:10102000034B902283F85A2383F85823704700BF5C
:1010300000E100E0094A0A49D3680A48C3F30A03F9
:10104000013B9BB20B801169C1F30A010139018098
:101050001364536B43F0010353637047006801400E
:101060005437002052370020014BD3F8AC007047B2
:1010700000680140024B0122C3F8AC105A6270476D
:101080000068014070B5044617F00DFB23685D6EE3
:101090001DF030FB01462046A8472368054AD3F8D7
:1010A00088502046AC460023BDE87040A2F51631BA
:1010B000604700BF005802D017F0DCBA90F84B3000
:1010C00013B1024B01221A7017F0E0BA503700201A
:1010D00017F09ABA17F0F3BB034B4FF080629A6097
:1010E0004FF080729A60704700E100E0084B4FF0CB
:1010F0008062C3F88820BFF34F8FBFF36F8F4FF02C
:101100008072C3F88820BFF34F8FBFF36F8F704793
:1011100000E100E010B5144C236823B3134B144ACC
:101120001B6C11888B4213D1124B198813F0AAFC47
:10113000226892F86630013382F86630FFF714FCBB
:10114000206817F0E7FFBDE810400020FFF7F8BA6D
:1011500013F098FC206803681B6A9847BDE81040AC
:101160000020FFF7EEBA10BD388201200068014070
:10117000543700205237002007B5064BADF8060063
:101180001B68054801220DF1060114F08CF903B02B
:101190005DF804FB10000020383900200C4982B0B3
:1011A000002303F6146201EB820292ED017ADDED79
:1011B000017A013377EE877A3C2BCDED017AF0D1BD
:1011C0009DED010ADFED037A80EE270A02B0704739
:1011D000D0390020000070422DE9F041404C04F568
:1011E0004055D5F84839002B69D000233D48C5F853
:1011F00048393D4F3D4E12F04BFA4FF0FF31394820
:1012000012F0BAFA374812F006FB3A683368013236
:101210000A2118443A6092FBF1F301FB132230607B
:10122000002A4CD13368B3FBF1F307EE903A9FEDFF
:10123000307AF8EEE77A67EE877A9FED2E7A67EEDE
:10124000877AC4ED007AE368B3B3D5F85039DFF894
:10125000AC80012BDCBF2368636194ED007AD4ED90
:10126000017AB4EEE77AF1EE10FAC4BF2368636046
:10127000D5F850390133C5F850390123C5F84C3938
:10128000D8F8003021685A1C03F6146304EB83037A
:101290003B2AC8F8002059600EDD3C23D5F85009E0
:1012A00090FBF3F0FFF77AFF043004EB800000239B
:1012B00080ED010AC8F8003000233B603360E66827
:1012C000012E08D1226932B90B4840F25553102142
:1012D00012F003FC2661012014F0CCFD81E700BF71
:1012E000D039002064370020247300202C730020A4
:1012F0003333534000008039B43700202873002076
:10130000F0B5A1B0102200210AA82CF0C3FE1422CF
:10131000002103A82CF0BEFE0021302214A82CF0DE
:10132000B9FE0024224B01941A6C42F080521A64D8
:101330001B6C03F080530193019B1E4B02941A68AF
:1013400042F440421A601B6803F4404302930122B6
:10135000029B4FF48033CDE9082302254FF480032C
:10136000CDE90E5308274FF4A873042608A8CDE949
:1013700010731295139613F0A3FB0F23CDE90335D9
:101380004FF4A0514FF48053CDE9061303A8052173
:10139000059413F06DFDC023189314A84FF4003387
:1013A00014971A961D9313F03DFE21B0F0BD00BFB7
:1013B00000380240007000402DE980489BB012F0D8
:1013C00081F8FFF79DFF142200210DA800242CF0C6
:1013D00061FEC44B00941A6BC348C44D42F0200216
:1013E0001A631A6B02F020020092009A01941A6BA1
:1013F00042F080021A631A6B02F080020192019A95
:1014000002941A6B42F004021A631A6B02F004028F
:101410000292029A03941A6B42F001021A631A6B49
:1014200002F001020392039A04941A6B42F0020242
:101430001A631A6B02F002020492049A05941A6B62
:1014400042F040021A631A6B02F040020592059ABC
:1014500006941A6B42F010021A631A6B02F0100223
:101460000692069A07941A6B42F008021A631B6BE5
:1014700003F00803079322460421079B12F024FD82
:101480009B4822464FF4805112F01EFD2246994897
:101490004FF44051012612F017FD02274FF0040BC4
:1014A00091480F940DA9CDE90DB6109712F024FCC8
:1014B0004FF480528E480DA9CDE90D26CDE90F4499
:1014C00012F01AFC0DA94FF440528A48CDE90D26BE
:1014D000CDE90F4712F010FC8748884A026012F0ED
:1014E0008BFA874B874A2C62C5E9003228464FF4B5
:1014F0008042C5E90424C5E90244C5E9064412F066
:10150000C5FE1021284613F001F92146284613F0A4
:101510001CF97D487D4984624FF48272C0E9001253
:101520004FF400751822C0E906520A22784DC262B3
:10153000C0E90244C0E90444C0E9084413F076FF5E
:10154000744A0D974FF01008C5E900264022C5E9FE
:1015500004824FF4C072C5E906244FF400620323ED
:101560004FF00709C5E908240DA94FF40052284699
:10157000CDE911374FF0080AC5E9024BAA62CDE95F
:101580000E9BCDF84090139713F076FE4FF6FF7246
:1015900009A92846CDE90AA6099608940C9413F0E7
:1015A0008BFE304611F0BAFF4FF6FF7209A92846AC
:1015B000CDE9097ACDE90B6413F07EFE03234FF6E3
:1015C000FF7209A92846CDE9093ACDE90BB413F019
:1015D00073FE4FF40C720892089B0C934FF6FF7247
:1015E00009A92846CDE909BA0B9613F065FE40F229
:1015F0006A51284613F077FE342221460DEB020093
:101600002CF048FD444D454BAC86C5E90034092318
:101610004FF01D0CC5E905360323C5E907C340F2A9
:101620000D1E40F24313C5E909E3284640F2471373
:1016300040F2171AC5E90BA3C5E902442C6185F8ED
:10164000364013F027F9FF21F022CDE912144FF4B0
:10165000806B05214FF4A073CDE90E24CDE914B1C0
:10166000CDE916420DA922462846CDE910372C4D6A
:1016700018930D94ADF864408DF8664013F0D5F9D9
:10168000284B2B601B6898472B68274DDB689847D1
:10169000264BC5E90A47C5E90C442846C5E900348C
:1016A000C5E9027412F02BFA3146284612F0E0FA2E
:1016B000214642460DA82CF0EDFC1D4D1D4AEE6161
:1016C0004FF48033C5E9002328461B4BAB626E61A3
:1016D000AC602C612C7685F82040EC62EC6085F8DB
:1016E00030402BE00038024000080240083800205B
:1016F00000040240000C0240AC37002000300240E1
:10170000005C0040A08601003839002000500140F4
:1017100004390020400100A05C380020006801402E
:101720005C37002018000020C837002000B00240BD
:1017300064370020002001400100000F11F002FF7B
:101740000DA92846CDE90D96254DCDF83C9012F017
:1017500065F82449244EAC6042F2CF03C5E900137A
:10176000284640F2E733EB60CDE90D44AC6114F05C
:10177000F7F90DA92846CDE90D4414F00BFA1B4BDF
:1017800033603046CDE90D4412F046F942460DA9CA
:101790003046CDE90D4412F07FF9FEF724FF2846CC
:1017A00014F0C1F84146304612F049F940F2555361
:1017B00022464146304612F090F914F0CBFA0C4A1A
:1017C0000C48214614F000FB0B4B0C4A18602146D4
:1017D0000B4814F0F9FA0B4B186014F0D5FAFEE739
:1017E0009039002000140040B437002000740040FD
:1017F000ECF50208EB0500085837002010F6020847
:10180000D911000860370020704770477FB5094B39
:101810008DF817201B6802930DF117020123009227
:1018200001930A460146044812F0D8FD07B05DF85E
:1018300004FB00BF0C000020083800207FB5002307
:101840008DF81730084B1B6802930A4601230DF1EF
:101850001701009101930146044812F04FFE9DF8D4
:10186000170007B05DF804FB0C00002008380020CA
:101870001FB5084C24680092CDE901340A460123C3
:101880000146054812F03AFE003818BF012004B0A6
:1018900010BD00BF0C0000200838002011F03EBE33
:1018A00008B506480022042112F00EFBBDE80840EE
:1018B00002480122042112F007BB00BF00080240C9
:1018C00038B50B4D044601220A484FF4005112F07E
:1018D000FBFA00220421284612F0F6FA2046FFF710
:1018E0004BFC28460122BDE83840042112F0ECBA36
:1018F00000080240000C024038B50B4D044600229F
:101900000A484FF4005112F0DFFA00220421284661
:1019100012F0DAFA2046FFF72FFC28460122BDE834
:101920003840042112F0D0BA00080240000C0240F6
:10193000F7B5144E144F05460C46304600220421DC
:1019400012F0C2FA00224FF40051384612F0BCFAED
:101950002846FFF711FC0D4B0D481B68224601A9D4
:1019600013F03FFF384601224FF40051019C12F062
:10197000ABFA30460122042112F0A6FA204603B049
:10198000F0BD00BF00080240000C02401000002023
:101990003839002011F0C2BD0268084B9A4210B5D8
:1019A000044601D111F0A8FD2268054B9A4202BFFE
:1019B000044B0122C3F8482910BD00BF00040140B8
:1019C00000140040D069002082B00E4B002200922B
:1019D000596C41F480415964596C01F48041009183
:1019E00000990192196C41F0805119641B6C03F04D
:1019F00080530193019B0F216FF0010002B011F0A1
:101A0000BBBF00BF0038024010B5044688B01422A6
:101A1000002103A82CF03EFB2268124B9A421ED1F3
:101A200003F58C33002101915A6C0F4842F4807207
:101A30005A645A6C02F480720192019A02911A6BF4
:101A400042F001021A631B6B03F001030293029B35
:101A50008022032303A9CDE9032312F04DF908B036
:101A600010BD00BF00200140000002400268094B89
:101A70009A4282B00BD100230193074B1A6B42F4B8
:101A800080521A631B6B03F480530193019B02B0D5
:101A9000704700BF003002400038024010B50446D5
:101AA00088B01422002103A82CF0F4FA2268124B0B
:101AB0009A421ED103F5E233002101911A6C0F48BE
:101AC00042F000521A641A6C02F000520192019A1C
:101AD00002911A6B42F001021A631B6B03F00103BF
:101AE0000293029B2022032303A9CDE9032312F0D2
:101AF00003F908B010BD00BF0074004000000240B0
:101B000007B50F4B02689A4216D10022A3F5F043A5
:101B10000192196B41F4000119631B6B03F400037C
:101B2000019305215A20019B11F026FF5A2003B092
:101B30005DF804EB11F052BF03B05DF804FB00BF89
:101B400000B002402DE9F043044689B01422002180
:101B500003A82CF09FFA2268244B9A4243D1244CCC
:101B6000244800250095236B43F004032363236B73
:101B700003F004030093009B0195236B43F00103E2
:101B80002363236B03F001030193019B4FF01209C0
:101B90004FF400734FF001080327042603A9CDE991
:101BA0000339CDE90587079612F0A6F84FF4807344
:101BB0001148079603A9CDE90339CDE9058712F04D
:101BC0009BF80295236C43F400032364236C03F415
:101BD00000030293029B236A43F400032362236AF7
:101BE00023F40003236209B0BDE8F083005C0040E9
:101BF000003802400008024000000240F0B50446F0
:101C00008DB01422002107A82CF044FA2268574B0B
:101C10009A4240F0A88003F55043002500955A6C85
:101C2000534842F080625A645A6C02F0806200921B
:101C3000009A01951A6B42F020021A631A6B02F0A7
:101C400020020192019A02951A6B42F001021A6376
:101C50001A6B02F001020292029A03951A6B42F08B
:101C600002021A631A6B02F002020392039A0495AD
:101C70001A6B42F040021A631A6B02F0400204929F
:101C8000049A05951A6B42F004021A631A6B02F06B
:101C900004020592059A06951A6B42F008021A632F
:101CA0001B6B03F00803069302240E26069B0A947E
:101CB0004FF4806307A9CDE907340B9612F01CF8A6
:101CC00041F658032B480B9607A9CDE9073409279D
:101CD000CDE9095412F010F8032327480B9707A900
:101CE000CDE90734CDE9095412F006F84FF47063DA
:101CF00021480B9607A9CDE90734CDE9095411F025
:101D0000FBFF4FF40C631D480B9607A9CDE9073480
:101D1000CDE9095411F0F0FFC02319480B9607A92B
:101D2000CDE90734CDE9095411F0E6FF0823154841
:101D30000B9607A9CDE90734CDE9095411F0DCFF72
:101D40004FF4A0530D480B9707A9CDE90734CDE90F
:101D5000095411F0D1FF58202A46052111F00CFE3C
:101D6000582011F03BFE0DB0F0BD00BF00680140EF
:101D7000001402400000024000040240001802402B
:101D800000080240000C024010B5044688B014223E
:101D9000002103A82CF07EF92268144B9A4223D12B
:101DA00003F56843002101915A6C114842F48012F6
:101DB0005A645A6C02F480120192019A02911A6BD1
:101DC00042F020021A631B6B03F020030293029B74
:101DD0004FF4607202230321CDE903230523CDE9EB
:101DE000061303A911F088FF08B010BD0050014090
:101DF0000014024007B50F4B02689A4216D1002228
:101E000003F509330192196C41F0200119641B6C30
:101E100003F02003019305213720019B11F0ACFD55
:101E2000372003B05DF804EB11F0D8BD03B05DF8C6
:101E300004FB00BF001400402DE9F04186B00023F0
:101E400003932B4B1C68002C4FD14FF00108C3F8B3
:101E50000080284B00949A6B274842EA08029A6354
:101E60009B6B03EA08030093022703260C25009BC3
:101E700001A94FF63F03CDE90137CDE9046511F023
:101E80003BFF1E48059501A9CDE90187CDE9034631
:101E900011F032FF48F233131948059501A9CDE935
:101EA0000137CDE9034611F027FF4FF6837315483C
:101EB000059501A9CDE90137CDE9034611F01CFFD5
:101EC0004CF203731048059501A9CDE90137CDE91E
:101ED000034611F011FF60230C48059501A9CDE9D7
:101EE0000137CDE9034611F007FF06B0BDE8F081E8
:101EF0003073002000380240001402400008024005
:101F00000018024000100240000C02400004024091
:101F100030B5014689B000222C2011F02DFD2C2077
:101F200011F05CFD0025154B02955A6C144C42F0E3
:101F300002025A645B6C03F00203029301A903A836
:101F4000029B13F051F813F03FF80E4B236040F260
:101F5000E733E36040000C4BB0FBF3F00138606006
:101F600020462561A56013F0FBFD20B9204613F043
:101F7000DAFC09B030BD0120FBE700BF00380240A9
:101F8000347300200004014040420F007047FEE718
:101F9000FEE7FEE7FEE77047014813F0D8BC00BF3C
:101FA00034730020014813F0D2BC00BF90390020E8
:101FB000014812F0DDBC00BF5C380020014811F080
:101FC000CCBD00BFC83700200120704708B52BF0FA
:101FD0000DFF162303604FF0FF3008BD08B52BF04E
:101FE00005FF16230360FEE770B50D4614460E4646
:101FF000731B9C4201DC204670BDAFF3008006F8E5
:10200000010BF5E770B50D4614460E46731B9C4256
:1020100001DC204670BD16F8010BAFF30080F5E738
:102020004FF0FF3070474FF400534B600020704773
:1020300001207047002070470A4A116808B503461E
:1020400009B9094911601068694603448B4206D9F1
:102050002BF0CCFE0C2303604FF0FF3008BD136063
:10206000FCE700BF74730020E8840120704710B5BE
:10207000042104462BF05AFE204610BD012908B564
:1020800006D0022908D059B910F00CFD006808BD2F
:1020900010F008FD4068FAE710F004FD8068F6E7EC
:1020A0000020F4E70048704748F60208092070470E
:1020B00013B5002451B1036801948DF8034001AABF
:1020C0009C680DF10303A04702B010BD0846FBE772
:1020D00040897047808970478088704783798088FD
:1020E000184480B27047C07900F07F007047C07913
:1020F000C0097047704710B5082104462BF016FE42
:10210000204610BD7047704700F59673086849680F
:1021100003C370470020704781807047C1807047BB
:102120000181704741817047704770477047704721
:10213000704710B4C4880368121B84885B6D091B48
:1021400012B25DF8044B09B218474FF6FF73838152
:102150004FF0FF3303621368C3611060704770472C
:102160007047416070477047064BC0F84831002304
:10217000C0F84C3100F5A073C0F84401C0F83C3100
:10218000704700BF9922000801230372704790F83E
:1021900025201AB190F8242002B1186070477047CA
:1021A00070477047704701464068036810315B6EA6
:1021B000184701464068036810311B6E1847704786
:1021C000704710B50022B1F90840B1F90A10028039
:1021D00042808480C18010BD10B4C2684168541030
:1021E000034601EB6200D20748BF0A599B685DF8BD
:1021F000044B48BFD358184743682BB183682BB9A9
:10220000C06800F001007047184670470120704711
:1022100010B50C2104462BF089FD204610BD10B5E9
:10222000102104462BF082FD204610BD10B54FF45E
:10223000AC7104462BF07AFD204610BD10B5382154
:1022400004462BF073FD204610BD10B5282104462E
:102250002BF06CFD204610BD08B51CF04BFABDE814
:1022600008401CF0EBBD90F8252012B103685B69B3
:102270001847704710B50446D0F83C0158B10368C0
:10228000DB68984738B1D4F83C0103689B689847ED
:102290000023C4F83C3110BD2DE9F14FD0E9545A68
:1022A0000746A86803681B6A9847B0F57E7F05D289
:1022B000454B464AA32146482BF066FD68680368F3
:1022C0001B6A98470F2803D8424B404AA421F2E7E3
:1022D000E86803681B6A98470B2803D83E4B3B4AC3
:1022E000A521E8E7DFF8F8901CF004FA1CF008FAE2
:1022F000D9F8000010B10368DB689847D9F80000EE
:1023000010B103681B689847DFF8D880D8F8000040
:1023100010B103685B699847D7F8380110B10368BA
:102320005B689847D8F8000010B103681B689847AD
:10233000D7F8380110B103689B689847E8680368CC
:1023400000215B6A98474FF0000B244B0360044662
:10235000C0F804B080F808B0A868036859465B6A02
:102360009847064610F07EFC6868036859465B6A29
:1023700098473146054610F001FCC9F80040C7F8FF
:102380003851C8F80060E5B12B1DCAF80030336839
:10239000C5F808A03046DB68F56398472B682846E7
:1023A0001B689847214630461DF052FE23682046A0
:1023B0001B69984723685B69204601B0BDE8F04F70
:1023C00018472B46E1E700BF0CF702089AF702080E
:1023D0009EF80208E5F8020888F90208CCFC020819
:1023E000808201207C820120044B1B6893F87620B8
:1023F0000AB1D86C00B99868704700BF38820120D4
:10240000F0B50446807A637A0130C0B2984289B050
:10241000A07250D8B4F90C2000211DF01FFE10F05E
:10242000010283B24DD04FF6FF710028D8BF0A4693
:102430001344E381244E254F3188B4F818C0E38952
:10244000B7F90000ADF81E00CA1A606863445B1A51
:10245000ADF81C30036812B200251B692283ADF869
:102460001820ADF81A5006A99847A37A012B26D157
:10247000174B1B781BB3A169606904AB03C3154BF1
:10248000186803681B6B98473388ADF81C303B888D
:10249000ADF81E300390ADF81850ADF81A50FFF7A4
:1024A000A3FFFF22036800920195DC68039904AB47
:1024B00006AAA04703E0012323720023A37209B0F8
:1024C000F0BDE081B6E700BF2C8201202E82012002
:1024D0003682012038820120F8B5044617460E46A0
:1024E0001CF028F90E4B1C600E4B23600E4B002590
:1024F000C4E950350D4BC4E95255186803682946A4
:102500009B68C4E94E55C4E954769847284610F0B4
:102510007DFAFFF769FF24F0FAF92046F8BD00BF05
:102520008C82012080FC020868FC020838820120AD
:10253000064BC0F848310023C0F84C3100F5A073B9
:10254000C0F84401C0F83C31704700BF9922000830
:10255000064BC0F848310023C0F84C3100F5A07399
:10256000C0F84401C0F83C31704700BF352700086F
:10257000064BC0F848310023C0F84C3100F5A07379
:10258000C0F84401C0F83C31704700BFF525000891
:1025900037B504460023134A026043600372417258
:1025A0008372C4E90533C4E90733C4E90933C4E9D4
:1025B0000B33E3814FF4807363630B4B23610B4B4D
:1025C000B3F900100A4BA181B3F90050103001900B
:1025D000FFF7A6FD01982946FFF7A4FD204603B0AA
:1025E00030BD00BF58FD0208F0FC02082C8201201B
:1025F0002E8201202DE9F047D0E9544A0746A06811
:1026000003681B6A984742F24353984205D8424BED
:10261000424AA32142482BF0B7FB606803681B6A5B
:1026200098470F2803D83F4B3C4AA421F2E7E068C3
:1026300003681B6A9847372803D83B4B374AA521C4
:10264000E8E7DFF8E8901CF055F81CF059F8D9F8E5
:10265000000010B10368DB689847D9F8000010B19A
:1026600003681B689847DFF8C880D8F8000010B1ED
:1026700003685B699847D7F8380110B103685B6855
:102680009847D8F8000010B103681B689847D7F83E
:10269000380110B103689B689847E068036800211F
:1026A0005B6A984714210546FFF772FFA06803682C
:1026B00000215B6A9847064610F04CFC606803688E
:1026C00000215B6A98473146044610F00DFBC9F8BB
:1026D0000050C7F83841C8F80060DCB1231DCAF8C3
:1026E00000303368C4F808A03046DB68F4639847CC
:1026F000236820461B689847294630461DF0A8FCF1
:102700002B6828461B6998472B6828465B69BDE8FB
:10271000F04718472346E2E70CF702082BFA0208B5
:102720009EF80208E5F8020888F902088082012074
:102730007C8201202DE9F047D0E9544A0746A06881
:1027400003681B6A9847B0F57E7F05D2424B434A27
:10275000A32143482BF018FB606803681B6A984765
:102760000F2803D83F4B3D4AA421F2E7E0680368F5
:102770001B6A9847372803D83B4B384AA521E8E71E
:10278000DFF8E8901BF0B6FF1BF0BAFFD9F80000A5
:1027900010B10368DB689847D9F8000010B10368EE
:1027A0001B689847DFF8C880D8F8000010B10368AC
:1027B0005B699847D7F8380110B103685B689847A0
:1027C000D8F8000010B103681B689847D7F83801A3
:1027D00010B103689B689847E068036800215B6A52
:1027E000984714210546FFF7D3FEA068036800212F
:1027F0005B6A9847064610F035FA60680368002166
:102800005B6A98473146044610F0B8F9C9F80050A1
:10281000C7F83841C8F80060DCB1231DCAF80030A1
:102820003368C4F808A03046DB68F463984723682F
:1028300020461B689847294630461DF009FC2B6846
:1028400028461B6998472B6828465B69BDE8F04716
:1028500018472346E2E700BF0CF7020849FB0208CD
:102860009EF80208E5F8020888F902088082012033
:102870007C820120006A7047406A704770478B88ED
:1028800080690A68DB0A50F823001044704710B5CD
:10289000C2B1137BB3B1547BD27A240204F4E06456
:1028A0001443C26998B202EB840213888B4202D1AE
:1028B00092F9020010BD05D8013880B20432002818
:1028C000F3D1F7E70020F5E710B5282104462BF0F7
:1028D0002DFA204610BD000030B589B00446BDF881
:1028E00050500695BDF84C5005959DF84050049504
:1028F0009DF83C5003959DF8385002959DF8345052
:1029000001959DF8305000951CF038FF064B236070
:10291000119BA361129BE361159B2362169B63626B
:10292000204609B030BD00BF7CFD0208806A7047B8
:102930007047704770477047704730B50368018132
:1029400085B06D460146D3F8843004462846984742
:1029500095E807003C3484E8070005B030BD30B589
:102960000368418185B06D460146D3F88430044642
:102970002846984795E807003C3484E8070005B0EE
:1029800030BD0022028042808280C280704780F881
:102990003610704770B5036804461B6B15469847A0
:1029A0002368294620465B6EBDE87040184700202A
:1029B0007047806C7047704770477047704770472A
:1029C000704790F82C304BB100F16C021268C26570
:1029D0003BB100F174031B680366704700F16802A5
:1029E000F4E700F17003F6E77047704770477047EF
:1029F00030B4C26844685510034604EB6200D20745
:102A000048BF62599B6830BC48BFD35818474368D9
:102A10002BB183682BB9C06800F0010070471846DD
:102A200070470120704730B4C268446855100346AF
:102A300004EB6200D20748BF62599B6830BC48BFB4
:102A4000D358184743682BB183682BB9C06800F08E
:102A500001007047184670470120704790F82D30EC
:102A600080F8A43080F85A30704790F82D3080F804
:102A70005A30704710B504467C3094F82C303BB186
:102A800004F17A0119F088F92046FFF79AFF10BD8A
:102A900004F17801F6E710B54C2104462BF046F915
:102AA000204610BD10B5782104462BF03FF9204692
:102AB00010BD10B5A82104462BF038F9204610BDF2
:102AC00010B5102104462BF031F9204610BD10B589
:102AD000102104462BF02AF9204610BD10B54FF402
:102AE0007E7104462BF022F9204610BD10B5044635
:102AF000006B50B10368DB68984730B1206B036806
:102B000021469B68BDE81040184710BD00F1C40283
:102B1000914202D10368DB6A184700F5B672914210
:102B200002D103681B6BF7E770470B7970B590F81B
:102B30002C6004460D469BB98EB9B3FA83F35B094A
:102B400084F82C3023682046D3F88C3098472368CB
:102B500020465B69984716B12B79012B03D070BDD5
:102B6000002EFCD0E9E723682046D3F88830BDE882
:102B700070401847036870B55E6B124B1B680446C3
:102B80008DB22BB9104B114A6C2111482BF0FCF877
:102B90001049828D0988914203D80F4B0B4A6D2151
:102BA000F3E713F812200D4B1B6853F8220003685B
:102BB000DB6A9847281A01B233462046BDE87040C8
:102BC000184700BF90820120CCFD02080EFE0208CB
:102BD00049FE02089482012090FE0208988201209A
:102BE00000F52A738B4210B5044609D11BF082FD13
:102BF000FFF7BEFC236820465B6BBDE8104018471A
:102C000010BD00224FF0FF31C0E900218260704703
:102C100070B5036804461B6B154698472368294620
:102C200020465B6BBDE8704018470B882DE9F041EA
:102C3000A0F878301388B0F90850A0F87A3004462C
:102C4000104690461EF086FFB4F90A30074603EBA3
:102C5000D3734046C3F34F061EF0B0FF05EBD575A6
:102C6000C5F34F0500EBD07007EBD777A6EB6002FA
:102C7000A5EB670704F17C0039B212B2FFF7C8FF79
:102C800023682046D3F88C30BDE8F041184770B572
:102C900004461D46BDF91060FFF7BAFF23682946B8
:102CA00020469B6B9847236831462046DB6BBDE886
:102CB000704018470022C0E90122C0E90322C0E9A0
:102CC0000522C0E907224FF480728284014A026023
:102CD000704700BFD8FE020810B526220446002126
:102CE0002BF0D8F92046FFF7E5FF044B2360FF23C4
:102CF00084F826300023A362204610BD6415030823
:102D000038B5262204460D4600212BF0C3F9204693
:102D1000FFF7D0FF064B23602B88E384FF23204678
:102D200084F82830294619F037F8204638BD00BF0E
:102D3000A816030810B52622044600212BF0AAF994
:102D40002046FFF7B7FF0A4B23600A4BA3624FF6FA
:102D5000FF73A3854FF47F020023C4E90C324FF0C8
:102D6000FF32C4E910232387E363204610BD00BF70
:102D7000D414030804F702081B4B73B51B88018F9A
:102D80008B4206462BD9194B1B682BB9184B194A95
:102D900019486C212AF0F8FF13F81120174B1B6813
:102DA00053F82250164B18680FF06CFE2B680190F8
:102DB00001469B6A284698472B6801991B6C04467C
:102DC000284698472B6801995B6A14FB00F4284653
:102DD0009847E4B2044486F8454002B070BD002331
:102DE00080F84530F9E700BF9482012090820120ED
:102DF000CCFD02080EFE020849FE0208988201205E
:102E00009C8201204FF47F4373B50646838540F2D0
:102E10000113002583841D4B8562C0E90155C0E97B
:102E20000355C0E90555C0E90755056346F8343B2D
:102E300004463046FFF750FF154B63632A46C4E94A
:102E40001A55C4E91C552566A4F864502946304635
:102E5000FFF7DEFE3146204615F030F90D4B2360BA
:102E600004F17C054FF6FF73A4F87830A4F87A30AB
:102E700001A92846ADF80430FFF742FF2046294655
:102E800015F01CF9204602B070BD00BFD0FF02084B
:102E9000401603086C0003082DE9F04F2DED088B58
:102EA00004468DB01CF028FF22460025E44BE56364
:102EB00042F8403B104608EE102AFFF70DFF04F1E0
:102EC0006C034FF6FF760AA918460AEE103AADF8E1
:102ED0002860FFF715FF04F198030AA918460AEEC7
:102EE000903AADF82860FFF70BFF04F1C4031846D1
:102EF00008EE903AFFF786FF04F5B673184609EE20
:102F0000103AFFF77FFF04F5057304F517791846AB
:102F100009EE903A04F52A78FFF70CFFC94F4846AE
:102F2000FFF708FFC4F85C72C4F8A452404619F0D9
:102F300065F804F53C7304F5477B0AA918460BEEC7
:102F4000103A04F5597AADF82860FFF7D9FE5846D3
:102F5000FFF7F0FE5046FFF7EDFEBB4BC4F864737D
:102F6000C4E9F634B94BC4F8AC53C4E9F835B84BEE
:102F7000C4E9FA34B74BC4E9FC35F02318EE100A63
:102F800000932A4629464FF4A073FFF780FE4FF0C6
:102F90007F43A3662A461AEE100A2946FFF738FE39
:102FA0001AEE100A0AA9ADF8285018F0F5FE1AEE2C
:102FB000900A19227621FFF72BFE17271AEE900AA6
:102FC0004FF003030AA9ADF8283018F0E5FE00978A
:102FD0002A46294604F1F8002B23FFF758FE9E4AA3
:102FE0009E4B9F499F48C4E94B32D4F8C430052614
:102FF000C4E94D10D3F88C30A4F8286118EE900A7B
:1030000098470DF1280C62460DF1240C614618EE2C
:10301000900AADF82460ADF82860FFF706FE18EEC0
:10302000900AC4F8446100972B23312240F2111119
:10303000FFF72DFE04F57A7CC4F8F4C000972A4609
:10304000294604F5D0702B23CDF80CC0FFF71FFEE6
:10305000814A824B82498348A4F8D061C4E9753221
:10306000D4F86C31C4E97710D3F88C3019EE100A1B
:103070009847062619EE100A0AAA09A9ADF8246095
:10308000ADF82860FFF7D1FD19EE100AC4F8EC6125
:1030900000972B23192240F21111FFF7F8FD039B33
:1030A000C4F89C3104AE4FF0FF3719EE900A1C2291
:1030B0001921FFF7ADFD19EE901AA4F848523046D9
:1030C000C4F8447218F05AF996E8070004F514732E
:1030D00083E80700644B0A9319EE900A0E230AA9AD
:1030E000ADF82C3018F0DAFB182200924846242262
:1030F0007C238F21FFF7CBFDD4F85C32A4F89052EB
:1031000049463046D3F88430C4F88C72984796E824
:10311000070004F5267383E8070004F56C73C4F810
:10312000A432514BA4F8B0530A930AA90D23484680
:10313000ADF82C3018F0B2FB4046B4224E21FFF718
:1031400067FD01230AAA09A9ADF8243040460223ED
:10315000ADF8283018F0FDFB0C23A4F8E03240460F
:10316000FFF70AFE04F57673C4F8D0321BEE100A9E
:10317000C4E9B9774F227621FFF74AFD1BEE100A0A
:103180004FF003020AA9ADF8282018F005FE5222DC
:1031900058462921FFF73CFDA4F8505359463046C4
:1031A000C4F84C7318F0EAF896E8070004F5567373
:1031B00083E807002C4B0A930AA90B235846ADF865
:1031C0002C3018F06BFB18220092504658227C23BA
:1031D0008F21FFF75CFDD4F86433A4F8985351466F
:1031E0003046D3F88430C4F89473984796E80700C3
:1031F00004F5687383E8070004F57173C4F8AC3311
:10320000194BA4F8C4530A93251D0A230AA9504652
:10321000ADF82C3018F042FB18EE101A284614F0C6
:103220004DFF1AEE101A284614F048FF1AEE901AB5
:10323000284614F043FF18EE901A284616E000BF07
:103240003C01030840FF02080C010308E12B0008C1
:10325000240103080D2B0008CC9900FF996600FF9C
:10326000663300FF996633FF04F7020814F026FF67
:1032700019EE101A284614F021FF19EE901A28466C
:1032800014F01CFF4946284614F018FF4146284612
:1032900014F014FF1BEE101A284614F00FFF5946C5
:1032A000284614F00BFF2846514614F007FF20462D
:1032B0000DB0BDEC088BBDE8F08F00BF002070475B
:1032C0008B88838001207047704780F82C107047EE
:1032D00010B40368046BD3F8A430624361435DF813
:1032E000044B1847D0ED0C7A0368F8EEE77AD3F870
:1032F000A43020EE270AB5EEC00AF1EE10FA17DB73
:10330000B6EE007A30EE070ABDEEC07A17EE101A5C
:1033100060EEA70AF5EEC00AF1EE10FA1CDBF6EE3D
:10332000007A70EEA70AFDEEE07A17EE902A1847B1
:10333000BDEEC07AF8EEC76A17EE102A30EE660AC4
:10334000F7EE086A30EE260A511EBDEEC00A10EEF6
:10335000102A0A441146DBE7FDEEE07AB8EEE77A80
:1033600017EE902A70EEC70AB7EE087A70EE870A59
:10337000013AFDEEE00A10EE90CA94446246D6E7A8
:1033800010B40368046BD3F8B03062435DF8044BAB
:103390001847D0ED0C7A0368F8EEE77AD3F8B0302E
:1033A00027EE800AB5EEC00AF1EE10FA08DBF6EE61
:1033B000007A30EE270AFDEEC07A17EE902A184701
:1033C000FDEEC07AB8EEE77A17EE902A30EE470AA3
:1033D000B7EE087A30EE070A013ABDEEC00A10EEE9
:1033E00010CA94446246EAE710B40368446BD3F809
:1033F000BC30624361435DF8044B1847D0ED0D7A51
:103400000368F8EEE77AD3F8BC3020EE270AB5EE71
:10341000C00AF1EE10FA17DBB6EE007A30EE070ABA
:10342000BDEEC07A17EE101A60EEA70AF5EEC00ADC
:10343000F1EE10FA1CDBF6EE007A70EEA70AFDEE54
:10344000E07A17EE902A1847BDEEC07AF8EEC76A08
:1034500017EE102A30EE660AF7EE086A30EE260AFA
:10346000511EBDEEC00A10EE102A0A441146DBE7D9
:10347000FDEEE07AB8EEE77A17EE902A70EEC70A12
:10348000B7EE087A70EE870A013AFDEEE00A10EE18
:1034900090CA94446246D6E710B40368446BD3F8EC
:1034A000C03062435DF8044B1847D0ED0D7A0368D5
:1034B000F8EEE77AD3F8C03027EE800AB5EEC00AFE
:1034C000F1EE10FA08DBF6EE007A30EE270AFDEE98
:1034D000C07A17EE902A1847FDEEC07AB8EEE77A68
:1034E00017EE902A30EE470AB7EE087A30EE070A58
:1034F000013ABDEEC00A10EE10CA94446246EAE7F3
:10350000D0F82C31026B002B07DB02EB430393FB5B
:10351000F2F000EBD070401070476FF0010000FB3C
:103520000320013890FBF2F000EBD07040104042D5
:103530007047D0ED4B7AB8EEE70AD0ED0C7AF8EE92
:10354000E77A80EE270A7047D0F82C017047D0F850
:103550003031026B002B07DB02EB430393FBF2F0ED
:1035600000EBD070401070476FF0010000FB0320AB
:10357000013890FBF2F000EBD070401040427047F1
:10358000D0ED4C7AB8EEE70AD0ED0C7AF8EEE77A97
:1035900080EE270A7047D0F830017047D0F83431F8
:1035A000426B002B07DB02EB430393FBF2F000EBD3
:1035B000D070401070476FF0010000FB032001380D
:1035C00090FBF2F000EBD070401040427047D0ED1D
:1035D0004D7AB8EEE70AD0ED0D7AF8EEE77A80EE94
:1035E000270A7047D0F834017047D0F83831426B61
:1035F000002B07DB02EB430393FBF2F000EBD070F0
:10360000401070476FF0010000FB0320013890FB71
:10361000F2F000EBD070401040427047D0ED4E7A8F
:10362000B8EEE70AD0ED0D7AF8EEE77A80EE270AD9
:103630007047D0F83801704770B503680446D3F876
:1036400088300D461646984723683246294620465C
:10365000D3F89030BDE8704018470368D3F8943031
:1036600018470368D3F8D43018470368D3F8E0301C
:1036700018470368002A10B4D3F8A430046B0EDB9B
:1036800004EB420292FBF4F101EBD1714910B0F965
:103690001E215DF8044B013A0A44494218476FF075
:1036A000010101FB0241013991FBF4F101EBD17100
:1036B00049104942EBE70368D3F83C311847026BE5
:1036C00003685143D3F8483118470368D3F84431AD
:1036D0001847D0ED0C7A0368F8EEE77AD3F8483152
:1036E00027EE800AB5EEC00AF1EE10FA08DBF6EE1E
:1036F000007A30EE270AFDEEC07A17EE901A1847CE
:10370000FDEEC07AB8EEE77A17EE902A30EE470A5F
:10371000B7EE087A30EE070A511EBDEEC00A10EE71
:10372000102A0A441146EAE7C0F83C1170470368C2
:10373000D3F850311847036810B5D3F85C3104460C
:1037400098470028236B07DB03EB400090FBF3F066
:1037500000EBD070401010BD6FF0010202FB003092
:10376000013890FBF3F000EBD07040104042F2E7DC
:103770000368D3F858311847036810B5D3F85C31A3
:103780000446984707EE900AB8EEE70AD4ED0C7AA3
:10379000F8EEE77A80EE270A10BDD0F83C017047BA
:1037A000026B03685143D3F868311847D0ED0C7AA7
:1037B0000368F8EEE77AD3F8683127EE800AB5EEB1
:1037C000C00AF1EE10FA08DBF6EE007A30EE270AB6
:1037D000FDEEC07A17EE901A1847FDEEC07AB8EEEB
:1037E000E77A17EE902A30EE470AB7EE087A30EE05
:1037F000070A511EBDEEC00A10EE102A0A441146F7
:10380000EAE7C0F840117047036810B5D3F8743187
:10381000044698470028236B07DB03EB400090FB2E
:10382000F3F000EBD070401010BD6FF0010202FB0E
:103830000030013890FBF3F000EBD07040104042B4
:10384000F2E7036810B5D3F874310446984707EEE1
:10385000900AB8EEE70AD4ED0C7AF8EEE77A80EE3B
:10386000270A10BDD0F8400170470368026BD3F8F7
:103870008431002910B504460EDB02EB410191FBB7
:10388000F2F101EBD171491009B220469847D4E911
:103890004F2302FB003010BD6FF0010000FB01213F
:1038A000013991FBF2F101EBD17149104942EBE78B
:1038B000006B7047406B70470368D3F84831184776
:1038C0000368D3F85C311847026B03685143D3F89F
:1038D00014311847036870B5D3F81851D3F8803104
:1038E000D0F84461044698472B4656F820102046ED
:1038F000BDE870401847B0F91C21B0F91E31934261
:1039000007DBB0F94C31194491FBF2F002FB1011C6
:1039100009B2084670474801704780F82610704782
:1039200090F82600704710B50022B1F90840B1F9AF
:103930000A10028042808480C18010BD0022028073
:1039400042808280C2807047C1627047C06A7047FF
:103950000120704770477047C06B18B10368D3F8F7
:1039600080301847704730B5B2F81A11B2F91441D7
:10397000B2F94050B2F8422044802144521A00214A
:1039800001808580C28030BD10B54280BDF90840FD
:10399000BDF90C2004808280C38010BD0B680846EE
:1039A000D3F8D43018470B680846D3F8E0301847EE
:1039B000B1F914017047B1F81401B1F81A31034498
:1039C000B1F84200C01A00B27047B1F91601704751
:1039D000B1F81601B1F818310344B1F84000C01A2B
:1039E00000B270470B680846D3F8143111461847E7
:1039F000B2F8181130B5B2F9165105806C18B2F84A
:103A00004010B2F94220C280091B0024448081800A
:103A100030BD02808380BDF90020BDF904304280B2
:103A2000C38070470B680846D3F8EC3018470B6822
:103A30000846D3F8F8301847B1F916017047B1F8C5
:103A40001601B1F818310344B1F84000C01A00B2B1
:103A50007047B1F914017047B1F81401B1F81A3187
:103A60000344B1F84200C01A00B270470B68084620
:103A7000D3F81831114618477047704770477047A0
:103A800070477047704730B4C268446855100346A9
:103A900004EB6200D20748BF62599B6830BC48BF44
:103AA000D358184743682BB183682BB9C06800F01E
:103AB00001007047184670470120704710B540213B
:103AC00004462AF033F9204610BD10B540210446C3
:103AD0002AF02CF9204610BD10B54FF42B61044696
:103AE0002AF024F9204610BD10B54FF41071044699
:103AF0002AF01CF9204610BD10B5102104462AF00A
:103B000015F9204610BD10B542F2445104462AF082
:103B10000DF9204610BD90F82C300BB114F007BB06
:103B2000704713B503460846D3E90C1403680191A6
:103B3000D3F88C30984701990246204602B0BDE880
:103B4000104016F029B913B503460846D3E90C1402
:103B500003680191D3F894309847019902462046B2
:103B600002B0BDE8104016F017B900000A1E10B5EB
:103B700003DBB0F91E41944206DC084B084A0948B1
:103B800040F233612AF000F90368D0F84441D3F8D9
:103B90008031984754F8200010BD00BF740103081D
:103BA00097010308E60103080B1E10B5044603DB6A
:103BB000B0F91E219A4206DC074B084A084840F239
:103BC0002D612AF0E1F80368D3F884319847D4E9ED
:103BD0004F2302FB003010BD7401030843020308A9
:103BE000E601030800F1CC03994210B5044605D163
:103BF0001AF080FDBDE81040FEF7AABC00F5865320
:103C00001C33994215D190F8313D83F0010380F8BF
:103C1000313D90F8253183F0010380F8253100F61D
:103C20000C501BF0FEFC04F58070BDE810401BF04A
:103C3000F8BC10BD10B52622044600212AF02AFA4D
:103C40002046FFF737F8054B23600023A36284F872
:103C50002C30012384F82430204610BDF0130308D3
:103C600037B501AB15461BF07EFE00284FEA401425
:103C700001992A464FF0200004DB1BF093FE2044FC
:103C800003B030BD1BF08EFE201AF9E770B5B0F915
:103C90001441B0F81A516319B0F84250ED1AD0E946
:103CA0004D320E462DB2D21A691EF01AFFF7D8FF18
:103CB0002C44013CC0EB441070BD38B504460846A6
:103CC000B4F81831B4F816110B44B4F84010D4E924
:103CD0004B52C91A09B2521B0139401BFFF7C0FFF2
:103CE000B4F9163100EB431038BD000010B504469E
:103CF00015F03AFC064A2260002301220A21C4E999
:103D00000C21E36284F83820E363204610BD00BF35
:103D10005811030870B50023124E8380124B0360C4
:103D2000336893F8762005460AB1D86C00B99868D4
:103D30000368DB6A98473368B0FA80F4D86C64098A
:103D400030B10368DB6A9847002808BF44F00104DB
:103D50002CB9064B064A07482C212AF015F82846AC
:103D600070BD00BF3882012040050308920203089D
:103D7000F002030829030308064BC1604A0903EA5D
:103D8000112302F4FC621343C1F3C40119430182FD
:103D9000704700BF00F8FFFFA0F10800ECE700BF8C
:103DA00010B5044615F0E0FB0A4A22600023012208
:103DB000C4E90C23084AA2634FF6FF72A2872E22A1
:103DC000E36284F84030A4F84230A4F84420A364AD
:103DD000204610BD5013030804F702082DE9F04FE8
:103DE0002DED108B044693B01BF086FF2246002673
:103DF000EB4BE66342F8403B10460BEE102AFEF711
:103E00006BFF04F16C030AEE103A4FF6FF7726229F
:103E100031461846ADF840702AF03CF91AEE100A07
:103E2000FEF748FFDF4BE366BDF84030A4F8923060
:103E300010A91AEE100A84F8947017F0ADFF04F17F
:103E4000980318460CEE103AFEF746FFD64BC4F81E
:103E5000983004F1CC031846C4F8C460A4F8C860D4
:103E600004F580750BEE903AFFF7E4FECF4BC4F8F3
:103E7000CC30A4F8FA70A4F8FC7084F8FE704FF40B
:103E80001671284615F024FFC94BC4F8003104F51B
:103E9000147201233146C4E98F36C4E991262846BD
:103EA00040F25722FFF714FA04F53B63C14AC4F805
:103EB00000211846A4F84C620EEE103A15F054FB9F
:103EC0004FF00202BC4BDFF8109384F8DC2B04F5B2
:103ED0003E62C4F8B03B10460CEE902A09F1240A69
:103EE000FFF718FF04F6F432C4F8E09BC4F8E8AB1F
:103EF0001046C4F8EC6BDFF8E4820EEE902AFFF770
:103F0000F5FE04F63442C4F8F48B10460DEE102A88
:103F1000FFF7ECFE04F67442C4F8348C10460FEE42
:103F2000102AFFF73DFFA54AC4F8742C04F54C6233
:103F300010460FEE902A04F60C5BFFF731FFA04A03
:103F4000C4F8C02C3C21584615F0C2FE984BC4F86A
:103F50000C3D012104F65C633B22C4F8481EC4F802
:103F6000503E31465846C4F84C6EC4F8546EFFF7C4
:103F7000AFF904F64C71934BC4F80C3D0846A4F815
:103F8000586E079115F0F0FA8B4BC4F84C3F4FF088
:103F9000020384F8783F04F67C7318460DEE903ADD
:103FA000FFF7B8FE04F57963C4F87C9FC4F884AFCA
:103FB0001846C4F8886F0893FFF798FE04F57D63F0
:103FC000C4F8908F18460993FFF790FE04F58053CC
:103FD0001033DFF80CA2C4F8D0AF184604F58059AE
:103FE0000393FFF783FE04F582531033C9F8108062
:103FF00018460493FFF77AFE04F584531033C9F88A
:1040000050A018460593FFF7CBFE04F586536C4A83
:10401000C9F890201C3318460AEE903AFFF70AFEC2
:10402000694BC9F8DC3004F588531433A9F80A71D8
:10403000A9F80C7189F80E71A9F81071184608EEEC
:10404000103AFEF777FE04F58A531C33184608EE43
:10405000903AFEF76FFE04F58D535C4FC9F85C7122
:104060000833C9F8A461184609EE103AFEF762FE5B
:1040700004F58F531433C9F8A871C9F8F0611846D4
:1040800009EE903AFEF756FE04F593531433069367
:104090004F4BC9F8F471C9E99D344E4BC9F83C62E5
:1040A00004F59450C9E99F364FF49651043018F046
:1040B00061FEF0234FF07F491BEE100A0093324659
:1040C0004FF4A0733146FEF7E2FD6FF016021AEED0
:1040D000100A6FF06C01C4F86890FEF799FDA627EE
:1040E00004231AEE100A10A9ADF8403017F054FE60
:1040F0001CEE100A00974FF4A07332463146FEF7CB
:10410000C6FD4FF0FF33C4E930394FF001031BEE19
:10411000900AA4F8C830BD22BB219846FEF778FD6E
:104120004FF002031BEE900A10AA0FA9ADF83C80D5
:10413000ADF8403017F00DFC069BC4F8F430324661
:104140004FF47A712846FFF777FA00974FF4A0737F
:10415000324631462846FEF79AFD0F23009314227B
:1041600033460621284615F065FD33463246314672
:104170002846009615F061FCF7EE080AB7EE000A33
:104180002846FFF73BF94FF47A72D4F8241CD4F890
:10419000280C84F8256115F0FFFD47F2305321E02B
:1041A000B0080308A816030840160308CC15030836
:1041B000040E030860050308DC100308101203084E
:1041C000B0120308FC0603086014030840FF02084D
:1041D00098080308E53B0008540D0308D0030308C2
:1041E00088040308C4F8283C4FF0010384F82C3CF1
:1041F0001DEE103A4FF47A77DFF8E884C4F8303CCB
:104200001EEE901A2846C4F8247CC4F8208C15F0C1
:104210001FFC3A46D4F8641CD4F8680C15F0BCFDB9
:104220004EF6602A4FF0020384F86C3C1DEE101A23
:10423000C4F868AC2846C4F8647CC4F8608C15F0F7
:1042400007FC3A46D4F8A41CD4F8A80C15F0A4FD39
:10425000C4F8A8AC4FF0010A1FEE101A2846C4F8A3
:10426000A47CA4F8B0ACC4F8A08C15F015FC3A46B8
:10427000D4F8F01CD4F8F40C15F08EFD9623C4F895
:10428000F43C1FEE901A2846C4F8F07CA4F8FC6CAD
:10429000A4F802ADC4F8EC8C15F0ECFB1CEE900A0F
:1042A0004946FFF769FD1CEE903AC4F8D83B4FF041
:1042B00002031EEE101A84F8DC3B284615F0C8FBFA
:1042C000D4ED4D7A9FEDF37AF8EEE77A67EE877AD0
:1042D000F5EEC07AF1EE10FAC8F24B80B6EE007A35
:1042E00077EE877AFDEEE77A17EE901A284615F0FA
:1042F000ADFDD4ED4D7A9FEDE87AF8EEE77A67EE02
:10430000877AF5EEC07AF1EE10FAC8F24780B6EE81
:10431000007A77EE877AFDEEE77A17EE901A284654
:1043200015F094FDD4ED4D7A9FEDDC7AF8EEE77A46
:1043300067EE877AF5EEC07AF1EE10FAC8F24380A4
:10434000B6EE007A77EE877AFDEEE77A17EE901AEE
:10435000284615F07BFDD4ED4D7A9FEDD17AF8EE2D
:10436000E77A67EE877AF5EEC07AF1EE10FAC8F2D6
:104370003F80B6EE007A77EE877AFDEEE77A17EEA9
:10438000901A284615F062FDD4ED4D7A9FEDC57A5E
:10439000F8EEE77A67EE877AF5EEC07AF1EE10FA7A
:1043A000C8F23B80B6EE007A77EE877AFDEEE77AC8
:1043B00017EE901A284615F049FDD4ED4D7A9FED81
:1043C000BA7AF8EEE77A67EE877AF5EEC07AF1EE20
:1043D00010FAC8F23780B6EE007A77EE877AFDEEF3
:1043E000E77A17EE901A284615F030FDD4ED4D7A95
:1043F0009FEDAE7AF8EEE77A67EE877AF5EEC07A4F
:10440000F1EE10FAC8F23380B6EE007A77EE877AD2
:10441000FDEEE77A17EE901A284615F017FDD4ED59
:104420004D7A9FEDA37AF8EEE77A67EE877AF5EE9C
:10443000C07AF1EE10FAC8F22F80B6EE007A77EE6D
:10444000877AFDEEE77A17EE901A284615F0FEFC03
:10445000D4ED4D7A9FED977AF8EEE77A67EE877A9A
:10446000F5EEC07AF1EE10FAC8F22B80B6EE007AC3
:1044700077EE877AFDEEE77A17EE901A284615F068
:10448000E5FCD4ED4D7A9FED8C7AF8EEE77A67EE95
:10449000877AF5EEC07AF1EE10FAC8F22780B6EE10
:1044A000007A77EE877AFDEEE77A17EE901A2846C3
:1044B00015F0CCFCD4ED4D7A9FED807AF8EEE77ADA
:1044C00067EE877AF5EEC07AF1EE10FAC8F2238033
:1044D000B6EE007A77EE877AFDEEE77A17EE901A5D
:1044E000284615F0B3FCD4ED4D7A9FED757AF8EEC1
:1044F000E77A67EE877AF5EEC07AF1EE10FAC8F245
:104500001F80B6EE007A77EE877AFDEEE77A17EE37
:10451000901A284615F09AFCD4ED4D7A9FED697AF1
:10452000F8EEE77A67EE877AF5EEC07AF1EE10FAE8
:10453000C8F21B80B6EE007A77EE877AFDEEE77A56
:1045400017EE901A284615F081FCD4ED4D7A9FEDB8
:104550005E7AF8EEE77A67EE877AF5EEC07AF1EEEA
:1045600010FAC8F21780B6EE007A77EE877AFDEE81
:10457000E77A17EE901A284615F068FCD4ED4D7ACC
:104580009FED527AF8EEE77A67EE877AF5EEC07A19
:10459000F1EE10FAC8F21380B6EE007A77EE877A61
:1045A000FDEEE77A17EE901A284615F04FFCD4ED91
:1045B0004D7A9FED477AF8EEE77A67EE877AF5EE67
:1045C000C07AF1EE10FAC8F20F80B6EE007A77EEFC
:1045D000877AFDEEE77A17EE901A284615F036FC3A
:1045E000D4ED4D7A9FED3B7AF8EEE77A67EE877A65
:1045F000F5EEC07AF1EE10FAC8F20B80B6EE007A52
:1046000077EE877AFDEEE77A17EE901A284615F0D6
:104610001DFCD4ED4D7A9FED307AF8EEE77A67EE27
:10462000877AF5EEC07AF1EE10FAC8F20780B6EE9E
:10463000007A77EE877AFDEEE77A17EE901A284631
:1046400015F004FCD4ED4D7A9FED247AF8EEE77A6C
:1046500067EE877AF5EEC07AF1EE10FAC8F20380C1
:10466000B6EE007A77EE877AFDEEE77A17EE901ACB
:10467000284615F0EBFBD4ED4D7A9FED197AF8EE54
:10468000E77A67EE877AF5EEC07AF1EE10FAC7F2B4
:10469000FF874FE027BDB33F60E5B43F67F2B53F0A
:1046A0003FE3B63FEDB6B73F766CB83F8603B93F00
:1046B000C87BB93FE9D4B93F950EBA3FC729BA3F85
:1046C0002D26BA3F1405BA3F7EC6B93F0D6CB93FDF
:1046D000BEF6B83F8C67B83F6EC0B73F6002B73FC9
:1046E0000130B63FC59714FFA14AB53F3754B43FD8
:1046F0000E4FB33F1D3DB23F0421B13F65FCAF3FBC
:1047000035D2AE3F6AA4AD3F4F75AC3F3047AB3FAB
:10471000AC1CAA3F66F7A83FFDD9A73F69C6A63FD4
:10472000A1BEA53F9CC4A43FFDD9A33F1500A33F54
:104730002E39A23FB6EE007A77EE877AFDEEE77A61
:1047400017EE901A284615F081FBD4ED4D7A1FED37
:104750001A7AF8EEE77A67EE877AF5EEC07AF1EE2C
:1047600010FAC7F2AA87B6EE007A77EE877AFDEEE6
:10477000E77A17EE901A284615F068FBD4ED4D7ACB
:104780001FED267AF8EEE77A67EE877AF5EEC07AC3
:10479000F1EE10FAC7F2B087B6EE007A77EE877ABC
:1047A000FDEEE77A17EE901A284615F04FFBD4ED90
:1047B0004D7A1FED317AF8EEE77A67EE877AF5EEFB
:1047C000C07AF1EE10FAC7F2AC87B6EE007A77EE57
:1047D000877AFDEEE77A17EE901A284615F036FB39
:1047E000D4ED4D7A1FED3D7AF8EEE77A67EE877AE1
:1047F000F5EEC07AF1EE10FAC7F2A887B6EE007AAD
:1048000077EE877AFDEEE77A17EE901A284615F0D4
:104810001DFBD4ED4D7A1FED487AF8EEE77A67EE8E
:10482000877AF5EEC07AF1EE10FAC7F2A487B6EEF9
:10483000007A77EE877AFDEEE77A17EE901A28462F
:1048400015F004FBD4ED4D7A1FED547AF8EEE77ABB
:1048500067EE877AF5EEC07AF1EE10FAC7F2A0871C
:10486000B6EE007A77EE877AFDEEE77A17EE901AC9
:10487000284615F0EBFAD4ED4D7A1FED5F7AF8EE8D
:10488000E77A67EE877AF5EEC07AF1EE10FAC7F2B2
:104890009C87B6EE007A77EE877AFDEEE77A17EE20
:1048A000901A284615F0D2FAD4ED4D7A1FED6B7AA6
:1048B000F8EEE77A67EE877AF5EEC07AF1EE10FA55
:1048C000C7F29887B6EE007A77EE877AFDEEE77A40
:1048D00017EE901A284615F0B9FAD4ED4D7A1FED6F
:1048E000767AF8EEE77A67EE877AF5EEC07AF1EE3F
:1048F00010FAC7F29487B6EE007A77EE877AFDEE6B
:10490000E77A17EE901A284615F0A0FAD4ED4D7A02
:104910001FED827AF8EEE77A67EE877AF5EEC07AD5
:10492000F1EE10FAC7F29087B6EE007A77EE877A4A
:10493000FDEEE77A17EE901A284615F087FAD4EDC7
:104940004D7A1FED8D7AF8EEE77A67EE877AF5EE0D
:10495000C07AF1EE10FAC7F28C87B6EE007A77EEE5
:10496000877AFDEEE77A17EE901A284615F06EFA70
:10497000D4ED4D7A1FED997AF8EEE77A67EE877AF3
:10498000F5EEC07AF1EE10FAC7F28887B6EE007A3B
:1049900077EE877AFDEEE77A17EE901A284615F043
:1049A00055FAD4ED4D7A1FEDA47AF8EEE77A67EE6A
:1049B000877AF5EEC07AF1EE10FAC7F28487B6EE88
:1049C000007A77EE877AFDEEE77A17EE901A28469E
:1049D00015F03CFAD4ED4D7A1FEDB07AF8EEE77A97
:1049E00067EE877AF5EEC07AF1EE10FAC7F28087AB
:1049F000B6EE007A77EE877AFDEEE77A17EE901A38
:104A0000284615F023FAD4ED4D7A1FEDBB7AF8EE67
:104A1000E77A67EE877AF5EEC07AF1EE10FAC7F220
:104A20007C87B6EE007A77EE877AFDEEE77A17EEAE
:104A3000901A284615F00AFAD4ED4D7A1FEDC77A80
:104A4000F8EEE77A67EE877AF5EEC07AF1EE10FAC3
:104A5000C7F27887B6EE007A77EE877AFDEEE77ACE
:104A600017EE901A284615F0F1F9D4ED4D7A1FEDA6
:104A7000D27AF8EEE77A67EE877AF5EEC07AF1EE51
:104A800010FAC7F27487B6EE007A77EE877AFDEEF9
:104A9000E77A17EE901A284615F0D8F9D4ED4D7A3A
:104AA0001FEDDE7AF8EEE77A67EE877AF5EEC07AE8
:104AB000F1EE10FAC7F27087B6EE007A77EE877AD9
:104AC000FDEEE77A17EE901A284615F0BFF9D4EDFF
:104AD0004D7A1FEDE97AF8EEE77A67EE877AF5EE20
:104AE000C07AF1EE10FAC7F26C87B6EE007A77EE74
:104AF000877AFDEEE77A17EE901A284615F0A6F9A8
:104B0000D4ED4D7A9FEDF37AF8EEE77A67EE877A87
:104B1000F5EEC07AF1EE10FAC7F26887B6EE007AC9
:104B200077EE877AFDEEE77A17EE901A284615F0B1
:104B30008DF9D4ED4D7A9FEDE87AF8EEE77A67EEDD
:104B4000877AF5EEC07AF1EE10FAC7F26487B6EE16
:104B5000007A77EE877AFDEEE77A17EE901A28460C
:104B600015F074F9D4ED4D7A9FEDDC7AF8EEE77A22
:104B700067EE877AF5EEC07AF1EE10FAC7F2608739
:104B8000B6EE007A77EE877AFDEEE77A17EE901AA6
:104B9000284615F05BF9D4ED4D7A9FEDD17AF8EE09
:104BA000E77A67EE877AF5EEC07AF1EE10FAC7F28F
:104BB0005C87B6EE007A77EE877AFDEEE77A17EE3D
:104BC000901A284615F042F9D4ED4D7A9FEDC57A3A
:104BD000F8EEE77A67EE877AF5EEC07AF1EE10FA32
:104BE000C7F25887B6EE007A77EE877AFDEEE77A5D
:104BF00017EE901A284615F029F9D4ED4D7A9FED5D
:104C0000BA7AF8EEE77A67EE877AF5EEC07AF1EED7
:104C100010FAC7F25487B6EE007A77EE877AFDEE87
:104C2000E77A17EE901A284615F010F9D4ED4D7A70
:104C30009FEDAE7AF8EEE77A67EE877AF5EEC07A06
:104C4000F1EE10FAC7F25087B6EE007A77EE877A67
:104C5000FDEEE77A17EE901A284615F0F7F8D4ED36
:104C60004D7A9FEDA37AF8EEE77A67EE877AF5EE54
:104C7000C07AF1EE10FAC7F24C87B6EE007A77EE02
:104C8000877AFDEEE77A17EE901A284615F0DEF8DF
:104C9000D4ED4D7A9FED977AF8EEE77A67EE877A52
:104CA000F5EEC07AF1EE10FAC7F24887B6EE007A58
:104CB00077EE877AFDEEE77A17EE901A284615F020
:104CC000C5F8D4ED4D7A9FED8C7AF8EEE77A67EE71
:104CD000877AF5EEC07AF1EE10FAC7F24487B6EEA5
:104CE000007A77EE877AFDEEE77A17EE901A28467B
:104CF00015F0ACF8D4ED4D7A9FED807AF8EEE77AB6
:104D000067EE877AF5EEC07AF1EE10FAC7F24087C7
:104D1000B6EE007A77EE877AFDEEE77A17EE901A14
:104D2000284615F093F8D4ED4D7A9FED757AF8EE9C
:104D3000E77A67EE877AF5EEC07AF1EE10FAC7F2FD
:104D40003C87B6EE007A77EE877AFDEEE77A17EECB
:104D5000901A284615F07AF8D4ED4D7A9FED697ACD
:104D6000F8EEE77A67EE877AF5EEC07AF1EE10FAA0
:104D7000C7F23887B6EE007A77EE877AFDEEE77AEB
:104D800017EE901A284615F061F8D4ED4D7A9FED94
:104D90005E7AF8EEE77A67EE877AF5EEC07AF1EEA2
:104DA00010FAC7F23487B6EE007A77EE877AFDEE16
:104DB000E77A17EE901A284615F048F8D4ED4D7AA8
:104DC0009FED527AF8EEE77A67EE877AF5EEC07AD1
:104DD000F1EE10FAC7F23087B6EE007A77EE877AF6
:104DE000FDEEE77A17EE901A284615F02FF8D4ED6D
:104DF0004D7A9FED477AF8EEE77A67EE877AF5EE1F
:104E0000C07AF1EE10FAC7F22C87B6EE007A77EE90
:104E1000877AFDEEE77A17EE901A284615F016F815
:104E2000D4ED4D7A9FED3B7AF8EEE77A67EE877A1C
:104E3000F5EEC07AF1EE10FAC7F22887B6EE007AE6
:104E400077EE877AFDEEE77A17EE901A284614F08F
:104E5000FDFFD4ED4D7A9FED307AF8EEE77A67EEFC
:104E6000877AF5EEC07AF1EE10FAC7F22487B6EE33
:104E7000007A77EE877AFDEEE77A17EE901A2846E9
:104E800014F0E4FFD4ED4D7A9FED247AF8EEE77A42
:104E900067EE877AF5EEC07AF1EE10FAC7F2208756
:104EA000B6EE007A77EE877AFDEEE77A17EE901A83
:104EB000284614F0CBFFD4ED4D7A9FED197AF8EE29
:104EC000E77A67EE877AF5EEC07AF1EE10FAC7F26C
:104ED0001C874DE09D85A13F58E7A03FB35EA03FF2
:104EE000FFEC9F3FE2929F3F5D509F3FC4259F3F55
:104EF0006A139F3FFC189F3F26369F3F946A9F3F4F
:104F00004AB59F3FA015A03F488AA03FF111A13F9D
:104F10009FABA13FB055A23F800EA33F17D4A33F44
:104F20007FA4A43F137EA53FDD5EA63FE943A73FD4
:104F3000E92BA83F3C14A93F98FAA93FB1DCAA3F4E
:104F400091B8AB3F3F8CAC3FCA54AD3F8C10AE3FE5
:104F5000E4BDAE3F325AAF3FD2E3AF3F7559B03FE9
:104F600024B9B03F8E01B13F6631B13FAE47B13F8A
:104F7000B6EE007A77EE877AFDEEE77A17EE901AB2
:104F8000284614F063FFD4ED4D7A1FED1A7AF8EE3F
:104F9000E77A67EE877AF5EEC07AF1EE10FAC7F29B
:104FA000C986B6EE007A77EE877AFDEEE77A17EEDD
:104FB000901A284614F04AFFD4ED4D7A1FED267A58
:104FC000F8EEE77A67EE877AF5EEC07AF1EE10FA3E
:104FD000C7F2C586B6EE007A77EE877AFDEEE77AFD
:104FE00017EE901A284614F031FFD4ED4D7A1FEDDC
:104FF000317AF8EEE77A67EE877AF5EEC07AF1EE6D
:1050000010FAC7F2C186B6EE007A77EE877AFDEE27
:10501000E77A17EE901A284614F018FFD4ED4D7A6F
:105020001FED3D7AF8EEE77A67EE877AF5EEC07A03
:10503000F1EE10FAC7F2BD86B6EE007A77EE877A07
:10504000FDEEE77A17EE901A284614F0FFFED4ED35
:105050004D7A1FED487AF8EEE77A67EE877AF5EE3B
:10506000C07AF1EE10FAC7F2B986B6EE007A77EEA2
:10507000877AFDEEE77A17EE901A284614F0E6FEDE
:10508000D4ED4D7A1FED547AF8EEE77A67EE877A21
:10509000F5EEC07AF1EE10FAC7F2B586B6EE007AF8
:1050A00077EE877AFDEEE77A17EE901A284614F02D
:1050B000CDFED4ED4D7A1FED5F7AF8EEE77A67EE1C
:1050C000877AF5EEC07AF1EE10FAC7F2B186B6EE45
:1050D000007A77EE877AFDEEE77A17EE901A284687
:1050E00014F0B4FED4ED4D7A1FED6B7AF8EEE77A4A
:1050F00067EE877AF5EEC07AF1EE10FAC7F2AD8668
:10510000B6EE007A77EE877AFDEEE77A17EE901A20
:10511000284614F09BFED4ED4D7A1FED767AF8EE1A
:10512000E77A67EE877AF5EEC07AF1EE10FAC7F209
:10513000A986B6EE007A77EE877AFDEEE77A17EE6B
:10514000901A284614F082FED4ED4D7A1FED827A33
:10515000F8EEE77A67EE877AF5EEC07AF1EE10FAAC
:10516000C7F2A586B6EE007A77EE877AFDEEE77A8B
:1051700017EE901A284614F069FED4ED4D7A1FED13
:105180008D7AF8EEE77A67EE877AF5EEC07AF1EE7F
:1051900010FAC7F2A186B6EE007A77EE877AFDEEB6
:1051A000E77A17EE901A284614F050FED4ED4D7AA7
:1051B0001FED997AF8EEE77A67EE877AF5EEC07A16
:1051C000F1EE10FAC7F29D86B6EE007A77EE877A96
:1051D000FDEEE77A17EE901A284614F037FED4ED6C
:1051E0004D7A1FEDA47AF8EEE77A67EE877AF5EE4E
:1051F000C07AF1EE10FAC7F29986B6EE007A77EE31
:10520000877AFDEEE77A17EE901A284614F01EFE14
:10521000D4ED4D7A1FEDB07AF8EEE77A67EE877A33
:10522000F5EEC07AF1EE10FAC7F29586B6EE007A86
:1052300077EE877AFDEEE77A17EE901A284614F09B
:1052400005FED4ED4D7A1FEDBB7AF8EEE77A67EEF6
:10525000877AF5EEC07AF1EE10FAC7F29186B6EED3
:10526000007A77EE877AFDEEE77A17EE901A2846F5
:1052700014F0ECFDD4ED4D7A1FEDC77AF8EEE77A25
:1052800067EE877AF5EEC07AF1EE10FAC7F28D86F6
:10529000B6EE007A77EE877AFDEEE77A17EE901A8F
:1052A000284614F0D3FDD4ED4D7A1FEDD27AF8EEF6
:1052B000E77A67EE877AF5EEC07AF1EE10FAC7F278
:1052C0008986B6EE007A77EE877AFDEEE77A17EEFA
:1052D000901A284614F0BAFDD4ED4D7A1FEDDE7A0F
:1052E000F8EEE77A67EE877AF5EEC07AF1EE10FA1B
:1052F000C7F28586B6EE007A77EE877AFDEEE77A1A
:1053000017EE901A284614F0A1FDD4ED4D7A1FED4A
:10531000E97AF8EEE77A67EE877AF5EEC07AF1EE91
:1053200010FAC7F28186B6EE007A77EE877AFDEE44
:10533000E77A17EE901A284614F088FDD4ED4D7ADE
:105340009FEDF37AF8EEE77A67EE877AF5EEC07AAA
:10535000F1EE10FAC7F27D86B6EE007A77EE877A24
:10536000FDEEE77A17EE901A284614F06FFDD4EDA3
:105370004D7A9FEDE87AF8EEE77A67EE877AF5EEF8
:10538000C07AF1EE10FAC7F27986B6EE007A77EEBF
:10539000877AFDEEE77A17EE901A284614F056FD4C
:1053A000D4ED4D7A9FEDDC7AF8EEE77A67EE877AF6
:1053B000F5EEC07AF1EE10FAC7F27586B6EE007A15
:1053C00077EE877AFDEEE77A17EE901A284614F00A
:1053D0003DFDD4ED4D7A9FEDD17AF8EEE77A67EE98
:1053E000877AF5EEC07AF1EE10FAC7F27186B6EE62
:1053F000007A77EE877AFDEEE77A17EE901A284664
:1054000014F024FDD4ED4D7A9FEDC57AF8EEE77ADD
:1054100067EE877AF5EEC07AF1EE10FAC7F26D8684
:10542000B6EE007A77EE877AFDEEE77A17EE901AFD
:10543000284614F00BFDD4ED4D7A9FEDBA7AF8EEC4
:10544000E77A67EE877AF5EEC07AF1EE10FAC7F2E6
:105450006986B6EE007A77EE877AFDEEE77A17EE88
:10546000901A284614F0F2FCD4ED4D7A9FEDAE7AF6
:10547000F8EEE77A67EE877AF5EEC07AF1EE10FA89
:10548000C7F26586B6EE007A77EE877AFDEEE77AA8
:1054900017EE901A284614F0D9FCD4ED4D7A9FED02
:1054A000A37AF8EEE77A67EE877AF5EEC07AF1EE46
:1054B00010FAC7F26186B6EE007A77EE877AFDEED3
:1054C000E77A17EE901A284614F0C0FCD4ED4D7A16
:1054D0009FED977AF8EEE77A67EE877AF5EEC07A75
:1054E000F1EE10FAC7F25D86B6EE007A77EE877AB3
:1054F000FDEEE77A17EE901A284614F0A7FCD4EDDB
:105500004D7A9FED8C7AF8EEE77A67EE877AF5EEC2
:10551000C07AF1EE10FAC7F25986B6EE007A77EE4D
:10552000877AFDEEE77A17EE901A284614F08EFC83
:10553000D4ED4D7A9FED807AF8EEE77A67EE877AC0
:10554000F5EEC07AF1EE10FAC7F25586B6EE007AA3
:1055500077EE877AFDEEE77A17EE901A284614F078
:1055600075FCD4ED4D7A9FED757AF8EEE77A67EE2B
:10557000877AF5EEC07AF1EE10FAC7F25186B6EEF0
:10558000007A77EE877AFDEEE77A17EE901A2846D2
:1055900014F05CFCD4ED4D7A9FED697AF8EEE77A71
:1055A00067EE877AF5EEC07AF1EE10FAC7F24D8613
:1055B000B6EE007A77EE877AFDEEE77A17EE901A6C
:1055C000284614F043FCD4ED4D7A9FED5E7AF8EE58
:1055D000E77A67EE877AF5EEC07AF1EE10FAC7F255
:1055E0004986B6EE007A77EE877AFDEEE77A17EE17
:1055F000901A284614F02AFCD4ED4D7A9FED527A89
:10560000F8EEE77A67EE877AF5EEC07AF1EE10FAF7
:10561000C7F24586B6EE007A77EE877AFDEEE77A36
:1056200017EE901A284614F011FCD4ED4D7A9FED38
:10563000477AF8EEE77A67EE877AF5EEC07AF1EE10
:1056400010FAC7F24186B6EE007A77EE877AFDEE61
:10565000E77A17EE901A284614F0F8FBD4ED4D7A4D
:105660009FED3B7AF8EEE77A67EE877AF5EEC07A3F
:10567000F1EE10FAC7F23D86B6EE007A77EE877A41
:10568000FDEEE77A17EE901A284614F0DFFBD4ED12
:105690004D7A9FED307AF8EEE77A67EE877AF5EE8D
:1056A000C07AF1EE10FAC7F23986B6EE007A77EEDC
:1056B000877AFDEEE77A17EE901A284614F0C6FBBB
:1056C000D4ED4D7A9FED247AF8EEE77A67EE877A8B
:1056D000F5EEC07AF1EE10FAC7F23586B6EE007A32
:1056E00077EE877AFDEEE77A17EE901A284614F0E7
:1056F000ADFBD4ED4D7A9FED197AF8EEE77A67EEBF
:10570000877AF5EEC07AF1EE10FAC7F231864DE0F5
:105710006C43B13FA323B13F53E8B03F8290B03F09
:105720002E1CB03F598BAF3F55DEAE3F7715AE3FD5
:105730006631AD3FCA32AC3FF41AAB3F89EAA93FAC
:105740002FA3A83F8846A73FE5D5A53F3B53A43FDD
:1057500083C0A23F0820A13F6D739F3FFDBC9D3FCA
:10576000ACFF9B3F1D3D9A3F4278983F68B3963F00
:105770002CF1943FDB33933F137E913F74D28F3FE4
:10578000F4328E3FE0A18C3FD5218B3FCCB4893FD2
:10579000BC5C883F481B873F0EF3853FB8E4843FDD
:1057A0003DF2833FEB1C833F6B65823FB6EE007A90
:1057B00077EE877AFDEEE77A17EE901A284614F016
:1057C00045FBD4ED4D7A1FED1A7AF8EEE77A67EED5
:1057D000877AF5EEC07AF1EE10FAC7F2DE85B6EE02
:1057E000007A77EE877AFDEEE77A17EE901A284670
:1057F00014F02CFBD4ED4D7A1FED267AF8EEE77A03
:1058000067EE877AF5EEC07AF1EE10FAC7F2DA8524
:10581000B6EE007A77EE877AFDEEE77A17EE901A09
:10582000284614F013FBD4ED4D7A1FED317AF8EED3
:10583000E77A67EE877AF5EEC07AF1EE10FAC7F2F2
:10584000D685B6EE007A77EE877AFDEEE77A17EE28
:10585000901A284614F0FAFAD4ED4D7A1FED3D7AED
:10586000F8EEE77A67EE877AF5EEC07AF1EE10FA95
:10587000C7F2D285B6EE007A77EE877AFDEEE77A48
:1058800017EE901A284614F0E1FAD4ED4D7A1FED88
:10589000487AF8EEE77A67EE877AF5EEC07AF1EEAD
:1058A00010FAC7F2CE85B6EE007A77EE877AFDEE73
:1058B000E77A17EE901A284614F0C8FAD4ED4D7A1C
:1058C0001FED547AF8EEE77A67EE877AF5EEC07A44
:1058D000F1EE10FAC7F2CA85B6EE007A77EE877A53
:1058E000FDEEE77A17EE901A284614F0AFFAD4EDE1
:1058F0004D7A1FED5F7AF8EEE77A67EE877AF5EE7C
:10590000C07AF1EE10FAC7F2C685B6EE007A77EEED
:10591000877AFDEEE77A17EE901A284614F096FA89
:10592000D4ED4D7A1FED6B7AF8EEE77A67EE877A61
:10593000F5EEC07AF1EE10FAC7F2C285B6EE007A43
:1059400077EE877AFDEEE77A17EE901A284614F084
:105950007DFAD4ED4D7A1FED767AF8EEE77A67EEB0
:10596000877AF5EEC07AF1EE10FAC7F2BE85B6EE90
:10597000007A77EE877AFDEEE77A17EE901A2846DE
:1059800014F064FAD4ED4D7A1FED827AF8EEE77ADE
:1059900067EE877AF5EEC07AF1EE10FAC7F2BA85B3
:1059A000B6EE007A77EE877AFDEEE77A17EE901A78
:1059B000284614F04BFAD4ED4D7A1FED8D7AF8EEAF
:1059C000E77A67EE877AF5EEC07AF1EE10FAC7F261
:1059D000B685B6EE007A77EE877AFDEEE77A17EEB7
:1059E000901A284614F032FAD4ED4D7A1FED997AC8
:1059F000F8EEE77A67EE877AF5EEC07AF1EE10FA04
:105A0000C7F2B285B6EE007A77EE877AFDEEE77AD6
:105A100017EE901A284614F019FAD4ED4D7A1FEDBE
:105A2000A47AF8EEE77A67EE877AF5EEC07AF1EEBF
:105A300010FAC7F2AE85B6EE007A77EE877AFDEE01
:105A4000E77A17EE901A284614F000FAD4ED4D7A52
:105A50001FEDB07AF8EEE77A67EE877AF5EEC07A56
:105A6000F1EE10FAC7F2AA85B6EE007A77EE877AE1
:105A7000FDEEE77A17EE901A284614F0E7F9D4ED18
:105A80004D7A1FEDBB7AF8EEE77A67EE877AF5EE8E
:105A9000C07AF1EE10FAC7F2A685B6EE007A77EE7C
:105AA000877AFDEEE77A17EE901A284614F0CEF9C1
:105AB000D4ED4D7A1FEDC77AF8EEE77A67EE877A74
:105AC000F5EEC07AF1EE10FAC7F2A285B6EE007AD2
:105AD00077EE877AFDEEE77A17EE901A284614F0F3
