:020000040800F2
:100000000000032095050008C9210008CB21000845
:10001000CD210008CF210008D121000800000000F8
:10002000000000000000000000000000418D0008FA
:10003000D321000800000000D18D0008358E000893
:10004000E5050008E5050008E5050008E5050008E8
:10005000E5050008E5050008E5050008E5050008D8
:10006000E5050008E5050008E5050008E5050008C8
:10007000E5050008E5050008E5050008E5050008B8
:10008000E5050008E5050008E5050008E5050008A8
:10009000E5050008E5050008E5050008E505000898
:1000A000E5050008E5050008E5050008E505000888
:1000B000E5050008E5050008E5050008E505000878
:1000C000E5050008E5050008E5050008E505000868
:1000D000E5050008E5050008E5050008E505000858
:1000E000E5050008E5050008E5050008E505000848
:1000F000D5210008E5050008E5050008E50500082C
:10010000E5050008E5050008E5050008E505000827
:10011000E5050008E5050008E5050008E1210008FF
:10012000E5050008E5050008E5050008E505000807
:10013000E5050008E5050008E5050008E5050008F7
:10014000E5050008E5050008E5050008E5050008E7
:10015000E5050008E5050008E5050008E5050008D7
:10016000E5050008E5050008E5050008E5050008C7
:10017000E5050008E5050008E505000800000000A9
:10018000E5050008E5050008E5050008E5050008A7
:10019000E5050008E5050008E5050008E505000897
:0C01A000ED210008E5050008F921000829
:1001B00010B5054C237833B9044B13B10448AFF3A1
:1001C00000800123237010BD6C010020000000009E
:1001D000481B020808B5034B1BB103490348AFF3A2
:1001E000008008BD0000000070010020481B0208CC
:1001F00001F0FF01102A2BDB10F0070F08D010F8D8
:10020000013B013A8B422DD010F0070F42B3F6D1DB
:10021000F0B441EA012141EA014122F007047FF0F4
:1002200000070023F0E80256083C85EA010586EA4B
:10023000010685FA47F5A3FA87F586FA47F6A5FA87
:1002400087F68EB9EED1F0BC01F0FF0102F0070293
:1002500032B110F8013B013A83EA010313B1F8D13E
:100260000020704701387047002D06BF354603381F
:10027000073815F0010F07D1013015F4807F02BF58
:10028000013015F4C03F0130F0BC0138704700BFA9
:1002900053B94AB9002908BF00281CBF4FF0FF31ED
:1002A0004FF0FF3000F074B9ADF1080C6DE904CEE9
:1002B00000F006F8DDF804E0DDE9022304B0704741
:1002C0002DE9F047089D04468E46002B4DD18A4209
:1002D000944669D9B2FA82F252B101FA02F3C2F13C
:1002E000200120FA01F10CFA02FC41EA030E9440CD
:1002F0004FEA1C48210CBEFBF8F61FFA8CF708FBEE
:1003000016E341EA034306FB07F199420AD91CEBC5
:10031000030306F1FF3080F01F81994240F21C81F7
:10032000023E63445B1AA4B2B3FBF8F008FB10333F
:1003300044EA034400FB07F7A7420AD91CEB040474
:1003400000F1FF3380F00A81A74240F20781644444
:10035000023840EA0640E41B00261DB1D4400023C9
:10036000C5E900433146BDE8F0878B4209D9002D2D
:1003700000F0EF800026C5E9000130463146BDE8B7
:10038000F087B3FA83F6002E4AD18B4202D3824221
:1003900000F2F980841A61EB030301209E46002DD0
:1003A000E0D0C5E9004EDDE702B9FFDEB2FA82F225
:1003B000002A40F09280A1EB0C014FEA1C471FFA83
:1003C0008CFE0126200CB1FBF7F307FB131140EA6A
:1003D00001410EFB03F0884208D91CEB010103F137
:1003E000FF3802D2884200F2CB804346091AA4B2F9
:1003F000B1FBF7F007FB101144EA01440EFB00FECD
:10040000A64508D91CEB040400F1FF3102D2A64531
:1004100000F2BB800846A4EB0E0440EA03409CE7D0
:10042000C6F12007B34022FA07FC4CEA030C20FA7D
:1004300007F401FA06F31C43F9404FEA1C4900FA9D
:1004400006F3B1FBF9F8200C1FFA8CFE09FB18111A
:1004500040EA014108FB0EF0884202FA06F20BD98D
:100460001CEB010108F1FF3A80F08880884240F2DD
:100470008580A8F102086144091AA4B2B1FBF9F021
:1004800009FB101144EA014100FB0EFE8E4508D91C
:100490001CEB010100F1FF346CD28E456AD90238A1
:1004A000614440EA0840A0FB0294A1EB0E01A14286
:1004B000C846A64656D353D05DB1B3EB080261EBF4
:1004C0000E0101FA07F722FA06F3F1401F43C5E9CE
:1004D000007100263146BDE8F087C2F12003D84004
:1004E0000CFA02FC21FA03F3914001434FEA1C4746
:1004F0001FFA8CFEB3FBF7F007FB10360B0C43EA38
:10050000064300FB0EF69E4204FA02F408D91CEBE7
:10051000030300F1FF382FD29E422DD902386344E5
:100520009B1B89B2B3FBF7F607FB163341EA034185
:1005300006FB0EF38B4208D91CEB010106F1FF38D4
:1005400016D28B4214D9023E6144C91A46EA0046CB
:1005500038E72E46284605E70646E3E61846F8E65D
:100560004B45A9D2B9EB020864EB0C0E0138A3E7A6
:100570004646EAE7204694E74046D1E7D0467BE787
:10058000023B614432E7304609E76444023842E7FF
:10059000704700BFDFF834D0002103E00C4B5B58FC
:1005A000435004310B480C4B42189A42F6D30B4A85
:1005B00002E0002342F8043B094B9A42F9D305F0CC
:1005C000DDFB20F0E5FA00F08FFF7047000003200C
:1005D000E8330C08000000206C0100206C010020B2
:1005E000B0580120FEE700F039BC00F0ABBC70470A
:1005F00010B50421044620F0D7F8204610BD0000B5
:1006000038B50C4B0C4C18800C4B82201980636859
:10061000984740F6110398420AD1094D23682C608F
:10062000822098472B688220DB689847002038BDDD
:100630000120FCE788010020540000208A010020EE
:100640008C0100204FF4A071F020FFF7D9BF00000B
:10065000F7B52D4D2B6804461B698220984780B260
:100660002080002843D02B680DF106025B6901A9A8
:1006700082209847BDF80620A2F5B47292B20A2AE9
:1006800037D90B23B2FBF3F2204B1B889A4201D9D6
:10069000013B9AB2BDF8043040F6B8318B422AD8FB
:1006A000C3F571630E339BB20F21B3FBF1F318490D
:1006B00009888B4201D94B1E9BB2164E164D3068ED
:1006C0002F68834281B28CBF591AC91AB8B2BA4294
:1006D0008CBF101A801A89B280B201440529C8BFA4
:1006E00033603368C8BF2A6063802B68A38003B07F
:1006F000F0BD0022CEE7C3F56D6308339BB20E2B2D
:10070000D2D80023D9E700BF8C0100208A01002045
:1007100088010020900100209401002037B5684630
:100720000D461446FFF794FFBDF8000030B1BDF848
:1007300002302B60BDF804302360012003B030BDCF
:10074000704770477047012380F8741080F8753047
:100750007047002070470000034B4164003918BF08
:1007600001211970704700BF035601200020704717
:10077000836B0BB10846184770474FF6FF70704700
:10078000406803689B69184770477047704700F0DE
:1007900079BC08B503680446D3F8803098472368CD
:1007A00020469B6F984700F0EBF8236820461B6FAC
:1007B0009847292001F08EF900F0E2F823682046DE
:1007C0001B6F9847F8E710B504460BF0DBF9236878
:1007D0002046D3F8AC30BDE81040184700F044BCC8
:1007E00000F048BC00F074BC00F01ABC00F074BC0F
:1007F00000F07CBC00F01EBC0AF038BC10B57C21B7
:1008000004461FF0D1FF204610BD90F877301BB191
:10081000406803681B6818471846704710B590F881
:10082000341090F874400C4B8C421A7809D03AB9C5
:100830000A4A0B491488088810800C8001221A701B
:1008400010BD002AFCD0054A05491488088810808C
:100850000C800022F3E700BFFC550120F855012071
:10086000FA55012070B50D46194635B9094B0A4AAB
:100870000A4840F2D22120F04BF8C0E90F52084B51
:10088000003A18BF01221A700368BDE87040D3F81F
:100890008C301847B81B0208F01B02083E1C0208E7
:1008A0000256012008B5094B1B888B4203D8084B20
:1008B0001B88934205D9074B074A08489E2120F020
:1008C00027F8074B1980074B1A8008BDF8550120FF
:1008D000FA550120831C0208E61C02083E1C02088F
:1008E000FE55012000560120012108B500220846CE
:1008F00007F0F6FE0A4B186028B90A4B0A4A29216C
:100900000A4820F005F800220421012007F0AEFF7C
:10091000074B186018B9074B034A2D21F0E708BDB3
:100920009C010020041E02084D1E02087C1E0208C5
:1009300098010020CA1E0208024B4FF0FF311868D0
:1009400007F024BF9C010020014B186807F058BF36
:100950009C010020024B0021186807F017BF00BF60
:100960009C010020FFF7F0BF034804490068002302
:100970001A4607F0C1BF00BF980100200400002004
:1009800013B5084C00231A4601A9206807F0F6FFAA
:1009900020684FF0FF33002201A907F0EFFF02B0FB
:1009A00010BD00BF9801002003685B6C1847012050
:1009B000704703689B6A184782B0002301930D4B70
:1009C0001A6B42F400021A631A6B02F400020192DD
:1009D000019A1A6942F400021A611A6922F40002AB
:1009E0001A61054B054A1A61054B4FF080629A6007
:1009F00002B0704700380240543A0020450A00080F
:100A000000E100E040F2EF3070470000054B03606A
:100A1000054B4FF08062C3F88820BFF34F8FBFF3C0
:100A20006F8F70476820020800E100E010B50446AF
:100A30004FF45A61FFF7EAFF20461FF0B5FE20464B
:100A400010BD0000024B1B68586803685B691847BB
:100A50000456012070B5044625460A4B0C3000268A
:100A600060602672667245F8203B602229460BF0D2
:100A7000DFF904F55A63EE602435AB42FBD1204622
:100A800070BD00BF6820020808B50B290BD8DFE84D
:100A900001F01206100A0A0A0A08080808080120CC
:100AA00008BD0520FCE7054B054A064867211FF0F5
:100AB0002FFF0020F4E70220F2E700BF0C1F02081E
:100AC000271F0208711F020808B50A2909D8DFE8A4
:100AD00001F010060E0808080806060606000120A8
:100AE00008BD054B054A064888211FF011FF00206C
:100AF000F6E70220F4E700BF0C1F0208BD1F020842
:100B0000711F02082DE9F8434F7F0C463946814694
:100B1000FFF7BAFF94F81E80054641464846FFF7A6
:100B2000B3FF414606464846FFF7CEFFA18A628BD7
:100B3000424B521A1A649A61228B521A1A61E28A43
:100B4000586342EA01425A6420696268D863DA60F5
:100B5000216894F81CC080294FEA0C6226D010D876
:100B6000202945EA020461D040295FD004295DD0E4
:100B7000324B2A4342F400324745DA615AD0304AB8
:100B800040E0B1F5807F07D0B1F5007FF0D142F4AD
:100B9000003242F0090203E042F4003242F00A025D
:100BA000DA61E2681A625E6258612AE0A4682A4348
:100BB00042F40032211DD962DA6122785E62586106
:100BC00042B1012A21D01F4B1F4A20484FF489719E
:100BD0001FF09EFEDA69618822F47F42013922F01B
:100BE000100242EA0122DA610120144BDA6942F074
:100BF0002002DA61DA699206FCD410229A60002899
:100C0000BDD0134A1A60BDE8F8836288D969541EC2
:100C100021F47F4222F0100242EA0422BCF1FF00DC
:100C200042F0100218BF0120DA61DEE744F400341C
:100C3000DC61B8E740F20122E4E700BF00B0024007
:100C4000010201000820020822200208711F020888
:100C50000102020070B50C46897FFFF735FFA68AB6
:100C6000E18A628B154B2569586341EA0641921B64
:100C70005964DD631A642668E168082E0DD19A6113
:100C80001A615862207F0E4A42EA0062DA610D4A18
:100C900019625D61DD601A6070BD0022D8611A6161
:100CA00048090A0A02F4784200F4FC600243C1F3E6
:100CB000C4010A439A63044AEDE700BF00B0024052
:100CC000090001000102020001020300034B1A683F
:100CD000D207FCD423229A60704700BF00B00240C4
:100CE00030B50F4C2568ED07FCD423250904A56019
:100CF00041F001010225FF2B65636164E0630AD0C6
:100D00000849656241EA0363E361074B226260615F
:100D1000E060236030BDE561039BA363034BF8E70C
:100D200000B00240090001000100020001000300C0
:100D30000120704738207047382303FB010008303A
:100D40007047382303FB01000830704701207047CB
:100D500042F23C70704742F23C7303FB01000830E2
:100D6000704742F23C7303FB0100083070470120DA
:100D700070471020704700EB01100830704700EBFF
:100D8000011008307047084601F0C2BD10B5034B92
:100D90000360044609F09FFD204610BD2021020893
:100DA00010B50446FFF7F2FF204640211FF0FCFC7F
:100DB000204610BD10B5034B0360044609F08BFDBF
:100DC000204610BDEC20020810B50446FFF7F2FFE4
:100DD000204642F244711FF0E7FC204610BD00009F
:100DE00010B5034B0360044609F075FD204610BDA5
:100DF000B820020810B50446FFF7F2FF204618217C
:100E00001FF0D2FC204610BD10B5094B036004460C
:100E100000F51D503030FFF7B9FF04F12C00FFF74B
:100E2000C9FF04F11400FFF7DBFF204610BD00BF2F
:100E30005421020808B50248FFF7E6FF08BD00BFCD
:100E4000A401002010B50446FFF7DEFF204642F65D
:100E50000C111FF0A9FC204610BD00002DE9F34144
:100E600001F03EFA054601F03FFA00240146234610
:100E700028462246009413F097FB264B264A274D1E
:100E80001A60204603F0CCFF254813F0F5FA2B78C2
:100E9000BFF35B8FDB0736D428461FF087FC90B387
:100EA000204C214F214B236007F1440604F114002C
:100EB00004F12C086060C4F80880E760266109F03E
:100EC0000BFD1B4B6361404609F006FD194BE362C5
:100ED000384609F001FD04F50053174AC3F870279E
:100EE00003F5F66004F018F8224607F14001304699
:100EF00004F008F8304601F00BFD10481FF026FD05
:100F000028461FF05FFC0E4802B0BDE8F041FFF735
:100F10003EBC00BF68560120D0380020A001002050
:100F200008000020A40100201429002054210208F8
:100F3000B8200208EC20020820210208350E000823
:100F4000543800200148FFF724BC00BF543800206B
:100F500070B5234C234E244B244D23603046FFF7BD
:100F600079FD284616F02AFC214B2248DC60224CF1
:100F700003600022F0204FF480712080C3E9121238
:100F80001E4C1F492080C3E919121E4C1A864FF0CF
:100F900080714FF4A07059670121C3E90422C3E9AD
:100FA0000622C3E90822C3E90A22C3E90E22C3E9E3
:100FB0001022C3E91422C3E916221A6683F86C20B2
:100FC0001A67C3E9016583F8781020800E4C83F816
:100FD000341020800D4802700D4A1A6070BD00BFA9
:100FE000B02A0020B42A0020A81B0208D438002010
:100FF0005438002004560120F8550120FE550120E8
:1010000001000001FA55012000560120FC55012085
:10101000341D02080148FFF7F9BC00BFB42A0020C4
:10102000034B902283F85A2383F85823704700BF5C
:1010300000E100E0094A0A49D3680A48C3F30A03F9
:10104000013B9BB20B801169C1F30A010139018098
:101050001364536B43F0010353637047006801400E
:10106000503900204E390020014BD3F8AC007047B6
:1010700000680140024B0122C3F8AC105A6270476D
:101080000068014070B504460AF045F823685D6EBB
:1010900010F06EF801462046A8472368054AD3F8A9
:1010A00088502046AC460023BDE87040A2F51631BA
:1010B000604700BF005802D00AF014B890F84B30D7
:1010C00013B1024B01221A700AF018B84C390020F3
:1010D00009F0D2BF0AF02BB9034B4FF080629A603F
:1010E0004FF080729A60704700E100E0084B4FF0CB
:1010F0008062C3F88820BFF34F8FBFF36F8F4FF02C
:101100008072C3F88820BFF34F8FBFF36F8F704793
:1011100000E100E010B5144C236823B3134B144ACC
:101120001B6C11888B4213D1124B198806F0C6F83C
:10113000226892F86630013382F86630FFF714FCBB
:1011400020680AF01FFDBDE810400020FFF7F8BA44
:1011500006F0B4F8206803681B6A9847BDE81040A1
:101160000020FFF7EEBA10BD0456012000680140D0
:10117000503900204E39002007B5064BADF8060067
:101180001B68054801220DF1060106F0A8FD03B019
:101190005DF804FB10000020C43B0020104982B021
:1011A000002303F25E2201EB820292ED007ADDED74
:1011B000017A013377EE877A3C2BCDED017AF0D1BD
:1011C000DDED016ADFED077A074B86EEA77A83ED46
:1011D000007A9DED010A80EE270A02B0704700BF39
:1011E0005C3C002000007042E04600202DE9F843FE
:1011F000804C814DD4F86C3A002B00F0C78000235E
:101200002846C4F86C3ADFF820827C4F7C4E04F00C
:10121000A9FE284604F01AFFD8F800301844C8F890
:101220000000784804F09EFE764804F00FFF3B680B
:1012300018443860744804F095FE734804F006FFC3
:10124000336818443060714803684FF00A0C01336A
:10125000036093FBFCF20CFB1233002B40F09680F2
:101260003368B3FBFCF307EE903A694BDFED696A34
:10127000F8EEE77AC3ED007A93ED007AC6EE877A4E
:10128000DFED656AC3ED007AD8F80010B1FBFCF21F
:1012900007EE102AD3ED007AB8EEC77A27EE277A48
:1012A00027EE267A84ED007A3A68B2FBFCF207EE6C
:1012B000902A93ED007AF8EEE77A67EE877A67EE88
:1012C000A67A43ED037A53ED037A94ED007A77EE34
:1012D000C77A9FED527A67EE877A43ED037A53ED32
:1012E000037AF5EEC07AF1EE10FA9CBF002243F8C3
:1012F0000C2C2369002B43D0D4F8783A002B07DC60
:101300002368A361464B22681A600123C4F8743A2B
:1013100094ED007AD4ED017ADFF81091B4EEE77A1B
:10132000F1EE10FAC4BF23686360D4F8783A013351
:10133000C4F8783A0123C4F8703AD9F8003021682B
:101340005A1C03F25E2304EB83033B2AC9F80020F6
:10135000196015DDFFF722FFD4F8803A53B9D4F8AD
:10136000783A3C2293FBF2F32D4A063304EB8303D5
:1013700012681A600023C9F800300123C4F8743AD7
:101380000023C8F8003003603B6033602369012B01
:1013900019D16369BBB9A368B3F5C87F21D0A3682D
:1013A000B3F5967F20D0A368C82B20D0A16840F663
:1013B000FF7340F67462642908BF1346194800227F
:1013C000102104F0A6FFD4F8803A33B1154840F656
:1013D0003C730022102104F09CFF012007F066F905
:1013E00008E740F61C43E9E740F6B243E6E740F67B
:1013F000CA53E3E75C3C0020F0390020F4460020AB
:10140000F8460020A839002060390020E846002076
:10141000E446002048E19A450000803900007A4403
:10142000E0460020403A0020F0460020EC46002034
:10143000F0B5A1B0102200210AA81FF0EFFB142282
:10144000002103A81FF0EAFB0021302214A81FF09E
:10145000E5FB0024224B01941A6C42F080521A647E
:101460001B6C03F080530193019B1E4B02941A687E
:1014700042F440421A601B6803F440430293012285
:10148000029B4FF48033CDE9082302254FF48003FB
:10149000CDE90E5308274FF4A873042608A8CDE918
:1014A00010731295139605F027FF0F23CDE903352E
:1014B0004FF4A0514FF48053CDE9061303A8052142
:1014C000059406F0F1F8C023189314A84FF40033E4
:1014D00014971A961D9306F0C1F921B0F0BD00BF14
:1014E00000380240007000402DE980489BB004F0B5
:1014F00053FCFFF79DFF142200210DA800241FF0CC
:101500008DFBC64B00941A6BC548C64E42F02002B4
:101510001A631A6B02F020020092009A01941A6B6F
:1015200042F080021A631A6B02F080020192019A63
:1015300002941A6B42F004021A631A6B02F004025E
:101540000292029A03941A6B42F001021A631A6B18
:1015500002F001020392039A04941A6B42F0020211
:101560001A631A6B02F002020492049A05941A6B31
:1015700042F040021A631A6B02F040020592059A8B
:1015800006941A6B42F010021A631A6B02F01002F2
:101590000692069A07941A6B42F008021A631B6BB4
:1015A00003F00803079322460421079B05F0A8F8DF
:1015B0009D4822464FF4805105F0A2F822469B48F0
:1015C0004FF44051012505F09BF802274FF0040B22
:1015D000934810970DA9CDE90DB50F9404F0A8FF1D
:1015E0004FF4805290480DA9CDE90D25CDE90F4467
:1015F00004F09EFF0DA94FF440528C48CDE90D2513
:10160000CDE90F4704F094FF89488A4A026004F04C
:101610000FFE894B894A3462C6E9003230464FF4E6
:101620008042C6E90424C6E90244C6E9064405F03E
:1016300049FA1021304605F085FC2146304605F078
:10164000A0FC7F487F4984624FF48272C0E9001297
:101650004FF400761822C0E906620A227A4EC2626E
:10166000C0E90244C0E90444C0E9084406F0FAFABB
:10167000764A0D974FF01008C6E900254022C6E9CA
:1016800004824FF4C072C6E906244FF400620323BB
:101690004FF0070AC6E908240DA94FF4005230465E
:1016A000CDE911374FF00809C6E9024BB262CDE926
:1016B0000EAB1397CDF840A006F0FAF94FF6FF7283
:1016C00009A93046CDE90A95089409950C9406F0CD
:1016D0000FFA284604F08CFB4FF6FF7209A930463A
:1016E000CDE90979CDE90B5406F002FA03234FF650
:1016F000FF7209A93046CDE90939CDE90BB406F0EE
:10170000F7F94FF40C720892089B0C934FF6FF7296
:1017100009A93046CDE909B90B9506F0E9F940F27F
:101720006A51304606F0FBF9342221460DEB0200E7
:101730001FF074FA464E474BB486C6E900340923BD
:101740004FF01D0CC6E905350323C6E907C340F277
:101750000D1E40F24313C6E909E340F2171940F2A7
:1017600047133046C6E90B93C6E90244346186F854
:10177000364005F0ABFCFF21F022CDE912144FF406
:10178000806B05214FF4A073CDE914B1CDE90E248F
:101790000DA9CDE9164230462246CDE910372E4E2E
:1017A00018930D94ADF864408DF8664005F059FD2E
:1017B0002A4B33601B68DFF8BC9098473368284E8B
:1017C000DB689847274BC6E90A47C6E90C44304610
:1017D000C6E90034C6E9027404F0ADFD294630467E
:1017E00004F062FE204E214AB46042F2CF03C6E903
:1017F0000023304640F2E733F360CDE90D44B46195
:1018000006F0CAFD0DA93046CDE90D4406F0DEFD17
:10181000174BC9F8003048462EE000BF00380240A0
:1018200000080240943A002000040240000C0240EC
:10183000383A002000300240005C0040A0860100E1
:10184000C43B002000500140903B0020400100A01C
:10185000E83A002000680140583900201C000020B0
:10186000543A002000B002401C3C0020001400400C
:1018700000740040403A0020CDE90D4404F0E8FC3B
:1018800042460DA94846CDE90D4404F021FD21460C
:1018900042460DA81FF0C2F9434A444B94604FF4EE
:1018A000803BC2E9003B1046414B936214611576C0
:1018B00082F82040D462D460D56182F8304055610E
:1018C00004F0AAFA384ACDF83CA00DA91046CDE99B
:1018D0000D75384F04F0BEFB214642460DA81FF09F
:1018E0009DF9354A324BBB623846C7E9002BBC60D4
:1018F0003C613D7687F82040FC62FC60FD6187F822
:1019000030407D6104F088FA0DA93846CDE90D55C7
:101910002A4FCDF83CA004F09DFB214642460DA87D
:101920001FF07CF9264A224BBB623846C7E9002BE0
:10193000BC603C613D7687F82040FC62FC60FD6144
:1019400087F830407D6104F067FA11230DA938460D
:10195000CDE90D35CDF83CA004F07CFBFEF743FE4D
:10196000184B194A1A60304606F0F9FB41464846C2
:1019700004F081FC40F6FF7322464146484604F0DD
:10198000C8FC06F003FE114A1148214606F038FE55
:10199000104B114A18602146104806F031FE104BDA
:1019A000186006F00DFEFEE7A83900200021014076
:1019B0000100000FF03900200022014060390020B2
:1019C00000200140E44600203333534074210208D4
:1019D000EB0500085439002098210208ED11000899
:1019E0005C390020704770477FB5094B8DF8172090
:1019F0001B6802930DF117020123009201930A461E
:101A00000146044805F006F907B05DF804FB00BF85
:101A10000C000020943A00207FB500238DF8173089
:101A2000084B1B6802930A4601230DF11701009130
:101A300001930146044805F07DF99DF8170007B0B1
:101A40005DF804FB0C000020943A00201FB5084C00
:101A500024680092CDE901340A4601230146054875
:101A600005F068F9003818BF012004B010BD00BFB0
:101A70000C000020943A002004F0BAB908B50648DA
:101A80000022042104F03CFEBDE808400248012287
:101A9000042104F035BE00BF0008024038B50B4DEC
:101AA000044601220A484FF4005104F029FE0022A6
:101AB0000421284604F024FE2046FFF75DFB28465B
:101AC0000122BDE83840042104F01ABE000802409B
:101AD000000C024038B50B4D044600220A484FF472
:101AE000005104F00DFE00220421284604F008FEF7
:101AF0002046FFF741FB28460122BDE8384004217B
:101B000004F0FEBD00080240000C0240F7B5144E80
:101B1000144F05460C4630460022042104F0F0FD27
:101B200000224FF40051384604F0EAFD2846FFF742
:101B300023FB0D4B0D481B68224601A906F06DFAE8
:101B4000384601224FF40051019C04F0D9FD304683
:101B50000122042104F0D4FD204603B0F0BD00BFF3
:101B600000080240000C024010000020C43B00208E
:101B700004F03EB90268084B9A4210B5044601D100
:101B800004F024F92268054B9A4202BF044B01225B
:101B9000C3F86C2A10BD00BF0004014000140040CF
:101BA0005C3C002082B00E4B00220092596C41F444
:101BB00080415964596C01F480410091009901926F
:101BC000196C41F0805119641B6C03F08053019330
:101BD000019B0F216FF0010002B004F0E9BA00BFD1
:101BE0000038024010B514228AB0044600210DEBE3
:101BF00002001FF013F82368264A93420DD10023F8
:101C00000093254B5A6C42F480725A645B6C03F467
:101C100080730093009B0AB010BD204A93421ED1EE
:101C20001D4B002101915A6C42F400725A645A6CA7
:101C300002F400720192019A02911A6B42F00102C1
:101C40001A631B6B03F001030293029B04230593A9
:101C50001348032305A9069304F06AFCDBE7114A45
:101C60009342D8D10C4B002103915A6C42F480620C
:101C70005A645A6C02F480620392039A04911A6BBC
:101C800042F001021A631B6B03F001030493049BEF
:101C90000223DCE70020014000380240002101401F
:101CA00000000240002201400268094B9A4282B0C3
:101CB0000BD100230193074B1A6B42F480521A6335
:101CC0001B6B03F480530193019B02B0704700BF6C
:101CD000003002400038024010B5044688B014229B
:101CE000002103A81EF09AFF2268124B9A421ED1CF
:101CF00003F5E233002101911A6C0F4842F00052C3
:101D00001A641A6C02F000520192019A02911A6B45
:101D100042F001021A631B6B03F001030293029B62
:101D20002022032303A9CDE9032304F001FC08B01A
:101D300010BD00BF007400400000024007B50F4B0B
:101D400002689A4216D10022A3F5F0430192196B62
:101D500041F4000119631B6B03F400030193052197
:101D60005A20019B04F024FA5A2003B05DF804EBDA
:101D700004F050BA03B05DF804FB00BF00B00240AD
:101D80002DE9F043044689B01422002103A81EF077
:101D900045FF2268244B9A4243D1244C2448002515
:101DA0000095236B43F004032363236B03F00403C8
:101DB0000093009B0195236B43F001032363236B86
:101DC00003F001030193019B4FF012094FF40073DC
:101DD0004FF001080327042603A9CDE90339CDE913
:101DE0000587079604F0A4FB4FF48073114807960B
:101DF00003A9CDE90339CDE9058704F099FB0295E4
:101E0000236C43F400032364236C03F40003029364
:101E1000029B236A43F400032362236A23F4000332
:101E2000236209B0BDE8F083005C00400038024046
:101E30000008024000000240F0B504468DB01422B4
:101E4000002107A81EF0EAFE2268574B9A4240F094
:101E5000A88003F55043002500955A6C534842F082
:101E600080625A645A6C02F080620092009A019576
:101E70001A6B42F020021A631A6B02F020020192E0
:101E8000019A02951A6B42F001021A631A6B02F072
:101E900001020292029A03951A6B42F002021A633F
:101EA0001A6B02F002020392039A04951A6B42F035
:101EB00040021A631A6B02F040020492049A0595DC
:101EC0001A6B42F004021A631A6B02F004020592C4
:101ED000059A06951A6B42F008021A631B6B03F011
:101EE0000803069302240E26069B0A944FF480638F
:101EF00007A9CDE907340B9604F01AFB41F6580305
:101F00002B480B9607A9CDE907340927CDE90954D9
:101F100004F00EFB032327480B9707A9CDE90734EC
:101F2000CDE9095404F004FB4FF4706321480B968B
:101F300007A9CDE90734CDE9095404F0F9FA4FF4C3
:101F40000C631D480B9607A9CDE90734CDE9095468
:101F500004F0EEFAC02319480B9607A9CDE907341F
:101F6000CDE9095404F0E4FA082315480B9607A9B3
:101F7000CDE90734CDE9095404F0DAFA4FF4A0535F
:101F80000D480B9707A9CDE90734CDE9095404F0B2
:101F9000CFFA58202A46052104F00AF9582004F007
:101FA00039F90DB0F0BD00BF0068014000140240D7
:101FB00000000240000402400018024000080240F5
:101FC000000C024010B5044688B01422002103A87A
:101FD0001EF024FE2268144B9A4223D103F5684375
:101FE000002101915A6C114842F480125A645A6CD3
:101FF00002F480120192019A02911A6B42F02002BF
:102000001A631B6B03F020030293029B4FF4607270
:1020100002230321CDE903230523CDE9061303A9F8
:1020200004F086FA08B010BD0050014000140240D0
:1020300007B50F4B02689A4216D1002203F5093307
:102040000192196C41F0200119641B6C03F020030C
:10205000019305213720019B04F0AAF8372003B033
:102060005DF804EB04F0D6B803B05DF804FB00BFE4
:10207000001400402DE9F04186B0002303932B4B60
:102080001C68002C4FD14FF00108C3F80080284B8A
:1020900000949A6B274842EA08029A639B6B03EA12
:1020A00008030093022703260C25009B01A94FF685
:1020B0003F03CDE90137CDE9046504F039FA1E4844
:1020C000059501A9CDE90187CDE9034604F030FA71
:1020D00048F233131948059501A9CDE90137CDE937
:1020E000034604F025FA4FF683731548059501A9B8
:1020F000CDE90137CDE9034604F01AFA4CF2037337
:102100001048059501A9CDE90137CDE9034604F052
:102110000FFA60230C48059501A9CDE90137CDE9F7
:10212000034604F005FA06B0BDE8F081FC46002045
:10213000003802400014024000080240001802402B
:1021400000100240000C02400004024030B501467D
:1021500089B000222C2004F02BF82C2004F05AF82F
:102160000025154B02955A6C144C42F002025A6439
:102170005B6C03F00203029301A903A8029B05F024
:102180004FFB05F03DFB0E4B236040F2E733E3606D
:1021900040000C4BB0FBF3F0013860602046256135
:1021A000A56006F0F9F820B9204605F0D8FF09B07F
:1021B00030BD0120FBE700BF00380240004700208F
:1021C0000004014040420F007047FEE7FEE7FEE7D3
:1021D000FEE77047014805F0D6BF00BF004700206A
:1021E000014805F0D0BF00BF1C3C0020014804F0AE
:1021F000DBBF00BFE83A0020014804F0CAB800BFC6
:10220000543A00200120704708B51EF0B3FB162396
:1022100003604FF0FF3008BD08B51EF0ABFB16237E
:102220000360FEE770B50D4614460E46731B9C42D4
:1022300001DC204670BDAFF3008006F8010BF5E726
:1022400070B50D4614460E46731B9C4201DC2046B9
:1022500070BD16F8010BAFF30080F5E74FF0FF30CB
:1022600070474FF400534B600020704701207047C7
:10227000002070470A4A116808B5034609B90949A0
:1022800011601068694603448B4206D91EF072FB48
:102290000C2303604FF0FF3008BD1360FCE700BF64
:1022A00040470020B0580120704710B50421044673
:1022B0001EF07AFA204610BD012908B506D0022981
:1022C00008D059B902F0F8FD006808BD02F0F4FD2D
:1022D0004068FAE702F0F0FD8068F6E70020F4E7D6
:1022E00000487047D02102080D20704713B5002424
:1022F00051B1036801948DF8034001AA9C680DF167
:102300000303A04702B010BD0846FBE740897047B1
:10231000808970478088704783798088184480B2AC
:102320007047C07900F07F007047C079C0097047DE
:10233000704710B5082104461EF036FA204610BD3D
:102340007047704700F596730868496803C3704783
:102350000020704781807047C180704701817047BD
:10236000418170477047704770477047704710B49D
:10237000C4880368121B84885B6D091B12B25DF868
:10238000044B09B218474FF6FF7383814FF0FF33B8
:1023900003621368C3611060704770477047416003
:1023A00070477047064BC0F848310023C0F84C31E5
:1023B00000F5A073C0F84401C0F83C31704700BF7D
:1023C000D524000801230372704790F825201AB124
:1023D00090F8242002B1186070477047704770472A
:1023E000704701464068036810315B6E184701462C
:1023F0004068036810311B6E18477047704710B56E
:102400000022B1F90840B1F90A10028042808480AC
:10241000C18010BD10B4C26841685410034601EB7E
:102420006200D20748BF0A599B685DF8044B48BF59
:10243000D358184743682BB183682BB9C06800F0A4
:1024400001007047184670470120704710B50C21F5
:1024500004461EF0A9F9204610BD10B5102104460F
:102460001EF0A2F9204610BD10B54FF4AC71044621
:102470001EF09AF9204610BD10B5382104461EF012
:1024800093F9204610BD10B5282104461EF08CF9A2
:10249000204610BD08B50EF06BFEBDE808400FF0F9
:1024A0000BBA90F8252012B103685B691847704792
:1024B00010B50446D0F83C0158B10368DB68984772
:1024C00038B1D4F83C0103689B6898470023C4F8EE
:1024D0003C3110BD2DE9F14FD0E9545A0746A868A8
:1024E00003681B6A9847B0F5C26F05D2454B464A50
:1024F000A32146481EF00CFA686803681B6A9847D7
:102500000F2803D8424B404AA421F2E7E868036849
:102510001B6A98470B2803D83E4B3B4AA521E8E7A6
:10252000DFF8F8900EF024FE0EF028FED9F8000037
:1025300010B10368DB689847D9F8000010B1036850
:102540001B689847DFF8D880D8F8000010B10368FE
:102550005B699847D7F8380110B103685B68984702
:10256000D8F8000010B103681B689847D7F8380105
:1025700010B103689B689847E868036800215B6AAC
:1025800098474FF0000B244B03600446C0F804B09A
:1025900080F808B0A868036859465B6A9847064601
:1025A00002F0CEFD6868036859465B6A9847314679
:1025B000054602F019FDC9F80040C7F83851C8F8BF
:1025C0000060E5B12B1DCAF800303368C5F808A0DB
:1025D0003046DB68F56398472B6828461B689847A8
:1025E0002146304610F072FA236820461B6998474E
:1025F00023685B69204601B0BDE8F04F18472B46C1
:10260000E1E700BFE42202087223020876240208F0
:10261000BD24020860250208902702084C560120BC
:10262000485601202DE9F74FD0E954BA0746DBF8A8
:10263000080003681B6A984742F23B73984205D82A
:10264000564B574AA32157481EF062F9DBF80400A5
:1026500003681B6A98470F2803D8534B504AA4219C
:10266000F1E7DBF80C0003681B6A9847372803D8AA
:102670004E4B4B4AA521E6E7DFF844910EF078FD7A
:102680000EF07CFDD9F8000010B10368DB689847B4
:10269000D9F8000010B103681B689847DFF824815F
:1026A000D8F8000010B103685B699847D7F8380183
:1026B00010B103685B689847D8F8000010B1036850
:1026C0001B689847D7F8380110B103689B68984792
:1026D000DBF80C00036800215B6A9847344B036009
:1026E00004464FF4A053038100254FF480734560E6
:1026F000857263632F4B23612F4BE581B3F9001083
:102700002E4BA1811030C4E90555C4E90755C4E931
:102710000955C4E90B55B3F900600190FFF71EFE9F
:1027200023690198DB6B31469847DBF808000368A2
:1027300029465B6A9847064603F076F8DBF8040002
:10274000036829465B6A98473146054602F052FD08
:10275000C9F80040C7F83851C8F80060E5B12B1D32
:10276000CAF800303368C5F808A03046DB68F56366
:1027700098472B6828461B6898472146304610F03A
:10278000A5F9236820461B69984723685B692046A2
:1027900003B0BDE8F04F18472B46E1E7E4220208FA
:1027A0000326020876240208BD24020860250208D8
:1027B0001C280208B4270208F8550120FA55012008
:1027C0004C56012048560120044B1B6893F8762094
:1027D0000AB1D86C00B99868704700BF0456012050
:1027E000F0B50446807A637A0130C0B2984289B06D
:1027F000A07250D8B4F90C20002110F06DF910F03F
:10280000010283B24DD04FF6FF710028D8BF0A46AF
:102810001344E381244E254F3188B4F818C0E3896E
:10282000B7F90000ADF81E00CA1A606863445B1A6D
:10283000ADF81C30036812B200251B692283ADF885
:102840001820ADF81A5006A99847A37A012B26D173
:10285000174B1B781BB3A169606904AB03C3154B0D
:10286000186803681B6B98473388ADF81C303B88A9
:10287000ADF81E300390ADF81850ADF81A50FFF7C0
:10288000A3FFFF22036800920195DC68039904AB63
:1028900006AAA04703E0012323720023A37209B014
:1028A000F0BDE081B6E700BFF8550120FA550120E0
:1028B0000256012004560120F8B5044617460E467C
:1028C0000EF076FC0E4B1C600E4B23600E4B002569
:1028D000C4E950350D4BC4E95255186803682946C0
:1028E0009B68C4E94E55C4E954769847284602F0DF
:1028F00097FAFFF769FF16F048FD2046F8BD00BFC4
:1029000058560120442702082C27020804560120AB
:10291000064BC0F848310023C0F84C3100F5A073D5
:10292000C0F84401C0F83C31704700BFD52400080E
:10293000064BC0F848310023C0F84C3100F5A073B5
:10294000C0F84401C0F83C31704700BF252600089C
:10295000006A7047406A704770478B8880690A68D0
:10296000DB0A50F823001044704710B5C2B1137B46
:10297000B3B1547BD27A240204F4E0641443C269F4
:1029800098B202EB840213888B4202D192F90200C2
:1029900010BD05D8013880B204320028F3D1F7E722
:1029A0000020F5E710B5282104461DF0FDFE204665
:1029B00010BD000030B589B00446BDF850500695F2
:1029C000BDF84C5005959DF8405004959DF83C503D
:1029D00003959DF8385002959DF8345001959DF867
:1029E000305000950FF008FC064B2360119BA3614B
:1029F000129BE361159B2362169B6362204609B01C
:102A000030BD00BF40280208806A70477047704799
:102A100070477047704730B50368018185B06D46D7
:102A20000146D3F8843004462846984795E80700C5
:102A30003C3484E8070005B030BD30B503684181FF
:102A400085B06D460146D3F8843004462846984741
:102A500095E807003C3484E8070005B030BD00224B
:102A6000028042808280C280704780F836107047B2
:102A700070B5036804461B6B1546984723682946C2
:102A800020465B6EBDE87040184700207047806CA0
:102A9000704770477047704770477047704770477E
:102AA000704790F82C304BB100F16C021268C2658F
:102AB0003BB100F174031B680366704700F16802C4
:102AC000F4E700F17003F6E770477047704770470E
:102AD00030B4C26844685510034604EB6200D20764
:102AE00048BF62599B6830BC48BFD35818474368F9
:102AF0002BB183682BB9C06800F0010070471846FD
:102B000070470120704730B4C268446855100346CE
:102B100004EB6200D20748BF62599B6830BC48BFD3
:102B2000D358184743682BB183682BB9C06800F0AD
:102B300001007047184670470120704790F82D300B
:102B400080F8A43080F85A30704790F82D3080F823
:102B50005A30704710B504467C3094F82C303BB1A5
:102B600004F17A010BF056FE2046FFF79AFF10BDE4
:102B700004F17801F6E710B54C2104461DF014FE6F
:102B8000204610BD10B5782104461DF00DFE2046EC
:102B900010BD10B5A82104461DF006FE204610BD4C
:102BA00010B5102104461DF0FFFD204610BD10B5E4
:102BB000102104461DF0F8FD204610BD10B54FF45D
:102BC000C26104461DF0F0FD204610BD10B504465C
:102BD000006B50B10368DB68984730B1206B036825
:102BE00021469B68BDE81040184710BD00F1C402A3
:102BF000914202D10368DB6A184700F5B672914230
:102C000002D103681B6BF7E700F22442914202D124
:102C10000368DB6BF0E700F2CC42914202D103681B
:102C20009B6BE9E770470B7970B590F82C60044610
:102C30000D469BB98EB9B3FA83F35B0984F82C3047
:102C400023682046D3F88C309847236820465B6978
:102C5000984716B12B79012B03D070BD002EFCD004
:102C6000E9E723682046D3F88830BDE8704018476C
:102C7000036870B55E6B124B1B6804468DB22BB9AE
:102C8000104B114A6C2111481DF042FE1049828DF3
:102C90000988914203D80F4B0B4A6D21F3E713F8D3
:102CA00012200D4B1B6853F822000368DB6A98471B
:102CB000281A01B233462046BDE87040184700BFCD
:102CC0005C56012090280208D22802080D2902082B
:102CD00060560120542902086456012000F52A7329
:102CE0008B4210B5044609D10EF042FAFFF720FEE0
:102CF000236820465B6BBDE81040184710BD0022DA
:102D00004FF0FF31C0E900218260704770B5036861
:102D100004461B6B154698472368294620465B6B83
:102D2000BDE8704018470B882DE9F041A0F87830D5
:102D30001388B0F90850A0F87A300446104690463F
:102D400011F046FCB4F90A30074603EBD373404652
:102D5000C3F34F0611F070FC05EBD575C5F34F05B5
:102D600000EBD07007EBD777A6EB6002A5EB670707
:102D700004F17C0039B212B2FFF7C8FF2368204685
:102D8000D3F88C30BDE8F041184770B504461D46B5
:102D9000BDF91060FFF7BAFF2368294620469B6BF8
:102DA0009847236831462046DB6BBDE870401847E2
:102DB0000022C0E90122C0E90322C0E90522C0E9DE
:102DC00007224FF480728284014A0260704700BF7C
:102DD000D829020810B52622044600211DF01EFF46
:102DE0002046FFF7E5FF044B2360FF2384F82630DD
:102DF0000023A362204610BD2C41020838B52622CC
:102E000004460D4600211DF009FF2046FFF7D0FFC4
:102E1000064B23602B88E384FF23204684F8283068
:102E200029460BF0F7FC204638BD00BF704202086F
:102E300010B52622044600211DF0F0FE2046FFF7C3
:102E4000B7FF0A4B23600A4BA3624FF6FF73A385BB
:102E50004FF47F020023C4E90C324FF0FF32C4E983
:102E600010232387E363204610BD00BF9C40020867
:102E7000DC2202081B4B73B51B88018F8B42064670
:102E80002BD9194B1B682BB9184B194A19486C21BF
:102E90001DF03EFD13F81120174B1B6853F822500C
:102EA000164B186801F0F8FF2B68019001469B6AE9
:102EB000284698472B6801991B6C0446284698477A
:102EC0002B6801995B6A14FB00F428469847E4B22A
:102ED000044486F8454002B070BD002380F84530B8
:102EE000F9E700BF605601205C56012090280208D7
:102EF000D22802080D2902086456012068560120D4
:102F00004FF47F4373B50646838540F201130025D5
:102F100083841D4B8562C0E90155C0E90355C0E9B2
:102F20000555C0E90755056346F8343B044630466D
:102F3000FFF750FF154B63632A46C4E91A55C4E9ED
:102F40001C552566A4F8645029463046FFF7DEFE7E
:102F50003146204607F0EAFD0D4B236004F17C0565
:102F60004FF6FF73A4F87830A4F87A3001A9284608
:102F7000ADF80430FFF742FF2046294607F0D6FDA2
:102F8000204602B070BD00BFD02A020808420208E5
:102F90006C2B020810B40367019B436703685DF85C
:102FA000044BD3F88C30C0E91A1218472DE9F04FC2
:102FB0002DED0C8B04468DB00FF0DCFB2246002576
:102FC000E54BE56342F8403B104608EE102AFFF758
:102FD00001FF04F16C034FF6FF760AA918460CEEC8
:102FE000103AADF82860FFF709FF04F198030AA929
:102FF00018460CEE903AADF82860FFF7FFFE04F19A
:10300000C403184608EE903AFFF77AFF04F5B6734A
:10301000184609EE103AFFF773FF04F505731846DA
:1030200009EE903AFFF704FF04F5177318460AEE0D
:10303000103ACA4FFFF7FCFE04F52A73C4F85C721D
:10304000C4F8A45218460AEE903A0BF015FD04F5A8
:103050003C730AA918460DEE103AADF82860FFF748
:10306000CDFE04F5477318460BEE103AFFF7E0FE6D
:1030700004F5597304F56C7B18460BEE903AFFF794
:10308000D7FEC4F86473C4F8AC535846FFF7D0FEBB
:1030900004F57E730AA9184604F224490DEE903A0D
:1030A00004F2CC48ADF82860FFF7A8FE4846FFF7C9
:1030B00027FF04F2745A4046FFF722FF5046FFF7FD
:1030C000B7FEA74BC4F8F035A64BC4F8F835A64BAD
:1030D000C4F80036A54BC4F80836F0232A46294622
:1030E00018EE100AC4F87475C4F8BC55C4F8FC5541
:1030F000C4F80C560093C4F8F4454FF4A073C4F818
:103100000446FFF742FE4FF07F43A3662A46294656
:103110001CEE100AFFF7FAFD1CEE100A0AA9ADF822
:1031200028500BF077FB1CEE900A19227621FFF74E
:10313000EDFD0AAA4FF0030311461CEE900AADF80C
:1031400028300BF067FB17230527894E00932A468A
:1031500029462B2304F1F800FFF717FE854B864A1A
:103160008649009618EE900AA4F82871FFF712FF1E
:1031700018EE900A0AAA09A9ADF82470ADF82870D3
:10318000FFF7D1FD172318EE900A009331222B236D
:1031900040F21111C4F84471FFF7F7FD04F5C06364
:1031A0000393C4F8F43017232A462946009304F504
:1031B000D0702B23FFF7E9FD6E4B6F4A6F490096E5
:1031C00019EE100AA4F8D071FFF7E4FE4FF00602E2
:1031D0000AA8ADF82420ADF8282009A9024619EE66
:1031E000100AFFF7A0FD0620C4F8EC0117202B23DE
:1031F0000090192219EE100A40F21111FFF7C5FDD7
:10320000039AC4F89C2119EE900A1C22292104AECD
:10321000FFF77CFD4FF0FF3019EE901AC4F844021E
:10322000A4F8485230460AF0F5FD96E8070004F588
:10323000147383E80700524B0A9319EE900A142383
:103240000AA9ADF82C300BF067F818202422009062
:103250007C231AEE100A8F21FFF797FDD4F85C3219
:10326000A4F890524FF0FF30D3F88430C4F88C02A9
:103270001AEE101A3046984796E8070004F52673B0
:1032800083E8070004F5B863C4F8A4323C4BA4F803
:10329000C0551AEE100A0A930AA91323ADF82C3070
:1032A0000BF03AF81AEE900AB4224E21FFF72EFDE9
:1032B00001230AA8024609A91AEE900AADF82430A3
:1032C0000223ADF828300BF082F812231AEE900A90
:1032D000A4F8E032FFF7CEFD04F5BE634FF0FF30F7
:1032E000C4F8D0328A22C4E9B90076211DEE100A52
:1032F000FFF70CFD4FF003010AA8ADF828100146B6
:103300001DEE100A0BF086FA8D221BEE100A292101
:10331000FFF7FCFC4FF0FF301BEE101AC4F84C0313
:10332000A4F8505330460AF075FD96E8070004F5FE
:10333000567383E80700124B0A930AA8112301462B
:103340001BEE100AADF82C300AF0E6FF182093228D
:1033500000907C2316E000BF3C2C0208402A0208A3
:103360000C2C0208DD2C0008242C0208ED2B000890
:10337000996633FF663300FFCC9900FF996600FF22
:10338000DC2202081BEE900A8F21FFF7FEFCD4F826
:103390006433A4F898534FF0FF30D3F88430C4F866
:1033A00094031BEE901A3046984796E8070004F500
:1033B000687383E8070004F2D453C4F8AC330AA856
:1033C000964BA4F8D45501460A931BEE900A10239D
:1033D000ADF82C300AF0A0FF562206215846FFF720
:1033E00095FC4FF0FF30C4F8E003A4F8E4535946CD
:1033F00030460AF00FFD96E8070004F57B7383E87A
:1034000007000AA8854B0A9301465846ADF82C7070
:103410000AF082FF53221DEE900A7621FFF776FC18
:103420004FF003011DEE900AADF828100AA90BF029
:10343000F1F917212A4600912B23294604F58B60C8
:10344000FFF7A3FC764B0093A3F13313A3F54C5382
:10345000744A7549A4F888744846FFF79BFD0AA989
:103460000A46484609A9ADF82470ADF82870FFF760
:103470005AFC172100912B23692240F21111484672
:10348000C4F8A474FFF781FC039AC4F854241721EC
:103490002A4600912B23294604F5A060FFF775FC0E
:1034A0005F4B0093A3F13313A3F54C535D4A5E4980
:1034B000A4F830754046FFF76DFD4FF00602ADF8F9
:1034C0002420ADF8282009A90AAA4046FFF72BFCC2
:1034D0000623C4F84C351723009351222B2340F2C6
:1034E00011114046FFF751FC039BC4F8FC3418232C
:1034F0005D2200938F217C235046FFF746FC4FF05E
:10350000FF33C4F8A435D4F87435A4F8A855D3F81B
:10351000843051463046984796E8070004F5B66374
:1035200083E80700414B1B6804F5BD652BB9404B90
:10353000404A602140481DF0EBF9404B1B88032BAB
:1035400003D83F4B3B4A6121F4E73E4B0321186807
:1035500001F0A2FC3C4A03460321284610F0C6FDB8
:103560002E4BC4F8BC550A93251D04230AA95046C6
:10357000ADF82C300AF0D0FE18EE101A284607F0ED
:10358000D5FA1CEE101A284607F0D0FA1CEE901A55
:10359000284607F0CBFA18EE901A284607F0C6FA2C
:1035A00019EE101A284607F0C1FA19EE901A2846AB
:1035B00007F0BCFA1AEE101A284607F0B7FA1AEE0E
:1035C000901A284607F0B2FA1DEE101A284607F0A6
:1035D000ADFA1BEE101A284607F0A8FA1BEE901A57
:1035E000284607F0A3FA5946284607F09FFA1DEE31
:1035F000901A284607F09AFA4946284607F096FAA4
:103600004146284607F092FA2846514607F08EFABE
:1036100020460DB0BDEC0C8BBDE8F08FDC2202081B
:10362000996633FFCC9900FF996600FF5C56012034
:1036300090280208922902080D29020860560120EC
:103640005429020868560120CA2902080020704740
:103650008B88838001207047704780F82C1070475A
:1036600010B40368046BD3F8A430624361435DF87F
:10367000044B1847D0ED0C7A0368F8EEE77AD3F8DC
:10368000A43020EE270AB5EEC00AF1EE10FA17DBDF
:10369000B6EE007A30EE070ABDEEC07A17EE101AC9
:1036A00060EEA70AF5EEC00AF1EE10FA1CDBF6EEAA
:1036B000007A70EEA70AFDEEE07A17EE902A18471E
:1036C000BDEEC07AF8EEC76A17EE102A30EE660A31
:1036D000F7EE086A30EE260A511EBDEEC00A10EE63
:1036E000102A0A441146DBE7FDEEE07AB8EEE77AED
:1036F00017EE902A70EEC70AB7EE087A70EE870AC6
:10370000013AFDEEE00A10EE90CA94446246D6E714
:1037100010B40368046BD3F8B03062435DF8044B17
:103720001847D0ED0C7A0368F8EEE77AD3F8B0309A
:1037300027EE800AB5EEC00AF1EE10FA08DBF6EECD
:10374000007A30EE270AFDEEC07A17EE902A18476D
:10375000FDEEC07AB8EEE77A17EE902A30EE470A0F
:10376000B7EE087A30EE070A013ABDEEC00A10EE55
:1037700010CA94446246EAE710B40368446BD3F875
:10378000BC30624361435DF8044B1847D0ED0D7ABD
:103790000368F8EEE77AD3F8BC3020EE270AB5EEDE
:1037A000C00AF1EE10FA17DBB6EE007A30EE070A27
:1037B000BDEEC07A17EE101A60EEA70AF5EEC00A49
:1037C000F1EE10FA1CDBF6EE007A70EEA70AFDEEC1
:1037D000E07A17EE902A1847BDEEC07AF8EEC76A75
:1037E00017EE102A30EE660AF7EE086A30EE260A67
:1037F000511EBDEEC00A10EE102A0A441146DBE746
:10380000FDEEE07AB8EEE77A17EE902A70EEC70A7E
:10381000B7EE087A70EE870A013AFDEEE00A10EE84
:1038200090CA94446246D6E710B40368446BD3F858
:10383000C03062435DF8044B1847D0ED0D7A036841
:10384000F8EEE77AD3F8C03027EE800AB5EEC00A6A
:10385000F1EE10FA08DBF6EE007A30EE270AFDEE04
:10386000C07A17EE902A1847FDEEC07AB8EEE77AD4
:1038700017EE902A30EE470AB7EE087A30EE070AC4
:10388000013ABDEEC00A10EE10CA94446246EAE75F
:10389000D0F82C31026B002B07DB02EB430393FBC8
:1038A000F2F000EBD070401070476FF0010000FBA9
:1038B0000320013890FBF2F000EBD0704010404242
:1038C0007047D0ED4B7AB8EEE70AD0ED0C7AF8EEFF
:1038D000E77A80EE270A7047D0F82C017047D0F8BD
:1038E0003031026B002B07DB02EB430393FBF2F05A
:1038F00000EBD070401070476FF0010000FB032018
:10390000013890FBF2F000EBD0704010404270475D
:10391000D0ED4C7AB8EEE70AD0ED0C7AF8EEE77A03
:1039200080EE270A7047D0F830017047D0F8343164
:10393000426B002B07DB02EB430393FBF2F000EB3F
:10394000D070401070476FF0010000FB0320013879
:1039500090FBF2F000EBD070401040427047D0ED89
:103960004D7AB8EEE70AD0ED0D7AF8EEE77A80EE00
:10397000270A7047D0F834017047D0F83831426BCD
:10398000002B07DB02EB430393FBF2F000EBD0705C
:10399000401070476FF0010000FB0320013890FBDE
:1039A000F2F000EBD070401040427047D0ED4E7AFC
:1039B000B8EEE70AD0ED0D7AF8EEE77A80EE270A46
:1039C0007047D0F83801704770B503680446D3F8E3
:1039D00088300D46164698472368324629462046C9
:1039E000D3F89030BDE8704018470368D3F894309E
:1039F00018470368D3F8D43018470368D3F8E03089
:103A000018470368002A10B4D3F8A430046B0EDB07
:103A100004EB420292FBF4F101EBD1714910B0F9D1
:103A20001E215DF8044B013A0A44494218476FF0E1
:103A3000010101FB0241013991FBF4F101EBD1716C
:103A400049104942EBE70368D3F83C311847026B51
:103A500003685143D3F8483118470368D3F8443119
:103A60001847D0ED0C7A0368F8EEE77AD3F84831BE
:103A700027EE800AB5EEC00AF1EE10FA08DBF6EE8A
:103A8000007A30EE270AFDEEC07A17EE901A18473A
:103A9000FDEEC07AB8EEE77A17EE902A30EE470ACC
:103AA000B7EE087A30EE070A511EBDEEC00A10EEDE
:103AB000102A0A441146EAE7C0F83C11704703682F
:103AC000D3F850311847036810B5D3F85C31044679
:103AD00098470028236B07DB03EB400090FBF3F0D3
:103AE00000EBD070401010BD6FF0010202FB0030FF
:103AF000013890FBF3F000EBD07040104042F2E749
:103B00000368D3F858311847036810B5D3F85C310F
:103B10000446984707EE900AB8EEE70AD4ED0C7A0F
:103B2000F8EEE77A80EE270A10BDD0F83C01704726
:103B3000026B03685143D3F868311847D0ED0C7A13
:103B40000368F8EEE77AD3F8683127EE800AB5EE1D
:103B5000C00AF1EE10FA08DBF6EE007A30EE270A22
:103B6000FDEEC07A17EE901A1847FDEEC07AB8EE57
:103B7000E77A17EE902A30EE470AB7EE087A30EE71
:103B8000070A511EBDEEC00A10EE102A0A44114663
:103B9000EAE7C0F840117047036810B5D3F87431F4
:103BA000044698470028236B07DB03EB400090FB9B
:103BB000F3F000EBD070401010BD6FF0010202FB7B
:103BC0000030013890FBF3F000EBD0704010404221
:103BD000F2E7036810B5D3F874310446984707EE4E
:103BE000900AB8EEE70AD4ED0C7AF8EEE77A80EEA8
:103BF000270A10BDD0F8400170470368026BD3F864
:103C00008431002910B504460EDB02EB410191FB23
:103C1000F2F101EBD171491009B220469847D4E97D
:103C20004F2302FB003010BD6FF0010000FB0121AB
:103C3000013991FBF2F101EBD17149104942EBE7F7
:103C4000006B7047406B70470368D3F848311847E2
:103C50000368D3F85C311847026B03685143D3F80B
:103C600014311847036870B5D3F81851D3F8803170
:103C7000D0F84461044698472B4656F82010204659
:103C8000BDE870401847B0F91C21B0F91E319342CD
:103C900007DBB0F94C31194491FBF2F002FB101133
:103CA00009B2084670474801704780F826107047EF
:103CB00090F82600704710B50022B1F90840B1F91C
:103CC0000A10028042808480C18010BD00220280E0
:103CD00042808280C2807047C1627047C06A70476C
:103CE0000120704770477047C06B18B10368D3F864
:103CF00080301847704730B5B2F81A11B2F9144144
:103D0000B2F94050B2F8422044802144521A0021B6
:103D100001808580C28030BD10B54280BDF9084069
:103D2000BDF90C2004808280C38010BD0B6808465A
:103D3000D3F8D43018470B680846D3F8E03018475A
:103D4000B1F914017047B1F81401B1F81A31034404
:103D5000B1F84200C01A00B27047B1F916017047BD
:103D6000B1F81601B1F818310344B1F84000C01A97
:103D700000B270470B680846D3F814311146184753
:103D8000B2F8181130B5B2F9165105806C18B2F8B6
:103D90004010B2F94220C280091B00244480818077
:103DA00030BD02808380BDF90020BDF9043042801F
:103DB000C38070470B680846D3F8EC3018470B688F
:103DC0000846D3F8F8301847B1F916017047B1F832
:103DD0001601B1F818310344B1F84000C01A00B21E
:103DE0007047B1F914017047B1F81401B1F81A31F4
:103DF0000344B1F84200C01A00B270470B6808468D
:103E0000D3F818311146184770477047704770470C
:103E100070477047704730B4C26844685510034615
:103E200004EB6200D20748BF62599B6830BC48BFB0
:103E3000D358184743682BB183682BB9C06800F08A
:103E400001007047184670470120704710B54021A7
:103E500004461CF0A9FC204610BD10B540210446C4
:103E60001CF0A2FC204610BD10B54FF42B61044697
:103E70001CF09AFC204610BD10B54FF4107104469A
:103E80001CF092FC204610BD10B5102104461CF019
:103E90008BFC204610BD10B542F23C7104461CF06C
:103EA00083FC204610BD90F82C300BB106F077BE95
:103EB000704713B503460846D3E90C140368019113
:103EC000D3F88C30984701990246204602B0BDE8ED
:103ED000104008F0ADBC13B503460846D3E90C14F6
:103EE00003680191D3F8943098470199024620461F
:103EF00002B0BDE8104008F09BBC00000A1E10B5DF
:103F000003DBB0F91E41944206DC084B084A09481D
:103F100040F233611CF0FCFC0368D0F84441D3F854
:103F20008031984754F8200010BD00BF7C2C020857
:103F30009F2C0208EE2C02080B1E10B5044603DB72
:103F4000B0F91E219A4206DC074B084A084840F2A5
:103F50002D611CF0DDFC0368D3F884319847D4E967
:103F60004F2302FB003010BD7C2C02084B2D0208B1
:103F7000EE2C020800F589530833994210B5044627
:103F800015D190F87D3D83F0010380F87D3D90F8D8
:103F9000F13083F0010380F8F13000F658500EF054
:103FA0007EF804F1CC00BDE810400EF078B800F5C2
:103FB0009C530833994208D100F58053002200F544
:103FC000965083F8FD221830EDE710BD37B501ABF0
:103FD00015460EF006FA00284FEA401401992A46C9
:103FE0004FF0200004DB0EF01BFA204403B030BD7C
:103FF0000EF016FA201AF9E770B5B0F91441B0F8CE
:104000001A516319B0F84250ED1AD0E94D320E46FC
:104010002DB2D21A691EF01AFFF7D8FF2C44013CCA
:10402000C0EB441070BD38B504460846B4F81831EA
:10403000B4F816110B44B4F84010D4E94B52C91A25
:1040400009B2521B0139401BFFF7C0FFB4F916310A
:1040500000EB431038BD000010B5044607F0D0FF58
:10406000064A2260002301220A21C4E90C21E362EE
:1040700084F83820E363204610BD00BF203D0208CD
:1040800070B50023124E8380124B0360336893F89F
:10409000762005460AB1D86C00B998680368DB6AD7
:1040A00098473368B0FA80F4D86C640930B103687B
:1040B000DB6A9847002808BF44F001042CB9064B7E
:1040C000064A07482C211CF023FC284670BD00BF7F
:1040D000045601200C3002089A2D0208F82D02081F
:1040E000312E020810B5044607F08AFF0A4A226002
:1040F00000230122C4E90C23084AA2634FF6FF7291
:10410000A2872E22E36284F84030A4F84230A4F85B
:104110004420A364204610BD183F0208DC22020898
:1041200010B52622044600211CF078FD2046FEF73B
:104130003FFE054B23600023A36284F82C3001234B
:1041400084F82430204610BDB83F020810B504465C
:10415000FEF76EFE024B23600023A364204610BDD1
:10416000402A02082DE9F04F2DED108B044697B040
:104170000EF000FB22460025EB4BE56342F8403B86
:1041800010460BEE902AFEF725FE04F16C034FF665
:10419000FF7614A918460CEE103AADF85060FEF701
:1041A0002DFE04F19803184604F1CC0B0DEE903A65
:1041B000FEF710FEDD4BC4F898304FF41671C4F8CA
:1041C000C450A4F8C850584608F0CEFAD84BC4F8EA
:1041D000CC3004F5077201232946C4E98235C4E9CD
:1041E0008425584640F25722FFF73AFA04F67C330A
:1041F000D04AC4F8CC201846A4F818520FEE103A52
:1042000007F0FEFE4FF00202CB4BDFF8509384F82C
:10421000A82B04F6AC32C4F87C3B10460792FFF79B
:104220002FFF09F1240204F53C61C4F8B42BC4F853
:10423000AC9B0846C4F8B85BDFF824A3BF4F0FEE71
:10424000901AFFF709FF04F54061C4F8C0AB0846B7
:104250000891FFF701FF04F54461C4F8007C0846AB
:104260000EEE101AFFF7F8FE04F54861C4F840ACF2
:1042700008460EEE901AFFF7EFFE04F54C61C4F805
:10428000807C08460991FFF72DFFAD4AC4F8C02C89
:1042900004F60C51084604F658580A91FFF722FF1D
:1042A000A849C4F80C1D40463C2108F05DFAA04B1B
:1042B000C4F8583D012004F6A86329463B22C4F8FF
:1042C000940EC4F89C3E4046C4F8985EC4F8A05EC4
:1042D000FFF7C6F99C4BC4F8583D04F69870A4F853
:1042E000A45E0B9007F08CFE934BC4F8983F4FF000
:1042F000020384F8C43F04F6C8700C90FFF7C0FEB8
:1043000009F12402C4F8D02FC4F8C89F04F6DC7069
:10431000C4F8D45F0D90FFF79FFE04F5805004F5BC
:104320008059C4F8DCAF1C300590FFF795FE04F50A
:104330008250C9F81C701C300390FFF78DFE04F505
:104340008450C9F85CA01C300490FFF785FE04F58A
:104350008650C9F89C701C300690FFF7C3FE79495F
:10436000C9F8DC1004F589510831084609EE101A25
:10437000FFF7D6FE754BC9F8283104F58B51A9F823
:104380005661A9F8586189F85A61A9F85C61084634
:1043900009EE901AFEF74CFD04F58D5108310846E0
:1043A00008EE101AFFF7D2FE04F58F5114310846BB
:1043B0000AEE101AFFF7CAFE04F5925108460CEEF9
:1043C000901AFFF7C3FE04F594510C3104F5965A88
:1043D00008460AF1180A0AEE901AFFF7B7FE50468F
:1043E00006F01AFB04F59C51083108460DEE101A30
:1043F000FFF796FE04F59D511C31554BC9F88833E3
:104400000B461846A9F8B663A9F8B86389F8BA63E9
:104410000BEE101A14A9ADF85060FEF7EFFC04F58E
:104420009F510831084608EE901AFEF701FD494BEE
:10443000C9F86C3404F5A350474BC9F874344FF4F1
:1044400096511C30C9F87044C9F878540BF0D0F973
:10445000F0231BEE900A00932A464FF4A0732946DE
:10446000FEF793FC4FF07F416FF016021CEE100A2E
:10447000A1666FF06C01FEF749FC4FF004011CEEE1
:10448000100AADF8501014A90AF0C4F9A6214FF48F
:10449000A0731DEE900A00912A462946FEF775FC8E
:1044A0004FF0FF31C4F8C0104FF07F41C4F8C41082
:1044B0004FF00101A4F8C8102A464FF47A7158460B
:1044C000FFF782FA0A2229465846FFF7C9F8A621C3
:1044D00000914FF4A0732A4629465846FEF755FC32
:1044E0000F210091052314220621584608F0EEF80A
:1044F0002B462A4629465846009507F0EAFFF7EE74
:10450000080AB7EE000A5846FFF740F94FF47A72EE
:10451000D4F8F01BD4F8F40B84F8F15008F088F9C3
:104520001EEE103A1EE000BF7C330208084202086B
:10453000CC3902082C300208A43C0208542F02088F
:10454000D83D0208783E0208C83102082840020817
:104550009441020864330208753F00081C390208C0
:104560009C2E02084FF47A76D34FC4F8FC3B4FF0F0
:104570000101C4F8F06BC4F8EC7BC4F8F46B84F868
:10458000F81B58461FEE901A07F0AEFF3246D4F8DB
:10459000301CD4F8340C08F04BF91EEE903A4B2046
:1045A0004FF00101C4F83C3CC4F8306CC4F82C7CDA
:1045B000C4F8340C84F8381C5846089907F094FF66
:1045C0003246D4F8701CD4F8740C08F031F94FF06E
:1045D000020384F8783C1EEE101AC4F8706CC4F81C
:1045E0006C7CC4F8746C584607F07EFF3246D4F8F1
:1045F000B01CD4F8B40C08F01BF94FF0020396215C
:1046000084F8B83CC4F8B06CC4F8AC7CC4F8B41CF2
:1046100058461EEE901A07F067FF3246D4F8F01C99
:10462000D4F8F40C08F004F94FF007020999C4F823
:10463000F06CC4F8F46CA4F8FC2CC4F8EC7C58467C
:1046400007F076FF3246D4F83C1DD4F8400D08F050
:10465000EFF89622C4F8402D4FF00602A4F8482D3A
:104660004FF001020A99C4F83C6DA4F84E2DC4F82D
:10467000387D584607F04AFF079BC4F8A43B4FF02B
:104680007F424FF0020384F8A83B1FEE101AC4F8D3
:10469000B82B5846A4F8BC5B07F026FF31462A46E3
:1046A0004046FFF791F9A62200924FF4A0732A46E4
:1046B00029464046FEF769FB0F2200922B4618223E
:1046C0000621404608F002F82B462A462946404675
:1046D000009507F0FEFEF7EE080AB7EE000A404626
:1046E000FFF754F83246D9E9031008F0A1F841F277
:1046F0008832039BC9F810204FF00102C9E9027605
:10470000C9F818300D9989F81420404607F0ECFEDE
:104710003246D9E9131008F08BF84FF4FA734FF0D2
:104720000102C9F85030049BC9F85830C9E9127623
:10473000059989F85420404607F0D6FE3246D9E95B
:10474000231008F075F842F21073C9F890304FF05A
:104750000203C9E9227689F894300399404607F0AC
:10476000C3FE3246D9E9331008F062F84FF0020375
:10477000C9E9327689F8D4300499C9F8D060404646
:1047800007F0B2FE3246D9E9431008F051F89623FB
:10479000C9F810314FF00F03A9F818314FF0020398
:1047A0000699C9F80C61A9F81E31C9F8087140468C
:1047B00007F0ACFE4FF07F43C4F8D43F0C9BC4F825
:1047C000C03F4FF0020384F8C43F0B99A4F8D85FB0
:1047D000404607F089FE19EE100AD3224121FEF768
:1047E00095FA4FF00B03ADF84C304FF00C0319EE77
:1047F000100AA9F85C3114AA13A9ADF8503009F0D9
:10480000E6FD04F5A3530C33DB2219EE900AC9F838
:10481000503101210EAE0393FEF778FA4FF07F433B
:1048200019EE901AC9F890313046A9F8945109F060
:10483000F1FA96E8070019EE903A3C3383E8070056
:104840001E4B149319EE900A0E2314A9ADF85430A0
:1048500009F062FD0F23A82218EE100A009302212E
:104860008423FEF792FA4FF07F43C9F8D831D9F884
:10487000A831A9F8DC51D3F8843018EE101A30466C
:10488000984796E8070018EE103A3C3383E8070093
:104890000B4B1B6804F5A15710372BB9094B0A4A7B
:1048A00060210A481CF034F8094B1B880B2B13D8E5
:1048B000084B054A6121F4E7C59714FFDC22020882
:1048C0005C56012090280208922902080D2902084E
:1048D0006056012054290208B84B0B21186800F0DB
:1048E000DBFAB74A0346082138460FF0FFFBB54B09
:1048F000C9F8F07118EE100A149314A90D23ADF83D
:10490000543009F009FD0F210091842302211AEE91
:10491000100AB722FEF739FA4FF07F41C9F8241286
:104920004FF0FF31C9E98D15A749A9F828520B6846
:10493000C9F8305204F5A257002BAFD0A348038822
:104940000A2BB5D99D4A0A21106800F0A5FA9C4AA5
:104950000346082138460FF0C9FB4FF00C0CADF8A8
:1049600054C00DF1500C974BC9F83C7261461AEED9
:10497000100A0F27149309F0CFFC0097842302211B
:104980001CEE900AC622FEF700FA8F49A9F874526D
:104990004FF07F47C9F870720B68C9F87C524FF02E
:1049A000FF37C9E9A07504F5A2571037002B3FF473
:1049B00075AF86480388082B7FF67AAF7F4A0821B7
:1049C000106800F069FA7E4A03460A2138460FF063
:1049D0008DFB0DF1500E7B4BC9F888724FF0090C1E
:1049E00071461CEE900A1493ADF854C009F094FC83
:1049F0004FF00F0ECDF800E09923A0211AEE900A97
:104A0000A822FEF7C2F97049A9F8C0524FF07F4EB4
:104A10000B68C9F8BCE204F5A3574FF0FF3EC9E9A3
:104A2000B3E5C9F8C8520437002B3FF437AF6748E5
:104A30000388012B7FF63CAF604A0121106800F02B
:104A40002BFA5F4A0346042138460FF04FFB1AEE5B
:104A5000900AC9F8D4724FF002035A4FADF854309F
:104A600014A9149709F058FC0A234B22ADF85030D2
:104A700014A93C23504605F081FF50464FF07F417A
:104A800005F050FF9621504605F050FF504605F0C6
:104A90003CFF1DEE100A57223521FEF737F94FF083
:104AA000070314AA1DEE100AADF84C3013A9082311
:104AB000ADF8503009F08BFC039BC9F8B0331DEE04
:104AC000101A504605F02BFF03221BEE100A3B2163
:104AD000FEF71CF94FF0090C1BEE100A14A9ADF8F3
:104AE00050C009F097FE1BEE101A504605F017FF54
:104AF00018EE900A3C220721FEF708F94FF07F4399
:104B000018EE901AC9F81834A9F81C54304609F068
:104B100081F996E8070018EE903A3C3383E80700E5
:104B200018EE900A14A9ADF854501497251D09F0F9
:104B3000F3FB18EE901A504605F0F1FE1BEE901AAA
:104B4000284605F0F3FF1CEE101A284605F0EEFF8C
:104B50001DEE901A284605F0E9FF5946284605F053
:104B6000E5FF4146284605F0E1FF19EE101A2846F8
:104B700005F0DCFF19EE901A284605F0D7FF18EE75
:104B8000101A284605F0D2FF1AEE101A284605F032
:104B9000CDFF1CEE901A284605F0C8FF1AEE901AB9
:104BA000284605F0C3FF2846514605F0BFFF2046C2
:104BB00017B0BDEC108BBDE8F08F00BF6856012028
:104BC000CA290208DC2202085C5601206056012036
:104BD0007047000030B5164D2C78BFF35B8F14F092
:104BE00001048DB020D128461BF0E0FDE0B13F2349
:104BF0000793104B0693104B05930123CDE9034314
:104C0000029304220223CDE900320C490C48089497
:104C10000A232822CDE90944FDF7CCFE09481BF000
:104C200095FE28461BF0CEFD05480DB030BD00BFF7
:104C300044470020645E0208EC5E0208A0590208A6
:104C400048470020D14B00087047000030B5164D92
:104C50002C78BFF35B8F14F001048DB020D128466F
:104C60001BF0A4FDE0B13F230793104B0693104BBC
:104C700005930123CDE90343029304220323CDE9E5
:104C800000320C490C4808940F232A22CDE909442C
:104C9000FDF790FE09481BF059FE28461BF092FDD7
:104CA00005480DB030BD00BF70470020805E02088F
:104CB000F05E0208D05B020874470020494C0008EF
:104CC0007047000030B5154D2C78BFF35B8F14F0A2
:104CD00001048DB01FD128461BF068FDD8B13F23D9
:104CE00007930F4B06930F4B0F4910480894CDE9DB
:104CF000044304220123CDE9012300930522282344
:104D0000CDE909440394FDF755FE09481BF01EFE4A
:104D100028461BF057FD05480DB030BD9C470020CC
:104D2000D85E0208F45E02081C5E0208A04700205C
:104D3000C14C000800207047002070470EB403B536
:104D400003AB002153F8042B01930DF087F802B058
:104D50005DF804EB03B070470CB407B504AB53F82F
:104D6000042B01930DF07AF803B05DF804EB02B068
:104D700070470000436C10B5044673B3038F2BB922
:104D8000184B194AC02119481BF0C2FDC38E00EB15
:104D900043035B8C0BB30EF0FAFB238F012B03D87C
:104DA000134B144AC521EEE7E28E531C9BB2092B2C
:104DB000194688BFA3F10A0104EB410140F63F10F8
:104DC000498C814209D10A2B04EB420228BF0023FF
:104DD00004EB4303508C588451842046BDE81040B6
:104DE0000EF0D8BAAC330208B533020860340208BA
:104DF000AA340208B83402080EF093BA10B586B08F
:104E000002AC84E806001A460AAB05930193099B9D
:104E100000932146089B0BF026FD06B010BD000054
:104E200038B518BB124B13481B681349B3B11A6845
:104E30009C681A4402605A681A440A601C440F4B6A
:104E400000221A8000F038F8054600F033F80C4BC9
:104E50001C600C4B1D600C4B188007E00B4B036073
:104E60000B4B0B600B4B1C68002CE8D138BD00BF0E
:104E7000C8470020CC470020D0470020D44700205E
:104E80005C56012064560120605601204C5F0208E8
:104E9000F85E020818610208044B1B6853F82100F1
:104EA000034B1B6803EB4000704700BFD047002056
:104EB000CC4700201520704700487047D847002095
:104EC00010B5FFF7C3FE044C2060FFF7FBFE6060E7
:104ED000FFF780FEA06010BDD8470020704710B5D6
:104EE0004FF4AC7104461BF05FFC204610BD10B5BA
:104EF0000446D0F8540100F013F82046BDE81040F5
:104F00000CF02AB810B50446FDF7D6FC014B23601F
:104F1000204610BD94350208002202607047000050
:104F200070B504460068214D03689B689847D5F822
:104F3000703A73B1D5F8783A012B03D12068036831
:104F4000DB68984720680368DB6898470023C5F84A
:104F5000703AD5F8743A33B1206803681B699847F2
:104F60000023C5F8743AD5F8782AEB684FF46161EC
:104F70004B439A420BDBD5F8803A43B92E69012E98
:104F800005D1206803681B6A9847C5F8806A2068C5
:104F900003685B699847206803689B6998472068A5
:104FA0000368BDE87040DB69184700BF5C3C002027
:104FB00070477047704770477047704770470438B4
:104FC00070477047C06803681B6C1847A0F1040065
:104FD000FFF7F8BF10B5102104461BF0E5FB204693
:104FE00010BDA0F10400F5E710B500228260044A6C
:104FF000C16002F1080424320460426010BD00BFA9
:10500000D835020870477047044B1A68044B9A6001
:1050100001221A61034A1268DA6070471800002002
:105020005C3C0020140000200B4B1A6810B5643261
:10503000B2F5C87FC8BF4FF4C8721A6004461B6837
:10504000064A0A2100F5B8600FF050F804F5177011
:10505000BDE810400DF023B81800002020360208EB
:105060000A4B1A6810B5643A632AD8BF64221A60E2
:1050700004461B68064A0A2100F5B8600FF036F8AE
:1050800004F51770BDE810400DF009B818000020B5
:10509000203602080A4B1A6810B501320A2AC8BF26
:1050A0000A221A6004461B68064A032100F5BD6007
:1050B0000FF01CF804F27450BDE810400CF0EFBF84
:1050C00014000020203602080A4B1A6810B5013A75
:1050D000002AD8BF01221A6004461B68064A032131
:1050E00000F5BD600FF002F804F27450BDE8104006
:1050F0000CF0D5BF1400002020360208FDF7CFBC0D
:1051000013B5094B094A1B680193044601AB0A21F8
:1051100000F2D4500FF0A6F904F5597002B0BDE8C2
:1051200010400CF0BCBF00BF5C3C002023360208DE
:1051300010B54FF4C26104461BF036FB204610BD8B
:1051400010B50446FDF732FF074B2360074B084AB2
:105150001B680A2104F5B8600EF0C8FF04F517704B
:105160000CF09DFF204610BD3036020818000020CC
:105170002036020870477047043870477047C0688F
:1051800003681B6B1847A0F10400FFF7F8BFC06865
:1051900003685B6B1847A0F10400FFF7F8BFC06815
:1051A00003689B6B1847A0F10400FFF7F8BFC068C5
:1051B0000368DB6B1847A0F10400FFF7F8BFC06875
:1051C00003681B6C1847A0F10400FFF7F8BFC06824
:1051D00003685B6C1847A0F10400FFF7F8BF10B537
:1051E000102104461BF0E0FA204610BDA0F1040097
:1051F000F5E7000010B500228260044AC16002F1A8
:10520000080438320460426010BD00BF74360208E2
:105210007047704700F58053012200F5965083F8DF
:10522000FD2218300CF03BBF08B515492DED028B5F
:1052300091ED000A0022A1F6781102F25E2301EB43
:105240008303D3ED007AF4EEC07AF1EE10FA08D5BC
:10525000D3ED007AF5EE407AF1EE10FA18BF93ED37
:10526000000A01323B2AE8D19FED068A20EE080AA7
:105270001BF004FB80EE080ABDEC028B08BD00BFEA
:10528000D44500200000C84208B52DED028B9FEDEB
:10529000100A1049002303F25E2201EB8202D2EDD4
:1052A000007AF4EEC07AF1EE10FA03F10103C8BF00
:1052B00092ED000A3B2BEED19FED078A20EE080A03
:1052C0001BF09AFA80EE080ABDEC028B08BD00BF05
:1052D000000000005C3C00200000C842114B13B5E8
:1052E000D3F8782A104904464FF461636FF03B000D
:1052F00092FBF3F301FB03223C2192FBF1F100FB53
:10530000012204F5A250CDE900121030074A0A210B
:105310000EF0ECFE04F5925002B0BDE810400CF027
:10532000BEBE00BF5C3C0020F0F1FFFFD03602089B
:1053300010B542F23C7104461BF036FA204610BD0F
:1053400010B50446FEF761FD04F58052D2ED437AB4
:105350009FED906AB8EEE77A27EE067AB5EEC07A4E
:10536000F1EE10FAC0F29E80F6EE007A37EE277A60
:10537000FDEEC77A17EE903AD2ED337AF8EEE77A7F
:10538000002B67EE867AB8BF5B42F5EEC07AF1EE8D
:1053900010FAC2F81031C0F29980B6EE007A77EEBA
:1053A000877AFDEEE77A17EE903AD2ED137A9FED09
:1053B0007A7AF8EEE77A002B67EE877AB8BF5B421D
:1053C000F5EEC07AF1EE10FAC2F8D030C0F2928059
:1053D000B6EE007A77EE877AFDEEE77A17EE903A2E
:1053E000002BB8BF5B421365D4F83C3D9FED6B6A60
:1053F00007EE903AB8EEE77A27EE067AB5EEC07A75
:10540000F1EE10FAC0F28A80F6EE007A37EE277AD3
:10541000FDEEC77A17EE903A002BB8BF5B42C4F896
:10542000403DD4F8B03C07EE903AF8EEE77A67EEEC
:10543000867AF5EEC07AF1EE10FAC0F28380B6EE0D
:10544000007A77EE877AFDEEE77A17EE903A002B36
:10545000B8BF5B42C4F8B43CD4F8303C9FED507AFE
:1054600007EE903AF8EEE77A67EE877AF5EEC07AC3
:10547000F1EE10FA7ADBB6EE007A77EE877AFDEE7F
:10548000E77A17EE903A002BB8BF5B4204F658500B
:10549000C4F8343C0CF003FE04F1CC00BDE810402D
:1054A0000CF0FDBDFDEEC76AF8EEE67A16EE903A16
:1054B00037EE677AF7EE087A37EE277A013BBDEED2
:1054C000C77A17EE101A19440B4655E7BDEEE77A76
:1054D000F8EEC76A17EE103A77EEE67AF7EE086A4A
:1054E00077EEA67A013BFDEEE77A17EE901A1944A3
:1054F0000B465AE7BDEEE77AF8EEC76A17EE103AA8
:1055000077EEE67AF7EE086A77EEA67A013BFDEED3
:10551000E77A17EE901A19440B4661E7FDEEC76A69
:10552000F8EEE67A16EE903A37EE677AF7EE087AFA
:1055300037EE277A013BBDEEC77A17EE102A1A44E0
:10554000134669E7BDEEE77AF8EEC76A17EE103A40
:1055500077EEE67AF7EE086A77EEA67A013BFDEE83
:10556000E77A17EE902A1A44134670E7BDEEE77A01
:10557000F8EEC76A17EE103A77EEE67AF7EE086AA9
:1055800077EEA67A013BFDEEE77A17EE902A1A44F1
:10559000134678E70AD7233C0AD7A33BCDCCCC3DB2
:1055A000CDCC4C3D13B50A4B0A4A1B680193044607
:1055B000042100F5A35001AB08440EF053FF04F59D
:1055C00094500C3002B0BDE810400CF068BD00BF34
:1055D000D8460020E036020837B5114D114A2B6835
:1055E0000193044600F5A15001AB082110300EF0E4
:1055F00039FF6B680B4A0193082101AB04F5A250F7
:105600000EF030FF04F58F5014300CF048FD04F517
:105610008D50083003B0BDE830400CF040BD00BFF5
:105620005C3C00202336020838B5244B93ED007A09
:10563000D0F88C3D07EE903AF8EEE77A2DED028B2C
:1056400067EE877A0446F5EEC07AF1EE10FA00F6BE
:1056500058551EDBB6EE007A77EE877AFDEEE77AD4
:1056600017EE901A284607F03DF9236820469B6CF8
:10567000984723682046DB6CB0EE408A984728465E
:10568000F0EE400AB0EE480AFEF780F8BDEC028B5F
:1056900038BDBDEEE77AF8EEC76A17EE103A77EE3E
:1056A000E67AF7EE086A77EEA67A591EFDEEE77AFB
:1056B00017EE903A0B441946D4E700BF5C3C00203B
:1056C00070B5D0ED407A564DF8EEE77A95ED007A58
:1056D00067EE877A2DED028BF5EEC07AF1EE10FAC7
:1056E000044600F1CC0657DBB6EE007A77EE877AF7
:1056F000FDEEE77A17EE901A304607F0F3F8D5ED95
:10570000007AB0EE000AF4EEC07AF1EE10FA48BF6B
:1057100095ED000A434DB2EE048A20EE080A1BF014
:10572000ADF8F0EE408A95ED010A20EE080A1BF074
:1057300063F83046C0EE080A88EE880AFEF726F8BD
:10574000D5F8783AB3F5077F3ADDD5F8782A40F6F0
:10575000D3539A4234DC3C2200213046FDF780FFCF
:10576000D4F8702CD4F8F03C0A214A43002AB8BF80
:105770005242C4F8742CD4F8F02B5200002AB8BF5F
:105780005242C4F8F42B4B43002BB8BF5B42C4F821
:10579000F43CBDEC028B70BDBDEEE77AF8EEC76A53
:1057A00017EE103A77EEE67AF7EE086A77EEA67A09
:1057B000591EFDEEE77A17EE903A0B4419469BE727
:1057C000D5F8782A40F6D4539A4202DDD5F8801AEB
:1057D00051B1D5F8803A002BDBD04FF4167200217E
:1057E0003046FDF73DFFD4E7EA683C256A43304682
:1057F000FDF736FFD4F8702C6A43002AB8BF524236
:10580000C4F8742CD4F8F02B0A235A43002AD4F895
:10581000F03CB8BF5242C4F8F42B6B43B4E700BF6E
:10582000E04600205C3C002010B50446FEF79AFCE0
:10583000014B2360204610BDEC360208F020704773
:105840004FF4A07070472920FCF744B92820FCF7DA
:1058500041B908B5FCF712F9CA20FCF73BF9C3209F
:10586000FCF71CF90820FCF719F95020FCF716F991
:10587000CF20FCF72FF90020FCF710F9C120FCF72E
:105880000DF93020FCF70AF9ED20FCF723F964202C
:10589000FCF704F90320FCF701F91220FCF7FEF8ED
:1058A0008120FCF7FBF8E820FCF714F98520FCF7D1
:1058B000F5F80020FCF7F2F87820FCF7EFF8CB20A1
:1058C000FCF708F93920FCF7E9F82C20FCF7E6F89A
:1058D0000020FCF7E3F83420FCF7E0F80220FCF7A6
:1058E000DDF8F720FCF7F6F82020FCF7D7F8EA20DF
:1058F000FCF7F0F80020FCF7D1F80020FCF7CEF818
:10590000B120FCF7E7F80020FCF7C8F81B20FCF7F3
:10591000C5F8B620FCF7DEF80A20FCF7BFF8A22095
:10592000FCF7BCF8C020FCF7D5F81020FCF7B6F85F
:10593000C120FCF7CFF81020FCF7B0F8C520FCF729
:10594000C9F84520FCF7AAF81520FCF7A7F8C720EE
:10595000FCF7C0F89020FCF7A1F83620FCF7BAF865
:10596000C820FCF79BF8F220FCF7B4F80020FCF705
:1059700095F8B020FCF7AEF8C220FCF78FF8B620FF
:10598000FCF7A8F80A20FCF789F8A720FCF786F8AE
:105990002720FCF783F80420FCF780F82A20FCF786
:1059A00099F80020FCF77AF80020FCF777F800203F
:1059B000FCF774F8EF20FCF771F82B20FCF78AF85D
:1059C0000020FCF76BF80020FCF768F80120FCF7DA
:1059D00065F83F20FCF762F8F620FCF77BF8012021
:1059E000FCF75CF80020FCF759F80620FCF756F8A5
:1059F0002C20FCF76FF8C820FCF7BAF82620FCF73B
:105A000069F80120FCF74AF8E020FCF763F80F2062
:105A1000FCF744F82920FCF741F82420FCF73EF875
:105A20000C20FCF73BF80E20FCF738F80920FCF7B7
:105A300035F84E20FCF732F87820FCF72FF83C20A0
:105A4000FCF72CF80920FCF729F81320FCF726F8BE
:105A50000520FCF723F81720FCF720F81120FCF7AD
:105A60001DF80020FCF71AF8E120FCF733F80020BD
:105A7000FCF714F81620FCF711F81B20FCF70EF8C1
:105A80000420FCF70BF81120FCF708F80720FCF7BE
:105A900005F83120FCF702F83320FBF7FFFF422026
:105AA000FBF7FCFF0520FBF7F9FF0C20FBF7F6FFE7
:105AB0000A20FBF7F3FF2820FBF7F0FF2F20FBF76E
:105AC000EDFF0F20FBF7EAFF1120FCF703F8C820D9
:105AD000FCF74EF82920FBF7FDFFBDE808402C201D
