:020000040800F2
:1000000000000320950500082D1D00082F1D000885
:10001000311D0008331D0008351D000800000000D8
:10002000000000000000000000000000916A0008CD
:10003000371D000800000000216B0008856B0008D8
:10004000E5050008E5050008E5050008E5050008E8
:10005000E5050008E5050008E5050008E5050008D8
:10006000E5050008E5050008E5050008E5050008C8
:10007000E5050008E5050008E5050008E5050008B8
:10008000E5050008E5050008E5050008E5050008A8
:10009000E5050008E5050008E5050008E505000898
:1000A000E5050008E5050008E5050008E505000888
:1000B000E5050008E5050008E5050008E505000878
:1000C000E5050008E5050008E5050008E505000868
:1000D000E5050008E5050008E5050008E505000858
:1000E000E5050008E5050008E5050008E505000848
:1000F000E5050008E5050008E5050008E505000838
:10010000E5050008E5050008E5050008E505000827
:10011000E5050008E5050008391D0008451D000833
:10012000E5050008E5050008E5050008E505000807
:10013000E5050008E5050008E5050008E5050008F7
:10014000E5050008E5050008E5050008E5050008E7
:10015000E5050008E5050008E5050008E5050008D7
:10016000E5050008E5050008E5050008E5050008C7
:10017000E5050008E5050008E505000800000000A9
:10018000E5050008E5050008E5050008E5050008A7
:10019000E5050008E5050008E5050008E505000897
:0C01A000511D0008E50500085D1D000869
:1001B00010B5054C237833B9044B13B10448AFF3A1
:1001C00000800123237010BD6C010020000000009E
:1001D00004C3010808B5034B1BB103490348AFF33F
:1001E000008008BD000000007001002004C3010869
:1001F00001F0FF01102A2BDB10F0070F08D010F8D8
:10020000013B013A8B422DD010F0070F42B3F6D1DB
:10021000F0B441EA012141EA014122F007047FF0F4
:1002200000070023F0E80256083C85EA010586EA4B
:10023000010685FA47F5A3FA87F586FA47F6A5FA87
:1002400087F68EB9EED1F0BC01F0FF0102F0070293
:1002500032B110F8013B013A83EA010313B1F8D13E
:100260000020704701387047002D06BF354603381F
:10027000073815F0010F07D1013015F4807F02BF58
:10028000013015F4C03F0130F0BC0138704700BFA9
:1002900053B94AB9002908BF00281CBF4FF0FF31ED
:1002A0004FF0FF3000F074B9ADF1080C6DE904CEE9
:1002B00000F006F8DDF804E0DDE9022304B0704741
:1002C0002DE9F047089D04468E46002B4DD18A4209
:1002D000944669D9B2FA82F252B101FA02F3C2F13C
:1002E000200120FA01F10CFA02FC41EA030E9440CD
:1002F0004FEA1C48210CBEFBF8F61FFA8CF708FBEE
:1003000016E341EA034306FB07F199420AD91CEBC5
:10031000030306F1FF3080F01F81994240F21C81F7
:10032000023E63445B1AA4B2B3FBF8F008FB10333F
:1003300044EA034400FB07F7A7420AD91CEB040474
:1003400000F1FF3380F00A81A74240F20781644444
:10035000023840EA0640E41B00261DB1D4400023C9
:10036000C5E900433146BDE8F0878B4209D9002D2D
:1003700000F0EF800026C5E9000130463146BDE8B7
:10038000F087B3FA83F6002E4AD18B4202D3824221
:1003900000F2F980841A61EB030301209E46002DD0
:1003A000E0D0C5E9004EDDE702B9FFDEB2FA82F225
:1003B000002A40F09280A1EB0C014FEA1C471FFA83
:1003C0008CFE0126200CB1FBF7F307FB131140EA6A
:1003D00001410EFB03F0884208D91CEB010103F137
:1003E000FF3802D2884200F2CB804346091AA4B2F9
:1003F000B1FBF7F007FB101144EA01440EFB00FECD
:10040000A64508D91CEB040400F1FF3102D2A64531
:1004100000F2BB800846A4EB0E0440EA03409CE7D0
:10042000C6F12007B34022FA07FC4CEA030C20FA7D
:1004300007F401FA06F31C43F9404FEA1C4900FA9D
:1004400006F3B1FBF9F8200C1FFA8CFE09FB18111A
:1004500040EA014108FB0EF0884202FA06F20BD98D
:100460001CEB010108F1FF3A80F08880884240F2DD
:100470008580A8F102086144091AA4B2B1FBF9F021
:1004800009FB101144EA014100FB0EFE8E4508D91C
:100490001CEB010100F1FF346CD28E456AD90238A1
:1004A000614440EA0840A0FB0294A1EB0E01A14286
:1004B000C846A64656D353D05DB1B3EB080261EBF4
:1004C0000E0101FA07F722FA06F3F1401F43C5E9CE
:1004D000007100263146BDE8F087C2F12003D84004
:1004E0000CFA02FC21FA03F3914001434FEA1C4746
:1004F0001FFA8CFEB3FBF7F007FB10360B0C43EA38
:10050000064300FB0EF69E4204FA02F408D91CEBE7
:10051000030300F1FF382FD29E422DD902386344E5
:100520009B1B89B2B3FBF7F607FB163341EA034185
:1005300006FB0EF38B4208D91CEB010106F1FF38D4
:1005400016D28B4214D9023E6144C91A46EA0046CB
:1005500038E72E46284605E70646E3E61846F8E65D
:100560004B45A9D2B9EB020864EB0C0E0138A3E7A6
:100570004646EAE7204694E74046D1E7D0467BE787
:10058000023B614432E7304609E76444023842E7FF
:10059000704700BFDFF834D0002103E00C4B5B58FC
:1005A000435004310B480C4B42189A42F6D30B4A85
:1005B00002E0002342F8043B094B9A42F9D303F0CE
:1005C00027FB1AF0C3FE00F00DFE70470000032069
:1005D000C0E70508000000206C0100206C0100202D
:1005E000242A0120FEE700F005BC00F073BC704730
:1005F00010B5042104461AF03BFD204610BD000052
:1006000038B50C4B0C4C18800C4B82201980636859
:10061000984740F6110398420AD1094D23682C608F
:10062000822098472B688220DB689847002038BDDD
:100630000120FCE788010020540000208A010020EE
:100640008C0100204FF4A071F020FFF7D9BF00000B
:10065000F7B52D4D2B6804461B698220984780B260
:100660002080002843D02B680DF106025B6901A9A8
:1006700082209847BDF80620A2F5B47292B20A2AE9
:1006800037D90B23B2FBF3F2204B1B889A4201D9D6
:10069000013B9AB2BDF8043040F6B8318B422AD8FB
:1006A000C3F571630E339BB20F21B3FBF1F318490D
:1006B00009888B4201D94B1E9BB2164E164D3068ED
:1006C0002F68834281B28CBF591AC91AB8B2BA4294
:1006D0008CBF101A801A89B280B201440529C8BFA4
:1006E00033603368C8BF2A6063802B68A38003B07F
:1006F000F0BD0022CEE7C3F56D6308339BB20E2B2D
:10070000D2D80023D9E700BF8C0100208A01002045
:1007100088010020900100209401002037B5684630
:100720000D461446FFF794FFBDF8000030B1BDF848
:1007300002302B60BDF804302360012003B030BDCF
:10074000704770477047012380F8741080F8753047
:100750007047002070470000034B4164003918BF08
:1007600001211970704700BF7F27012000207047CA
:10077000836B0BB10846184770474FF6FF70704700
:10078000406803689B69184770477047704700F0DE
:1007900041BC08B503680446D3F880309847236805
:1007A00020469B6F984700F0EBF8236820461B6FAC
:1007B0009847292000F08AFF00F0E2F823682046DD
:1007C0001B6F9847F8E710B5044608F047FF236809
:1007D0002046D3F8AC30BDE81040184700F00CBC00
:1007E00000F010BC00F03CBC00F0E2BB00F03CBCF0
:1007F00000F044BC00F0E6BB08F0A4B910B57C21C1
:1008000004461AF035FC204610BD90F877301BB135
:10081000406803681B6818471846704710B590F881
:10082000341090F874400C4B8C421A7809D03AB9C5
:100830000A4A0B491488088810800C8001221A701B
:1008400010BD002AFCD0054A05491488088810808C
:100850000C800022F3E700BF7827012074270120D5
:100860007627012070B50D46194635B9094B0A4A5D
:100870000A4840F2D2211AF029FCC0E90F52084B75
:10088000003A18BF01221A700368BDE87040D3F81F
:100890008C30184774C30108ACC30108FAC30108BF
:1008A0007E27012008B5094B1B888B4203D8084BD3
:1008B0001B88934205D9074B074A08489E211AF026
:1008C00005FC074B1980074B1A8008BD74270120CF
:1008D000762701203FC40108A2C40108FAC3010819
:1008E0007A2701207C270120012108B50022084633
:1008F00005F0A2FD0A4B186028B90A4B0A4A2921C3
:100900000A481AF0E3FB00220421012005F05AFEF8
:10091000074B186018B9074B034A2D21F0E708BDB3
:100920009C010020C0C5010809C6010838C601089D
:100930009801002086C60108024B4FF0FF3118686D
:1009400005F0D0BD9C010020014B186805F004BEE5
:100950009C010020024B0021186805F0C3BD00BFB8
:100960009C010020FFF7F0BF034804490068002302
:100970001A4605F06DBE00BF98010020040000205B
:1009800013B5084C00231A4601A9206805F0A2FE01
:1009900020684FF0FF33002201A905F09BFE02B052
:1009A00010BD00BF9801002003685B6C1847012050
:1009B000704703689B6A184782B0002301930D4B70
:1009C0001A6B42F400021A631A6B02F400020192DD
:1009D000019A1A6942F400021A611A6922F40002AB
:1009E0001A61054B054A1A61054B4FF080629A6007
:1009F00002B070470038024070160020450A000817
:100A000000E100E040F2EF3070470000054B03606A
:100A1000054B4FF08062C3F88820BFF34F8FBFF3C0
:100A20006F8F704724C8010800E100E010B504464C
:100A30004FF45A61FFF7EAFF20461AF019FB2046EF
:100A400010BD0000024B1B68586803685B691847BB
:100A50008027012070B5044625460A4B0C3000263D
:100A600060602672667245F8203B6022294608F0D5
:100A700033FF04F55A63EE602435AB42FBD12046C8
:100A800070BD00BF24C8010808B50B290BD8DFE8EA
:100A900001F01206100A0A0A0A08080808080120CC
:100AA00008BD0520FCE7054B054A064867211AF0FA
:100AB0000DFB0020F4E70220F2E700BFC8C60108E2
:100AC000E3C601082DC7010808B50A2909D8DFE8DF
:100AD00001F010060E0808080806060606000120A8
:100AE00008BD054B054A064888211AF0EFFA002098
:100AF000F6E70220F4E700BFC8C6010879C701087D
:100B00002DC701082DE9F8434F7F0C463946814631
:100B1000FFF7BAFF94F81E80054641464846FFF7A6
:100B2000B3FF414606464846FFF7CEFFA18A628BD7
:100B3000424B521A1A649A61228B521A1A61E28A43
:100B4000586342EA01425A6420696268D863DA60F5
:100B5000216894F81CC080294FEA0C6226D010D876
:100B6000202945EA020461D040295FD004295DD0E4
:100B7000324B2A4342F400324745DA615AD0304AB8
:100B800040E0B1F5807F07D0B1F5007FF0D142F4AD
:100B9000003242F0090203E042F4003242F00A025D
:100BA000DA61E2681A625E6258612AE0A4682A4348
:100BB00042F40032211DD962DA6122785E62586106
:100BC00042B1012A21D01F4B1F4A20484FF489719E
:100BD0001AF07CFADA69618822F47F42013922F046
:100BE000100242EA0122DA610120144BDA6942F074
:100BF0002002DA61DA699206FCD410229A60002899
:100C0000BDD0134A1A60BDE8F8836288D969541EC2
:100C100021F47F4222F0100242EA0422BCF1FF00DC
:100C200042F0100218BF0120DA61DEE744F400341C
:100C3000DC61B8E740F20122E4E700BF00B0024007
:100C400001020100C4C70108DEC701082DC7010861
:100C50000102020070B50C46897FFFF735FFA68AB6
:100C6000E18A628B154B2569586341EA0641921B64
:100C70005964DD631A642668E168082E0DD19A6113
:100C80001A615862207F0E4A42EA0062DA610D4A18
:100C900019625D61DD601A6070BD0022D8611A6161
:100CA00048090A0A02F4784200F4FC600243C1F3E6
:100CB000C4010A439A63044AEDE700BF00B0024052
:100CC0000900010001020200010203000120704737
:100CD00038207047382303FB010008307047382361
:100CE00003FB010008307047012070474FF47E700D
:100CF00070474FF47E7303FB0100083070474FF4D8
:100D00007E7303FB010008307047012070471020FC
:100D1000704700EB01100830704700EB01100830FD
:100D20007047084601F0D4BA10B5034B036004467F
:100D300007F055FC204610BDDCC8010810B504467C
:100D4000FFF7F2FF204640211AF092F9204610BD2D
:100D500010B5034B0360044607F041FC204610BD6C
:100D6000A8C8010810B50446FFF7F2FF20464FF46B
:100D700080611AF07DF9204610BD000010B5034BCC
:100D80000360044607F02BFC204610BD74C8010820
:100D900010B50446FFF7F2FF204618211AF068F953
:100DA000204610BD10B5084B0360044600F22C40ED
:100DB000FFF7BAFF04F12C00FFF7CAFF04F114009B
:100DC000FFF7DCFF204610BD10C9010808B5024836
:100DD000FFF7E8FF08BD00BFA401002010B50446DE
:100DE000FFF7E0FF20464FF4B9611AF041F92046C1
:100DF00010BD00002DE9F34101F024F8054601F093
:100E000025F80024014623462846224600940EF089
:100E100023FB254B254A264D1A60204602F0FAFA9C
:100E200024480EF081FA2B78BFF35B8FDB0735D4B3
:100E300028461AF01FF988B31F4C204B236004F595
:100E40008E6604F1140004F12C0804F22C47606053
:100E5000C4F80880E760266107F0C2FB184B6361A5
:100E6000404607F0BDFB174BE362384607F0B8FB7E
:100E7000154BC4F82C3404F26C4002F047FB2246B8
:100E800004F26C41304602F037FB304601F020FAA4
:100E90000E481AF039F928461AF0F8F80C4802B052
:100EA000BDE8F041FFF773BCDC2701208C15002062
:100EB000A001002008000020A401002010C90108A2
:100EC00074C80108A8C80108DCC80108CD0D0008D5
:100ED000101500200148FFF75CBC00BF1015002072
:100EE00070B5234C234E244B244D23603046FFF72E
:100EF000B1FD284611F0BAFB214B2248DC60224CA0
:100F000003600022F0204FF480712080C3E91212A8
:100F10001E4C1F492080C3E919121E4C1A864FF03F
:100F200080714FF4A07059670121C3E90422C3E91D
:100F30000622C3E90822C3E90A22C3E90E22C3E953
:100F40001022C3E91422C3E916221A6683F86C2022
:100F50001A67C3E9016583F8781020800E4C83F886
:100F6000341020800D4802700D4A1A6070BD00BF19
:100F70006C0700207007002064C301089015002052
:100F80001015002080270120742701207A270120D6
:100F900001000001762701207C270120782701200D
:100FA000F0C401080148FFF731BD00BF7007002001
:100FB000034B902283F85A2383F85823704700BFCD
:100FC00000E100E0094A0A49D3680A48C3F30A036A
:100FD000013B9BB20B801169C1F30A010139018009
:100FE0001364536B43F0010353637047006801407F
:100FF0000C1600200A160020014BD3F8AC007047F5
:1010000000680140024B0122C3F8AC105A627047DD
:101010000068014070B5044607F0E9FD23685D6E85
:101020000BF0C8F801462046A8472368054AD3F8C4
:1010300088502046AC460023BDE87040A2F516312A
:10104000604700BF005802D007F0B8BD90F84B30A1
:1010500013B1024B01221A7007F0BCBD0816002024
:1010600007F076BD07F0CFBE034B4FF080629A6069
:101070004FF080729A60704700E100E0084B4FF03B
:101080008062C3F88820BFF34F8FBFF36F8F4FF09C
:101090008072C3F88820BFF34F8FBFF36F8F704704
:1010A00000E100E010B5144C236823B3134B144A3D
:1010B0001B6C11888B4213D1124B198803F0D4FF9B
:1010C000226892F86630013382F86630FFF74CFCF4
:1010D000206808F0C3FABDE810400020FFF730BBDD
:1010E00003F0C2FF206803681B6A9847BDE8104000
:1010F0000020FFF726BB10BD8027012000680140BB
:101100000C1600200A16002007B5064BADF80600A5
:101110001B68054801220DF1060104F0A6FC03B08E
:101120005DF804FB14000020E0170020F0B5A1B02A
:10113000102200210AA81AF04FF91422002103A856
:101140001AF04AF90021302214A81AF045F90024B7
:10115000224B01941A6C42F080521A641B6C03F00B
:1011600080530193019B1E4B02941A6842F4404243
:101170001A601B6803F4404302930122029B4FF460
:101180008033CDE9082302254FF48003CDE90E53C7
:1011900008274FF4A873042608A8CDE91073129508
:1011A000139603F07FFF0F23CDE903354FF4A051D1
:1011B0004FF48053CDE9061303A80521059404F0EC
:1011C00049F9C023189314A84FF4003314971A96C2
:1011D0001D9304F009FA21B0F0BD00BF00380240B1
:1011E000007000402DE980489BB002F01FFDFFF722
:1011F0009DFF142200210DA800241AF0EDF8C44B25
:1012000000941A6BC348C44D42F020021A631A6B53
:1012100002F020020092009A01941A6B42F08002C0
:101220001A631A6B02F080020192019A02941A6BFF
:1012300042F004021A631A6B02F004020292029A4C
:1012400003941A6B42F001021A631A6B02F0010256
:101250000392039A04941A6B42F002021A631A6B07
:1012600002F002020492049A05941A6B42F04002C2
:101270001A631A6B02F040020592059A06941A6BE3
:1012800042F010021A631A6B02F010020692069ADC
:1012900007941A6B42F008021A631B6B03F00803F1
:1012A000079322460421079B03F000F99B4822463E
:1012B0004FF4805103F0FAF8224699484FF4405118
:1012C000012603F0F3F802274FF0040991480F9428
:1012D0000DA9CDE90D96109703F000F84FF4805258
:1012E0008E480DA9CDE90D26CDE90F4402F0F6FF99
:1012F0000DA94FF440528A48CDE90D26CDE90F479C
:1013000002F0ECFF8748884A026002F0DBFE874B60
:10131000874A2C62C5E9003228464FF48042C5E96D
:101320000424C5E90244C5E9064403F0A1FA1021EA
:10133000284603F0DDFC2146284603F0F8FC7D48F2
:101340007D4984624FF48272C0E900124FF4007547
:101350001822C0E906520A22784DC262C0E902444E
:10136000C0E90444C0E9084404F042FB744A0D9704
:10137000C5E900264FF0100B4022C5E904B24FF436
:10138000C072C5E906244FF4006207234FF0030A38
:10139000C5E908240DA94FF400522846CDE90E39BD
:1013A00010934FF00808C5E90249AA62CDE911A7D8
:1013B000139704F043FA4FF6FF7209A92846CDE9C6
:1013C0000A86089409960C9404F058FA304602F004
:1013D00059FC4FF6FF7209A92846CDE90978CDE9F5
:1013E0000B6404F04BFA4FF6FF7209A92846CDE9C9
:1013F00009A8CDE90B9404F041FA4FF40C7208925D
:10140000089B0C934FF6FF7209A92846CDE909986D
:101410000B9604F033FA40F26A51284604F045FA7C
:10142000342221460DEB020019F0D6FF454D464B04
:10143000AC86C5E900340923C5E905361D2340F211
:101440000D1CC5E9073A40F24313C5E909C340F250
:10145000171E40F247132846C5E90BE3C5E90244CD
:101460002C6185F8364003F007FDFF21F022CDE91D
:1014700012144FF005084FF480614FF4A073CDE9CA
:101480000E24CDE91418CDE916420DA922462846AE
:10149000CDE910372D4D18930D94ADF864408DF8BB
:1014A000664003F0B4FD2A4B2B601B68DFF8B49054
:1014B000DFF8B4A098472B68264DDB689847264B89
:1014C000C5E90A47C5E90C442846C5E90034C5E921
:1014D000027402F007FE3146284602F0BBFE1F4DA3
:1014E0005A4621460DA819F077FF4FF48033C5E91D
:1014F000009328461A4BAB62AC602C612C7685F8C1
:101500002040EC62EC60EE6185F830406E612DE0C9
:101510000038024000080240B016002000040240DB
:10152000000C02406816002000300240005C0040C1
:10153000A0860100E017002000500140AC170020F9
:10154000400100A004170020006801401816002088
:101550001C0000207016002000B002402016002061
:101560000100000F002001400014004002F09EFB2B
:1015700007230DA92846154D0F93CDE90D8602F0DE
:10158000B3FC42F2CF03C5E900A3284642F20F7331
:10159000EB60CDE90D44AC60AC6104F0C3FD0DA976
:1015A0002846CDE90D4404F0D7FDFFF71CF8284686
:1015B00004F09BFC04F0B0FE054A0648214604F006
:1015C000E5FE054B186004F0C1FEFEE73818002068
:1015D00028C90108EB050008141600207047704761
:1015E0007FB5094B8DF817201B6802930DF1170288
:1015F0000123009201930A460146044803F0E0F9F2
:1016000007B05DF804FB00BF10000020B0160020FA
:101610007FB500238DF81730084B1B6802930A46EC
:1016200001230DF11701009101930146044803F0D5
:1016300057FA9DF8170007B05DF804FB1000002072
:10164000B01600201FB5084C24680092CDE9013483
:101650000A4601230146054803F042FA003818BF44
:10166000012004B010BD00BF10000020B016002003
:1016700002F008BB08B506480022042102F016FF5C
:10168000BDE8084002480122042102F00FBF00BF5C
:101690000008024038B50B4D044601220A484FF4B9
:1016A000005102F003FF00220421284602F0FEFE52
:1016B0002046FFF729FD28460122BDE838400421D5
:1016C00002F0F4BE00080240000C024038B50B4D99
:1016D000044600220A484FF4005102F0E7FE0022BF
:1016E0000421284602F0E2FE2046FFF70DFD2846C1
:1016F0000122BDE83840042102F0D8BE00080240B3
:10170000000C0240F7B5144E144F05460C46304607
:101710000022042102F0CAFE00224FF40051384694
:1017200002F0C4FE2846FFF7EFFC0D4B0D481B6886
:10173000224601A904F037FB384601224FF400513C
:10174000019C02F0B3FE30460122042102F0AEFEFD
:10175000204603B0F0BD00BF00080240000C02406C
:1017600014000020E017002002F08CBA0268114B30
:101770009A4213B5044601D102F072FA22680E4B68
:101780009A4215D10D4802F037FB0C4802F0A8FB35
:101790000190DDED017A9FED0A7A0A4BF8EE677A47
:1017A00067EE877A9FED087A67EE877AC3ED007A55
:1017B00002B010BD001000400014004020160020B0
:1017C0008FC235400C0000200000803982B00E4BE3
:1017D00000220092596C41F480415964596C01F423
:1017E0008041009100990192196C41F08051196477
:1017F0001B6C03F080530193019B0F216FF00100DC
:1018000002B002F01FBC00BF0038024010B5044611
:1018100088B01422002103A819F0DEFD2268124BC3
:101820009A421ED103F58C33002101915A6C0F4866
:1018300042F480725A645A6C02F480720192019AE6
:1018400002911A6B42F001021A631B6B03F0010351
:101850000293029B2022032303A9CDE9032302F074
:101860003DFD08B010BD00BF002001400000024057
:101870000268094B9A4282B00BD100230193074BB7
:101880001A6B42F480521A631B6B03F4805301936A
:10189000019B02B0704700BF003002400038024098
:1018A00007B50F4B02689A4216D10022A3F5F04308
:1018B0000192196B41F4000119631B6B03F40003DF
:1018C000019305215A20019B02F0BCFB5A2003B072
:1018D0005DF804EB02F0E8BB03B05DF804FB00BF69
:1018E00000B002402DE9F043044689B014220021E3
:1018F00003A819F071FD2268244B9A4243D1244C6D
:10190000244800250095236B43F004032363236BD5
:1019100003F004030093009B0195236B43F0010344
:101920002363236B03F001030193019B4FF0120922
:101930004FF400734FF001080327042603A9CDE9F3
:101940000339CDE90587079602F0C8FC4FF4807390
:101950001148079603A9CDE90339CDE9058702F0BF
:10196000BDFC0295236C43F400032364236C03F451
:1019700000030293029B236A43F400032362236A59
:1019800023F40003236209B0BDE8F083005C00404B
:10199000003802400008024000000240F0B5044652
:1019A0008DB01422002107A819F016FD2268574BAC
:1019B0009A4240F0A88003F55043002500955A6CE8
:1019C000534842F080625A645A6C02F0806200927E
:1019D000009A01951A6B42F020021A631A6B02F00A
:1019E00020020192019A02951A6B42F001021A63D9
:1019F0001A6B02F001020292029A03951A6B42F0EE
:101A000002021A631A6B02F002020392039A04950F
:101A10001A6B42F040021A631A6B02F04002049201
:101A2000049A05951A6B42F004021A631A6B02F0CD
:101A300004020592059A06951A6B42F008021A6391
:101A40001B6B03F00803069302240E26069B0A94E0
:101A50004FF4806307A9CDE907340B9602F03EFCF2
:101A600041F658032B480B9607A9CDE907340927FF
:101A7000CDE9095402F032FC032327480B9707A94C
:101A8000CDE90734CDE9095402F028FC4FF4706326
:101A900021480B9607A9CDE90734CDE9095402F096
:101AA0001DFC4FF40C631D480B9607A9CDE90734C4
:101AB000CDE9095402F012FCC02319480B9607A97E
:101AC000CDE90734CDE9095402F008FC0823154894
:101AD0000B9607A9CDE90734CDE9095402F0FEFBC6
:101AE0004FF4A0530D480B9707A9CDE90734CDE972
:101AF000095402F0F3FB58202A46052102F0A2FA0D
:101B0000582002F0D1FA0DB0F0BD00BF00680140CE
:101B1000001402400000024000040240001802408D
:101B200000080240000C024010B5044688B01422A0
:101B3000002103A819F050FC2268144B9A4223D1CB
:101B400003F56843002101915A6C114842F4801258
:101B50005A645A6C02F480120192019A02911A6B33
:101B600042F020021A631B6B03F020030293029BD6
:101B70004FF4607202230321CDE903230523CDE94D
:101B8000061303A902F0AAFB08B010BD00500140E3
:101B90000014024007B50F4B02689A4216D100228A
:101BA00003F509330192196C41F0200119641B6C93
:101BB00003F02003019305213720019B02F042FA34
:101BC000372003B05DF804EB02F06EBA03B05DF8A5
:101BD00004FB00BF001400402DE9F04186B0002353
:101BE00003932B4B1C68002C4FD14FF00108C3F816
:101BF0000080284B00949A6B274842EA08029A63B7
:101C00009B6B03EA08030093022703260C25009B25
:101C100001A94FF63F03CDE90137CDE9046502F094
:101C20005DFB1E48059501A9CDE90187CDE9034675
:101C300002F054FB48F233131948059501A9CDE988
:101C40000137CDE9034602F049FB4FF6837315488F
:101C5000059501A9CDE90137CDE9034602F03EFB28
:101C60004CF203731048059501A9CDE90137CDE980
:101C7000034602F033FB60230C48059501A9CDE92A
:101C80000137CDE9034602F029FB06B0BDE8F0813B
:101C9000781800200038024000140240000802407A
:101CA0000018024000100240000C024000040240F4
:101CB00030B5014689B00022362002F0C3F9362043
:101CC00002F0F2F90025154B02951A6C144C42F003
:101CD00010021A641B6C03F01003029301A903A8FD
:101CE000029B03F063FC03F051FC0E4B236040F2B7
:101CF000E733E36040000C4BB0FBF3F00138606069
:101D000020462561A56004F00DFA20B9204604F0B4
:101D1000ECF809B030BD0120FBE700BF00380240FD
:101D20007C1800200010004040420F007047FEE782
:101D3000FEE7FEE7FEE77047014804F0EAB800BF9F
:101D40007C180020014804F0E4B800BF38180020D7
:101D5000014803F0FFB800BF04170020014802F05B
:101D6000EFB900BF701600200120704708B519F0C8
:101D7000DFF9162303604FF0FF3008BD08B519F0F6
:101D8000D7F916230360FEE770B50D4614460E46DC
:101D9000731B9C4201DC204670BDAFF3008006F847
:101DA000010BF5E770B50D4614460E46731B9C42B9
:101DB00001DC204670BD16F8010BAFF30080F5E79B
:101DC0004FF0FF3070474FF400534B6000207047D6
:101DD00001207047002070470A4A116808B5034681
:101DE00009B9094911601068694603448B4206D954
:101DF00019F09EF90C2303604FF0FF3008BD13600B
:101E0000FCE700BFBC180020282A0120704710B54D
:101E10000421044619F02CF9204610BD012908B50B
:101E200006D0022908D059B901F040FB006808BD6E
:101E300001F03CFB4068FAE701F038FB8068F6E708
:101E40000020F4E70048704760C901080620704789
:101E500013B5002451B1036801948DF8034001AA21
:101E60009C680DF10303A04702B010BD0846FBE7D4
:101E7000408970478089704780887047837980885F
:101E8000184480B27047C07900F07F007047C07975
:101E9000C0097047704710B50821044619F0E8F8EA
:101EA000204610BD7047704700F596730868496872
:101EB00003C370470020704781807047C18070471E
:101EC0000181704741817047704770477047704784
:101ED000704710B4C4880368121B84885B6D091BAB
:101EE00012B25DF8044B09B218474FF6FF738381B5
:101EF0004FF0FF3303621368C3611060704770478F
:101F00007047416070477047064BC0F84831002366
:101F1000C0F84C3100F5A073C0F84401C0F83C3162
:101F2000704700BF3920000801230372704790F802
:101F300025201AB190F8242002B11860704770472C
:101F400070477047704701464068036810315B6E08
:101F5000184701464068036810311B6E18477047E8
:101F6000704710B50022B1F90840B1F90A1002809B
:101F700042808480C18010BD10B4C2684168541092
:101F8000034601EB6200D20748BF0A599B685DF81F
:101F9000044B48BFD358184743682BB183682BB90B
:101FA000C06800F001007047184670470120704774
:101FB00010B50C21044619F05BF8204610BD10B591
:101FC0001021044619F054F8204610BD10B54FF406
:101FD000AC71044619F04CF8204610BD10B53821FC
:101FE000044619F045F8204610BD10B528210446D6
:101FF00019F03EF8204610BD08B50AF0DBF8BDE840
:1020000008400AF07BBC90F8252012B103685B6998
:102010001847704710B50446D0F83C0158B1036822
:10202000DB68984738B1D4F83C0103689B6898474F
:102030000023C4F83C3110BD2DE9F14FD0E9545ACA
:102040000746A86803681B6A9847B0F57E7F05D2EB
:10205000454B464AA321464819F038F8686803689A
:102060001B6A98470F2803D8424B404AA421F2E745
:10207000E86803681B6A98470B2803D83E4B3B4A25
:10208000A521E8E7DFF8F8900AF094F80AF098F84C
:10209000D9F8000010B10368DB689847D9F8000050
:1020A00010B103681B689847DFF8D880D8F80000A3
:1020B00010B103685B699847D7F8380110B103681D
:1020C0005B689847D8F8000010B103681B68984710
:1020D000D7F8380110B103689B689847E86803682F
:1020E00000215B6A98474FF0000B244B03600446C5
:1020F000C0F804B080F808B0A868036859465B6A65
:102100009847064601F096FA6868036859465B6A84
:1021100098473146054601F017FAC9F80040C7F85C
:102120003851C8F80060E5B12B1DCAF8003033689B
:10213000C5F808A03046DB68F56398472B68284649
:102140001B689847214630460BF018FC2368204650
:102150001B69984723685B69204601B0BDE8F04FD2
:1021600018472B46E1E700BFE8C9010876CA010815
:102170007ACB0108C1CB010864CC0108A8CF0108C3
:10218000C0270120BC270120044B1B6893F8762050
:102190000AB1D86C00B99868704700BF8027012049
:1021A000F0B50446807A637A0130C0B2984289B0B3
:1021B000A07250D8B4F90C2000210BF0E5FB10F010
:1021C000010283B24DD04FF6FF710028D8BF0A46F6
:1021D0001344E381244E254F3188B4F818C0E389B5
:1021E000B7F90000ADF81E00CA1A606863445B1AB4
:1021F000ADF81C30036812B200251B692283ADF8CC
:102200001820ADF81A5006A99847A37A012B26D1B9
:10221000174B1B781BB3A169606904AB03C3154B53
:10222000186803681B6B98473388ADF81C303B88EF
:10223000ADF81E300390ADF81850ADF81A50FFF706
:10224000A3FFFF22036800920195DC68039904ABA9
:1022500006AAA04703E0012323720023A37209B05A
:10226000F0BDE081B6E700BF74270120762701208A
:102270007E27012080270120F8B5044617460E4628
:1022800009F0B8FF0E4B1C600E4B23600E4B00256F
:10229000C4E950350D4BC4E9525518680368294606
:1022A0009B68C4E94E55C4E954769847284601F026
:1022B000B1F8FFF769FF11F0C0FF2046F8BD00BF7D
:1022C000CC2701205CCF010844CF010880270120E2
:1022D000064BC0F848310023C0F84C3100F5A0731C
:1022E000C0F84401C0F83C31704700BF39200008F5
:1022F000064BC0F848310023C0F84C3100F5A073FC
:10230000C0F84401C0F83C31704700BFD124000838
:10231000064BC0F848310023C0F84C3100F5A073DB
:10232000C0F84401C0F83C31704700BF9523000855
:1023300037B504460023134A0260436003724172BA
:102340008372C4E90533C4E90733C4E90933C4E936
:102350000B33E3814FF4807363630B4B23610B4BAF
:10236000B3F900100A4BA181B3F90050103001906D
:10237000FFF7A6FD01982946FFF7A4FD204603B00C
:1023800030BD00BF34D00108CCCF01087427012034
:10239000762701202DE9F047D0E9544A0746A06886
:1023A00003681B6A9847AF2805D8424B424AA321CD
:1023B000424818F08BFE606803681B6A98470F2834
:1023C00003D83F4B3C4AA421F2E7E06803681B6A4C
:1023D0009847372803D83B4B374AA521E8E7DFF871
:1023E000E89009F0E7FE09F0EBFED9F8000010B123
:1023F0000368DB689847D9F8000010B103681B68D0
:102400009847DFF8C880D8F8000010B103685B690E
:102410009847D7F8380110B103685B689847D8F837
:10242000000010B103681B689847D7F8380110B155
:1024300003689B689847E068036800215B6A9847D7
:1024400014210546FFF774FFA068036800215B6A4A
:102450009847064601F032F96068036800215B6A1C
:1024600098473146044601F00FF9C9F80050C7F803
:102470003841C8F80060DCB1231DCAF80030336869
:10248000C4F808A03046DB68F46398472368204608
:102490001B689847294630460BF070FA2B6828468F
:1024A0001B6998472B6828465B69BDE8F0471847C9
:1024B0002346E2E7E8C9010807CD01087ACB010805
:1024C000C1CB010864CC0108C0270120BC27012032
:1024D0002DE9F047D0E9544A0746A06803681B6A13
:1024E0009847B0F57E7F05D2424B434AA32143482B
:1024F00018F0ECFD606803681B6A98470F2803D842
:102500003F4B3D4AA421F2E7E06803681B6A984705
:10251000372803D83B4B384AA521E8E7DFF8E89095
:1025200009F048FE09F04CFED9F8000010B103682C
:10253000DB689847D9F8000010B103681B6898471A
:10254000DFF8C880D8F8000010B103685B699847CD
:10255000D7F8380110B103685B689847D8F80000D5
:1025600010B103681B689847D7F8380110B10368A9
:102570009B689847E068036800215B6A98471421CC
:102580000546FFF7D5FEA068036800215B6A9847FF
:10259000064601F04FF86068036800215B6A9847BF
:1025A0003146044600F0D0FFC9F80050C7F8384162
:1025B000C8F80060DCB1231DCAF800303368C4F8E5
:1025C00008A03046DB68F4639847236820461B6800
:1025D0009847294630460BF0D1F92B6828461B69ED
:1025E00098472B6828465B69BDE8F04718472346A3
:1025F000E2E700BFE8C9010825CE01087ACB01084F
:10260000C1CB010864CC0108C0270120BC270120F0
:10261000006A7047406A704770478B8880690A6813
:10262000DB0A50F823001044704710B5C2B1137B89
:10263000B3B1547BD27A240204F4E0641443C26937
:1026400098B202EB840213888B4202D192F9020005
:1026500010BD05D8013880B204320028F3D1F7E765
:102660000020F5E710B52821044618F001FD2046AA
:1026700010BD000030B589B00446BDF85050069535
:10268000BDF84C5005959DF8405004959DF83C5080
:1026900003959DF8385002959DF8345001959DF8AA
:1026A000305000950AF0CAFD064B2360119BA361D0
:1026B000129BE361159B2362169B6362204609B05F
:1026C00030BD00BF58D00108806A7047704770471E
:1026D00070477047704730B50368018185B06D461B
:1026E0000146D3F8843004462846984795E8070009
:1026F0003C3484E8070005B030BD30B50368418143
:1027000085B06D460146D3F8843004462846984784
:1027100095E807003C3484E8070005B030BD00228E
:10272000028042808280C280704780F836107047F5
:1027300070B5036804461B6B154698472368294605
:1027400020465B6EBDE87040184700207047806CE3
:10275000704770477047704770477047704790F8F0
:102760002C304BB100F16C021268C2653BB100F134
:1027700074031B680366704700F16802F4E700F118
:102780007003F6E7704770477047704730B4C2680F
:1027900044685510034604EB6200D20748BF6259F3
:1027A0009B6830BC48BFD358184743682BB1836837
:1027B0002BB9C06800F0010070471846704701202F
:1027C000704730B4C26844685510034604EB620099
:1027D000D20748BF62599B6830BC48BFD3581847DE
:1027E00043682BB183682BB9C06800F001007047C3
:1027F000184670470120704790F82D3080F8A430BB
:1028000080F85A30704790F82D3080F85A30704771
:1028100010B504467C3094F82C303BB104F17A01B9
:1028200007F078FE2046FFF79AFF10BD04F178010B
:10283000F6E710B54C21044618F01AFC204610BDEE
:1028400010B57821044618F013FC204610BD10B5D1
:10285000A821044618F00CFC204610BD10B510212C
:10286000044618F005FC204610BD10B510210446A2
:1028700018F0FEFB204610BD10B54FF47E710446E3
:1028800018F0F6FB204610BD10B50446006B50B1A1
:102890000368DB68984730B1206B036821469B686A
:1028A000BDE81040184710BD00F1C402914202D1AA
:1028B0000368DB6A184700F5B672914202D10368DB
:1028C0001B6BF7E770470B7970B590F82C600446E6
:1028D0000D469BB98EB9B3FA83F35B0984F82C30AB
:1028E00023682046D3F88C309847236820465B69DC
:1028F000984716B12B79012B03D070BD002EFCD068
:10290000E9E723682046D3F88830BDE870401847CF
:10291000036870B55E6B124B1B6804468DB22BB911
:10292000104B114A6C21114818F0D0FB1049828DD0
:102930000988914203D80F4B0B4A6D21F3E713F836
:1029400012200D4B1B6853F822000368DB6A98477E
:10295000281A01B233462046BDE87040184700BF30
:10296000D0270120A8D00108EAD0010825D101080C
:10297000D42701206CD10108D827012000F52A7343
:102980008B4210B5044609D109F014FCFFF7C0FCD6
:10299000236820465B6BBDE81040184710BD00223D
:1029A0004FF0FF31C0E900218260704770B50368C5
:1029B00004461B6B154698472368294620465B6BE7
:1029C000BDE8704018470B882DE9F041A0F8783039
:1029D0001388B0F90850A0F87A30044610469046A3
:1029E0000CF04EFDB4F90A30074603EBD3734046B2
:1029F000C3F34F060CF078FD05EBD575C5F34F0515
:102A000000EBD07007EBD777A6EB6002A5EB67076A
:102A100004F17C0039B212B2FFF7C8FF23682046E8
:102A2000D3F88C30BDE8F041184770B504461D4618
:102A3000BDF91060FFF7BAFF2368294620469B6B5B
:102A40009847236831462046DB6BBDE87040184745
:102A50000022C0E90122C0E90322C0E90522C0E941
:102A600007224FF480728284014A0260704700BFDF
:102A7000B4D1010810B526220446002118F0ACFCA0
:102A80002046FFF7E5FF044B2360FF2384F8263040
:102A90000023A362204610BD5CD9010838B5262268
:102AA00004460D46002118F097FC2046FFF7D0FFA2
:102AB000064B23602B88E384FF23204684F82830CC
:102AC000294607F027FD204638BD00BFA0DA0108DF
:102AD00010B526220446002118F07EFC2046FFF7A0
:102AE000B7FF0A4B23600A4BA3624FF6FF73A3851F
:102AF0004FF47F020023C4E90C324FF0FF32C4E9E7
:102B000010232387E363204610BD00BFCCD8010803
:102B1000E0C901081B4B73B51B88018F8B42064629
:102B20002BD9194B1B682BB9184B194A19486C2122
:102B300018F0CCFA13F81120174B1B6853F82250E9
:102B4000164B186800F0A2FC2B68019001469B6AA6
:102B5000284698472B6801991B6C044628469847DD
:102B60002B6801995B6A14FB00F428469847E4B28D
:102B7000044486F8454002B070BD002380F845301B
:102B8000F9E700BFD4270120D0270120A8D00108F1
:102B9000EAD0010825D10108D8270120DC2701202F
:102BA0004FF47F4373B50646838540F20113002539
:102BB00083841D4B8562C0E90155C0E90355C0E916
:102BC0000555C0E90755056346F8343B04463046D1
:102BD000FFF750FF154B63632A46C4E91A55C4E951
:102BE0001C552566A4F8645029463046FFF7DEFEE2
:102BF0003146204605F006FD0D4B236004F17C05AF
:102C00004FF6FF73A4F87830A4F87A3001A928466B
:102C1000ADF80430FFF742FF2046294605F0F2FCEC
:102C2000204602B070BD00BFACD2010838DA0108FE
:102C300048D301082DE9F04F2DED088B04468DB0E7
:102C40000AF0F0FC22460025E44BE56342F8403BE5
:102C5000104608EE102AFFF70DFF04F16C034FF643
:102C6000FF760AA918460AEE103AADF82860FFF779
:102C700015FF04F198030AA918460AEE903AADF838
:102C80002860FFF70BFF04F1C403184608EE903AE2
:102C9000FFF786FF04F5B673184609EE103AFFF702
:102CA0007FFF04F5057304F51779184609EE903A8D
:102CB00004F52A7AFFF70CFFC94F4846FFF708FFD3
:102CC000C4F85C72C4F8A452504607F055FD04F5F0
:102CD0003C7304F547780AA918460BEE103A04F540
:102CE000597BADF82860FFF7D9FE4046FFF7F0FEAC
:102CF0005846FFF7EDFEBB4BC4F86473C4E9F634E5
:102D0000B94BC4F8AC53C4E9F835B84BC4E9FA344C
:102D1000B74BC4E9FC35F02318EE100A00932A469D
:102D200029464FF4A073FFF780FE4FF07F43A36660
:102D30002A461AEE100A2946FFF738FE1AEE100A44
:102D40000AA9ADF8285007F0E5FB1AEE900A1922FF
:102D50007621FFF72BFE17271AEE900A4FF0030398
:102D60000AA9ADF8283007F0D5FB00972A46294676
:102D700004F1F8002B23FFF758FE9E4A9E4B9F4913
:102D80009F48C4E94B32D4F8C4300526C4E94D103D
:102D9000D3F88C30A4F8286118EE900A98470DF10A
:102DA000280E72460DF1240E4FF0040C714618EEF9
:102DB000900AADF824C0ADF828C0FFF704FE18EE65
:102DC000900AC4F8446100972B23312240F211117C
:102DD000FFF72BFE04F57A7EC4F8F4E000972A464C
:102DE000294604F5D0702B23CDF80CE0FFF71DFE2B
:102DF000804A814B81498248A4F8D061C4E9753288
:102E0000D4F86C31C4E97710D3F88C3019EE100A7D
:102E1000984719EE100A0AAA09A9ADF82460ADF87E
:102E20002860FFF7D0FD062319EE100AC4F8EC3134
:102E300000972B23192240F21111FFF7F6FD039B97
:102E4000C4F89C3104AE4FF0FF3719EE900A1C22F3
:102E50001921FFF7ABFD19EE901AA4F8485230463D
:102E6000C4F8447206F02AFE96E8070004F51473CD
:102E70004FF0040C83E80700624BADF82CC019EE4C
:102E8000900A0AA90A9307F0A9F818220092484666
:102E900024227C238F21FFF7C8FDD4F85C32A4F8EC
:102EA000905249463046D3F88430C4F88C72984723
:102EB00096E8070004F5267383E8070004F56C73B1
:102EC000A4F8B053C4F8A4324FF003024D4B0A9358
:102ED0000AA94846ADF82C2007F080F85046B422E5
:102EE0004E21FFF763FD0AA802464FF0010109A831
:102EF000ADF82410022301465046ADF8283007F003
:102F0000CBF80223A4F8E0325046FFF703FE04F5A5
:102F10007673C4F8D0321BEE100AC4E9B9774F2299
:102F20007621FFF743FD4FF00302ADF828200AAAEF
:102F30001BEE100A114607F0EDFA522240462921F5
:102F4000FFF734FDA4F8505341463046C4F84C73A3
:102F500006F0B4FD96E8070004F5567383E8070011
:102F60004FF00101274BADF82C1040460AA90A93F7
:102F700007F034F818220092584658227C238F21FB
:102F8000FFF753FDD4F86433A4F8985359463046FC
:102F9000D3F88430C4F89473984796E8070004F592
:102FA000687383E8070004F57173A4F8C453C4F888
:102FB000AC33ADF82C50134B0A93251D0AA9584683
:102FC00007F00CF818EE101A284605F01BFB1AEE55
:102FD000101A284605F016FB16E000BF18D40108A9
:102FE0001CD20108E8D301087D29000800D401089B
:102FF000A9280008CC9900FF996600FF663300FFFE
:10300000996633FFE0C901081AEE901A284605F0C8
:10301000F9FA18EE901A284605F0F4FA19EE101A8B
:10302000284605F0EFFA19EE901A284605F0EAFA5C
:103030004946284605F0E6FA5146284605F0E2FAE8
:103040001BEE101A284605F0DDFA4146284605F029
:10305000D9FA2846594605F0D5FA20460DB0BDEC00
:10306000088BBDE8F08F00BF70477047704730B4E1
:10307000C26844685510034604EB6200D20748BF9B
:1030800062599B6830BC48BFD358184743682BB17E
:1030900083682BB9C06800F001007047184670477C
:1030A0000120704710B51021044617F0E1FF2046BB
:1030B00010BD10B5B021044617F0DAFF204610BD50
:1030C0006C30884208B505D109F074F8BDE80840B5
:1030D000FFF70EB908BD00007FB5044625460AF08B
:1030E000A1FA0022334BE26345F8403B324B2266A3
:1030F000C4E910324FF48073A4F86430FF2384F8DD
:10310000663040F20113A4F890302C4BE3664FF682
:10311000FF73A4F89A30A4F89C3084F89E30284BB2
:10312000A266C4E92834274BC4F8942011462846E7
:10313000C4E91222C4E91422C4E91622C4E91C22FB
:10314000C4E91E22C4E92022C4E9222284F898207E
:10315000C4E92A32FFF72AFC28464FF4A071FEF793
:10316000AFFE2846F021FEF7ADFE04F16C064FF0ED
:103170007F43A3663046A7224021FFF717FC0123B7
:1031800003AAADF8083002A902233046ADF80C308E
:1031900006F082FF04F1A003201DC4F894302946F4
:1031A000019005F02FFA0198314605F02BFA2046E0
:1031B00004B070BD70D401085CD90108C4D90108FD
:1031C00058D40108C13000087047000030B5154DD3
:1031D0002C78BFF35B8F14F001048DB01ED128460C
:1031E00017F048FFD0B13F2307930F4B06930F4BC7
:1031F0000F49104808940122CDE904430423CDE986
:103200000132CDE909440A2303940094FFF732FA0E
:10321000094817F079FF284617F038FF05480DB028
:1032200030BD00BFC018002010F001083CF00108BC
:10323000B0ED0108C4180020C93100087047000033
:1032400030B5164D2C78BFF35B8F14F001048DB0B0
:1032500020D1284617F00EFFE0B13F230793104B13
:103260000693104B05930123CDE9034302930422F7
:103270000323CDE900320C490C4808940F23252282
:10328000CDE90944FFF7F6F9094817F03DFF284654
:1032900017F0FCFE05480DB030BD00BFEC18002053
:1032A00014F0010840F00108C0ED0108F0180020FA
:1032B0003D3200087047000030B5154D2C78BFF343
:1032C0005B8F14F001048DB01FD1284617F0D2FE99
:1032D000D8B13F2307930F4B06930F4B0F4910486C
:1032E0000894CDE9044304220123CDE9012300938E
:1032F00005222823CDE909440394FFF7BBF90948C7
:1033000017F002FF284617F0C1FE05480DB030BD8A
:103310001819002028F0010844F00108C8EF01083E
:103320001C190020B53200080020704700207047AB
:103330000EB403B503AB002153F8042B019309F03D
:10334000AFFD02B05DF804EB03B070470CB407B5F5
:1033500004AB53F8042B019309F0A2FD03B05DF810
:1033600004EB02B070470000436C10B5044673B321
:10337000038F2BB9184B194AC021194817F0A6FE24
:10338000C38E00EB43035B8C0BB30BF058F8238F19
:10339000012B03D8134B144AC521EEE7E28E531CD0
:1033A0009BB2092B194688BFA3F10A0104EB410126
:1033B00040F63F10498C814209D10A2B04EB4202AE
:1033C00028BF002304EB4303508C588451842046CB
:1033D000BDE810400AF036BF9CD40108A5D401080E
:1033E00050D501089AD50108A8D501080AF0F1BE08
:1033F00010B586B002AC84E806001A460AAB059305
:103400000193099B00932146089B08F008FA06B037
:1034100010BD000038B518BB124B13481B68134988
:10342000B3B11A689C681A4402605A681A440A6068
:103430001C440F4B00221A8000F038F8054600F0BB
:1034400033F80C4B1C600C4B1D600C4B188007E0D4
:103450000B4B03600B4B0B600B4B1C68002CE8D133
:1034600038BD00BF44190020481900204C19002025
:1034700050190020D0270120D8270120D42701206F
:103480005CF0010848F00108E0F00108044B1B68FB
:1034900053F82100034B1B6803EB4000704700BF4B
:1034A0004C1900204819002005207047004870473B
:1034B0005419002010B5FFF7C3FE044C2060FFF73D
:1034C000FBFE6060FFF782FEA06010BD5419002073
:1034D000704710B54FF4AC71044617F0C9FD204693
:1034E00010BD10B50446D0F8540100F012F8204683
:1034F000BDE8104008F00CBD10B50446FEF7BCFE58
:10350000014B2360204610BD84D6010800220260D2
:103510007047006803689B68184770470438704715
:103520007047C06803689B6B1847A0F10400FFF761
:10353000F8BF10B51021044617F09AFD204610BDC3
:10354000A0F10400F5E7000010B500228260044AF3
:10355000C16002F1080424320460426010BD00BF63
:10356000C8D6010870477047034B1A68034B1A60AE
:10357000034B01221A607047180000201C1600201F
:10358000101600200B4B1A6810B50A32B2F5C87F2E
:10359000C8BF4FF4C8721A6004461B68064A0A2165
:1035A00000F56C700BF0FAFC04F51770BDE81040E4
:1035B00009F097BD18000020F8D601080A4B1A68D8
:1035C00010B50A3A092AD8BF0A221A6004461B68B5
:1035D000064A0A2100F56C700BF0E0FC04F5177048
:1035E000BDE8104009F07DBD18000020F8D60108A4
:1035F000FFF7B3B813B5094B094A1B68019304469A
:1036000001AB0A2100F571700BF084FE04F55970CE
:1036100002B0BDE8104009F064BD00BF0C000020FE
:10362000FBD6010810B54FF47E71044617F020FD5B
:10363000204610BD10B50446FFF7FCFA074B236087
:10364000074B084A1B680A2104F56C700BF0A6FCB6
:1036500004F5177009F045FD204610BD08D7010894
:1036600018000020F8D601087047704704387047EA
:10367000704710B51021044617F0FAFC204610BD23
:10368000A0F10400F5E7000010B500228260044AB2
:10369000C16002F1080420320460426010BD00BF26
:1036A00044D7010870477047FFF7DFBC10B5B02161
:1036B000044617F0DDFC204610BD000010B504469E
:1036C000FFF70AFD014B2360204610BD78D70108A3
:1036D000F02070474FF4A07070472920FDF7F6BF27
:1036E0002820FDF7F3BF08B5FDF7C4FFCA20FDF79A
:1036F000EDFFC320FDF7CEFF0820FDF7CBFF5020E4
:10370000FDF7C8FFCF20FDF7E1FF0020FDF7C2FF66
:10371000C120FDF7BFFF3020FDF7BCFFED20FDF716
:10372000D5FF6420FDF7B6FF0320FDF7B3FF12209D
:10373000FDF7B0FF8120FDF7ADFFE820FDF7C6FFE4
:103740008520FDF7A7FF0020FDF7A4FF7820FDF7F7
:10375000A1FFCB20FDF7BAFF3920FDF79BFF2C20FE
:10376000FDF798FF0020FDF795FF3420FDF792FF4D
:103770000220FDF78FFFF720FDF7A8FF2020FDF7BF
:1037800089FFEA20FDF7A2FF0020FDF783FF00205C
:10379000FDF780FFB120FDF799FF0020FDF77AFFCC
:1037A0001B20FDF777FFB620FDF790FF0A20FDF7FD
:1037B00071FFA220FDF76EFFC020FDF787FF1020EC
:1037C000FDF768FFC120FDF781FF1020FDF762FFC4
:1037D000C520FDF77BFF4520FDF75CFF1520FDF7B9
:1037E00059FFC720FDF772FF9020FDF753FF3620E9
:1037F000FDF76CFFC820FDF74DFFF220FDF766FFD7
:103800000020FDF747FFB020FDF760FFC220FDF765
:1038100041FFB620FDF75AFF0A20FDF73BFFA72026
:10382000FDF738FF2720FDF735FF0420FDF732FFB5
:103830002A20FDF74BFF0020FDF72CFF0020FDF7AD
:1038400029FF0020FDF726FFEF20FDF723FF2B20A7
:10385000FDF73CFF0020FDF71DFF0020FDF71AFFDC
:103860000120FDF717FF3F20FDF714FFF620FDF7BD
:103870002DFF0120FDF70EFF0020FDF70BFF0620B6
:10388000FDF708FF2C20FDF721FFC820FDF76CFF96
:103890002620FDF71BFF0120FDF7FCFEE020FDF7D1
:1038A00015FF0F20FDF7F6FE2920FDF7F3FE24207B
:1038B000FDF7F0FE0C20FDF7EDFE0E20FDF7EAFE11
:1038C0000920FDF7E7FE4E20FDF7E4FE7820FDF726
:1038D000E1FE3C20FDF7DEFE0920FDF7DBFE1320B4
:1038E000FDF7D8FE0520FDF7D5FE1720FDF7D2FE27
:1038F0001120FDF7CFFE0020FDF7CCFEE120FDF703
:10390000E5FE0020FDF7C6FE1620FDF7C3FE1B20D6
:10391000FDF7C0FE0420FDF7BDFE1120FDF7BAFE45
:103920000720FDF7B7FE3120FDF7B4FE3320FDF789
:10393000B1FE4220FDF7AEFE0520FDF7ABFE0C20E8
:10394000FDF7A8FE0A20FDF7A5FE2820FDF7A2FE40
:103950002F20FDF79FFE0F20FDF79CFE1120FDF7A5
:10396000B5FEC820FDF700FF2920FDF7AFFEBDE83A
:1039700008402C20FDF7AABE08B5FDF77BFE032109
:10398000D320FDF7BFFE80B208BD10B5C4B202223D
:1039900003212046FDF724FE0A20FDF769FE20469C
:1039A00000220321FDF71CFEBDE810400220FDF7B8
:1039B0005FBE38B50446E4B2FDF710FE0021204694
:1039C000FDF726FE012105462046FDF721FE40EACF
:1039D000052080B238BD10B5C4B240212046FDF7A5
:1039E00017FE030607D54C212046FDF711FE0038CF
:1039F00018BF012010BD01224B212046FDF7F0FD2C
:103A0000204600224B21FDF7EBFD0020F2E773B5C5
:103A10000423C4B20E461546D7210DEB03022046FF
:103A2000FDF710FE019B1BBA1A0DC3F30B23328066
:103A300020462B8001224B21FDF7D2FD00224B2195
:103A40002046FDF7CDFD02B070BD000010B50A4B59
:103A50001A78904204460DD0597888420AD00AB1AB
:103A600041B901229C54FDF7B9FD2046BDE8104044
:103A7000FFF78BBF10BD00BF6019002010B5C4B2A6
:103A800009212046FDF7C4FD40F00100C2B2092122
:103A90002046BDE81040FDF7A3BD10B5C4B2092112
:103AA0002046FDF7B5FD092100F0FE022046BDE8E5
:103AB0001040FDF795BD38B5C4B20D4620460A2129
:103AC000FDF7A6FD2843C2B20A212046BDE83840D2
:103AD000FDF786BD07B50190FDF781FD01981F2117
:103AE000FFF7E9FF019803B05DF804EBFFF7C6BFED
:103AF00038B5C4B20D4620460A21FDF789FD20EAFB
:103B00000500C2B20A212046BDE83840FDF768BD75
:103B100010B50446FFF7C1FF20461F21BDE8104045
:103B2000FFF7E6BF10B5C0B20C460B21FDF770FDE4
:103B3000204010BD1F21FFF7F5BF0A46C0B20B2180
:103B4000FDF74EBD1F21FFF7F8BF38B5C4B20D46D3
:103B500020461721FDF75CFD20EA0500C2B21721BF
:103B60002046BDE83840FDF73BBD70B5C4B20646FF
:103B700004212046FDF74CFD042100F0FB02054620
:103B80002046FDF72DFD3046F021FFF7DEFF05F062
:103B9000F80220460421FDF723FD4922202120467A
:103BA000FDF71EFD0220FDF763FD204601222121C5
:103BB000FDF716FD20469A224121FDF711FD204612
:103BC00001224A21FDF70CFD204601224B21FDF781
:103BD00007FD204600224B21FDF702FD2046012271
:103BE0005621FDF7FDFC204601225821FDF7F8FC87
:103BF000204601224021FDF7F3FC2046FF220B2145
:103C0000FDF7EEFCBDE870400220FDF731BD00007D
:103C1000054BD3F8882042F47002C3F888204FF097
:103C200000629A60704700BF00ED00E008B50B4BE2
:103C30001A6842F400721A601A6842F480621A60CC
:103C40001A6842F480721A60032000F0E9F900203B
:103C5000FEF72EF8FDF7BAFD002008BD003C02403B
:103C6000034A044B11681B780B441360704700BF74
:103C70006419002080000020014B1868704700BFC5
:103C80006419002038B50446FFF7F6FF631C1CBF1B
:103C9000054B1B78054618BFE418FFF7EDFF431BE3
:103CA000A342FAD338BD00BF8000002038B50446D7
:103CB000002800F09B80056C25B9FDF7A7FD656421
:103CC00084F83C50236CDB0600F18E80236C23F4D7
:103CD000885323F0020343F002032364444B5A68E1
:103CE00022F440325A605A6861680A435A60236875
:103CF00021695A6822F480725A605A6842EA0122A5
:103D00005A605A68A16822F040725A605A680A43A1
:103D10005A609A68E16822F400629A609A680A43DD
:103D20009A603449A26A8A4252D0996821F070613F
:103D3000996099680A439A609A68E16A22F0405251
:103D40009A609A680A439A609A6822F002029A601E
:103D50009A68217E42EA41029A6094F82020002A63
:103D60003ED05A68616A42F400625A605A6822F48E
:103D700060425A605A68013942EA41325A60DA6A4E
:103D8000E16922F47002DA62DA6A013942EA015228
:103D9000DA629A6822F400729A609A6894F8301095
:103DA00042EA41229A609A68616922F480629A60CC
:103DB0009A68002042EA81229A606064236C23F0B2
:103DC000030343F001032364002384F83C3038BD2F
:103DD0009A6822F070629A609A6822F04052B2E7C4
:103DE0005A6822F40062C9E70120EDE70120EEE7FE
:103DF000002301400100000F82B00023019390F8DE
:103E00003C30012B60D0012380F83C3003689A6875
:103E1000D20705D59A68D10714D4002002B07047A4
:103E20009A682A4942F001029A60294A1268B2FB54
:103E3000F1F202EB42020192019A002AEAD0019AC1
:103E4000013AF8E7026C22F4E06222F0010242F447
:103E5000807202645A68520541BF026C22F44052DB
:103E600042F480520264026C12F480521CBF426C15
:103E700022F006024264002280F83C206FF0220209
:103E80001A60144A516811F01F0F134919D18B425F
:103E900007D001F580718B420CD1526812F01F0FD0
:103EA000BBD1986810F04050B7D19A6842F0804278
:103EB0009A60B3E709498B42AFD1526812F0100FF4
:103EC000EEE78B42A9D1ECE70220A7E740420F00C2
:103ED0007C0000200023014000200140002201401E
:103EE0000368D86C70470000F7B50023019390F881
:103EF0003C30012B69D0012380F83C300D68036809
:103F00008E68092DACB234D904EB4402DF681E3A46
:103F10004FF0070C0CFA02FC27EA0C07DF60DF68A1
:103F200006FA02F23A43DA604968062901EB810297
:103F30002FD8596B053A1F26964021EA060159638E
:103F4000596B04FA02F20A435A63304A93420AD187
:103F5000122D3CD12E4B5A6822F400025A605A6846
:103F600042F480025A60002380F83C30184603B0C7
:103F7000F0BD1F6905EB45024FF0070C0CFA02FC7F
:103F800027EA0C071F611F6906FA02F23A431A6119
:103F9000CAE70C294FF01F010BD81E6B233A914042
:103FA00026EA01011963196B04FA02F20A431A6343
:103FB000CBE7DE6A413A914026EA0101D962D96A2B
:103FC00004FA02F20A43DA62BFE70220CFE7114B9C
:103FD0009D4201D0112DC6D10D4B5A6822F48002AA
:103FE0005A605A6842F400025A600A4B9D42BAD1A4
:103FF000094B0A4A1B68B3FBF2F30A2253430193AD
:10400000019B002BAFD0019B013BF8E70020014052
:1040100000230140120000107C00002040420F00ED
:104020000749CA6822F4E0620302120403F4E06361
:10403000120C134343F0BF6343F40033CB6070476B
:1040400000ED00E0164B30B5DC68C4F30224C4F187
:104050000705231D042D28BF0425062B4FF0FF3331
:104060008CBF033C002403FA05F521EA0501A340B7
:1040700022EA0302A140002841EA0203ACBF00F19A
:104080006040084A4FEA0313B8BF00F00F00DBB2EC
:10409000AABF00F56140135480F8003330BD00BF63
:1040A00000ED00E014ED00E0002808DB42090123E8
:1040B00000F01F0003FA00F0014B43F822007047A4
:1040C00000E100E010B5044650B1437903F0FF026F
:1040D00013B90271FDF7CCFB01236371002010BD01
:1040E0000120FCE710B5044630B390F8393003F0F6
:1040F000FF021BB980F83820FDF7D2FB2268616807
:10410000022384F83930136823F440330B431360DF
:10411000536BA16823F007030B435363136CE168EF
:1041200023F47F5323F03F030B4313640020012348
:10413000E06384F8393010BD0120FCE77047704718
:10414000036870B55E681D68F207044614D5E9057A
:1041500012D51A6822F480721A60C26B42F0010212
:10416000C26301229A60042380F83930002380F86A
:104170003830436903B19847B20616D5AB0414D55D
:1041800023681A6822F400521A6020229A60E36BB6
:1041900043F00203E363042384F83930002384F8F6
:1041A000383063690BB120469847300716D529058A
:1041B00014D523681A6822F400621A6008229A60F3
:1041C000E36B43F00403E363042384F839300023F2
:1041D00084F8383063690BB12046984772070BD5D5
:1041E0006B0509D523681A6822F480621A600422DC
:1041F0009A602046FFF7A2FFB00714D5A90512D593
:1042000023681A6822F400721A6002229A60E36B33
:10421000E363012384F83930002384F838302369BC
:104220000BB120469847F20613D5EB0411D523684D
:104230001A6822F480521A6010229A60E36BE363DA
:10424000012384F83930002384F838302046FFF702
:1042500076FF70BDF0B590F83830012B4FF00203B7
:104260002BD0012280F8393080F8382000EB011380
:10427000D3E907425D6A184F44EA0242093C012C27
:104280009CBF05F07F431A434FEA0116036888BFBD
:1042900042EA056299B9596A39400A435A62012CC7
:1042A00082699A6103D8426A22F07F429A620123AE
:1042B00080F83930002380F838301846F0BDD969CD
:1042C00039400A43DA618219012C92691A619CBF54
:1042D00025F07F451D62EAE7F0FFFC002DE9F74F6E
:1042E000DFF8C0816D4ADFF8C09100230D6801241A
:1042F0009C4004EA0506AC4340F0B7804C6824F0CB
:10430000100C4FEA430E03250CF1FF3705FA0EF5AA
:10431000012F6FEA050511D8876807EA050ACF68FB
:1043200007FA0EF747EA0A078760476827EA060A8E
:10433000C4F300179F4047EA0A074760C76807EAC7
:10434000050A8F6807FA0EF747EA0A07BCF1020F61
:10435000C76016D14FEAD30A00EB8A0A03F0070BB5
:10436000DAF820704FEA8B0B4FF00F0C0CFA0BFCB5
:1043700027EA0C0C0F6907FA0BF747EA0C07CAF893
:10438000207007683D4004F0030707FA0EF73D432D
:104390000560E50069D54FF0000BCDF804B0D8F802
:1043A00044703F4D47F48047C8F84470D8F84470D3
:1043B00007F480470197019F23F0030707F1804727
:1043C00007F59C3703F0030ED7F808A04FEA8E0ECE
:1043D0004FF00F0C0CFA0EFCA8422AEA0C0C4BD042
:1043E00005F58065A84249D005F58065A84247D00B
:1043F00005F58065A84245D005F58065A84243D003
:10440000484543D005F50065A84241D005F58065D3
:10441000A8423FD005F58065A8423DD005F58065EE
:10442000A8420CBF09250A2505FA0EF545EA0C0538
:10443000BD601568F74314F4803F0CBF3D40354321
:104440001560556814F4003F0CBF3D40354355607E
:10445000956814F4801F0CBF3D4035439560D568C6
:10446000A40254BF3D403543D5600133102B7FF487
:104470003DAF03B0BDE8F08F5D46D5E70125D3E73A
:104480000225D1E70325CFE70425CDE70525CBE7B6
:104490000625C9E70725C7E70825C5E7003C014011
:1044A0000000024000380240001402400AB181615D
:1044B00070470904FBE701684B6913F480634FF010
:1044C000000210D06FF480634B612023026380F8F8
:1044D0003D3080F83E20036C80F83C2043F004031C
:1044E000036401207047184670472DE9F8460646D8
:1044F0000F4691461D464FEA114A3368BAF1010F43
:104500000CBF5C699C6927EA0404A4B2B4FA84F481
:104510006409A14501D0002017E06A1CEED0FFF726
:10452000ABFB089BC01AA84201D8002DE5D100239F
:104530002022336386F83D2086F83E30326C86F8C0
:104540003C3042F0200232640120BDE8F8862DE9BB
:10455000F04104460F46164698462568686927EAE2
:10456000000080B2B8B16B695A0516D52B6843F4C8
:1045700000732B606FF480636B6120220023236340
:1045800084F83D2084F83E30226C42F0040222641C
:1045900084F83C300120BDE8F081731CDED0FFF7C9
:1045A0006BFBA0EB0800B04201D8002ED5D1002350
:1045B0002022236384F83D2084F83E30226C42F0B0
:1045C0002002E4E770B504460D46164621684B69A3
:1045D00013F0400301D0002010E04A69D2060ED546
:1045E0006FF010024A612022236384F83D2084F892
:1045F0003E30226C226484F83C30012070BDFFF70D
:104600003BFB801BA84201D8002DDFD100232022D4
:10461000236384F83D2084F83E30226C42F020026F
:10462000E8E770B504460D46164623685B695B07EC
:1046300001D5002070BD2046FFF73DFFA8B96A1CD8
:10464000F3D0FFF719FB801BA84201D8002DECD155
:1046500000232022236384F83D2084F83E30226C1E
:1046600084F83C3042F0200222640120E2E770B579
:1046700004460D46164623685B691B0601D50020DB
:1046800070BD2046FFF717FFA8B96A1CF3D0FFF7EB
:10469000F3FA801BA84201D8002DECD10023202280
:1046A000236384F83D2084F83E30226C84F83C304B
:1046B00042F0200222640120E2E700002DE9F043ED
:1046C0001546026885B0DDE90C789946136843F415
:1046D000807313600E463B46CDF8008000224FF0F9
:1046E00001110446FFF701FF236838B11B68DB05A1
:1046F00002D54FF40073236403200AE006F0FE069F
:104700001E61194943463A462046FFF720FF18B17B
:10471000012005B0BDE8F083236803905A69039235
:104720009B690393424639462046039BFFF79FFF50
:1047300040B1236C042B01BF2268136843F400735B
:104740001360E5E7B9F1010F236802D1EDB21D61F5
:10475000DFE72A0A1A61394642462046FFF787FFFB
:104760000028E6D12368F1E7020001002DE9FF47A8
:104770009A46036815461A6842F480621A601A68FD
:10478000DDE90C7842F480721A600E463B46CDF8A3
:10479000008000224FF001110446FFF7A6FE2368B7
:1047A00048B11B68DB0502D54FF400732364032076
:1047B00004B0BDE8F0875FFA86F906F0FE061E61D8
:1047C0002A4943463A462046FFF7C1FE08B1012078
:1047D000EEE7236803905A6903929B69039342466C
:1047E00039462046039BFFF742FF40B1236C042B60
:1047F00001BF2268136843F400731360E7E7BAF15E
:10480000010F23681AD1EDB21D6142463946204698
:10481000FFF72DFF0028E9D12268136843F4807365
:1048200013604FF001110246CDF800803B46204650
:10483000FFF75BFE226860B11368B3E72A0A1A61CA
:10484000394642462046FFF712FF0028CED12368A2
:10485000D9E749F001031361044943463A4620462B
:10486000FFF775FE003818BF0120A1E70200010024
:1048700070B5044608B9012070BD90F83D3003F0D2
:10488000FF021BB980F83C20FDF72CF8242384F8A4
:104890003D3023681A6822F001021A601A6842F457
:1048A00000421A601A6822F400421A6000F06EFE9C
:1048B0003F4B65689D4294BF3E4B3F4B98428CBF37
:1048C00000230123002BD6D12268394E53683B497F
:1048D000B0FBF1F123F03F030B43B542536088BFB7
:1048E0004FF49676136A88BF714323F03F0384BF69
:1048F0004FF47A76B1FBF6F1013119431162D169B7
:10490000431E2B4821F44F41854221F0FF0132D84C
:104910006D0040F6FC70B3FBF5F30133034242D067
:10492000C3F30B030B43D361D4E90730116803438E
:1049300021F0C0010B4313609168D4E9030321F413
:104940000341034321F0FF010B439360D4E9053099
:10495000D168034321F0FF010B43D360136843F098
:104960000103136000202023206484F83D3020637D
:1049700084F83E0080E7A06850B905EB4505B3FB1D
:10498000F5F30133C3F30B037BB143F40043C9E7F1
:1049900019204543B3FBF5F30133C3F30B0323B1F4
:1049A00043F44043BEE70423BCE70123BAE700BF5A
:1049B000A08601007F841E00FF083D0040420F00DA
:1049C0002DE9F743044699460C9E0F469046FFF7A3
:1049D00053F994F83D30202B054603D0022003B054
:1049E000BDE8F08300903C49192301222046FFF7DF
:1049F0007CFD0028F2D194F83C30012BEED02068E9
:104A0000012384F83C300368D9075EBF036843F094
:104A100001030360036823F400630360212384F827
:104A20003D30402384F83E30002323640A9B6362B8
:104A3000BDF82C306385638D2385284BE362CDE977
:104A400000654B46424639462046FFF737FE0028B0
:104A50002AD00120C3E7FFF70AFE40B1236C042BE4
:104A600001BF2268136843F400731360F1E7636ABF
:104A700027681A4612F8011B39616262628D218D26
:104A8000013A92B262857A69481E80B25207208547
:104A90000AD548B15A783A6102336362638D013BAB
:104AA00002399BB221856385238D2A4631462046F3
:104AB000002BD0D1FFF7B5FD0028CFD122681368B5
:104AC00043F400731360202384F83D3084F83C00E5
:104AD00084F83E0083E700BF020010000000FFFFE3
:104AE0002DE9F043044687B09946109F0D46904645
:104AF000FFF7C2F894F83D30202B064604D002257B
:104B0000284607B0BDE8F0830090764919230122BA
:104B10002046FFF7EAFC0028F1D194F83C30012B45
:104B2000EDD02068012384F83C300368DB075EBFCA
:104B3000036843F001030360036823F40063036028
:104B4000222384F83D30402384F83E300023236440
:104B50000E9B6362BDF83C306385638D2385624B99
:104B6000E3622946CDE900764B4642462046FFF7F0
:104B7000FDFD054608B10125C2E7228D2368B2B9C3
:104B800002905A6902929A690292029A1A6842F451
:104B900000721A60DFF85481238D002B2CD1202263
:104BA00084F83D2084F83C3084F83E30A8E7012AA0
:104BB0000AD11A6822F480621A6003905A6903923B
:104BC0009A690392039AE1E7022A0ED11A6822F445
:104BD00080621A601A6842F400621A6004905A698E
:104BE00004929B690493049BD4E705905A6905924B
:104BF0009B690593059BCDE7032B56D8012B15D157
:104C0000324639462046FFF7DDFC0028B3D1236841
:104C10001A69636A1A70636A01336362238D013B08
:104C20002385638D013B9BB26385B5E7022B00961C
:104C30003B464FF000024146204619D1FFF755FC94
:104C4000002898D123681A6842F400721A601A6921
:104C5000636A1A70626A531C6362238D013B238569
:104C6000638D013B9BB2638523681B695370D2E758
:104C7000FFF73BFC00287FF47EAF23681A6822F41C
:104C800080621A601A69636A1A70636A0096013357
:104C90006362238D013B2385638D013B9BB263855A
:104CA00002463B4641462046C8E732463946204642
:104CB000FFF788FC00287FF45EAF23681A69636AF7
:104CC0001A70626A531C6362238D013B2385638DD6
:104CD000013B9BB263852368596949077FF55CAF47
:104CE000C3E700BF020010000000FFFF0400010046
:104CF00010B590F83D30202BDCB216D1242380F87B
:104D00003D3003681A6822F001021A605A6A22F0E4
:104D100010025A625A6A114359621A6842F001023B
:104D20001A6080F83D40002010BD0220FCE730B53D
:104D300090F83D30202BDCB216D10268242380F895
:104D40003D30136823F001031360556A4FF6F0738A
:104D50002B400B439BB25362136843F00103136073
:104D600080F83D40002030BD0220FCE70068D1F80B
:104D700000C0D201843283182DE9F043C6685D6813
:104D80004C68D1F8189005F470455D60C5680CF169
:104D90000107C5F30B45C6F30B463D44264445EADF
:104DA00006455D60C568CE68C5F30A052E449D685A
:104DB00005F470459D60C7688D68C7F30A07013523
:104DC0003D4445EA06459D601D690E6925F00705CD
:104DD0001D614FF0000E1E619D6991F8327091F8CF
:104DE0003180C3F818E091F8305045EA096545EA8A
:104DF000082545EA07459D615D6925F0FF055D6170
:104E00004D695D61DD6925F4E06525F00705DD612B
:104E1000D1E907573D43DD619D6A4D6AC3F828E03B
:104E20009D621EB3012E23D0B51E022D22D9072E5E
:104E30000CBF02250125DE6A06F0E026DE62A4EB47
:104E40000C048E6AC96A6C436E43033444EA064418
:104E5000DC621C6B24F4FF6424F007041C631963F8
:104E6000835843F001038350BDE8F0830425E2E753
:104E70000325E0E70225DEE738B50446002863D0C5
:104E800090F8A13003F0FF021BB980F8A020FCF7D6
:104E900085FD022384F8A13023689A6922F07042CC
:104EA0009A61D4E901200243E068996902432069CC
:104EB00002430A439A619A68244960690A409A60E9
:104EC0009A6842EA0042A06902439A60DA68E0699F
:104ED0000A40DA60DA6842EA0042206A0243DA6095
:104EE0001A69606A0A401A611A6942EA0042A06AB5
:104EF00002431A615A69114059615A69E16A42EAEA
:104F00000142216B0A435A61D96A94F8360094F839
:104F1000355001F07F41D962D96A94F834200A43B0
:104F200042EA052242EA0042DA625A6B42F0060285
:104F30005A639A6942F001029A6100200123C4F881
:104F4000A40084F8A13038BD0120FCE700F800F08F
:104F500070477047036870B59E6B5D6B72070446BF
:104F600014D5690712D55A6B22F004025A63042241
:104F7000DA63D0F8A43043F00103C0F8A430002372
:104F800080F8A12080F8A030FFF7E2FFB20716D525
:104F9000AB0714D523685A6B22F002025A6302222F
:104FA000DA63D4F8A4301343C4F8A430042384F89B
:104FB000A130002384F8A0302046FFF7C9FFF00796
:104FC00010D5E9070ED523685A6B22F001025A6307
:104FD0000122DA63002384F8A12084F8A03020465F
:104FE000FCF760F8320711D52B070FD523685A6BF1
:104FF00022F008025A630822DA63012384F8A13000
:10500000002384F8A0302046FFF7A3FF70BD2DE9F0
:10501000F04190F8A030012B06460F4694464FF021
:1050200002001FD04FF0010886F8A08086F8A1008A
:1050300034240D4604FB02640FCD38340FC40FCD69
:105040000FC40FCD0FC42B6823603046624639462B
:10505000FFF78CFE33680020C3F8248086F8A18017
:1050600086F8A000BDE8F08190F8A030012B4FF049
:10507000020312D080F8A13003685A6B22F00102BB
:105080005A63074A11645A6B42F001025A630123C2
:1050900080F8A130002380F8A0301846704700BF88
:1050A000006801402DE9F341044640B30368DD0781
:1050B00010D4236898075ED423681A0700F1A080F3
:1050C00023685B0700F1C080A069002840F02881B8
:1050D00000202BE08F4B9A6802F00C02042A07D0C4
:1050E0009A6802F00C02082A0BD15A68510208D5BE
:1050F000884B1B689A03DCD56368002BD9D101204B
:1051000014E06268B2F5803F13D11A6842F480322D
:105110001A60FEF7B1FD7F4E054633689B03C8D485
:10512000FEF7AAFD401B6428F7D9032002B0BDE8B2
:10513000F081784DB2F5A02F2B6807D143F480237E
:105140002B602B6843F480332B60E2E723F4803339
:105150002B602B6823F480232B60002AD9D1FEF723
:105160008BFD06462B689F03A3D5FEF785FD801BAC
:105170006428F7D9D9E7674B9A6812F00C0F07D06B
:105180009A6802F00C02082A11D15B685E020ED404
:10519000604A13689D0702D5E368012BAFD11368FD
:1051A000216923F0F80343EAC103136084E7E2684E
:1051B000594BB2B101221A60FEF75EFD554D06460D
:1051C0002B68980707D52B68226923F0F80343EA78
:1051D000C2032B6070E7FEF74FFD801B0228EFD95A
:1051E000A3E71A60FEF748FD4A4E05463368990763
:1051F0007FF562AFFEF740FD401B0228F6D994E729
:105200006269454B82B10122C3F8802EFEF734FD5E
:10521000404E0546736F9F073FF552AFFEF72CFDDA
:10522000401B0228F6D980E7C3F8802EFEF724FD44
:10523000384E0546736F98077FF542AFFEF71CFDA9
:10524000401B0228F6D970E7324B1A6C12F08052DC
:1052500028D101921A6C42F080521A641B6C03F040
:1052600080530193019B01272C4D2B68D9051BD539
:10527000A368284D012B27D12B6F43F001032B6727
:10528000FEF7FAFC234E054641F28838336F9B0740
:1052900039D5002F3FF418AF1E4A136C23F080530A
:1052A000136411E70027DFE72B6843F480732B605A
:1052B000FEF7E2FC06462B68DA05D9D4FEF7DCFCE3
:1052C000801B0228F7D930E7052B04D12B6F43F060
:1052D00004032B67D0E72A6F22F001022A672A6FA6
:1052E00022F004022A67002BCAD1FEF7C5FC41F266
:1052F000883806462B6F9807CBD5FEF7BDFC801B80
:105300004045F7D911E7FEF7B7FC401B4045BDD932
:105310000BE700BF00380240000047420070004029
:10532000334DAB6803F00C03082B3DD0314B00220A
:1053300002281A662BD1FEF79FFC06462B689901BE
:105340001FD4D4E907321343626A43EA8213E26A44
:1053500043EA0263A26A5208013A43EA02436B60DD
:10536000244B234D01221A66FEF786FC04462B6867
:105370009A013FF5ADAEFEF77FFC001B0228F6D97F
:10538000D3E6FEF779FC801B0228D7D9CDE6FEF7DD
:1053900073FC04462B689B017FF59AAEFEF76CFC0C
:1053A000001B0228F6D9C0E601283FF4BFAE6B68A7
:1053B000E26903F4800191427FF4A1AE216A03F017
:1053C0003F028A427FF49BAE616A47F6C0721A4080
:1053D0008A427FF494AEA16A03F440328A427FF499
:1053E0008EAEE26A03F0706393423FF471AE86E6DC
:1053F0000038024000004742134908B58B6803F0AB
:105400000C03042B1CD0082B1CD14A684B6849683C
:1054100013F4800314BF0D480D48C1F3881118BF61
:10542000002302F03F02A1FB0001FAF731FF064B17
:105430005B68C3F3014301335B00B0FBF3F008BDCD
:105440000248FCE70248FAE70038024000127A00FE
:105450000024F4002DE9F0410D46044610B9012066
:10546000BDE8F081444B1A6802F00F028A4228D34B
:10547000226897072DD4D00741D43F4B1A6802F019
:105480000F02AA4266D8226851076CD4130707D5C9
:105490003A4A2169936823F4604343EAC103936065
:1054A000FFF7AAFF354B364A9B68C3F30313D35C5F
:1054B000D840344B1860344B1868FCF7F9FB0020D7
:1054C000CEE7CAB21A701B6803F00F038B42C6D135
:1054D000CEE72A4B12F0040F1EBF996841F4E05149
:1054E0009960160742BF996841F460419960234969
:1054F000A0688B6823F0F00303438B60BBE762680E
:105500001E4B012A1CD11B6813F4003FA7D01B4E71
:10551000B36823F003031343B360FEF7ADFB41F21E
:1055200088380746B368626803F00C03B3EB820F58
:10553000A3D0FEF7A1FBC01B4045F3D903208FE7A2
:10554000911E01291B6802D813F0007FDEE713F0DB
:10555000020FDBE7EAB21A701B6803F00F03AB42DD
:105560007FF47DAF8FE70549E0688B6823F4E05353
:1055700003438B608AE700BF003C024000380240D2
:10558000A4D701087C00002084000020044B054AB9
:105590009B68C3F38223D35C034A1068D8407047EA
:1055A00000380240B4D701087C0000200F230360BC
:1055B0000B4B9A6802F0030242609A6802F0F00214
:1055C00082609A6802F4E052C2609B68DB0803F4D0
:1055D000E0530361034B1B6803F00F030B6070473C
:1055E00000380240003C0240036813F0430FF7B557
:1055F000044640F08C80236813F00C0F45D08B4B91
:105600008B4D00221A67FEF737FB06462B689F007A
:1056100000F1CF8021684E0715D5D4E90403D5F8F1
:1056200088201B0602F0E04243EA80131343C5F8CA
:105630008830D5F88C30226A23F4F853013A43EAD3
:105640000223C5F88C300D0714D5794AA369D2F826
:10565000881020691B0701F0706143EA80130B4337
:10566000C2F88830D2F88C30616A23F440330B439F
:10567000C2F88C306D4B6E4E01221A67FEF7FCFAB1
:1056800005463368980040F19B8023689B0633D51C
:1056900000230193664B674D1A6C42F080521A64E6
:1056A0001B6C03F080530193019B2B6843F48073C0
:1056B0002B60FEF7E1FA06462B68D90540F187809A
:1056C0005B4D2B6F13F4407340F08880A36A03F4A2
:1056D0004072B2F5407F564A40F0A480916823F0B2
:1056E000704021F4F81120F4407001439160116F73
:1056F000C3F30B030B431367206810F010001FBFA8
:105700004D4B94F82C20C3F8E02100204FE0474B8C
:10571000474E00229A66FEF7AFFA054633681F012E
:105720003FD42168CD0741BFD4E901231B0743EAD9
:105730008213C6F88430880715D53D4AE368D2F84D
:10574000840065681B0600F0E04043EA85130343CC
:10575000C2F88430D2F88C00E36920F01F00013BCE
:105760000343C2F88C3049060AD5E36862681B0619
:1057700043EA8213A26843EA02732D4AC2F88430D6
:105780002A4B2B4E01229A66FEF776FA05463368BD
:105790001A013FF530AFFEF76FFA401B0228F6D929
:1057A00004E0FEF769FA401B0228B7D9032003B0D2
:1057B000F0BDFEF761FA801B02287FF627AFF5E700
:1057C000FEF75AFA401B02287FF65BAFEEE7FEF7C2
:1057D00053FA801B02287FF66FAFE7E7A26A02F454
:1057E000407293423FF472AF2B6F104A0121C2F80E
:1057F000401E23F440730021C2F8401E2B672B6F1C
:10580000DA077FF563AFFEF737FA41F288370646CD
:105810002B6F9B073FF55AAFFEF72EFA801BB8425D
:10582000F6D9C3E7916821F4F8115FE70000474219
:1058300000380240007000400010474238B50D4665
:105840000446C8B190F82C3003F0FF021BB980F871
:105850002D20FCF7C1F9022384F82C30211D20688B
:1058600000F0BAFC62682068294600F0EBFC0123D6
:1058700084F82C30002038BD0120FCE738B590F8C2
:105880002C30022B04460D46D8B20DD0022384F8EA
:105890002C30206800F012FD2B68022B0CBF052372
:1058A000012384F82C30002038BD10B590F82C303E
:1058B000022B0446D8B209D0022384F82C30206889
:1058C00000F023FD012384F82C30002010BDF8B532
:1058D00004460E4615461F462268936836EA0303BF
:1058E00001D000202DE06B1CF7D0FEF7C5F9C01BDE
:1058F0008542F1D823685A6822F0E0025A60626853
:10590000B2F5827F0AD1A268B2F5004F02D0B2F59B
:10591000806F03D11A6822F040021A60A26AB2F5C1
:10592000005F07D11A6822F400521A601A6842F424
:1059300000521A60012384F85130002384F850305B
:105940000320F8BD38B513464268B2F5827F04469D
:105950001FD18268B2F5004F02D0B2F5806F07D137
:1059600025682868B2F5806F20F04000286007D0D5
:105970000A4680212046FFF7AAFF20B9002038BD43
:105980000A460121F6E7636D43F0200363650320B7
:10599000F5E70A460121EEE737B51346124A1568C6
:1059A000124AB5FBF2F54FF47A72554342680195FD
:1059B000B2F5827F04460BD10A468021FFF787FFAC
:1059C00078B1636D43F020036365032003B030BDFD
:1059D000019B33B1019B013B019323689B681B062C
:1059E000F6D40020F2E700BF7C00002000366E01F4
:1059F00010B50446002836D00023836290F8513059
:105A000003F0FF021BB980F85020FCF78DF82168E5
:105A1000A269022384F851300B6823F040030B6025
:105A2000D4E901300343E06803432069034360691C
:105A30000343E0690343206A0343A06A034302F47B
:105A4000007003430B60120C636A02F004021A43F5
:105A50004A60CB6923F40063CB61002001236065B9
:105A600084F8513010BD0120FCE72DE9F3411E46BA
:105A700090F85030012B04460D46174600F09D80EB
:105A8000012380F85030FEF7F7F894F85130012BDD
:105A90008046D8B240F08F80002D5AD0002F58D0C9
:105AA000032384F85130A268256300236365C4E9A9
:105AB0001033E786A363E387A3872368A786B2F53D
:105AC000004F08BF1A68E16804BF42F480421A60C0
:105AD0001A6852065EBF1A6842F040021A60B1F5B9
