:020000040800F2
:1000000000000320950500089D1F00089F1F0008A1
:10001000A11F0008A31F0008A51F00080000000082
:10002000000000000000000000000000118B00082C
:10003000A71F000800000000A18B0008058C000825
:10004000E5050008E5050008E5050008E5050008E8
:10005000E5050008E5050008E5050008E5050008D8
:10006000E5050008E5050008E5050008E5050008C8
:10007000E5050008E5050008E5050008E5050008B8
:10008000E5050008E5050008E5050008E5050008A8
:10009000E5050008E5050008E5050008E505000898
:1000A000E5050008E5050008E5050008E505000888
:1000B000E5050008E5050008E5050008E505000878
:1000C000E5050008E5050008E5050008E505000868
:1000D000E5050008E5050008E5050008E505000858
:1000E000E5050008E5050008E5050008E505000848
:1000F000A91F0008E5050008E5050008E50500085A
:10010000E5050008E5050008E5050008E505000827
:10011000E5050008E5050008E5050008B51F00082D
:10012000E5050008E5050008E5050008E505000807
:10013000E5050008E5050008E5050008E5050008F7
:10014000E5050008E5050008E5050008E5050008E7
:10015000E5050008E5050008E5050008E5050008D7
:10016000E5050008E5050008E5050008E5050008C7
:10017000E5050008E5050008E505000800000000A9
:10018000E5050008E5050008E5050008E5050008A7
:10019000E5050008E5050008E5050008E505000897
:0C01A000C11F0008E5050008CD1F000885
:1001B00010B5054C237833B9044B13B10448AFF3A1
:1001C00000800123237010BD70010020000000009A
:1001D0000417020808B5034B1BB103490348AFF3EA
:1001E000008008BD00000000740100200417020810
:1001F00001F0FF01102A2BDB10F0070F08D010F8D8
:10020000013B013A8B422DD010F0070F42B3F6D1DB
:10021000F0B441EA012141EA014122F007047FF0F4
:1002200000070023F0E80256083C85EA010586EA4B
:10023000010685FA47F5A3FA87F586FA47F6A5FA87
:1002400087F68EB9EED1F0BC01F0FF0102F0070293
:1002500032B110F8013B013A83EA010313B1F8D13E
:100260000020704701387047002D06BF354603381F
:10027000073815F0010F07D1013015F4807F02BF58
:10028000013015F4C03F0130F0BC0138704700BFA9
:1002900053B94AB9002908BF00281CBF4FF0FF31ED
:1002A0004FF0FF3000F074B9ADF1080C6DE904CEE9
:1002B00000F006F8DDF804E0DDE9022304B0704741
:1002C0002DE9F047089D04468E46002B4DD18A4209
:1002D000944669D9B2FA82F252B101FA02F3C2F13C
:1002E000200120FA01F10CFA02FC41EA030E9440CD
:1002F0004FEA1C48210CBEFBF8F61FFA8CF708FBEE
:1003000016E341EA034306FB07F199420AD91CEBC5
:10031000030306F1FF3080F01F81994240F21C81F7
:10032000023E63445B1AA4B2B3FBF8F008FB10333F
:1003300044EA034400FB07F7A7420AD91CEB040474
:1003400000F1FF3380F00A81A74240F20781644444
:10035000023840EA0640E41B00261DB1D4400023C9
:10036000C5E900433146BDE8F0878B4209D9002D2D
:1003700000F0EF800026C5E9000130463146BDE8B7
:10038000F087B3FA83F6002E4AD18B4202D3824221
:1003900000F2F980841A61EB030301209E46002DD0
:1003A000E0D0C5E9004EDDE702B9FFDEB2FA82F225
:1003B000002A40F09280A1EB0C014FEA1C471FFA83
:1003C0008CFE0126200CB1FBF7F307FB131140EA6A
:1003D00001410EFB03F0884208D91CEB010103F137
:1003E000FF3802D2884200F2CB804346091AA4B2F9
:1003F000B1FBF7F007FB101144EA01440EFB00FECD
:10040000A64508D91CEB040400F1FF3102D2A64531
:1004100000F2BB800846A4EB0E0440EA03409CE7D0
:10042000C6F12007B34022FA07FC4CEA030C20FA7D
:1004300007F401FA06F31C43F9404FEA1C4900FA9D
:1004400006F3B1FBF9F8200C1FFA8CFE09FB18111A
:1004500040EA014108FB0EF0884202FA06F20BD98D
:100460001CEB010108F1FF3A80F08880884240F2DD
:100470008580A8F102086144091AA4B2B1FBF9F021
:1004800009FB101144EA014100FB0EFE8E4508D91C
:100490001CEB010100F1FF346CD28E456AD90238A1
:1004A000614440EA0840A0FB0294A1EB0E01A14286
:1004B000C846A64656D353D05DB1B3EB080261EBF4
:1004C0000E0101FA07F722FA06F3F1401F43C5E9CE
:1004D000007100263146BDE8F087C2F12003D84004
:1004E0000CFA02FC21FA03F3914001434FEA1C4746
:1004F0001FFA8CFEB3FBF7F007FB10360B0C43EA38
:10050000064300FB0EF69E4204FA02F408D91CEBE7
:10051000030300F1FF382FD29E422DD902386344E5
:100520009B1B89B2B3FBF7F607FB163341EA034185
:1005300006FB0EF38B4208D91CEB010106F1FF38D4
:1005400016D28B4214D9023E6144C91A46EA0046CB
:1005500038E72E46284605E70646E3E61846F8E65D
:100560004B45A9D2B9EB020864EB0C0E0138A3E7A6
:100570004646EAE7204694E74046D1E7D0467BE787
:10058000023B614432E7304609E76444023842E7FF
:10059000704700BFDFF834D0002103E00C4B5B58FC
:1005A000435004310B480C4B42189A42F6D30B4A85
:1005B00002E0002342F8043B094B9A42F9D305F0CC
:1005C0007BFA20F0C3F800F0FFFE70470000032024
:1005D000148F0A0800000020700100207001002024
:1005E00094560120FEE700F039BC00F0ABBC704728
:1005F00010B5042104461FF0B5FE204610BD0000D2
:1006000038B50C4B0C4C18800C4B82201980636859
:10061000984740F6110398420AD1094D23682C608F
:10062000822098472B688220DB689847002038BDDD
:100630000120FCE78C010020580000208E010020E2
:10064000900100204FF4A071F020FFF7D9BF000007
:10065000F7B52D4D2B6804461B698220984780B260
:100660002080002843D02B680DF106025B6901A9A8
:1006700082209847BDF80620A2F5B47292B20A2AE9
:1006800037D90B23B2FBF3F2204B1B889A4201D9D6
:10069000013B9AB2BDF8043040F6B8318B422AD8FB
:1006A000C3F571630E339BB20F21B3FBF1F318490D
:1006B00009888B4201D94B1E9BB2164E164D3068ED
:1006C0002F68834281B28CBF591AC91AB8B2BA4294
:1006D0008CBF101A801A89B280B201440529C8BFA4
:1006E00033603368C8BF2A6063802B68A38003B07F
:1006F000F0BD0022CEE7C3F56D6308339BB20E2B2D
:10070000D2D80023D9E700BF900100208E0100203D
:100710008C010020940100209801002037B5684624
:100720000D461446FFF794FFBDF8000030B1BDF848
:1007300002302B60BDF804302360012003B030BDCF
:10074000704770477047012380F8741080F8753047
:100750007047002070470000034B4164003918BF08
:1007600001211970704700BFE75301200020704736
:10077000836B0BB10846184770474FF6FF70704700
:10078000406803689B69184770477047704700F0DE
:1007900079BC08B503680446D3F8803098472368CD
:1007A00020469B6F984700F0EBF8236820461B6FAC
:1007B0009847292001F0A8F800F0E2F823682046C5
:1007C0001B6F9847F8E710B504460AF0ABFF2368A3
:1007D0002046D3F8AC30BDE81040184700F044BCC8
:1007E00000F048BC00F074BC00F01ABC00F074BC0F
:1007F00000F07CBC00F01EBC0AF008BA10B57C21E9
:1008000004461FF0AFFD204610BD90F877301BB1B5
:10081000406803681B6818471846704710B590F881
:10082000341090F874400C4B8C421A7809D03AB9C5
:100830000A4A0B491488088810800C8001221A701B
:1008400010BD002AFCD0054A05491488088810808C
:100850000C800022F3E700BFE0530120DC530120AD
:10086000DE53012070B50D46194635B9094B0A4AC9
:100870000A4840F2D2211FF029FEC0E90F52084B6E
:10088000003A18BF01221A700368BDE87040D3F81F
:100890008C30184774170208AC170208FA170208C0
:1008A000E653012008B5094B1B888B4203D8084B3F
:1008B0001B88934205D9074B074A08489E211FF021
:1008C00005FE074B1980074B1A8008BDDC53012039
:1008D000DE5301203F180208A2180208FA17020886
:1008E000E2530120E4530120012108B5002208460B
:1008F00007F0E2FD0A4B186028B90A4B0A4A292181
:100900000A481FF0E3FD00220421012007F09AFEAF
:10091000074B186018B9074B034A2D21F0E708BDB3
:10092000A0010020C0190208091A0208381A02089A
:100930009C010020861A0208024B4FF0FF31186814
:1009400007F010BEA0010020014B186807F044BE5C
:10095000A0010020024B0021186807F003BE00BF71
:10096000A0010020FFF7F0BF0348044900680023FE
:100970001A4607F0ADBE00BF9C0100200400002015
:1009800013B5084C00231A4601A9206807F0E2FEBF
:1009900020684FF0FF33002201A907F0DBFE02B010
:1009A00010BD00BF9C01002003685B6C184701204C
:1009B000704703689B6A184782B0002301930D4B70
:1009C0001A6B42F400021A631A6B02F400020192DD
:1009D000019A1A6942F400021A611A6922F40002AB
:1009E0001A61054B054A1A61054B4FF080629A6007
:1009F00002B070470038024050380020450A000815
:100A000000E100E040F2EF3070470000054B03606A
:100A1000054B4FF08062C3F88820BFF34F8FBFF3C0
:100A20006F8F7047241C020800E100E010B50446F7
:100A30004FF45A61FFF7EAFF20461FF093FC20466F
:100A400010BD0000024B1B68586803685B691847BB
:100A5000E853012070B5044625460A4B0C300026A9
:100A600060602672667245F8203B602229460AF0D3
:100A7000AFFF04F55A63EE602435AB42FBD120464C
:100A800070BD00BF241C020808B50B290BD8DFE895
:100A900001F01206100A0A0A0A08080808080120CC
:100AA00008BD0520FCE7054B054A064867211FF0F5
:100AB0000DFD0020F4E70220F2E700BFC81A02088B
:100AC000E31A02082D1B020808B50A2909D8DFE835
:100AD00001F010060E0808080806060606000120A8
:100AE00008BD054B054A064888211FF0EFFC002091
:100AF000F6E70220F4E700BFC81A0208791B0208D3
:100B00002D1B02082DE9F8434F7F0C4639468146DC
:100B1000FFF7BAFF94F81E80054641464846FFF7A6
:100B2000B3FF414606464846FFF7CEFFA18A628BD7
:100B3000424B521A1A649A61228B521A1A61E28A43
:100B4000586342EA01425A6420696268D863DA60F5
:100B5000216894F81CC080294FEA0C6226D010D876
:100B6000202945EA020461D040295FD004295DD0E4
:100B7000324B2A4342F400324745DA615AD0304AB8
:100B800040E0B1F5807F07D0B1F5007FF0D142F4AD
:100B9000003242F0090203E042F4003242F00A025D
:100BA000DA61E2681A625E6258612AE0A4682A4348
:100BB00042F40032211DD962DA6122785E62586106
:100BC00042B1012A21D01F4B1F4A20484FF489719E
:100BD0001FF07CFCDA69618822F47F42013922F03F
:100BE000100242EA0122DA610120144BDA6942F074
:100BF0002002DA61DA699206FCD410229A60002899
:100C0000BDD0134A1A60BDE8F8836288D969541EC2
:100C100021F47F4222F0100242EA0422BCF1FF00DC
:100C200042F0100218BF0120DA61DEE744F400341C
:100C3000DC61B8E740F20122E4E700BF00B0024007
:100C400001020100C41B0208DE1B02082D1B020862
:100C50000102020070B50C46897FFFF735FFA68AB6
:100C6000E18A628B154B2569586341EA0641921B64
:100C70005964DD631A642668E168082E0DD19A6113
:100C80001A615862207F0E4A42EA0062DA610D4A18
:100C900019625D61DD601A6070BD0022D8611A6161
:100CA00048090A0A02F4784200F4FC600243C1F3E6
:100CB000C4010A439A63044AEDE700BF00B0024052
:100CC000090001000102020001020300034B1A683F
:100CD000D207FCD423229A60704700BF00B00240C4
:100CE00030B50F4C2568ED07FCD423250904A56019
:100CF00041F001010225FF2B65636164E0630AD0C6
:100D00000849656241EA0363E361074B226260615F
:100D1000E060236030BDE561039BA363034BF8E70C
:100D200000B00240090001000100020001000300C0
:100D30000120704738207047382303FB010008303A
:100D40007047382303FB01000830704701207047CB
:100D500042F2C450704742F2C45303FB0100083012
:100D6000704742F2C45303FB010008307047012072
:100D700070471020704700EB01100830704700EBFF
:100D8000011008307047084601F0DABB10B5034B7C
:100D90000360044609F087FC204610BDDC1C0208F5
:100DA00010B50446FFF7F2FF204640211FF0DAFAA3
:100DB000204610BD10B5034B0360044609F073FCD8
:100DC000204610BDA81C020810B50446FFF7F2FF2C
:100DD000204642F2CC511FF0C5FA204610BD00005B
:100DE00010B5034B0360044609F05DFC204610BDBE
:100DF000741C020810B50446FFF7F2FF20461821C4
:100E00001FF0B0FA204610BD10B5094B0360044630
:100E100000F517503830FFF7B9FF04F12C00FFF749
:100E2000C9FF04F11400FFF7DBFF204610BD00BF2F
:100E3000101D020808B50248FFF7E6FF08BD00BF15
:100E4000A801002010B50446FFF7DEFF204642F25D
:100E500094711FF087FA204610BD00002DE9F34180
:100E600001F028F9054601F029F90024014623463E
:100E700028462246009413F075F9264B264A274D42
:100E80001A60204603F0C2FE254813F0D3F82B78F1
:100E9000BFF35B8FDB0736D428461FF065FA90B3AB
:100EA000204C214F214B236007F1440604F114002C
:100EB00004F12C086060C4F80880E760266109F03E
:100EC000F3FB1B4B6361404609F0EEFB194BE362F9
:100ED000384609F0E9FB04F50053174AC3F8F82532
:100EE00003F5C76003F00EFF224607F140013046CC
:100EF00003F0FEFE304601F023FB10481FF004FB18
:100F000028461FF03DFA0E4802B0BDE8F041FFF759
:100F10003EBC00BF4C5401205C370020A4010020DF
:100F200008000020A8010020A0270020101D0208B2
:100F3000741C0208A81C0208DC1C0208350E0008FC
:100F4000E03600200148FFF724BC00BFE036002057
:100F500070B5234C234E244B244D23603046FFF7BD
:100F600079FD284616F008FA214B2248DC60224C15
:100F700003600022F0204FF480712080C3E9121238
:100F80001E4C1F492080C3E919121E4C1A864FF0CF
:100F900080714FF4A07059670121C3E90422C3E9AD
:100FA0000622C3E90822C3E90A22C3E90E22C3E9E3
:100FB0001022C3E91422C3E916221A6683F86C20B2
:100FC0001A67C3E9016583F8781020800E4C83F816
:100FD000341020800D4802700D4A1A6070BD00BFA9
:100FE0003C290020402900206417020860370020B7
:100FF000E0360020E8530120DC530120E2530120B9
:1010000001000001DE530120E4530120E0530120E0
:10101000F01802080148FFF7F9BC00BF4029002082
:10102000034B902283F85A2383F85823704700BF5C
:1010300000E100E0094A0A49D3680A48C3F30A03F9
:10104000013B9BB20B801169C1F30A010139018098
:101050001364536B43F0010353637047006801400E
:10106000DC370020DA370020014BD3F8AC007047A2
:1010700000680140024B0122C3F8AC105A6270476D
:101080000068014070B5044609F015FE23685D6EE6
:101090000FF04CFE01462046A8472368054AD3F8C6
:1010A00088502046AC460023BDE87040A2F51631BA
:1010B000604700BF005802D009F0E4BD90F84B3003
:1010C00013B1024B01221A7009F0E8BDD837002095
:1010D00009F0A2BD09F0FBBE034B4FF080629A609D
:1010E0004FF080729A60704700E100E0084B4FF0CB
:1010F0008062C3F88820BFF34F8FBFF36F8F4FF02C
:101100008072C3F88820BFF34F8FBFF36F8F704793
:1011100000E100E010B5144C236823B3134B144ACC
:101120001B6C11888B4213D1124B198805F0B2FF4A
:10113000226892F86630013382F86630FFF714FCBB
:1011400020680AF0EFFABDE810400020FFF7F8BA77
:1011500005F0A0FF206803681B6A9847BDE81040AF
:101160000020FFF7EEBA10BDE853012000680140EF
:10117000DC370020DA37002007B5064BADF8060053
:101180001B68054801220DF1060106F094FC03B02E
:101190005DF804FB10000020C03900200C4982B02B
:1011A000002303F25E2201EB820292ED007ADDED74
:1011B000017A013377EE877A3C2BCDED017AF0D1BD
:1011C0009DED010ADFED037A80EE270A02B0704739
:1011D000583A0020000070422DE9F843434C444D3A
:1011E000D4F86C3A002B71D000232846C4F86C3A2E
:1011F000404F414E04F054FD4FF0FF31284604F0BB
:10120000C3FD284604F00FFE3A68336801320A2114
:1012100018443A6092FBF1F301FB13223060002A7C
:1012200054D13368B3FBF1F307EE903A9FED337A74
:10123000F8EEE77A67EE877A9FED317A67EE877A84
:10124000C4ED007A2369002B3DD0D4F8783ADFF85A
:10125000BC80002BDFBF2368A3610123C4F8743A6C
:1012600094ED007AD4ED017AB4EEE77AF1EE10FA5B
:10127000C4BF23686360D4F8783A0133C4F8783A7D
:10128000D8F800304FF0010903EB090203F25E23A6
:10129000C4F8709A04EB83032168C8F800203B2A45
:1012A000196010DD3C23D4F8780A90FBF3F0FFF7C7
:1012B00075FF063004EB8000002380ED000AC8F8BB
:1012C0000030C4F8749A00233B6033602369012B1B
:1012D00007D162692AB90B4B0B481B68102104F037
:1012E00004FF012007F0CEF87AE700BF583A00204B
:1012F000EC370020D4440020DC440020333353403A
:1013000000008039140000203C380020D844002020
:10131000F0B5A1B0102200210AA81FF05DFA142236
:10132000002103A81FF058FA0021302214A81FF052
:1013300053FA0024224B01941A6C42F080521A6432
:101340001B6C03F080530193019B1E4B02941A689F
:1013500042F440421A601B6803F4404302930122A6
:10136000029B4FF48033CDE9082302254FF480031C
:10137000CDE90E5308274FF4A873042608A8CDE939
:1013800010731295139605F0A3FE0F23CDE90335D4
:101390004FF4A0514FF48053CDE9061303A8052163
:1013A000059406F06DF8C023189314A84FF4003389
:1013B00014971A961D9306F03DF921B0F0BD00BFB9
:1013C00000380240007000402DE980489BB004F0D6
:1013D00081FBFFF79DFF142200210DA800241FF0C0
:1013E000FBF9C44B00941A6BC348C44D42F0200271
:1013F0001A631A6B02F020020092009A01941A6B91
:1014000042F080021A631A6B02F080020192019A84
:1014100002941A6B42F004021A631A6B02F004027F
:101420000292029A03941A6B42F001021A631A6B39
:1014300002F001020392039A04941A6B42F0020232
:101440001A631A6B02F002020492049A05941A6B52
:1014500042F040021A631A6B02F040020592059AAC
:1014600006941A6B42F010021A631A6B02F0100213
:101470000692069A07941A6B42F008021A631B6BD5
:1014800003F00803079322460421079B05F024F884
:101490009B4822464FF4805105F01EF82246994899
:1014A0004FF44051012605F017F802274FF0040BC6
:1014B00091480F940DA9CDE90DB6109704F024FFC3
:1014C0004FF480528E480DA9CDE90D26CDE90F4489
:1014D00004F01AFF0DA94FF440528A48CDE90D26B9
:1014E000CDE90F4704F010FF8748884A026004F0F6
:1014F0008BFD874B874A2C62C5E9003228464FF4A2
:101500008042C5E90424C5E90244C5E9064405F062
:10151000C5F91021284605F001FC2146284605F0B2
:101520001CFC7D487D4984624FF48272C0E9001240
:101530004FF400751822C0E906520A22784DC262A3
:10154000C0E90244C0E90444C0E9084406F076FA60
:10155000744A0D974FF01008C5E900264022C5E9EE
:1015600004824FF4C072C5E906244FF400620323DD
:101570004FF00709C5E908240DA94FF40052284689
:10158000CDE911374FF0080AC5E9024BAA62CDE94F
:101590000E9BCDF84090139706F076F94FF6FF7248
:1015A00009A92846CDE90AA6099608940C9406F0E4
:1015B0008BF9304604F0BAFA4FF6FF7209A92846B3
:1015C000CDE9097ACDE90B6406F07EF903234FF6E5
:1015D000FF7209A92846CDE9093ACDE90BB406F016
:1015E00073F94FF40C720892089B0C934FF6FF723C
:1015F00009A92846CDE909BA0B9606F065F940F22B
:101600006A51284606F077F9342221460DEB020094
:101610001FF0E2F8444D454BAC86C5E90034092380
:101620004FF01D0CC5E905360323C5E907C340F299
:101630000D1E40F24313C5E909E3284640F2471363
:1016400040F2171AC5E90BA3C5E902442C6185F8DD
:10165000364005F027FCFF21F022CDE912144FF4AB
:10166000806B05214FF4A073CDE90E24CDE914B1B0
:10167000CDE916420DA922462846CDE910372C4D5A
:1016800018930D94ADF864408DF8664005F0D5FCD4
:10169000284B2B601B6898472B68274DDB689847C1
:1016A000264BC5E90A47C5E90C442846C5E900347C
:1016B000C5E9027404F02BFD3146284604F0E0FD34
:1016C000214642460DA81FF087F81D4D1D4AEE61C8
:1016D0004FF48033C5E9002328461B4BAB626E6193
:1016E000AC602C612C7685F82040EC62EC6085F8CB
:1016F00030402BE0003802400008024090380020C3
:1017000000040240000C0240343800200030024047
:10171000005C0040A0860100C0390020005001405C
:101720008C390020400100A0E4380020006801400E
:10173000E4370020200000205038002000B0024094
:10174000EC370020002001400100000F04F002FAF5
:101750000DA92846CDE90D96254DCDF83C9004F015
:1017600065FB2449244EAC6042F2CF03C5E9001367
:10177000284640F2E733EB60CDE90D44AC6106F05A
:10178000F7FC0DA92846CDE90D4406F00BFD1B4BD7
:1017900033603046CDE90D4404F046FC42460DA9C5
:1017A0003046CDE90D4404F07FFCFEF71CFF2846CF
:1017B00006F0C1FB4146304604F049FC40F61103F7
:1017C00022464146304604F090FC06F0CBFD0C4A20
:1017D0000C48214606F000FE0B4B0C4A18602146CF
:1017E0000B4806F0F9FD0B4B186006F0D5FDFEE73F
:1017F000183A0020001400403C38002000740040DB
:10180000301D0208EB050008E0370020541D0208D7
:10181000D9110008E8370020704770477FB5094BA1
:101820008DF817201B6802930DF117020123009217
:1018300001930A460146044805F0D8F807B05DF860
:1018400004FB00BF0C000020903800207FB500236F
:101850008DF81730084B1B6802930A4601230DF1DF
:101860001701009101930146044805F04FF99DF8D6
:10187000170007B05DF804FB0C0000209038002032
:101880001FB5084C24680092CDE901340A460123B3
:101890000146054805F03AF9003818BF012004B0A8
:1018A00010BD00BF0C0000209038002004F03EB9AD
:1018B00008B506480022042104F00EFEBDE80840E9
:1018C00002480122042104F007BE00BF00080240C4
:1018D00038B50B4D044601220A484FF4005104F07C
:1018E000FBFD00220421284604F0F6FD2046FFF708
:1018F00043FC28460122BDE83840042104F0ECBD39
:1019000000080240000C024038B50B4D044600228E
:101910000A484FF4005104F0DFFD0022042128465C
:1019200004F0DAFD2046FFF727FC28460122BDE837
:101930003840042104F0D0BD00080240000C0240F1
:10194000F7B5144E144F05460C46304600220421CC
:1019500004F0C2FD00224FF40051384604F0BCFDF3
:101960002846FFF709FC0D4B0D481B68224601A9CC
:1019700006F03FFA384601224FF40051019C04F072
:10198000ABFD30460122042104F0A6FD204603B041
:10199000F0BD00BF00080240000C02401000002013
:1019A000C039002004F0C2B80268084B9A4210B552
:1019B000044601D104F0A8F82268054B9A4202BF00
:1019C000044B0122C3F86C2A10BD00BF0004014083
:1019D00000140040583A002082B00E4B00220092C2
:1019E000596C41F480415964596C01F48041009173
:1019F00000990192196C41F0805119641B6C03F03D
:101A000080530193019B0F216FF0010002B004F09D
:101A1000BBBA00BF0038024010B5044688B014229B
:101A2000002103A81EF0D8FE2268124B9A421ED154
:101A300003F58C33002101915A6C0F4842F48072F7
:101A40005A645A6C02F480720192019A02911A6BE4
:101A500042F001021A631B6B03F001030293029B25
:101A60008022032303A9CDE9032304F04DFC08B031
:101A700010BD00BF00200140000002400268094B79
:101A80009A4282B00BD100230193074B1A6B42F4A8
:101A900080521A631B6B03F480530193019B02B0C5
:101AA000704700BF003002400038024010B50446C5
:101AB00088B01422002103A81EF08EFE2268124B6B
:101AC0009A421ED103F5E233002101911A6C0F48AE
:101AD00042F000521A641A6C02F000520192019A0C
:101AE00002911A6B42F001021A631B6B03F00103AF
:101AF0000293029B2022032303A9CDE9032304F0D0
:101B000003FC08B010BD00BF00740040000002409C
:101B100007B50F4B02689A4216D10022A3F5F04395
:101B20000192196B41F4000119631B6B03F400036C
:101B3000019305215A20019B04F026FA5A2003B094
:101B40005DF804EB04F052BA03B05DF804FB00BF8B
:101B500000B002402DE9F043044689B01422002170
:101B600003A81EF039FE2268244B9A4243D1244C2C
:101B7000244800250095236B43F004032363236B63
:101B800003F004030093009B0195236B43F00103D2
:101B90002363236B03F001030193019B4FF01209B0
:101BA0004FF400734FF001080327042603A9CDE981
:101BB0000339CDE90587079604F0A6FB4FF480733F
:101BC0001148079603A9CDE90339CDE9058704F04B
:101BD0009BFB0295236C43F400032364236C03F402
:101BE00000030293029B236A43F400032362236AE7
:101BF00023F40003236209B0BDE8F083005C0040D9
:101C0000003802400008024000000240F0B50446DF
:101C10008DB01422002107A81EF0DEFD2268574B6C
:101C20009A4240F0A88003F55043002500955A6C75
:101C3000534842F080625A645A6C02F0806200920B
:101C4000009A01951A6B42F020021A631A6B02F097
:101C500020020192019A02951A6B42F001021A6366
:101C60001A6B02F001020292029A03951A6B42F07B
:101C700002021A631A6B02F002020392039A04959D
:101C80001A6B42F040021A631A6B02F0400204928F
:101C9000049A05951A6B42F004021A631A6B02F05B
:101CA00004020592059A06951A6B42F008021A631F
:101CB0001B6B03F00803069302240E26069B0A946E
:101CC0004FF4806307A9CDE907340B9604F01CFBA1
:101CD00041F658032B480B9607A9CDE9073409278D
:101CE000CDE9095404F010FB032327480B9707A9FB
:101CF000CDE90734CDE9095404F006FB4FF47063D5
:101D000021480B9607A9CDE90734CDE9095404F021
:101D1000FBFA4FF40C631D480B9607A9CDE9073475
:101D2000CDE9095404F0F0FAC02319480B9607A92D
:101D3000CDE90734CDE9095404F0E6FA0823154843
:101D40000B9607A9CDE90734CDE9095404F0DCFA74
:101D50004FF4A0530D480B9707A9CDE90734CDE9FF
:101D6000095404F0D1FA58202A46052104F00CF950
:101D7000582004F03BF90DB0F0BD00BF00680140F1
:101D8000001402400000024000040240001802401B
:101D900000080240000C024010B5044688B014222E
:101DA000002103A81EF018FD2268144B9A4223D18B
:101DB00003F56843002101915A6C114842F48012E6
:101DC0005A645A6C02F480120192019A02911A6BC1
:101DD00042F020021A631B6B03F020030293029B64
:101DE0004FF4607202230321CDE903230523CDE9DB
:101DF000061303A904F088FA08B010BD0050014092
:101E00000014024007B50F4B02689A4216D1002217
:101E100003F509330192196C41F0200119641B6C20
:101E200003F02003019305213720019B04F0ACF857
:101E3000372003B05DF804EB04F0D8B803B05DF8C8
:101E400004FB00BF001400402DE9F04186B00023E0
:101E500003932B4B1C68002C4FD14FF00108C3F8A3
:101E60000080284B00949A6B274842EA08029A6344
:101E70009B6B03EA08030093022703260C25009BB3
:101E800001A94FF63F03CDE90137CDE9046504F020
:101E90003BFA1E48059501A9CDE90187CDE9034626
:101EA00004F032FA48F233131948059501A9CDE937
:101EB0000137CDE9034604F027FA4FF6837315483E
:101EC000059501A9CDE90137CDE9034604F01CFAD7
:101ED0004CF203731048059501A9CDE90137CDE90E
:101EE000034604F011FA60230C48059501A9CDE9D9
:101EF0000137CDE9034604F007FA06B0BDE8F081EA
:101F0000E044002000380240001402400008024073
:101F10000018024000100240000C02400004024081
:101F200030B5014689B000222C2004F02DF82C2079
:101F300004F05CF80025154B02955A6C144C42F0E5
:101F400002025A645B6C03F00203029301A903A826
:101F5000029B05F051FB05F03FFB0E4B236040F266
:101F6000E733E36040000C4BB0FBF3F001386060F6
:101F700020462561A56006F0FBF820B9204605F053
:101F8000DAFF09B030BD0120FBE700BF0038024096
:101F9000E44400200004014040420F007047FEE787
:101FA000FEE7FEE7FEE77047014805F0D8BF00BF37
:101FB000E4440020014805F0D2BF00BF183A0020D9
:101FC000014804F0DDBF00BFE4380020014804F000
:101FD000CCB800BF503800200120704708B51EF073
:101FE000A7FA162303604FF0FF3008BD08B51EF0B6
:101FF0009FFA16230360FEE770B50D4614460E46A1
:10200000731B9C4201DC204670BDAFF3008006F8D4
:10201000010BF5E770B50D4614460E46731B9C4246
:1020200001DC204670BD16F8010BAFF30080F5E728
:102030004FF0FF3070474FF400534B600020704763
:1020400001207047002070470A4A116808B503460E
:1020500009B9094911601068694603448B4206D9E1
:102060001EF066FA0C2303604FF0FF3008BD1360CA
:10207000FCE700BF2445002098560120704710B5AA
:10208000042104461EF06EF9204610BD012908B552
:1020900006D0022908D059B902F004FE006808BD34
:1020A00002F000FE4068FAE702F0FCFD8068F6E707
:1020B0000020F4E7004870478C1D02080920704793
:1020C00013B5002451B1036801948DF8034001AAAF
:1020D0009C680DF10303A04702B010BD0846FBE762
:1020E00040897047808970478088704783798088ED
:1020F000184480B27047C07900F07F007047C07903
:10210000C0097047704710B5082104461EF02AF92F
:10211000204610BD7047704700F5967308684968FF
:1021200003C370470020704781807047C1807047AB
:102130000181704741817047704770477047704711
:10214000704710B4C4880368121B84885B6D091B38
:1021500012B25DF8044B09B218474FF6FF73838142
:102160004FF0FF3303621368C3611060704770471C
:102170007047416070477047064BC0F848310023F4
:10218000C0F84C3100F5A073C0F84401C0F83C31F0
:10219000704700BFA922000801230372704790F81E
:1021A00025201AB190F8242002B1186070477047BA
:1021B00070477047704701464068036810315B6E96
:1021C000184701464068036810311B6E1847704776
:1021D000704710B50022B1F90840B1F90A10028029
:1021E00042808480C18010BD10B4C2684168541020
:1021F000034601EB6200D20748BF0A599B685DF8AD
:10220000044B48BFD358184743682BB183682BB998
:10221000C06800F001007047184670470120704701
:1022200010B50C2104461EF09DF8204610BD10B5D7
:10223000102104461EF096F8204610BD10B54FF44C
:10224000AC7104461EF08EF8204610BD10B5382142
:1022500004461EF087F8204610BD10B5282104461C
:102260001EF080F8204610BD08B50EF05FFDBDE8F9
:1022700008400FF0FFB890F8252012B103685B69A1
:102280001847704710B50446D0F83C0158B10368B0
:10229000DB68984738B1D4F83C0103689B689847DD
:1022A0000023C4F83C3110BD2DE9F14FD0E9545A58
:1022B0000746A86803681B6A9847B0F5C26F05D245
:1022C000454B464AA32146481EF000F9686803685A
:1022D0001B6A98470F2803D8424B404AA421F2E7D3
:1022E000E86803681B6A98470B2803D83E4B3B4AB3
:1022F000A521E8E7DFF8F8900EF018FD0EF01CFDC0
:10230000D9F8000010B10368DB689847D9F80000DD
:1023100010B103681B689847DFF8D880D8F8000030
:1023200010B103685B699847D7F8380110B10368AA
:102330005B689847D8F8000010B103681B6898479D
:10234000D7F8380110B103689B689847E8680368BC
:1023500000215B6A98474FF0000B244B0360044652
:10236000C0F804B080F808B0A868036859465B6AF2
:102370009847064602F0C0FD6868036859465B6AE4
:1023800098473146054602F00BFDC9F80040C7F8F2
:102390003851C8F80060E5B12B1DCAF80030336829
:1023A000C5F808A03046DB68F56398472B682846D7
:1023B0001B6898472146304610F066F9236820468E
:1023C0001B69984723685B69204601B0BDE8F04F60
:1023D00018472B46E1E700BF501E0208DE1E020828
:1023E000E21F020829200208CC200208102402085B
:1023F000305401202C540120044B1B6893F87620A4
:102400000AB1D86C00B99868704700BFE853012042
:10241000F0B50446807A637A0130C0B2984289B040
:10242000A07250D8B4F90C20002110F033F910F04C
:10243000010283B24DD04FF6FF710028D8BF0A4683
:102440001344E381244E254F3188B4F818C0E38942
:10245000B7F90000ADF81E00CA1A606863445B1A41
:10246000ADF81C30036812B200251B692283ADF859
:102470001820ADF81A5006A99847A37A012B26D147
:10248000174B1B781BB3A169606904AB03C3154BE1
:10249000186803681B6B98473388ADF81C303B887D
:1024A000ADF81E300390ADF81850ADF81A50FFF794
:1024B000A3FFFF22036800920195DC68039904AB37
:1024C00006AAA04703E0012323720023A37209B0E8
:1024D000F0BDE081B6E700BFDC530120DE530120F0
:1024E000E6530120E8530120F8B5044617460E468E
:1024F0000EF03CFC0E4B1C600E4B23600E4B002577
:10250000C4E950350D4BC4E9525518680368294693
:102510009B68C4E94E55C4E954769847284602F0B2
:1025200075FBFFF769FF16F00EFD2046F8BD00BFF2
:102530003C540120C4230208AC230208E8530120C4
:10254000064BC0F848310023C0F84C3100F5A073A9
:10255000C0F84401C0F83C31704700BFA922000810
:10256000064BC0F848310023C0F84C3100F5A07389
:10257000C0F84401C0F83C31704700BF452700084F
:10258000064BC0F848310023C0F84C3100F5A07369
:10259000C0F84401C0F83C31704700BF0526000870
:1025A00037B504460023134A026043600372417248
:1025B0008372C4E90533C4E90733C4E90933C4E9C4
:1025C0000B33E3814FF4807363630B4B23610B4B3D
:1025D000B3F900100A4BA181B3F9005010300190FB
:1025E000FFF7A6FD01982946FFF7A4FD204603B09A
:1025F00030BD00BF9C24020834240208DC530120B3
:10260000DE5301202DE9F047D0E9544A0746A0687F
:1026100003681B6A984742F2C353984205D8424B5D
:10262000424AA32142481DF051FF606803681B6ABB
:1026300098470F2803D83F4B3C4AA421F2E7E068B3
:1026400003681B6A9847372803D83B4B374AA521B4
:10265000E8E7DFF8E8900EF069FB0EF06DFBD9F8C3
:10266000000010B10368DB689847D9F8000010B18A
:1026700003681B689847DFF8C880D8F8000010B1DD
:1026800003685B699847D7F8380110B103685B6845
:102690009847D8F8000010B103681B689847D7F82E
:1026A000380110B103689B689847E068036800210F
:1026B0005B6A984714210546FFF772FFA06803681C
:1026C00000215B6A9847064602F04CFF6068036889
:1026D00000215B6A98473146044602F057FCC9F86E
:1026E0000050C7F83841C8F80060DCB1231DCAF8B3
:1026F00000303368C4F808A03046DB68F4639847BC
:10270000236820461B689847294630460FF0BCFFD7
:102710002B6828461B6998472B6828465B69BDE8EB
:10272000F04718472346E2E7501E02086F210208CF
:10273000E21F020829200208CC20020830540120A0
:102740002C5401202DE9F047D0E9544A0746A068EF
:1027500003681B6A9847B0F5C26F05D2424B434AE3
:10276000A32143481DF0B2FE606803681B6A9847C6
:102770000F2803D83F4B3D4AA421F2E7E0680368E5
:102780001B6A9847372803D83B4B384AA521E8E70E
:10279000DFF8E8900EF0CAFA0EF0CEFAD9F8000091
:1027A00010B10368DB689847D9F8000010B10368DE
:1027B0001B689847DFF8C880D8F8000010B103689C
:1027C0005B699847D7F8380110B103685B68984790
:1027D000D8F8000010B103681B689847D7F8380193
:1027E00010B103689B689847E068036800215B6A42
:1027F000984714210546FFF7D3FEA068036800211F
:102800005B6A9847064602F077FB60680368002120
:102810005B6A98473146044602F0C2FAC9F8005094
:10282000C7F83841C8F80060DCB1231DCAF8003091
:102830003368C4F808A03046DB68F463984723681F
:1028400020461B689847294630460FF01DFF2B682D
:1028500028461B6998472B6828465B69BDE8F04706
:1028600018472346E2E700BF501E02088D220208E7
:10287000E21F020829200208CC200208305401205F
:102880002C540120006A7047406A704770478B885B
:1028900080690A68DB0A50F823001044704710B5BD
:1028A000C2B1137BB3B1547BD27A240204F4E06446
:1028B0001443C26998B202EB840213888B4202D19E
:1028C00092F9020010BD05D8013880B20432002808
:1028D000F3D1F7E70020F5E710B5282104461DF0F5
:1028E00041FD204610BD000030B589B00446BDF85A
:1028F00050500695BDF84C5005959DF840500495F4
:102900009DF83C5003959DF8385002959DF8345041
:1029100001959DF8305000950FF04CFA064B23605E
:10292000119BA361129BE361159B2362169B63625B
:10293000204609B030BD00BFC0240208806A70473D
:102940007047704770477047704730B50368018122
:1029500085B06D460146D3F8843004462846984732
:1029600095E807003C3484E8070005B030BD30B579
:102970000368418185B06D460146D3F88430044632
:102980002846984795E807003C3484E8070005B0DE
:1029900030BD0022028042808280C280704780F871
:1029A0003610704770B5036804461B6B1546984790
:1029B0002368294620465B6EBDE87040184700201A
:1029C0007047806C7047704770477047704770471A
:1029D00070477047704790F82C304BB100F16C0293
:1029E0001268C2653BB100F174031B68036670474F
:1029F00000F16802F4E700F17003F6E770477047F2
:102A00007047704730B4C26844685510034604EB01
:102A10006200D20748BF62599B6830BC48BFD35898
:102A2000184743682BB183682BB9C06800F00100D8
:102A30007047184670470120704730B4C268446838
:102A40005510034604EB6200D20748BF62599B68E9
:102A500030BC48BFD358184743682BB183682BB9A3
:102A6000C06800F0010070471846704701207047A9
:102A700090F82D3080F8A43080F85A30704790F8E4
:102A80002D3080F85A30704710B504467C3094F8E9
:102A90002C303BB104F17A010BF09AFC2046FFF791
:102AA0009AFF10BD04F17801F6E710B54C210446F9
:102AB0001DF058FC204610BD10B5782104461DF0CD
:102AC00051FC204610BD10B5A82104461DF04AFC5B
:102AD000204610BD10B5102104461DF043FC2046D1
:102AE00010BD10B5102104461DF03CFC204610BD61
:102AF00010B54FF4C26104461DF034FC204610BDF1
:102B000010B50446006B50B10368DB68984730B1DC
:102B1000206B036821469B68BDE81040184710BD34
:102B200000F1C402914202D10368DB6A184700F544
:102B3000B672914202D103681B6BF7E700F22442A0
:102B4000914202D10368DB6BF0E700F2CC42914284
:102B500002D103689B6BE9E770470B7970B590F879
:102B60002C6004460D469BB98EB9B3FA83F35B091A
:102B700084F82C3023682046D3F88C30984723689B
:102B800020465B69984716B12B79012B03D070BDA5
:102B9000002EFCD0E9E723682046D3F88830BDE852
:102BA00070401847036870B55E6B124B1B68044693
:102BB0008DB22BB9104B114A6C2111481DF086FCC7
:102BC0001049828D0988914203D80F4B0B4A6D2121
:102BD000F3E713F812200D4B1B6853F8220003682B
:102BE000DB6A9847281A01B233462046BDE8704098
:102BF000184700BF40540120102502085225020842
:102C00008D25020844540120D4250208485401208F
:102C100000F52A738B4210B5044609D10EF086F8F0
:102C2000FFF7AEFC236820465B6BBDE810401847F9
:102C300010BD00224FF0FF31C0E9002182607047D3
:102C400070B5036804461B6B1546984723682946F0
:102C500020465B6BBDE8704018470B882DE9F041BA
:102C6000A0F878301388B0F90850A0F87A300446FC
:102C70001046904611F08AFAB4F90A30074603EB81
:102C8000D3734046C3F34F0611F0B4FA05EBD57584
:102C9000C5F34F0500EBD07007EBD777A6EB6002CA
:102CA000A5EB670704F17C0039B212B2FFF7C8FF49
:102CB00023682046D3F88C30BDE8F041184770B542
:102CC00004461D46BDF91060FFF7BAFF2368294688
:102CD00020469B6B9847236831462046DB6BBDE856
:102CE000704018470022C0E90122C0E90322C0E970
:102CF0000522C0E907224FF480728284014A0260F3
:102D0000704700BF5826020810B52622044600214D
:102D10001DF062FD2046FFF7E5FF044B2360FF2313
:102D200084F826300023A362204610BDD03C020860
:102D300038B5262204460D4600211DF04DFD2046E3
:102D4000FFF7D0FF064B23602B88E384FF23204648
:102D500084F8283029460BF03BFB204638BD00BFE5
:102D6000143E020810B52622044600211DF034FD51
:102D70002046FFF7B7FF0A4B23600A4BA3624FF6CA
:102D8000FF73A3854FF47F020023C4E90C324FF098
:102D9000FF32C4E910232387E363204610BD00BF40
:102DA000403C0208481E02081B4B73B51B88018F6C
:102DB0008B4206462BD9194B1B682BB9184B194A65
:102DC00019486C211DF082FB13F81120174B1B686A
:102DD00053F82250164B186801F054FF2B680190ED
:102DE00001469B6A284698472B6801991B6C04464C
:102DF000284698472B6801995B6A14FB00F4284623
:102E00009847E4B2044486F8454002B070BD002300
:102E100080F84530F9E700BF4454012040540120B8
:102E200010250208522502088D2502084854012069
:102E30004C5401204FF47F4373B50646838540F21E
:102E40000113002583841D4B8562C0E90155C0E94B
:102E50000355C0E90555C0E90755056346F8343BFD
:102E600004463046FFF750FF154B63632A46C4E91A
:102E70001A55C4E91C552566A4F864502946304605
:102E8000FFF7DEFE3146204607F020FC0D4B2360A5
:102E900004F17C054FF6FF73A4F87830A4F87A307B
:102EA00001A92846ADF80430FFF742FF2046294625
:102EB00007F00CFC204602B070BD00BF502702088E
:102EC000AC3D0208EC27020810B40367019B43677E
:102ED00003685DF8044BD3F88C30C0E91A12184728
:102EE0002DE9F04F2DED0C8B04468DB00FF020FA3C
:102EF00022460025E74BE56342F8403B104608EECA
:102F0000102AFFF701FF04F16C034FF6FF760AA9C0
:102F100018460CEE103AADF82860FFF709FF04F1EF
:102F200098030AA918460CEE903AADF82860FFF70E
:102F3000FFFE04F1C403184608EE903AFFF77AFF4B
:102F400004F5B673184609EE103AFFF773FF04F55F
:102F50000573184609EE903AFFF704FF04F517735E
:102F600018460AEE103ACC4FFFF7FCFE04F52A7320
:102F7000C4F85C721846C4F8A4520AEE903A0BF0FA
:102F800059FB04F53C730AA918460DEE103AADF84A
:102F90002860FFF7CDFE04F5477318460BEE103A94
:102FA000FFF7E0FE04F5597304F56C7B18460BEE51
:102FB000903AFFF7D7FEC4F86473C4F8AC53584690
:102FC000FFF7D0FE04F57E730AA9184604F22449DF
:102FD0000DEE903A04F2CC48ADF82860FFF7A8FE59
:102FE0004846FFF727FF04F2745A4046FFF722FFD6
:102FF0005046FFF7B7FEA94BC4F8F035A84BC4F80C
:10300000F835A84BC4F80036A74BC4F80836F023AF
:1030100018EE100AC4F8747500932A464FF4A07392
:103020002946C4F8BC55C4F8F445C4F8FC55C4F8A6
:103030000446C4F80C56FFF742FE4FF07F43A366E8
:103040002A461CEE100A2946FFF7FAFD1CEE100A6C
:103050000AA9ADF828500BF0BBF91CEE900A192212
:103060007621FFF7EDFD0AAA4FF0030311461CEE8F
:10307000900AADF828300BF0ABF9172305278B4EDB
:1030800000932A462B23294604F1F800FFF717FE88
:10309000874B884A8849009618EE900AA4F8287150
:1030A000FFF712FF18EE900A0AAA09A9ADF82470DA
:1030B000ADF82870FFF7D1FD172318EE900A0093A2
:1030C00031222B2340F21111C4F84471FFF7F7FDB0
:1030D00004F5C0630393C4F8F430172300932A4621
:1030E0002B23294604F5D070FFF7E9FD704B714A98
:1030F0007149009619EE100AA4F8D071FFF7E4FEAA
:103100004FF006020AA8ADF82420ADF8282009A93E
:10311000024619EE100AFFF7A0FD0620C4F8EC01E4
:1031200017202B230090192219EE100A40F21111DA
:10313000FFF7C5FD039AC4F89C2119EE900A1C22E2
:10314000292104AEFFF77CFD4FF0FF3019EE901AF5
:10315000C4F84402A4F8485230460AF02BFC96E822
:10316000070004F5147383E80700544B0A9319EE23
:10317000900A11230AA9ADF82C300AF0ABFE1820F2
:10318000242200907C231AEE100A8F21FFF797FD6E
:10319000D4F85C32A4F890524FF0FF30D3F884306A
:1031A000C4F88C021AEE101A3046984796E80700C9
:1031B00004F5267383E8070004F5B863C4F8A43265
:1031C0003E4B0A931AEE100A10230AA9A4F8C05520
:1031D000ADF82C300AF07EFE1AEE900AB4224E2191
:1031E000FFF72EFD4FF001000DF1280CADF8240083
:1031F0004FF00200624609A9ADF828001AEE900AC5
:103200000AF0C3FE0F231AEE900AA4F8E032FFF78B
:10321000CBFD04F5BE634FF0FF3CC4F8D0328A22E8
:10322000C4E9B9CC1DEE100A7621FFF709FD0DF1B6
:10323000280C4FF003011DEE100AADF8281061466E
:103240000BF0C6F88D221BEE100A2921FFF7F8FCBF
:103250004FF0FF3C30461BEE101AC4F84CC3A4F8E4
:1032600050530AF0A7FB96E8070004F5567383E86D
:1032700007000DF1280C114B0A9361460E231BEE3B
:10328000100AADF82C300AF025FE4FF0180C9322EE
:1032900016E000BFBC280208C02602088C280208DD
:1032A000112C0008A4280208212B0008996633FF7E
:1032B000663300FFCC9900FF996600FF481E0208A4
:1032C0001BEE900ACDF800C07C238F21FFF7F7FC9E
:1032D000D4F86433A4F898534FF0FF3C3046D3F849
:1032E0008430C4F894C31BEE901A984796E8070000
:1032F00004F5687383E8070004F2D4530DF1280C39
:10330000C4F8AC33974B0A9361460D231BEE900A29
:10331000A4F8D455ADF82C300AF0DCFD5622062175
:103320005846FFF78DFC4FF0FF3CC4F8E0C3304631
:103330005946A4F8E4530AF03DFB96E8070004F56B
:103340007B7383E807004FF00200ADF82C000AA859
:10335000844B0A93014658460AF0BCFD53221DEEE9
:10336000900A7621FFF76CFC4FF003011DEE900AE6
:10337000ADF828100AA90BF02BF8172100912B2388
:103380002A46294604F58B60FFF799FC764B00939B
:10339000A3F13313A3F54C53744A7549A4F8887408
:1033A0004846FFF791FD0AA90A46484609A9ADF823
:1033B0002470ADF82870FFF750FC172100912B23E3
:1033C000692240F211114846C4F8A474FFF777FC53
:1033D000039AC4F85424172100912B232A46294626
:1033E00004F5A060FFF76BFC5F4B0093A3F1331370
:1033F000A3F54C535D4A5E49A4F830754046FFF78B
:1034000063FD4FF00602ADF82420ADF8282009A98D
:103410000AAA4046FFF721FC0623C4F84C351723BF
:10342000009351222B2340F211114046FFF747FC35
:10343000039BC4F8FC3418235D2200938F217C2366
:103440005046FFF73CFC4FF0FF33C4F8A435D4F8E6
:103450007435A4F8A8553046D3F8843051469847BF
:1034600096E8070004F5B66383E80700414B1B6844
:1034700004F5BD662BB9404B404A602140481DF021
:1034800025F8404B1B881BB93F4B3C4A6121F5E7AF
:103490003E4B2946186801F0F5FB3D4A03460321DF
:1034A000304610F001FC2F4B0A93251D4FF001030D
:1034B0000AA95046C4F8BC65ADF82C300AF00AFDE4
:1034C00018EE101A284607F001F91CEE101A2846CB
:1034D00007F0FCF81CEE901A284607F0F7F818EEF3
:1034E000901A284607F0F2F819EE101A284607F04D
:1034F000EDF819EE901A284607F0E8F81AEE101ABF
:10350000284607F0E3F81AEE901A284607F0DEF88E
:103510001DEE101A284607F0D9F81BEE101A28469F
:1035200007F0D4F81BEE901A284607F0CFF859465A
:10353000284607F0CBF81DEE901A284607F0C6F88B
:103540004946284607F0C2F84146284607F0BEF82B
:103550002846514607F0BAF820460DB0BDEC0C8B5A
:10356000BDE8F08F481E0208996633FFCC9900FF32
:10357000996600FF40540120102502081226020817
:103580008D25020844540120D42502084C54012002
:103590004A260208002070478B88838001207047EC
:1035A000704780F82C10704710B40368046BD3F890
:1035B000A430624361435DF8044B1847D0ED0C7AA8
:1035C0000368F8EEE77AD3F8A43020EE270AB5EEC8
:1035D000C00AF1EE10FA17DBB6EE007A30EE070AF9
:1035E000BDEEC07A17EE101A60EEA70AF5EEC00A1B
:1035F000F1EE10FA1CDBF6EE007A70EEA70AFDEE93
:10360000E07A17EE902A1847BDEEC07AF8EEC76A46
:1036100017EE102A30EE660AF7EE086A30EE260A38
:10362000511EBDEEC00A10EE102A0A441146DBE717
:10363000FDEEE07AB8EEE77A17EE902A70EEC70A50
:10364000B7EE087A70EE870A013AFDEEE00A10EE56
:1036500090CA94446246D6E710B40368046BD3F86A
:10366000B03062435DF8044B1847D0ED0C7A036824
:10367000F8EEE77AD3F8B03027EE800AB5EEC00A4C
:10368000F1EE10FA08DBF6EE007A30EE270AFDEED6
:10369000C07A17EE902A1847FDEEC07AB8EEE77AA6
:1036A00017EE902A30EE470AB7EE087A30EE070A96
:1036B000013ABDEEC00A10EE10CA94446246EAE731
:1036C00010B40368446BD3F8BC30624361435DF8C7
:1036D000044B1847D0ED0D7A0368F8EEE77AD3F87B
:1036E000BC3020EE270AB5EEC00AF1EE10FA17DB67
:1036F000B6EE007A30EE070ABDEEC07A17EE101A69
:1037000060EEA70AF5EEC00AF1EE10FA1CDBF6EE49
:10371000007A70EEA70AFDEEE07A17EE902A1847BD
:10372000BDEEC07AF8EEC76A17EE102A30EE660AD0
:10373000F7EE086A30EE260A511EBDEEC00A10EE02
:10374000102A0A441146DBE7FDEEE07AB8EEE77A8C
:1037500017EE902A70EEC70AB7EE087A70EE870A65
:10376000013AFDEEE00A10EE90CA94446246D6E7B4
:1037700010B40368446BD3F8C03062435DF8044B67
:103780001847D0ED0D7A0368F8EEE77AD3F8C03029
:1037900027EE800AB5EEC00AF1EE10FA08DBF6EE6D
:1037A000007A30EE270AFDEEC07A17EE902A18470D
:1037B000FDEEC07AB8EEE77A17EE902A30EE470AAF
:1037C000B7EE087A30EE070A013ABDEEC00A10EEF5
:1037D00010CA94446246EAE7D0F82C31026B002B01
:1037E00007DB02EB430393FBF2F000EBD0704010D9
:1037F00070476FF0010000FB0320013890FBF2F0EE
:1038000000EBD070401040427047D0ED4B7AB8EEDC
:10381000E70AD0ED0C7AF8EEE77A80EE270A7047D7
:10382000D0F82C017047D0F83031026B002B07DB49
:1038300002EB430393FBF2F000EBD07040107047B3
:103840006FF0010000FB0320013890FBF2F000EB69
:10385000D070401040427047D0ED4C7AB8EEE70A85
:10386000D0ED0C7AF8EEE77A80EE270A7047D0F8B0
:1038700030017047D0F83431426B002B07DB02EB8C
:10388000430393FBF2F000EBD070401070476FF0F1
:10389000010000FB0320013890FBF2F000EBD07038
:1038A000401040427047D0ED4D7AB8EEE70AD0EDB7
:1038B0000D7AF8EEE77A80EE270A7047D0F83401E7
:1038C0007047D0F83831426B002B07DB02EB430323
:1038D00093FBF2F000EBD070401070476FF00100E6
:1038E00000FB0320013890FBF2F000EBD070401099
:1038F00040427047D0ED4E7AB8EEE70AD0ED0D7A2F
:10390000F8EEE77A80EE270A7047D0F83801704762
:1039100070B503680446D3F888300D4616469847BC
:103920002368324629462046D3F89030BDE87040DF
:1039300018470368D3F8943018470368D3F8D43095
:1039400018470368D3F8E03018470368002A10B41A
:10395000D3F8A430046B0EDB04EB420292FBF4F1CB
:1039600001EBD1714910B0F91E215DF8044B013A09
:103970000A44494218476FF0010101FB0241013935
:1039800091FBF4F101EBD17149104942EBE7036877
:10399000D3F83C311847026B03685143D3F84831E0
:1039A00018470368D3F844311847D0ED0C7A036800
:1039B000F8EEE77AD3F8483127EE800AB5EEC00A70
:1039C000F1EE10FA08DBF6EE007A30EE270AFDEE93
:1039D000C07A17EE901A1847FDEEC07AB8EEE77A73
:1039E00017EE902A30EE470AB7EE087A30EE070A53
:1039F000511EBDEEC00A10EE102A0A441146EAE735
:103A0000C0F83C1170470368D3F850311847036879
:103A100010B5D3F85C31044698470028236B07DBC8
:103A200003EB400090FBF3F000EBD070401010BDB2
:103A30006FF0010202FB0030013890FBF3F000EB65
:103A4000D07040104042F2E70368D3F8583118476D
:103A5000036810B5D3F85C310446984707EE900A26
:103A6000B8EEE70AD4ED0C7AF8EEE77A80EE270A92
:103A700010BDD0F83C017047026B03685143D3F886
:103A800068311847D0ED0C7A0368F8EEE77AD3F87E
:103A9000683127EE800AB5EEC00AF1EE10FA08DBB5
:103AA000F6EE007A30EE270AFDEEC07A17EE901A95
:103AB0001847FDEEC07AB8EEE77A17EE902A30EE9E
:103AC000470AB7EE087A30EE070A511EBDEEC00A6B
:103AD00010EE102A0A441146EAE7C0F84011704778
:103AE000036810B5D3F87431044698470028236B57
:103AF00007DB03EB400090FBF3F000EBD0704010CD
:103B000010BD6FF0010202FB0030013890FBF3F0B2
:103B100000EBD07040104042F2E7036810B5D3F8D4
:103B200074310446984707EE900AB8EEE70AD4EDE0
:103B30000C7AF8EEE77A80EE270A10BDD0F8400143
:103B400070470368026BD3F88431002910B504462E
:103B50000EDB02EB410191FBF2F101EBD171491057
:103B600009B220469847D4E94F2302FB003010BD2C
:103B70006FF0010000FB0121013991FBF2F101EB33
:103B8000D17149104942EBE7006B7047406B7047B9
:103B90000368D3F8483118470368D3F85C311847F5
:103BA000026B03685143D3F814311847036870B5AA
:103BB000D3F81851D3F88031D0F8446104469847BF
:103BC0002B4656F820102046BDE870401847B0F943
:103BD0001C21B0F91E31934207DBB0F94C31194476
:103BE00091FBF2F002FB101109B208467047480140
:103BF000704780F82610704790F82600704710B57F
:103C00000022B1F90840B1F90A1002804280848094
:103C1000C18010BD0022028042808280C280704735
:103C2000C1627047C06A7047012070477047704793
:103C3000C06B18B10368D3F880301847704730B5AF
:103C4000B2F81A11B2F91441B2F94050B2F8422058
:103C500044802144521A002101808580C28030BDF9
:103C600010B54280BDF90840BDF90C200480828067
:103C7000C38010BD0B680846D3F8D43018470B68D2
:103C80000846D3F8E0301847B1F914017047B1F88D
:103C90001401B1F81A310344B1F84200C01A00B25D
:103CA0007047B1F916017047B1F81601B1F8183133
:103CB0000344B1F84000C01A00B270470B680846D0
:103CC000D3F8143111461847B2F8181130B5B2F9CB
:103CD000165105806C18B2F84010B2F94220C2802B
:103CE000091B00244480818030BD02808380BDF99F
:103CF0000020BDF904304280C38070470B6808463D
:103D0000D3F8EC3018470B680846D3F8F83018475A
:103D1000B1F916017047B1F81601B1F81831034432
:103D2000B1F84000C01A00B27047B1F914017047F1
:103D3000B1F81401B1F81A310344B1F84200C01AC5
:103D400000B270470B680846D3F81831114618477F
:103D5000704770477047704770477047704730B47E
:103D6000C26844685510034604EB6200D20748BF9E
:103D700062599B6830BC48BFD358184743682BB181
:103D800083682BB9C06800F001007047184670477F
:103D90000120704710B5402104461CF0E3FA20468C
:103DA00010BD10B5402104461CF0DCFA204610BDC1
:103DB00010B54FF42B6104461CF0D4FA204610BD18
:103DC00010B54FF4107104461CF0CCFA204610BD1B
:103DD00010B5102104461CF0C5FA204610BD10B5E0
:103DE00042F2C45104461CF0BDFA204610BD90F8C2
:103DF0002C300BB106F0A3BC704713B50346084640
:103E0000D3E90C1403680191D3F88C3098470199D9
:103E10000246204602B0BDE8104008F0D9BA13B5FA
:103E200003460846D3E90C1403680191D3F8943093
:103E3000984701990246204602B0BDE8104008F0BC
:103E4000C7BA00000A1E10B503DBB0F91E41944248
:103E500006DC084B084A094840F233611CF036FB87
:103E60000368D0F84441D3F88031984754F82000D3
:103E700010BD00BFFC2802081F2902086E29020895
:103E80000B1E10B5044603DBB0F91E219A4206DC76
:103E9000074B084A084840F22D611CF017FB0368E5
:103EA000D3F884319847D4E94F2302FB003010BD8A
:103EB000FC280208CB2902086E29020800F1CC0375
:103EC000994210B5044605D10CF030FFBDE8104012
:103ED000FEF746BB00F58A531C33994215D190F882
:103EE000B13D83F0010380F8B13D90F8253183F0B6
:103EF000010380F8253100F68C500DF0AEFE04F57C
:103F00008070BDE810400DF0A8BE10BD10B526228F
:103F1000044600211CF060FC2046FEF7E3FE054B42
:103F200023600023A36284F82C30012384F824301A
:103F3000204610BD5C3B020837B501AB15460EF0BC
:103F40002EF800284FEA401401992A464FF020002D
:103F500004DB0EF043F8204403B030BD0EF03EF811
:103F6000201AF9E770B5B0F91441B0F81A51631985
:103F7000B0F84250ED1AD0E94D320E462DB2D21AA9
:103F8000691EF01AFFF7D8FF2C44013CC0EB441027
:103F900070BD38B504460846B4F81831B4F81611A7
:103FA0000B44B4F84010D4E94B52C91A09B2521B61
:103FB0000139401BFFF7C0FFB4F9163100EB431085
:103FC00038BD000010B5044607F0EAFD064A22603D
:103FD000002301220A21C4E90C21E36284F838207D
:103FE000E363204610BD00BFC438020870B500234B
:103FF000124E8380124B0360336893F87620054697
:104000000AB1D86C00B998680368DB6A98473368CE
:10401000B0FA80F4D86C640930B10368DB6A984761
:10402000002808BF44F001042CB9064B064A074893
:104030002C211CF04BFA284670BD00BFE85301202C
:104040008C2C02081A2A0208782A0208B12A0208CF
:1040500010B5044607F0A4FD0A4A2260002301229D
:10406000C4E90C23084AA2634FF6FF72A2872E22EE
:10407000E36284F84030A4F84230A4F84420A364FA
:10408000204610BDBC3A0208481E02082DE9F04F38
:104090002DED108B044693B00EF04AF9224600260F
:1040A000EB4BE66342F8403B10460AEE902AFEF7DF
:1040B0002BFE04F16C0308EE903A4FF6FF782622AF
:1040C00031461846ADF840801CF086FB18EE900A89
:1040D000FEF708FEDF4BE366BDF84030A4F89230EF
:1040E00010A918EE900A84F894800AF071F904F18E
:1040F000980318460BEE903AFEF706FED64BC4F82E
:10410000983004F1CC031846C4F8C460A4F8C86021
:1041100004F580770BEE103AFFF7F8FECF4BC4F8AA
:10412000CC30A4F8FA80A4F8FC8084F8FE804FF428
:104130001671384608F0E8F80123C94DC4F800515B
:10414000C4E98F3604F51473314640F25722C4E9AE
:1041500091363846FFF728FAC24BC4F8003104F50F
:104160003B631846A4F84C620DEE103A07F018FDB8
:104170004FF00202BC4B84F8DC2B04F53E62C4F81D
:10418000B03B10460892FFF731FFB84BC4F8E03B54
:1041900003F1240204F6F431C4F8E82B0846C4F80D
:1041A000EC6BDFF8E4A2DFF8E4920DEE901AFFF773
:1041B00009FF04F63441C4F8F4AB08460EEE101AB9
:1041C000FFF700FF04F67441C4F8349C08460CEE77
:1041D000101AFFF7F7FE04F6B441C4F874AC0846B1
:1041E0000CEE901AFFF7EEFE04F6F441C4F8B49C0E
:1041F00008460EEE901AFFF72BFF9D4AC4F8F42CE8
:1042000004F55461084604F68C5B0FEE101AFFF7B4
:104210001FFF9849C4F8401D58463C2108F074F827
:10422000012004F6DC623146C4F88C5DC4F8C80E87
:10423000C4F8D02E58463B22C4F8CC6EC4F8D46ED5
:10424000FFF7B2F98C4AC4F88C2D04F6CC70A4F8B0
:10425000D86E0FEE900A07F0A3FC834BC4F8CC3F56
:104260004FF0020384F8F83F04F6FC73184604F597
:1042700080550993FFF7BAFE7C4BAE6003F1240230
:10428000C4F8FC3F2B4610336A6018460493FFF7CE
:1042900099FE04F582531033C5F810A01846059313
:1042A000FFF790FE04F584531033C5F8509018467C
:1042B0000293FFF787FE04F586531033C5F890A0EC
:1042C00018460393FFF77EFE04F588531033C5F8B4
:1042D000D09018460693FFF7BBFE04F58A53654954
:1042E000C5F810111C33184609EE103AFFF70EFE00
:1042F000624BC5F85C3104F58C53143304F58E5AC7
:104300000AF11C0A1846A5F88A81A5F88C8185F85F
:104310008E81A5F8908108EE103AFEF723FD5046F5
:10432000FEF720FD04F59153DFF86481C5F8DC81C8
:1043300008331846C5F8246209EE903AFEF712FDDC
:1043400004F593531433C5F828821846C5F87062F3
:104350000AEE103AFEF706FD494BC5F87482C5E92E
:10436000BD34484BC5F8BC6204F59850C5E9BF366A
:104370004FF4965104300BF019F8F0231AEE900A1E
:10438000009332464FF4A0733146FEF798FC4FF08D
:104390007F436FF0160218EE900AA3666FF06C016F
:1043A000FEF74EFC4FF0040318EE900A10A9ADF88A
:1043B00040300AF00DF8A6231BEE900A0093324617
:1043C0004FF4A0733146FEF77AFC4FF07F434FF075
:1043D00001014FF0FF32C4E9302388461BEE100A7A
:1043E000A4F8C810BD22BB21FEF72AFC4FF0020141
:1043F0001BEE100AADF8401010AA0FA9ADF83C80D2
:1044000009F0C3FD04F597531433C4F8F430324671
:104410004FF47A7138460793FFF77AFA0A22314649
:104420003846FFF7C1F8A623009332464FF4A07335
:1044300031463846FEF743FC0F2300931422052330
:104440000621384607F012FF3346324622E000BF0D
:10445000FC2F0208143E0208AC3D0208383D020859
:1044600070350208AC2C020848380208C034020833
:104470007C3902081C3A0208482E0208CC3B02088C
:10448000E42F0208BD3E00081C2B0208D42B0208B2
:10449000C026020831463846009607F0EAFDF7EEDE
:1044A000080AB7EE000A3846FFF714F94FF47A729B
:1044B000D4F8241CD4F8280C84F8256107F088FF70
:1044C0001CEE103A4FF47A78DFF8EC94C4F8303CE4
:1044D0004FF00101C4F8248CC4F8209CC4F8288C47
:1044E00084F82C1C38461DEE901A07F0CDFD42468C
:1044F000D4F8641CD4F8680C07F06AFF4B23C4F8A6
:10450000683C1CEE903A4FF00101C4F8703CC4F8CE
:10451000648CC4F8609C84F86C1C38461EEE101A3B
:1045200007F0B2FD4246D4F8A41CD4F8A80C07F05A
:104530004FFF4FF0020384F8AC3C1CEE101AC4F895
:10454000A48CC4F8A09CC4F8A88C384607F09CFD45
:104550004246D4F8E41CD4F8E80C07F039FF4FF0D9
:104560000203962184F8EC3CC4F8E48CC4F8E09C87
:10457000C4F8E81C38461CEE901A07F085FD424648
:10458000D4F8241DD4F8280D07F022FF4FF00402C0
:104590001EEE901AC4F8248DC4F8288DA4F8302D8E
:1045A000C4F8209D384607F093FD4246D4F8701DAC
:1045B000D4F8740D07F00CFF96220323C4F8742D71
:1045C0004FF001021FEE101AC4F8708DA4F87C3D64
:1045D000A4F8822DC4F86C9D384607F067FD089B4F
:1045E000C4F8D83B4FF07F424FF0020384F8DC3B25
:1045F0001DEE101AC4F8EC2B3846A4F8F06B07F047
:1046000043FD414632465846FFF782F9A622009202
:104610004FF4A073324631465846FEF750FB0F2246
:104620000092334618220621584607F01FFE3346F3
:10463000324631465846009607F01BFDF7EE080A51
:10464000B7EE000A5846FFF745F84246D5E9101084
:1046500007F0BEFE41F288334FF001026B64029B0B
:10466000EB64C5E90F98049985F84820584607F08F
:104670000BFD4246D5E9201007F0AAFE4FF4FA736D
:104680004FF00102C5F88430039BC5F88C30C5E9B2
:104690001F98059985F88820584607F0F5FC424692
:1046A000D5E9301007F094FE42F21073C5F8C4301B
:1046B0004FF00203C5E92F9885F8C8300299584693
:1046C00007F0E2FC4246D5E9401007F081FE4FF0CA
:1046D0000203C5E93F9885F808310399C5F80481BC
:1046E000584607F0D1FC4246D5E9501007F070FE5D
:1046F0009623C5F844310C23A5F84C314FF0020342
:104700000699C5F84081A5F85231C5F83C91584644
:1047100007F0CCFC4FF07F43AB60099BAE81C4F83F
:10472000F43F4FF0020384F8F83F1FEE901A58460A
:1047300007F0AAFC4FF0080819EE100AD322412115
:10474000FEF77EFA4FF0070319EE100A10AA0FA920
:10475000A5F89081ADF83C30ADF8408009F015FC2B
:10476000079BC5F88431DB2218EE100A0121FEF701
:1047700067FA0DF128094FF07F43484618EE101AEA
:10478000C5F8C431A5F8C86109F014F999E8070023
:1047900018EE103A3C3383E807007E4B109318EE76
:1047A000100A0B2310A9ADF8443009F093FB0F2336
:1047B000A8220093022184235046FEF780FA4FF08E
:1047C0007F43C5F80C32D5F8DC31A5F810624846B5
:1047D000D3F884305146984799E807000AF13C0322
:1047E00083E807006C4B1B6804F596592BB96B4B9B
:1047F0006B4A60216B481BF069FE6B4B1B88082BD2
:1048000003D86A4B664A6121F4E7694B4146186850
:1048100000F038FA674A0346414648460FF044FA2A
:104820004FF00A015B4AC5F82492ADF84410504697
:1048300010A9109209F04EFB0F2100918423022150
:1048400019EE900AB722FEF73AFA4FF07F41C5F809
:1048500058124FF0FF31C5E99A164F49A5F85C622E
:104860000B68C5F8646204F5965909F11009002B2C
:10487000BDD04D480388072BC3D94D4B072118687D
:1048800000F000FA4B4A0346414648460FF00CFA46
:104890000DF1400C3F4AC5F870920923614619EEAC
:1048A000900A1092ADF8443009F014FB4FF00F0C51
:1048B000CDF800C0842302211AEE100AC622FEF7AA
:1048C000FEF93549A5F8A8624FF07F4C0B68C5F892
:1048D000A4C24FF0FF3CC5E9ADC6C5F8B06204F50F
:1048E0009756002B83D030480388052B89D9304B4D
:1048F0000521186800F0C6F92E4A03460A21304601
:104900000FF0D2F9234AC5F8BC620623251D1AEE22
:10491000100A10A91092ADF8443009F0DBFA1AEE33
:10492000901A284605F0D2FE18EE901A284605F097
:10493000CDFE1BEE901A284605F0C8FE1BEE101A9D
:10494000284605F0C3FE3946284605F0BFFE594605
:10495000284605F0BBFE19EE101A284605F0B6FEF3
:1049600018EE101A284605F0B1FE5146284605F00B
:10497000ADFE19EE901A284605F0A8FE28461AEE5C
:10498000101A05F0A3FE204613B0BDEC108BBDE855
:10499000F08F00BF481E0208405401201025020875
:1049A000122602088D25020844540120D42502084D
:1049B0004C5401204A260208C59714FF7047000096
:1049C00030B5164D2C78BFF35B8F14F001048DB019
:1049D00020D128461BF0C8FCE0B13F230793104BC1
:1049E0000693104B05930123CDE903430293042260
:1049F0000223CDE900320C490C4808940A232722EF
:104A0000CDE90944FDF770FF09481BF07DFD2846FC
:104A10001BF0B6FC05480DB030BD00BF2845002096
:104A2000AC580208305902082C5402082C450020CA
:104A3000BD4900087047000030B5164D2C78BFF313
:104A40005B8F14F001048DB020D128461BF08CFC44
:104A5000E0B13F230793104B0693104B05930123BE
:104A6000CDE90343029304220323CDE900320C492C
:104A70000C4808940F232622CDE90944FDF734FFA2
:104A800009481BF041FD28461BF07AFC05480DB093
:104A900030BD00BF54450020C858020834590208F0
:104AA0005056020858450020354A0008704700005B
:104AB00030B5154D2C78BFF35B8F14F001048DB029
:104AC0001FD128461BF050FCD8B13F2307930F4B52
:104AD00006930F4B0F4910480894CDE90443042274
:104AE0000123CDE90123009305222823CDE90944C0
:104AF0000394FDF7F9FE09481BF006FD28461BF05C
:104B00003FFC05480DB030BD804500201C5902080F
:104B1000385902086458020884450020AD4A00084C
:104B200000207047002070470EB403B503AB00218E
:104B300053F8042B01930CF06FFF02B05DF804EB07
:104B400003B070470CB407B504AB53F8042B0193C2
:104B50000CF062FF03B05DF804EB02B07047000098
:104B6000436C10B5044673B3038F2BB9184B194A25
:104B7000C02119481BF0AAFCC38E00EB43035B8CD9
:104B80000BB30EF0E2FA238F012B03D8134B144A18
:104B9000C521EEE7E28E531C9BB2092B194688BF54
:104BA000A3F10A0104EB410140F63F10498C814218
:104BB00009D10A2B04EB420228BF002304EB430374
:104BC000508C588451842046BDE810400EF0C0B986
:104BD0002C30020835300208E03002082A31020881
:104BE000383102080EF07BB910B586B002AC84E80B
:104BF00006001A460AAB05930193099B00932146D0
:104C0000089B0BF00EFC06B010BD000038B518BBB9
:104C1000124B13481B681349B3B11A689C681A44B5
:104C200002605A681A440A601C440F4B00221A8022
:104C300000F038F8054600F033F80C4B1C600C4BC4
:104C40001D600C4B188007E00B4B03600B4B0B6097
:104C50000B4B1C68002CE8D138BD00BFAC450020D0
:104C6000B0450020B4450020B84500204054012044
:104C70004854012044540120845902083C59020838
:104C8000F45A0208044B1B6853F82100034B1B68BD
:104C900003EB4000704700BFB4450020B045002042
:104CA0001220704700487047BC45002010B5FFF740
:104CB000C3FE044C2060FFF7FBFE6060FFF780FE40
:104CC000A06010BDBC450020704710B54FF4AC711A
:104CD00004461BF047FB204610BD10B50446D0F833
:104CE000540100F013F82046BDE810400BF012BF4D
:104CF00010B50446FDF7F8FB014B2360204610BDBC
:104D000014320208002202607047000070B50446A9
:104D10000068154D03689B689847D5F8703A73B1E1
:104D2000D5F8783A012B03D120680368DB689847EF
:104D300020680368DB6898470023C5F8703AD5F807
:104D4000743A33B1206803681B6998470023C5F89B
:104D5000743A206803685B69984720680368BDE877
:104D600070409B69184700BF583A00207047704751
:104D7000704770477047043870477047C0680368D1
:104D80001B6C1847A0F10400FFF7F8BF10B5102105
:104D900004461BF0E7FA204610BDA0F10400F5E739
:104DA00010B500228260044AC16002F10804243276
:104DB0000460426010BD00BF58320208704770475F
:104DC000044B1A68044B9A6001221A61034A126864
:104DD000DA6070471C000020583A002018000020BC
:104DE0000B4B1A6810B50A32B2F5C87FC8BF4FF432
:104DF000C8721A6004461B68064A0A2100F5B860AA
:104E00000EF052FF04F51770BDE810400CF025BFFE
:104E10001C000020983202080A4B1A6810B50A3AA2
:104E2000092AD8BF0A221A6004461B68064A0A21CA
:104E300000F5B8600EF038FF04F51770BDE81040BB
:104E40000CF00BBF1C000020983202080A4B1A68B5
:104E500010B501320A2AC8BF0A221A6004461B682C
:104E6000064A032100F5BD600EF01EFF04F27450E7
:104E7000BDE810400CF0F1BE180000209832020886
:104E80000A4B1A6810B5013A002AD8BF01221A60ED
:104E900004461B68064A032100F5BD600EF004FFBE
:104EA00004F27450BDE810400CF0D7BE180000208A
:104EB00098320208FDF78DBD13B5094B094A1B68EE
:104EC0000193044601AB0A2100F2D4500FF0A8F878
:104ED00004F5597002B0BDE810400CF0BEBE00BF32
:104EE000583A00209B32020810B54FF4C2610446C4
:104EF0001BF038FA204610BD10B50446FDF7F0FF50
:104F0000074B2360074B084A1B680A2104F5B86069
:104F10000EF0CAFE04F517700CF09FFE204610BD7F
:104F2000A83202081C00002098320208704770471F
:104F3000043870477047C06803681B6B1847A0F1BE
:104F40000400FFF7F8BFC06803685B6B1847A0F167
:104F50000400FFF7F8BFC06803689B6B1847A0F117
:104F60000400FFF7F8BFC0680368DB6B1847A0F1C7
:104F70000400FFF7F8BF10B5102104461BF0F2F94A
:104F8000204610BDA0F10400F5E7000010B5002296
:104F90008260044AC16002F1080430320460426059
:104FA00010BD00BFEC3202087047704708B51549C4
:104FB0002DED028B91ED000A0022A1F6781102F28C
:104FC0005E2301EB8303D3ED007AF4EEC07AF1EEB9
:104FD00010FA08D5D3ED007AF5EE407AF1EE10FA2A
:104FE00018BF93ED000A01323B2AE8D19FED068AF3
:104FF00020EE080A1BF020FA80EE080ABDEC028BB6
:1050000008BD00BFD04300200000C84208B52DED08
:10501000028B9FED100A1049002303F25E2201EB80
:105020008202D2ED007AF4EEC07AF1EE10FA03F1CA
:105030000103C8BF92ED000A3B2BEED19FED078A1A
:1050400020EE080A1BF0B6F980EE080ABDEC028BD0
:1050500008BD00BF00000000583A00200000C84210
:10506000114B13B5D3F8782A104904464FF4616305
:105070006FF03B0092FBF3F301FB03223C2192FB18
:10508000F1F100FB0122CDE9001204F59750084A26
:105090000A210EF009FE04F59350143002B0BDE869
:1050A00010400CF0DABD00BF583A0020F0F1FFFFCD
:1050B0003833020810B542F2C45104461BF052F9CD
:1050C000204610BD10B50446FEF743FE04F580529D
:1050D000D2ED507A9FED916AB8EEE77A27EE067A24
:1050E000B5EEC07AF1EE10FAC0F29F80F6EE007ACB
:1050F00037EE277AFDEEC77A17EE903AD2ED407A76
:10510000F8EEE77A002B67EE867AB8BF5B42F5EEE1
:10511000C07AF1EE10FAC2F84431C0F29A80B6EECD
:10512000007A77EE877AFDEEE77A17EE903AD2EDC5
:10513000207A9FED7B7AF8EEE77A002B67EE877A8C
:10514000B8BF5B42F5EEC07AF1EE10FAC2F8043156
:10515000C0F29380B6EE007A77EE877AFDEEE77ABA
:1051600017EE903A002BB8BF5B42C2F88430D4F8F7
:10517000703D9FED6C6A07EE903AB8EEE77A27EE45
:10518000067AB5EEC07AF1EE10FAC0F28A80F6EE39
:10519000007A37EE277AFDEEC77A17EE903A002BA9
:1051A000B8BF5B42C4F8743DD4F8E43C07EE903AD3
:1051B000F8EEE77A67EE867AF5EEC07AF1EE10FA4D
:1051C000C0F28380B6EE007A77EE877AFDEEE77A5A
:1051D00017EE903A002BB8BF5B42C4F8E83CD4F815
:1051E000643C9FED517A07EE903AF8EEE77A67EE6D
:1051F000877AF5EEC07AF1EE10FA7ADBB6EE007A35
:1052000077EE877AFDEEE77A17EE903A002BB8BF7B
:105210005B4204F68C50C4F8683C0CF01EFD04F5AB
:105220008070BDE810400CF018BDFDEEC76AF8EEC6
:10523000E67A16EE903A37EE677AF7EE087A37EEAE
:10524000277A013BBDEEC77A17EE101A19440B46B8
:1052500054E7BDEEE77AF8EEC76A17EE103A77EE3C
:10526000E67AF7EE086A77EEA67A013BFDEEE77A7A
:1052700017EE901A19440B4659E7BDEEE77AF8EE9F
:10528000C76A17EE103A77EEE67AF7EE086A77EE1D
:10529000A67A013BFDEEE77A17EE901A19440B4609
:1052A00060E7FDEEC76AF8EEE67A16EE903A37EE62
:1052B000677AF7EE087A37EE277A013BBDEEC77AB8
:1052C00017EE102A1A44134669E7BDEEE77AF8EEA6
:1052D000C76A17EE103A77EEE67AF7EE086A77EECD
:1052E000A67A013BFDEEE77A17EE902A1A441346A0
:1052F00070E7BDEEE77AF8EEC76A17EE103A77EE80
:10530000E67AF7EE086A77EEA67A013BFDEEE77AD9
:1053100017EE902A1A44134678E700BF0AD7233CB9
:105320000AD7A33BCDCCCC3DCDCC4C3D37B5114DB0
:10533000114A2B680193044601AB082100F59650F1
:105340000EF06EFE6B680C4A019304F5965001ABAB
:10535000082110300EF064FE04F5915008300CF076
:105360007CFC04F58E501C3003B0BDE830400CF0DE
:1053700074BC00BF583A00209B32020838B5244B59
:1053800093ED007AD0F8C03D07EE903AF8EEE77A58
:105390002DED028B67EE877A0446F5EEC07AF1EECA
:1053A00010FA00F68C551EDBB6EE007A77EE877A9F
:1053B000FDEEE77A17EE901A284607F063F82368A7
:1053C00020461B6C9847236820465B6CB0EE408AF1
:1053D00098472846F0EE400AB0EE480AFEF77AF900
:1053E000BDEC028B38BDBDEEE77AF8EEC76A17EE6A
:1053F000103A77EEE67AF7EE086A77EEA67A591E4B
:10540000FDEEE77A17EE903A0B441946D4E700BF59
:10541000583A002070B5524DD0ED4D7AD5F8783A13
:105420003C2293FBF2F3063305EB830393ED007A02
:10543000F8EEE77A2DED028B67EE877A0446F5EEFB
:10544000C07AF1EE10FA00F5807674DBB6EE007AE1
:1054500077EE877AFDEEE77A17EE901A304607F07E
:1054600011F895ED060AB2EE048A20EE080A1AF049
:10547000E3FFF0EE408A95ED010A20EE080A1AF0EB
:1054800099FF3046C0EE080A88EE880AFEF722F936
:10549000D5F8783AB3F5077F23DDD5F8782A40F6BA
:1054A000D3539A421DDC3C2200213046FEF77CF8A3
:1054B000D4F8A42CD4F8243D0A214A43002AB8BFCA
:1054C0005242C4F8A82CD4F8242C52004B43002A92
:1054D000B8BF5242002BB8BF5B42C4F8282CC4F8B6
:1054E000283DD5F8782A40F6D4539A4220DDEA6860
:1054F0003C256A4300213046FEF756F8D4F8A42C28
:105500006A43002AB8BF5242C4F8A82CD4F8242C0D
:105510000A235A43D4F8243D002A05FB03F3B8BFFD
:105520005242002BB8BF5B42C4F8282CC4F8283D77
:10553000BDEC028B70BDBDEEE77AF8EEC76A17EEE0
:10554000103A77EEE67AF7EE086A77EEA67A591EF9
:10555000FDEEE77A17EE903A0B4419467EE700BF5E
:10556000583A002010B50446FEF790FD014B236029
:10557000204610BD50330208F02070474FF4A07051
:1055800070472920FCF7C0B92820FCF7BDB908B541
:10559000FCF78EF9CA20FCF7B7F9C320FCF798F99D
:1055A0000820FCF795F95020FCF792F9CF20FCF782
:1055B000ABF90020FCF78CF9C120FCF789F9302009
:1055C000FCF786F9ED20FCF79FF96420FCF780F9E1
:1055D0000320FCF77DF91220FCF77AF98120FCF713
:1055E00077F9E820FCF790F98520FCF771F90020A5
:1055F000FCF76EF97820FCF76BF9CB20FCF784F907
:105600003920FCF765F92C20FCF762F90020FCF743
:105610005FF93420FCF75CF90220FCF759F9F72018
:10562000FCF772F92020FCF753F9EA20FCF76CF93B
:105630000020FCF74DF90020FCF74AF9B120FCF7F7
:1056400063F90020FCF744F91B20FCF741F9B62070
:10565000FCF75AF90A20FCF73BF9A220FCF738F9CD
:10566000C020FCF751F91020FCF732F9C120FCF7FB
:105670004BF91020FCF72CF9C520FCF745F9452023
:10568000FCF726F91520FCF723F9C720FCF73CF9B5
:105690009020FCF71DF93620FCF736F9C820FCF7FE
:1056A00017F9F220FCF730F90020FCF711F9B020CF
:1056B000FCF72AF9C220FCF70BF9B620FCF724F915
:1056C0000A20FCF705F9A720FCF702F92720FCF7D0
:1056D000FFF80420FCF7FCF82A20FCF715F900205D
:1056E000FCF7F6F80020FCF7F3F80020FCF7F0F8E0
:1056F000EF20FCF7EDF82B20FCF706F90020FCF773
:10570000E7F80020FCF7E4F80120FCF7E1F83F207F
:10571000FCF7DEF8F620FCF7F7F80120FCF7D8F8E4
:105720000020FCF7D5F80620FCF7D2F82C20FCF777
:10573000EBF8C820FCF736F92620FCF7E5F8012045
:10574000FCF7C6F8E020FCF7DFF80F20FCF7C0F804
:105750002920FCF7BDF82420FCF7BAF80C20FCF750
:10576000B7F80E20FCF7B4F80920FCF7B1F84E208A
:10577000FCF7AEF87820FCF7ABF83C20FCF7A8F873
:105780000920FCF7A5F81320FCF7A2F80520FCF788
:105790009FF81720FCF79CF81120FCF799F80020DF
:1057A000FCF796F8E120FCF7AFF80020FCF790F842
:1057B0001620FCF78DF81B20FCF78AF80420FCF774
:1057C00087F81120FCF784F80720FCF781F83120D6
:1057D000FCF77EF83320FCF77BF84220FCF778F8E2
:1057E0000520FCF775F80C20FCF772F80A20FCF78E
:1057F0006FF82820FCF76CF82F20FCF769F80F20D1
:10580000FCF766F81120FCF77FF8C820FCF7CAF80F
:105810002920FCF779F8BDE808402C20FCF774B883
:1058200008B5FCF745F80321D320FCF789F880B2CE
:1058300008BD10B5C4B2022203212046FBF7EEFFDB
:105840000A20FCF733F8204600220321FBF7E6FF8D
:10585000BDE810400220FCF729B838B50446E4B290
:10586000FBF7DAFF00212046FBF7F0FF0121054698
:105870002046FBF7EBFF40EA052080B238BD10B5AB
:10588000C4B240212046FBF7E1FF030607D54C21B7
:105890002046FBF7DBFF003818BF012010BD0122B6
:1058A0004B212046FBF7BAFF204600224B21FBF795
:1058B000B5FF0020F2E773B50423C4B20E461546C7
:1058C000D7210DEB03022046FBF7DAFF019B1BBA41
:1058D0001A0DC3F30B23328020462B8001224B216B
:1058E000FBF79CFF00224B212046FBF797FF02B0FD
:1058F00070BD000010B50A4B1A78904204460DD0D6
:10590000597888420AD00AB141B901229C54FBF768
:1059100083FF2046BDE81040FFF78BBF10BD00BFDE
:10592000C845002010B5C4B209212046FBF78EFF00
:1059300040F00100C2B209212046BDE81040FBF74B
:105940006DBF10B5C4B209212046FBF77FFF0921C6
:1059500000F0FE022046BDE81040FBF75FBF38B5FF
:10596000C4B20D4620460A21FBF770FF2843C2B29D
:105970000A212046BDE83840FBF750BF07B501902B
:10598000FBF74BFF01981F21FFF7E9FF019803B0D8
:105990005DF804EBFFF7C6BF38B5C4B20D4620462C
:1059A0000A21FBF753FF20EA0500C2B20A21204674
:1059B000BDE83840FBF732BF10B50446FFF7C1FF22
:1059C00020461F21BDE81040FFF7E6BF10B5C0B26A
:1059D0000C460B21FBF73AFF204010BD1F21FFF7BB
:1059E000F5BF0A46C0B20B21FBF718BF1F21FFF716
:1059F000F8BF38B5C4B20D4620461721FBF726FF85
:105A000020EA0500C2B217212046BDE83840FBF766
:105A100005BF70B5C4B2064604212046FBF716FF49
:105A2000042100F0FB0205462046FBF7F7FE304656
:105A3000F021FFF7DEFF05F0F80220460421FBF716
:105A4000EDFE492220212046FBF7E8FE0220FBF76D
:105A50002DFF204601222121FBF7E0FE20469A225D
:105A60004121FBF7DBFE204601224A21FBF7D6FE4F
:105A7000204601224B21FBF7D1FE204600224B217C
:105A8000FBF7CCFE204601225621FBF7C7FE20463D
:105A900001225821FBF7C2FE204601224021FBF7DC
:105AA000BDFE2046FF220B21FBF7B8FEBDE870408B
:105AB0000220FBF7FBBE0000054BD3F8882042F420
:105AC0007002C3F888204FF000629A60704700BFF0
:105AD00000ED00E008B50B4B1A6842F400721A6042
